:020000040800F2
:10000000705A0120F1020008C50B00081F0B000800
:10001000C30B00082F090008711100080000000040
:10002000000000000000000000000000390200088D
:100030007D0A0008000000008D020008E50D0008A0
:100040000B0300080B0300080B0300080B03000858
:100050000B0300080B0300080B0300080B03000848
:100060000B0300080B0300080B0300080B03000838
:100070000B0300080B0300080B0300080B03000828
:100080000B0300080B0300080B0300080B03000818
:100090000B0300080B0300080B0300080B03000808
:1000A0000B0300080B0300080B0300080B030008F8
:1000B0000B030008550E00080B0300080B03000893
:1000C0000B0300080B0300080B0300080B030008D8
:1000D0000B030008A50F00080B0300080B03000822
:1000E0000B0300080B0300080B0300080B030008B8
:1000F0000B0300080B0300080B0300080B030008A8
:100100000B0300080B0300080B0300080B03000897
:100110000B0300080B0300080B0300080B03000887
:100120000B0300080B0300080B0300080B03000877
:100130000B0300080B0300080B0300080B03000867
:100140000B0300080B0300080B0300080B03000857
:100150000B0300080B0300080B0300080B03000847
:100160000B0300080B0300080B0300080B03000837
:100170000B0300080B0300080B0300080B03000827
:100180000B0300080B03000800F002F800F044F82D
:100190000AA090E8000C82448344AAF10107DA45E2
:1001A00001D100F039F8AFF2090EBAE80F0013F0F0
:1001B000010F18BFFB1A43F0010318471C31000060
:1001C0003C310000103A24BF78C878C1FAD85207F1
:1001D00024BF30C830C144BF04680C6070470000C1
:1001E0000023002400250026103A28BF78C1FBD840
:1001F000520728BF30C148BF0B607047642900F028
:100200001781732900F08D82002070471FB503F01D
:100210004BF81FBD10B510BD00F0F7FA1146FFF7FF
:10022000F5FF00F0CDFF00F015FB03B4FFF7F2FF80
:1002300003BC00F09EFF00002A4B19680868B0E874
:10024000F04F80F30988BFF36F8F4FF0000080F309
:10025000118870470000000006480068006880F3BD
:10026000088862B661B6BFF34F8FBFF36F8F00DFB0
:1002700000BF00BF08ED00E0DFF80C00016841F4AA
:1002800070010160704700BF88ED00E0EFF3098066
:10029000BFF36F8F134B1A681EF0100F08BF20EDCD
:1002A000108A20E9F04F106008B44FF0500080F33E
:1002B0001188BFF34F8FBFF36F8F02F051F94FF0EA
:1002C000000080F3118808BC19680868B0E8F04F96
:1002D0001EF0100F08BFB0EC108A80F30988BFF33E
:1002E0006F8F704770000020EFF3058070470000AB
:1002F0000948804709480047FEE7FEE7FEE7FEE7BA
:10030000FEE7FEE7FEE7FEE7FEE7FEE704480549F5
:10031000054A064B70470000F90D000889010008E6
:1003200070540120705A012070560120705601202F
:10033000704700000FB4044910B503AA029800F0FA
:10034000F5F910BC5DF814FB380000200FB41CB5A3
:10035000074B06AA7B4469460090059800F0B7F960
:100360000020694600F0C6F91CBC5DF814FB0000D3
:100370009D0300002DE9F0410E4604460020206256
:100380002046E168884730B3252805D0D4E901210B
:100390009047206A401CF2E7E16820460027884722
:1003A000050018D0A5F14100192802D820354FF4D6
:1003B00000673246294620462760FFF71FFF40B1FD
:1003C000012804D0F61D26F007060836D8E7361DAA
:1003D000D6E72846DAE7206ABDE8F08170B50C461A
:1003E0000546012A05D02878800600D5EA69002351
:1003F00002E0012305E05B1C934202D2E05C00288E
:10040000F9D1A869E618C01AA861286A18442862B8
:100410002846AFF3008004E0D5E9012114F8010B70
:100420009047B442F8D32846AFF3008070BD000077
:100430002DE9F0410646002410687529314616A5BD
:1004400010D0AFF30080002802DA404213A507E085
:1004500031688A0701D512A502E0490704D511A524
:10046000012401E0AFF3008000210A2206F12407F5
:1004700009E0B0FBF2FCB0FBF2F302FB1C003030F1
:1004800078541846491C0028F3D123462A463046A2
:10049000BDE8F04100F0BCB8000000002D000000F5
:1004A0002B00000020000000032A40F2308010F0F2
:1004B000030C00F0158011F8013BBCF1020F6244FF
:1004C00098BF11F801CB00F8013B38BF11F8013B90
:1004D000A2F1040298BF00F801CB38BF00F8013B3D
:1004E00011F0030300F03481083AC0F0088051F89D
:1004F000043B083A51F804CBA0E80810F5E7121DB8
:100500005CBF51F8043B40F8043BAFF30080D207D6
:1005100024BF11F8013B11F801CB48BF11F8012BA2
:1005200024BF00F8013B00F801CB48BF00F8012BC5
:10053000704702F0FF0343EA032242EA024200F05E
:1005400002B84FF000020429C0F0128010F0030C32
:1005500000F03281CCF1040CBCF1020F18BF00F89E
:10056000012BA8BF20F8022BA1EB0C0100F024B94D
:100570005FEAC17C24BF00F8012B00F8012B48BFC3
:1005800000F8012B704700004FF0013C50F8042B9D
:1005900051F8043B9A4221D1A2EB0C03934313EA96
:1005A000CC1317D150F8042B51F8043B9A4215D1C3
:1005B000A2EB0C03934313EACC130BD150F8042B9A
:1005C00051F8043B9A4209D1A2EB0C03934313EA7E
:1005D000CC13DBD04FF00000704700BFD01A01BA37
:1005E000B1FA81F101F0180122FA01F0CB40C1F11A
:1005F0002001DBB2C0B2C01A2CFA01F3D11A914328
:1006000011EAC311E6D170477047704770477047D1
:100610002DE9F0470D4699469246044600F124081C
:100620000168880604D5E06921F01001216000E02E
:100630000120A84201DD471B00E00027A1697A19CB
:1006400002EB0900081AA0612078C00602D42046F7
:10065000AFF30080002608E0D4E901211AF8060073
:100660009047206A401C761C20624E45F4DB2078BF
:10067000C0060AD52046AFF3008006E0D4E9012188
:1006800030209047206A401C2062381EA7F10107E5
:10069000F4DC07E0D4E9012118F805009047206A4E
:1006A000401C2062281EA5F10105F3DC2046AFF3B3
:1006B00000802078000602D50220BDE8F0870120E6
:1006C000FBE7000001694A1C02610878704700B529
:1006D0008FB0CDE901310021059105497944CDE97B
:1006E000031011466846FFF745FE0FB000BD00003D
:1006F000E5FFFFFF0A6802F8010B0A60704710B5BA
:10070000436913B1AFF3008001E0FFF767FE0120FA
:1007100010BD127800F124010A7000224A700122F3
:10072000EDE711684FF0FF32E9E70000074B70B5C5
:100730000D467B44FFF7CBFF0446284600F061F8E6
:1007400010B14FF0FF3070BD204670BD770A000039
:1007500010B5203AC0F00B80B1E81850203AA0E85C
:100760001850B1E81850A0E81850BFF4F5AF5FEA90
:10077000027C24BFB1E81850A0E8185044BF18C943
:1007800018C0BDE810405FEA827C24BF51F8043BEA
:1007900040F8043B08BF7047D20728BF31F8023B3E
:1007A00048BF11F8012B28BF20F8023B48BF00F8D2
:1007B000012B70474FF0000200B513469446964651
:1007C000203922BFA0E80C50A0E80C50B1F1200164
:1007D000BFF4F7AF090728BFA0E80C5048BF0CC012
:1007E0005DF804EB890028BF40F8042B08BF704770
:1007F00048BF20F8022B11F0804F18BF00F8012BE2
:100800007047007B00F080007047754600F02CF8C0
:10081000AE4605006946534620F00700854618B0ED
:1008200020B5FFF773FDBDE820404FF000064FF004
:1008300000074FF000084FF0000B21F00701AC4615
:10084000ACE8C009ACE8C009ACE8C009ACE8C00934
:100850008D46704710B50446AFF300802046BDE8D2
:100860001040FFF7E2BC0000004870470C54012024
:1008700010B50121022000F0E3F90121042000F06D
:10088000DFF90121082000F0DBF90121102000F040
:10089000D7F90121202000F0D3F90121402000F0F8
:1008A000CFF90121BDE81040802000F0C9B9000057
:1008B0007CB50121202000F0C3F901208DF804004F
:1008C00000208DF8060003208DF805000220074D5A
:1008D0004FF480748DF8070000946946284600F0B4
:1008E000CEF82146284600F016F97CBD00140240DF
:1008F00010B50021022000F0A3F90021042000F02F
:100900009FF90021082000F09BF90021102000F041
:1009100097F90021202000F093F90021402000F0F9
:100920008FF90021BDE81040802000F089B9FEE772
:1009300070B50546FF240EA1FFF726FE78B10EA183
:100940002846FFF721FE60B10DA12846FFF71CFEE7
:1009500048B10DA12846FFF717FE30B106E001248B
:1009600004E0022402E0032400E00424204670BDD9
:100970004C4544314F4E00004C4544314F464600F3
:10098000424545504F4E0000424545504F464600B7
:1009900003480022026042605321312000F074BA03
:1009A000280000204FF0FF3BDFF894A0254E264F93
:1009B0004FF00108002500235A461946DAF80C00CA
:1009C00001F0F8FE0128F6D13C780020611C00F00F
:1009D000DDFC81461D4A1EA1FFF7B8FC484609F818
:1009E0000450214600F0DEF84846FFF7A1FF044618
:1009F000FF2818D0494617A0FFF79CFC012C06D011
:100A0000022C07D0032C08D0042C0FD108E0C6F824
:100A1000A8520BE0C6F8A88208E0C6F8A08205E05C
:100A2000C6F8A05202E00EA0FFF784FC3D80C8216A
:100A30000648FFF786FD4946002000F09BFCBAE718
:100A4000000000200080424234000020EC00002022
:100A500025730000C3FCC1EECEAA3A25730D0A002F
:100A6000CEDED0A7B5C4C3FCC1EEA3ACC7EBD6D8CD
:100A7000D0C2CAE4C8EB21210D0A00007047F0B5CE
:100A8000002201274FF0030C0B6807FA02F52B40F8
:100A9000AB422CD1066853000CFA03F4A64306605F
:100AA0000E79D0F800E09E4046EA0E0606600E7908
:100AB000012E01D0022E12D18668A64386604E799F
:100AC000D0F808E09E4046EA0E0686604668AE43CF
:100AD000466045688E799640B6B235434560C56834
:100AE000A543C560CC799C40C3681C43C460521CBC
:100AF000102AC9D3F0BD4B07DB0E9A40C90810B5C8
:100B000000EB8100016A0F249C40A1430162016A4D
:100B10001143016210BD4183704701837047FEE7B6
:100B20001CB50121112000F08BF81C200090002042
:100B30008DF8040003208DF8050001248DF807408E
:100B400069460648FFF79BFF02208DF807000094D6
:100B500069460348FFF793FF1CBD000000100240E8
:100B6000000002407CB50121202000F069F801203E
:100B70008DF8040000228DF8062003218DF8051061
:100B8000074D4FF4C0648DF807000094694628466D
:100B9000FFF775FF21462846FFF7BFFF7CBD000029
:100BA0000014024010B5002208E0835CA3F1610448
:100BB0001A2C01D2203B8354521CD2B28A42F4D365
:100BC00010BDFEE77047000030B50F23C2780178F2
:100BD0000125FAB1144A126801F1E02102F4E06241
:100BE000C2F5E062C2F30722C2F10404D3404278A6
:100BF000A24084781C401443220181F8002400782C
:100C000000F01F018D404009800000F1E020C0F895
:100C1000005130BD01F01F0085404809800000F1FF
:100C2000E020C0F8805130BD0CED00E002490843DF
:100C300002490860704700000000FA050CED00E072
:100C4000044A0029116801D0014300E0814311608A
:100C50007047000030380240044A0029116801D072
:100C6000014300E0814311607047000040380240BA
:100C7000044A0029116801D0014300E0814311605A
:100C8000704700004438024070B5204B1968204C72
:100C900011F00C0104D06610042903D0082903D0F8
:100CA00004601BE0066019E0184A121F1168C1F3C6
:100CB0008055116801F03F0115B1B6FBF1F101E07B
:100CC000B4FBF1F114681268C4F388146143C2F3F1
:100CD0000142521C5200B1FBF2F1016019680F226F
:100CE00002EA11110B4A545C0168E14041601C6842
:100CF000072505EA9424145D21FA04F484601B6836
:100D000005EA5333D25CD140C16070BD083802405F
:100D10000024F4003C0000200CB50022274900927A
:100D20000192086840F4803008604FF4A0430868DE
:100D300000F4003001900098401C0090019810B918
:100D400000989842F3D10868800334D501200190BF
:100D50001A484030026842F0805202601848026827
:100D600042F440420260154808300268026002689E
:100D700042F400420260026842F4A0520260031F83
:100D8000104A1A600A6842F080720A600A6892018A
:100D9000FCD50D4940F205720A60016821F003019B
:100DA0000160016841F0020101600168C1F3810145
:100DB0000229FAD10CBD01920CBD0000003802409E
:100DC0000070004008544007003C02404FF0E02112
:100DD0000428086903D020F004000861704740F03F
:100DE0000400FAE710B502F003F8012803D0BDE8CB
:100DF000104001F08DBC10BD124810B5016841F4DF
:100E0000700101601048016841F0010101600E4A63
:100E100000210832116002680C4B1A400260031D69
:100E20000B4A1A60026822F48022026006480C30E5
:100E30000160FFF771FF03494FF0006080390860DF
:100E400010BD000088ED00E000380240FFFFF6FE14
:100E50001030002410B50A4C0121204600F04FF854
:100E6000012807D107490A684868521C40F1000070
:100E70000A6048602046BDE81040012100F032B809
:100E800000040040280000207FB50D4604460121E3
:100E90000220FFF7E1FE0194ADF800500024104D50
:100EA000ADF80240ADF808406946284600F03CF82D
:100EB00001221146284600F02EF80121284600F0B4
:100EC00014F81D208DF80C0001208DF80D008DF810
:100ED0000E408DF80F0003A8FFF776FE7FBD0000DF
:100EE00000040040C943018270470029018802D0F4
:100EF00041F0010101E021F001010180704702464B
:100F00000020138A92890B4202EA010202D0002AD1
:100F100000D001207047002A828901D00A4300E0F6
:100F20008A4382817047000030B50288164C174D05
:100F3000A0420DD0A8420BD0B0F1804F08D0144B86
:100F4000984205D0134B984202D0134B984203D1DC
:100F500022F070034A881A43104B984206D0104B77
:100F6000984203D022F440730A891A4302804A68E7
:100F7000C2620A880285A04201D0A84201D1897AC2
:100F800001860121818230BD000001400004014042
:100F90000004004000080040000C00400010004029
:100FA0000014004038B51F4D40F22551284600F08E
:100FB0004DF81D4CD8B1284600F0D6F8C1B22088B3
:100FC000020417D443044FF0000204D50A290DD1BE
:100FD00040F4004023E00D291FD0C0F30D03134D52
:100FE000401C80B2E9542080C72800D92280208884
:100FF000000411D50E48006800280DD0694601F0A4
:1010000023FE0098002807D00A494FF0805008605E
:10101000BFF34F8FBFF36F8F38BD40F48040208007
:10102000E5E700000010014034000020EC00002043
:101030000C00002004ED00E00029818902D041F479
:10104000005101E021F400518181704770B501F039
:101050001F0501260024C1F3421306FA05F2012BF5
:101060000FD0022B0FD0838A4FEA11210088134240
:1010700006FA01F600EA060001D000B1012420467C
:1010800070BD8389F0E7038AEEE710B5C1F3421320
:1010900001F01F040121A140012B07D0022B07D032
:1010A0001430002A026805D00A4304E00C30F8E747
:1010B0001030F6E78A43026010BD00007FB5044699
:1010C000008A0D46C98820F4405001432182A0893E
:1010D00041F20C618843A9882A8911436A89024335
:1010E0001143A181A08A20F44071A8890843A082FD
:1010F0006846FFF7C9FD1A48844202D01948844265
:1011000001D1039800E00298A189090400EBC00115
:1011100001EB0010296801D5490000E08900B0FB0F
:10112000F1F06422B0FBF2F109010B096FF0180530
:101130006B4300EB8300A3891D044FF0320306D5F7
:1011400003EBC000B0FBF2F000F0070005E003EB9A
:101150000010B0FBF2F000F00F00084320817FBDCB
:1011600000100140001401408088C0F3080070475F
:10117000FEE7704710B504460420FFF727FE0A4833
:101180004FF47A71047014FB01F1012242804FF098
:10119000E020026942F0020202614161016941F00E
:1011A0000101016110BD00003000002003490A88E0
:1011B0005206FCD5C2B28A80704700000010014080
:1011C0001CB54FF44070FFF731FDA820FFF7D2FFA8
:1011D0004FF4E13000F01EFEFFF7C4FCFFF7A0FC67
:1011E000FFF766FB002000F045F807490120CDE934
:1011F00000010202002305A1074801F0CDFD01F026
:101200005BF900201CBD00000000002073746172B7
:10121000745F7461736B0000791D000870B5134A28
:10122000131893F8203093B1114B53F820308B42B0
:101230001AD90F4B02EB80020C3B53F82030506957
:10124000B1FBF3F130F811400020034608E01168CB
:101250008847012070BD55690E18401C25F81630CE
:10126000A042F8DB002070BD022070BD4C000020C1
:10127000CC32000870B504460B480C4E002150F8E3
:10128000240006EB84054200686900F08FF80648E8
:101290000021183050F82420A86800F087F80120B9
:1012A000311981F8200070BDB43200084C000020D4
:1012B0002DE9F0411F4E0546002470190F4690F8A5
:1012C000200010B93168284688474FF0FF327FB3BD
:1012D000194B53F82510B7FBF1F0B7FBF1FC01FBFC
:1012E0001C7101B1401C14490C3951F82510491EDC
:1012F0001ED406EB8506776937F811C0BCF1000FE4
:1013000005D00024844211D1002284B207E0641C7D
:10131000F8E7776901EB020C521C27F81C40824267
:10132000F7D353F825004843BDE8F081491EE3D5C3
:101330001046F9E74C000020C032000810B50B4BF6
:101340000B4C002253F82030114604EB800005E0DE
:10135000446934F8114004B1521C491C8B42F7D83F
:1013600064204243B2FBF3F0C0B210BDB4320008B7
:101370004C000020002906D0034A02EB800292684C
:10138000891AFFF74BBF70474C00002010B5044688
:10139000FFF78EFF411C05D0034901EB84018968EA
:1013A000084410BD002010BD4C00002001E000F8F2
:1013B000011B521EFBD270472DE9F041184E0F461B
:1013C0000446F5683068001D00F07AFD38B93068D1
:1013D00090F82C1001208840316981433161601CF4
:1013E00007D137B13168BDE8F0410E48091D00F062
:1013F000B0BD30682C44AC424460316805D2306CDA
:10140000BDE8F041091D00F08CBDF06B091D00F036
:1014100088FDB06A844200D2B462BDE8F081000069
:1014200070000020D00301202DE9F041054600F0B6
:101430009DFD2D4EB068401CB06030682B4F10B140
:10144000706930B32BE03560B068012827D10024E3
:1014500004EB840007EB800000F055FD641C202C99
:10146000F6D3234800F04FFD2148143000F04BFD27
:101470001F48283000F047FD1D483C3000F043FD78
:101480001B48503000F03FFD1948F06314303064C1
:1014900005E03068E96AC06A884200D83560706A41
:1014A0000121401C7062A864E86A326981401143DE
:1014B000316100EB800007EB8000291D00F049FD41
:1014C00000F090FD706900280CD03068E96AC06AAD
:1014D000884207D207494FF080500860BFF34F8F12
:1014E000BFF36F8FBDE8F081700000200001012084
:1014F0008003012004ED00E010B500F037FD0E4C34
:101500002068A0B90D4800F0FEFC0C48143000F033
:10151000FAFC0A48E0601430206100221021052006
:1015200001F00CF9206010B105A100F031FEBDE81A
:10153000104000F057BD0000B4000020E40301207B
:10154000546D72510000000070B5124E124D1CE037
:1015500000F0FEFF306820B1002401F077FDA4B94F
:1015600001E00124F9E700F001FDF068C468201DE6
:1015700000F0A6FCA868401EA8606868401E68606D
:1015800000F030FD204600F052F868680028DFD1F6
:1015900070BD0000BC0301207000002030B4026C5C
:1015A0000B46002A0BD0C1681144C1604468A142B7
:1015B00001D30168C16030BC1846FEF775BF30BC6E
:1015C00070472DE9F041856B174604460026026CF2
:1015D00082B1C7B1E068FEF767FFE168206C091AC5
:1015E000E1602268914202D26168081AE060022F2D
:1015F00016D017E02068A8B9606801F081FC0646A3
:10160000002060600EE0A068FEF74EFF216CA0682D
:101610000844A0606168884204D32068A06001E0AB
:1016200005B16D1E6D1CA5633046BDE8F08110B597
:101630000446006B00F008FD2046BDE8104000F0B5
:1016400003BD000010484FF4A041420706D0C01D62
:101650000D4920F00700411AC1F5A0410B4A0023B3
:101660000144C2E900030839103A21F00701116072
:101670004B600B600B1AC0E9001393604FF0004001
:101680005360D060704700000C040120E40000208B
:10169000084E4FF08054084DFFF756FF3068012880
:1016A00004D92C60BFF34F8FBFF36F8F00F01AFC8B
:1016B000F2E700000001012004ED00E02DE9F04711
:1016C000DDE909840E461746824691009946089D39
:1016D000A522206BFEF72DFF6FF00301206B01EBBD
:1016E0008701084420F00707780705D040F22B3225
:1016F00019A11EA0FEF71EFE00202218315C82F800
:101700003410315C11B1401C1428F6D3002684F843
:101710004760202D00D31F25E562C4E91456201D23
:1017200000F0FCFB04F1180000F0F8FB2461C5F1A7
:1017300020006462A061A665E66584F860604A46A0
:101740005146384600F002FB2060B8F1000F01D08E
:10175000C8F80040BDE8F0872E2E5C4672656552E1
:10176000544F535C7461736B732E63004572726FD8
:10177000723A25732C25640D0A00000030B511491A
:1017800000E011460A688242FBD34B685C18844231
:1017900003D1406818444860084643681C189442C6
:1017A00009D1084C103C2468A24209D052681A445E
:1017B00042600A6812680260814200D0086030BD51
:1017C0000460F9E7E400002070B5002441600B4D8F
:1017D0000061914206D8D11A8269914206D2011D58
:1017E000286907E09A4203D2994201D3012403E019
:1017F000011DE86800F095FB204670BDB400002094
:1018000010B5044600F0B2FBA06B20B1002400F03C
:10181000E9FB204610BD0124F9E700002DE9F34162
:1018200000980F460026846C2CB940F6CE1216A103
:101830001AA0FEF77FFDA06BE16B884205D340F64E
:10184000CF1211A115A0FEF775FDA06BE16B8842C8
:101850000CD294F945503A4669462046FFF7B1FE4E
:101860000646681C05D06D1C84F845503046BDE81E
:10187000FC81606A0028F9D004F1240001F09AFB91
:101880000028F3D00126F1E72E2E5C4672656552E2
:10189000544F535C71756575652E63004572726FA8
:1018A000723A25732C25640D0A000000F8B5054630
:1018B00014480E46C068C068C468201D00F000FBD4
:1018C000E069012817D1A0692B464119324620460C
:1018D000FFF77AFF78B100200346014600902A46C0
:1018E000204601F099FC30B907494FF4027201F12A
:1018F0001800FEF71FFD616A01B02046BDE8F04008
:1019000008470000B40000207C31000870B586B0A4
:101910002F4E53E00198002806DADDE90301029A10
:1019200090470198002849DB039C606910B1201D95
:1019300000F0C6FA05A800F0A7F8054601980A28A5
:101940003CD2DFE800F00505053B273805053B27BD
:101950000298A169034601442A462046FFF734FF56
:1019600000282BD0616A20468847E069012825D1EC
:10197000002000900298A1690023421819462046D1
:1019800001F04AFCD0B940F2213212A117A0FEF7B3
:10199000D1FC13E00298A06128B94FF44E720DA15A
:1019A00012A0FEF7C7FCA0692B4641191A46204633
:1019B000FFF70AFF02E0204600F046FB00231A462C
:1019C00001A9306800F0F6FE0028A3D106B070BD72
:1019D000B40000202E2E5C4672656552544F535C55
:1019E00074696D6572732E63000000004572726F3A
:1019F000723A25732C25640D0A000000F8B50D46D7
:101A0000064600F0A5FD684600F03EF80446009842
:101A100010B101F01BFBF8BD1148ADB101690968B7
:101A2000D9B10025311B2A46006800F0C3FB01F044
:101A30000DFB0028EFD10B494FF080500860BFF339
:101A40004F8FBFF36F8FF8BDA642EBD801F0FEFABF
:101A500021463046FFF72AFFF8BD0125E2E70000E6
:101A6000B400002004ED00E00648C16B096829B10C
:101A7000C16BC968C9684968816270474FF0FF311E
:101A8000FAE700007000002070B5054601F0BEF9CD
:101A9000064E0446B068844203D200F009F80120E3
:101AA00000E0002028602046B46070BDB400002033
:101AB000F8B5184E26E0C068C4680568201D00F01F
:101AC000FFF9616A20468847E06901281AD1A069B8
:101AD0002844A84206D924616060211DF06800F006
:101AE00020FA0FE000200346014600902A462046D7
:101AF00001F092FB30B9084940F2923201F118002E
:101B0000FEF718FCF06801680029D4D13169C6E9F4
:101B10000310F8BDB40000207C310008084840687C
:101B2000401C05D040F20F1206A111A0FEF702FCE6
:101B3000502080F31188BFF34F8FBFF36F8FFEE704
:101B4000C80000202E2E5C4672656552544F535CCF
:101B5000706F727461626C655C525644535C4152A2
:101B60004D5F434D34465C706F72742E630000000D
:101B70004572726F723A25732C25640D0A000000BD
:101B8000084CE068016839B1002139B10020FFF745
:101B900035FFFFF7BBFEF4E70121F6E7C0680068F8
:101BA000F5E70000B40000202DE9F041044600F004
:101BB000DDF994F9455004F1240610E0A06C20B141
:101BC00000212046FFF72AFE04E0606A48B1304653
:101BD00001F0F0F908B100F0ABFB6D1E6DB2002D05
:101BE000ECDC4FF0FF3684F8456000F0FBF900F0C4
:101BF000BDF994F9445004F1100709E0206948B197
:101C0000384601F0D7F908B100F092FB6D1E6DB2B5
:101C1000002DF3DC84F84460BDE8F04100F0E2B947
:101C20002DE9F0410546002600F092FC324F38685D
:101C300008B9FFF707FDF86805424FD1002D4DD0D8
:101C4000083568070BD005F00700C0F1080005440F
:101C5000680704D0BF2229A132A0FEF76BFB002D3C
:101C60003CD07868854239D8234910310846046849
:101C700001E0214604466068A84202D2206800289C
:101C8000F7D13868B846844228D00E6820680860CA
:101C900060680836401B10280ED96719780704D0F1
:101CA000EC2216A11FA0FEF745FB6068401B786080
:101CB00038466560FFF762FD6168D8F80400424667
:101CC000401AC8F80400D8F80830984200D2906052
:101CD000D8F80C0001430020C4E9000101F0B6F976
:101CE000700705D04FF4967204A10EA0FEF722FBF8
:101CF0003046BDE8F0810000D40000202E2E5C4666
:101D000072656552544F535C706F727461626C659A
:101D10005C4D656D4D616E675C686561705F342E0A
:101D2000630000004572726F723A25732C25640DB2
:101D30000A0000000449086818B10868426D521C86
:101D400042650868704700007000002010B5031F4E
:101D50004FF080741C601B1F21F001011960191FD6
:101D6000044B0B6014390A60091F6FF002024438FB
:101D70000A6010BD1D1B00087CB500F0F7F80322B7
:101D80000021012000F0DAFC0F4C0023211DE0604F
:101D90000220C501CDE900012A460CA10E4800F041
:101DA000FBFF04F108010320CDE9000100232A46CE
:101DB0000AA10E4800F0F0FF206800F053FABDE8D9
:101DC0007C4000F00FB90000000000207461736BCC
:101DD000315F7461736B0000F11D00086B657970F1
:101DE000726F636573735F7461736B00A50900089C
:101DF000074C4FF4FA75D4F8A40230B10021C4F8AE
:101E0000A412284600F0F8F9F5E70121F7E70000F1
:101E100000804242F0B50746012187B00846FEF730
:101E20000FFF01211020FEF723FF234E0722092177
:101E30003046FEF760FE07220A213046FEF75BFEC1
:101E40004FF4C060049002208DF814008DF8150046
:101E500000248DF8164001258DF8175004A930464E
:101E6000FEF70DFEADF808400C20144EADF804400E
:101E7000ADF80A000097ADF80640ADF80C40694691
:101E80003046FFF71BF901213046FFF7D5F8012254
:101E900040F225513046FFF7F8F825208DF818005C
:101EA00007208DF819008DF81A408DF81B5006A8F0
:101EB000FEF78AFE07B0F0BD0000024000100140AE
:101EC000D0E9013201699A60D0E901235A604A6879
:101ED000824201D182684A60002202610868401E85
:101EE0000860704710B572B6BFF34F8FBFF36F8FA6
:101EF000FEF7FEFC30BFFEF7BBFCBFF34F8FBFF316
:101F00006F8F62B610BD00F108014FF0FF32C0E9DB
:101F10000112C1600161002101607047002101616F
:101F2000704730B50C68621C02D000F1080202E074
:101F3000026904E01A4653681D68A542FAD953683D
:101F40004B6099608A60516008610168491C0160BA
:101F500030BD42684A6093688B60936859609160B5
:101F600008610168491C016070470000502080F33F
:101F70001188BFF34F8FBFF36F8F09494868401C2A
:101F8000486001280AD10748006810F0FF0F05D00B
:101F900040F2B91204A10FA0FEF7CCB970470000BF
:101FA000C800002004ED00E02E2E5C4672656552EC
:101FB000544F535C706F727461626C655C5256442E
:101FC000535C41524D5F434D34465C706F72742ECA
:101FD000630000004572726F723A25732C25640D00
:101FE0000A00000010B5084C606828B94FF4E07290
:101FF00006A111A0FEF79EF96068401E606001D145
:1020000080F3118810BD0000C80000202E2E5C4611
:1020100072656552544F535C706F727461626C6587
:102020005C525644535C41524D5F434D34465C70A4
:102030006F72742E630000004572726F723A2573DE
:102040002C25640D0A00000070B500282AD0164D1A
:10205000A0F108046068E968084205D14FF4A07255
:1020600012A11CA0FEF766F9206828B140F24112C7
:102070000EA118A0FEF75EF96068E968084211D069
:102080002268002A0ED18843606000F061FA60681F
:102090006968084468602046FFF770FBBDE870403F
:1020A00000F0D4BF70BD0000D40000202E2E5C468E
:1020B00072656552544F535C706F727461626C65E7
:1020C0005C4D656D4D616E675C686561705F342E57
:1020D000630000004572726F723A25732C25640DFF
:1020E0000A00000006484FF47A710068B0FBF1F175
:1020F0004FF0E020491E4161072101617047000057
:102100001000002010B5FEF7EFF8104C10280CD38B
:1021100000F1E02090F8F0032178884205D24FF4D6
:1021200040720BA115A0FEF705F918480068A168D8
:1021300000F4E060884207D9BDE810404FF44472D3
:1021400003A10EA0FEF7F6B810BD0000C8000020E5
:102150002E2E5C4672656552544F535C706F7274DC
:1021600061626C655C525644535C41524D5F434D15
:1021700034465C706F72742E630000004572726F9B
:10218000723A25732C25640D0A0000000CED00E066
:1021900010B5074B002253F832401CB1521C082ADC
:1021A000F9D310BD43F8321003EBC201486010BDF3
:1021B000C000012070B515460E460446FFF7D6FE56
:1021C00094F944100020491C01D184F8440094F98A
:1021D0004510491C01D184F84500FFF703FFA06BAF
:1021E00028B92A46314604F1240000F0D1F82046EF
:1021F000BDE87040FFF7D8BC10B5040012D00E49FE
:10220000096B29B140F2CF420CA111A0FEF792F860
:1022100000F09EF900212046FFF7CEF800F016FFEF
:10222000002807D10E494FF080500860BFF34F8F50
:10223000BFF36F8F10BD0000700000202E2E5C4693
:1022400072656552544F535C7461736B732E6300F7
:102250004572726F723A25732C25640D0A000000D6
:1022600004ED00E070B50446FFF780FE234D04B98D
:102270002C68201DFFF724FE58B9E06A204A00EBC5
:10228000800152F8211021B9012181402869884339
:102290002861A06A18B104F11800FFF711FE686AFE
:1022A000401C68622868844207D1211D1548FFF749
:1022B00050FE6868401C686007E0A868401EA8607F
:1022C0002046FFF7B4F9FFF7CFFBFFF78BFE6869F5
:1022D000002812D0286884420FD1286B28B140F220
:1022E000654209A10DA0FEF725F810494FF0805076
:1022F0000860BFF34F8FBFF36F8F70BD7000002079
:1023000000010120BC0301202E2E5C46726565523F
:10231000544F535C7461736B732E63004572726F1C
:10232000723A25732C25640D0A00000004ED00E0CC
:1023300001490120C86170477000002070B50D464A
:10234000040005D140F6063207A10CA0FDF7F2FF0C
:102350000E48016820461831FFF7E3FD2846BDE826
:1023600070400121FFF728B82E2E5C467265655239
:10237000544F535C7461736B732E63004572726FBC
:10238000723A25732C25640D0A00000070000020AD
:1023900070B514460E46050005D140F6313209A14C
:1023A0000DA0FDF7C7FF1048016828461831FFF758
:1023B000D0FD0CB14FF0FF3621463046BDE87040ED
:1023C000FEF7FABF2E2E5C4672656552544F535C81
:1023D0007461736B732E63004572726F723A25736A
:1023E0002C25640D0A0000007000002070B5040068
:1023F00039D01D4DE06A2968C96A884233D2A06984
:10240000002804DB2868C06AC0F12000A061E06AEF
:10241000164E00EB8000616906EB800081421FD1FF
:10242000201DFFF74DFD012150B9E06A00EB80024D
:1024300056F8222022B92A6901FA00F082432A6163
:102440002868C06AE0622A6981401143296100EB73
:10245000800006EB8000211DBDE87040FFF779BDCC
:102460002868C06AE06270BD700000200001012091
:1024700010B5040005D140F6C13205A109A0FDF751
:1024800059FF0C48016A2160C068606010BD0000FF
:102490002E2E5C4672656552544F535C7461736BAB
:1024A000732E63004572726F723A25732C25640D8A
:1024B0000A000000700000201CB518480024CDE977
:1024C00000402346822216A1174800F065FC01282F
:1024D00003D100F067FE01280AD0401C1DD102B0D4
:1024E00040F28472BDE8104010A115A0FDF722BF94
:1024F000502080F31188BFF34F8FBFF36F8F0748D1
:102500004FF0FF312C38816201214161C460FEF738
:102510003FFABDE81C4000F071B81CBD9C000020D3
:1025200049444C4500000000911600082E2E5C46E0
:1025300072656552544F535C7461736B732E630004
:102540004572726F723A25732C25640D0A000000E3
:102550000248016B491C01637047000070000020B5
:1025600070B51A4C206B10B10120E06170BD0020E5
:10257000E061174908684968A063626B904204D91A
:102580002168821A8B6D1A448A6560632069114E36
:10259000B0FA80F0C0F11F0000EB800556F825006E
:1025A00028B940F6F6220CA110A0FDF7C3FE06EBF9
:1025B000850000F10802416849684160914201D1FB
:1025C00049684160C868206070BD0000700000204C
:1025D00028000020000101202E2E5C467265655205
:1025E000544F535C7461736B732E63004572726F4A
:1025F000723A25732C25640D0A0000001CB5304C7E
:1026000020683049884205D140F259122EA139A0E4
:10261000FDF790FE20682B49491E884205D14FF4F2
:10262000AD7229A133A0FDF785FE364C20780190CC
:10263000FF20207020788DF800009DF800009DF8A4
:10264000001000F0F000884205D040F273121EA185
:1026500028A0FDF76FFE9DF800002B4A00F0500007
:1026600010700720906007E09068401E90609DF811
:10267000000040008DF800009DF800000006F3D433
:10268000107A000200F4E0609060019820700C481D
:102690002030016841F470010160016841F070412F
:1026A0000160FFF71FFD00205060FDF7E5FD1748B2
:1026B000016841F040410160FDF7CEFD00201CBDE6
:1026C00000ED00E071C20F412E2E5C46726565522E
:1026D000544F535C706F727461626C655C52564407
:1026E000535C41524D5F434D34465C706F72742EA3
:1026F000630000004572726F723A25732C25640DD9
:102700000A00000000E400E0C800002034EF00E010
:1027100010B5502080F31188BFF34F8FBFF36F8F38
:1027200000F07AFB18B104494FF080500860002097
:1027300080F3118810BD000004ED00E02DE9F041A8
:1027400017460E46050005D14FF4C47210A115A01E
:10275000FDF7F0FDBEB105FB06F05430FFF760FA5F
:1027600004000ED004F154007EB12060C4E90F567D
:102770002046012100F0E0F884F850700021204646
:10278000A164BDE8F0810020E7E72460EEE70000E7
:102790002E2E5C4672656552544F535C717565759B
:1027A000652E63004572726F723A25732C25640D95
:1027B0000A0000002DE9FF4F83B09B468A460400C3
:1027C0004FF0000605D140F2DC4251A155A0FDF7C3
:1027D000B1FDBAF1000F07D1206C28B140F2DD4203
:1027E0004BA150A0FDF7A6FD00F002FB38B90598FB
:1027F00028B14FF49C6246A14AA0FDF79BFD4FF023
:1028000000094FF08057DFF82C81FFF7AFFBA56B75
:1028100045B351462046E668FEF7C0FEBBF1000F07
:1028200013D0E660606A50B104F1240000F0C2FBEE
:1028300028B1C8F80070BFF34F8FBFF36F8FFFF759
:10284000D1FB012007B0BDE8F08F6D1EA5632068A5
:1028500010B9FFF76FFA606020690028EFD004F12B
:102860001000E3E7059808B11EB106E0FFF7BAFBD8
:1028700027E06846FFF7FCFD0126FFF7B3FBFFF7F3
:1028800067FEFFF773FB94F94400401C01D184F804
:10289000449094F94500401C01D184F84590FFF71D
:1028A000A1FB05A9684600F033FA002820460AD0AB
:1028B000FFF77AF900F0CAFB2046FEF7A1FF0028D7
:1028C000A3D00020BEE7FEF79BFFD8B1206830B947
:1028D000FFF74CFB6068FFF789FDFFF783FB04F10E
:1028E00024000599FFF72AFD2046FFF75DF900F067
:1028F000ADFB002889D1C8F80070BFF34F8FBFF33C
:102900006F8F82E72046FFF74FF900F09FFB7CE7CF
:102910002E2E5C4672656552544F535C7175657519
:10292000652E63004572726F723A25732C25640D13
:102930000A00000004ED00E070B50D46040005D16A
:1029400040F21B121CA121A0FDF7F4FCFFF70EFBC7
:10295000D4E90F20216802FB001161600021A1630E
:102960002168A1600A46D4E90F01401E00FB012145
:10297000E16021464FF0FF3001F8440F487004F148
:1029800010004DB1FFF7BFFA04F12400FFF7BBFAC6
:10299000FFF728FB012070BD21690029F8D000F065
:1029A00009FB0028F4D00D494FF080500860BFF3B8
:1029B0004F8FBFF36F8FEBE72E2E5C46726565522B
:1029C000544F535C71756575652E63004572726F67
:1029D000723A25732C25640D0A00000004ED00E016
:1029E0002DE9FF4F83B099468B4604004FF0000657
:1029F00005D140F2D92252A156A0FDF79BFCBBF1B4
:102A0000000F07D1206C28B140F2DA224CA151A06E
:102A1000FDF790FCB9F1020F08D1E06B012805D059
:102A200040F2DB2246A14BA0FDF784FC00F0E0F968
:102A300038B9059828B140F2DE2241A145A0FDF742
:102A400079FC4FF0000A4FF08057DFF81881FFF74C
:102A50008DFAA06BE16B884206D3B9F1020F03D067
:102A6000059800B316B325E04A4659462046FEF7BE
:102A7000A8FDA16C21B149462046FEF7CFFE05E036
:102A8000616A19B104F1240000F094FA28B1C8F881
:102A90000070BFF34F8FBFF36F8FFFF7A3FA0120D2
:102AA00007B0BDE8F08FFFF79DFA21E06846FFF719
:102AB000DFFC0126FFF796FAFFF74AFDFFF756FA0B
:102AC00094F94400401C01D184F844A094F94500D5
:102AD000401C01D184F845A0FFF784FA05A9684697
:102AE00000F016F930B12046FFF75EF800F0AEFABC
:102AF0000020D5E7FFF73AFAA06BE16B884201D1DD
:102B0000012500E00025FFF76DFA95B104F11000F2
:102B10000599FFF713FC2046FFF746F800F096FAF8
:102B2000002894D1C8F80070BFF34F8FBFF36F8FA8
:102B30008DE72046FFF738F800F088FA87E70000B5
:102B40002E2E5C4672656552544F535C71756575E7
:102B5000652E63004572726F723A25732C25640DE1
:102B60000A00000004ED00E02DE9F0479846154604
:102B70008946040005D140F29F322AA12EA0FDF71C
:102B8000D9FBB9F1000F07D1206C28B14FF468725E
:102B900024A129A0FDF7CEFBB8F1020F08D1E06B0C
:102BA000012805D040F2A1321EA123A0FDF7C2FBEF
:102BB000FFF7A8FA5020EFF3118780F31188BFF3D5
:102BC0004F8FBFF36F8FA06BE16B884207D3B8F1D3
:102BD000020F04D0002087F31188BDE8F08794F934
:102BE0004560424649462046FEF7EBFC701C04D087
:102BF000761C84F845600120EDE7A06C012620B129
:102C000041462046FEF70AFE06E0606A0028F2D040
:102C100004F1240000F0CEF90028ECD0002DEAD019
:102C20002E60E8E72E2E5C4672656552544F535C69
:102C300071756575652E63004572726F723A257302
:102C40002C25640D0A0000002DE9F0410D4604001A
:102C500005D140F23C4225A129A0FDF76BFB206C79
:102C600028B14FF4886221A125A0FDF763FB2068FD
:102C700038B9606828B140F245421CA120A0FDF798
:102C800059FBFFF73FFA5020EFF3118680F31188CC
:102C9000BFF34F8FBFF36F8FA16BE06B88421FD9DB
:102CA00094F94500491CA163411C04D0401C84F8E0
:102CB0004500012015E0A06C012720B1002120462D
:102CC000FEF7ACFD06E0606A0028F2D004F12400B3
:102CD00000F070F90028ECD0002DEAD02F60E8E772
:102CE000002086F31188BDE8F08100002E2E5C469E
:102CF00072656552544F535C71756575652E63003E
:102D00004572726F723A25732C25640D0A0000001B
:102D100070B50D46040005D140F6CB3214A119A0C0
:102D2000FDF708FB2DB940F6CC3211A115A0FDF737
:102D300001FBFFF71BF9174AD06829684B1C0FD01D
:102D40002368126A934202D0626882420AD962689A
:102D5000801A884206D2081A28602046FFF788FBAE
:102D6000002400E00124FFF73DF9204670BD00007B
:102D70002E2E5C4672656552544F535C7461736BC2
:102D8000732E63004572726F723A25732C25640DA1
:102D90000A000000700000202DE9FF5F8346DDE996
:102DA0000E87994616468A469000FEF739FF0500C1
:102DB0001AD06420FEF734FF040012D025630021EE
:102DC000CDE90241CDE900874B463246514658468F
:102DD000FEF774FC2046FEF727FB012004B0BDE897
:102DE000F09F2846FFF730F94FF0FF30F6E700007C
:102DF0000548416919B1006B18B1002070470120E6
:102E00007047022070470000700000200148C06831
:102E100070470000700000202DE9F0412D4F002682
:102E2000386B40B1B869401CB861F86900B101263F
:102E30003046BDE8F081FD686D1CFD6011D1F86B76
:102E4000006828B140F6D91223A128A0FDF772FA34
:102E5000F86B396CF9633864386A401C3862FEF7E5
:102E600003FEB86ADFF89480854209D3F86B0068E6
:102E700080B1F86BC068C468606885420DD2B862E2
:102E80003868C06A00EB800158F821000128CCD9CD
:102E90000126CAE74FF0FF30F1E7201DFFF710F8D9
:102EA000A06A18B104F11800FFF70AF8E06A0121DE
:102EB0003A6981401143396100EB800108EB8100E0
:102EC000211DFFF746F8E06A3968C96A8842CDD308
:102ED0000126CBE7700000202E2E5C4672656552FD
:102EE000544F535C7461736B732E63004572726F41
:102EF000723A25732C25640D0A00000000010120A0
:102F000070B504004FF000063CD01F4D2868844285
:102F100005D040F6C7621DA121A0FDF70BFA606D38
:102F200028B940F6C96219A11DA0FDF703FA606D2A
:102F3000401E6065226DE16A914223D010BB201DC6
:102F4000FEF7BEFF1A49012250B9E06A00EB800388
:102F500051F8233023B92B6902FA00F083432B6127
:102F6000206DE062C0F12000A061E06A2B69824020
:102F70001A432A6100EB800001EB8000211DFEF75F
:102F8000E8FF0126304670BD700000202E2E5C4602
:102F900072656552544F535C7461736B732E63009A
:102FA0004572726F723A25732C25640D0A00000079
:102FB000000101202DE9F041C068C4682CB940F639
:102FC000613216A11AA0FDF7B5F904F11800074601
:102FD000FEF776FF1A4D286B012660B13946194875
:102FE000FEF7B7FFE06A2968C96A884213D9012051
:102FF000EE61BDE8F081201DFEF762FFE06A2A69FC
:1030000006FA00F1114329610F4900EB800001EB42
:103010008000211DE4E70020EBE700002E2E5C4637
:1030200072656552544F535C7461736B732E630009
:103030004572726F723A25732C25640D0A000000E8
:1030400070000020A8030120000101202DE9F047B5
:103050002B4D00242746286B28B94FF4FD6229A187
:103060002DA0FDF767F9FEF781FF286B401E28634E
:10307000286BE8BBA8682C490126C8B3A1F52A79BA
:103080008846D8F80010E9B1D8F80C00C46804F1FB
:103090001800FEF715FF201DFEF712FFE06A2A69EF
:1030A00006FA00F11143296100EB800109EB810070
:1030B000211DFEF74EFFE06A2968C96A8842E0D305
:1030C000EE61DEE70CB1FEF7CFFCAC693CB1FFF777
:1030D000A3FE00B1EE61641EF9D10020A861E86989
:1030E00030B11249012738070860BFF34F8F00E065
:1030F00001E0BFF36F8FFEF775FF3846BDE8F0873C
:10310000700000202E2E5C4672656552544F535C51
:103110007461736B732E63004572726F723A25731C
:103120002C25640D0A000000A803012004ED00E036
:103130002DE9F0470746994616460D462C20DDF846
:1031400020A0FEF76DFD040014D0B8464F46D146CE
:103150002DB94FF4C67209A10EA0FDF7EBF8FEF7EA
:10316000CBF904F11801C4F8008081E8E002201DC9
:10317000FEF7D4FE2046BDE8F08700002E2E5C4608
:1031800072656552544F535C74696D6572732E633A
:10319000000000004572726F723A25732C25640D91
:1031A0000A0000001CB50024FEF7A6F90C480068D0
:1031B00068B10B491F20091DCDE9000100234FF420
:1031C000827208A10948FFF7E7FD040005D140F22B
:1031D000331207A10CA0FDF7ADF820461CBD00007E
:1031E000B4000020546D722053766300811B0008E8
:1031F0002E2E5C4672656552544F535C74696D6542
:1032000072732E63000000004572726F723A25736C
:103210002C25640D0A0000002DE9FF47DDF830A0E1
:10322000994690460D4606004FF0000705D14FF431
:10323000D37212A117A0FDF77DF81A4C206880B157
:10324000CDE900580296062D11DAFFF7D1FD0228CC
:103250004FF0000309D0002269462068FFF7C0FB49
:10326000074604B03846BDE8F0875246F4E700232D
:103270004A466946FFF778FCF2E700002E2E5C46CE
:1032800072656552544F535C74696D6572732E6339
:10329000000000004572726F723A25732C25640D90
:1032A0000A000000B40000204FF04070E1EE100A68
:1032B00070470000800700000078000080070000D1
:1032C00020000000200000002000000000F00000AE
:1032D00000000F0000F00000F8320008000000209D
:1032E000EC000000C4010008E4330008EC000020FA
:1032F00084590100E0010008000000000000000007
:103300000000000000000000007A030A0000000036
:103310000000000001020304060708090000000085
:10332000000000000000000000000000000000009D
:103330000000000000000000010203040102030479
:1033400006070809751200083D130008C001002097
:103350000000006800000010C0F1002000000F68AD
:1033600000F000100000000000000000000000005D
:10337000000000000000000000000000000000004D
:10338000000000000000000000000000000000003D
:10339000000000000000000000000000000000002D
:1033A000000000000000000000000000000000001D
:1033B000000000000000000000000000000000000D
:1033C00000000000AAAAAAAA000000000000000055
:1033D00000000000000000000000000000000000ED
:0433E00000000000E9
:040000050800018965
:00000001FF
