:020000040800F2
:100000005007002029020008D50D00088B090008C0
:10001000D10D00087503000833150008000000002A
:100020000000000000000000000000002111000896
:100030000504000800000000C10E00083912000885
:10004000430200084302000843020008430200087C
:10005000430200084302000843020008430200086C
:10006000430200084302000843020008430200085C
:10007000430200084302000843020008430200084C
:10008000430200084302000843020008430200083C
:10009000430200084302000843020008430200082C
:1000A000430200084302000843020008430200081C
:1000B000430200084302000843020008430200080C
:1000C00043020008430200084302000843020008FC
:1000D0004302000815130008430200084302000809
:1000E00043020008430200084302000843020008DC
:1000F00043020008430200084302000843020008CC
:1001000043020008430200084302000843020008BB
:1001100043020008430200084302000843020008AB
:10012000430200084302000843020008430200089B
:10013000430200084302000843020008430200088B
:10014000430200084302000843020008430200087B
:10015000430200084302000843020008430200086B
:10016000430200084302000843020008430200085B
:10017000430200084302000843020008430200084B
:10018000430200084302000800F002F800F03CF8C7
:100190000AA090E8000C82448344AAF10107DA45E2
:1001A00001D100F031F8AFF2090EBAE80F0013F0F8
:1001B000010F18BFFB1A43F001031847D0BC010020
:1001C000F0BC0100103A24BF78C878C1FAD85207B1
:1001D00024BF30C830C144BF04680C6070470000C1
:1001E0000023002400250026103A28BF78C1FBD840
:1001F000520728BF30C148BF0B6070471FB501F0E0
:1002000013FB1FBD10B510BD00F06EF81146FFF7CF
:10021000F5FF01F001FA00F0A0F803B4FFF7F2FFD8
:1002200003BC01F088F900000948804709480047ED
:10023000FEE7FEE7FEE7FEE7FEE7FEE7FEE7FEE796
:10024000FEE7FEE704480549054A064B70470000F3
:100250003D120008890100085001002050070020CD
:100260005003002050030020704700000FB40449E1
:1002700010B503AA029800F009F810BC5DF814FB51
:10028000100000207047704770477047074B70B5EB
:100290000D467B4400F011F80446284600F020F893
:1002A00010B14FF0FF3070BD204670BD67130000E5
:1002B00001694A1C02610878704700B58FB0CDE92A
:1002C00001310021059105497944CDE9031011461A
:1002D000684600F02EF80FB000BD0000E5FFFFFFFC
:1002E000007B00F080007047754600F03FF8AE4696
:1002F00005006946534620F00700854618B020B532
:10030000FFF7A0FFBDE820404FF000064FF00007C8
:100310004FF000084FF0000B21F00701AC46ACE8AD
:10032000C009ACE8C009ACE8C009ACE8C0098D461A
:1003300070472DE9F04106460024D6E90170F568C2
:100340008046304603E04146B847641C3046A84723
:100350000028F8D12046BDE8F08110B50446AFF37F
:1003600000802046BDE81040FFF757BF00487047A7
:10037000F000002000BFFEE738B501244EF67D7086
:1003800000F080FB1CA04EF67D731F220A21009016
:10039000142000F083F94FF4FA7001F0EDF825E035
:1003A0004FF6FF7000F06EFB4FF4FA7001F0E4F8C6
:1003B000002000F067FB4FF4FA7001F0DDF84FF415
:1003C000784000F05FFB4FF4FA7001F0D5F84FF47D
:1003D000FC6000F057FB4FF4FA7001F0CDF81F20DD
:1003E00000F050FB4FF4FA7001F0C6F8201EA4F1A3
:1003F0000101CCB2D4D138BD436F6C6F722054650B
:10040000737400007047F8B506460F4614461D4643
:100410004FF6FF703B46224639460090304600F0CA
:1004200047FA4FF6FF702B46324639460090304669
:1004300000F03EFA48F210406A1E93B291B2721C6C
:10044000009090B2224600F033FA44F208202B4686
:10045000224629460090304600F02AFA48F2104021
:10046000631E9AB27B1C99B2631E009098B22B4611
:1004700000F01EFA44F208202B462246394600902E
:10048000204600F015FAF8BD08B54EF67D7000F074
:10049000F9FA23A04EF67D731F220A210090102046
:1004A00000F0FCF84FF47A7001F066F84EF67D70BB
:1004B00000F0E8FA1EA04EF67D730022082100909D
:1004C000084600F0EBF81EA04EF67D734FF4FC6278
:1004D0001C210090102000F0E1F81DA04EF67D7365
:1004E0004FF4784230210090102000F0D7F81CA083
:1004F0004EF67D731F2244210090002000F0CEF8BC
:100500001BA04EF67D734FF47842582100900020D6
:1005100000F0C4F84FF4E16001F02EF808BD0000CF
:10052000CEC4D7D6CFD4CABEB2E2CAD4000000002F
:1005300053544D3332B5E7D7D3BCBCCAF5000000E5
:10054000D7A8D7A2D2BABEA7C5FAB7A200000000AA
:10055000C8ABB3CCBCBCCAF5D6A7B3D6000000006C
:100560002054656C3A3132333435363738393000FF
:10057000206D63756465762E74616F62616F000033
:100580002DE9F04105464FF6FF7000F07BFA7F231E
:100590001A460021084600F0B3FB002409E015F8D4
:1005A000147005EB4400467847EA062000F030FA64
:1005B000641CB4F5804FF2DBBDE8F081F0B50A466B
:1005C00000210023002400BF3DE0012505FA01F3CE
:1005D000156805EA03049C4234D105684F000326E0
:1005E000BE40B543056015794E00B54006683543F9
:1005F00005601579012D02D01579022D16D1856877
:100600004F000326BE40B543856055794E00B54086
:10061000866835438560456801268E40B543456050
:10062000456896798E40B6B235434560C5684F003F
:100630000326BE40B543C560D5794E00B540C668B7
:100640003543C560491C1029BFD3F0BDF0B5002368
:1006500000244D07ED0E02FA05F3CE1000F120053F
:1006600055F826504E07F70E0F26BE40B543CF1063
:1006700000F1200646F82750CE1000F1200555F86D
:10068000265045EA0304CE1000F1200545F8264027
:10069000F0BD418370470183704700002DE9F84F9A
:1006A0000746884693469A46DDF828900097B3E0BF
:1006B00099F8000080283DDA99F800600D2E05D1E8
:1006C000009F08F110001FFA80F830E0202E03DDB3
:1006D000A6F1200086B200E00026002422E00025DA
:1006E0001CE004EB06105049085C802129410840B9
:1006F00040B108EB040291B27A1990B25A4600F068
:1007000034F909E0D34507D008EB040291B27A1915
:1007100090B2524600F029F9681CC5B2082DE0DB02
:10072000601CC4B2102CDADB07F1080087B209F1B3
:10073000010971E0002668E006EB06103B4911F85C
:10074000100099F8001088425DD106EB0610374979
:1007500001EB4000407899F80110884253D1002401
:100760004FE0002520E006EB0610304901EB400089
:10077000801C10F8141080202841014041B108EB82
:10078000040291B27A1990B25A4600F0EEF809E0EC
:10079000D34507D008EB040291B27A1990B25246C1
:1007A00000F0E3F8681CC5B2082DDCDB002524E06E
:1007B00006EB06101D4901EB4000801C012101EBF6
:1007C0004401405C80212941084048B108EB040203
:1007D00091B27A19083290B25A4600F0C6F80AE08F
:1007E000D34508D008EB040291B27A19083290B2CE
:1007F000524600F0BAF8681CC5B2082DD8DB601C60
:10080000C4B2102CADDB701C86B2322E94DB09F121
:10081000020907F1100087B299F8000000287FF460
:1008200047AFBDE8F88F000032180008A425000883
:100830002DE9F05F0746884692469946002531E04B
:1008400000242BE019490A9801EBC01000EB850049
:1008500010F804B000261DE08020304100EA0B00B3
:1008600050B108EB050291B207EBC402324490B2DA
:10087000524600F07AF80BE0CA4509D008EB0502B1
:1008800091B207EBC402324490B24A4600F06DF8D0
:10089000701CC6B2082EDFDB601CC4B2042CD1DB96
:1008A000681CC5B2202DCBDBBDE8F09F231E0008DD
:1008B0002DE9FF4F83B0804689464946404600F007
:1008C0004CFA0598A0EB08050698A0EB0906002D48
:1008D00002DB0120029003E04FF0FF3002906D42F6
:1008E000002E02DB0120019003E04FF0FF30019069
:1008F00076424FEA450A4FEA460BB54219DDABEBAB
:100900000504002712E049464046109A00F02DF8F1
:10091000002C05DBA4EB0A04019848441FFA80F977
:100920005C44029840441FFA80F87F1CAF42EADD25
:1009300018E0AAEB0604002712E049464046109A48
:1009400000F013F8002C05DBA4EB0B0402984044E4
:100950001FFA80F85444019848441FFA80F97F1C1C
:10096000B742EADD07B0BDE8F08F70B504460D462A
:100970001646681C83B2601C82B22946204600F0ED
:10098000BFF9304600F044F870BD00BFFEE700003C
:100990001CB50121062000F095FA4FF202000090EC
:1009A00001208DF8040000208DF8060003208DF84A
:1009B000050001208DF8070069461348FFF7FEFD8A
:1009C0002020009001208DF8040000208DF8060002
:1009D00003208DF8050001208DF8070069460B48BB
:1009E000FFF7ECFD4FF480410748FFF754FE02216A
:1009F0000548FFF750FE02210348FFF74AFE022197
:100A00000148FFF748FE1CBD0004024000080240F8
:100A100010B504464FF480510948FFF73AFE2021F3
:100A20000848FFF738FE201200F054FBE0B200F057
:100A300051FB4FF480510248FFF72DFE10BD00001E
:100A400000040240000802401CB50121084600F0E5
:100A500039FA0220009001208DF8040000208DF862
:100A6000060003208DF8050001208DF80700694677
:100A70000348FFF7A3FD02210148FFF70CFE1CBD50
:100A80000000024070B506467F231A460021084642
:100A900000F036F92C2000F083F9002408E000254E
:100AA00003E03046FFF7B4FF6D1C802DF9D3641CC2
:100AB000802CF4D370BD10B5FFF76AFF00F00CF97D
:100AC000112000F06DF9782000F056FDB12000F003
:100AD00067F9012000F04CF92C2000F049F92D2095
:100AE00000F046F9B22000F05BF9012000F040F977
:100AF0002C2000F03DF92D2000F03AF9B32000F051
:100B00004FF9012000F034F92C2000F031F92D20AC
:100B100000F02EF9012000F02BF92C2000F028F92C
:100B20002D2000F025F9B42000F03AF9072000F05C
:100B30001FF9C02000F034F9A22000F019F90220BA
:100B400000F016F9842000F013F9C12000F028F914
:100B5000C52000F00DF9C22000F022F90A2000F0B3
:100B600007F9002000F004F9C32000F019F98A20E9
:100B700000F0FEF82A2000F0FBF8C42000F010F985
:100B80008A2000F0F5F8EE2000F0F2F8C52000F021
:100B900007F90E2000F0ECF8362000F001F9C8202B
:100BA00000F0E6F8E02000F0FBF80F2000F0E0F89D
:100BB0001A2000F0DDF80F2000F0DAF8182000F01D
:100BC000D7F82F2000F0D4F8282000F0D1F820200A
:100BD00000F0CEF8222000F0CBF81F2000F0C8F87B
:100BE0001B2000F0C5F8232000F0C2F8372000F0E9
:100BF000BFF8002000F0BCF8072000F0B9F8022090
:100C000000F0B6F8102000F0B3F8E12000F0C8F8CA
:100C10000F2000F0ADF81B2000F0AAF80F2000F024
:100C2000A7F8172000F0A4F8332000F0A1F82C203A
:100C300000F09EF8292000F09BF82E2000F098F894
:100C4000302000F095F8302000F092F8392000F0C4
:100C50008FF83F2000F08CF8002000F089F8072082
:100C600000F086F8032000F083F8102000F080F8F0
:100C70002A2000F095F8002000F07AF8002000F01B
:100C800077F8002000F074F87F2000F071F82B2036
:100C900000F086F8002000F06BF8002000F068F803
:100CA000002000F065F89F2000F062F8F02000F0CE
:100CB00077F8012000F05CF8F62000F071F80020D1
:100CC00000F056F83A2000F06BF8052000F050F8DC
:100CD000292000F065F810BD10B54FF48041074899
:100CE000FFF7D7FC642000F047FC4FF48041034835
:100CF000FFF7D1FC642000F03FFC10BD000402406F
:100D00002DE9F04104460D4616461F462A2000F004
:100D100047F8002000F02CF8A11CC8B200F028F819
:100D2000002000F025F8B11CC8B200F021F82B20FB
:100D300000F036F8002000F01BF8E91CC8B200F003
:100D400017F8002000F014F8F91CC8B200F010F8F1
:100D50002C2000F025F8BDE8F08170B504460D4662
:100D60002B46224629462046FFF7CAFF70BD0000E9
:100D700010B504464FF480510748FFF78AFC202144
:100D80000648FFF788FC204600F0A4F94FF4805194
:100D90000148FFF780FC10BD00040240000802403B
:100DA00010B504464FF480510748FFF772FC20212C
:100DB0000648FFF76EFC204600F08CF94FF4805196
:100DC0000148FFF768FC10BD000402400008024023
:100DD00000BFFEE77047000070B5002100230F221E
:100DE000C4781CB3174C246804F4E064C4F5E064D0
:100DF000C4F30721C1F10404E3B20A4144789C40E2
:100E0000E1B28478144021430C07210E0E4C057882
:100E10006155047804F01F050124AC4005786D117C
:100E2000AD0005F1E025C5F8004109E0047804F0C3
:100E30001F050124AC40054D0678761145F8264083
:100E400070BD00000CED00E000E400E080E100E097
:100E500002490143024A1160704700000000FA0590
:100E60000CED00E0F8B500244EF67D70FFF70AFEA9
:100E700000BF20E0032094FBF0F04001401D85B24C
:100E8000032094FBF0F100FB114000EB80004FF6D3
:100E9000FF7101EAC0060948005D4EF67D734FF40C
:100EA0007842294600903046FFF7C2FC642000F0EB
:100EB00063FB601CC4B20A2CDCDBF8BD0000002020
:100EC0007047000029B1064A12680243044B1A60B9
:100ED00004E0034A12688243014B1A607047000025
:100EE0003038024029B1064A12680243044B1A60A6
:100EF00004E0034A12688243014B1A607047000005
:100F000044380240F0B500210022002402250026CA
:100F10000223324F3F6807F00C0121B1042905D0AC
:100F2000082937D105E02E4F076036E02D4F0760C6
:100F300033E02A4F3F1F3F68C7F38056274F3F1FBC
:100F40003F6807F03F036EB1264FB7FBF3F7DFF8BA
:100F50008CC0ACF1040CDCF800C0CCF3881C07FB9F
:100F60000CF40CE01E4FB7FBF3F7DFF870C0ACF1E8
:100F7000040CDCF800C0CCF3881C07FB0CF4174F02
:100F80003F1F3F68C7F301477F1C7D00B4FBF5F7A7
:100F9000076002E0124F076000BF00BF0F4F3F68BD
:100FA00007F0F0010909104F7A5C0768D7404760E5
:100FB0000A4F3F6807F4E051890A0B4F7A5C476893
:100FC000D7408760054F3F6807F46041490B064FE3
:100FD0007A5C4768D740C760F0BD0000083802401F
:100FE0000024F40000127A001600002008B54EF626
:100FF0007D70FFF747FD23A04EF67D731F22002171
:1010000000900820FFF74AFB22A04EF67D734FF4B4
:101010007842142100901020FFF740FB3A23712200
:1010200026210F20FFF7EFF91EA04EF67D734FF635
:10103000E072282100901020FFF730FB5823712226
:1010400044210F20FFF7DFF91AA04EF67D731F220F
:10105000462100901020FFF721FB762371226221A8
:101060000F20FFF7D0F917A04EF67D734FF47842AA
:10107000642100901020FFF711FB40F2DC5000F0DB
:101080007BFA08BD53544D3332B5E7D7D3BCBCCA45
:10109000F5000000D2BABEA7B2E2CAD4B3CCD0F2F7
:1010A00000000000D1D5C9ABCCEEB3E4B2E2CAD4A3
:1010B00000000000CEC4D7D6CFD4CABEB2E2CAD494
:1010C00000000000CDBCC6ACCFD4CABEB2E2CAD4C8
:1010D0000000000070B50446002508251BE004F060
:1010E000800028B14FF400410C48FFF7D4FA04E027
:1010F0004FF400410948FFF7CCFA4FF4005107487C
:10110000FFF7C7FA4FF400510448FFF7C4FA60062E
:10111000040E681EC5B2002DE1DC70BD0004024063
:10112000704700000CB50020019000903448006822
:1011300040F480303249086000BF3148006800F454
:10114000003000900198401C0190009818B9019857
:10115000B0F5A04FF1D12A48006800F4003010B17A
:101160000120009001E0002000900098012846D165
:1011700023484030006840F08050214940310860E9
:101180002048006840F440401E4908601C48083070
:1011900000681B49083108600846006840F40040B8
:1011A00008600846006840F4A05008601648091F0F
:1011B0000860081F006840F08070091F086000BFC9
:1011C0000F48006800F000700028F9D040F2057068
:1011D0000E4908600A480830006820F003000849FA
:1011E000083108600846006840F00200086000BF4F
:1011F00003480830006800F00C000828F8D10CBD46
:10120000003802400070004008544007003C024093
:10121000042808D14FF0E021096941F004014FF0A2
:10122000E022116107E04FF0E021096921F004019B
:101230004FF0E022116170477047000010B515486B
:10124000006840F47000134908601348006840F0DB
:1012500001001149086000200F49083108600E485C
:1012600000680E4908400C4908600D48091D0860D7
:10127000081F006820F48020091F0860002006492C
:101280000C310860FFF74EFF4FF0006001498039D4
:10129000086010BD88ED00E000380240FFFFF6FE58
:1012A0001030002410B502211548FFF7F4F9FFF7BC
:1012B0009DFEFFF761F8FFF7D5FDFFF7E5F8114850
:1012C00000F01AFA4FF4FA7000F056F90E48FFF7E2
:1012D00057F940F2DC5000F04FF90C48FFF750F995
:1012E00040F2DC5000F048F90948FFF749F940F2B4
:1012F000DC5000F041F902210148FFF7CAF910BDA6
:10130000000402400A3200088A3E00088ABE000833
:101310008A3E010810B540F225511D4800F04AF8F8
:1013200010B31B4800F000F9C4B21A48008800F45A
:101330000040C8B91748008800F4804060B10A2C0A
:1013400003D000201349088020E01248008840F4B0
:1013500000401049088019E00D2C06D10D48008886
:1013600040F480400B49088010E00A480088C0F330
:101370000D0009490C5407480088401C05490880A5
:1013800008460088C72801DD0020088010BD000045
:1013900000100140140000202800002021B18289A3
:1013A00042F40052828104E082894DF6FF731A40B4
:1013B0008281704770B5024600240023002500207A
:1013C00040F66A16B14200D100BFC1F3421501F0E8
:1013D0001F03012606FA03F3012D02D1968933403B
:1013E00006E0022D02D1168A334001E0968A33408E
:1013F0000C12012606FA04F41688344013B10CB11D
:10140000012000E0002070BDF0B503460024002656
:101410000025002040F66A17B94200D100BF1846E7
:10142000C1F3421401F01F06012707FA06F5012C4B
:1014300001D10C3004E0022C01D1103000E0143056
:101440001AB107682F43076002E00768AF430760DF
:10145000F0BD00002DE9FF4705460E460024A146D9
:1014600000BFA046B08900B100BF2C8A24F44054CC
:10147000F08804432C82AC8941F20C608443B0882C
:1014800031890843718908430443AC81AC8A24F450
:101490004074B0890443AC826846FFF733FD2048AE
:1014A000854202D01F48854202D1DDF80C9001E050
:1014B000DDF80890A88900F4004040B109EBC900AC
:1014C00000EB091031684900B0FBF1F707E009EBC8
:1014D000C90000EB091031688900B0FBF1F7642006
:1014E000B7FBF0F004012009642101FB1078A88902
:1014F00000F4004040B1322000EBC800B0FBF1F036
:1015000000F00700044308E0322000EB08106421DB
:10151000B0FBF1F000F00F0004432C81BDE8FF8721
:10152000001001400014014001468888C0F3080003
:10153000704700BFFEE700BF7047000010B50446CB
:101540006FF00400FFF764FEE11704EB5171C1F383
:10155000C701074A11701046007800EB4001C1EB4B
:10156000C0104FF6FF7101EAC0000249088010BDAB
:101570000A0000200C00002070B504464FF40770EC
:1015800094FBF0F0C6B24FF4077094FBF0F100FB4F
:10159000114085B205E04FF4077000F009F8701EA5
:1015A000C6B2002EF7D115B1284600F001F870BD83
:1015B0000146114A12884A434FF0E0235A61002243
:1015C0009A611A46126942F001021A6100BF4FF097
:1015D000E022106900F001021AB100F48032002A02
:1015E000F5D04FF0E022126922F001024FF0E02323
:1015F0001A6100229A6170470C00002000BF054A62
:10160000128802F04002002AF9D0C2B2014B9A803F
:10161000704700000010014008B54FF4A060FFF7CC
:1016200017FCA820FFF78AFF4FF4E13000F0A6F87E
:1016300019A0FEF71BFE1EA0FEF718FEFFF704FA26
:10164000FFF739FA4EF67D70FFF71CFA1DA04EF633
:101650007D734FF47842102100900020FFF71EF8B0
:101660001CA04EF67D731F22202100900020FFF762
:1016700015F81CA04EF67D731F223021009000202B
:10168000FFF70CF807E0FFF70DFE03A0FEF7EEFDF5
:1016900007A0FEF7EBFDF6E70D0A2053544D333259
:1016A00046347878BACBD0C4B0E50D0A000000000B
:1016B0000D0A20B2E2CAD4B3CCD0F2C0FDB3CC0D37
:1016C0000A00000020202053544D333246347878ED
:1016D0002000000020D2BABEA7B2E2CAD4B3CCD058
:1016E000F20000006D63756465762E74616F62614F
:1016F0006F2E636F6D2000002DE9F04707464FF60F
:10170000FF70FFF7BFF9002633E000252EE006EB5F
:10171000860C4FEACC0C0CF1270C1FFA8CF305EB6E
:10172000850C4FEACC0C0CF1270C1FFA8CF206EB5F
:10173000860C4FEACC4C4FEA1C4105EB850C4FEA76
:10174000CC4C4FEA1C40FFF7DBFA00240AE017F804
:10175000149007EB440090F8018049EA0820FFF755
:1017600057F9641CB4F5C86FF1DB6D1C032DCEDB9B
:10177000761C032EC9DBBDE8F087000010B588B0E9
:10178000044601210846FFF79DFB01211020FFF7C9
:10179000A9FB072209212248FEF758FF07220A2148
:1017A0001F48FEF753FF4FF4C060069002208DF8EB
:1017B0001C008DF81D0000208DF81E0001208DF802
:1017C0001F0006A91648FEF7F9FE02940020ADF8A6
:1017D0000C00ADF80E00ADF81000ADF814000C20B0
:1017E000ADF8120002A90F48FFF734FE01210D48A1
:1017F000FFF7D4FD012240F225510A48FFF704FE0D
:1018000025208DF8040003208DF805008DF80600D2
:1018100001208DF8070001A8FFF7DEFA08B010BD1F
:1018200000000240001001404FF04070E1EE100A4D
:1018300070470000000000000000000000000000F1
:1018400000000010101010101010101000001010E8
:10185000000000006C6C2424000000000100000067
:1018600000000024242424FE48484848FC9090901E
:10187000900000103C5492905038141212925478F8
:1018800010000000225C94A8481010242A525488AA
:101890000000000030484850206E54948C888A74B0
:1018A00000000000303010100000000000000000B8
:1018B0000000000408101020202020202010100814
:1018C0000400008040202010101010101020204034
:1018D0008000000000001054381038541000000040
:1018E000000000000010101010FE1010101000007A
:1018F00000000000000000000000000000001010C8
:10190000200000000000000000FE000000000000B9
:1019100000000000000000000000000000001010A7
:1019200000000000040408081010202040408080BF
:10193000000000003844828282828282828244389F
:101940000000000010701010101010101010107C0B
:10195000000000003844828204081020408284FC89
:101960000000000038448202043804020282443835
:1019700000000000040C141424244444FE04040E4B
:1019800000000000FC808080B8C48202028284785B
:10199000000000003C428280B8C4828282824438C7
:1019A000000000007E428204040808081010101095
:1019B00000000000384482824438448282824438E5
:1019C00000000000384482828282463A0282443813
:1019D00000000000000010100000000010100000C7
:1019E0000000000000001010000000000010102097
:1019F000000000000000061860806018060000006B
:101A00000000000000000000FE0000FE00000000DA
:101A1000000000000000C0300C020C30C0000000CC
:101A200000000038448282020408101010001010D8
:101A3000000000003844829AAAAAAAAAAA96804264
:101A40003C00000010101028282844447C4444EE38
:101A500000000000FC424242427C4242424242FCC0
:101A6000000000003C448280808080808282443874
:101A700000000000F844424242424242424244F8DE
:101A800000000000FC444240447C4440404244FC8E
:101A900000000000FC444240447C4440404040F090
:101AA00000000000344C828080808E8484844C341A
:101AB00000000000EE444444447C4444444444EE6A
:101AC000000000007C101010101010101010107C7E
:101AD000000000003E080808080808080888887008
:101AE00000000000EE44484850605048484444EE2E
:101AF00000000000E040404040404040404244FC84
:101B000000000000C6446C6C6C545454444444EED1
:101B100000000000CE4464646454544C4C4C44E4D3
:101B200000000000384482828282828282824438AD
:101B300000000000F844424242447840404040E007
:101B400000000000384482828282828282BA443C51
:101B500002000000F048444444487048444444E6CD
:101B6000000000003C44828040300C020282447835
:101B7000000000007C54921010101010101010384B
:101B800000000000EE444444444444444444443887
:101B900000000000EE444444442828282810101077
:101BA00000000000EE44545454545454282828286B
:101BB00000000000EE44442828101028284444EE79
:101BC00000000000EE44442828281010101010389F
:101BD000000000007E44840808102020408284FC1D
:101BE0000000001C10101010101010101010101019
:101BF0001C000000EE445454FE5454542828282855
:101C000000000070101010101010101010101010A4
:101C10007000003048840000000000000000000058
:101C200000000000000000000000000000000000B4
:101C3000FE00004020000000000000000000000046
:101C400000000000000000007884047C84848C760E
:101C500000000000C0404040586442424242645884
:101C6000000000000000000038448080808044387C
:101C7000000000000C040404344C848484844C363A
:101C80000000000000000000788484FC80808478DC
:101C90000000000018242020F820202020202070A0
:101CA00000000000000000003A444478807C8282FA
:101CB0007C000000C040404058644444444444EE2A
:101CC000000000001010000030101010101010382C
:101CD00000000000101000003010101010101090C4
:101CE00060000000C04040405C485060504844EEF6
:101CF00000000000301010101011101010101039DA
:101D00000000000000000000ACD29292929292D6A5
:101D1000000000000000000058E44444444444EE45
:101D200000000000000000003844828282824438B3
:101D30000000000000000000D864424242645840A5
:101D4000E000000000000000364C8484844C340421
:101D50000E000000000000006C30202020202070C9
:101D60000000000000000000788884601884447837
:101D70000000000000202020F8202020202024182F
:101D80000000000000000000C64242424242463AC3
:101D90000000000000000000EE4444282828101035
:101DA0000000000000000000EE444454542828289D
:101DB0000000000000000000EE442810102844EE4F
:101DC0000000000000000000EE444428281010A08D
:101DD000C0000000000000007E448810204284FC07
:101DE0000000000C101010101060101010101010D7
:101DF0000C00001010101010101010101010101007
:101E0000100000C02020202020182020202020208A
:101E1000C00000000000000000728C000000000004
:101E200000000000000000001FE000003FF0000084
:101E30003FF000001FE0000180060003C00F000318
:101E4000C00F0003C00F0003C00F0003C00F00034A
:101E5000C00F0003C00F0003C00F00030003000009
:101E60000000000000000000000000030003000369
:101E7000C00F0003C00F0003C00F0003C00F00031A
:101E8000C00F0003C00F0003C00F0003C00F00010C
:101E9000800600001FE000003FF000003FF000005F
:101EA0001FE00000000000000000000000800000B3
:101EB0000180000003800000078000000780000010
:101EC00007800000078000000780000007800000F6
:101ED00007800000078000000780000001800000EC
:101EE0000000000000000000000000000180000071
:101EF00007800000078000000780000007800000C6
:101F000007800000078000000780000007800000B5
:101F100007800000038000000180000000800000B6
:101F200000000000000000001FE000003FF0000083
:101F3000FFF00001FFE0000000060000000F0000BD
:101F4000000F0000000F0000000F0000000F000055
:101F5000000F0000000F0000000F00001FE3000052
:101F60007FF800007FF800001FE00003000000037E
:101F7000C0000003C0000003C0000003C000000355
:101F8000C0000003C0000003C0000003C000000147
:101F9000800000001FF000003FF800003FFC000040
:101FA0001FFE000000000003FF800001FFC00000D2
:101FB000FFC000007F80000000180000003C00000F
:101FC000003C0000003C0000003C0000003C000021
:101FD000003C0000003C0000003C00007F8C000141
:101FE000FFE00001FFF000007F800000000C000017
:101FF000003C0000003C0000003C0000003C0000F1
:10200000003C0000003C0000003C0000003C0000E0
:10201000001800007F800000FFC00001FFC0000327
:10202000FF8000000000000000000002000100032B
:102030000003000380070003C00F0003C00F00036C
:10204000C00F0003C00F0003C00F0003C00F000348
:10205000C00F0003C00F0003C00F00031FE3000008
:102060007FF800007FFC00001FE00000000300007C
:10207000000F0000000F0000000F0000000F000024
:10208000000F0000000F0000000F0000000F000014
:10209000000F000000070000000300000001000026
:1020A00000000000000000001FFC00003FF80000DE
:1020B0003FF000001FE0000180000003C0000003AB
:1020C000C0000003C0000003C0000003C000000304
:1020D000C0000003C0000003C00000031FE00000B8
:1020E0007FF800007FF800001FE000000003000000
:1020F000000F0000000F0000000F0000000F0000A4
:10210000000F0000000F0000000F0000000F000093
:10211000000600003FE000007FF00000FFF000013B
:10212000FFE00000000000001FFC00003FF800007E
:102130003FF000001FE0000180000003C00000032A
:10214000C0000003C0000003C0000003C000000383
:10215000C0000003C0000003C00000031FE0000037
:102160007FF800007FFC00001FE000030003000375
:10217000C00F0003C00F0003C00F0003C00F000317
:10218000C00F0003C00F0003C00F0003C00F000109
:10219000800600001FE000003FF000003FF000005C
:1021A0001FE0000000000007FFE00003FFC0000187
:1021B000FF880000FF1800000038000000780000D1
:1021C000007800000078000000780000007800002F
:1021D000007800000078000000780000001800007F
:1021E00000000000000000000000000000180000D7
:1021F00000780000007800000078000000780000FF
:1022000000780000007800000078000000780000EE
:1022100000780000003800000018000000080000EE
:1022200000000000000000001FE000003FF0000080
:102230003FF000001FE0000180060003C00F000314
:10224000C00F0003C00F0003C00F0003C00F000346
:10225000C00F0003C00F0003C00F00031FE3000006
:102260007FF800007FFC00001FE000030003000374
:10227000C00F0003C00F0003C00F0003C00F000316
:10228000C00F0003C00F0003C00F0003C00F000108
:10229000800600001FE000003FF000003FF000005B
:1022A0001FE00000000000001FE000003FF0000001
:1022B0003FF000001FE0000180060003C00F000394
:1022C000C00F0003C00F0003C00F0003C00F0003C6
:1022D000C00F0003C00F0003C00F00031FE3000086
:1022E0007FF800007FFC00001FE0000000030000FA
:1022F000000F0000000F0000000F0000000F0000A2
:10230000000F0000000F0000000F0000000F000091
:10231000000600001FE000003FF000007FF000001A
:10232000FFE00000000000000000000000000000CE
:10233000000000000000000000000000000000009D
:10234000000000000000000000000000000000008D
:10235000000000000000000000000000000000007D
:10236000000000000000000000000000000000006D
:10237000000000000000000078000000780000006D
:10238000780000007800000078000000780000006D
:10239000000000000000000000000000000000003D
:1023A000000000000000000000000000000000002D
:1023B000000000000000000000000000000000001D
:1023C00000000000070000000F8000000F800000E8
:1023D0000F80000007000000000000000000000067
:1023E00000000000000000000000000000000000ED
:1023F000070000000F8000000F8000000F80000029
:1024000007000000000000000000000000000000C5
:1024100000000000000000000000000000000000BC
:1024200000000000000000000000000000000000AC
:1024300000000007C006000FE0060000000C00309E
:1024400018180030181800301830003018300030DC
:102450001860003008C00007C0C0000FE080000016
:1024600000000000000FE0000607C0000630180062
:102470000C3018000C3018001830180030301800DC
:102480003030180060000000C00FE000C007C0003E
:10249000000000000000000000000000000000003C
:1024A000000000000000000000000000000000002C
:1024B00000000000000000000000000700E000082D
:1024C00087FC00088E030008980180071800800030
:1024D00030000000300000007000000060000000CC
:1024E000600000006000000060000000600000006C
:1024F00070000000300000003000000038000000D4
:10250000180100000C03000007FC000001F00000AF
:1025100000000000000000000000000000000000BB
:1025200000000000000000000000000000000000AB
:10253000000000000000000000000000000000009B
:10254000000000000000000000000000000000008B
:10255000000000000000000000000000000000007B
:102560003FF000007FF000007FE00000FFC00000AF
:10257000000000000000000000000000000000005B
:10258000000000000000000000000000000000004B
:10259000000000000000000000000000000000003B
:1025A00000000000B5E70200020002007FF04210C8
:1025B00042107FF0421042107FF0420002080208F1
:1025C00001F800000000D7D37FF000200040008019
:1025D00001000200FFF802000200020002000200F7
:1025E00002000E0000000000C8AB010001000280E4
:1025F0000440082010102FE8C106010001001FF060
:102600000100010001007FFC0000B6AF0040004067
:102610007C40004001FC0044FE44204420442084CF
:1026200048844484FD04450402280410BCBC1020E6
:102630001020102013FEFC201020102015FC188400
:102640003088D04810501020105051882606CAF506
:1026500001000120011001107FFC038005400540AE
:1026600009201110210841040102010001000100AC
:10267000D2BA0080404027F8114001408278424899
:1026800016A81AD02350222042204250028800006F
:102690000000BEA73FE020203FE020203FE00000F8
:1026A000FDF885088508FDF885088508FDF885088A
:1026B00000000000B2E200084F8828880AA88AA813
:1026C0004AA80AA82AA82AA84228450884888888EF
:1026D000103800000000CAD44050204820400FF8B5
:1026E0000040E04027402240224022202A2833A8F0
:1026F0002E18000800000000B3CC00001BF0E21010
:10270000221023F0F800200033F068806080A3F0EE
:102710002080208027F800000000D0F20200010095
:102720003FF820002FF02020224021803FF8208811
:10273000209040804080838000000000D1D52000A0
:1027400010F87E20444028F87E8848A850A864A845
:1027500048A872A884501888610800000000C9AB1E
:10276000100010003FE0404080807FF04210421097
:1027700042107FF04000400840083FF80000000091
:10278000CCEE20802FF8208027F0F41027F02410C2
:1027900027F0241027F03410CFF802200410000096
:1027A0000000B3E404000200FFF8080010402020FD
:1027B0007FF0089008800880088010882088C07802
:1027C00000000000CEC4040002000200FFF8104028
:1027D0001040088008800500020005000880306075
:1027E000C01800000000D7D604000200FFF88008DF
:1027F00080083FC0008001000200FFF802000200D4
:1028000002000E0000000000CFD43FE02020202076
:102810003FE0202020203FE008804890289028A01A
:1028200008800880FFF800000000CABE00003FE0FA
:10283000000000000000FFF80200124012202210E9
:102840004208820802000E0000000000CDBC7FF8A4
:102850004008440847C84848548843084CC873385F
:1028600040884C08430840887FF800000000C6AC50
:1028700000802080208020803FF020002000200069
:102880003FC02040204020404040804000000000E9
:10289000B4A520403840484091F07D5055505550E7
:1028A0007D5055F054407C40545057F88C0800003F
:1028B0000000C3FE2220222027F8FA2027F024104F
:1028C00027F03410E7F020802FF821402220EC1868
:1028D00000000000CAE440804140F22044108BE830
:1028E000A000F78824A827A834A8E7A824A824884B
:1028F00025B800000000C8EB080004000400020036
:1029000002000500050008800880104010402020CB
:102910004010800800000000C8AB02000200050063
:10292000088010402020DFD8020002001FC00200F3
:1029300002000200FFF800000000B3CC00001BF012
:10294000E210221023F0F800200033F0688060804D
:10295000A3F02080208027F800000000BCBC20806D
:1029600020802080F7F02080208027E03220E220A5
:102970002140208021402220EC1800000000CAF5F0
:102980000200024002200200FFF807000A800A80CD
:1029900012402220421082080200020000000000C3
:1029A000D6A702000200FFF8020002007FE010201C
:1029B0001040088005000200050018C0E038000043
:1029C0000000B3D62080208023F0F880208027F8F4
:1029D00028203020E7F82020222021202020E0E0BD
:1029E00000000000D7A8020002007FF004000400ED
:1029F000FFF8080010003FE0002000401C800300AA
:102A0000008000000000D7A201004080200017F0E5
:102A1000008080804080008017F01080208020801F
:102A200040804FF800000000C5FA204024402440B8
:102A3000F4482450276024403440E440244024409B
:102A400025482648E43800000000B7A202002220F2
:102A5000221044007FF8040008000FE014202440F6
:102A60004280810006C0383800000000B3C900A0D1
:102A7000009000807FF8408040907C90449044A07B
:102A800044A0444858A84118820800000000B9A694
:102A900001000100F90023F0211021102110211064
:102AA00021103910C210021004100860000000004C
:102AB000D2C60000002000780CE479045168103080
:102AC0007E6019981A3C2FE448E408380030006012
:102AD0000000D1A100000120012003FC622034206D
:102AE000042003FC240021B021202220323E1800C3
:102AF0000FE00000D4F10000000010FC1304110CE2
:102B00003DF8703E10D015907CF0503E18101BFE22
:102B1000023000200000CFEE0000000003FE006045
:102B20007C4012FC11041106113611241F44794413
:102B300000C0009C01860000C4BF000000000FE040
:102B40003C18200820043E04600460047E046004F5
:102B5000200C20081FF001800000B6CC0000080007
:102B600011FC103E3EF82D8C2904490409043E8CCA
:102B700050FC10881EC811FC100E0000B0B40000FC
:102B80000040006012FE13023A427F4410C41BFE54
:102B90003C987190113011A00078004C0000C8B72B
:102BA0000000004000F878C41F8C313821EC212649
:102BB000413A7DE2272225FA3D2601240104000046
:102BC000B6A80000010001705FFC700420042FF81B
:102BD00001001100113821C431003F0063E040388A
:102BE0000000B3A4000000000818086008C00B0033
:102BF0001E00181C7FF01000118010E01838098E9C
:102C00000F000000B0B400000040006012FE13028C
:102C10003A427F4410C41BFE3C987190113011A0C1
:102C20000078004C0000B7B50000000007F806006F
:102C3000240014F8078C04042408261825F0647C6A
:102C400064C220801FC00000BBD8000000001FF03D
:102C500030182008278C2C44284428442CC427846E
:102C60002004300C1FF8038000000000000000006A
:102C70000000000000000000000000000000000054
:102C8000000000000000000000000000B4BF0000D1
:102C900000000000020100063FC00C3FE0180300E6
:102CA0001002003336603726203E66301C64301830
:102CB000642031FEE03F1FC01C0C00000C00070424
:102CC000003E07F00001C00000000000000000000E
:102CD000000000000000C9AB00000000000001FE81
:102CE0000003E3000703000C03001C3F003BFFC090
:102CF0003F30600C30200C30200C10200C10600F86
:102D0000FFC0083F000800000800600E3FE007FC1D
:102D100000000000000000000000000000000000B3
:102D2000CCEE00000000000000030000FFE00C07F4
:102D3000F00C06000CFF803FF0E01FC0600CFE307E
:102D40000CCC3004F83004FF2004C0201FFE603E8D
:102D5000C06001FFF001FFF0006060004000000073
:102D600000000000000000000000B3E400000000CC
:102D7000000000200000300007FFF03FFFE00300EC
:102D8000000601800C01800801C01807E00FFE70EA
:102D900007E0000206000604000404000404000C1E
:102DA00006700C07E00000000000000000000000BA
:102DB00000000000B2E20000000000000000303916
:102DC000FC301FCC300706B00F06F01907B03137C2
:102DD000B03136F01F27F00167F001E5F001E1F0B6
:102DE0000041F00CF8B03CD830008C30008030004E
:102DF0000000000000000000000000000000CAD435
:102E00000000000000000803600C03700C03300099
:102E10003FE0003F800801003C0180047F80047D8A
:102E2000800C00800C10C00C10C00C18400C1C60F2
:102E30000F7E6006703000003000000000000000CF
:102E40000000000000000000CEC400000000C00030
:102E500000E00000700001FFE01FFFC0180100004B
:102E60000300000600000E00001C000E18000730D2
:102E70000001E00000F00000FC00018F000303C02F
:102E80000201E0000000000000000000000000005F
:102E90000000D7D6000000000000002000003F0026
:102EA00031FFE03FC02038003030FE2033C66010D4
:102EB0000200000C00001800001800000C0007FFC2
:102EC000E03FFFE0000400000C00000C00000000E8
:102ED000000000000000000000000000CFD400004F
:102EE0000000000007FF000F03C00C00401FF86047
:102EF0001800600800400E01C007FF00000000013C
:102F000084000184001987800F8CE0078C2000CC9E
:102F10000003FFE01FFFC0000000000000000000F1
:102F2000000000000000CABE0000000000000E000B
:102F3000001FFFC0007FE000000000000000000054
:102F4000000000003FC03FFFE00030000030000004
:102F500030000613000C13C00C18F01818001818D5
:102F60000000000000000000000000000000000061
:102F7000CDBC00000000000007FF000F03801CC054
:102F8000C019FC6011C66033062033E63036FF30CE
:102F9000301FF030703030FC30339F30360020105E
:102FA000E060187C400E01C003FF00003800000004
:102FB00000000000000000000000C6AC000000009F
:102FC0000000081800180800180800180800180C5D
:102FD000201FFFF01FF80018000010000010F8007C
:102FE0001FFE001E0300100300100300100300105A
:102FF00003001802000000000000000000000000B4
:1030000000000000CFD400000000000007FF000F08
:1030100003C00C00401FF8601800600800400E015B
:10302000C007FF00000000018400018400198780B0
:103030000F8CE0078C2000CC0003FFE01FFFC000D6
:103040000000000000000000000000000000CABEF8
:103050000000000000000E00001FFFC0007FE00025
:103060000000000000000000000000003FC03FFF23
:10307000E00030000030000030000613000C13C0E8
:103080000C18F018180018180000000000000000CC
:103090000000000000000000B4A5000000000000D7
:1030A0000601800FC1801E6180304FC020CFE00735
:1030B0008D303FC9303379303379303FFB3037FFC3
:1030C000203267E03FE3803FE3C03263603267F065
:1030D000304FB000000000000000000000000000C1
:1030E0000000C3FE0000000000000030C000FFF040
:1030F0000C79C00C1F800C7FE03FE0600CC0300CEE
:10310000FC3004C03007C0301E60603C3FC0041C6F
:1031100000047FE000FFE00030C0006060000000BD
:10312000000000000000000000000000CAE40000F1
:10313000000000000C03800C0FC0081C703F7000E2
:103140001F9FC0101FC0100000367C3017E6301FD4
:10315000E3B0067FB00277F007E3F03F7FF013366D
:10316000F0032630032630000000000000000000BD
:10317000000000000000C8EB000000000000060096
:103180000003800001C00000E00000700000780033
:1031900000CC0000C6000183000301800700C006C8
:1031A00000E00C0070180030180000300000000033
:1031B000000000000000000000000000000000000F
:1031C00000000000000000000000000000000000FF
:1031D00000000000000000000000000000000000EF
:1031E00000000000000000000000000000000000DF
:1031F00000000000000000000000000000000000CF
:1032000000000000000000000000DBDE5DEF5DEF6D
:103210007DEF5DEF5DEF5DEF5DEF5DEF5DEF5DEF2E
:103220005DEF5DEF5DEF5DEFBEF7FFFFDEFF38C6E0
:10323000928C8E6B6E6B107C96AD3CE7FFFFFFFFB0
:103240007DEF5DEF5DEF5DEF5DEF5DEF5DEF5DEFFE
:103250005DEF5DEF5DEF5DEF5DEF5DEFFFFFFFFFAA
:10326000FFFFFFFFFFFFFFFFFFFFFFFFFFFFFFFF6E
:10327000FFFFFFFFFFFFFFFF5DEF159D4F636C42F8
:103280000A328829461925194521E8318E6B18BE66
:10329000FFFFFFFFFFFFFFFFFFFFFFFFFFFFFFFF3E
:1032A000FFFFFFFFFFFFFFFFFFFF5DEFFFFFFFFFE0
:1032B000FFFFFFFFFFFFFFFFFFFFFFFFFFFFFFFF1E
:1032C000FFFFFFFFDFFFF59C0F53104B51530F4BD8
:1032D0006C3AE93167212519E410A30862008308DC
:1032E0008A4A59C6FFFFFFFFFFFFFFFFFFFFFFFFF7
:1032F000FFFFFFFFFFFFFFFFFFFF5DEFFFFFFFFF90
:10330000FFFFFFFFFFFFFFFFFFFFFFFFFFFFFFFFCD
:10331000FFFF1CE74F5BB363B87CF56311434D328D
:10332000EA29882126190519051904110411E41048
:103330008300A308728CFFFFFFFFFFFFFFFFFFFF6B
:10334000FFFFFFFFFFFFFFFFFFFF5DEFFFFFFFFF3F
:10335000FFFFFFFFFFFFFFFFFFFFFFFFFFFFFFFF7D
:10336000DBDE4B3AF042356C544BB1322E2AEB2166
:10337000A92167190519041104110411041104117C
:103380000519E4104200AF73FFFFFFFFFFFFFFFFCF
:10339000FFFFFFFFFFFFFFFFFFFF5DEFFFFFFFFFEF
:1033A000FFFFFFFFFFFFFFFFFFFFFFFFFFFF5DEFDF
:1033B00009324C32104B8F324F2A2E2ACC198919E0
:1033C00089214719051904110411C410C4100411EE
:1033D00004110411E41042003184FFFFFFFFFFFFDE
:1033E000FFFFFFFFFFFFFFFFFFFF5DEFFFFFFFFF9F
:1033F000FFFFFFFFFFFFFFFFFFFFFFFFFFFFEC529D
:1034000047194C320B2AEC21EC210C22915BEE4A3D
:10341000061126190419E410E410A7296621A3084F
:10342000051904110411E4108200F7BDFFFFFFFF2E
:10343000FFFFFFFFFFFFFFFFFFFF5DEFFFFFFFFF4E
:10344000FFFFFFFFFFFFFFFFFFFFFFFF35A5830823
:10345000882188218921AA218A216B42718CFFFF52
:10346000728C83080411C4082942FBDE5DEFEC5A1C
:1034700083080411041104118308E831DFFFFFFF02
:10348000FFFFFFFFFFFFFFFFFFFF5DEFFFFFFFFFFE
:10349000FFFFFFFFFFFFFFFFFFFFBEF7C731C410B5
:1034A0002519261947194719A8298A52284A55ADBE
:1034B000FFFFE831A30805194D6B4D6BFFFF7DEF52
:1034C0004521C410041104110411620076ADFFFF00
:1034D000FFFFFFFFFFFFFFFFFFFF5DEFFFFFFFFFAE
:1034E000FFFFFFFFFFFFFFFFFFFF96B56200041124
:1034F000041905110519C4088B4AB6B55DEFF7BD6F
:10350000FFFF8E6B62002942AA5A0842FFFFFFFFAD
:10351000CC528308041104110411A308AD52FFFF1B
:10352000FFFFFFFFFFFFFFFFFFFFBEF7FFFFDFFF14
:10353000DBDEFFFFFFFFFFFFFFFF4E6362000411B2
:1035400004110411E41062008E63FFFFFFFFFFFF10
:10355000FFFFCF730100F39C2C6396B5FFFFFFFFC5
:103560002D5B8300041104110411E41067213DEF69
:10357000FFFFFFFFFFFFFFFFFFFFB7B576AD7DEF5A
:10358000CB52B394FFFFFFFFDFFFE831A308041124
:10359000041104110411A3084942FFF7FFF7FFFFCC
:1035A000FFFF6A4A01007284FFFFFFFFFFF7DFEFB2
:1035B000093AA3080411041104110411051118BEDD
:1035C000FFFFFFFFFFFFFFFFFFFFF07B6200E8311F
:1035D000C731410035A5FFFF5DEF4621C41004113E
:1035E000041104110411E410A308769DFFF7FFFFF6
:1035F000B7ADA308A308C7319EE7FFF7FFF776A58D
:10360000A308E4100411041104110511051135A5D6
:10361000FFFFFFFFFFFFFFFFFFFFDBDEA7298300A8
:10362000C410C410C4101CE79EEF0511E41004116F
:103630000411041104110419C408E510D16BD16BF5
:10364000C5086400A50843002B32779DB384251973
:10365000C410041104110411041125192609359D03
:10366000FFFFFFFFFFFFFFFFFFFFFFFFAF736200E2
:103670000419051982000D5B8E9B6210051104115F
:1036800004110419E41085000511C439815A407BE6
:10369000229C43AC03A4839B82728249C218A4007B
:1036A000C500E41004190411051947196711EC5AF3
:1036B000BEFFFFFFFFFFFFFFFFFFDFFFDBD6C410F2
:1036C000E41004110511A41801C08388E400051951
:1036D0000419C5084421438323D542FEE4FE27FF95
:1036E00007FFA4FE64FE03FEA3FDE2FC42EC83B3ED
:1036F0002462E510C40804192619A819872100902E
:10370000D3BCFFFFFFFFFFFFFFFF5DEFFFFFF07B7D
:10371000420005190511832801D044F8A348E400AC
:10372000C508445A02EDE2FD02FE66FE74FFB8FFD2
:1037300073FFE7F6A6F645F6A4F5C3FC62FCC2FCEF
:10374000C2FCE3CBC449061188198701A49001F893
:10375000EC9AFFFFFFFFFFFFFFFF5DEFFFFF9EF70C
:10376000E83183000509824001C023F885F0A348B1
:10377000A400445A02FD23CCC2DC04FE28FE48F615
:1037800046F624F6E4F564FDE3FC62FCC2FC02E4C8
:1037900002DCE2FCA47A48016701C47824F802F84C
:1037A00084B07DE7FFFFFFFFFFFF5DEFFFFFFFFF3F
:1037B000DBDE2519A300C43802E022D844F8A6F8BD
:1037C000A4786300432183728339829B21F561FDD4
:1037D00022FDE2FCA2FC42FC42FC42FC22AB834103
:1037E000C392045226012519A49844F823F802F83C
:1037F000A4D09EEFFFFFFFFFFFFF5DEFFFFFFFFF86
:10380000FFFF9AD68729A50043B822F823E065F880
:10381000E8F807C983484200A30084006329A27A1C
:1038200062B3A2CB62D302BB828A8339A400E500D3
:10383000E500E508C46064D844F824F823F802F8E9
:103840008388DBC6FFFFFFFFFFFF5DEFFFFFFFFF8A
:10385000FFFFFFFF3DE7505B083123E843F844F0EA
:1038600065F809F9ABF989D10689A3484218020025
:10387000420061008200620062008300A320C45005
:10388000A58885D865F844F844F823F823F803D0D0
:103890008210C7295DEFFFFFFFFF5DEFFFFFFFFF16
:1038A000FFFFFFFFFFFFFFFF6C32A53802D823F8B0
:1038B00065F866F8A7F84AF90CFA4DFA4CEA0BD20B
:1038C000A9B968B147A927B107B907D1E7E8C7F88F
:1038D000A7F865F865F844F823F803F802D0A328A0
:1038E0000509C408EC5AFFFFFFFF5DEFFFFFFFFF74
:1038F000FFFFFFFFFFFFFBDE0519C400A741E6C085
:1039000003F886F8A7F887F886F8C7F829F98AF93E
:10391000ABF9ABF98BF96AF929F908F9C7F8A6F8F8
:1039200086F865F864F823F802F006B12529E4006A
:10393000E41025192519149DFFFF5DEFFFFFFFFF20
:10394000FFFFFFFFFFFF96AD620082083595BACEFC
:103950008BA244D025F887F8A7F8C7F8A7F887F80E
:1039600086F886F886F887F8A7F8A7F8A6F885F805
:1039700065F864F824F064B80D93BBB6CF63830890
:103980000411E4106621493A5DEF5DEFFFFFFFFF90
:10399000FFFFFFFFFFFFD3944200E410BBCEFFFF09
:1039A000BEE776B5CCAA07C145E045F846F866F80B
:1039B00086F886F886F886F865F845F865F865E8CB
:1039C00044D043A8018882903CD7FFEF55958308E7
:1039D0000411041105194619B3945DEFFFFFFFFFB1
:1039E000FFFFFFFFFFFFB394410086215DDFFFFF74
:1039F000FFFFFFFFDFE77AC6D3B44EB32AC268D118
:103A0000E6E0A6E8A5E8A5E8E6D888C906A922A8C0
:103A100002A800A000C800D8F7E5FFE7F8ADC41081
:103A2000E4100411E41005118B4A5DEFFFFFFFFF66
:103A3000FFFFFFFFFFFF55A54100A7295DDFFFF74F
:103A4000FFFFFFFFFFFFFFFFFFFFFFEF7DDFDBCE8D
:103A500059CEF8CDD7CDF7C579CEFBBEABA203F0DA
:103A600045F842D043E800F072D4FFDF39AEE410ED
:103A7000E4100411E410051187295DEFFFFFFFFF3B
:103A8000FFFFFFFFFFFF59CE830846211CD7FFF73A
:103A9000FFFFFFFFFFFFFFFFFFFFFFFFFFFFFFFF36
:103AA000FFFFFFFFFFFFFFFFFFFFFFEF8BBA04F8F1
:103AB00045F862E044F000F88EDBFFDFF8A5C410A3
:103AC000E410E4100411E41025195DEFFFFFFFFF7F
:103AD000FFFFFFFFFFFFBEF78729830839B6FFF717
:103AE000DFF7FFFFFFFFFFFFFFFFFFFFFFFFFFFF0E
:103AF000FFFFFFFFFFFFFFFFFFFFBEE74ABA03F82C
:103B000045F864F844F800F86EE3FFD7F48C8308B6
:103B10000411E410E410E41005195DEFFFFFFFFF4E
:103B2000FFFFFFFFFFFFFFFFEF7300007284FFEF57
:103B3000BEEFDFFFFFFFFFFFFFFFFFFFFFFFFFFF06
:103B4000FFFFFFFFFFFFFFFFFFFFDFE78BBA03F879
:103B500045F845F823F800F8D3D4FFD74E5B210091
:103B6000293A55A58308C41025195DEFFFFFFFFF13
:103B7000FFFFFFFFFFFFFFFFFBDEA308E8319EDF33
:103B80009EE7BFEFFFFFFFFFFFFFFFFFFFFFFFFF0E
:103B9000FFFFFFFFFFFFFFFFFFFFFFF751BC02E04A
:103BA00003F803F043E0ECC27ECFFCBE46212100C7
:103BB000D394FFFF5184000087295DEFFFFFFFFFD3
:103BC000FFFFFFFFFFFFFFFFFFFF51840000F48CAA
:103BD000FFEF9EE7BFEFDFFFFFFFFFFFFFFFFFFFEE
:103BE000FFFFFFFFFFFFFFFFFFFFFFFF3DDF55BDB3
:103BF00052BC72BCB7B55DC7FFDFF06B0000093A7D
:103C0000BFF7FFFFFFFF149D55A55DEFFFFFFFFF0F
:103C1000FFFFFFFFFFFFFFFFFFFFFFFFAC4AA4080E
:103C2000BBBEDFE77EE7BEEFDFF7DFFFFFFFFFFF93
:103C3000FFFFFFFFFFFFFFFFFFFFDFFFDFF7FFEFEC
:103C4000DFDFBFD79ED7DFDFD8A583082611DBD6FD
:103C5000FFFFFFFFFFFFFFFFFFFF5DEFFFFFFFFF26
:103C6000FFFFFFFFFFFFFFFFFFFF79EE8BDC21313E
:103C7000A9213DCFBFDF7EDF9EE7BEEFBFEFDFF7BD
:103C8000DFF7DFF7DFF7DFF7BFEFBEEF9EE77EDF9F
:103C90005ED75ED7DFDF9AB626194208EDA3BFFFD5
:103CA000FFFFFFFFFFFFFFFFFFFF5DEFFFFFFFFFD6
:103CB000FFFFFFFFFFFFFFFF74DDC0DB00FE42EEF2
:103CC000024289217BB6DFDF7ED77EDF7EDF9EE783
:103CD0009EE79EE79EE79EE77EDF7EDF5DD75DD7AE
:103CE0009EDFFFE7F8A50711E31802C560FDE6D3E4
:103CF000DBEEFFFFFFFFFFFFFFFF5DEFFFFFFFFFBB
:103D0000FFFFFFFFFFFF9EF784BAC1FC42FE82FE69
:103D1000A2FE8183452174745EC7DFDF7ED75ED744
:103D20005DD75ED75ED75DD75DD75ED79EDFFFE7F5
:103D30003DC7F1638408425226E629FF86FEE0F380
:103D40006AC3FFFFFFFFFFFFFFFF5DEFFFFFFFFF06
:103D5000FFFFFFFFFFFF18DEC1D2A2FD22FE42FEE1
:103D600042FE62FEE2D4416A494253743BA63EC71A
:103D7000BFD7BFD7BFD7BFDFBFD73EC71AA6F26333
:103D8000A729824122B462FE83FEAAFE0FFF67FDCF
:103D900063BA3CEFFFFFFFFFFFFF5DEFFFFFFFFF99
:103DA000FFFFFFFFFFFF9AE680D221FDC2FDE2F593
:103DB000C2F582F582FD62FD61DC219B846AE96ABD
:103DC0002C63AF6311746E632C63895A0452817A39
:103DD000C2CBE2FC62FD82FDC2FDC2FDE4FD24FD1A
:103DE00062CA1CE7FFFFFFFFFFFF5DEFFFFFFFFF62
:103DF000FFFFFFFFFFFFFFFFB1CC81D2C0F3C1FC8B
:103E000002FD02FDE2FCC2FCC2FC81FC80FBC0C9D9
:103E1000A48135AD59CE719C218100DAA1FB82FCD1
:103E2000A2FC82FCA2FC02FD22FDE2FC00FC60DAA6
:103E300090CCFFFFFFFFFFFFFFFF5DEFFFFFFFFFE6
:103E4000FFFFFFFFFFFFFFFFFFFF59DE0DC406CBA3
:103E5000E4D203DB03DBE3DAC3D2A4C209B3D2BCEE
:103E60009EF7FFFFFFFFFFFFFBE60EB4A6BA83D26B
:103E7000E3E202EB22EB22E303DBE4D26AC3B6D532
:103E8000FFFFFFFFFFFFFFFFFFFFFFFFFFFFFFFF42
:103E9000FFFFFFFFFFFFFFFFFFFFFFFFFFFFFFFF32
:103EA000FFFFFFFFFFFFFFFFFFFFFFFFFFFFFFFF22
:103EB000FFFFFFFFFFFFFFFFFFFFFFFFFFFFFFFF12
:104ED000FFFFFFFFFFFFFFFFFFFFFFFFDFFFFFFF02
:104EE000FFFFFFFFFFFFDFFFFFFFFFFFFFFFFFFFF2
:104EF000FFFFFFFFDEF7FFFFFFFFFFFFFFFFFFFFEB
:104F0000FEFFFEFFFFFFFFFFDFFFFFFFDFFFFFFFF3
:104F1000FFFFDEFFFFFFFFFFDFFFFFFFFFFFFFFFE2
:104F2000FFFFFFFFFFFFDFFFFFFFFFFFFFFFFFFFB1
:104F3000FFFFFFFFFFFFFFFFFFFFFFFFFFFFFFFF81
:104F4000FFFFFFFFFFFFFFFFFFFFFFFFFFFFFFFF71
:104F5000FFFFFFFFFFFFFFFFFFFFFFFFFFFFFFFF61
:104F6000FFFFFFFFFFFFFFFFFFFFFFFFFFFFFFFF51
:104F7000FFFFFFFFFFFFFFFFFFFFFFFFFFFFFFFF41
:104F8000FFFFFFFFFFFFFFFFFFFFFFFFFFFFFFFF31
:104F9000FFFFFFFFFFFFFFFFFFFFFFFFFFFFFFFF21
:104FA000FFFFFFFFFFFFFFFFFFFFFFFFFFFFFFFF11
:104FB000FFFFFFFFFFFFFFFFFFFFFFFFFFFFFFFF01
:104FC000FFFFFFFFFFFFFFFFFFFFFFFFFFFFFFFFF1
:104FD000FFFFFFFFFFFFFFFFFFFFFFFFFFFFBEF72A
:104FE000FFFFFFFFFFFFDFFF9EF799CEB6B5728C84
:104FF000CF735284D49C31840D63CA52494ACC5A2F
:10500000F59C1DE7DFFFFFFFFFFFFFFFFFFFFFFF37
:10501000FFFFFFFFFFFFFFFFFFFFFFFFFFFFFFFFA0
:10502000FFFFDFFFFFFFFFFFDFFFFFFFDFFFFFFFF0
:10503000FFFFFFFFFFFFFFFFFFFFFFFFFFFFFFFF80
:10504000FFFFFFFFFFFFFFFFFFFFFFFFFFFFFFFF70
:10505000FFFFFFFFFFFFFFFFFFFFFFFFFFFFFFFF60
:10506000FFFFFFFFFFFFFFFFFFFFFFFFFFFFFFFF50
:10507000FFFFFFFFFFFFFFFFFFFFFFFFFFFFFFFF40
:10508000FFFFFFFFFFFFFFFFFFFFFFFFFFFFFFFF30
:10509000FFFFFFFFFFFFFFFFFFFFFFFFFFFFFFFF20
:1050A000FFFFFFFFFFFFFFFFFFFFFFFFFFFFFFFF10
:1050B000FFFFFFFFFFFFFFFFFFFFFFFFFFFFFFFF00
:1050C000FFFFFFFFFFFFFFFFFFFFFFFFFFFFFFFFF0
:1050D000FFFFFFFFFFFFFFFFFFFFFFFFFFFFFFFFE0
:1050E000FFFFDEFFFADEB6B5317C2E736E732D6BDB
:1050F0000C63CB52CB524842C631C952EA5AC53929
:10510000801002210B63D7BDFFFFFEFFFFFF7DEF85
:1051100059C676ADD394149D75AD18BEFBDEBEF7AF
:10512000FFFFFFFFFFFFFFFFDFFFFFFFFFFFFFFFAF
:10513000FFFFDFFFFFFFFFFFFFFFFFFFFFFFFFFF9F
:10514000FFFFFFFFFFFFFFFFFFFFFFFFFFFFFFFF6F
:10515000FFFFFFFFFFFFFFFFFFFFFFFFFFFFFFFF5F
:10516000FFFFFFFFFFFFFFFFFFFFFFFFFFFFFFFF4F
:10517000FFFFFFFFFFFFFFFFFFFFFFFFFFFFFFFF3F
:10518000FFFFFFFFFFFFFFFFFFFFFFFFFFFFFFFF2F
:10519000FFFFFFFFFFFFFFFFFFFFFFFFFFFFFFFF1F
:1051A000FFFFFFFFFFFFFFFFFFFFFFFFFFFFFFFF0F
:1051B000FFFFFFFFFFFFFFFFFFFFFFFFFFFFFFFFFF
:1051C000FFFFFFFFFFFFFFFFFFFFFFFFFFFFFFFFEF
:1051D000FFFFFFFFFFFFFFFFFFFFFFFFBEFFFFFF20
:1051E000BAD6B394B38C96A5569D58C65CE79CEF8F
:1051F000D8DE13CE11D6CDD549C5AAD52DE66EF68B
:105200004CE6AACD28B5AAC5EFE63AEFD9DE2F8C39
:10521000AA526D6B4C6B684A063AE739AA52EF7393
:10522000F39CD6B5DAD6BEF7FFFFFFFFFFFFFFFF07
:10523000FFFFFFFFFFFFFFFFFFFFFFFFFFFFFFFF7E
:10524000FFFFFFFFFFFFFFFFFFFFFFFFFFFFFFFF6E
:10525000FFFFFFFFFFFFFFFFFFFFFFFFFFFFFFFF5E
:10526000FFFFFFFFFFFFFFFFFFFFFFFFFFFFFFFF4E
:10527000FFFFFFFFFFFFFFFFFFFFFFFFFFFFFFFF3E
:10528000FFFFFFFFFFFFFFFFFFFFFFFFFFFFFFFF2E
:10529000FFFFFFFFFFFFFFFFFFFFFFFFFFFFFFFF1E
:1052A000FFFFFFFFFFFFFFFFFFFFFFFFFFFFFFFF0E
:1052B000FFFFFFFFFFFFFFFFFFFFFFFFFFFFFFFFFE
:1052C000FFFFFFFFFFFFFFFFFFFFFFFFFFFFFFFFEE
:1052D000FFFFFFFFFFFFFFFFFFFFDFFF7DF772A56F
:1052E0004E7CD28C5ACED7C515CE11C6EEC52BCE6C
:1052F0006ADECAEE8AF68CF68DFEABF6AAF6AAEE48
:10530000AAE6CEEE53F798F779EF9CF77CEFBDF75E
:10531000FFFFDFF7FFF79EEF37BE75A596ADF3945D
:10532000307C0F7C0F7CD29C59CEFFFFFFFFFFFF2C
:10533000FFFFFFFFFFFFDFFFFFFFFFFFFFFFFFFF9D
:10534000FFFFFFFFFFFFFFFFFFFFFFFFFFFFFFFF6D
:10535000FFFFFFFFFFFFFFFFFFFFFFFFFFFFFFFF5D
:10536000FFFFFFFFFFFFFFFFFFFFFFFFFFFFFFFF4D
:10537000FFFFFFFFFFFFFFFFFFFFFFFFFFFFFFFF3D
:10538000FFFFFFFFFFFFFFFFFFFFFFFFFFFFFFFF2D
:10539000FFFFFFFFFFFFFFFFFFFFFFFFFFFFFFFF1D
:1053A000FFFFFFFFFFFFFFFFFFFFFFFFFFFFFFFF0D
:1053B000FFFFFFFFFFFFFFFFFFFFFFFFFFFFFFFFFD
:1053C000FFFFFFFFFFFFFFFFFFFFFFFFFFFFFFFFED
:1053D000FFFFFFFFFFFFFFFFDFFF1ADF75A5F59C53
:1053E00077AD79D64FBD0CD649E669F66AF6ACFEC4
:1053F0006CF6ACF68BEECBEEAAE6CBF64CE671E69D
:1054000018FF9DFFBFFF7FF7FEDE9AC69AC659BE02
:1054100039B619AE18AE5ABEBBC61CD75DDFBACEC0
:1054200018B638BE18BE139D308496AD1CDFFFFF42
:10543000FFFFDFFFFFFFFFFFFFFFFFFFFFFFFFFF9C
:10544000FFFFFFFFFFFFFFFFFFFFFFFFFFFFFFFF6C
:10545000FFFFFFFFFFFFFFFFFFFFFFFFFFFFFFFF5C
:10546000FFFFFFFFFFFFFFFFFFFFFFFFFFFFFFFF4C
:10547000FFFFFFFFFFFFFFFFFFFFFFFFFFFFFFFF3C
:10548000FFFFFFFFFFFFFFFFFFFFFFFFFFFFFFFF2C
:10549000FFFFFFFFFFFFFFFFFFFFFFFFFFFFFFFF1C
:1054A000FFFFFFFFFFFFFFFFFFFFFFFFFFFFFFFF0C
:1054B000FFFFFFFFFFFFFFFFFFFFFFFFFFFFFFFFFC
:1054C000FFFFFFFFFFFFFFFFFFFFFFFFFFFFFFFFEC
:1054D000FFFFFFFFFFFF7DEFBAD6F9BDD7BD52B585
:1054E00050D60BD68AEEAAF6ABFE8CEE6CEE6DEEC5
:1054F0008DF68CF64BEE6AEECBF677D63AE7DEF712
:10550000BFEFFCCE39B6D8A5D8A51595B384727C6B
:10551000937CD48CF48C1595B7A5559D559D18AEEC
:1055200059B618B6FBD63CDFF7BDCF73149DFBDE32
:10553000FFFFFFFFFFFFFFFFFFFFFFFFFFFFFFFF7B
:10554000FFFFFFFFFFFFFFFFFFFFFFFFFFFFFFFF6B
:10555000FFFFFFFFFFFFFFFFFFFFFFFFFFFFFFFF5B
:10556000FFFFFFFFFFFFFFFFFFFFFFFFFFFFFFFF4B
:10557000FFFFFFFFFFFFFFFFFFFFFFFFFFFFFFFF3B
:10558000FFFFFFFFFFFFFFFFFFFFFFFFFFFFFFFF2B
:10559000FFFFFFFFFFFFFFFFFFFFFFFFFFFFFFFF1B
:1055A000FFFFFFFFFFFFFFFFFFFFFFFFFFFFFFFF0B
:1055B000FFFFFFFFFFFFFFFFFFFFFFFFFFFFFFFFFB
:1055C000FFFFFFFFFFFFFFFFFFFFFFFFFFFFFFFFEB
:1055D000FFFFFFFFDFFFBAD675AD36CEEFC58BE616
:1055E00089EEABFE8DF68CEE8BE68BEECBF6AAEE5B
:1055F000A9EE8AEEEDF6AEEE6EE63DE7BFEF1DD703
:1056000018AED7A55595EF6BEB4A093AA729A629FD
:105610008529E631AA4A6D6B718C96A5D8AD569551
:10562000359597A5559DD7B5BFEF38BE5184F39CEE
:105630003CE7FFFFDFFFFFFFFFFFFFFFFFFFFFFF75
:10564000FFFFFFFFFFFFFFFFFFFFFFFFFFFFFFFF6A
:10565000FFFFFFFFFFFFFFFFFFFFFFFFFFFFFFFF5A
:10566000FFFFFFFFFFFFFFFFFFFFFFFFFFFFFFFF4A
:10567000FFFFFFFFFFFFFFFFFFFFFFFFFFFFFFFF3A
:10568000FFFFFFFFFFFFFFFFFFFFFFFFFFFFFFFF2A
:10569000FFFFFFFFFFFFFFFFFFFFFFFFFFFFFFFF1A
:1056A000FFFFFFFFFFFFFFFFFFFFFFFFFFFFFFFF0A
:1056B000FFFFFFFFFFFFFFFFFFFFFFFFFFFFFFFFFA
:1056C000FFFFFFFFFFFFFFFFFFFFFFF7DFFFDFFF32
:1056D000DEFFFEFFFFFF58CED4E66DEE8CEE8BEEC4
:1056E0008BEEABEE8BEE8BEEACEE8CEECCEE6CEE8E
:1056F000CCEECBE6AAEE74EE5EE77DE759BEB79D31
:10570000769DAF63283A8531C53927424742884A9A
:10571000C952A852674A475247520A63528C99AD00
:10572000F8B5559D3595358DB79DBEF739CE139D8E
:10573000B7A5BDEFDFFFDFFFFFFFFFFFFFFFFFFFAD
:10574000FFFFFFFFFFFFFFFFFFFFFFFFFFFFFFFF69
:10575000FFFFFFFFFFFFFFFFFFFFFFFFFFFFFFFF59
:10576000FFFFFFFFFFFFFFFFFFFFFFFFFFFFFFFF49
:10577000FFFFFFFFFFFFFFFFFFFFFFFFFFFFFFFF39
:10578000FFFFFFFFFFFFFFFFFFFFFFFFFFFFFFFF29
:10579000FFFFFFFFFFFFFFFFFFFFFFFFFFFFFFFF19
:1057A000FFFFFFFFFFFFFFFFFFFFFFFFFFFFFFFF09
:1057B000FFFFFFFFFFFFFFFFFFFFFFFFFFFFFFFFF9
:1057C000FFFFFFFFFFFFFFFFFFFFFEFFFFFFFFFFEA
:1057D000FEFFFFFFBEFFD4E68DE6ACF68BEE8BEE50
:1057E000ABEEACEEACEEADEEADEECBEE8BF6CAEEC4
:1057F000ACEECBF6F2E63BDF7DDFF9B596A5D284C1
:10580000EA4AA621083A8B420E538F5B8F5B8F6367
:105810008F638E634D5B0B53CA52284A684ACD731F
:1058200076ADF8BDB6AD3495168DB7AD1BDF59C654
:10583000F3947ACEDFFFFEFFFFFFFFFFFFFFFFFFC6
:10584000FFFFFFFFFFFFFFFFFFFFFFFFFFFFFFFF68
:10585000FFFFFFFFFFFFFFFFFFFFFFFFFFFFFFFF58
:10586000FFFFFFFFFFFFFFFFFFFFFFFFFFFFFFFF48
:10587000FFFFFFFFFFFFFFFFFFFFFFFFFFFFFFFF38
:10588000FFFFFFFFFFFFFFFFFFFFFFFFFFFFFFFF28
:10589000FFFFFFFFFFFFFFFFFFFFFFFFFFFFFFFF18
:1058A000FFFFFFFFFFFFFFFFFFFFFFFFFFFFFFFF08
:1058B000FFFFFFFFFFFFFFFFFFFFFFFFFFFFFFFFF8
:1058C000FFFFFFFFFFFFFFFFFFFFFFFFFFFFFFFFE8
:1058D000FFFF7CF7F3EEACEE8AEE6AEEABEEECF691
:1058E000CBEE8BE6ABE6AAEEAAE6CBEECBEECBEEAA
:1058F0008AEE8EE6DCDEBED739B677A5B384293AC8
:105900008621EC4A6F5BF2633464146C5474757CCA
:10591000B584B48CD48C9284517CEF7B6A6BC75273
:105920008C7375AD39C6D7ADF58CB58C77BE5FE796
:10593000D6BD1AC63CDFFFFFFFFFFFFFFFFFFFFFE3
:10594000FFFFFFFFFFFFFFFFFFFFFFFFFFFFFFFF67
:10595000FFFFFFFFFFFFFFFFFFFFFFFFFFFFFFFF57
:10596000FFFFFFFFFFFFFFFFFFFFFFFFFFFFFFFF47
:10597000FFFFFFFFFFFFFFFFFFFFFFFFFFFFFFFF37
:10598000FFFFFFFFFFFFFFFFFFFFFFFFFFFFFFFF27
:10599000FFFFFFFFFFFFFFFFFFFFFFFFFFFFFFFF17
:1059A000FFFFFFFFFFFFFFFFFFFFFFFFFFFFFFFF07
:1059B000FFFFFFFFFFFFFFFFFFFFFFFFFFFFFFFFF7
:1059C000FFFFFFFFFFFFFFFFFFFFFFFFFEFFFFFFE8
:1059D0007DFFD2EE8BEE69EEABF6AAEE8BEEABEE70
:1059E000ABE6CBEEECF6EBF6AAEEACEECBE6ADEE2C
:1059F000ACF698D65FE73CDF77A5F38C4932E9290E
:105A00000F4B3474957CB574F5743795B9AD3BC6BE
:105A10007BD6BBD6DBDEDBDEDAD678CE17C6F29CD1
:105A20008B73CD83F4A439C6F7B5368D138DBCCEF8
:105A30007CF7FBE65EE7FFFFDFFFFFFFFFFFFFFFF7
:105A4000FFFFFFFFFFFFFFFFFFFFFFFFFFFFFFFF66
:105A5000FFFFFFFFFFFFFFFFFFFFFFFFFFFFFFFF56
:105A6000FFFFFFFFFFFFFFFFFFFFFFFFFFFFFFFF46
:105A7000FFFFFFFFFFFFFFFFFFFFFFFFFFFFFFFF36
:105A8000FFFFFFFFFFFFFFFFFFFFFFFFFFFFFFFF26
:105A9000FFFFFFFFFFFFFFFFFFFFFFFFFFFFFFFF16
:105AA000FFFFFFFFFFFFFFFFFFFFFFFFFFFFFFFF06
:105AB000FFFFFFFFFFFFFFFFFFFFFFFFFFFFFFFFF6
:105AC000FFFFFFFFFFFFFFFFFFFFFFFFFFFFBDFF28
:105AD000B2E66AE68BF6ADF6ACEEEBEEABE68BE645
:105AE000ACEEACEE8CEE8CEE8DF6CAF64AEEAAEE7B
:105AF00093E61FDFFEF7F8BD97A50C4BA819704B76
:105B0000766CB774D7843695F8AD7AC6FCDE5DEF57
:105B10005EF75DF75DF75DF75DF75CEFFDE6FCE6D0
:105B2000D6C52D94CD8355AD38BE959D1485569D13
:105B30005CEF9AF7FFFFFFF7FFFFFFFFFFFFFFFF9D
:105B4000FFFFFFFFFFFFFFFFFFFFFFFFFFFFFFFF65
:105B5000FFFFFFFFFFFFFFFFFFFFFFFFFFFFFFFF55
:105B6000FFFFFFFFFFFFFFFFFFFFFFFFFFFFFFFF45
:105B7000FFFFFFFFFFFFFFFFFFFFFFFFFFFFFFFF35
:105B8000FFFFFFFFFFFFFFFFFFFFFFFFFFFFFFFF25
:105B9000FFFFFFFFFFFFFFFFFFFFFFFFFFFFFFFF15
:105BA000FFFFFFFFFFFFFFFFFFFFFFFFFFFFFFFF05
:105BB000FFFFFFFFFFFFFFFFFFFFFFFFFFFFFFFFF5
:105BC000FFFFFFFFFFFFFFFFFFFFFFF7FEFFF3EE0B
:105BD0006AE66BF66CF6CDF66CE68AE6CCEECCEEB9
:105BE000ABEEEAF6CAF6AAEE8BEEABF6CCFE8AE690
:105BF000B9D6BFEFBBE7B59D9484A9210F4B746460
:105C0000D66C5785989D19BEFCE67DEF9EEF9EF7FA
:105C10009EF77EF77EF75EEF3DEF5EEF1DE71DEF2F
:105C2000FCEE17CE4D94ED8356AD36B6789DF484D8
:105C3000F7B578F7BDFFFFFFFFFFFFFFFFFFFFFF97
:105C4000FFFFFFFFFFFFFFFFFFFFFFFFFFFFFFFF64
:105C5000FFFFFFFFFFFFFFFFFFFFFFFFFFFFFFFF54
:105C6000FFFFFFFFFFFFFFFFFFFFFFFFFFFFFFFF44
:105C7000FFFFFFFFFFFFFFFFFFFFFFFFFFFFFFFF34
:105C8000FFFFFFFFFFFFFFFFFFFFFFFFFFFFFFFF24
:105C9000FFFFFFFFFFFFFFFFFFFFFFFFFFFFFFFF14
:105CA000FFFFFFFFFFFFFFFFFFFFFFFFFFFFFFFF04
:105CB000FFFFFFFFFFFFFFFFFFFFFFFFFFFFFFFFF4
:105CC000FFFFFFFFFFFFFFFFFFFFFFFF35EF8BE64B
:105CD0008AF68EF66BEECAF68CEEABEECCEE8BEE61
:105CE0008AEEEBF60BEFCDE6F0E632D6ECCD73CED6
:105CF0003DDFFFFFDBD6D59D4F530D2A91533785EE
:105D0000368576959BC6DCDE9EF7BFF7BFF79EF71C
:105D10009FF79FF79FF77FF77EF75DEF7DEF3DE7FA
:105D2000FCE6DBE674BDAC7B709437C6DAB5558D06
:105D30003595F7E6D4EEFDFFFFFFFFFFFFFFFFFF06
:105D4000FFFFFFFFFFFFFFFFFFFFFFFFFFFFFFFF63
:105D5000FFFFFFFFFFFFFFFFFFFFFFFFFFFFFFFF53
:105D6000FFFFFFFFFFFFFFFFFFFFFFFFFFFFFFFF43
:105D7000FFFFFFFFFFFFFFFFFFFFFFFFFFFFFFFF33
:105D8000FFFFFFFFFFFFFFFFFFFFFFFFFFFFFFFF23
:105D9000FFFFFFFFFFFFFFFFFFFFFFFFFFFFFFFF13
:105DA000FFFFFFFFFFFFFFFFFFFFFFFFFFFFFFFF03
:105DB000FFFFFFFFFFFFFFFFFFFFFFFFFFFFFFFFF3
:105DC000FFFFFFFFFFFFFFFFFFFF9BFF6EDE8BF676
:105DD0006CF68CEECCEECBF6EAFE2BFFECFEABF6CF
:105DE0006CEEEBD5EAAC51AD1CE777A5CA3219AE23
:105DF0005DF7DFFF5AC637A5CC42CF3AD67CD67CBA
:105E000057953AB61DDFBFF79EF79FFF9FFFBFF77D
:105E1000BFF7BEF79EF77EF77EFF9CF73CE77DEF6E
:105E20003CEFFBE69BDE70948A7355B53BC6358D1F
:105E3000568D77D68DEE5AFFFFF7FFFFFFFFFFFF6E
:105E4000FFFFFFFFFFFFFFFFFFFFFFFFFFFFFFFF62
:105E5000FFFFFFFFFFFFFFFFFFFFFFFFFFFFFFFF52
:105E6000FFFFFFFFFFFFFFFFFFFFFFFFFFFFFFFF42
:105E7000FFFFFFFFFFFFFFFFFFFFFFFFFFFFFFFF32
:105E8000FFFFFFFFFFFFFFFFFFFFFFFFFFFFFFFF22
:105E9000FFFFFFFFFFFFFFFFFFFFFFFFFFFFFFFF12
:105EA000FFFFFFFFFFFFFFFFFFFFFFFFFFFFFFFF02
:105EB000FFFFFFFFFFFFFFFFFFFFDFFFFFFFFFFF12
:105EC000FFFFFFFFFEFFFFFFBFFFAFEE8EEEADF661
:105ED000CCFEEBF68BE6CBC5EAA4E98B4873E85A17
:105EE0006942E82966192D539EEF72848A4259BE91
:105EF0009DE7FFFF58BE5595CC327053F6747985F7
:105F00009995DCCE9EEFFFF7FFF7FFFFFFFFFFFF46
:105F1000FEF7DDEFFFFF5DF75FFF7DF77DF77DEFBC
:105F20005DEF3DE7DBDEB5BD4B73B49C98BE939D42
:105F3000158D59B690EE8FFEFFFFFDFFDFFFFFFFCF
:105F4000FEFFDFFFFFFFFFFFFFFFFFFFFFFFFFFF82
:105F5000FFFFFFFFFFFFFFFFFFFFFFFFFFFFFFFF51
:105F6000FFFFFFFFFFFFFFFFFFFFFFFFFFFFFFFF41
:105F7000FFFFFFFFFFFFFFFFFFFFFFFFFFFFFFFF31
:105F8000FFFFFFFFFFFFFFFFFFFFFFFFFFFFFFFF21
:105F9000FFFFFFFFFFFFFFFFFFFFFFFFFFFFFFFF11
:105FA000FFFFFFFFFFFFFFFFFFFFFFFFFFFFFFFF01
:105FB000FFFFFFFFFFFFFFFFFFFFFFFFDFFFDFFF31
:105FC000FFFFFFFFFFFFDDFFBCFFECFE8DEE0DCE00
:105FD000ECA48973674A873127216711A821E93129
:105FE000C9318829A829B06BDFEF8E636D5359B68C
:105FF0005DDFFFFF5BCED58C0F4B1354587D578D63
:106000005AB65DE7FFFF58D6B19CCE8B509C75BD4C
:106010003DE7FFFFBEF7DEF7BFEF9EF79EF77DF788
:106020003DE71DE71CE779CEEE7B528C79BE96A545
:10603000D68C3AB6B1EE2AEE34E7FFFFFFFFFFFF42
:10604000FEFFFFFFFFFFFFFFFFFFFFFFFFFFFFFF61
:10605000FFFFFFFFFFFFFFFFFFFFFFFFFFFFFFFF50
:10606000FFFFFFFFFFFFFFFFFFFFFFFFFFFFFFFF40
:10607000FFFFFFFFFFFFFFFFFFFFFFFFFFFFFFFF30
:10608000FFFFFFFFFFFFFFFFFFFFFFFFFFFFFFFF20
:10609000FFFFFFFFFFFFFFFFFFFFFFFFFFFFFFFF10
:1060A000FFFFFFFFFFFFFFFFFFFFFFFFFFFFFFFF00
:1060B000FFFFFFFFFFFFFFFFFFFFDFFFFFFFFFFF10
:1060C000FFFFBFFFFFFFFDFFB5DEEEA48B7328428D
:1060D0008729471946196621A629A821A8298729B1
:1060E00087298731A629EF739AC6EC4AAF63F7ADCB
:1060F0005CDFFFFF7ACE16952F4B5454577D979552
:10610000DBCE9EEF0F8C05524141C67A056A0351E2
:10611000096A55C5BFFFBEF7BEF79EF79EF79EF70B
:106120005DEF3DEF1CDFFBD6918C308458BEB6ADE1
:10613000F58C969551D62AEEEFF6BFFFDFFFFFFFF5
:10614000FEF7FFFFFFFFFFFFFFFFFFFFFFFFFFFF68
:10615000FFFFFFFFFFFFFFFFFFFFFFFFFFFFFFFF4F
:10616000FFFFFFFFFFFFFFFFFFFFFFFFFFFFFFFF3F
:10617000FFFFFFFFFFFFFFFFFFFFFFFFFFFFFFFF2F
:10618000FFFFFFFFFFFFFFFFFFFFFFFFFFFFFFFF1F
:10619000FFFFFFFFFFFFFFFFFFFFFFFFFFFFFFFF0F
:1061A000FFFFFFFFFFFFFFFFFFFFFFFFFFFFFFFFFF
:1061B000FFFFFFFFFFFFFFFFFFFFFFFFFFFFFEFFF0
:1061C000FFFFDFFFFFFF1BDF0D7C6A3AC82947197D
:1061D000472167216621652185218631A731C83194
:1061E0000932C8298621559D5CDF6A3AAE63349531
:1061F00099C6FFFFBACED79DD053D253377DF995BC
:106200003DCF518463390462E68291CE2A94C46101
:10621000E569A03074ADFFF7BEF79FF77EEF9EF7FC
:106220005DF73DEFDCD61CD71495908438B675A584
:10623000158D558D53CE6DF62AE69AFFFFFFFFFFB1
:10624000FFFFFFFFFFFFFFFFFFFFFFFFFFFFFFFF5E
:10625000FFFFFFFFFFFFFFFFFFFFFFFFFFFFFFFF4E
:10626000FFFFFFFFFFFFFFFFFFFFFFFFFFFFFFFF3E
:10627000FFFFFFFFFFFFFFFFFFFFFFFFFFFFFFFF2E
:10628000FFFFFFFFFFFFFFFFFFFFFFFFFFFFFFFF1E
:10629000FFFFFFFFFFFFFFFFFFFFFFFFFFFFFFFF0E
:1062A000FFFFFFFFFFFFFFFFFFFFFFFFFFFFFFFFFE
:1062B000FFFFFFFFFFFFFFFFFFFFFFFFDFFFFFFF0E
:1062C000FFFFFFFFDEEF92842D530A320A320932BC
:1062D000C72987218729C929C929C829C821A721F0
:1062E000E829C721862139BEFCD6693AEF6B148DA7
:1062F00096A5DFEF3DDFB79DB474D153F774DA8D07
:106300009BBE274A045A65628241A0218121413106
:10631000E3618259E651FBDEFFFFBFF79EF77DF791
:106320003DEF1DE7FCDE1CD71495918439BE579DC7
:10633000178D158571AD8DE6C8EE31EFDEFFDFFFFD
:10634000FEFFFEFFFFFFFFFFFFFFFFFFFFFFFFFF5F
:10635000FFFFFFFFFFFFFFFFFFFFFFFFFFFFFFFF4D
:10636000FFFFFFFFFFFFFFFFFFFFFFFFFFFFFFFF3D
:10637000FFFFFFFFFFFFFFFFFFFFFFFFFFFFFFFF2D
:10638000FFFFFFFFFFFFFFFFFFFFFFFFFFFFFFFF1D
:10639000FFFFFFFFFFFFFFFFFFFFFFFFFFFFFFFF0D
:1063A000FFFFFFFFFFFFFFFFFFFFFFFFFFFFFFFFFD
:1063B000FFFFFFFFFFFFFFFFFFFFFFFFDFFFFFFF0D
:1063C000FFFFFFFF7CDFB384336C4F5B6B3AC72169
:1063D000862146210521E520C428242965318439F8
:1063E00063394339C64119C67CC6EA290E4B579515
:1063F000779DBBCE9EEFD7B5359DD253D76CFB951D
:10640000F7AD62412362C349E1108210C3086008FE
:1064100044726692035196C5FFFF9FF7BEF77EF761
:106420003DE71DE73DE79ACE7184F38C18B61595CC
:106430005695937CEA522A8C2ED6EFE6FDFFDFFFBD
:10644000DEFFFEFFFFFFFFFFFFFFFFFFFFFFFFFF7E
:10645000FFFFFFFFFFFFFFFFFFFFFFFFFFFFFFFF4C
:10646000FFFFFFFFFFFFFFFFFFFFFFFFFFFFFFFF3C
:10647000FFFFFFFFFFFFFFFFFFFFFFFFFFFFFFFF2C
:10648000FFFFFFFFFFFFFFFFFFFFFFFFFFFFFFFF1C
:10649000FFFFFFFFFFFFFFFFFFFFFFFFFFFFFFFF0C
:1064A000FFFFFFFFFFFFFFFFFFFFFFFFFFFFFFFFFC
:1064B000FFFFFFFFFFFFFFFFFFFFFFFFFFFFDEFF0D
:1064C000FFFFFFFF7EE735958F63883145298331D4
:1064D0004452E46A447B059C86B486B4C5BC26CD90
:1064E00066D588D549C50ECEEBA4C741494AF49478
:1064F00097A5D7B5DBD678C6B5A594747464377DF7
:106500007ABEC541A349E451E02840102000A018FC
:1065100081618171A038B6B5FFF77EF77EF77EEF17
:106520005DEF1DE7FCDED6BD4F84B8AD959D1285AD
:106530005495117467218729CB5A6FADBDF7FFFFC2
:10654000FFFFFFFFFFFFFFFFFFFFFFFFFFFFFFFF5B
:10655000FFFFFFFFFFFFFFFFFFFFFFFFFFFFFFFF4B
:10656000FFFFFFFFFFFFFFFFFFFFFFFFFFFFFFFF3B
:10657000FFFFFFFFFFFFFFFFFFFFFFFFFFFFFFFF2B
:10658000FFFFFFFFFFFFFFFFFFFFFFFFFFFFFFFF1B
:10659000FFFFFFFFFFFFFFFFFFFFFFFFFFFFFFFF0B
:1065A000FFFFFFFFFFFFFFFFFFFFFFFFFFFFFFFFFB
:1065B000FFFFFFFFFFFFFFFFFFFFFFFFFFFFFEFFEC
:1065C000FFFFDFFF1EE76E6BE531648386ACC9DD3C
:1065D0004AF66AFEABFEECFEEBF6CDFEACFE8BF6A9
:1065E0008AF6ABFEABFE09EEA8E5658BC88B50AD15
:1065F000D5AD17B696A57ABED8A5B6A53164736495
:106600009DAE527C0010A259E27160416249A371B3
:1066100064A2807122391CE79EFF9EF75DEF3DEF7B
:106620003DE7DCDE9AD695B5F1A4D9AD35957595E3
:10663000F58C4F63C929C9296819E931B6ADBDEF99
:10664000FFFFFFFFDFFFFEFFFFFFFFFFFFFFFFFF7B
:10665000FFFFFFFFFFFFFFFFFFFFFFFFFFFFFFFF4A
:10666000FFFFFFFFFFFFFFFFFFFFFFFFFFFFFFFF3A
:10667000FFFFFFFFFFFFFFFFFFFFFFFFFFFFFFFF2A
:10668000FFFFFFFFFFFFFFFFFFFFFFFFFFFFFFFF1A
:10669000FFFFFFFFFFFFFFFFFFFFFFFFFFFFFFFF0A
:1066A000FFFFFFFFFFFFFFFFFFFFFFFFFFFFFFFFFA
:1066B000FFFFFFFFFFFFFFFFFFFFFFFFFFFFFFFFEA
:1066C000FFFFFFFF55A5A36289DDCCFECCF6ACF63B
:1066D0008BF68BEE8BEE8BEE8BEE8BEE8BEE8BEEEA
:1066E0008BEE8BEE8BEE6BEE6BEE07EE87D5CCD59B
:1066F0006FB5B5B519B63595959D97A5549D2D7473
:10670000118DBAC6F1838020E03080618171248AC6
:106710008050A03854BDFFFF5FE75CEF9DEF5DDF69
:106720001FDFDCEEF2DD4FB5979D369DF594569D4B
:10673000D3842A328C428C4AE9314721A829DACE07
:10674000FFFFDFFFFFFFFEFFDFFFFFFFFFFFFFFF9A
:10675000FFFFFFFFFFFFFFFFFFFFFFFFFFFFFFFF49
:10676000FFFFFFFFFFFFFFFFFFFFFFFFFFFFFFFF39
:10677000FFFFFFFFFFFFFFFFFFFFFFFFFFFFFFFF29
:10678000FFFFFFFFFFFFFFFFFFFFFFFFFFFFFFFF19
:10679000FFFFFFFFFFFFFFFFFFFFFFFFFFFFFFFF09
:1067A000FFFFFFFFFFFFFFFFFFFFFFFFFFFFFFFFF9
:1067B000FFFFFFFFFFFFFFFFFFFFFFFFFFFFFFFFE9
:1067C000DFFFFFFFB6B50CADEEFE8BF68BEE8BEE6A
:1067D0008BEE8BEE8BEE8BEE8BEE8BEE8BEE8BEEF1
:1067E0008BEE8BEE8BEE6BEE6BEE8BFE2AEEA9CD75
:1067F000EDCD6FB594AD39B6737CF58CFA9D1495DB
:10680000CB8B0BC5D1EE90B50A5BA4498541A74956
:106810004E739BD6FFFF3CE79DFF5FF71DDFDAE677
:1068200093F6CBE56CC573AD979D358D969539AED6
:10683000116C25090A32AC422D532A3AC929517CE0
:10684000FFFFDFFFFFFFFFFFDFFFFFFFFFFFFFFF98
:10685000FFFFFFFFFFFFFFFFFFFFFFFFFFFFFFFF48
:10686000FFFFFFFFFFFFFFFFFFFFFFFFFFFFFFFF38
:10687000FFFFFFFFFFFFFFFFFFFFFFFFFFFFFFFF28
:10688000FFFFFFFFFFFFFFFFFFFFFFFFFFFFFFFF18
:10689000FFFFFFFFFFFFFFFFFFFFFFFFFFFFFFFF08
:1068A000FFFFFFFFFFFFFFFFFFFFFFFFFFFFFFFFF8
:1068B000FFFFFFFFFFFFFFFFFFFFFFFFFFFFBEF731
:1068C000FFFFFFFF7BEFB0E68BF66BEE6BEE8BEE20
:1068D0008BEE8BEE8BEE8BEEABEE8BEE8BEE8BEED0
:1068E0008BEE8BEE8BEE8BEE6BEE4BEE4AEEE8DD35
:1068F00009D66BBD4FAD38C6D9ADB06CB27C579DD3
:10690000779DAD8C06B548F6ACFE8DEE2DE6D2F641
:1069100076F777EF36EFF5EEB5F670F68EEE2BE6FE
:10692000A8D58CC555A517953295979538AE74A501
:106930000A63A118C318C72949320D53A921AF63AF
:10694000FFFFDFFFFFFFFFFFFFFFFFFFFFFFFFFF77
:10695000FFFFFFFFFFFFFFFFFFFFFFFFFFFFFFFF47
:10696000FFFFFFFFFFFFFFFFFFFFFFFFFFFFFFFF37
:10697000FFFFFFFFFFFFFFFFFFFFFFFFFFFFFFFF27
:10698000FFFFFFFFFFFFFFFFFFFFFFFFFFFFFFFF17
:10699000FFFFFFFFFFFFFFFFFFFFFFFFFFFFFFFF07
:1069A000FFFFFFFFFFFFFFFFFFFFFFFFFFFFFFFFF7
:1069B000FFFFFFFFFFFFFFFFFFFFFFFFFFFFFFFFE7
:1069C000FFFFFFFFDCFFAFE66BEE6BEE8BEE8BF6AF
:1069D0008BF6ABEEABEEABEEABEE8BEE8BEE8BEE67
:1069E0008BEE8BEE8BEE8BEE8BEE8BEE6AEE49EE42
:1069F000A8DDCBD58DC5CE9C72A519C6B38C71749C
:106A0000348D779D56A590BDCADD49EE6AF649F6EC
:106A100028F648EE49E629E6E9E5E8ED8CE58ECD75
:106A2000D1B5B69D378DF58C969D38B673B5478335
:106A3000E48A05938151C120E318C6290A321595CD
:106A4000FFFFFFFFFFFFFFFFFFFFFFFFFFFFFFFF56
:106A5000FFFFFFFFFFFFFFFFFFFFFFFFFFFFFFFF46
:106A6000FFFFFFFFFFFFFFFFFFFFFFFFFFFFFFFF36
:106A7000FFFFFFFFFFFFFFFFFFFFFFFFFFFFFFFF26
:106A8000FFFFFFFFFFFFFFFFFFFFFFFFFFFFFFFF16
:106A9000FFFFFFFFFFFFFFFFFFFFFFFFFFFFFFFF06
:106AA000FFFFFFFFFFFFFFFFFFFFFFFFFFFFFFFFF6
:106AB000FFFFFFFFFFFFFFFFFFFFFFFFBFFFFFFF26
:106AC000DEF7FFFF7AFF6DE68CF68BEE8BEE8BEE3A
:106AD0008BEE8BEE8BEE8BEEABEEABEE8BEE8BEEAE
:106AE0008BEE8BEE8BEE8BEE8BEE8AE64AE629EE92
:106AF000C8E5A9DDCBD56BBD0BA54FB5B5B5589590
:106B0000947C327C9484168D7795D2AD11BE30D6AC
:106B10004EE60CDE0DDE4EE60EDEF2C595B577A52F
:106B2000568DB47C1395D6A5FA9D30BD4AA467BC9A
:106B3000A5CC85CC88C4879BE251C018A72916959F
:106B4000FFFFFFFFFFFFFFFFFFFFFFFFFFFFFFFF55
:106B5000FFFFFFFFFFFFFFFFFFFFFFFFFFFFFFFF45
:106B6000FFFFFFFFFFFFFFFFFFFFFFFFFFFFFFFF35
:106B7000FFFFFFFFFFFFFFFFFFFFFFFFFFFFFFFF25
:106B8000FFFFFFFFFFFFFFFFFFFFFFFFFFFFFFFF15
:106B9000FFFFFFFFFFFFFFFFFFFFFFFFFFFFFFFF05
:106BA000FFFFFFFFFFFFFFFFFFFFFFFFFFFFFFFFF5
:106BB000FFFFFFFFFFFFFFFFFFFFFFFFDFFFFFFF05
:106BC000FFFFFFFF59FF6CE66BEE8BEE8BEE8BEE5B
:106BD0008BEE8BEE8BEE8BEEABEEABEEABEE8BEE8D
:106BE0008BEE8BEE8BEE8BEE8BEEACEE8CF68BF6AB
:106BF00049F6A6DD66CDA9D58ACD4AAD6AB5CFB531
:106C0000F7A5999DB48C5174726C94741585559543
:106C1000759D95A575A5559DF4941485F27CB27C5F
:106C2000B48C769519A6F8A533A547BCE8CC88DDC9
:106C300009E609E6A9DD8ADD49D566834008528464
:106C4000FFFFDFFFFFFFFFFFFFFFFFFFFFFFFFFF74
:106C5000FFFFFFFFFFFFFFFFFFFFFFFFFFFFFFFF44
:106C6000FFFFFFFFFFFFFFFFFFFFFFFFFFFFFFFF34
:106C7000FFFFFFFFFFFFFFFFFFFFFFFFFFFFFFFF24
:106C8000FFFFFFFFFFFFFFFFFFFFFFFFFFFFFFFF14
:106C9000FFFFFFFFFFFFFFFFFFFFFFFFFFFFFFFF04
:106CA000FFFFFFFFFFFFFFFFFFFFFFFFFFFFFFFFF4
:106CB000FFFFFFFFFFFFFFFFFFFFFFFFFFFFBEFF25
:106CC000FFFFDFFF18F78BEE8CEE8BEE8BEE8BEE7B
:106CD0008BEE8BEE8BEEABEEABEEABEEABEEABEE4C
:106CE0008BEE8BEE8BEE8BEE8BEE6BEE4BE66BEE64
:106CF0006AEE69EE07E666D588DD6ACD49BD49BD15
:106D0000ADCD12CE57B619A6789DF594537C126C72
:106D1000126C336C326C526CB374937C359558A5FD
:106D200079AD359D2E74AB7B8BBCC6D4A9E5A8DDAF
:106D300009DE09DE0AE68BF629EE4DEEC441D7B531
:106D4000FFFFFFFFFFFFFFFFFFFFFFFFFFFFFFFF53
:106D5000FFFFFFFFFFFFFFFFFFFFFFFFFFFFFFFF43
:106D6000FFFFFFFFFFFFFFFFFFFFFFFFFFFFFFFF33
:106D7000FFFFFFFFFFFFFFFFFFFFFFFFFFFFFFFF23
:106D8000FFFFFFFFFFFFFFFFFFFFFFFFFFFFFFFF13
:106D9000FFFFFFFFFFFFFFFFFFFFFFFFFFFFFFFF03
:106DA000FFFFFFFFFFFFFFFFFFFFFFFFFFFFFFFFF3
:106DB000FFFFFFFFFFFFFFFFFFFFFFFFDFFFFFFF03
:106DC000FFFFFFFFF7F68BEE6BEE8BEE8BEE8BEE9D
:106DD000ABEE8BEE8BEE8BEE8BEEABEEABEEABEE6B
:106DE0008BEE8BEE8BEE8BEE8BEE8AEEACF66BEED3
:106DF0006BEE8AF648EEE7E566DD65CD68CD6AC5DF
:106E00004ABD49BD4BC58EBDF1BD37BE58BE79BE2A
:106E100038B618B619BEF8B5F8B5D8AD3695506C79
:106E20006A53077344A323C4C7C448D527D5A9E52B
:106E3000EAEDEAED4BEE2AE66AE60AEEB2C5FFFF9E
:106E4000FFFFFFFFFFFFFFFFFFFFFFFFFFFFFFFF52
:106E5000FFFFFFFFFFFFFFFFFFFFFFFFFFFFFFFF42
:106E6000FFFFFFFFFFFFFFFFFFFFFFFFFFFFFFFF32
:106E7000FFFFFFFFFFFFFFFFFFFFFFFFFFFFFFFF22
:106E8000FFFFFFFFFFFFFFFFFFFFFFFFFFFFFFFF12
:106E9000FFFFFFFFFFFFFFFFFFFFFFFFFFFFFFFF02
:106EA000FFFFFFFFFFFFFFFFFFFFFFFFFFFFFFFFF2
:106EB000FFFFFFFFFFFFFFFFFFFFFFFFDFFFFEFF03
:106EC000FFFFFFFFF3F62BE66DEE6CF66CF66CF64B
:106ED0008BEEABEEABEE8BEE6BF68BEE8BEE8BEEC2
:106EE0008BEE8BEE8BEE8BEE8BEE8BEE8BEE6BEEFA
:106EF0006BEE6BEE6AEE6AEE69EE87E526D5C5BCF1
:106F000086ACC7AC29B54AB54AB5EBA4EFA4F19C51
:106F10001095108DD18C2F748C5B8B3A6842845AFB
:106F20002483C5A326BCA6C406CD47DD88DDC9E5FC
:106F3000E9E50AE62AE64AE64AE66CE6FFFFFFF7DD
:106F4000FEFFFFFFDFFFFFFFFFFFFFFFFFFFFFFF72
:106F5000FFFFFFFFFFFFFFFFFFFFFFFFFFFFFFFF41
:106F6000FFFFDFFFFFFFFFFFFFFFFFFFFFFFFFFF51
:106F7000FFFFFFFFFFFFFFFFFFFFFFFFFFFFFFFF21
:106F8000FFFFFFFFFFFFFFFFFFFFFFFFFFFFFFFF11
:106F9000FFFFFFFFFFFFFFFFFFFFFFFFFFFFFFFF01
:106FA000FFFFFFFFFFFFFFFFFFFFFFFFFFFFFFFFF1
:106FB000FFFFFFFFFFFFFFFFFFFFFEF7FFFFFFFFEA
:106FC000DFFFFEFFF0E68AEE6AF6AAEE8BEE8BEEAE
:106FD0008BEE8CEE6CEE8CEEABEE8BEE8BEE8BEEE6
:106FE0008BEE8BEE8BEE8BEE8BEE8BEE8BEE6BEEF9
:106FF0006BEE6BEE6AEE6AEE69EE87EE47EE85DDCC
:10700000A3BCC2A3228BE47AE5720663E85AA952B4
:10701000674A053AC539A539A441656AC47A849B93
:1070200005B426BC46BCA6C427CD68DD88DDC9E50D
:10703000E9E50AE62AEE4AEE4AE68EEEFFFFFFF7A2
:10704000FEFFFFFFDFFFFFFFFFFFFFFFFFFFFFFF71
:10705000FFFFFFFFFFFFFFFFFFFFFFFFDFFFDFFF80
:10706000FFFFFFFFFFFFFFFFFFFFFFFFFFFFFFFF30
:10707000FFFFFFFFFFFFFFFFFFFFFFFFFFFFFFFF20
:10708000FFFFFFFFFFFFFFFFFFFFFFFFFFFFFFFF10
:10709000FFFFFFFFFFFFFFFFFFFFFFFFFFFFFFFF00
:1070A000FFFFFFFFFFFFFFFFFFFFFFFFFFFFFFFFF0
:1070B000FFFFFFFFFFFFFFFFFFFFFFFFFFFFFEFFE1
:1070C000FFFF9CFF90E66CF66BF6AAE6ACE6ABEE33
:1070D0008AEE6BF66DF68CEEABE68BEE8BEE8BEEFE
:1070E0008BEE8BEE8BEE8BEE8BEE8BEE6BEE6BEE18
:1070F0006BEE6BEE6BEE6AEE6AEE69E689EE88F691
:1071000048F6A7E5A5C4839BC2824062E159C251FB
:10711000E25922624372A482259364A3A3ABE3B332
:1071200024BC25C466C4E8CC49D589DDA9E5C9E5F8
:10713000E9E50AE64AEE4AEE4AE6B0EEFFFFFFFF57
:10714000FEFFFFFFFFFFFFFFFFFFFFFFFFFFFFFF50
:10715000FFFFFFFFFFFFFFFFFFFFFFFFFFFFFFFF3F
:10716000FFFFFFFFFFFFDFFFFFFFFFFFFFFFFFFF4F
:10717000FFFFFFFFFFFFFFFFFFFFFFFFFFFFFFFF1F
:10718000FFFFFFFFFFFFFFFFFFFFFFFFFFFFFFFF0F
:10719000FFFFFFFFFFFFFFFFFFFFFFFFFFFFFFFFFF
:1071A000FFFFFFFFFFFFFFFFFFFFFFFFFFFFFFFFEF
:1071B000FFFFFFFFFFFFFFFFFFFFFFFFDFFFFEF708
:1071C000FFFF79FF4EF64DF66CEE6BEE8CEEACEEFB
:1071D000AAEE89F66BF68CEEAAE68BEE8BEE8BEEC2
:1071E0008BEE8BEE8BEE8BEE8BEE8BEE6BEE6BEE17
:1071F0006BEE6BEE6BEE6BEE6BEE6DF66BEE49EEDF
:1072000068EE88EE47EE86E505DD24C483B3039B74
:10721000039B439B63A383A3A3ABE5ABE5AB05B49F
:1072200045B487C4C8CC08D527D589DDA9E5C9E50B
:10723000E9E52AEE4AEE4AEE4AE6F3EEFFFFFFFFEB
:10724000FFFFFFFFFFFFFFFFFFFFFFFFFFFFFFFF4E
:10725000FFFFFFFFFFFFFFFFFFFFFFFFDFFFFFFF5E
:10726000DFFFFFFFFFFFFFFFFFFFFFFFFFFFFFFF4E
:10727000FFFFFFFFFFFFFFFFFFFFFFFFFFFFFFFF1E
:10728000FFFFFFFFFFFFFFFFFFFFFFFFFFFFFFFF0E
:10729000FFFFFFFFFFFFFFFFFFFFFFFFFFFFFFFFFE
:1072A000FFFFFFFFFFFFFFFFFFFFFFFFFFFFFFFFEE
:1072B000FFFFFFFFFFFFFFFFFFFFFEFFFFFFFFF7E7
:1072C000FFFF35EF8BEE6AF6A9EE69F66BF66CEE12
:1072D0008BE6AAEEAAF68BF68BEE8BEE8BEE8BEEA0
:1072E0008BEE8BEE8BEE8BEE8BEE8BEE8BEE6BEEF6
:1072F0006BEE6BEE6BEE6BEE6BEE4AEE4AEE69EE0A
:1073000069E668EE48EE27EEE6ED46E5E5DC44C4C6
:10731000E4B384A383A3A4A3C5A3C5AB26AC67B47D
:1073200087BCA7C4E8CC27D527D589DDA9E5C9E561
:107330000AE62AEE4AEE4AEE4AE636F7FFFFFFFF7C
:10734000FFFFFFFFFFFFFFFFFFFFFFFFFFFFFFFF4D
:10735000FFFFFFFFFFFFFFFFFFFFDEFF7DF7BEF731
:10736000FFFFFFFFFFFFDFFFFFFFFFFFFFFFFFFF4D
:10737000FFFFFFFFFFFFFFFFFFFFFFFFFFFFFFFF1D
:10738000FFFFFFFFFFFFFFFFFFFFFFFFFFFFFFFF0D
:10739000FFFFFFFFFFFFFFFFFFFFFFFFFFFFFFFFFD
:1073A000FFFFFFFFFFFFFFFFFFFFFFFFFFFFFFFFED
:1073B000FFFFFFFFFFFFFFFFFFFFFEF7FFFFFFFFE6
:1073C0003EDF36AE32BE70D6ABDEA9F6AAF68CF63C
:1073D0008CEE8CE6ABEE8BF66CF68BEE8BEE8BEEDA
:1073E0008BEE8BEE8BEE8BEE8BEE8BEE8BEE6BEEF5
:1073F0006BEE6BEE6BEE6BEE6BEE8AE68AEE6AEE90
:107400004AEE49EE69EE68EE88EE07EEE7ED66E5D6
:10741000C6D446C425BC06BCE6BB25C445C466C468
:1074200086C4A6C4E7CC48D568DD88DDA9E5C9E5F2
:107430000AE62AEE4AEE4AEE4AE679F7FFFFFFFF38
:10744000FFFFFFFFFFFFFFFFFFFFFFFFFFFFFFFF4C
:10745000FFFFFFFFFFFFFFFFFFFF1BE75CEFFBDE10
:10746000BAD6FBDEFFFFFFFFDFFFFFFFFFFFFFFFDF
:10747000FFFFFFFFFFFFFFFFFFFFFFFFFFFFFFFF1C
:10748000FFFFFFFFFFFFFFFFFFFFFFFFFFFFFFFF0C
:10749000FFFFFFFFFFFFFFFFFFFFFFFFFFFFFFFFFC
:1074A000FFFFFFFFFFFFFFFFFFFFFFFFFFFFFFFFEC
:1074B000FFFFFFFFFFFFFFFFFFFFFFFFFEFFDEFFFE
:1074C0003BA67975997DD99D12AE4ECE8CE68AF693
:1074D0006CF66CEE8BEE8BEE6CF68BEE8BEE8BEE31
:1074E0008BEE8BEE8BEE8BEE8BEE8BEE8BEE8BEED4
:1074F0006BEE6BEE8BEE6BEE6BEE6BE68BEE6BEE8C
:107500004BEE6AF669EE68EE47E648EE26EE06EECA
:1075100087E547E506E5C5DC66D4A5D485D4A6CCC9
:10752000C6D407D527D527D528D588DDA9E5E9E52F
:107530000AE62AE64BEE4BEE4BE69BFFFFFFFFFF12
:10754000FFFFFFFFFFFFFFFFFFFFFFFFFFFFFFFF4B
:10755000FFFFFFFFFFFFFFFFFFFF7DF779D634AD91
:1075600099D67DEFFFFFFFFFFFFFFFFFFFFFFFFF4C
:10757000FFFFFFFFFFFFFFFFFFFFFFFFFFFFFFFF1B
:10758000FFFFFFFFFFFFFFFFFFFFFFFFFFFFFFFF0B
:10759000FFFFFFFFFFFFFFFFFFFFFFFFFFFFFFFFFB
:1075A000FFFFFFFFFFFFFFFFFFFFFFFFFFFFFFFFEB
:1075B000FFFFFFFFFFFFFFFFFFFFFFFFBFFFDFEF4B
:1075C0001986D75D975D5B6D586D94A50DC668F6FD
:1075D00069FE6BF6AAEEAAEE6CF68BEE8BEE8BEEE6
:1075E0008BEE8BEE8BEE8BEE8BEE8BEE8BEE8BEED3
:1075F0008BEE8BEE6BEE6BEE6BEE6BEE8BEE8BEE43
:107600008BE66AE66BEE4BF62BF66AEE68EE66EEFC
:1076100028EE08EEE7E5C6DD88DD28D508D508D5D3
:1076200007D507D527DD48DD49E588DDA9E5E9E58A
:107630000AE60AE64BEE6BEE6BEEBCFFFFFFFFFFC8
:10764000FFFFFFFFFFFFFFFFFFFFFFFFFFFFFFFF4A
:10765000FFFFFFFFFFFFFFFFFFFFFFFFBEFF99D60A
:107660009EF7DEF7FFFFFFFFFFFFFFFFFFFFFFFFBC
:10767000FFFFFFFFFFFFFFFFFFFFFFFFFFFFFFFF1A
:10768000FFFFFFFFFFFFFFFFFFFFFFFFFFFFFFFF0A
:10769000FFFFFFFFFFFFFFFFFFFFFFFFFFFFFFFFFA
:1076A000FFFFFFFFFFFFFFFFFFFFDFFFFFFFFFFF0A
:1076B000FEFFFEFFFFFFFFFFFFFFFFFFDFFF9EEF6D
:1076C000988DD985D7757965F65C3665B485A9D569
:1076D000CAEE6CEE6CEEA9E64BEE6CF68CF68CEE18
:1076E0008BEE8AEE8AF68BEE6BE68CF66BEE8BEE0B
:1076F0008BEE4BE68DF68CF649E66BF64AEE8BEE9A
:107700006AEE6AEE6AF649EE6AEE49EE69EE48EE16
:1077100068EE28EE29EE08EEE8E5A8E587DDC7E586
:1077200008D529D566DD48DD49DDA7E589DDCAE54F
:107730000AE64AEE4BEE2BE66CEEBBFFFEFFFFF7D0
:10774000DFFFDFFFFFFFDEF7FFFFFFFF5CEF5DEF17
:107750007DEF99CE79C6FFFFFFFFFFFFDFFFBFFF81
:107760007DF79DFFFEFFFFFFFFFFFFFFFFFFBFFF56
:10777000FFFFFFFFFFFFFFFFDFFFFFFFFFFFFFFF39
:10778000FFFFFFFFFFFFFFFFFFFFFFFFFFFFFFFF09
:10779000FFFFFFFFFFFFFFFFFFFFFFFFFFFFFFFFF9
:1077A000FFFFFFFFFFFFFFFFFFFFFFFFFFFFFFFFE9
:1077B000FFFFFFFFFFFFFFFFFDF7FFF7FFF7DBC650
:1077C00070A56FD613BE797DF6541965596D31A534
:1077D000C6E58AEE6BF6CCEE8CEE4AE6ABEEACEE8E
:1077E0008CEE6CEEACF64AE6ACF66BEEACF66BEEFD
:1077F0006AEE6CEE4BEE8AEEACF66AEE8BEECBF6F2
:107800008AEE8AEEABF68AF68AEE89F669F668F6B3
:1078100068F606E647EE27EEC6DD87F5A7ED68E5D4
:107820008AE588E566DD68DD89DD6ADDA9E5E9F5DB
:1078300009EE49E66AEE6AE68DE6BFFFFFFFFFF755
:10784000FFFFFFFFDFF7FFFFFFFFDEFF5CF799DEC3
:10785000B5BD57CE3BEFDEFFFFFFFFFFFFFFBDFFD4
:107860007CF7FFFFDFEFFFF7FEFFDEFFFFFFFFFF0D
:10787000DFFFFFFFFFFFFFFFFFFFFFFFFFFFFFFF38
:10788000FFFFFFFFFFFFFFFFFFFFFFFFFFFFFFFF08
:10789000FFFFFFFFFFFFFFFFFFFFFFFFFFFFFFFFF8
:1078A000FFFFFFFFFFFFFFFFFFFFFFFFFFFFFFFFE8
:1078B000DFFFDFFFFFFFFFFFFFFFFFFFFFF794CEBC
:1078C000E9CDA9FE2BEEF1B5586534559865B98D13
:1078D000E9BC48EE6AEE8BE689EECCF66AE64ADE53
:1078E000CDF68CEE6CEE8CF66AEEABEE6BEE6BEEDC
:1078F00069EEAAF6A9F6A8E60AD609E6E9DDA8D552
:10790000C8DDC8DDA8DD87D546D567D547CD07CD0D
:10791000E7C408C5A8BCA9BC0BC5699C877B655A90
:10792000047BC8DDE8EDC8EDC8E509EEE8E5E9E56A
:10793000E9ED49EE8ADE4BDE6DF6BFFFFFFFFFFF8C
:10794000FFFFFFFFFFFFFFFFFFFFFFFFFFFF7DEFD9
:107950005CEF5CEFDEF7DFFFFFFFFFFFFDFFFEFFE9
:107960009DF7DAE618CE56BD52B595BD5DF7FFFF1F
:10797000DFFFFFFFFFFFFFFFFFFFFFFFFFFFFFFF37
:10798000FFFFFFFFFFFFFFFFFFFFFFFFFFFFFFFF07
:10799000FFFFFFFFFFFFFFFFFFFFFFFFFFFFFFFFF7
:1079A000FFFFFFFFFFFFFFFFFFFFFEFFFFFFFFFFE8
:1079B000FFFFFFFFFFFFFFFFFFFF5AFF14FF6CEE0B
:1079C000A9EEAAEE08FE49EED29D375D1755786DF7
:1079D000B17CA5CC48F68BE62DFE4BEE8CF68BF6F3
:1079E0006AEE8AEE8AEEABF66AEE8AEE6AE68BEE15
:1079F0008DF66BEECAD5477B0A6BAC63EE730E74E3
:107A00006F84F19473A5D5B594AD38BE95ADF7B537
:107A100079C6DBCE1CD73DD77ABE3485726C4C2A32
:107A2000E33929DEE8ED09F628EE08E627E648E620
:107A30002AE60CEE0BEE2AEEABFEDEFFBEFFDFFF0A
:107A4000FFFFBDFFFEFFDEFFDFFFFFF7FFFFFFFFD2
:107A5000FFFFBAD658CE79D638D6B5C512AD709CD0
:107A60008D83CB7A6A728659E559EE8B58D6FFFF23
:107A7000FFFFFFFFFFFFFFFFFFFFFFFFFFFFFFFF16
:107A8000FFFFFFFFFFFFFFFFFFFFFFFFFFFFFFFF06
:107A9000FFFFFFFFFFFFFFFFFFFFFFFFFFFFFFFFF6
:107AA000FFFFFFFFFFFFFFFFFFFFFFFFFFFFFFFFE6
:107AB000FDF7FFFFDFFF9CFF12F78CEE2AEE0DF6BD
:107AC000ACEE86DEC4ED85F5ACCD5675D654566564
:107AD000BA75E99B64DDA9EE4DFECBFE29EE8BFE67
:107AE0006BF64AE6ABEE6AEE8BF66BEEABF68AEE21
:107AF0002DEE8BEECACD66398E4A4D5B4942294246
:107B00001184B7ADD7B518BE5ACE15AD094A2D733D
:107B1000F7C518C6D7BD96B56D6B0842AB4A482964
:107B2000256BCAF629F629F628E609DE09EE2AEEC3
:107B30004AE66AEE49FE0BE62EC69BE7FFFFDFFF33
:107B4000FFFF7EEF5DE7FFFFFFFFFFFF99E6CD93AD
:107B50004B83886A065AE559E561076AC869E56991
:107B6000266AF29BAB6A4562666A4B7B94BDFFFF57
:107B7000FFFFFFFFFFFFFFFFFFFFFFFFFFFFFFFF15
:107B8000FFFFFFFFFFFFFFFFFFFFFFFFFFFFFFFF05
:107B9000FFFFFFFFFFFFFFFFFFFFFFFFFFFFFFFFF5
:107BA000FFFFFFFFFFFFFFFFFFFFDFFFFFFFFFFF05
:107BB000FFFFFFFF78F7CFEE6AEE69EE89EE8AEEFF
:107BC000E7E506D525CC01CC44E5529DD95CF654B9
:107BD0003765148501AC67DEA9EEEBEEECFE0AEE2C
:107BE0008CFE6CEE8CEE6BEE6BEE2CEE8BEEAAEE5A
:107BF0006CEEE9F688E66131200000000000000824
:107C00000008400860088110401820180018001073
:107C10002018612041182018201820180118001081
:107C2000C7B4AAF629F66AF649E648F60AE62AEE45
:107C300047F648EEADBDF184F374B685FFEF7DEFF6
:107C40008F6B4C322C32EE4A569DDFFF17D6A55172
:107C50002FACA972065A6772877A887A466A897247
:107C6000496AEA7284498449C7724B8313ADDEFFC7
:107C7000FFFFFFFFFFFFFFFFFFFFFFFFFFFFFFFF14
:107C8000FFFFFFFFFFFFFFFFFFFFFFFFFFFFFFFF04
:107C9000FFFFFFFFFFFFFFFFFFFFFFFFFFFFFFFFF4
:107CA000FFFFFFFFFFFFFFFFFFFFFFFFFFFFFFFFE4
:107CB000DFFF57F7ACE648E66BEE8AF64AEEC6DD24
:107CC00063C483C321B340ABA5D4ABC5367D155582
:107CD000F464998DC962EC626A4A466B2ED6ACF6A2
:107CE00029EEACF66DEE6CEE8BF68CF66AEE8BE65A
:107CF0004BEE6BF6ACF627940008010042106320AF
:107D0000221821084108211022184318432063201B
:107D100062204118612061206120411801104262F7
:107D2000ABEEABF628EE48EE69EE29F669EE88EE8A
:107D3000E8DD0DA55454353CD45C776D9ED7CA520E
:107D4000C3102A32AA2128116300AF63FBDEA96A9F
:107D5000686A4439C649075A266A2562255A6E7BE5
:107D60004E7B245A446A07620A7B6B8B32B5FFFF55
:107D7000FFFFDFFFFFFFFFFFFFFFFFFFFFFFFFFF33
:107D8000FFFFFFFFFFFFFFFFFFFFFFFFFFFFFFFF03
:107D9000FFFFFFFFFFFFFFFFFFFFFFFFFFFFFFFFF3
:107DA000FFFFFFFFFFFFFFFFFFFFFEF7FFFFFFFFEC
:107DB00035FFADEE6BEE6BEE6BEE29E6C5DCE3C393
:107DC00021A300AB20A386AB63C4C8DD3285D554A4
:107DD000B65C0D4B2C2A8C1969094708A339EDF6BE
:107DE00009FFAAF6ADF66CEE49EE6BEE8AE6ACEE54
:107DF0008AEE4CFE4BF60AFFE67220002008822035
:107E0000611040086000400061106018812040202F
:107E1000612061206220212062202018A438CBDD5F
:107E2000A8F609E668EE68EE48EE69DE68F6CAE58F
:107E3000AF8C344C9544B44CB5543565D8A5252940
:107E40004329E629E7294721E7106200484A2762CB
:107E500063498449E551476A6672457229724872DE
:107E6000A4516441876A28838A7A2562709CDEF770
:107E7000FFFFFFFFFFFFDFFFFFFFFFFFFFFFFFFF32
:107E8000FFFFFFFFFFFFFFFFFFFFFFFFFFFFFFFF02
:107E9000FFFFFFFFFFFFFFFFFFFFFFFFFFFFFFFFF2
:107EA000FFFFFFFFFFFFFFFFFFFFFEFFBFF7FBFF2F
:107EB000ADE68BE6CDEECCF629F6E8E5E0BBE2B226
:107EC000C5BB27D567C426BC67BCA5ED31BEB4646D
:107ED0006D2AE931EA314819A51065008308AC7BA9
:107EE0004A9CA8AC6BEEABFEABFEEBEE8AF66AF6F4
:107EF0008AEE8AE66AEE6BF6ACF6898B802000008B
:107F000041002000400840104010801860184118BF
:107F100062206220211821180010A259ADDD8BF6D5
:107F200087EE67EE89EE28E668E668E608EE0D95CE
:107F30009444544494543344B46CF37416A6273ACE
:107F400023084629642144210821E410000023313C
:107F50002652A86A67626672467A467AE469667251
:107F6000E4598349475A0B730B730B6B2F8C3CEF0F
:107F7000FEFFFFFFFFFFBEF7FFFFFFFFFFFFFFFF5B
:107F8000FFFFFFFFFFFFFFFFFFFFFFFFFFFFFFFF01
:107F9000FFFFFFFFFFFFFFFFFFFFFFFFFFFFFFFFF1
:107FA000FFFFFFFFFFFFFFFFFFFFBFFFFFFF34EFFC
:107FB000CDEE8BF68AE6CAE6ABEE6BDE68CDADDDC4
:107FC00010FF09D6E8C4A8CC88CC89DDCA7B4C2A2E
:107FD0000D2AEB3905194100400086192B2ACB21C7
:107FE000E800E608874A0CB508BD4DC58CD56CFE87
:107FF0006BEE4BE64CEE6BF6AAF649FF47BDC56249
:10800000A218000020000000000000080210031861
:1080100002100120802861414BA44AE60CF769EE6A
:1080200008E62AEEE9ED4AF648F6C6FDABAC525C2E
:10803000144C135C5043B37CF2B5D3A4D3A4B09CCE
:10804000A0186208041984294629E4182108C228C6
:1080500068624B7BA5490662667A476A476AA872DE
:108060004A7BAC83909CF2A475B5DAE61CEFFFFF67
:10807000FFFFFFFFFFFFDFFFFFFFFFFFFFFFFFFF30
:10808000FFFFFFFFFFFFFFFFFFFFFFFFFFFFFFFF00
:10809000FFFFFFFFFFFFFFFFFFFFFFFFFFFFFFFFF0
:1080A000FFFFFFFFFFFFFFFFFFFFFFFFFFFF35EFBA
:1080B0006AEE8AFE6BEECCEEEDEEAEF6EBF68EDE01
:1080C000E85AE9318839856A059C2752A831EC299C
:1080D0006D3267192100A408C9294D324C3269114B
:1080E00028092711E410E749AA6ACB7A467A08AC36
:1080F000A9D5ABEE8AF62AEE4BEE2AF6EBFEEBFEA6
:1081000029DEA8AC057B0452E449C249235A235A0C
:10811000057B069C68CDAAF6E9FEA9F668EE27E67F
:10812000A8F6A9FE67EE27EEE6E549CDCC73F16B24
:1081300095ADF6CDC849CC5A2B53C829C718EB6268
:10814000A7522000620803190519E608820823399E
:10815000476A0562E2386541AA624C7B509C74B55F
:10816000B9DE3BEF5CEF5CEFFFFFFFFFFFFFFFFFC0
:10817000FFFFDFFFFFFFFFFFFFFFFFFFFFFFFFFF2F
:10818000FFFFFFFFFFFFFFFFFFFFFFFFFFFFFFFFFF
:10819000FFFFFFFFFFFFFFFFFFFFFFFFFFFFFFFFEF
:1081A000FFFFFFFFFFFFFFFFFFFFFFFFFFF7FDFFE9
:1081B0006EE648EEAAF68CEE6CEEAAFE6DEE665AFE
:1081C0000711CC218919E5106829A821A9292B3A82
:1081D0006D3A2C2A2A326A3A2A320842662926192E
:1081E000E50825110421C230C661E1388351C882F7
:1081F000C89B87B4E9E5AAFEA8EE4AEE4AEE49EE2E
:108200008AF6ABFECBFEEBFEA9F6ABF6ABF6CBFEE9
:10821000EAFECAFEAAFE49F609F647F627EE48EE40
:1082200028E6E7D50AD68CC5CFCDB3C50C6B75BD96
:10823000D8E6F8EEEA6A61184421282A4919430071
:10824000610882104100A208281947118308A6413D
:1082500090AC8C93B1AC55ADF8BD9EF7FFFFFFFF1E
:10826000DFFFFFFF7DEF7DEFDFFFDFFFFFFFDFFFC2
:10827000FFFFFFFFFFFFFFFFFFFFFFFFFFFFFFFF0E
:10828000FFFFFFFFFFFFFFFFFFFFFFFFFFFFFFFFFE
:10829000FFFFFFFFFFFFFFFFFFFFFFFFFFFFFFFFEE
:1082A000FFFFFFFFFFFFFFFFFFFFFFFFFFFFFFF7E6
:1082B000FEFFB3EE4CE6AAEE8AF60CF72A946108AC
:1082C000E62907320A3208116721E821E639074A10
:1082D0002942293A0842C739872106212521041954
:1082E00003110311E218C220E33022394349E4614B
:1082F000AA9B689BA6A307CD28DE89E689E668E6E7
:1083000088EE48F649F669F648F649F689F668F6C1
:1083100066EE86EE66EE47E627E6E9DDCBD50FDEB4
:108320002EC5ADAC15D617D65AD6D9E68D8334BD39
:1083300057DE15CE908C2519E42083312421E518D1
:108340004400420061000421A518E41825194519CC
:108350009AC67DEFFFFF5CEF7CF77EEF9FF7FFFF94
:10836000FFFFFFFF9EF77DF77DF7FFFFFFFFFFFF9A
:10837000FFFFFFFFFFFFFFFFFFFFFFFFFFFFFFFF0D
:10838000FFFFFFFFFFFFFFFFFFFFFFFFFFFFFFFFFD
:10839000FFFFFFFFFFFFFFFFFFFFFFFFFFFFFFFFED
:1083A000FFFFFFFFFFFFFFFFFFFFDEFFFEFFFFFFFF
:1083B000FFFFFFFFDAFFB1E6EDFE2CEF25420619C5
:1083C00046216529E739A7296521C821C531C43966
:1083D0000632E6294529052128194611E5108410A1
:1083E000A420A320E320E218E118E3280339024186
:1083F0002883899B68A3C8AB668BCF6B2F6C8F7467
:10840000F0745285728D6F8DCE8DAFA58EA52D9D8A
:108410004EAD4EAD2DB5EFCDAECD4FB514CE58DE31
:1084200096C56D8378DE78DEF7CD97DEEC9350A4A9
:10843000D8C513AD32B5A95AE4180619462105115D
:10844000E5082000C210E3182521251946198B42A2
:10845000DFEFFFFFFFFF5CEF1AE75DEF7EEF7DEFE1
:10846000FFFFDFFF9DF75DF77DF7FFFFDFFFFFFFFA
:10847000DFFFFFFFFFFFFFFFFFFFFFFFFFFFFFFF2C
:10848000FFFFFFFFFFFFFFFFFFFFFFFFFFFFFFFFFC
:10849000FFFFFFFFFFFFFFFFFFFFFFFFFFFFFFFFEC
:1084A000FFFFFFFFFFFFFFFFFFFFDFFFFEFFFEFFFE
:1084B000FEFFFDF7FFFFBEFFCAA348A44529051133
:1084C00067294631432186214719A621A6298629F5
:1084D000872147190619E510E408621001004100E0
:1084E000410082084529C2288128E020E230E43892
:1084F00088728AA389ABAAABC77AA821EB21B12ADB
:10850000F222512BD33BD443B543335C7464D57C06
:10851000ED4AEC5A17C6F6CDF5CD12A557D637CE93
:10852000D5C5EA6A73BD37D6F6CDB6C5D3AC4B73A5
:10853000909C6A73E48287C4A6AC2509E6084711BB
:1085400024110419A310E410461126098819ED4AD4
:10855000DBD6FFFFBDFF3BEFBEF71CE75DEF1CE77F
:10856000DFFFFFFFFFFF9DFF5CF77DEF7DEFDFFF8C
:10857000FFFFFFFFFFFFFFFFDFFFFFFFFFFFFFFF2B
:10858000FFFFFFFFFFFFFFFFFFFFFFFFFFFFFFFFFB
:10859000FFFFFFFFFFFFFFFFFFFFFFFFFFFFFFFFEB
:1085A000FFFFFFFFFFFFFFFFFFFFFFF7FEFFDFFF04
:1085B000BFFFFFFFBCF7ED93E371E359E620851998
:1085C0002419262946214619842126292521662198
:1085D0006621241925212521C4108100610082080B
:1085E000C410E4102521C318C3204331E12862419F
:1085F000C672CAA3089B699B698B2952A6108C1965
:10860000B132B02A0F3BF163F48C35A534AD58CEAE
:10861000EE83432953B599DEF7CD71A454BDD5CD72
:10862000D5CD0F8C8C7BD1A432A5317C3264E9830B
:1086300001BC409B407AE2B3E8FE89BD23310621AC
:1086400024192619E61025192619E9292B32271194
:108650001595FFFF3CF758D699DEBAD6BEF7FFFF57
:10866000BEF7FFFF9DF75CEF1BE799D6FBDE7DEFC2
:10867000FFFFDFFFFFFFFFFFFFFFFFFFFFFFFFFF2A
:10868000FFFFFFFFFFFFFFFFFFFFFFFFFFFFFFFFFA
:10869000FFFFFFFFFFFFFFFFFFFFFFFFFFFFFFFFEA
:1086A000FFFFFFFFFFFFFFFFFFFFFFFFFEFFFFFFDB
:1086B000FFFF5EFF8E93E26926A3E692C541251176
:1086C0004619262148216819461946214619471995
:1086D00047212619262126190519E4080411051138
:1086E0000419C318A218C220E328233102394351C8
:1086F0006A8BAA93E88AE88AC782E751A421854A4F
:108700008E7BAE5A14AD36CE36D6F5CDF1ACB4C5AF
:10871000B4BD8439CA5A57CE16C632B58F9CD4C55B
:1087200073B574ADAA4AA7216C3AA9194D4B85B40B
:1087300062DC038B0283E3B386EDEAFE08B506290B
:108740004721662189218721EB29A929E5106200AB
:10875000349DFFFFBEF75DEFDFFFFFFFFFFFFFFF71
:10876000FFFFFFFF7DEFFBDE79CE55ADBAD6FFFFF1
:10877000FFFFFFFFFFFFFFFFFFFFFFFFFFFFFFFF09
:10878000FFFFFFFFFFFFFFFFFFFFFFFFFFFFFFFFF9
:10879000FFFFFFFFFFFFFFFFFFFFFFFFFFFFFFFFE9
:1087A000FFFFFFFFFFFFFFFFFFFFFFFFFEFFFFFFDA
:1087B000FEFFB1B4E669E27147A347A30983A53977
:1087C000242985392529C3184421452145194619ED
:1087D0004619251945214519241125210519E418A3
:1087E000C3108210610861086108C2200339A459CE
:1087F000666AA672667A04722572454185296E946E
:1088000037D6D08374BD36CE94C5F7C534B574B5AC
:1088100033B5CA6A233953BD93C574A5F073F16BA0
:1088200071530F4B4C3227110511CA21EB83E5CC54
:1088300043C4439B46B427D5C8E5E4FDA6EEC3294F
:10884000E600072A8929C8294309C4086200662965
:108850003DE7BEF7FFFFFFFFDFFFFFFFFFFFFFFF6B
:10886000FFFFFFFFFFFFFFFFDFFF3CE7DFFFFFFF33
:10887000FFFFFFFFFFFFFFFFFFFFFFFFFFFFFFFF08
:10888000FFFFFFFFFFFFFFFFFFFFFFFFFFFFFFFFF8
:10889000FFFFFFFFFFFFFFFFFFFFFFFFFFFFFFFFE8
:1088A000FFFFFFFFFFFFFFFFFFFFFFFFFFFFBEFF19
:1088B00052CD289B089B47AB69AB89B348A366821E
:1088C0000562097B245AA3414331232924214421F1
:1088D00024212421242944210319A3108210620891
:1088E00041084100210020004000610803398459FB
:1088F000A359256A2572257AC782E6598A4AF2ACBD
:1089000036DE13ADB0AC94BDD4CDB5CDB5CDD5CD9F
:10891000F2A4F39C8B4A8B42D38CF15BB24B523B5B
:108920004F12F22AD453CA2187214B3246BCC4DCF1
:10893000A6C445BC28DD0AE64BEEEAED47E6E4595D
:10894000030023112509C510A5184100041959C6B3
:10895000FFFFFFFFFFFFFFFFFFFFFFFFFFFFFFFF27
:10896000FFFFFFFFFFFFFFFFFFFFFFFFFFFFFFFF17
:10897000FFFFFFFFFFFFFFFFFFFFFFFFFFFFFFFF07
:10898000FFFFFFFFFFFFFFFFFFFFFFFFFFFFFFFFF7
:10899000FFFFFFFFFFFFFFFFFFFFFFFFFFFFFFFFE7
:1089A000FFFFFFFFFFFFFFFFFFFFFFFFFFFF98EE4F
:1089B0006AA3A9B388B3079BA8824893E6A2E7AA53
:1089C00065820783C57A446A6341E230E228E3287E
:1089D000E328E228C228C3208218210021002100B8
:1089E0004100610862086208620840002439C561DC
:1089F000466AC77A056A267A467AA351284289626E
:108A000012BD37D612B5509432AD73BDD1A4D294F5
:108A1000D38CD15B713B512BB333112B312B1123F1
:108A2000364410236D1A746C8D3ACB4283D4C4DC67
:108A300049CD48DDAAED4AE6AEEEDFFF8CE6C3C4C1
:108A4000026AE4204409421105212B633CE7FFFF41
:108A5000DFFFFFFFFFFFFFFFFFFFDFFFFFFFFFFF66
:108A6000FFFFFFFFFFFFFFFFFFFFDFFFFFFFFFFF36
:108A7000FFFFFFFFFFFFFFFFFFFFFFFFFFFFFFFF06
:108A8000FFFFFFFFFFFFFFFFFFFFFFFFFFFFFFFFF6
:108A9000FFFFFFFFFFFFFFFFFFFFFFFFFFFFFFFFE6
:108AA000FFFFFFFFFFFFFFFFFFFFFFFFDEFF6FB4D2
:108AB00029AB88B367AB4A9BC972655AA58A27ABB5
:108AC00086924472068B657AA4594339E230E328D2
:108AD000C228C2288118811841086100610061081C
:108AE0006108410862084208420861002339056AAA
:108AF000667AE882257246820472035AA631485A81
:108B000087620D840E84117CED5AEE420F4BAD321C
:108B1000AE322D1AB0227333322B5333322BD4435F
:108B20009233102BF02A1033AB092B5306D547DDB7
:108B3000A9DDE9E52CEE4AEEAFEEFEEFFDFFB3F660
:108B400047DDA5D487CC09CD10EEFEFFFFFFFFFF68
:108B5000FFFFFFFFFFFFDFFFFFFFFFFFFFFFFFFF45
:108B6000FFFFFFFFFFFFFFFFFFFFFFFFFFFFFFFF15
:108B7000FFFFFFFFFFFFFFFFFFFFFFFFFFFFFFFF05
:108B8000FFFFFFFFFFFFFFFFFFFFFFFFFFFFFFFFF5
:108B9000FFFFFFFFFFFFFFFFFFFFFFFFFFFFFFFFE5
:108BA000FFFFFFFFFFFFFFFFFFFFFFFFBDFFECAB7E
:108BB00029B368AB88A3C98A464A286B446A49AB83
:108BC000089BA682C682E8824672C5496339433152
:108BD000E2280229A118A210410061006100610889
:108BE0004100410841086208620862080339667A58
:108BF0002472A67AE892E892E792A87281108339EB
:108C0000A3392319C731AA214C198D09AD114F2A57
:108C10002E22CD19F23AD132D132D12AB122D2321A
:108C2000B132D132F132D12A5233CC6369DDA9DDC0
:108C3000E9E509EE4BE629EED1F6FFFFFFFFDEF78F
:108C40009BFFB6F6D5F699F7FEF7DEFFFFFFFFFFB5
:108C5000FFFFFFFFFFFFDFFFFFFFFFFFFFFFFFFF44
:108C6000FFFFFFFFFFFFFFFFDFFFFFFFFFFFFFFF34
:108C7000FFFFFFFFFFFFFFFFFFFFFFFFFFFFFFFF04
:108C8000FFFFFFFFFFFFFFFFFFFFFFFFFFFFFFFFF4
:108C9000FFFFFFFFFFFFFFFFFFFFFFFFFFFFFFFFE4
:108CA000FFFFFFFFFFFFFFFFFFFFFFFF7CEF2CB485
:108CB00009AB8AAB89A3C88A0A844B946562A78AE8
:108CC000C79A868AC461A7726672E459A349A4410F
:108CD00022396339223102214000410062086208D2
:108CE000620861088208821082104100A551299B08
:108CF000E692689BAAAB49A348A3098B60080129A7
:108D0000A21806118819CB19AE19AD11CD19ED2194
:108D10002E2AAC19502A2F220F220E1A702A502206
:108D2000912AD23212331233D12A6E7C89E5E9DDE1
:108D30002AE629EE4AE6EAE513F7DFFFDEFFFFFF4A
:108D4000FFFFFFFFFFFFDEF7FFFFFFFFDFFFFFFF7C
:108D5000FFFFFFFFDFFFFFFFDFFFFFFFFFFFFFFF63
:108D6000FFFFFFFFFFFFFFFFFFFFDFFFFFFFFFFF33
:108D7000FFFFFFFFFFFFFFFFFFFFFFFFFFFFFFFF03
:108D8000FFFFFFFFFFFFFFFFFFFFFFFFFFFFFFFFF3
:108D9000FFFFFFFFFFFFFFFFFFFFFFFFFFFFFFFFE3
:108DA000FFFFFFFFFFFFFFFFFFFFDFFF9DF7CAA3EE
:108DB00009AB49A3279B878286730673C772C36179
:108DC00086924682C559C451446A046AE469056AB8
:108DD000A459E561C55184418118420862086208BE
:108DE000620861086100400020004000476A69ABEA
:108DF00067A3EAABAAAB89ABA9B3667A4229032978
:108E0000C7202C114911CA11EC190E222D224D2A0E
:108E1000EC21EC21AC19ED190D1A0E22ED196F227F
:108E20006F22F02AD02A6F22323BCF8489F509E6DF
:108E30002BE628EE89EEEBE514F7FFFFFFFFFFFFBF
:108E4000DFFFFFFFFFFFFFFFBFFFFFFFFFFFFFFF92
:108E5000FFFFFFFFFFFFFFFFFFFFFFFFFFFFFFFF22
:108E6000FFFFFFFFFFFFFFFFFFFFFFFFFFFFFFFF12
:108E7000FFFFFFFFFFFFFFFFFFFFFFFFFFFFFFFF02
:108E8000FFFFFFFFFFFFFFFFFFFFFFFFFFFFFFFFF2
:108E9000FFFFFFFFFFFFFFFFFFFFFFFFFFFFFFFFE2
:108EA000FFFFFFFFFFFFFFFFFFFFDFFF5DEFCBAB2C
:108EB00007A3A78AE79A666A655A4552E55184492D
:108EC000066A4672246AA3590662A77A4572A77A8F
:108ED0006672457204620462A359A2102000000069
:108EE0004100620041000000A641C962446AAABB79
:108EF0006AAB699B09B409ACCDAB27622341E3306F
:108F00000711AB19AB19AC21CD212E222E220D2237
:108F1000EC218B19ED210E22EE190E22ED190D22F6
:108F20004F224F22902AF1321133CE84E9DD28E618
:108F300049FEC8F569EE28EEF5F6FFFFFFFFFFFFDB
:108F4000FFFFDFFFFFFFFFFFFFFFFFFFFFFFFFFF51
:108F5000FFFFFFFFFFFFFFFFFFFFFFFFFFFFFFFF21
:108F6000FFFFFFFFFFFFFFFFFFFFFFFFFFFFFFFF11
:108F7000FFFFFFFFFFFFFFFFFFFFFFFFFFFFFFFF01
:108F8000FFFFFFFFFFFFFFFFFFFFFFFFFFFFFFFFF1
:108F9000FFFFFFFFFFFFFFFFFFFFFFFFFFFFFFFFE1
:108FA000FFFFFFFFFFFFFFFFFFFFFFFF1CE7699BC6
:108FB00048AB49A369ABA772455A655286626349BB
:108FC00083594572C78A056AC561088BE78A857A25
:108FD000857AC78AC682867A867AA77AA351A1281B
:108FE00041106110A020666A6AA3088BA67A69AB5B
:108FF000C8AB4AB4C9AB6BB489B3065A2341042940
:1090000008118B11AC19CD21EE212E222E222D22FA
:10901000CC19AC190E224F222E1AEE192E224F22F5
:10902000902A902A4F226F22D02A6C8C29F629E6AA
:10903000C9DD0BEECCE609DE37F7FFFFDFFFFFFFF0
:10904000FFFFFFFFFFFFFFFFFFFFFFFFFFFFFFFF30
:10905000FFFFFFFFFFFFFFFFFFFFFFFFFFFFFFFF20
:10906000FFFFFFFFFFFFFFFFFFFFFFFFFFFFFFFF10
:10907000FFFFFFFFFFFFFFFFFFFFFFFFFFFFFFFF00
:10908000FFFFFFFFFFFFFFFFFFFFFFFFFFFFFFFFF0
:10909000FFFFFFFFFFFFFFFFFFFFFFFFFFFFFFFFE0
:1090A000FFFFFFFFFFFFFFFFFFFFFFFF7DEFAAA313
:1090B00089B36AAB49ABC77AA7624873C762255ABE
:1090C0000462457AA68A65828361658289A3499B89
:1090D00069A3A9AB68A3A68AE7928682AAA3E88AB5
:1090E000C8826A934993299BC79AC7A2657A299B2C
:1090F0006DAB8DAB6AA36BB42BC4A54903310521BD
:1091000028116B118C11CD192E22EE194E2A6E2AC0
:109110000D224F22902AF132F12A902AD132D12AFF
:10912000F1323233D12AD02A723BEE94E9ED29E6AE
:109130004BEE0BEE49E649EE97FFFFFFFFFFFFFF07
:10914000FFFFFFFFFFFFFFFFFFFFFFFFFFFFFFFF2F
:10915000FFFFFFFFFFFFFFFFFFFFFFFFFFFFFFFF1F
:10916000FFFFFFFFFFFFFFFFFFFFFFFFFFFFFFFF0F
:10917000FFFFFFFFFFFFFFFFFFFFFFFFFFFFFFFFFF
:10918000FFFFFFFFFFFFFFFFFFFFFFFFFFFFFFFFEF
:10919000FFFFFFFFFFFFFFFFFFFFFFFFFFFFFFFFDF
:1091A000FFFFFFFFFFFFFFFFFFFFFFFFFFFF6EB4AB
:1091B00089B369B3C79A867AE96A4873865A866220
:1091C000A259447AA59269ABC78A65828AA30BB477
:1091D000CAAB89A3A9AB079B48A3A78A0893289B7E
:1091E0004582C78A289B6AA3A78AE9A2457A089B79
:1091F00068A3A9ABAAAB8EB48A9B6341032926213D
:1092000049116B11AC19ED214F2A9032B0328F2ADF
:109210008F221233533B933B9333F22A323353332F
:10922000733BB443733B933B144C0F952BEE07E613
:1092300029EE4AF648EE29E632CEBEE7FFFFDFFF11
:10924000FFFFFFFFFFFFFFFFFFFFFFFFFFFFFFFF2E
:10925000FFFFFFFFFFFFFFFFFFFFFFFFFFFFFFFF1E
:10926000FFFFFFFFFFFFFFFFFFFFFFFFFFFFFFFF0E
:10927000FFFFFFFFFFFFFFFFFFFFFFFFFFFFFFFFFE
:10928000FFFFFFFFFFFFFFFFFFFFFFFFFFFFFFFFEE
:10929000FFFFFFFFFFFFFFFFFFFFFFFFFFFFFFFFDE
:1092A000FFFFFFFFFFFFFFFFFFFFFFFFFFFF32C5D5
:1092B00069ABEBC3E89A65828762655AA65A287340
:1092C000E359079B48AB89B328A3A682C78A0CB48D
:1092D0004CBCEAB32BBC68A3E79AC69AC792A78294
:1092E000A782877AC89229A349AB2AA3868AA69225
:1092F000088B2993E8922CA4C549223104214719EF
:109300006A196B19AC19ED192D2AD13AB02A2E1A07
:109310008F225333F543D43BF43BF543D443D43B42
:109320009333522B112B312B51332B7C46ACC7B4CA
:1093300009B5A9AC29B52CA5307C7AB6FFFFDFFFB3
:10934000FFFFFFFFFFFFFFFFFFFFFFFFFFFFFFFF2D
:10935000FFFFFFFFFFFFFFFFFFFFFFFFFFFFFFFF1D
:10936000FFFFFFFFFFFFFFFFFFFFFFFFFFFFFFFF0D
:10937000FFFFFFFFFFFFFFFFFFFFFFFFFFFFFFFFFD
:10938000FFFFFFFFFFFFFFFFFFFFFFFFFFFFFFFFED
:10939000FFFFFFFFFFFFFFFFFFFFFFFFFFFFFFFFDD
:1093A000FFFFFFFFFFFFFFFFFFFFFFFFFFFF16D6DF
:1093B00049A3EBC349A3858AA76AAB834973AA83F0
:1093C000856A6582E7A228A3A9B36AA3A682AAA395
:1093D0004CBC0BAC2CBCAAAB28A3C69A69AB0793B8
:1093E000489BAAAB28A329A3089BE9A2A592A79210
:1093F0002F8B6C6A2A93087B0339243147218A1901
:10940000AB218B21ED21ED210D2A4F226F226F22FE
:10941000112B5333D43BD43B1444F5439333923351
:10942000B333B433B33BB33B923B124CF053515480
:109430001244B55CF56CD13B533BD795FFFFDFFF82
:10944000FFFFFFFFFFFFFFFFFFFFFFFFFFFFFFFF2C
:10945000FFFFFFFFFFFFFFFFFFFFFFFFFFFFFFFF1C
:10946000FFFFFFFFFFFFFFFFFFFFFFFFFFFFFFFF0C
:10947000FFFFFFFFFFFFFFFFFFFFFFFFFFFFFFFFFC
:10948000FFFFFFFFFFFFFFFFFFFFFFFFFFFFFFFFEC
:10949000FFFFFFFFFFFFFFFFFFFFFFFFFFFFFFFFDC
:1094A000FFFFFFFFFFFFFFFFFFFFFFFFFFFFFBEEE1
:1094B000ABAB6AAB49A3E59A49830D94865ACA7B44
:1094C000277BC369A69A07A3A9AB499BE892699B2E
:1094D0006CBC4CB42BB469A3089B089B0793EAB3FC
:1094E00047A34CCCEBBB32DD0DAC079B858AE8A2D1
:1094F000EBA3287BED9306520339062928114B096B
:109500008B196A19CD19AC11AC190E1AB02A533B3C
:10951000943B73339333D33BF33BF43BB333D33BB1
:10952000764C97541544933B923B134CB3435544AC
:10953000F4335554176DF24B8919567DFFF7DFFF51
:10954000FFFFFFF7FFFFFFFFFFFFFFFFFFFFFFFF33
:10955000FFFFFFFFFFFFFFFFFFFFFFFFFFFFFFFF1B
:10956000FFFFFFFFFFFFFFFFFFFFFFFFFFFFFFFF0B
:10957000FFFFFFFFFFFFFFFFFFFFFFFFFFFFFFFFFB
:10958000FFFFFFFFFFFFFFFFFFFFFFFFFFFFFFFFEB
:10959000FFFFFFFFFFFFFFFFFFFFFFFFFFFFFFFFDB
:1095A000FFFFFFFFFFFFFFFFFFFFFFFFDFFFBEFF2C
:1095B0004EB429A349A305A38A938C83E44107638E
:1095C000235A8161E7A228A368A349A38AABC68A6C
:1095D000A9A3EAAB0BB489AB69AB8AB30BB42CACCF
:1095E000498B867AC88A677A877A0893A682C8A246
:1095F000889A477AA5494329053969318B19AD09FC
:10960000ED19CC212E220E1A0E224F22D12A933B85
:10961000B43BD43B15449654754C354435443444DE
:10962000554C3544522B312B144CD14BB33B143C8D
:10963000344C1254945458650E33D464BFEFBFFFBA
:10964000FFFFFFF7FFFFDFFFFFFFFFFFFFFFFFFF52
:10965000FFFFFFFFFFFFFFFFFFFFFFFFFFFFFFFF1A
:10966000FFFFFFFFFFFFFFFFFFFFFFFFFFFFFFFF0A
:10967000FFFFFFFFFFFFFFFFFFFFFFFFFFFFFFFFFA
:10968000FFFFFFFFFFFFFFFFFFFFFFFFFFFFFFFFEA
:10969000FFFFFFFFFFFFFFFFFFFFFFFFFFFFFFFFDA
:1096A000FFFFFFFFFFFFFFFFFFFFFFFFFFFFFFFFCA
:1096B00055BD6561C99A48ABE48AA451E45105627D
:1096C000A77A68A307A328AB49AB89A38AA3AAA357
:1096D000E88ACBAB0CB4CAABEAB3A77A4341C32048
:1096E0000619C608C7084919691927198929892936
:1096F000071907116919CA19CB19CD19ED21ED19EF
:109700004F2A2E224F224F2A4F2A9022D12A12333B
:10971000933BF43BF43B564C3544354C35441444B0
:10972000143C722BF443512B554C54647233364421
:10973000354CD2437554175D1665F5649FE79FFF5E
:10974000FFFFFFFFDFFFDFFFFFF7FFFFFFFFFFFF71
:10975000FFFFFFFFFFFFFFFFFFFFFFFFFFFFFFFF19
:10976000FFFFFFFFFFFFFFFFFFFFFFFFFFFFFFFF09
:10977000FFFFFFFFFFFFFFFFFFFFFFFFFFFFFFFFF9
:10978000FFFFFFFFFFFFFFFFFFFFFFFFFFFFFFFFE9
:10979000FFFFFFFFFFFFFFFFFFFFFFFFFFFFFFFFD9
:1097A000FFFFFFFFFFFFFFFFFFFFFFFFDEF7FFFFF2
:1097B000FBE6AD932A9B28A326A307A388B368AB37
:1097C0000ABC4CC449A348A389B368AB89ABEBB3CB
:1097D000098BEDA3CC932A83A86A02396118831000
:1097E0000619281149118A196919AB19EC21EC21C4
:1097F000CC19CC19CC19CD19EE19CD19ED194E2A69
:109800008F2A4E22902A4F22702AB02AD12A112B59
:10981000933BD43BF43B35441444D33B1444F33BD7
:109820003444754CF43B9233B75CF56CAE22113383
:10983000B543143C5344D55CD564D46CDFEFDFFFF3
:10984000FFFFFFFFDFFFDFFFFFFFFFFFFFFFFFFF68
:10985000FFFFFFFFFFFFFFFFFFFFFFFFFFFFFFFF18
:10986000FFFFFFFFFFFFFFFFFFFFFFFFFFFFFFFF08
:10987000FFFFFFFFFFFFFFFFFFFFFFFFFFFFFFFFF8
:10988000FFFFFFFFFFFFFFFFFFFFFFFFFFFFFFFFE8
:10989000FFFFFFFFFFFFFFFFFFFFFFFFFFFFFFFFD8
:1098A000FFFFFFFFFFFFFFFFFFFFFFFFFFFFFFFFC8
:1098B000FEF7FEFFD5D5299BA7928AB38BAB0DACE3
:1098C000ECABCAB3A8B3E6A248AB89AB0BBCEBB315
:1098D000ABA3498B0983844902390529E52007197F
:1098E00028112A118B11CC19CC214F1A4F222E1A74
:1098F000ED190E1A0E1A0E1A0F1A0E224E22113BD5
:10990000103BB02AD1324F226F22F12A1233523348
:10991000B33BD43BD43BF43BB3339233B333144423
:10992000B654F75C5544754CD75CB454D2534D22B1
:1099300012337233735473543344768DFFFFFFFF39
:10994000FEFFFFFFFFFFDFFFFFFFFFFFFFFFFFFF48
:10995000FFFFFFFFFFFFFFFFFFFFFFFFFFFFFFFF17
:10996000FFFFFFFFFFFFFFFFFFFFFFFFFFFFFFFF07
:10997000FFFFFFFFFFFFFFFFFFFFFFFFFFFFFFFFF7
:10998000FFFFFFFFFFFFFFFFFFFFFFFFFFFFFFFFE7
:10999000FFFFFFFFFFFFFFFFFFFFFFFFFFFFFFFFD7
:1099A000FFFFFFFFFFFFFFFFFFFFFFFFDFFFFFFFE7
:1099B000FFFFFFFFFEFFD9F62FB48692868A299318
:1099C0006EB40CB48AA3299B4AA348ABEBBB8DCCE5
:1099D000EBAB098BA451E2300331271969198A19BD
:1099E000CC19ED190E222E222E224F22B02AB0328F
:1099F0006F2A8F2AB0328F2A4E226F22AF2A513B14
:109A0000103BD02A1133D132F032733B933BD43B1D
:109A10001544354415441444D33BD33BF33B96548F
:109A2000B654B654754CB6543444344CB66454549D
:109A3000513BAE32EE3AF2437544DCCEFFFFDFFF1E
:109A4000FFFFFFFFFFFFDFFFFFFFFFFFFFFFFFFF46
:109A5000FFFFFFFFFFFFFFFFFFFFFFFFFFFFFFFF16
:109A6000FFFFFFFFFFFFFFFFFFFFFFFFFFFFFFFF06
:109A7000FFFFFFFFFFFFFFFFFFFFFFFFFFFFFFFFF6
:109A8000FFFFFFFFFFFFFFFFFFFFFFFFFFFFFFFFE6
:109A9000FFFFFFFFFFFFFFFFFFFFFFFFFFFFFFFFD6
:109AA000FFFFFFFFFFFFFFFFFFFFFFFFDFFF9FFF46
:109AB000FFFFFFFFFFFFFFFFBEFF73CD289B26A325
:109AC0004CBCB0B4ED9B257AE6AA89BB68AB699B18
:109AD000667206520421061969216A19AB19ED193B
:109AE0004E22902A902A6F2AB02A8F32D03AD03252
:109AF0008F2ACF32303B303B1033523B713B503BCF
:109B0000EF328F2AD02A32333133733B7233B33B77
:109B1000F443144415441444F443B333F443344C31
:109B2000F443554C554C344413447243923313441C
:109B3000124CB56CB24B913B9985FFFFFFFFDFFFE5
:109B4000FFFFFFFFFFFFFFFFFFFFFFFFFFFFFFFF25
:109B5000FFFFFFFFFFFFFFFFFFFFFFFFFFFFFFFF15
:109B6000FFFFFFFFFFFFFFFFFFFFFFFFFFFFFFFF05
:109B7000FFFFFFFFFFFFFFFFFFFFFFFFFFFFFFFFF5
:109B8000FFFFFFFFFFFFFFFFFFFFFFFFFFFFFFFFE5
:109B9000FFFFFFFFFFFFFFFFFFFFFFFFFFFFFFFFD5
:109BA000FFFFFFFFFFFFFFFFFFFFFFFFFFFFDFFFE5
:109BB000DFFFFFFFFFFFFFFFFFFFFFFFB9E6F1BC85
:109BC000AFB44FA4C96AE55928930A73A962E74163
:109BD0008629A8292B2A4E2A6F2A6F2A4E222E2246
:109BE0004E226F226F226F22B02AB032D02AB02AC2
:109BF000D02A112B51337233B33BB343B243914359
:109C00001033D02AB12A3233102B5233312B523336
:109C100072339233D33BB33BB33B933B7233923BB0
:109C2000923BB33BF443F3431344B14BF343B3339D
:109C30001344B133502BB5747EEFFFFFFFFFFFFFDE
:109C4000FFFFFFFFFFFFFFFFFFFFFFFFFFFFFFFF24
:109C5000FFFFFFFFFFFFFFFFFFFFFFFFFFFFFFFF14
:109C6000FFFFFFFFFFFFFFFFFFFFFFFFFFFFFFFF04
:109C7000FFFFFFFFFFFFFFFFFFFFFFFFFFFFFFFFF4
:109C8000FFFFFFFFFFFFFFFFFFFFFFFFFFFFFFFFE4
:109C9000FFFFFFFFFFFFFFFFFFFFFFFFFFFFFFFFD4
:109CA000FFFFFFFFFFFFFFFFFFFFFFFFFFFFFFFFC4
:109CB000FFFFFFFFFFFFFFFFFFFFFEFFFFFFFFFFB5
:109CC0007DEF5CF758C65174F14BB0439043B14BF4
:109CD0000F3B103BAE2ACF328E2A6F2A4E224E22E5
:109CE0006E228F2A6F226E224F229022B02A1133C9
:109CF0005233733B523352337233323350339043C7
:109D0000303B113B1233523B5133723B3133723B88
:109D1000923B923BB33BB23B923BB3435233313322
:109D2000723B51335133D243B23B713B913BF343CE
:109D3000B23B2F2B7364BEE7FEFFFFFFFFFFFFFF69
:109D4000FFFFDFFFFFFFFFFFFFFFFFFFFFFFFFFF43
:109D5000FFFFFFFFFFFFFFFFFFFFFFFFFFFFFFFF13
:109D6000FFFFFFFFFFFFFFFFFFFFFFFFFFFFFFFF03
:109D7000FFFFFFFFFFFFFFFFFFFFFFFFFFFFFFFFF3
:109D8000FFFFFFFFFFFFFFFFFFFFFFFFFFFFFFFFE3
:109D9000FFFFFFFFFFFFFFFFFFFFFFFFFFFFFFFFD3
:109DA000FFFFFFFFFFFFFFFFFFFFFFFFFFFFFFFFC3
:109DB000FFFFFEFFFFFFFFFFFFFFFFFFFFFFFFFFB4
:109DC000DFFFFEFFFEFF1CC7576D534C3344913B32
:109DD000B24351333133EF2AEF2A8F2A8E2A8F2A4A
:109DE000AF2AAF2ACF32D032B02AAF2AF032D032E7
:109DF000B02AD02AF1323133523B3233102B914307
:109E00000F33D132F232F12A313331331133923BF5
:109E1000B33BB33BD33B92337233F12A323BD02A6C
:109E2000D02A513BF02A923BB23B9333B13B8F3B5C
:109E30000E2BB574DFFFDEFFFFF7FFFFFFFFFFFF15
:109E4000FFFFFFFFFFFFFFFFFFFFFFFFFFFFFFFF22
:109E5000FFFFFFFFFFFFFFFFFFFFFFFFFFFFFFFF12
:109E6000FFFFFFFFFFFFFFFFFFFFFFFFFFFFFFFF02
:109E7000FFFFFFFFFFFFFFFFFFFFFFFFFFFFFFFFF2
:109E8000FFFFFFFFFFFFFFFFFFFFFFFFFFFFFFFFE2
:109E9000FFFFFFFFFFFFFFFFFFFFFFFFFFFFFFFFD2
:109EA000FFFFFFFFFFFFFFFFFFFFFFFFFFFFFFFFC2
:109EB000FFFFFFFFFFFFFFFFFFFFFFFFFFFFFFFFB2
:109EC000FFFFFFFFFFFFDFFF9EF7D685B364F1437F
:109ED000B13B923B513B303B103BF032F032CF2A4A
:109EE000CF321033303BEF2A51335133F02A103345
:109EF00011338F22F02AF1321133523B303BB14300
:109F0000713B5133733B5133913B31333133723BAE
:109F100071339243523B323BB02AAF2AD02A8F2270
:109F2000AF2AD02AF02A513B713B71338D224F4327
:109F3000D8ADFFFFFFFFFFFFFFFFFFFFFFFFFFFFAA
:109F4000FFFFFFFFFFFFFFFFFFFFFFFFFFFFFFFF21
:109F5000FFFFFFFFFFFFFFFFFFFFFFFFFFFFFFFF11
:109F6000FFFFFFFFFFFFFFFFFFFFFFFFFFFFFFFF01
:109F7000FFFFFFFFFFFFFFFFFFFFFFFFFFFFFFFFF1
:109F8000FFFFFFFFFFFFFFFFFFFFFFFFFFFFFFFFE1
:109F9000FFFFFFFFFFFFFFFFFFFFFFFFFFFFFFFFD1
:109FA000FFFFFFFFFFFFFFFFFFFFFFFFFFFFFFFFC1
:109FB000FFFFFFFFFFFFFFFFFFFFFFFFFFFFFFFFB1
:109FC000FFFFFFFFFFFFFFFFDFFFFFFFBBC61585A2
:109FD0003254D13BB1335033EF2A313BF03210339E
:109FE000F032AF2A8F2AF0321033F02A523B31334D
:109FF00011333133112B5133923B102B5033D1435A
:10A00000703BD343513B5133703B3133F03210330B
:10A01000AF2AAF2A8E224E220D1A4E226E2A6E2AA7
:10A020008F32AF32CF32AE32EB198D32D5843EDF74
:10A03000FFFFFFFFBEFFDFFFFFFFDFFFDFFFDFFFF1
:10A04000DFFFDFFFDFFFDFFFDFFFDFF7DFF7DFF738
:10A05000DFF7DFFFDFFFDFFFDFFFDFFFDFFFDFFF18
:10A06000DFFFDFFFDFFFDFFFDFFFDFFFFFFFFFFFC0
:10A07000FFFFFFFFFFFFFFFFFFFFFFFFFFFFFFFFF0
:10A08000FFFFFFFFFFFFFFFFFFFFFFFFFFFFFFFFE0
:10A09000FFFFFFFFFFFFFFFFFFFFFFFFFFFFFFFFD0
:10A0A000FFFFFFFFFFFFFFFFFFFFFFFFFFFFFFFFC0
:10A0B000FFFFFFFFFFFFFFFFFFFFFFFFFFFFFFFFB0
:10A0C000FFFFFFFFFFFFFFFFFFFFDFFFFFFFFFF7C8
:10A0D000BBC6F47C90432E330E2BCF2A8E2AAF2A98
:10A0E0002D226E22AF322D22AF328F2AF132D032A2
:10A0F000D02A513B1033923B713B0F334F33B04367
:10A10000ED2A7143103B103BCF32AF326E2AAF3293
:10A110002D220C220D220D220D220D22EC212D2AA2
:10A120008A196911A9198C3A57955EEFFFFFFFFF55
:10A13000BEFF9EF7DFFFBFFF7EEFBEF7BEF7BEF7A5
:10A14000BEF7BEF7BEF7BEF7BEF79EF79EF7BEF7A7
:10A15000BEF7BEF7BEF7BEF7BFF7BEF7BEF7BFF755
:10A16000BFF7BFF7BFF7BFF7BFF7DFF7DFFFDFFFCF
:10A17000DFFFDFFFDFFFFFFFFFFFDFFFDFFFDFFFAF
:10A18000FFFFFFFFFFFFFFFFFFFFFFFFFFFFFFFFDF
:10A19000FFFFFFFFFFFFFFFFFFFFFFFFFFFFFFFFCF
:10A1A000FFFFFFFFFFFFFFFFFFFFFFFFFFFFFFFFBF
:10A1B000FFFFFFFFFFFFFFFFFFFFFFFFFFFFFFFFAF
:10A1C000FFFFFFFFFFFFFFFFFFFFFFFFFEFFFFFFA0
:10A1D000FFFFFFFF5EDFB89D1264AD32AA118A1146
:10A1E000CB194A09AB198A196A19EC21CB192D220E
:10A1F0004D2A2D222C226D2A0B1AAA112B22A919C5
:10A200008D32AE326E328F322D2AEC21EB21CB21F2
:10A210006A11280908090811E8082811A600A500F4
:10A22000EA31D16BF9B5BFEFDFF77EEF7DEF7DE768
:10A23000BDEF9DE77DE77DE79EE77EEF7EEF7EEF5A
:10A240007EEF9EEF9EEF9EEF9EEF9EEF9EEF9EEFC6
:10A250009EEF9EEF9EEF9EEF9EEF9EEF9EEF9EEF96
:10A260009EEFBEF7BEF7BFF7BFF7BEF7BEF7BFF76B
:10A27000BFF7BFF7BFF7DFF7DFFFDFF7DFFFDFFF76
:10A28000DFFFDFFFFFFFFFFFFFFFFFFFFFFFFFFF1E
:10A29000FFFFFFFFFFFFFFFFFFFFFFFFFFFFFFFFCE
:10A2A000FFFFFFFFFFFFFFFFFFFFFFFFFFFFFFFFBE
:10A2B000FFFFFFFFFFFFFFFFFFFFFFFFFFFFFFFFAE
:10A2C000FFFFFFFFFFFFFFFFFFFFFFFFFFFFFFFF9E
:10A2D000FFFFFFFFFFFFFFFFDFFFDCC6737C681996
:10A2E000E708E708A600E710C610E708A600070978
:10A2F0000711A500E608C60847190E5BD16B6F630E
:10A30000C508A508C608E7080809E7080811C7082E
:10A31000C608E708C608A60865006400AC42B8A5F0
:10A320003DDF9FEFBFF77DEF5CE77EE75DE75DDF39
:10A330007DDF7DDF7DDF5DDF5DE75DE75DE75DE7BD
:10A340005DE75DE75DE75DE75DE75DE75DE75DE7ED
:10A350005DE77DE77DE77EE77EE77EEF7EEF7EEFE0
:10A360007EEF9EEF9EEF9EEF9EEF9EEF9EEF9EEFA5
:10A37000BEF7BEF7BEF7BEF7BFF7DEF7DEF7DFF7D3
:10A38000DFF7DFFFDFFFDFFFFFFFFFFFFFFFFFFF65
:10A39000FFFFFFFFFFFFFFFFFFFFFFFFFFFFFFFFCD
:10A3A000FFFFFFFFFFFFFFFFFFFFFFFFFFFFFFFFBD
:10A3B000FFFFFFFFFFFFFFFFFFFFFFFFFFFFFFFFAD
:10A3C000FFFFFFFFFFFFFFFFFFFFFFFFDFFFDFFFDD
:10A3D000FFFFFFFFFFFFFFFFFFFFDFF7FFFF3ABEBB
:10A3E000C929A500C50864008408C508A508A408F3
:10A3F00063088408830801006729DFFFFFFFB6B503
:10A4000000006200C408C508E60828114819C608FB
:10A41000C710E710C608C608271993847EDF7EE7B9
:10A42000FCD63DDFDBD6DBD6FBDEDCD6FDDE1DDF7A
:10A43000FCD6FCD61CDF1CDFFCDE1CDF1CDF1CDFB7
:10A440003CDF3CDF3CDF3CDF3DDF3DDF3DDF3DDF30
:10A450005DDF5DDF5DDF5DDF5DDF5DE75DE75DE704
:10A460005DE75DE77EE77EEF7EEF7EE77EEF9EEFC6
:10A470009EEF9EEF9EEF9EF7BEF7BEF7BEF7BEF7CC
:10A48000BEF7DEF7DFF7DFF7DFFFFFFFFFFFFFFFBE
:10A49000FFFFFFFFFFFFFFFFFFFFFFFFFFFFFFFFCC
:10A4A000FFFFFFFFFFFFFFFFFFFFFFFFFFFFFFFFBC
:10A4B000FFFFFFFFFFFFFFFFFFFFFFFFFFFFFFFFAC
:10A4C000FFFFFFFFFFFFFFFFFFFFFFFFFFFFFFFF9C
:10A4D000DFFFDFFFFFFFFFFFFFFFFFFFFFFFFFF7D4
:10A4E000F58C261184004300C41042006308630009
:10A4F0004200A308010000004942BEEFBEEFEB524C
:10A5000041008208C408E510C6082809281128114E
:10A510000811081107096819B15B5EDFDBCEBBCEFD
:10A52000BBCEDBCEDBCEBBC6DBCE9BCEBBCEBCCEAA
:10A53000BCD6BCD6DCD6DBD6FBD6FCD6FCD6FCD64D
:10A54000FCD6FCD6FCD61CD71CD71CDF1CDF3CDF9E
:10A550003CDF3DDF3DDF3DDF5DDF3DDF3DDF5DE7D4
:10A560005DE75DE75DE77DE77EE77EE77EE79EEFFF
:10A570009EEF9EEF9EEF9EF7BEF7BEF7BEF7BEF7CB
:10A58000BEF7DEF7DFF7DFFFDFFFFFFFFFFFFFFFB5
:10A59000FFFFFFFFFFFFFFFFFFFFFFFFFFFFFFFFCB
:10A5A000FFFFFFFFFFFFFFFFFFFFFFFFFFFFFFFFBB
:10A5B000FFFFFFFFFFFFFFFFFFFFFFFFFFFFFFFFAB
:10A5C000FFFFFFFFFFFFFFFFFFFFFFFFFFFFFFFF9B
:10A5D000FFFFFFFFFFFFFFFFDFFFFEFFFFFFFFF7B4
:10A5E000BFE78B3AC400C408830083088208A3082D
:10A5F000620062006100AA4A18B639B67BBE537C7D
:10A600006721A408C61028116A190C22EB214D32CB
:10A61000CB21691149110B22DA9DFCCE5ABE9AC694
:10A620009AC639B67BBEBCC69CC6BAC6BAC69AC65E
:10A63000BBC6BBCEBBC6DBC6DBC6DBCEDBCEDBCE52
:10A64000FBCEFCCEFCCEFCD6FCD61CD71CD71CD730
:10A650001CD73CDF3CDF3CDF3CDF3DDF3DDF5DE71F
:10A660005DE75DE75DE77DE77EE77EE77EE79EEFFE
:10A670009EEF9EEF9EEF9EF7BEF7DEF7DEF7DFF769
:10A68000DFFFFFFFFFFFFFFFFFFFFFFFFFFFFFFFFA
:10A69000FFFFFFFFFFFFFFFFFFFFFFFFFFFFFFFFCA
:10A6A000FFFFFFFFFFFFFFFFFFFFFFFFFFFFFFFFBA
:10A6B000FFFFFFFFFFFFFFFFFFFFFFFFFFFFFFFFAA
:10A6C000FFFFFFFFFFFFFFFFFFFFFFFFDFFFFFFFBA
:10A6D000FFFFFFFFFFFFFFFFFFFFFFFF9EEF55A5FF
:10A6E0008A4A8208210062082100200041002100DE
:10A6F000210841086208B06B7BBEF9ADF9A55ABECE
:10A70000D38C000041006200C408E410E41004117E
:10A710002519C3084100A729107C76A55ABE9BC6FF
:10A720005AB63AB67BBE7BBE39B67ABE7ABE9ABE00
:10A730009BC69BC69BC69BC6BBC6BACEBACEBBCE7B
:10A74000DBCEDBCEDBD6FBD6FBD6FCCEFCD61CD7D5
:10A750001CDF3DDF3DDF3DDF3DDF3DDF3DDF5DE712
:10A760005DE75DE75DE75DE75DE75DEF7EEF7EEF6F
:10A770007EEF9EEF9EF7BFF7DFFFFFFFFFFFFFFFBC
:10A78000FFFFFFFFFFFFFFFFFFFFFFFFFFFFFFFFD9
:10A79000FFFFFFFFFFFFFFFFFFFFFFFFFFFFFFFFC9
:10A7A000FFFFFFFFFFFFFFFFFFFFFFFFFFFFFFFFB9
:10A7B000FFFFFFFFFFFFFFFFFFFFFFFFFFFFFFFFA9
:10A7C000FFFFFFFFFFFFFFFFFFFFFFFFFFFFFFFF99
:10A7D000FFFFFFFFFFFFFFFFFFFF79CE083A0000FA
:10A7E000410821002000400041004000400061007D
:10A7F000610082086100EC4AF8AD979D769D19B61C
:10A80000CF73000020002000210000004100210043
:10A8100000004100410021002100410086291174FF
:10A820005ABE5ABEF8AD5ABE7ABE59B65ABE5ABEC4
:10A830007ABE7ABE9ABE9BC69BC6BBC6BBC6DBCEE3
:10A84000DBCEDCCEFCCEFCD6FCD61CD71CD71CD76E
:10A850001CD71CDF1CDF3CDF3DDF3DDF5DE75DE734
:10A860007EEF9EEFBFF7BFF7BFF7DFFFDFF7BFF762
:10A87000BEF79EF7BEF7DFF7DFFFFFFFFFFFFFFF2B
:10A88000FFFFFFFFFFFFFFFFFFFFFFFFFFFFFFFFD8
:10A89000FFFFFFFFFFFFFFFFFFFFFFFFFFFFFFFFC8
:10A8A000FFFFFFFFFFFFFFFFFFFFFFFFFFFFFFFFB8
:10A8B000FFFFFFFFFFFFFFFFFFFFFFFFFFFFFFFFA8
:10A8C000FFFFFFFFFFFFFFFFFFFFFFFFFFFFFFFF98
:10A8D000FFFFFFFFFFFFFFFF59C6452182088208E7
:10A8E00061082000610841084008400040008100E4
:10A8F000610061004100E82935953695158D97A5D1
:10A900008A4A0000400841084108610841084100A6
:10A910006108821062084108410041082000820855
:10A920000C53D8AD5ABE19B618B65ABE7ABE7ABE06
:10A930007ABE7ABE9AC69AC69BC6BBC6BBC6BBCEFB
:10A94000DCCEDCCEDCCEFCCEFCD6FCD61CD71CD7B5
:10A950001CDF3CDF3DDF5DE75DE7BEEFDFF7DFF7E4
:10A96000FFFFFFFFFFFFFFFFFFFFFFFFFFFFDFF71F
:10A97000BEF79EF79EF7BEF7BFF7DFFFDFFFDFFFF3
:10A98000DFFFFFFFFFFFFFFFFFFFFFFFFFFFFFFFF7
:10A99000FFFFFFFFFFFFFFFFFFFFFFFFFFFFFFFFC7
:10A9A000FFFFFFFFFFFFFFFFFFFFFFFFFFFFFFFFB7
:10A9B000FFFFFFFFFFFFFFFFFFFFFFFFFFFFFFFFA7
:10A9C000FFFFFFFFFFFFFFFFFFFFFFFFFFFFFFFF97
:10A9D000FFFFFFFFFFFFFFFF7184C310A7292521A1
:10A9E000C310E318820841086108410800002100F3
:10A9F0002100210062084621D16B126C126C527446
:10AA0000872100000000210041006108A210E41825
:10AA1000E418A310C3102421452125210419E418AA
:10AA2000C829317419B65AB639B619B639B65AB6F4
:10AA30005ABE7ABE7AC67AC67AC69AC69BC6BBCEBC
:10AA4000BBCEDBCEDCD6FCD6FCD6FCD61CDF1CDFB6
:10AA50003CDF3DE75DE77DE77EEFBEF7BEF7BEF783
:10AA6000DEF7BEF7BEF7BEF7BEF7DEF7DEF7DEF7BE
:10AA7000DEF7BEF7BEF7BEF7BFF7BEF7BEF7BEF70D
:10AA8000BEF7DFFFDFFFDFFFDFFFFFFFFFFFFFFF9F
:10AA9000FFFFFFFFFFFFFFFFFFFFFFFFFFFFFFFFC6
:10AAA000FFFFFFFFFFFFFFFFFFFFFFFFFFFFFFFFB6
:10AAB000FFFFFFFFFFFFFFFFFFFFFFFFFFFFFFFFA6
:10AAC000FFFFFFFFFFFFFFFFFFFFFFFFFFFFFFFF96
:10AAD000FFFFFFFFFFFF9EEF8E6B0100C308A3087F
:10AAE0006200210000004100000001006300051128
:10AAF000E9314A3ACC4A2E53B1639053B15B905B33
:10AB00002A324619C310A308630000000000210088
:10AB1000A308C310C3100419E41804192521E41074
:10AB2000A3082D5BF8ADD8ADD8AD19B639B65ABE6D
:10AB30007AC69ACEBBCEDBCEDBD61CDF1CDF3DE770
:10AB40005DE75DE77EEF9EEF9EEFDFF7DFF7FFFF4C
:10AB5000FFFFFFFFFFFFFFFFFFFFFFFFFFFFFFFF05
:10AB6000FFFFFFFFFFFFFFFFFFFFFEFFFFFFFFFFF6
:10AB7000FFFFFFFFFFFFFFFFFFFFDFFFDFFFDFFF45
:10AB8000DFFFDFFFDFFFFFFFFFFFFFFFFFFFFFFF35
:10AB9000FFFFFFFFFFFFFFFFFFFFFFFFFFFFFFFFC5
:10ABA000FFFFFFFFFFFFFFFFFFFFFFFFFFFFFFFFB5
:10ABB000FFFFFFFFFFFFFFFFFFFFFFFFFFFFFFFFA5
:10ABC000FFFFFFFFFFFFFFFFFFFFDFFFFFFFFFFFB5
:10ABD000FFFFFFFFBFF75DE735A54942662166210C
:10ABE0006621251925196621E8318B422D53AF5B6B
:10ABF00052743174727C937C326C5274947C947C69
:10AC0000D58CD48CB38C9384527C107CCB52A729E6
:10AC10004521C310410041004100000062080100CD
:10AC200001006E6319B639BE3DDF5EE77EE79EEF39
:10AC3000BFEFDFF7FFF7FFFFFFFFFFFFFFFFFFFFA4
:10AC4000FFFFFFFFFFFFFFFFFFFFFFFFFFFFFFFF14
:10AC5000FFFFFFFFFFFFFFFFFFFFFFFFFFFFFFFF04
:10AC6000FFFFFFFFFFFFFFFFFFFFFFFFFFFFFFFFF4
:10AC7000FFFFFFFFFFFFFFFFFFFFFFFFFFFFFFFFE4
:10AC8000FFFFFFFFFFFFFFFFFFFFFFFFFFFFFFFFD4
:10AC9000FFFFFFFFFFFFFFFFFFFFFFFFFFFFFFFFC4
:10ACA000FFFFFFFFFFFFFFFFFFFFFFFFFFFFFFFFB4
:10ACB000FFFFFFFFFFFFFFFFFFFFFFFFFFFFFFFFA4
:10ACC000FFFFFFFFFFFFFFFFFFFFFFFFFFFFFFFF94
:10ACD000BFFFFFFFFFFFFFFFFFFFFFFF9EEF5DE7EF
:10ACE000FCDEDBD6DBD69ACEDCD6DBCE1CD7FCCEA8
:10ACF000DBC69AC6BBCE3CD73DDF7EE77EE77EE76C
:10AD0000FFF7DFF7FFFFFFFFFFF7DFF7FFFFBFF7FB
:10AD10001CDF9ACE59C6F8BD76ADB7B576AD96AD07
:10AD2000F8BDFBDEFFFFFFFFFFFFFFFFFFFFFFFFA1
:10AD3000FFFFFFFFFFFFFFFFFFFFFFFFFFFFFFFF23
:10AD4000FFFFFFFFFFFFFFFFFFFFFFFFFFFFFFFF13
:10AD5000FFFFFFFFFFFFFFFFFFFFFFFFFFFFFFFF03
:10AD6000FFFFFFFFFFFFFFFFFFFFFFFFFFFFFFFFF3
:10AD7000FFFFFFFFFFFFFFFFFFFFFFFFFFFFFFFFE3
:10AD8000FFFFFFFFFFFFFFFFFFFFFFFFFFFFFFFFD3
:10AD9000FFFFFFFFFFFFFFFFFFFFFFFFFFFFFFFFC3
:10ADA000FFFFFFFFFFFFFFFFFFFFFFFFFFFFFFFFB3
:10ADB000FFFFFFFFFFFFFFFFFFFFFFFFFFFFFFFFA3
:10ADC000FFFFFFFFFFFFFFFFFFFFFFFFDFFFFFFFB3
:10ADD000FFFFFFFFFFFFFFFFFFFFFFFFFFFFFFFF83
:10ADE000FFFFFFFFDFF7FFFFFFFFDFFFFFFFFFFFBB
:10ADF000FFFFFFFFFFFFDFFFFFFFFFFFDFFFFFFFA3
:10AE0000FFFFBEFFFFFFFFFFFFFFFFFFFFFFFFFF93
:10AE1000FFFFFFFFFFFFFFFFFFFFFFFFFFFFFFFF42
:10AE2000FFFFFFFFFFFFFFFFFFFFFFFFFFFFFFFF32
:10AE3000FFFFFFFFFFFFFFFFFFFFFFFFFFFFFFFF22
:10AE4000FFFFFFFFFFFFFFFFFFFFFFFFFFFFFFFF12
:10BE8000FFFFFFFFFFFFFFFFFFFFB1932B624C6A35
:10BE90004C6A6D6A6D6A4C6A6C724D724C6A4D7276
:10BEA0006D726D6A4D6A4D726D726E726E726E72E7
:10BEB0006E726E726E726E726E726E724E726E72A2
:10BEC0006E7A8E7A6E7A8E7AAF7AAF7A8F7A8F7A2E
:10BED000AF7A8F7A8F7AB07AD07ACF7AF082B082C6
:10BEE000D182D182F0826C62C84127424842C73178
:10BEF0004A52C9590A62CC6ACA52EC628A52AB5A97
:10BF00008B5AAC5A6B526C5A2B52517A98A39FCCD5
:10BF10001FC43FCC3FD4FED33ED43FD45FD4BFDC5C
:10BF20009ED49FDC9FD47ED45FED5EEE5FF65FED26
:10BF3000DFDCDFDCFFD43FDDFFDCFFE41FEDFFE4EF
:10BF4000FFE4FFE4FFE43FED7FF57FED7FED5FED84
:10BF50007FF5BFF5DFF5DEEDFEED3FEE1FF6BFFE30
:10BF6000BEFE1FDE1FBDFFBCFEBCDFB4BFB4DFBC26
:10BF70005FCD7FCD5FCD5FCD5FCD7FD59FCDDFD551
:10BF8000FFD51FD6FFD5DED5FFDD2B62A538A6383D
:10BF90008638A638A6388538A638A638A638A738F1
:10BFA000A738A638A638A738C740A740A740C7403B
:10BFB000C840C840C840C840C840C840A840A84081
:10BFC000C848C848C840C948E950CA48CA48EA50A1
:10BFD000C950CA48EA502B590B590B510B510B5100
:10BFE0004C594C594B51A730231801104739EA419D
:10BFF0008D5ACF72EB5948390629C318831842105D
:10C00000220822082308230864100318A7306D5162
:10C0100070599261B571798A1DA37FBB7FBBDFCB5D
:10C02000BFC39FC3BFC35ED45FF57FFE7FED1ECC51
:10C03000DFCB3FD43FD45FDC3FE43ED45FDC5FDC4A
:10C040005FDC5FDC7FDC7EDCBEE4FFECDFECBFECC2
:10C05000BFECFFF41FF53FED5FF5FFEDFFED5FF681
:10C060003FEE1EC5FE9BFF9B1EA4FF9BDF9B1FA4F4
:10C070007FAC9FB49FB49FB49FBCDFC4DFBC1FC51F
:10C080003FC55FC55FC51FC55FCD4C6AA638A638E2
:10C0900086388638A6388638A640A740A738A738FD
:10C0A000A738A7388638A738A740A840A840A8488E
:10C0B000A848C848C848A948A948A948A948A948BB
:10C0C000A948A948A948C950EA50EA50CA50EA50BC
:10C0D000EA50A948CA50EB50EB50EC502C594B5148
:10C0E0006C514C594C61A9582650EC69D07A8E5A43
:10C0F0002D4A4E5A6B418620441022080308C62060
:10C1000069312829CB410D4A0D4A2C4A6931C62094
:10C11000C6208520652086286720CD480F59B37139
:10C120001782F9895A9A5DBB5FDCBDDCFCCB7DC30D
:10C130009FC3DFCBDECBFFD3FFDB3FDC3FDC3FDC4D
:10C140005FDC5FE47FE49FE4BFECDFE4DFE4BFE4B7
:10C15000BFE4DFECFFE41FE55FED7EDD1FEE1FEEC9
:10C16000BFDDDFBC3FA43FA4BF9BDF9BDF9B1FA4C1
:10C170005FAC5FAC7FB47FB47FB49FBC9FB4BFBCE7
:10C18000BFBCFFBCDFBCBFBCDFC44C6AA63886386E
:10C190008638A638A6388638A640A740A740A740CC
:10C1A000A73886388638A740A740A848A848A84896
:10C1B000A848A848A848A848A848A948A948A948FC
:10C1C000C948A950A950C950EA500A51C948E9487C
:10C1D0000A51E948E9482A512B514C510B59A96899
:10C1E000697049788978EA784B794B518B494A31A3
:10C1F0004A29E8208B39CB412C4A2D4A0C4A6F52F0
:10C20000B05AED417052B15AD162B25AB25A50523C
:10C21000B05A8F5A6E520D4AAC398A41083987306C
:10C22000AA38EE5012617571D781D68934791371AD
:10C230005379B381F481568A568A98A298AADAB2C1
:10C240001BBB5CC3DDD33FDC7FE4BFDCDFE4FFEC82
:10C250001FED5FED7FF5BFF5FFFDFFF53FF69EDDBE
:10C260001EC59EB45FA43FA49F931F9C1FA45FACF8
:10C270007FAC7FAC7FB4BFB49FB4BFBC9FBCBFBC1E
:10C28000BFBCDFBCDFBCBFBCDFC44C6AA63886388D
:10C290008638A638A638A638A740A740A740A740AA
:10C2A000A74086388638A740A840C840C840C84044
:10C2B000C848C848C848C848C840C948C948C94803
:10C2C000C948C948C948E950E9500A51EA48E9480B
:10C2D000EA48E9480A494B514B498C510A590A71BD
:10C2E0006C916C9109690849484149316831AA311A
:10C2F0004C428A31EB412B4A2A3ACA390B42CB399C
:10C30000282129214A2929210D424829EB418B3135
:10C31000AB39AB39CB39EC412D4A2E4A6E522C4AFF
:10C32000EB49CD518E51D261977AF5717371537982
:10C33000728151815179727973713379337933799B
:10C3400032791271337974819481D691389A79A2B5
:10C35000B9AA1AB37BBBBBCB1CD4DED4DFD49DBC43
:10C36000DEBCDFB43FA4FF9BFF9B1F9C3FA45FACE0
:10C370007FAC5EAC9FACBFB49FB4BFB49FB4BFBC36
:10C38000BFB4BFBCBFBC9EBCDFC46C6AC638A63895
:10C39000A638C638A6388638A740A8408740A740A8
:10C3A000A740A640A740A740A840A840A840C84032
:10C3B000C848C848C848C848C848C848C848E948DC
:10C3C000E948E948E948E950EA50EB580C59EB587C
:10C3D000CA50EB504C518D516D512A29CB414D52D1
:10C3E0000B5289390729A9314B4A09328729051986
:10C3F0000521E520C41825210419A31005212521B4
:10C40000A310C4180521C4188729E5202731E72087
:10C41000082949310729C62027296A298A29892913
:10C420006931AA398B396B39AD416D494D51D171A3
:10C43000359A37AAF7A9D79918A216921692379A61
:10C44000F691B589B589F691D5899581D689D7892F
:10C45000B78997899789B889D991398A3CA33EB41D
:10C460007EB4BFB4FF9B9F93DF93FF9B1F9C3FA4B1
:10C470005FAC5FAC7FAC9FB49FB49FB47FB49FB4FC
:10C480007FB49FB49FB47FB4DFC46C6AA63885388C
:10C49000A638C638A6388638A74087408740A740C8
:10C4A000A640A6388638A740A740A840A840A8487C
:10C4B000C848C948C948C948C948C848C848E948D7
:10C4C000E948E948E948EA500A51EA48EA50C948C7
:10C4D000E9406B49CC51ED494E52EB29CA318931C3
:10C4E00007290729E628C5208310C3182421042121
:10C4F00024210421A218E318A210A218A218E320F4
:10C50000C318811065312429853145312529262913
:10C510000629262905290529473165294529873115
:10C520002629062147318839A9390A4AAA41AC4946
:10C53000D069358A579AF799389A39A239A259A2FF
:10C5400059A2189A38A259A2189A779AB9A2BAA2EF
:10C550009BA27BA25CA27DA29EAA9EA23FC49FDD5D
:10C560005EAC5FACDF9BBF93DF93DF9BDF9B1FA4C1
:10C570005FA45FA45FAC7FAC7FAC9FB47FAC7FB4A3
:10C580007FB47FB47FB49FB4DFC46C6AA6388538AB
:10C59000A638C640A640A740C840A840A740A7402C
:10C5A000C740A640A640A740A740A848A848C948F9
:10C5B000C948C948C948C948C948C948C948E948D3
:10C5C000E948C950EA50EA500A5149490739A628B2
:10C5D000E7308939682968192A326839E528E52061
:10C5E00025214629C318C218E22045398639E3209F
:10C5F0006531032124294531C320E320042925295D
:10C600002429C3208639E328453167390529463175
:10C61000242964316431442924296639E428874176
:10C620004639C420463187392629C941E941E939CB
:10C630008931CD5132725482968A3AA219A23AA215
:10C640003AA2F99939A25AAA19A219A25BAA9CB2D4
:10C650007CB27DB25DB25DBA7EBAFFB27FCCDFDD67
:10C660003DA43FA4DE9B9E93BF93FF9BDF9B1FA433
:10C670005FA45FA45FAC7FAC7FAC9FAC7FAC7FB4AA
:10C680007FB47FB49FB49FB4FFC44C6AA538A6386A
:10C69000A640A640A638A640A7408840A740A7408D
:10C6A0008640A640A740A740C840C840C948C948DE
:10C6B000C848A848C948E948E948E848C848E9508E
:10C6C000A948EA5009492949A630A520E528841837
:10C6D000E420E4208310C418052166314529453142
:10C6E0006531243103292329232964314431032965
:10C6F000E328042924312431C320C328E32804314A
:10C70000E328E3282431242903298639E42804294D
:10C710000429042945312431E320253125312531EF
:10C72000863925310531874105316639C739C83920
:10C73000C831C939AA41AC490E5A3682789A7AAAC8
:10C740003AAA19A2399A5AA23AA23AAA7CB29DB23E
:10C750009DB27DAA5DAA7EB2BFBAFFB2FED4DFD57C
:10C760001D9C1FA4BF9B9F93DF93BF93DF9BFFA3E1
:10C77000FFA33FAC5FAC3FA43FA45FAC5FAC7FAC1A
:10C780005FAC5FAC7FB49EB41FC54C6AA638A638B8
:10C79000A640A640A638A640A740A840A740A7406C
:10C7A0008640A640A740A740C840C840C848C848DF
:10C7B000C848C848C948C948A948A948C948C94833
:10C7C0002A51E848C73885288428E428C4208218DC
:10C7D000042986318631C639A639442944312429B1
:10C7E0004431E32003290329E32803290329C22034
:10C7F000A220C320E328E328A218A220A220E32835
:10C80000A220C3200429E328C3204531E3200429C2
:10C810000329E32024290329C220E3280429E4284A
:10C8200045310429E4284631E428C4288739A7394A
:10C830008731C8390A4AEA49AA41AD51F069558A97
:10C84000B9A29AA2399AFAA11BAA5BAA5BAA5CB206
:10C850007DB29EB27DAA7EB29FBAFFB23FDDFFDD00
:10C86000FE9BDF9B9F937F939F8BBF93DF9BDF9B01
:10C87000FFA31FA43FA43FA43FA43FAC3FA45FACD1
:10C880003FAC5FAC7FB49FB4FFC44D6AA638A638F6
:10C89000A640A640A63886388740A740A740A740B4
:10C8A000A640A640A740A740C840C848C848C848B6
:10C8B000C840C948C948A948A948AA50EA50E94807
:10C8C000C7388428A328A3280431E3286431A53974
:10C8D000274AE6418439A5396431E22043292329D6
:10C8E0004431E3202431E3288218C220C220811879
:10C8F0008118A218A218C220821882188218A220B9
:10C900008218A220E320C220A2180429C220E3201A
:10C91000E320A218C320C320A218A220C320C22053
:10C92000E428E320C320E428C320632005314631F6
:10C9300025316631084229420842C839CA49CD59D1
:10C940001172768AB9A25BAAFBB15BA27CB29EBAD5
:10C950007DB25DB27DB27EBA7FBA1EB3FFD45FCD29
:10C960009F939F935F8B3F8B7F8B9F93BF9BDF9B9F
:10C97000DF9B1FA43FA43FA43FA43FA41FA43FA448
:10C980003FA45FAC7FB47FB4DFC44D6AA63886385D
:10C99000A640A640A638A740A740A740A740A7406A
:10C9A000A640A640A740A740C740A848C848C848D6
:10C9B000C840C948C948A948A9508948E9502849E8
:10C9C000A428C328C22003294431A541A539A5398B
:10C9D000A539433122290229A120E220232923312C
:10C9E0002431E3280329C3206118821882186118B2
:10C9F000611881188118A21881108118611082189D
:10CA00008118A218C320A2188218C320A218C21825
:10CA1000C218A218A218A21882186118A220A2187F
:10CA2000A218C320A218A218C3208218C320042968
:10CA3000042904294531C7392842083A294AE949D5
:10CA4000A949AC59327A999A9CB25CAA7DB27EBA55
:10CA50007EBA5DB25DB27EB29FBA1EB31EC4FFAB9A
:10CA6000FF825F8B5F8B3F837F8B7F93BF93DF9BC7
:10CA7000DF9B1FA41FA43FA43FA41FA41FA41FA4A7
:10CA80001FA43FAC5FB47FB4BFBC4C6AA6388638E5
:10CA90008640A640A738A740A740A740A740A74088
:10CAA000A7408640A740A740A740A848C848C94813
:10CAB000C848C948C948C948A850C848E7400639C5
:10CAC0000431443102212329853165390329A2200B
:10CAD000A220C220E228E32881182429032903295F
:10CAE000A220A218811881186110611861184110E4
:10CAF00041106110611082106110611041106110CD
:10CB000061108110A2188110611082108218A21881
:10CB1000A218A2188218821861106110A218811838
:10CB20008218A21881108110A2188110A218C320A7
:10CB3000E428C420A320E4204631C839E849084A43
:10CB4000084AC841AB49116AB792DCB25CAA3EB24E
:10CB50007FBA9EBA7DB27EB2BFBA1FBB7FBB1EA397
:10CB60009E821F8B1F833F837F8B7F8BDF9BFF9B6F
:10CB7000FE9B1FA41FA43FA43FA43FA41FA41FA467
:10CB80001FA43FAC5FAC5FAC9FBC4C6A8638863854
:10CB900086408638A738A740A740A740A740A740AF
:10CBA000A7408740A740A740A740A848C848C94811
:10CBB000A948C948C848E848C84806412641043140
:10CBC000443123292329E320042962188218A2185A
:10CBD000A220A220C320C3208218E3208218A2181A
:10CBE0006110811820106110401061106110401018
:10CBF00041106110611061106110611041086110F5
:10CC0000611061108210611061106110811061105B
:10CC10008118821861106118411061106110611053
:10CC20006110821861106110821081108110A218A9
:10CC3000A320831863188318A42024312531673971
:10CC4000C8410842E941EA49EB51979ADBAABEBACA
:10CC50007EBA5DB27DB29EB29FB2FFC29FCB3FB3A0
:10CC6000FF92DF82FF823F835F8B9F931FA45FACA5
:10CC70003EA43FA41FA41FA41FA41FA41FA41FA45D
:10CC8000FFA31FA43FAC3FAC5FB46C6AA5388638E5
:10CC900086408638A738A640A740A740A740A740AF
:10CCA00087408740A740A848A848A840A848C94846
:10CCB000C948C948C848E840C7400431253944310B
:10CCC000443103290329A2184110A218821882189E
:10CCD0008218A220A2208218821061102008611000
:10CCE00041108118400861104008811881104108E6
:10CCF0004110611061106210411061104108611013
:10CD000061106110611041086110411082104110E2
:10CD100061106118411061184110611041106110DB
:10CD20006118821861104110811081106110A210E9
:10CD3000A21062108210A318A218A218C4200531F4
:10CD400026318631A739A7396639AD61B5923CB332
:10CD5000BEB25CAA7DB29EBA7FBAFFC29FCBBFC3F0
:10CD6000DFB33F93FF823F833F8BDF9B7FACBFB43A
:10CD70009FB45FAC3FAC1FA41FA4FFA3FFA31FA4DD
:10CD8000FFA31FA41FACFFA33FAC6C6AA638863874
:10CD900086408638A638A640A640A740A740A740B0
:10CDA00087408740A740A848A848A840A948C94844
:10CDB000C950C948C848E740C7386539E32803293E
:10CDC000E320A22040108118811881188118811851
:10CDD00061188118811840088110611040084110C5
:10CDE000411041104110621041088110611020086B
:10CDF000410861104110611041104110410861105B
:10CE000061106110611040086110411082184110DA
:10CE100061106118401061186118611041106118AB
:10CE20006218621861104110811061104110A2183F
:10CE3000E31882106108A110A118E418A318821841
:10CE4000C3200421242905312739E530CD59B79273
:10CE5000DDB29DBA5DB25EBA7FC2FEC25FCBDECBF1
:10CE60007FCC9F9BFF821F833F8B1FA4BFBC1FC52E
:10CE7000FFBC9FB43FAC1FA41FA4FF9BFFA31FA434
:10CE8000FF9BFFA31FACFFA31FAC4C6AA6388638DC
:10CE90008640A640A640A640A6408640A740A640A1
:10CEA000A640A740A740A840C848C840C948A948CC
:10CEB000A848E848E740E530253123290221C21877
:10CEC000A2188118811061106110A2186110411020
:10CED000611061106110411061104108400861103B
:10CEE00061106110611061106110611061106110BA
:10CEF00041106110611061106110410882106110D1
:10CF000061106110611040086110610861108110AA
:10CF10006110411061188118611861104110611091
:10CF2000611862186110611061106110611082183F
:10CF3000A318A318621081108218A218A2188218D0
:10CF40008218C320E320E320E3200629C320EA5906
:10CF5000B68AFDB27DB25DB27FBABFC29FD37FBB3E
:10CF6000BFB31FB4FE8AFF8A9E93FFA35DAC9EB43D
:10CF70009FBCDFC47FB4DFA3DFA3FFA3DF9BDFA3DE
:10CF8000DFA3FFA3FFA3DEA31FAC4C6AA638A6381D
:10CF9000A640A640A640A640A640A740A740A7405E
:10CFA0008640A740A740A840C848A840A948A8482C
:10CFB000C848E848064105310429811081108110D4
:10CFC00081108110811061106110611041104108C1
:10CFD0006110611061104110411061106110611009
:10CFE00061106110611041106110611061106110D9
:10CFF0004110611061106110411041106110611009
:10D0000061106110611041106110611061106110B8
:10D0100061186110611881186118411041104110A8
:10D020006118611861106110611061104110611088
:10D03000A2188218611061108118A218A218821813
:10D040008218C318C320C318C318E5200421063171
:10D050006C51758ADBAADEBA5FB2DFBA7FC35FB3F9
:10D060001D9B3FB43F93BF823F8B3FAC9FCD9FCD75
:10D070009FBC5FB43EACFFA3FFA3FFA3DF9BDF9B7E
:10D08000BFA3DFA3DFA3BFA31FAC4C6AA638A64093
:10D09000A640A640A640A640A740A740A740A7405C
:10D0A0008740A740A840A840C848C948A848E848C1
:10D0B00029490741C428A320C320611061108110B1
:10D0C0008110611061106110411041084108410850
:10D0D0006110611061104110411061106110611008
:10D0E0006110611841104110411061104110401051
:10D0F0004010411061106110411041104110411069
:10D100006110611041104110611041104010411038
:10D1100061104110401061106010611041106110E9
:10D12000611861186110611061108118611061103F
:10D13000A218A218811881188118A218C218A21862
:10D140008218A318C318A318A218A318C420A318E0
:10D15000E428494954821DB39FB2FFBA9FC33EAB36
:10D160009C8ABFAB9F9B9F82DF8A3FAC5FE65EE6F7
:10D17000FFC47FB43EAC1FA4DFA3DFA3BF9BBF9B54
:10D180009F9B9FA3BFA39FA3FFAB4C6AA638A6405B
:10D19000A640A640A7408640A740C740C740A7403A
:10D1A000A740A840A840A840A848A848A84828499F
:10D1B0008949053141104010811882188218811068
:10D1C00061104110411041104110410841084110C7
:10D1D00061106110611041106110611061106110E7
:10D1E0006118611041104110411061104110400858
:10D1F0004008411061106110411040104008410882
:10D2000041082008200841104110411041104110F0
:10D210006118411841104110401061106110411017
:10D22000411041104108611041088110400841102F
:10D2300082188218611861186118A210A218A21829
:10D240008210C318C318A318A318A318C318A210D8
:10D25000031983180A41368AFFBADFBA7FCB5FB35E
:10D26000BD92DD8AFFA3FF8A9F823FACFFDD3DE6D2
:10D270009FD5BFBCFEA3FFA3DFA3BF9B9F9B9F9B2C
:10D280007F9B7F9B9FA39FA3DFAB4C6A863886382A
:10D29000A640A640A7408640A740A740C740A74059
:10D2A000A740A840A840A840A840A74808498949E5
:10D2B0006739A318400841106118611061106110AE
:10D2C00061104108410841104110410841084110D6
:10D2D0006110611041104110611061106110611006
:10D2E0006118611841104110411061104108200877
:10D2F0002008211041104110411041102008411018
:10D30000611020082008621862186220411862200B
:10D3100082206120412041182018611061184110BD
:10D32000611041104108611041086110410841102D
:10D33000821882188218821882188210A210821015
:10D340008210A318C318A318A318A318E220A110D1
:10D35000A310C41883208A4099A2DFBA1FC33FC319
:10D36000DFA25C82DFA37F939F7A5E93FFC43FE6D8
:10D370007FEEFFBCBE9BDFA3BF9B9F9B9F9B9F9BA2
:10D380007F9B7F9B9F9B7F9BBFA34C6A8538863882
:10D390008640A640A7408740A740A640A740A74098
:10D3A000A740A740A740A740C848E8488951A849D6
:10D3B000E4284008400881186110411041104110D4
:10D3C0004110410841084108410841084108411005
:10D3D00041104110411041104110411041104110C5
:10D3E0004118411820102010411041082008000861
:10D3F0000008201041184120212041182010411020
:10D4000061182018211882288228823082308238C0
:10D41000823861308238813041306128A230612801
:10D420008228622020184118201041102110411834
:10D430006220622082208220421881108210821095
:10D440008210A218A318A218A318C318C120A218EA
:10D45000A418E5188118242090693EC3FFC23FC379
:10D46000FFB25C8A1D8BBF9BDE827D7A9F9B1FC5AE
:10D47000BFD55EAC5F939F9B5F937F937F9B9F9B8A
:10D480007F9B7F9B7F9B7F9B9FA34C6A85388538C2
:10D490008638A740A740A740A740A640C740A7405E
:10D4A000A740A740A740A840E8488951A849463965
:10D4B000811020006008611041106110611041105E
:10D4C0004008400840084008200841084108410839
:10D4D000411041104110410841082008211041101D
:10D4E00041184118211041186118411040102010B6
:10D4F000201861288230A2388238823020204028CB
:10D50000613061308238C348C3480351035903591D
:10D51000E358E25803592361E258C2502359E350BB
:10D520000351C34061306128001841204120622826
:10D5300061284128622862200018411061106110A2
:10D54000611082108218A218A218C318A118C32053
:10D55000E420C318A210C420C830989A3FBB1FC350
:10D56000FFC2BEA25B825E9B3F9B9E829E823D8BE2
:10D570005C93DD82BE823F93FF8A3F933F935F932C
:10D580003F935F937F935F939F9B4C6A8538853869
:10D590008638A740C740A740A740A640C740A7403D
:10D5A000A740A740A740C8480951C9516741A320D7
:10D5B00040086008400821082210811061104008CE
:10D5C0002008200840084008400841084108410858
:10D5D0004110411041104108200820104110411015
:10D5E0006118611861186218822081186120612019
:10D5F0008128C2380349245104592451C340C348E7
:10D60000245124596561A6718679A579A579A579F2
:10D6100084796479C581E689C581C5892792E689BF
:10D62000E781A671045903498238A238C340E34018
:10D63000C340A238A238823021202110411041106D
:10D640004110621082188218A218C310E320A22091
:10D65000A1180319E310E42063182E593DB3FFC24B
:10D660005FD31FB35C8ADD923FA3DF8A5E7A9C7A28
:10D67000BE827F829F829D829F82DF8AFF8A3F9344
:10D680001F8B3F935F935F939F9B6C6AA63886388E
:10D6900086388638A740A740A740C748C740A7405C
:10D6A000A7408740A74028498849A64124316110F6
:10D6B0002008410841084008411061104108410814
:10D6C0004008400820084008200820082008411091
:10D6D0002110411821100008421821082110822829
:10D6E000A3306128A2382451E350E240E348C2400D
:10D6F000A238A238E340E35003598569C679857999
:10D700008581E791279A079A279A269A269A269A38
:10D7100046A246A266AA67AA87B288BA88BAC8BAD9
:10D7200087AA8479E258A2488238A350E358255941
:10D73000E350E3506561645980404120412041201D
:10D74000612061188218A310A310A21082188328E8
:10D750008220A318E420C320A328A53034823FC32D
:10D760003FCBFEC2DFB27D9ADB9A1EA39C827C7AFD
:10D770007D7A9D7A5D7A9E825E7ABF7ABF82FF82D1
:10D780001F8BFF8A1F8B5F935F9B6C6AA63886385E
:10D7900086388638A640A740A740A740C740A74084
:10D7A000A7408740C7404749A8496539C320401072
:10D7B000200840084008200840104110411020086F
:10D7C00020084008400840082008200820102010A9
:10D7D0002010611862202018411820184128C340E9
:10D7E000E350E3506559A66165590349E34882381F
:10D7F000413041302030404081506479068A279A78
:10D8000027A268AA88B288B2C9BAC8BAC8BAC8BAC0
:10D81000E8C2E9C208CB09CB29D329CB49CB8AD3AB
:10D82000C8B22379204800380038203040306138B1
:10D830006138A24024598561656143594459E448DF
:10D840004230222042206220811882188218A320B0
:10D850008218A318C320A320C320A3204E59FCAADA
:10D860001FC3FFCABFBA9EAADDAA3FABDD9A5C7A8E
:10D870001B6A7D7A7D7A7E7A9F7A7F827F7A7E7A32
:10D88000BF82DF8ADF82FF8A5F934C6AA638A638A0
:10D8900086388638A640A740A740A740C748A7407B
:10D8A000A740C740074967498741042961182008F4
:10D8B00020084008400840084010211020100008AF
:10D8C0002008200841084108200821104110411873
:10D8D0006120A228A2306128A2302030A2486569C8
:10D8E000A671656944590349A138203020300030C1
:10D8F0000030213841408150E368C59167AAC8BA19
:10D90000C8BAE9CA09C329CB6AD349D349D36AD370
:10D910008ADBAADBAADBAAE3AAE3CADBCADBCADB8F
:10D9200029CBE5990379C368A260C15080482038AB
:10D93000003000280030C2486559A571067AC779C1
:10D940002569C45883484130412842204110821043
:10D95000A310C318C320A218C320E118A62855821B
:10D96000FEBADFC2BFC27FBABFB2FFB2DEA2BC92B4
:10D970005B7A5B7A3B723C6A3C6A1D727F829F8253
:10D980007F7A9F82BF82DF8A3F934C6A8538A638B0
:10D990008640863886388640A748A748C748A740AB
:10D9A000A740E748274166414531E3204110200860
:10D9B0006108410820084108411020102008200873
:10D9C0002008400841082110200841104118622811
:10D9D000A238E348A248A248445923598569C67130
:10D9E0008569E25040380028002820388248C35812
:10D9F00004616571A681E689079A46AAA8BAE8C2B9
:10DA000008CB29D349D369D38AD389D3A9D3CAD31D
:10DA1000EADBEADBEADBEBDBEBDB0BDCEADBCADBDA
:10DA20008AD309CBA9BA88B247AA47A226A2C6912F
:10DA3000857923698148203020308140856928928A
:10DA4000E791858945792561C44883384220621071
:10DA50008210A318A320A218C2180119A3206E597E
:10DA6000FCB29FBABFCA3DB29FBA1FBB9DAADDA23E
:10DA70009B921A7A3A7ABC7A9C727D7A5D725D7258
:10DA80007E7A7F7A7F7A7E7ABE8A2C6A853886385B
:10DA90008640863886388640C748C848C848874088
:10DAA000A640074147414539E328A218200820082D
:10DAB0004108400820082008410840084008410863
:10DAC0004108400820084010411841188228A23817
:10DAD000E3502461246944698579077AA569E25095
:10DAE0006038202800304140E460A579E789279A12
:10DAF000289A68A288AA68AA67B287BAA8C2E8CAA0
:10DB000008CB28D349D369D389D3A9D3CAD3EADBB5
:10DB1000EADB0BDC0BDC0BDC0BDCEBDBEBDBEAE34B
:10DB2000AAE36ADB29D309D308CBE8D209D3E8CA30
:10DB3000E8C2E9BA87A28479C15861380038C1586F
:10DB4000E681899A89A2299A86812561A34062206B
:10DB50004210621883208218C218C218E328A8381D
:10DB6000B99ABEB2BFC2FBA97DB2FFC27DAA9CAA70
:10DB7000DCA29B9279821662D5513862596ABC72D6
:10DB80009D723D723E7A7F829E824C6A85388638CD
:10DB900086408638A638A740C748C840A748864070
:10DBA000A740064126392431C220611020082000F8
:10DBB0004108410840084008410820084008410841
:10DBC00020082010201840206128A2380449E35082
:10DBD00003618579C681A681457104518140003079
:10DBE0004038E2484461A681289A67A268AA47AAF9
:10DBF00067B267B226AA25AA46B247B267BAC8C2B8
:10DC0000E8CA08CB49D369D38AD38ADBAADBCAE343
:10DC1000EBE3EBE30BE40BE40BE4ECE30BE4CBE32F
:10DC20008ADB29DBE8D2E7D2E7D2C6D2E7D2C7D275
:10DC3000C7CAE8D229D309CBA8C20692E260204025
:10DC400081488569AAA20BC368BAE7892561823831
:10DC50000120011062188210C3188318E328652878
:10DC6000147A1EBB9DBA1AA23AA29DB29CB25AA2C5
:10DC70009BA23DB3988A8D3869280E399149356247
:10DC800099725B727D7A9E829E8A4C6A853886384C
:10DC900086408638A638A640C748A740A740874098
:10DCA000C740E638E530E428A218200840084008BC
:10DCB0004008610841084008411020082008200859
:10DCC0002010411861288238C248045965694469A6
:10DCD0006579C681A5794461C25000302038A150D1
:10DCE0006471069247A247AA47B246AA26B206B274
:10DCF00026B246B225AA25AA46BA26AA46B287BAAD
:10DD0000C7C2E8CA29D369D36AD389DBAAE3CAE3C5
:10DD1000CBE3EBE3EBE30BE4EBE3EBE3EBE3AAE3D3
:10DD200049DB29DBE8DAC7D2C7D2E7CAE7D2E8DAAB
:10DD3000E7D2A6D2C7D209DBE8DA09D32ACB079A01
:10DD4000415000404471C9B24BCBC9B2079225691A
:10DD50006238011842106210C3188318E32084202F
:10DD60006E591CB39DB23AAA189A5BAABCB21AA209
:10DD7000FA99FCB256926938A630E8408738893063
:10DD80009051B77A9A7A5A729C826C6AA538863812
:10DD900086408638A638A640C740C738A840A7485E
:10DDA000C748E638C428A320821800084108410863
:10DDB0004108610841082008210840082008201077
:10DDC00021186228C34004594569657985794479E9
:10DDD000C689C681035980382028A2484469079221
:10DDE00068AA47B226B246B225B226AA46BA26BAD1
:10DDF00025B245B266B246B226AA26AA05AA26B21E
:10DE000086BAC7C209D349D349D389D3AADBCADBAF
:10DE1000EADBEADB0BE40BE40AE4CADBEAE3AAE3AD
:10DE200049DB09DBE9DAE8DA08DB08DBA7CAC7D295
:10DE3000E8DAC7D2C7D208D308CBE8DA09E32ADB8D
:10DE4000CAC285890050C1604BABACD30ABB299ACA
:10DE500005614228421041088218A318E31883186C
:10DE60000B49B9A29DB23AAA179A199ABCB27BAAD9
:10DE70001AA25AA2D3814738E4380451A861E6486F
:10DE8000473090519772997A9A7A4C6AA6388538B9
:10DE90008640A6408638A740A748C740A740A7406D
:10DEA0000741C428C320A2184110000820082108F7
:10DEB000410841082008210841082108411061203B
:10DEC0008228E338445164696471A5898481C681DC
:10DED000E679E3580038614844690692279A47A2D8
:10DEE00026AA26AA26B226B226B226B246B246B242
:10DEF00026B226B225B226B246BA06AAC5A106AAFD
:10DF000067BAA7C2E8CA49D329D36ADB8ADBCADB6E
:10DF1000CADBEBDBEBE3EBE3CBE3CAE3AAE36ADBCD
:10DF200029DBE8D2E8DAE8DAE8DAC7D2C7D2C7D222
:10DF3000C7D2C7D2E7D2E8D2E7D2E7D228E308E3D4
:10DF4000C8DA4AE326AA40602471CDCBADDBCAC251
:10DF5000699A25594228211840084110C31883188E
:10DF6000C8387692BDB23BA2179AF79919A29BAA1C
:10DF700059A2189AF389874082300671088A667917
:10DF800085504E619782B882567A4C6AA638853899
:10DF9000A640A6408638A740A740A740A740A74074
:10DFA000E640A428C320821841082008210841081F
:10DFB0004108210821082008200821106220C330D0
:10DFC000E34024516561857185796481078AA5796B
:10DFD00081502048C258A681489207A207AA07AAE2
:10DFE00006B206B226B246BA47BA26B226B246B240
:10DFF00046B246B246B226B225B206AAC5A1E6A9E5
:10E0000026B266BAC7C208D309D349D369DBAADBF3
:10E01000CADBEBDBEBE3EBE3CBE3AAE38AE349DB2D
:10E0200009DBE8DAE8DAE8DAE8DAA7DAA7DAA7DA81
:10E03000A7DA86DA66D287D2C8DA08D3C7D208DB75
:10E0400008E309DB6BDB88B2E270069AACE3ADE370
:10E050000BBB298AE5500118400841088210A2181C
:10E060008628548A9CB25BAA179AD691F89959AA25
:10E0700059A259A2D3818640054104616669C660F0
:10E080000A617492D99A788A99924C6AA63886382D
:10E09000A640A6408638A640A740A740C748C7402C
:10E0A000C6388320A21861102108410841084108A0
:10E0B000410821082108210821086220A3380551C0
:10E0C000455965698571A579A581E689C681A260F2
:10E0D0000048E268E691279A27A207AA07B206B28B
:10E0E00006B206B226B226B226B246B226B226B290
:10E0F00026B246B226B226B226B206AAC5A1C5A14C
:10E1000006AA46B287C2E8CAE9CA29D349D38ADB3C
:10E11000CADBCADBCBE3CAE3AADBAAE369DB49DBE0
:10E1200009DBE8DA09DBE8DAE8DAE8E2A7DA87D23D
:10E1300066D286DA66DA86DA86DAC7D2C7D2C7DA74
:10E1400008E3E7D208D38BE3E9C2E4A1ACE3EDEB4B
:10E150008CD30CBB098A6238200841088108A218B8
:10E160004420127A9BAA9CB258A2F699D799F799A3
:10E1700059A27AA2917144302439A340C5504B6909
:10E18000128A779A799A799ABBAA6C6AA6388638E5
:10E19000A640A6408638A640A740A740C748C7402B
:10E1A000A530832082186110200841082108410809
:10E1B00041082108200841106218C4380549466109
:10E1C000666965718571A579A581C6894471C26842
:10E1D0002371E691069AC6A1E6A906AA06AA26AA6E
:10E1E00026AA26B226B226B226AA06B226B226B29F
:10E1F00026B206B206B226B246B206AAC6A1A5A1AA
:10E20000C6A126B267BAC8C2E9CA08D349D369DB36
:10E21000AADBCADBCAE3CAE3AAE38AE369DB29DB38
:10E2200009DB09DB08DBE8DAE8DAA7CAA7D2A7D25C
:10E23000A7D2A6D2A6D286D265CA66D2E7DA66D2BD
:10E24000C6DA28E328DB4AE32ADB29D38BE3CCE3D5
:10E25000CCDB8DD3ECBA8669201021088108C2106E
:10E2600043188F697AA29CB259A258A2F799B59126
:10E2700038A29AA22E596328A22843304B615492A7
:10E2800058A2F799189A79A29AAA6C6AC638863861
:10E29000A640A6408638A740A740A740C748E74009
:10E2A0008428821881106110210841082000400054
:10E2B0006108200800086218E43046514659666932
:10E2C00066696571A579C581C58185816479A581F6
:10E2D000E699069AE6A1C6A9E6B105A2E5A1E6A9D6
:10E2E000E6A9E6A9E6A9E6A9E5A9E5A9E6A9E6B1B0
:10E2F000E6B1E6B106B206B226B206AAC6A1A5A14B
:10E30000C6A106AA67BA87C2C8CA08D328D369D3E8
:10E3100089DBAADBAADBAAE3AADB8AE369DB29DBC8
:10E3200009DB09DB08DBE8DAC7D2E7D2A7D2A6CA45
:10E33000A7D2C7D2E7DAC7D2C6D286D286D286D2D1
:10E34000C7DAC6DAE7DA29E30AE38AE36ADBECE351
:10E350000DE4ADE38EDB8A9A612800006108A1100C
:10E3600062182C5978A27BAA59A279A2189AB69160
:10E3700058A25692C948A3306220E950739278A2FD
:10E38000B791F899379A179A78A26C6AC638863886
:10E39000A640A640A640A740A748A740C748C63801
:10E3A00084208218610841082108410820084100A2
:10E3B000610820080008832846416759676167693A
:10E3C00086698671A579C581C581E689C589C691A9
:10E3D000E699C699E6A906AAC5A9E5A9C6A9C6A946
:10E3E000C6B1C6B1E6B106BA27BA47BA06B2E5B1B8
:10E3F000C5A9C5A9E6B1E6B1E6B106AAC6A1869946
:10E40000A6A106AA46B267BAA8C2E8D208D349D3E1
:10E4100069DB8ADBAADBAAE38AE36AE349DB29DB5F
:10E4200009DB09DBE8DAE8DAE7DAE7DAC7DA08DB9A
:10E430006AE36BE34ADB4ADB8AE36AEBE8D2E8DAB9
:10E44000C7D2A6D208E329E30AE349DBAAE3ECEB4F
:10E45000ECE3EDEBEEEB0CB3C348000840086108B9
:10E4600043182C51789A39A259A259A239A2F79986
:10E47000569AB0718530C3308630338A97A2379A66
:10E48000B69117923692369297A26C6AA638863861
:10E49000A640A640A640C740A748A740C740C638E8
:10E4A0006320A2186008400841082108410841087B
:10E4B000410820084118E43067516759676167696E
:10E4C0008669A671A579A581A589C591E691E69988
:10E4D000C699C6A1C5A1E5A1E6A9C6A9E6A907B244
:10E4E00027B248BA47B288BAA9C2A8BA88BA47B20E
:10E4F00006B2C5A9C5A9C5A9E6A905AAE6A1A69916
:10E50000A699E6A126AA46BAA7C2C8D208D329D39B
:10E5100069D389DBAADBAADB8ADB49E329DB09DBD8
:10E5200009DB09DBE8DAE8DA08DB08DB29DB4ADBB0
:10E5300009CB47B2A5998391849147A209C38CDB8B
:10E540002AD3E8D228DB08E329E349DB8BEB8BE312
:10E55000ABE30DECEEEB8ED34671000820086108AA
:10E5600043186D59989A38A258A258A259A2169ADF
:10E57000348AEA48A23082284D51B8A2369A1692BF
:10E580001692F589158A5692779A6C6AA63886385B
:10E59000A640A640A640C740A748C740C740A630EF
:10E5A0006318A21840082008210800084108410803
:10E5B00020002008822005418759676167698769C3
:10E5C000A771A671A679A581A589A591E699C69995
:10E5D000A59907AA07AAE6A106AA27B227B248B2B8
:10E5E00068AA47A206920592059287B2C8BAE9C204
:10E5F000A8C227B2E5A9C5A9E5A905AAE6A9A699D1
:10E60000A699E6A106AA26B2A7C2A7CAE8D228D32D
:10E6100049D389DBAADB8AE38ADB49DB29DB09DB17
:10E6200009DB09DB08DB08DB28E3ABDB09C3E59981
:10E6300002714371E68906828471C1586058438132
:10E64000E9C26AE328DB28E349E36AE34AE32AE311
:10E65000ECEBECEBADE3EFE3E8912010200842088F
:10E660004310AE61979A189A379A379A58A2169221
:10E67000F279873823396328F379789A369A149295
:10E68000138A3492358A169216926C72A638864096
:10E690008640A640A740A740A748A740C740C5302E
:10E6A0006218611061084008200021082008400815
:10E6B0002008211084282749886188618761A7691B
:10E6C000A67186798581858985898599C599E59918
:10E6D000C599E6A9E7B1C6A926AA87B206A24581CF
:10E6E000A368A26002612259E150E258C158A58195
:10E6F00088AA89BA68BA26AAE5A1E6B1E6A9C5A1A1
:10E70000A599A59906AA47BA46B2A7CAC8D208D3FE
:10E7100049D369DB69DB6ADB6ADB4AE34AE309DB8D
:10E7200029DB29DB49DB29DB4AE3A7AA8279089B9D
:10E730006DC492E534F6B5FE94EE8FCD8A932351E5
:10E74000204868A229CB29DB4AEB6AE389E36AE324
:10E750008BE3CCEBECE3EEE36BB220284000420805
:10E760006420AD61769A579A369A169A769A959A57
:10E770000B51E53861280A51389A369A169AF59164
:10E78000F491F4911492149235926C6AA6388640F2
:10E79000A640A640A740A740A748A740E740C530ED
:10E7A000621841104008400840082108400820082D
:10E7B00000084218C5386751886188618761A76978
:10E7C000A67186798581858185898591E699C59926
:10E7D000C5A107AAC6A147B247AA63816058E368EA
:10E7E000E6794BA38BABECB3EDB3CDA32A93C57104
:10E7F0002261E68968AAE6A106B2C5A9C5A1E5A17C
:10E80000C699A699C6A926B266BAA7CAC8D208D31D
:10E8100049D369DB69DB6ADB6ADB29DB09DB29DBDE
:10E8200009DB49E349DB29D304AA058A6ECCB3EDA1
:10E83000F0C4AFC411CD14E618FF57FFB5F6D3E509
:10E840006782004807A22AD34AE36ADB49DB69DB17
:10E850006BE3ACE3CCE3EEE3CCC282384000621061
:10E86000A528CE61769A379A169A379A569AD17910
:10E87000A738C4308330107A379A369A1592F491BB
:10E88000F489F489F489149235926C6AA63886402A
:10E89000A640A640A740A640A740A740E740C530F5
:10E8A000621821104008400841084108200820084B
:10E8B00021106320064188596861A861A869A76989
:10E8C00086718571857985818589A591C699A59976
:10E8D000E6A1C6A907AA27A2027180504882CDAB43
:10E8E00012CDD0CCF0CC51DD4EBC8B93E97AE97AD5
:10E8F000887264594369E69947B206AAE5A1C5A1A1
:10E90000C5A1C6A1C6A106AA67BAA7CAC8CA08D324
:10E9100029D349DB69DB69DB69DB6AEB08DB49E3A7
:10E9200029E3E8DA6BE387B2659AF1DC2EBCE56196
:10E93000C138E240E14884614B9B14E698FF14FF24
:10E9400053EE067A004027A26BDB6AE329DB49E33A
:10E950004ADB6BE3CCE3CEE32ECBC4482000610856
:10E96000A420EE61769A1692169A379A34920B5931
:10E970000641A3300849949A159A159AF591F4899D
:10E98000D389D389F389F48915926C6AA6388640B5
:10E99000A640A640A740A640A740A740E740C530F4
:10E9A0004218210820084008410841082008211089
:10E9B0008220E538475188618861A869A769A769FD
:10E9C000A6718571857985818589A591C599A59956
:10E9D000E6A1C6A1E7990271C158A98A4FB4D1C472
:10E9E000D7F6D7FE92D52A9322518038A1308128BC
:10E9F000E23885510351A158069247AA06A2C5A143
:10EA0000A5A1C6A1E6A906AA67BAA7C2C7CAE8D245
:10EA100028D349DB49DB69DB69DB08DB29DB08DB61
:10EA20004AE32AE387BA469231DD6B9BC14800284E
:10EA3000414000380038A2506148066AF2D575FF9F
:10EA400035FFF3DD84692050C9B28BE349E369E304
:10EA50004ADB6BDBACE3ADDB8FDB05590000410823
:10EA60008320CD61769AF691169A369AB171E74075
:10EA7000A651A430AE693592159A1592F491D389B6
:10EA8000B389D389D389F48915926C6AA6388640F4
:10EA9000A640A640A640A640A640A740E740A53015
:10EAA0004218210820084008400841082008822018
:10EAB000053947496859A961A969A869A769A7697A
:10EAC00086718571857985818589A589E699A5995C
:10EAD000C6A107A2E3708150888A0EB46FBCB3DD73
:10EAE00059FF35DE46624028403040382030413002
:10EAF00041308238C240E2484359069A27A2E6A133
:10EB0000A499A5A1E6A927B247BAA7C2C7CAE8D265
:10EB100008D329DB29DB49DB69DB8AE349E308DB2E
:10EB200029E3A8CA47AA4ECCCB9B224900302140FA
:10EB30000148025022486250A250A140C45953DEFD
:10EB400097FF15F78DBC4048C6894BE36AE369E33C
:10EB50004ADB6CE3ACE38DDBAFDB66692008610860
:10EB60006320CD61569AF691169A5592EC5847411A
:10EB70004439C6403382F591349A1592F491D38981
:10EB8000D281B281D281F389148A6C6AA538A63801
:10EB9000A640A640A640A640A6408640C740A53055
:10EBA0004318210841084008400820082110C328C4
:10EBB0006749885968598861C969A869A769A769B7
:10EBC00086718571857984818589C591A591C5995D
:10EBD000E6998589605006728CA3EDB3D0C414E623
:10EBE00035E6E97A0241076AA240214041404240AD
:10EBF00021386238E340E23802394471069207A2B4
:10EC0000A5A1A599E6A127B247BAA7C2C7CAE8D26B
:10EC100008D328D328DB49DB69DB08D329DBE8DA12
:10EC200029DBC8C22AB38FC46B930A938148625010
:10EC3000225001480140624800400030A138298339
:10EC400016F734F732E66682A258C9CA6AE369DB6E
:10EC50004ADB6CE3ACE3ADE3AFE3A7712008420805
:10EC60008528EF71359A16923592D1798840A74957
:10EC700062288C613592F591F3891492F489D289D6
:10EC8000B281B281D281F389148A6C6AA638A53820
:10EC9000A640A640A640A640A7408740C740A53052
:10ECA0004218210841084008200000084118E538B2
:10ECB000685169596959A961A861A769A769A769D4
:10ECC000A6718571847984818581C5918491E6A13D
:10ECD000C691E26023592B934B93CCABF0CC31D54A
:10ECE000CCA3C248287ACFABA24841404240613809
:10ECF0004130402840284020C130A250A68107A2C0
:10ED0000A599C5A1E6A127B247C2A7C2C7CAE8D242
:10ED100009D309DB28DB68DB69DB8AE349E329E304
:10ED2000E8D286A2AFD4ACA3A561656941400138A1
:10ED300000302128413062384140824841384349FF
:10ED400013DE55FFB3FE0DBC615027BA6ADB69E3E1
:10ED50006BE36CE38DE3ADE3CFE3C7710000220802
:10ED6000C7303182F599F59134922D61074965419B
:10ED7000A5303182F491F491D381F491D389B28199
:10ED8000B281B181D281F289138A6C6AA638A53822
:10ED9000A640A640A638A640A740A740C740853059
:10EDA0002218210841084000400000088220264126
:10EDB000885989618961C961C861A769A769A6691C
:10EDC000A671857184798481A481A589E699C59904
:10EDD0006481C1580772EA826C930EAC6FBC52DD3D
:10EDE000267A4040A350825061486240002820208B
:10EDF0004020602081286130413082486579C69981
:10EE0000A599C6A106AA26B267C2A7CAC7CAE8D2F0
:10EE100009DB29DB29DB69DB89DB8ADB49E309E3E1
:10EE2000E8CAE8AAAFCCC98240380148424821303C
:10EE30000018000800102028413801402138E14026
:10EE40002BA456FFB5FEB0D44569C6A96ADB89E399
:10EE50008BE36CE38CE3CEEBCFEB087A2000020867
:10EE60000941738AB599D489138AEA50E959E3288C
:10EE70006A51138293899381148AD489B389B281A8
:10EE8000B181B181D281F289138A6C6AA638A64019
:10EE9000A640A640A640A640A640A640C640A53033
:10EEA000431801002000400820002108A4288851B0
:10EEB00089598959CA61A961A961A869A769877136
:10EEC0008671A5718579A581A5898589C699C59120
:10EED00043790259887AEA824B93ACABAEC48EBCBC
:10EEE000435141480050204042302108200820086A
:10EEF00000084118813041284028A2386569868180
:10EF0000A699C6A106AA26B2A7BAC7C2E7CAE8D27E
:10EF100008D329DB49DB69E389E38AE36AE36AE32F
:10EF2000A7B229A36FBCE6716048215021400018A8
:10EF30000108420821080010613800404248404062
:10EF4000E792F5FE54FE53ED078A84998BE36AE35A
:10EF50008AE38BE3ADE3AEE3AEEBC77900002308B1
:10EF60004C51148AB491348A8F79A638EA61A7305B
:10EF70000F72F2819381B481D381D389D381B2811D
:10EF8000B179B179B181B281D2894C6AA638A640F3
:10EF9000A640A640A640A640A640A648A640A63841
:10EFA0006420010821006008200021100531A951CA
:10EFB00089598961CA61A961A969A869876987694D
:10EFC0008671857185798481A589A591A5918589A9
:10EFD00003698461C97A0A8B2B93AB9BCFC4CBA303
:10EFE000025161584160614800200010000821086A
:10EFF00000082120413041304128A1306561A681BF
:10F000008691E6A127B266B287BAC7CAE7CA08D313
:10F0100008D329DB69DB8ADB89E38ADB6AE38BEBD4
:10F02000A8BA2AA36FBCC57140486260414800205D
:10F030004108610062000010203021500148614801
:10F04000C68A73FE13FE52EDEAA2C5A18BE36AE302
:10F05000ABE38BE3ADE3AEE3CEEBE881000023103E
:10F060006D59148AB489F3810D618959EB59C838F7
:10F07000F071D281B389D381B279B381B281B17990
:10F08000B1799179B181B281D2894C6AA638A64012
:10F09000A640A640A640A640A640A6488640A64058
:10F0A0008428211021084108000022104741A95955
:10F0B000A961A961A961C961C969A86987698769E5
:10F0C0008671857185798481A589A591A591A58988
:10F0D000E360C669A97A2B8B2A93AB938EB4AAA35B
:10F0E000236941602060C25800200108410082006D
:10F0F00021080120423862384128C230076AE7817E
:10F100006589A5A126B287C2A7C2E7CAE8D208D3FB
:10F1100009D349DB69DB8ADBAAE3EBE38AEB4AE349
:10F1200088B24AA3B0C4478240508268047141301B
:10F130000000610020000010A348416001506150B0
:10F14000C79212F671E5F1E42BB306B28BE36AE3E2
:10F15000ABEBABE3ADE3CEE3EFEBA7790008031035
:10F160008D61F389B489D2798948EA618A596B51F2
:10F17000117A927973819381D281B2819279917956
:10F18000907990799079B181D2894C6AA538A6405E
:10F19000A640A640A640A640A640A6408640A6405F
:10F1A0008530221000084008200021106741C9590D
:10F1B000A961A961A961A961A861A869A869877104
:10F1C000867185718579A581A589C491C591A68926
:10F1D0000369E76989720A832A93AB8B2CACECAB89
:10F1E00064698168607003798150200020006000AC
:10F1F00040000120424042404130E230A982E68195
:10F200006489A5A126B2A7C2E8CA08D308D328D327
:10F2100029D349DB6ADBAADBCAE3EADBCBEB8BEB66
:10F22000E9C22AA36FB44B9B646923812381C26026
:10F230004038201840206140C36821684160405038
:10F2400069A312F6EFDCB0E44BBB87C26AE36AE362
:10F25000ABEBABE3ADE3CEE3EFEB86710000030075
:10F260008C61D1819481D27967382B6AE8404C59FE
:10F27000D1719379B48992799179928191799079C8
:10F28000907990799079B181D1814C6AA538A6386E
:10F29000A640A640A640A640A640C740A640C640FD
:10F2A000A538221800084000400001086741C959EC
:10F2B000A961A961A961C961C969A869A8698769C2
:10F2C000877186718579A581A589E599E5998589F3
:10F2D00044710772CA72EA7A2A8B4A83EBA34DB44F
:10F2E000E571E16843912391458961280010200868
:10F2F0006020614041482040403823412B93A58144
:10F30000A59106B287C2E8D228D329DB29DB49DBE5
:10F3100049DB69DB89DBAADBCAE3EAE3EBF3CCEB8D
:10F32000ACD34AA32EAC6EB4A7826281018102895C
:10F330000381C270E368E378817861686160236962
:10F340006DCC91ED8ED44EDC09BBE9D28AE36AE341
:10F35000ABEBACE3CDE3EEE3EFE3A6690100220003
:10F36000CB69118A727991718738508B6A59AF696C
:10F37000B171517193819179B179B1799179907924
:10F380009071907190799079B1814C6AA538A638C6
:10F39000A640A640A640A640A640C740A640A6401C
:10F3A000A640632821102000400001084639C959B1
:10F3B000AA61C961A961C961C969A869A8698769A0
:10F3C0008769867185798481A491A491E6A1C59904
:10F3D000A681E7718972C9722A832A8B6A938EB4D7
:10F3E0006A93C158A4914399E490C37082606150BC
:10F3F00041486150615000384038276A4BA38581ED
:10F40000C5A147BAC8CA29D349DB49DB49DB69DB57
:10F4100069DB8ADBAADBCBE3CBE30BEC2BF40CEC54
:10F420004DE4CBBB2DB4AFC44A932171C070C188E9
:10F43000E29803A1E390C28880788160A160E9A28C
:10F4400051E5AED42DD4ACCBC8BA6AE38AEB8AEBD3
:10F45000ABEBACE3CDE30EECEEE3866100082100FC
:10F460004B7A13AB9279506986308D720A49AF712D
:10F47000B2797279917991799079B1799079907125
:10F480008F716F716F719079B1792B6AA538A63839
:10F49000A640A640A640A640A640A640864086407C
:10F4A000A640A5384218000840080008E530C959B0
:10F4B000CA61AA61CA61A961C969C869A86987697D
:10F4C000876986718579858185918491E6A107AAEE
:10F4D000079AE679476AA9722A7B2A8B08834CAC83
:10F4E0008EB4E571627902898170A278C3806270FE
:10F4F0000058204840406040E2502A9BC9A206A222
:10F5000026B287CA28D369DB89DB6AE36ADB8ADB38
:10F51000AAE3CAE3CAE3EBE30CECEBEB6CECADF46F
:10F52000ADEC0CDCCCC34ECC2DB4678A0169E07025
:10F53000C18860886188E280A068E160E6814ECC85
:10F54000EFDC2CCCCCCB4BCB49CBCBEBABEBAAEB56
:10F55000CBEBCCEBEDEB0FECEEE3A671211800004A
:10F56000C77131B3927930696528B193ED69AF7194
:10F5700070715071917991799179907990716F71E1
:10F580006F716F716F719071B0792B6AA538A63861
:10F59000A640A640A640A640A640A7408640664892
:10F5A000A648E6486328000840080008A428C9596E
:10F5B000CA61A961CA61A961C969C869A769A77156
:10F5C0008771867185798581A591C599E6A906AA75
:10F5D00027A22782476AA86AC972E97A098B498BF0
:10F5E0008EB40DB46271C068C168A16860600060CB
:10F5F000205061484038E250898A4BAB069288BA65
:10F60000A8CAE8D249E3AAE3AADB8AE38ADB8AE351
:10F61000CAE3CBE3EBE3EBEB0CEC2CF46BECACECE4
:10F62000ACEC8EF40EE4EDCB4FCC2FC4A88A42692B
:10F630008068A2808180A1680161257A4EC431E58D
:10F640000CC4EBCB2ABB09C3CBDBECEBCBEBCBEB9A
:10F65000CBEBCCEBEDEB2FECCEE3088AA438000823
:10F66000A1504DA27171507165288D6A8C598F69B6
:10F67000B1799079907190717071907190716F699A
:10F680006E696E696F719071B0796C6A853065389A
:10F690008640C640A6408640A6406638E75068715E
:10F6A0008881C88145590018210800006218C9598D
:10F6B000CA69AA61CA69CA69C969C969A969A8691F
:10F6C000A7718671857985898491A59906AA06B264
:10F6D00026B247A206820662A8628972C9724A836C
:10F6E0006DACCFBCECAB478280504158415061506B
:10F6F000604880406361A8924AB369BAC8C2E8CA48
:10F70000E9D24BDB8AE38AE38BE3AADBABE3CBE30F
:10F710000BE42BD44BDC4CE40BE44BE48DF48DF484
:10F720008CF4ADF4EEF4AEE40CD44DCC2DC4CBB3DC
:10F73000E89A2582057AA7928AA3AFCC8ECC2CCCEE
:10F740008AC329BB69CBEBE32CF42CF40CF4CBEB90
:10F75000CCEBECEB0DEC2EECCEE36ABA05510000DD
:10F760004138497970816F714528D18B728B2C514A
:10F77000D1715069917190718F7190716F698F71B2
:10F780006E694E696F716F71B1796C6A85308538B9
:10F790008638A638A6408640A64008518971A981BE
:10F7A0008889C889466121200000000822188851F4
:10F7B000CA69AA61AA61CA69A961C969A869A8696F
:10F7C000A771867186798589A591C59906AAE6A94A
:10F7D00006B268B267A2067A066A476A8872297B0F
:10F7E000EC934DA44DA40DACACA36772E669C5695A
:10F7F000267AA88A2AAB6BBB0AC30ACB49D348D363
:10F8000029D38BE3AAE38AE3ABE38CDBACDB2DECFF
:10F81000EFF490F5D0F590F52FEDADE48DECADEC77
:10F82000EEF40EF50EF5EEF4EEEC6DD44DD42CCCDA
:10F830002DD42DD42DD44ED46ED40CCCECCBABCB5C
:10F84000AACBEBD32CE46DF46DF46CF44DF40CEC1A
:10F85000ECEB0CEC2DEC4EEC0EEC8ACA06590000D9
:10F8600041306A8190794F696630894973932C5190
:10F870009069D1794F6990718F6990716F696E69E4
:10F880004E694E696E698F71B0716C6AA5308538AA
:10F890008538A638A638A63885382859CA796781A8
:10F8A00026814681456941280008000821186851D1
:10F8B000EA69AA69AA61CA69A969C969A869A7693F
:10F8C000A771867186798589A591E69947AA27B29D
:10F8D00006B247BA67B226A2069A067A277A6772F4
:10F8E000A87AE882498BABA3CBA34DAC0CACECB3AC
:10F8F000ABBB6BBB4AC32ACBE9CA4AD389DBA9E3BA
:10F90000AAE3CBE3AAE36ADB4BDB4DD36DD34EE432
:10F9100091FD93FE15FFD4FE53F670F5CEE4ADE4F1
:10F920000EF56FFD4FF54EF52EF50FF5CEEC6DDCB7
:10F930000CDCCBD3ABD3AACB8ACB8AD3AADBEBDB51
:10F940000BE46CECADECADF4ADF4ACEC8DF42CEC64
:10F950002CEC2DEC4DEC4EF40EEC6AD2066900084E
:10F960006228AC7990714F69C8402528B8C40F72DD
:10F97000EC509071906990718F6990718F716E6980
:10F980006E696E696E698E698E696C62C538A5385C
:10F9900085388538A638A6388538C6506871A46879
:10F9A000A370C3700461412800080008211847496A
:10F9B000CA61AA69AA61CA69C969C969A869A7713E
:10F9C0008771867186798589A591C59947AA47BAB5
:10F9D00026BA26C247C247C267C268B267AA479A18
:10F9E000689A88A2A8A209ABE8AA08B3E8BAE8C254
:10F9F000E9C209CB49D36ADB4AE36ADBA9DBCAE384
:10FA0000ECEBECEBCBE34AD3EBCAACC2CBC28CD36E
:10FA1000CFE4F1F593FE73F632F672FDEFECCEEC27
:10FA20000EED6FF5AFF58FF54DED8FFD6FFD2EF5FA
:10FA3000CDEC6CEC2BE42BE42BE42BE44CEC8CF4C1
:10FA4000ADF4CDF4EDECEDF4CDF4CCECADF46DEC27
:10FA50006DEC6DEC4DEC6EF42FF429D206810110A3
:10FA600043208C6970696F614A5925286B51F6AB48
:10FA70008E616E618F696F696F694F696F694E69D9
:10FA80006E696E696D618E69AE694B62C538A53865
:10FA900085388530C638C640A640C64827616258BA
:10FAA0006268C368045920200000001062204749A2
:10FAB000CA61AA61AA61AA61A961C969A869A87194
:10FAC0008771877986798689A591A599C6A106B29D
:10FAD00026C287CA87D287D266CA67CA67C247C2A8
:10FAE00068C268BA88C2C8CAA7CA09D309DB09DBD9
:10FAF00029E38AE3ABE3AAE3AAE3CBE3EAE30BE47B
:10FB0000ECE3ECE3ABDB2BD38BC2C9A9E8A989BA40
:10FB1000AACB6CDCEDE4EEE4CEE46EEC4EECCFF47C
:10FB20002FF56EEDEFF50FF6EFF58EF58EED6EED30
:10FB30006EF54EFD4EFD4EFD2EFD2EF52DF50DF50F
:10FB40002EF54EF54EF52EF5EDECCDECCDECADEC05
:10FB50008DEC8EEC6DEC8FF44FF4E8D90691211802
:10FB600022104B5990696F616C61A7300418D39BC8
:10FB7000B4A36D594E61706990718F718F718E69E8
:10FB80008E696D696D618D69AE694B62A530A5386E
:10FB900085388538C638C640A640A64806598358D9
:10FBA000A36824792461202000002118E4386851DA
:10FBB000CA61CA61CA61AA61CA61C969A969887151
:10FBC0008771877986818589A591A5A1A5A1C6B1EF
:10FBD00026C267CA87D2A7D2A7D2A7DAC8DAC8D204
:10FBE000E9DA09DB09DB4AE329E36ADBABE3CBEBC8
:10FBF000CBEBCBE3CBE3CBE3EBE30CE42BE44CEC40
:10FC00002DEC0CE4ABDBEAC2E9A926914599C6A923
:10FC1000A8C249CBAAD3ABDB8BE32ADB2ADB4DF4AA
:10FC20000FF56FEDEFED2FEE4FF650FE0FF6CEED28
:10FC30008EED6DF58EF58EF58EF5AFF58FF58FF5B2
:10FC40008EF56EED4EED0DEDEDF4CCECCDECADECB6
:10FC5000AEECAEEC8EEC8FF44FF409DA06A101188D
:10FC600001002B51B0696F614C614A49452803205E
:10FC7000308BD8C4CF690D596F696E614D616E6963
:10FC80006E616E618E696D618E694B62A530A538BB
:10FC9000A5388538A638A638A6408540C650C46029
:10FCA000A370458165694120000821206649A9614A
:10FCB000CA61CA61EB69CA61EA61C969A969A871C7
:10FCC000A779A781878986918599A5A1A5A9E6B17C
:10FCD00006C206CA46CAA7DAC8DAA7DAC8DA08DB53
:10FCE0006AE38AE3ABEBCCEBABEBCBE3EBEBAAE366
:10FCF000CAE30BE42CE40CE40CEC2CE44CE46DECD7
:10FD00006DEC2CE4CBDBC9C26899E480E49045A19A
:10FD1000C6A926BA87C288CA68D207CA27CAABEB67
:10FD2000CEF46FF510F60FEE2FEE2FEE2FF62FF626
:10FD30000FF6CEF5CEF5AFF5CFF58EEDAFF5AFF50D
:10FD40008FF54EED2DE5EDECEDF4CDECADF48DEC55
:10FD50008EF4AEEC8EEC6FF42FF409DA06A12120BC
:10FD600021004B51B0696F612C618D61E940011038
:10FD70008428CB59B8BC57B4AD61AE694C596D619C
:10FD80002C592D618E694D618E694B62A530A53865
:10FD9000A5388538A538A538A6408638C650E56808
:10FDA000A368458165694128000800188751A96149
:10FDB000AA61AA61EA61A959EA61CA69A969A87137
:10FDC000A879A78186898591859985A1A5A9E6B994
:10FDD00007C206CA27D267D267D287D2C8DA09DB40
:10FDE00069E369DB6ADBCBE3ABE38BEBCBF3CBEB18
:10FDF000CAE30CE42CE40CE42DEC6CEC6CEC8DEC24
:10FE00006DEC2BE4EAE3E9CA88A10481E388E3907E
:10FE100003914499A5A9A5B144B144B9C5C1ACEBBE
:10FE2000CEFC2EEDF0F530F650F650F650F62FF6EB
:10FE30000FF6EFF5EFF5CFF5CEEDAFF58EED6EEDFC
:10FE40006EED6FED4EF50EF5EDF4CDF4CDF48DF4D1
:10FE5000AEF4AEF48EEC6FF44FF409DA05A161282C
:10FE600042004B518F694F612D610D596C612749DB
:10FE70000218021869496E6AB7BCD6ABD28A507AAA
:10FE80004D61EC584D61EC584E616B62A530A53860
:10FE9000A53885388538A638A638C630A648C56046
:10FEA000C468047186798238000020106761486157
:10FEB000AA61CA61AA61CA61AA61CA61C969A87155
:10FEC000A77987818689859185A185A185A9A6B90C
:10FED000E6C106CA06CA46D267DAA7DAA7DAE8DABE
:10FEE00029DB69E38AE3AAE3AAE3CBE3CBE3CBEB29
:10FEF000EBE30CEC2CE44CEC4CE46CE48DECADEC62
:10FF0000ADEC8DEC2CE48BD3E9C2C5A14391C28842
:10FF1000C288E290E290E29803A126C209DB2CECB1
:10FF2000EDFC6EFDCFF50FF60FEE30F62FF62FF647
:10FF30004EEE2EF62FF60FF6EEF5CFEDAEED8EED82
:10FF40006EED4EF52EF50DF5EDF4CDECADF4AEF411
:10FF5000AEF48DEC6EEC4EF42FFC49DA278942307A
:10FF600020182A49B1714F694E610D592C614C61BD
:10FF70002A59673803202320E5386A51318B15A4AC
:10FF8000738B98B4D3823593B3826C62A530A5305D
:10FF9000A5388538A538A638A638A6308540C55876
:10FFA000E46804716579823820002010475948615F
:10FFB000AA61AA61CA61CA59CB61CA61C969A8713B
:10FFC000A779878186898591859965A185A9A6B13B
:10FFD000E6C106C206C226D267DAA8DAC8DAE8DACB
:10FFE00029DB6AE38AE3ABE3ABE3CBE3CBE3EBE30D
:10FFF000ECE30CE42CE44CE46CEC8DEC8DECADEC1F
:020000040801F1
:10000000ADE48DE44DE40CDCABDB4BD3A8BAE6A940
:1000100084A143996399C5A967C24ADBEBEB8DF4D0
:100020000EF56EF5AEF5EFF5EFED10F630F62FF6B6
:100030002FEE2FEE2FF6EFF5CFF5AFF5AEF56EF50F
:100040004EF52EF50DF5EDF4CDECCDEC8DF48DF4F3
:100050008EF48DEC6DEC4EF42EF44BCA4981643075
:1000600000104A4990696F696E612D610C592B59D6
:100070008C618C61E8484428232001184328A5306E
:1000800006396C6A4C6AB293F3A38C6AA530A5302A
:10009000A5388538A638A638A638A6388538A548A4
:1000A000E558E470267982382000201046596969A5
:1000B000AA61AA61CB61CA59EB61CA61C969A87119
:1000C0008771877986898591A599859985A9A6B132
:1000D000E6B906C206C246CA87D2A8DAC8DAE9DAA1
:1000E00029DB4ADB6AE38AE3ABE3CBE3CBE3CBE395
:1000F000EBE30CE42CE42CE44CE46DEC6CE48CE4D9
:100100008CE46CE44CE44CE44DE4CCE3ABDB6BD32B
:100110004AD329CB29CB6AD3ECE34CEC8DECEEF43B
:100120000EF54EF58EF5AFF5CFEDD0F5F0F5F0ED1F
:10013000EFEDEFEDEFF5CFF5AFF58EF56EF54EF592
:100140002EED0EEDEDECCDECADEC8CEC6CEC6DF43D
:100150006DEC6DEC6DEC4EF40EF40DB22B71652868
:1001600001084A498F696F698E614E690C59EB58D5
:100170002B598D618C614A512951074984300220E5
:10018000221821180018612881306C6AA530A5302A
:10019000A5388538A638A638A638A6408538A538AB
:1001A000C550C568267982402000401826596869E4
:1001B0008A618B61EC69CB61EA61CA61C969A87126
:1001C0008771877986818691A599859985A1A6B140
:1001D000C6B9E6B905C246CA87D2A7D2C8D2E8DAFC
:1001E00009DB29DB49DB6AE38AE38ADBAADBABE3D1
:1001F000CBE3EBE3EBE3EBE3EBE30BE4EBE30BE46D
:100200002BE42BE40BDC0BE42CE42CEC0CE4ECE313
:100210000CE40CE40CE44CE46DEC8DECADECEDEC9A
:10022000EDEC0EED2EED4EF54EF56FF56FED6FF535
:100230006EF58FF56FF56FF54FF54EF52EF50EF562
:10024000EDF4CDECADEC8CEC6CEC6CEC4CEC4CECE3
:100250004CEC2CEC2DEC2EF4EEEBCD992C61862899
:1002600022108A516E616E696D614D614D614C6104
:100270004C614C614C596C59AD61AC616B59494949
:100280004849A538A438422821284B6AA530A53012
:10029000A5388538A538A538A638A640A538A53094
:1002A000A540A5582679A348000061202561477123
:1002B00069618A690D72EC61CA61CA61C969A87114
:1002C000A771877986818689A591859985A185A958
:1002D000A5B1C5B106BA26C266CAA7CAA7CAC8D2FE
:1002E000E8D208D329D349DB69DB69DB6ADB8ADB27
:1002F0008ADBAADB8ADB8ADB8ADB8ADB6ADB8ADBD6
:10030000AADBAADBAADBAADBCBE30BE4EBDBEBDBB0
:100310000BE42CE44CE46CEC6CECADECADECADEC33
:10032000ADECADECADECADECADECCDECCDECCDECA5
:10033000EDF4EDF4EDF4EDF4EDF4EDF4EDF4CDF4D5
:10034000ADF48DF46CEC6CEC4CEC2CF40CEC0CEC93
:100350000CEC0CEC0DF40EECCEE3AC894C61A73048
:1003600022188B514E614E694D612D614D616D6159
:100370004C614D612C592C592C594D596D616C595A
:100380004B592A516A5929514A594B6A8530A5302F
:10039000A5388538A538A538A638A640A638A53092
:1003A000A53884480669C44800006128256126698B
:1003B00067696A69EC710C6ACB61CA61A969A8694D
:1003C000887187718679868185898591859965A1EE
:1003D00085A9C6B106B226BA26C286C2A7C2C7CAB6
:1003E000C8CAE8CAE8D208D329D329D329D349D324
:1003F00049D349D329D329D308CB09D309CB08CB77
:1004000029D329D349D349D36ADB89D3AADBCBDBF0
:100410000BE42CE44CEC6CEC8CF48DEC8DEC6CEC83
:100420004CEC4CEC4CEC2CEC2CEC2BEC2BEC4BEC8F
:100430004CEC4CEC4CEC6CF46CF46CEC6CEC6CF444
:100440004CF44CEC2CEC2CEC2CECECF3EBEBEBEB61
:10045000CBEBCBEBCCF3ADEB6DDBAB896C69A730B1
:1004600022206B594E614E694D616D614C612C5972
:100470002B592C592D594C596D616D614C612B597B
:100480000B592B594B592B598C614B6A8430853051
:10049000A5388530A538A638A638A538A638A63898
:1004A000A5388438E550C4400008622825690469ED
:1004B00046614869CC712D72CB61CA61A969A8698E
:1004C00088718771867985818589A591A59985A18E
:1004D000A6A1C6A9E6A906B226BA66BA66BA87C2B6
:1004E00087C2A7C2A8C2C8C2C8C2C8C2C8C2C8C23E
:1004F000C8C2C8C2A7C2A8C2A7BAA7C2A7C2A7C279
:10050000C8C2C8C2E8CAE8CA09D349D36AD36AD301
:100510008ADB8ADBAADBEAE32BEC2BEC2BE40BE493
:10052000EBE3EBE3CAE3CAE3CAE3AAE3AAE3AAE381
:10053000CBE3CAE3CAE3CAE3EAEBEBE3EBEBEBEBB7
:10054000EBEBEBEBCBEBCBEBCBEB8BF38BEBABEB53
:100550008AEB6BEB8CEB6DE30CD36A796D696738D2
:1005600043286B594F694D614C616D616D616C59E8
:100570004C594C592C512C594C614C592B590B59F5
:100580002B592B590B592B594B594B6A84308430BA
:1005900085308530A538A638A638A538A638A638BF
:1005A000C6386430C540A438001062302569E3685D
:1005B000256927618B694E72CC61CA61A969A869F6
:1005C00088718771867985818581A589A591A6998C
:1005D000A699A699C6A106AA06AA26B246B246BA06
:1005E00067BA67BA67BA67BA67BA87BA67BA67BAE3
:1005F00067B267B247B247B247B246B266B287BA8D
:1006000067BA87BA87BAA8C2C8C2C8C2E8CA09CB43
:1006100029D349D389DB89DB89DBCADBCADBCADBA7
:10062000AADBAADB89DB69DB69DB69DB49DB4ADB47
:100630006ADB6ADB69DB69DB8AE389E38AE3AAE3D5
:10064000AAE38AE38AE38AE38AE36BEB6BEB6AE370
:100650006AEB4AEB4BEB2CE3ECCA29712D61473076
:1006600044286C596F614D596C592C594C594B5950
:100670006B596C592B592B596C614C594C612B5946
:100680002B59EA500B514C612C592B628530653047
:1006900085388538A538A538A638C640A5388538A8
:1006A00086388538A538A428000842306671C370A2
:1006B000C46827696B69EC710C6AAA69A969A869A1
:1006C000A76987718779867965798589A589A591D3
:1006D000A591C599C5A1E5A1E6A906AA06AA27B2D2
:1006E00027AA27AA26AA26AA26AA26AA26A246A278
:1006F00046A2269A059A059A269A05A226A226AA15
:1007000026AA47AA47AA47B288B287BAA7C2C8CAC8
:10071000C8CAE8CA08D329D329DB48D348D348DB61
:1007200049DB49DB29DB08DB08DB08DBC8D2C8D2A0
:1007300009DBE8D2E8D208DB08D329DB48DB49DB58
:1007400049E349DB29DB29DB4AE34AE349EB09E3D7
:100750002ADB4ADB29E32BE32BB2CA604B618738E3
:1007600047308C594C594D596D594C594C594C592D
:100770002B594C592C592C592C594C592B590B5934
:100780000B590B590B592B594C592B62853065303D
:1007900085388538A538A538A638A538A5388538D0
:1007A000A638A538C538A428011062306671E578EE
:1007B000057126692861AB712C72AA69AA69C96999
:1007C000A869A7718671657985798581A589C589AB
:1007D000C591C591C599C599C599E5A106A206A27D
:1007E00026A206A206A206A206A2069AE599C5912D
:1007F000C491A491A591A591A591A591C591C591EB
:10080000C599E69906A206A247AA46AA66B266BAA2
:1008100066BA86BAC7C2E8CAE8D2E8DAE8DAE8DA3D
:10082000E8DAC8D2C8D2C8D2C8D208DBC8D2A7CAB0
:10083000A7CA87CAA7CAC8D2C8D2C8D2E8D2E8D243
:10084000E8DAE8DAE8DA09DB09DB09DB09E3E9DA07
:100850000ADBE8DAE8E20CDB8991CA584B616738B9
:1008600047306C594C594C594C594C592B592B59B0
:100870002B592B592B592B592B592B592B590B5978
:100880000B590B590B592B594C592B62853065303C
:1008900085388538A538A538A538A538A5388530D8
:1008A000A638A538C638C528211042286769277997
:1008B0006779466905616869EB79CB69AA69A961BD
:1008C000C869A7696669657185798579A581C581DA
:1008D000C589C589C591C591C591E599E599E59900
:1008E000059AE699E591C591C591C489A489848149
:1008F000648164816481648144818489A589858956
:10090000A589C591C691E699069A26A246AA46B23D
:1009100046B266B2A7BAA7C2C8CA87D287D287D260
:1009200087CA87CA87CA87CA87CA87C287C267C277
:1009300067C267C246C226C246C287CA87CA87D272
:10094000A7D2A7D2A8DAC8DAC8E2A8DAE8DAC8D209
:10095000E9DA87DAA9E2ACCA2879EA584B59673054
:1009600067304B592C592C594C592B592B592B5911
:100970002B592B592B590B590B592B590B590B59D7
:100980000B590B590B592B594B592B62853065303C
:1009900085388538A5388538A538A438A530853000
:1009A000A538A538C638C530221041200759086936
:1009B000A87986710461E5604869EC71CA69A9612A
:1009C000A869A86987718571857184798579A58100
:1009D000A581A589C589C589C589E591E591C59197
:1009E000C591C591C591A589A5898381637943790D
:1009F00023792371037124716579647984818481F9
:100A00008481A589C589C591E691E69906A206AAC1
:100A100026AA46B266B267BA67C2A7C2A7C2A7C271
:100A2000A7CAA7C287C287C267BA26BA46BA05B2A2
:100A3000C5A9C5B1C5B1C5B106BA26BA47C267C214
:100A400067CA67CA67D287D287DA87DAA8DAA7D2F5
:100A5000A7DA67DAAADA2BAAE860EB584B596730B5
:100A600067304B592B592B592B590B590B590B5993
:100A70002B590B590B590B592B592B590B590B59F6
:100A80000A590A590A512B592B592B628530653066
:100A900085388530A53085388538A438A53085302F
:100AA000A530A538C638C53022184220C648C758D8
:100AB0008869A6692461A358A5508A61AA61C96999
:100AC000A961A869A769A671847164718479A581F7
:100AD000A581A581C589C589C589C589C591A59106
:100AE000A591A591A5898489648163814379237146
:100AF000E268A1588150E3506461236964716471B4
:100B00008479A581C581C589E691C591E699E6A15B
:100B100006AA26AA46B267BA67BA86BA86BA86BA5B
:100B200086BA66C246BA26BA06B2C5A9E5B1A5A17B
:100B30006499849984998499C5A1E6A906B226BAD4
:100B400026BA46C246C246CA47CA67D287D287CAB1
:100B500066D268DA6BCA4981C858EB504B5166308F
:100B600087384B592B592B592B592B592B592B590A
:100B70002B590B590B590B592B592B590B590A59F6
:100B8000EA58EA500A512B594B592B62853065308F
:100B90008538853085308530853885388530853095
:100BA000A5308538A538A5302218632085388648B9
:100BB00027516659045983506440E7486959EA69E6
:100BC000C969A869A769A66985698471A479A479A6
:100BD000A5818481A581A589A589A489A489A489E1
:100BE000848984898489648963818489648144795E
:100BF0002371A158204020386138C2500259236126
:100C0000446184698471A579C581C589C591C599F7
:100C1000E59905A226A246B267BA46B246BA46BAD6
:100C200026BA26BA27BAE6B1C6A9A69985996491CB
:100C3000438923892381438964898599C5A1E5A9CD
:100C400006B226BA26BA26C227C266D267CA87CAA1
:100C500046D268D20AAAC860C950EB502B51463020
:100C6000A7384B592B592B592B512B592B592B59F1
:100C70002B590B590B590B590B592B590A590A5916
:100C8000EA58EA58EA582B594B592B62853065309F
:100C900065308530853085308538853885308530BC
:100CA00085308530A538A53822206320A5388640B8
:100CB000C640C540C44884408440653807498959C6
:100CC000C961A8618761866985698469A471A4790D
:100CD000A4798481A481A581A481A481A589A58901
:100CE000A489A4918489A489A489C491C591A58962
:100CF00085812471A258204000304038A140C24074
:100D00000249235123594361646963798379A48932
:100D1000C489C489C489E591059A05AA05AA05B2C2
:100D200005AA06AAE7A9A699659145810379C2702B
:100D3000E27802790281438984918599A5A1C5A9A8
:100D400006B206B226BA27BA27C246CA67C247CA3F
:100D500006CA08BA4979C950CA500B512A5166309F
:100D6000C8384B592B590B512B51EA500A512B596A
:100D70002B590B590B590B590B590A590A590A5936
:100D80000A590A590A592A594B592B62853065303C
:100D900065308530853085308538853885306430DC
:100DA00085306530A538A53823204320A638A640D5
:100DB000A538843084408440A5386538C640275122
:100DC000A959A961A869866985698361A469A47123
:100DD00084798479A481A481A481A581A581C58910
:100DE000C591C591C591E5910592059AE591C59189
:100DF000A589A6898679046141486130A238E23824
:100E00000341034923514459656163718379A48186
:100E1000E489C481A381A381A489639164916391CE
:100E2000648964814479C360615000480048A160CE
:100E30006479848984898491649164998599C5A130
:100E4000E6A9E6B106BA06BA07BA25BA47C2E7C1AB
:100E5000C6C1A7A1A758EA50CA500B512A51663003
:100E6000C8404A512B590B510B49C948EA480A510D
:100E70002B592B590B590B590B590A590A590A5915
:100E80000A590A590A592A592B594B62853065303B
:100E900065388538853085308438853085306530D3
:100EA00085388538A538C53843204428C638A53844
:100EB000A640A538A638A638A638A6388538C64034
:100EC00027518861A861A6698569A461A469A4699C
:100ED0008471A471A479A479C479C581A581C589D7
:100EE000C591C599E699069A069A069A069AE591D9
:100EF000E591E691C689C6898689E358A240A23861
:100F0000033923392441A659497226722572099B57
:100F10006BABE99AC5794BB32AB387A22692278295
:100F2000E669855962380028002800380369279A45
:100F300027A2E5A1C5A1C5A1E6A9C5A9C6A9A6A9DB
:100F4000C6A9E5A906B2E6B1E6B907B2E6B9E6C1B7
:100F500087A1C870AA50EB48EB50C9502A51873876
:100F6000E8404A51A9481493BBC4969BEF69CA4014
:100F7000EA484B592B590A512A592A590A51E95022
:100F80002A512A51C948CA480B594B6284306430EF
:100F900065386530853084308538853085306530FA
:100FA00085388538A538C53063204420C638A53833
:100FB000A640A538A638A538A638A638A53885385D
:100FC000C64047598861A7698561846184618469E5
:100FD00083698471A471A479A479A581C581C58927
:100FE000C591C591E699E699069A069A069AE69100
:100FF000E591E691E689C689A689E899868904691A
:10100000C250613840206020C1208130E340076A2F
:1010100028726559C240697ACA8A076A4451E34016
:10102000C340824000382148A360E69968AAC9BA43
:10103000C8C267BA46B226AA06AAE5A9E6A9C6A901
:10104000E6A9E6A9E6A9C6B1C6B1C6B1E6B1A7A1AF
:101050000779A858EA480B51C950EA582A51A838CC
:10106000C940EA48317ABCC4FFE51FEE5DD5959BC7
:101070008D598938EA482B51EA48EA50EA48A94094
:10108000A9400B51AE69D38AF7B34A628430643009
:101090006538653085306530653065306430643082
:1010A00085308538A538C53063204320C538A5383C
:1010B000A6388538A538A538A538C638C638A53825
:1010C0008538C64847598761A7618561656164694C
:1010D000646983698471A479A479A479C581C58977
:1010E000C591C591C591E599E699069A069A069229
:1010F000E591E589E689C589C589A589C691E799FC
:10110000C79186812469C248813841280020002087
:10111000002000180018612800202120002000284D
:101120002040A260248107AAA9C2E9CAC8CAA8CAE5
:10113000C7CAA7C266BA46B226AA26B206B2E6A9AE
:10114000C6A9A5A9A5A9A6A9A6A984A9659948790A
:101150000961EA48C948E950C850E950EA484830AE
:10116000AB40B0615BB49FDD5FD59EDD1FEE5FF6E7
:101170009DDDD6A350728D594C512C51EF69F38AE5
:10118000F7ABDBC47EDD9FE5BFE54A6284306430A7
:101190006438653085306530653065306430643082
:1011A00085308530A530C53063204320C530A53853
:1011B000A5388530A538A5388538A638C638C64044
:1011C000A5388538C6484759876165616561646996
:1011D000646963698371A471A471A479A481C589C8
:1011E000C589C591C591C591E691E591E691E591D5
:1011F000E589E589C589C589C5890582058AE5919D
:10120000C691A699E799E799E791C689A689858944
:10121000448124794479458144818579C68927A20E
:1012200048B288C2A7CAC7D2A6D2A7D287CA86CADE
:10123000A6CA86CA66C266BA67B226B206B2C6A98E
:10124000A5A9A5A9A5A9A5A9A6A1C6A92681C850F1
:10125000C948EA48E950E95009510B59CA482930B0
:10126000126A9CBC1FC5DEBC1FC59FD57ED5BFDDE5
:101270001FE65FEE1FEE7DD5DBC4DCC47EDDDFE55F
:10128000BFE57FDD3ED51DCD1ECD4A628430643082
:101290006430853085306530653084308530643029
:1012A000853064308430C43063204320C530A5309D
:1012B00085388530A538A5388538A638C638E6384B
:1012C000C638A5388538E64847516661656164616E
:1012D0006469636983698371A3718371A479C5812A
:1012E000C581C589C589C591C691C591E591E58935
:1012F000E589C589A581A481C481C589C589C589B8
:10130000C589E591E591E699E59906AAE5A9C5B1F2
:10131000E5B107BA68C227C247CAC8D287CA67CA36
:1013200087D266D266CA86CAC6D2A7CAA7CAA7CAC1
:1013300087CA87CA66C246BA46B2E6B1C6A9A5A997
:1013400085A9A5A9A5A985996591A570C760E9504A
:10135000EA48E950E950C950CA48AA48AA40EC48AE
:101360001AAC3FC5FEC47FCD7FD59FD59FDDDFDDA5
:10137000BFDD9FD5BFDDDFE59FDD7FDD7FD51ECDE6
:10138000FECC1ECD1DCDDCC4DCC44A62843064308A
:1013900084308530853084306430843084308530CA
:1013A000853064308430C43063204320C5308538B4
:1013B00085388430A538A5388538C638A538C5386D
:1013C000C638A6388638A538C540265145596559CE
:1013D0006461636963696369836983718471A479F2
:1013E000A481A481A581A589C589C589C589C58927
:1013F000C589A581A581A481A581A589A581C5816E
:10140000E581E581C489C489C591A489C591E5A117
:10141000E5A1E6A9E6A9E5B126BA25BA26C226C203
:1014200067CA47CA67CA47C267C287C287C267C25C
:1014300046C246C247BA06B2E6A9A6A9A6A9A5A170
:10144000A5A1A5A18599458925710961C958A94812
:10145000EA500A59C95069408A388E593593117239
:10146000BCBC7FCDBFD5BFD5BFDD9FD57FD57FD5D8
:101470009FDD5ED5FDCC1DCD1ECD1ED53FD53ECD0D
:10148000FDCCDCC4BBBCBAC41BCD2A62842864304A
:1014900084308428843084306430843084308430D4
:1014A000853064308430C53063204320C5388538AA
:1014B00085386430A530A530A530A530A530A538D5
:1014C000C638C638A638A538A538C540E5482551E0
:1014D00044594461446163696469836984718471B6
:1014E000A479A479A481A481A481A481A481A581E3
:1014F000A581A581A581A581A581A579A579C581AC
:10150000C581C581A58984898489C691C699C599F3
:10151000C5A107AAE6A9E6B1E6B126B247BA26BA3E
:1015200026BA06BA68C248C227BA47BA47C226BA1C
:1015300006BA06BA06B2E6B1C5A986A185A1859903
:10154000849965912589E768C758CA50CA50CA4826
:10155000CA48684048382C51D3821CCD3DD51593DC
:10156000DFE5FFDDDFDD9FD53ED53FD53ED53ED55E
:10157000FDCCDDC4FDCC1ECDDDCCDDCCDDCCDCCCAA
:10158000FCCC1BCDFACCF8C4F8C42A5A84286428B1
:1015900064288428842884308430843084308430E3
:1015A00085306430A430C53063204320C538853889
:1015B00085386430A530A530A5308530C538C638AB
:1015C000C638A638C638C638C5386538A540E54897
:1015D0002559246144614469446963698369836965
:1015E0008471A479A47984798379838184818481C5
:1015F000A48185818581848184818479A481A48169
:1016000064818481A581C681C681A689C591A59181
:10161000A591E699E69926AAE5A1E6B1E5B1C5A9A5
:1016200026BA05B206B205B226BA06BAE6B9E6B9D6
:10163000E6B1C5B1A5A9A5A1A4A185A1859984916B
:1016400064892481E670C860CA48A940A940A948B5
:101650006C597172969BFBC43FF65FEE3DCD35939E
:101660009FDD5ECD1DC55FD5DECCFECCDDC4FDCCDF
:101670001ED51ECDFDCCFDCCFDCCBBC4FCCCFBCC23
:10168000DAC4D9C4D7C4D6C416CD2A5A632863286D
:10169000843084308430642884306428843064301A
:1016A00084308430A430C53083284320A530A53051
:1016B000853085306430A530A53064306430A53085
:1016C000C538C638A538A538A638C538C5388530D8
:1016D000A5380649255924614469436963698369CA
:1016E000A369A36983698471647984798479A4790D
:1016F0008479847984798479A481847984798479DA
:10170000848184818481A481A4818481858985895F
:10171000A591C599C599C5A1C5A1C5A1C5A9C5A9C9
:10172000C6B1E6B1E6B1E6A9C6A9C7B1C5A9E5A9A2
:10173000E5A9A6A166A166A945A1659185916581E6
:101740000569A55087408948CB488E59D3825AB441
:101750003DCDDFE51FE6DFDD7FD51FD5DEC45CBCF8
:10176000BDC4FECCFECCFECC9DC4DECCFECCFDCCFC
:101770001DCD1DCD1CD51BCD1BCDDBCCDACCF9C4CA
:1017800018C517C5F6C4F6C4F6C42A6263286328D0
:101790008428843084308428842864288430643009
:1017A00084308430A430C53083284220A430A53052
:1017B000853085306430A530A530643064308530A4
:1017C000A538C638A538A538A638A530C638A538F6
:1017D0008538A540E550045104594361436143698C
:1017E0006369636963718471A47164718471A471A4
:1017F000A471A471847184718479847984798479E1
:1018000084798479847984818481A4818489858997
:101810008591A591A591A599A5A1A5A1A5A1A5A1F0
:10182000A5A1A5A1C6A9C6A1C5A1A6A9C6B1A5A9DC
:101830004499649985998591A5894581E470C5602D
:10184000A7508748CA48517A18AC5ED5BFDDDFE59E
:10185000BFDD7FD53ECDFEC4BEBCBFC4DFCCBEC4A1
:10186000FFCC1FCDDDC4FECCDDCCFDCCFDCCFCCC53
:10187000FCCCFBCCFBCCDACCDACCD9CCF8C418C588
:1018800017C516C5F5BCD5BCD5BC2A62632863282C
:101890006428843084308428842864288430643028
:1018A00084308430A430C53063282220A430A53091
:1018B00085308530643085308530853084308430A3
:1018C000A530C538C638A538A538A638A638A638F4
:1018D000853885388538C540E5482351235923612B
:1018E0004369437163716369636163698369847187
:1018F000A471A471847184718471847184718479F8
:101900008479847984798481A4818481848184899F
:10191000848985898491A591859985A185A185A1D1
:1019200085998599A599A599A599A6A145994499BF
:1019300065A16499638984798469056185506748E4
:101940004D59D48A5BB47ED5FFE53FD53FD5FFCC5A
:10195000BFC49EBC9DBCBEC4BFC4BEC4DFCCFFCC54
:101960003FD51ECDDDCCFDCCFDCCFCD4DCCCDBCC1E
:10197000DACCD9CCD9C4D8C4B8C4F7C4F7C416C516
:1019800016C515BDD4BCB4BCB4BC2A626328632898
:1019900063288428843084288428843084308430E8
:1019A000843084308430C43064284320A430A5308F
:1019B00085308530643084308430843084308430A5
:1019C000A530A538C538A538A538C738A530A538FD
:1019D000C64086388630C6382739244924492451E0
:1019E00023614361436922692269436963696371C1
:1019F0006371837184718471847183718371847163
:101A0000847164718479847984798379648164814F
:101A10006481848984898591859165998599859961
:101A2000859165918591859965998491A591869116
:101A3000659143890379E460C55087404B59D48A46
:101A40007CBC5FD55FD51FCDDEC4DFC4BFC49FC4DF
:101A50009FC47EBC9EC49EC4DECCFECCFECCFECC1D
:101A6000FDCCFCCCDBC4FBCCFBCCDACCDACCD9C4CF
:101A7000D8C4D8C4F7C4F7C4D6C4F6C4F5C4F5BCFA
:101A8000F4BCD4BCB4B4B3B4B4BC2A626328632835
:101A90006328642884308428842884308430643027
:101AA000843084308430A53064284328A530A530A4
:101AB00085308530643084308430843084308430A4
:101AC0008430A530A538A538A538C630A530A4384F
:101AD000C538A630C7302831472945414539243912
:101AE0000339034123512361236923712371437116
:101AF0004371637163716371637163696369637176
:101B00006371637163716371637163796379638115
:101B10006481848184898489859164898491849194
:101B200064916491649165914591438965812471C3
:101B300004692569A45886502A5936937BBC5FD521
:101B40003FCDDFC4DFC4DFC49FBC5EBC5DBC5EBCF8
:101B50007EBC9EC49EC4BDCCFDCCFDCCDCCCBBC445
:101B6000BAC4DAC4D9C4D8C4D8C4D8C4D8C4F7C491
:101B7000F7C4F6C416C516BDF5BCF5BCD5BCD4BCBF
:101B8000D4BCB4B494B493B494B42A6263286328E4
:101B90006328642884308428842864288430632857
:101BA000843084288430A53064286428A5308530AA
:101BB00085308530643084306328843084308430CC
:101BC0008430A530A538A538A5388530A530A43097
:101BD000A530C7304A316929271925292521042133
:101BE0000321032903390349045904612461446929
:101BF000446964716371637143696369637163719B
:101C00006371637143716471647163716379647941
:101C10006379648164816481648964896489638986
:101C20006389648964896489448144814571A761B9
:101C3000274965380A5114939BBC5FD5FFCCBEC4BD
:101C4000BEC4BEC47EBC7EBC7FC49EC47DBC9CC4DE
:101C5000BDC4BDC4BCC4BBC4BAC4D9C4B9C4B9C46E
:101C6000B8C4B7C4D7C4D6BCD6C4F7C417C5F6BC6D
:101C7000F6BCF5BCF5BCF5BCF4B4D4BCB4B4B4B497
:101C8000B4BC94B474B473B474B42A5A632863288B
:101C9000632864288430842884286428842863285E
:101CA000843084288428A53064308428A530853089
:101CB00085308530843084306328843084308430AB
:101CC00084308430A538A538A53865308430A430F8
:101CD000C62829316B296921261105110511251105
:101CE0002511041904210329E4280441044104496D
:101CF00024514359436143694369437143714371BB
:101D00004371447144714471447163714371437907
:101D10006379637963796379438164814481438121
:101D2000238944814479447124614551C7514A5201
:101D30004D52D37A7CBC5FD5DFC4DFC4DFC4BEC4E0
:101D40009DBC7DBC7DBC7DC47DC47CBC7BBC9AC479
:101D5000BAC4BAC499C498BC97BC97BC96BCB7C463
:101D6000B6C4B6C4D6C4B5BCD5C416C5F6BCF5BC9D
:101D7000F5BCD5BCD4BCD4BCB4B4B4B4B4B494B481
:101D800094B473B453B453B473B40A5A8328632815
:101D90006328632884288428842864288428632866
:101DA000843084288428A53084308428A530643089
:101DB0008530A53084308430632884288430A43072
:101DC00084308430A530A53885388638643084283E
:101DD00007318B316B2928114611461146114611E6
:101DE000251105110411241144110421E420C328F4
:101DF000C238E240035123614361236923692369A7
:101E000023692369436944694469436943714371A0
:101E100043796379637943794381448123810381E1
:101E20000379037123690351E340E629A93A6A3231
:101E3000315B1EBD1FD53EBCBFC49DBC7DBC7DBCFF
:101E40007DBC7DBC7CBC7CBC7BBC7BBC79BC78BCD9
:101E500077BC77BC77BC96BC95BCB6BC95BCB6C409
:101E6000B5C4B6C4F6C4B5BCD5BCF5BCF5BCD5BCD0
:101E7000D5BCB4BCB4BCB4BCB4BCB4B494B493B41A
:101E800073B453B452B452B473BC2A5A632863284F
:101E900063284328632864306430642864286428F5
:101EA0006428642884288430843084308430A430CA
:101EB00084308430A430A430843063308430843063
:101EC00084308530A530A538853084384428A93041
:101ED000CE418B216811461946214611451125191D
:101EE0002519251925112511051146112511E3087C
:101EF000820862108220C330E3402459E360E36823
:101F00002369436943612469047123694471236926
:101F10004369637143694371227165612461E358C8
:101F2000E250226122616449C6292B222832A82A64
:101F30000D3BD6A37EDC7EC45BC45CBC7CBC7DC494
:101F40007DBC5CBC5BBC5AB459B456B456B476B4D0
:101F500075B475B495B495BC95BCB5B4B5B4B5BC01
:101F6000D5BCD5BCD5BCD5BCD5B4D5BCB5BCB4B43A
:101F7000B4B4B4B494B494B494B473B474B473B443
:101F800053B453B433B433B474BC2A5A63286328AB
:101F900063284328632864306430642864286428F4
:101FA0006428642884288430843084308430A430C9
:101FB00084308430A430A430843084308430843041
:101FC000843084308530A538A538833086304B4145
:101FD0008B314919481126112519661145194519E2
:101FE000451945192519251125112511051104112A
:101FF000C310820841086118A2280451E358C36045
:10200000C2600261236123610369E4602469E368BB
:1020100003710371C360E350E34081284128E24823
:10202000225121596361A549C6294A22293A6B2ABE
:10203000CD42B19B79D47EBC5DBC5DBC7DBC5CBC3B
:102040005BBC5AB439B458B456B475B475B475B4ED
:1020500095B495B495B495B495B495B495B494B439
:10206000B5B4B5B4B5BCB4B4B4B4D4BCB4B4B4B4FD
:10207000B4B494B494B494B494B473B473B473B463
:1020800053B453B433B433B473BC2A5A63286328AB
:102090006328432863286328632864286428642805
:1020A00064286428842884308430843084308430E8
:1020B0008430843084308430843084308430A43060
:1020C000843084308430A530A538832009310E5205
:1020D0006931271948194711451145114519451905
:1020E0004519251925192511251105190519241931
:1020F0002419E408820061088110E340045104615E
:10210000E368E260226123690261E460047103799B
:102110000479E468A348832083088110C2284349D6
:102120008259A261A3618441072A6A222A3A2D3288
:10213000AC4AAC9B55CC5DC45EBC5EBC3DBC5BB4E4
:1021400039B438B456AC55AC74AC74B494B494B4DB
:1021500094B494B4B4B4B4B4B4B4B5B494B4B4B49E
:10216000B4B4B4B4B4B4B4B4B4B494B494B494B48F
:1021700094B494B494B473B473B473AC73B473B4CC
:1021800052AC52B432B432B473BC2A5A63286328B6
:1021900063286328632863286328632863286328E7
:1021A0006328642864288428843084308430843010
:1021B000843084308430843084308428842884308F
:1021C000843084308430A530A53084206C412F5A6F
:1021D000883945294719471186114511451145117F
:1021E00045112511251125112511451925192419E8
:1021F000451945110409A20861086218A330045169
:10220000E460E36803690269026903692371037981
:102210000369C248812061086200C21843394151F4
:102220006159A2618349A631492A4A2A4A324C326D
:10223000A95288A332DC3CCC5DB43DBC3BB438B47D
:1022400037AC56AC75AC74AC93AC94AC94AC94AC69
:10225000B4B4B4B4B4B4B4B4B4B4B4B4B4B494B45E
:10226000B4B4B4B4B4B4B4B4B4B493B493B473B4B1
:1022700073B473B473B473B473B472AC73B452AC58
:1022800052AC52B432B432B453BC2A5A63206328DD
:1022900063286328632863286328632863286328E6
:1022A0006328642864288428842884308430843017
:1022B000843084308430843084308428842884308E
:1022C00084308430843084308530A728AD49CD51A6
:1022D000C849643125212611851146116611661100
:1022E0004611451125192519451145114519241186
:1022F000251145114519E410A20861008210A33090
:10230000C348E46003692371237143712371E4605E
:10231000A340A2188100A110E3284441425120614A
:10232000A1718259643128322A222A324A328B32F0
:10233000C95267A3EFE318D45BB41AB418AC36AC37
:1023400055AC54AC74AC94AC93AC94AC94AC94AC2D
:1023500094AC94B494B494B494B494B494B494B445
:1023600094B494B494B493B473B473B473B473B4B2
:1023700073B473B473B453B453B452AC52AC52ACE0
:1023800032B452B432B432B453BC2A5A63206320FC
:1023900063286328632863286328632863286328E5
:1023A0006328632863286328842884308428842849
:1023B00084308430843084308430A428842884306D
:1023C000843084308430852885282A41CE516A495A
:1023D000C751644103292521441946194611661144
:1023E000661146192519251924112511451145197C
:1023F0002411251145192519E318E308A2086210D4
:102400008228C340E450E358E360E250C35084386C
:1024100063188300A200C2180441A461A2698171FB
:102420000382E559C629492A2A2A48324A2A8C2A8F
:10243000AA4A2793CCD314D439AC37AC36AC55ACBC
:1024400074AC74AC74AC74AC94AC93AC94AC94AC0D
:1024500094AC94AC94AC94AC94AC94B494B494B464
:1024600094B494B494B473B473AC73AC73AC73B4E9
:1024700073B453B453AC53AC53B432AC52B432B45F
:1024800032B432B412B412B432BC4A5A632063205C
:1024900063286328632863286328632063286328EC
:1024A0006328632863286328842884306428842868
:1024B0008430843084288428843084308428843094
:1024C000843084308428A528A528CC51EC51894932
:1024D000855183512241433944292521451945110C
:1024E0004511452125212421241924114519451977
:1024F000251925112519251924190419C310820835
:1025000061086218822082286128612061186210A7
:1025100042088210E320E228023962598169C179B8
:10252000C3710652482A49224A3248324A326B3233
:102530006A42C972ABAB10BC17AC55AC54AC74ACAE
:1025400073AC73AC74AC73AC93AC73AC73AC94AC51
:1025500094AC94AC94AC94AC94AC74B474B474B4C3
:1025600094B494B494B473B473AC73AC73AC73B4E8
:1025700053AC52AC32AC32AC32B412AC32B412AC5A
:1025800012B412B412B4F2B312BC4A5A63206320DC
:1025900063286328632863286320632063206328FB
:1025A000632863286328632884288428642864288F
:1025B0008430843084288428843084288430843093
:1025C000843084308428A528E6302D52EB51A84968
:1025D0004449625161518251634145294421441962
:1025E000451945212429242923212411241924199A
:1025F00024192519251124192419E420042124194A
:10260000C3008200820082088108A208A200C100E3
:10261000A110E230645162418131A2614051237ABC
:10262000046A8539692A6A2A083A2A324A32693A9A
:10263000293A6C528C8B0EAC14AC54A454A473ACD9
:1026400073AC73A473AC73AC93AC73AC73AC74AC79
:1026500074AC74AC74AC93AC93AC73AC73AC73AC3F
:1026600073AC73AC73AC73AC53AC53AC53AC53ACF2
:1026700053AC33AC32AC32AC33B412AC12AC12B497
:1026800012B412B4F2B3F2B313BC4A5A63206320FB
:1026900063206320632063208320832063206328DA
:1026A000632863286328632863288428842884286F
:1026B0008428842884308430843085308428842899
:1026C000A4306330A530A6208A394D4A6A3944398E
:1026D0004249E2406151625141516049053127113F
:1026E00085118431635941592239223143312431D2
:1026F0002431032102210231014143494449C330BD
:10270000C3202519041182082529C84183184110C6
:102710002341425921598251A241A071237A256255
:10272000C641283A29328B32492A09324932292AAC
:102730004A32CC4A6F6B7073539453A4329C73A487
:1027400073A453A474AC73A473A473AC73AC73ACD0
:1027500074A474AC74AC94AC94AC74B473AC53AC5B
:1027600033AC33AC33AC33AC52AC52AC52AC32AC15
:1027700032AC32AC12AC12AC33AC12B4F2B3F2AB3A
:10278000F1ABF2B3F2B3F2B312B44A5A632063204E
:1027900063206320632063208320832063206328D9
:1027A00063286328632863286328642864286428CE
:1027B00084288428842884288428842884288428B9
:1027C000833084308428E7286929CB396A39443931
:1027D0004249024941514159405981492531261107
:1027E00085116529644962596249414962514259DA
:1027F00022512251225142592259425922494449D7
:10280000042925194519C310E841694A2421E22009
:10281000844983614169A269C261A371E46105428F
:10282000062269226A2A8B42E941E829092A092AF3
:102830002932CC4A6F6B4F6B328C73AC329C73A4D1
:1028400053A453A473A453A473A453A453A453A490
:1028500053A453A453A453A453A453AC53AC32ACC9
:1028600032AC32AC32AC32AC32AC32AC32AC32AC78
:1028700032AC12AC12AC12AC12AC12B4F1ABF1AB84
:10288000F1B3F1B3F1B3F1B3F2B34A5A6320632069
:102890006320632063206320632063206320632818
:1028A00063286328632863286328642864286428CD
:1028B0006428842864286428642884288428833031
:1028C00063308430852848294819EB39AA4164418E
:1028D00062494351815961598161A239452946199B
:1028E000650945194431434962496149615120599B
:1028F00020594059415942590149206100514349E9
:10290000042904196619A3088731C639E318E318A6
:1029100064398451A4610462045AC641C639E7315E
:10292000282A6A328A3A6A42C831C829C821E82965
:10293000E829AB4A6F6B2E63D18373A452A473A4AE
:1029400053A453A453A4329C53A453A453A453A4F8
:1029500053A453A453A432A432A432A432A412A484
:1029600012A412A412AC12A432AC32AC12AC12AC4F
:1029700012AC12AC12AC12AC11AC12B4F1ABF1ABA4
:10298000F1B3F1B3D1B3D1B3F2B34A5A63206320A8
:10299000632063206320632063206320632063201F
:1029A00063286328632863286328632864286428CD
:1029B0006428842864286428642884288430833028
:1029C00063308428E62868294711CB31AA41424167
:1029D0004151425981514241634163294521661960
:1029E00066114611462144396349203962496251D2
:1029F00062592151004922496251406142592339AB
:102A0000242945194519820862108218620825197F
:102A100086218629E639063AE52908220822293244
:102A20002A3A4A3A6A428A3AE821A8298721C829DB
:102A3000C821AB426E63ED5A6F6B539C539C33A419
:102A400032A453A453A452A453A453A453A453A4F0
:102A500053A433A433A432A432A412A412A4F1A325
:102A6000F1A3F1A3F1A3F1A3F1A3F2ABF2ABF2ABAB
:102A7000F2ABF1ABF1ABF1ABF1ABF1ABF1ABF1AB75
:102A8000F1ABD1B3D1ABD1ABD1B34A5A6320632000
:102A900083286320632063208320632063206320D6
:102AA00063206328632863286328632863288328B6
:102AB0008428842863286328632884286328833033
:102AC000633084284829672146098A29CA41624916
:102AD00061596259624123294419441945196619FB
:102AE0008619661167198739854922510249E240E2
:102AF00023494351225142594159425143410329EB
:102B00004519451925118210A2180331C3188721D0
:102B1000092AE82108222922281A292A292A4932A1
:102B200049324932AB428B42C82987216721C821EB
:102B3000C829CB4A2D5BAB4A0D5B3294539C12A43F
:102B400012A453A453A453A453A432A433A432A470
:102B500032A412A412A412A412A4D1A3D1A3D19B73
:102B6000D1A3F1A3D1A3D1A3D1A3D1A3D1A3D1AB9D
:102B7000F1ABF1ABF1ABF1ABD0ABF1ABD1ABD1ABD6
:102B8000D1ABD1ABD1ABB1ABD1AB4A5A632063204F
:102B900083286320832063208320632063206320B5
:102BA00063206320632863286328632863288328BD
:102BB0008328832863286328632884286328633054
:102BC0008428A5208829471145098A21EB418341A2
:102BD00082516349433145196711652165196619A9
:102BE0006619461168118929A7416359E148803067
:102BF000E13843496251615940594439E32045194C
:102C00004511451125198210E7490A6BA531A62106
:102C1000282A292A492A292A4A32092A292A292AF4
:102C2000482A6932EC4A4A42672987216621A7214E
:102C3000E829CC4A0C538B42CC4A1184539C32A4D1
:102C400012A452A452A452A432A432A412A412A4D4
:102C500012A4F2A3F1A3F19BF19BB19BB19BD09B7A
:102C6000D09BD19BD1A3D1A3D0A3B1A3D1A3D1A3F6
:102C7000D1ABD1ABD0ABD0ABD0ABD1ABD1ABD1AB77
:102C8000D1ABD1ABB1ABB1ABB1AB495A6220622091
:102C900083286220622062208220622063206320D9
:102CA00063206320632063286328832863286328C4
:102CB00063286328632863286328642863306328B3
:102CC0008428E6206821461145118919AB31242951
:102CD000433124292319661966116621651966197D
:102CE0004619451968118A218831224942414239E1
:102CF000414141494149825182514529241986194E
:102D0000861986196521A210284A6C73C639A6292E
:102D1000082A282A482AE829E82908220822082A15
:102D200029326A3ACB4AE83125196619662187218A
:102D30000932EC52AB428A3AAB428F73539433A4BC
:102D400012A432A4329C52A432A412A412A412A43B
:102D5000F2A3F1A3F19BD19BD09BB09BB09BB09B06
:102D6000D09BD09BD09BB0A3B0A3B0A3B0A3B0A383
:102D7000B0A3D0ABD0ABD0ABD0A3D1ABD0ABD1ABA9
:102D8000B1ABB1AB90AB90A390A3495A6220622043
:102D9000832862206220622062204220622062201A
:102DA000632063206320632043286320632063281B
:102DB00063286328632863286328642884304328B1
:102DC0008420472927196619441169196A21E410DA
:102DD00025194719651965194419461965114611D0
:102DE0004621442188198B218929234143412241CD
:102DF0002149425163596351023904196521651112
:102E0000A619C7214521621004214631C418A729FB
:102E10004932492A692A2822492A292A492A292A5B
:102E200049324A3A8A42A729452145196621862115
:102E300009320D538B426A3A8B3A4E63529453A433
:102E400012A432A4329C32A432A412A412A4F2A37B
:102E5000F2A3D1A3D19BD09BB093B09BB09BB09B6E
:102E6000B09BD09BB09BB09B909BB0A3B0A3B0A3F2
:102E7000B0A3B0A3B0A3D0A3D0A3D0ABB0ABB0AB42
:102E8000B1ABB1AB70A370A370A3295A62206220CA
:102E900082206220822062206220622062206220E2
:102EA00062206220632063206320632863286320FC
:102EB00063206320632863286328642842286328EA
:102EC000A52088294511851125198719AB2148119D
:102ED00045192511661984194519452146196619A0
:102EE000441946116919AB19891924296339834991
:102EF00082516249233923292321661166116619FB
:102F0000A621862165190411C30843082521082A32
:102F100069224822272A482A4A22492A292A6A322B
:102F20004932693AAA4A8721471945194511A71913
:102F30004A3ACC526A426A32CA322D533284549C85
:102F4000139C329C32A412A4F2A312A412A4F1A3E3
:102F5000F19BD19BB19BB09BB09BB09BD09BD19B75
:102F6000D09BB09BB0A3B0A3909BAF9BAFA3AFA3EC
:102F7000AFA3B0A3B0A3B0A3B0A3D1ABB1AB90A3A8
:102F800090A36FA34FA32F9B2F9B295A62206220EF
:102F90006220622082206220622062206220622001
:102FA00062206220622062206220632863286320FE
:102FB00063206320632863286328642842286328E9
:102FC000C62888294511651925198611AA2148198D
:102FD0004511461946196519651945192619251906
:102FE0002411251169198B218A1926194521442993
:102FF000232923292421651986198619661986191A
:10300000A621C721C729C721A721E821E82908321D
:103010002A2A692A682A482A49224A326B224A1AED
:10302000E7292752485A4529451103298539A639E8
:103030004A4A8B424A328A3A6A32CB52D07B339C1C
:10304000129C129C129C12A4F3A311A4F1A3F1A34D
:10305000D19BD19BB09BB09BB09BB09BD09BD09B96
:10306000B09BB09BB09BB09B8F9B8F9B8F9BAFA364
:10307000B0A3B0A3B0A3B0A3B0ABB0A390A38FA3F1
:103080008FA36FA34F9B2F9B0E9B295A6220622018
:103090006220622062206220622062206220622020
:1030A00062208220622083206220632863206320C4
:1030B00063206320632863286328642843286328E7
:1030C000072968216511651126196611AA21681959
:1030D00025116619461965196519661946192519C4
:1030E0002419051149198B218A194711671166198D
:1030F0006619661966198711A71186198619861926
:10310000C721E729082A082A29326922282A0932F0
:103110002A2A492A4732073AE739C639092A082AAA
:10312000E549877A065A032143194149C559A651F1
:103130008A526A3A492A8A3A4A3A8A426E73119CFA
:1031400012A4129C129CF29B13A412A412A411A408
:10315000F19BD19BD19BB09BB09BB09BD09BD09B54
:10316000B09BB09BB09BAF9B8F9B8F9B8F9BAFA364
:10317000B0A3B0A3B0A390A38FA38FA3AFA38FA33B
:103180006FA34E9B2E9B0E93CD8A295A62206220FC
:10319000622062206220622062206220622062201F
:1031A00062208220822082206220632063206320AC
:1031B00063206320632063286328632842286428EF
:1031C000282968216611441146194511A921892130
:1031D0002511661926194619651946114619452102
:1031E0002411051128196B218B196711661986198D
:1031F000A719A719A72186198519A621A621A721F4
:10320000C721C721E721E821082A082A29324A32A2
:103210006A22482A264A05620672C359C559E671D0
:103220004592A7928541C31064318261A459C64971
:103230008A528A3A492A6A324A3A6A3A0D63F18BCB
:10324000129CF19BF29BF29BF2A311A411A4F19B9F
:10325000F19BD19BD09BB09BB09BB09BD09BD09B54
:10326000AF9BAF9BAF9BAF9BAF9BAF9BAF9BB0A305
:10327000B0A3B0A38FA38FA36FA38FA38FA36F9BC4
:103280004E9B2E93EE8A8D822B7A295A62206220E1
:10329000622062206220622062206220622062201E
:1032A000622062208220822082208320632083206B
:1032B0008320632063206328632863284320A4209D
:1032C0004929471965112411461945118819A92161
:1032D00026116619461926194519251104210421BC
:1032E0000411051148218A296A19461966196511C0
:1032F0008619A619A621A621A5218619A621C721CE
:10330000E721E721E721E821082AE8314932692A43
:103310004922074204722492439A6492048A04A2C6
:1033200043B2048AE3300321834963516441274255
:10333000693A6A32492A493269326B32CC4AD083BF
:10334000119CF19BF2A3F19BF1A3F19BF19BF19BEB
:10335000D19BD09BB09BB09B909BAF9BAF9BAF9BF7
:10336000AF9BAF9BAF9BAF9BAF9BB0A3B0A3AFA3F3
:10337000AFA38FA38FA36FA36FA34E9B4E9B2E93E0
:103380000E93EE8A8C82EA696861295A6220622073
:1033900062206220622062206220822062206220FD
:1033A00062208220822082206220632063206320AA
:1033B0006320632063206328632843284320C620BA
:1033C0006929471165114411461945116719A92149
:1033D0004719661946192619441945290331E32866
:1033E000C31026198931A931281167116611861178
:1033F000A619A719C719A719A619A721A621C72178
:10340000E721E721E7210822292A082A282A282259
:10341000E829E759259242A2219A2392E389239A27
:1034200043AA8281E248234121412331A531AA3AAE
:10343000692A4A2A4A326A3289328B328B428E7B1F
:10344000119CD19BF2A3D19BD0A3F19BD19BD19B8B
:10345000D09BB09BB09BAF9B8F9B8F9B8F9B8F9B79
:103460008F9B8F9B8F9B8F9B8F9BAF9B8F9B8F9BEC
:103470006F9B8FA36FA36FA34E9B2E9B0E930E8B00
:10348000CD826C7AC9692651A540295A62206220F2
:1034900062206220622062206220822082206220DC
:1034A00082208220622062206220622062206220CC
:1034B000622062206220622862286328632006213D
:1034C0006921471185116411461945114611891961
:1034D0006819451987214721231964414349E23876
:1034E000C4180621A841A841261966116619A61913
:1034F000C619C721C719A719A719C721C721C721ED
:10350000E721E721E7210722082A292A282A282A51
:10351000083227524582439A2292A281C381C479FC
:10352000258A8371015143490231652108328A3A63
:10353000492A492A6A328A328A32693A48426C8375
:10354000EFA3B09BD19BD19BD09BD09BD09BB09B3A
:10355000B09BB09B8F9B8F9B6F9B6F936F936F9371
:103560004E934E936E9B6F9B6F9B6F9B6F9B6F9B5E
:103570006F9B6F9B4E9B2E9B2E9B0E93CD8A8C7ABE
:103580002A72A8590549A3408340295A6220622023
:1035900062206220622062206220822082208220BB
:1035A00082208220632062206220622062206220CA
:1035B0006220622062206220632862286320272123
:1035C00069214711851165114619451125116819A1
:1035D00089194511A829472123190349235903496A
:1035E000C420E5208849A85146294619651965195E
:1035F00085218621A721A721C721A719A719C7219E
:10360000E721E721E721E721082A092A292A292A8F
:103610000822E631E35902820392438A04828569D3
:10362000E7694251E03844392621E721493208321E
:103630002932492A692A6A326A3A4742064A4A8B3B
:10364000EEABAF9BB19BB193B093909390938F935C
:103650006F9B6F9B6F934E934E934E934F934E93EE
:103660002E932E934E934E9B4E9B4E9B4E9B4E9B6A
:103670004E9B4E9B2E9B0D93ED92AC8A4A7AE96944
:103680006759E44882388240C348295A6220622040
:1036900083206220622082208220622062206220B9
:1036A000622062206220622062206220622062200A
:1036B00062206220622062208220A22084200729CA
:1036C0002621451186116611241924194511460930
:1036D000C929271167194619E42002390251C2404D
:1036E0000221E41867418751A54184396329632188
:1036F0008519A71987198621852166218721C82167
:103700000822E729C729C729082A082A082A282AB7
:10371000292A0822E639E4692392E089038A258A66
:10372000C5614339232924198721E7318A2A2A1AB6
:103730000832073A072A493A075A639283A226C3F6
:10374000ECB3B0838F936EA371936F936F936F936A
:103750004E932E8B2E8B2E8B2E934E932D932D8B43
:103760002D932E932E932E934E934E932E932E9B0A
:103770002E9BED920D93CC8A4A72E769C86127515E
:10378000C538A338A140C1502361295A6220622064
:1037900082206220622062208220622062206220D9
:1037A00062206220822082206220622062206220C9
:1037B0006220622062206220822021186420273942
:1037C0006631441945114511651945196511661190
:1037D0008821481947198621252123410351E240B8
:1037E0000321E41867398649644183518249824143
:1037F0008239433143318339C34984418531A62914
:10380000C721E729C729C729E829092AE829082A59
:10381000292A082AE739055A2482237A047AE6718C
:103820006449033144216521A8290942283206321E
:103830002452256A0562457AA49A439AA4A205BB3C
:103840008AB36E8B90936F9B6F8B2E8B2E8B2E8BF0
:103850000D8BED8AED8AED8AED8AED8AED8AED8A8F
:103860000D8B0D932E932E932E934E9B0D930D93B4
:103870000D93CC8A6B7A0A6AA8614751E648C54025
:10388000C340C24043616469A158295A621862204A
:1038900082206220622062208220622062206220D8
:1038A0006220822082208220822082206220622068
:1038B000622062206220622082204218C530A85116
:1038C000A6494231232123194419441924094511D9
:1038D00025198721661986190519224123490241B4
:1038E0000321041967398651634962598259A259E3
:1038F000A259A259C361E2690272C269825184313C
:10390000A629C721C729E829E829E829C729E729DD
:10391000082A082AE731E649E56126620662C651AF
:103920002431E4184521A72909320A428541C261A0
:10393000628A849A859A22A260B243A2439A83AA99
:1039400048B34D932F830E830C83ED8AED8AEC826E
:10395000CC82AC82AC82CC82CC8AED8AED92ED92A4
:10396000ED8AED920D930D93ED92ED92CD92CC8A6E
:103970006B820972A86167512651E6400541C23841
:10398000C1404361446182584150295A6218622003
:1039900082206220622062208220622062206220D7
:1039A0006220622082208220822082208220622067
:1039B000622062206220622062204218E630A75115
:1039C000A3516149624164396331232923212321B1
:1039D0000321863165196619251902390241023918
:1039E000E31804116631A649834943498351A2591A
:1039F00082598261A269A269A169027AC259843995
:103A00008521A721C829C729E729C729C729C72987
:103A1000E829082AE829C739C741E741084AC739D0
:103A2000252104116619E8292A3AE729C559039284
:103A300041A222922392449A639A649263A2C4B2EE
:103A400069BB4D930E83ED82EC82CC82CC82AC823A
:103A5000AB82AB82AB82AC8AAC8ACC8AED92ED921F
:103A6000CC8ACC8AED92CD8AAC8A6B8A6B820A7A38
:103A7000A861675946510549E540C438A13821512C
:103A80008469E358224864502771295A62186218E1
:103A900082206220622062208220622062206220D6
:103AA00062206220622082206220822082206220A6
:103AB000622062206220622062206210E52865395F
:103AC000624960514259635183494241A34962416D
:103AD000434964414429661967210331033923317D
:103AE0000319041145298541834102316341A251E3
:103AF0006151405961618169C269C269A3518431D0
:103B00008621A721A729C729C729C729C729E729A6
:103B1000E831082A082AE831C839C739E839873135
:103B200025214619A721E931E839A521E559E38185
:103B3000239A029A0392658A245AE259A3A226C3C1
:103B40000AA3AB72CC7AAB7A6B7A6B7A6B7A6B7AAC
:103B50006B7A6B828B828B828B828C82CC8ACC8AB2
:103B6000AC8AAC8AAC8A8C826B82097AC869465965
:103B7000265126510549C440833881404359636921
:103B8000A2584250E6688771666929524218421865
:103B9000622062206220622062206220622062181D
:103BA00062206220622062206220822082206220C5
:103BB00062206220622062206220C418052144290C
:103BC000824161510051015182516259A2594051C3
:103BD00041596351853986218721252903292321CC
:103BE00003190511251965316439022942398251B9
:103BF00081598161C269C361A361634164318521D7
:103C00008621A721A729A729A629C729C729E729E6
:103C1000E729E829E829E831E939C839A7314521F8
:103C200025218721E8290832A731A629A539844909
:103C3000257A64AA62B28492E249245AA49AE8B22C
