:020000040800F2
:10000000705B0020F5020008034B00089D09000802
:10001000014B000815080008C54F0008000000004B
:100020000000000000000000000000003D02000889
:10003000170800080000000091020008214D000888
:100040000F0300080F0300080F0300080F03000848
:100050000F0300080F0300080F0300080F03000838
:100060000F0300080F0300080F0300080F03000828
:100070000F0300080F0300080F0300080F03000818
:100080000F0300080F0300080F0300080F03000808
:100090000F0300080F0300080F0300080F030008F8
:1000A0000F0300080F0300080F0300080F030008E8
:1000B0000F030008914D00080F0300080F0300080C
:1000C0000F0300080F0300080F0300080F030008C8
:1000D0000F030008294E00080F0300080F03000853
:1000E0000F0300080F0300080F0300080F030008A8
:1000F0000F0300080F0300080F0300080F03000898
:100100000F0300080F030008CD4D00080F0300087F
:100110000F0300080F0300080F0300080F03000877
:100120000F0300080F0300080F0300080F03000867
:100130000F0300080F0300080F0300080F03000857
:100140000F0300080F0300080F0300080F03000847
:100150000F0300080F0300080F0300080F03000837
:100160000F0300080F0300080F0300080F03000827
:100170000F0300080F0300080F0300080F03000817
:100180000F0300080F03000800F002F800F047F822
:100190000AA090E8000C82448344AAF10107DA45E2
:1001A00001D100F03CF8AFF2090EBAE80F0013F0ED
:1001B000010F18BFFB1A43F001031847C089000064
:1001C000E0890000103A24BF78C878C1FAD85207F5
:1001D00024BF30C830C144BF04680C6070470000C1
:1001E0000023002400250026103A28BF78C1FBD840
:1001F000520728BF30C148BF0B607047642900F028
:100200000581782900F03E81732900F03B820020AF
:1002100070471FB507F0B8F81FBD10B510BD00F04E
:10022000C6FA1146FFF7F5FF04F02AFF00F0E4FAE2
:1002300003B4FFF7F2FF03BC04F0C5FE2A4B1968B4
:100240000868B0E8F04F80F30988BFF36F8F4FF074
:10025000000080F311887047000000000648006825
:10026000006880F3088862B661B6BFF34F8FBFF3B2
:100270006F8F00DF00BF00BF08ED00E0DFF80C006B
:10028000016841F470010160704700BF88ED00E033
:10029000EFF30980BFF36F8F134B1A681EF0100F36
:1002A00008BF20ED108A20E9F04F106008B44FF02D
:1002B000500080F31188BFF34F8FBFF36F8F06F0AC
:1002C000F5F84FF0000080F3118808BC1968086841
:1002D000B0E8F04F1EF0100F08BFB0EC108A80F3AA
:1002E0000988BFF36F8F704778000020EFF3058017
:1002F000704700000948804709480047FEE7FEE7CD
:10030000FEE7FEE7FEE7FEE7FEE7FEE7FEE7FEE7C5
:1003100004480549054A064B70470000354D000862
:100320008901000870550020705B00207057002084
:1003300070570020704700000FB4044910B503AA9D
:10034000029800F0A3F910BC5DF814FB64000020D3
:100350002DE9F0410E460446002020622046E16867
:10036000884730B3252805D0D4E901219047206A79
:10037000401CF2E7E168204600278847050018D0B6
:10038000A5F14100192802D820354FF40067324604
:10039000294620462760FFF731FF40B1012804D0ED
:1003A000F61D26F007060836D8E7361DD6E728469C
:1003B000DAE7206ABDE8F08170B50C460546012AEF
:1003C00005D02878800600D5EA69002302E00123E1
:1003D00005E05B1C934202D2E05C0028F9D1A869D9
:1003E000E618C01AA861286A184428622846AFF3A4
:1003F000008004E0D5E9012114F8010B9047B442D4
:10040000F8D32846AFF3008070BD00002DE9F0411D
:100410000646002410687529314616A510D0AFF3A2
:100420000080002802DA404213A507E031688A07FD
:1004300001D512A502E0490704D511A5012401E068
:10044000AFF3008000210A2206F1240709E0B0FB87
:10045000F2FCB0FBF2F302FB1C003030785418467B
:10046000491C0028F3D123462A463046BDE8F04116
:1004700000F085B8000000002D0000002B000000F7
:100480002000000070B504460D4621461068AFF309
:1004900000802188090502D50F4A7A4402E00E4AFD
:1004A0007A440E32002104F1240305E000F00F0627
:1004B0000009965D5E54491C0028F7D1207800237E
:1004C000000704D5702D02D009B102231132204655
:1004D000BDE8704000F053B8B4860000032A40F233
:1004E000308010F0030C00F0158011F8013BBCF1D6
:1004F000020F624498BF11F801CB00F8013B38BFEE
:1005000011F8013BA2F1040298BF00F801CB38BFFB
:1005100000F8013B11F0030300F0CA80083AC0F074
:10052000088051F8043B083A51F804CBA0E80810C1
:10053000F5E7121D5CBF51F8043B40F8043BAFF3F4
:100540000080D20724BF11F8013B11F801CB48BF4E
:1005500011F8012B24BF00F8013B00F801CB48BF84
:1005600000F8012B704702F0FF0343EA032242EA3E
:10057000024200F0D1B870477047704770472DE9CC
:10058000F0470D4699469246044600F1240801685A
:10059000880604D5E06921F01001216000E0012007
:1005A000A84201DD471B00E00027A1697A1902EB90
:1005B0000900081AA0612078C00602D42046AFF3D3
:1005C0000080002608E0D4E901211AF806009047CF
:1005D000206A401C761C20624E45F4DB2078C00661
:1005E0000AD52046AFF3008006E0D4E9012130208F
:1005F0009047206A401C2062381EA7F10107F4DCF6
:1006000007E0D4E9012118F805009047206A401C52
:100610002062281EA5F10105F3DC2046AFF300801F
:100620002078000602D50220BDE8F0870120FBE714
:1006300001694A1C02610878704700B58FB0CDE9A6
:1006400001310021059105497944CDE90310114696
:100650006846FFF77DFE0FB000BD0000E5FFFFFF1D
:1006600010B5436913B1AFF3008001E0FFF7A4FEBA
:10067000012010BD127800F124010A7000224A7096
:100680000122EDE711684FF0FF32E9E7074B70B543
:100690000D467B44FFF7D1FF0446284600F05CF886
:1006A00010B14FF0FF3070BD204670BDD74900003B
:1006B00010B5203AC0F00B80B1E81850203AA0E8FD
:1006C0001850B1E81850A0E81850BFF4F5AF5FEA31
:1006D000027C24BFB1E81850A0E8185044BF18C9E4
:1006E00018C0BDE810405FEA827C24BF51F8043B8B
:1006F00040F8043B08BF7047D20728BF31F8023BDF
:1007000048BF11F8012B28BF20F8023B48BF00F872
:10071000012B70474FF000020429C0F0128010F046
:10072000030C00F01F80CCF1040CBCF1020F18BFC9
:1007300000F8012BA8BF20F8022BA1EB0C0100F060
:1007400011B85FEAC17C24BF00F8012B00F8012B2F
:1007500048BF00F8012B7047007B00F08000704715
:100760004FF0000200B5134694469646203922BF4A
:10077000A0E80C50A0E80C50B1F12001BFF4F7AF95
:10078000090728BFA0E80C5048BF0CC05DF804EB77
:10079000890028BF40F8042B08BF704748BF20F8E5
:1007A000022B11F0804F18BF00F8012B70477546DF
:1007B00000F02CF8AE4605006946534620F00700CD
:1007C000854618B020B5FFF7A3FDBDE820404FF0E7
:1007D00000064FF000074FF000084FF0000B21F02B
:1007E0000701AC46ACE8C009ACE8C009ACE8C009F8
:1007F000ACE8C0098D46704710B50446AFF30080E1
:100800002046BDE81040FFF713BD000000487047C8
:1008100010550020FEE770478000A0F1C04000297D
:10082000016802D041F0010101E0024A114001607B
:1008300070470000FEFF0F0010B5D0E90112114310
:10084000D0E903231A4311434269114382691143DA
:10085000C2691143026A1143426A1143826A114319
:10086000C26A1143026B114302689200A2F1C042B6
:1008700011608168082907D101688900A1F1C04190
:100880000A6842F040020A60416BD1E9002342EA63
:1008900003128B688C891B0243EA04431A430B8AB8
:1008A00042EA03520B7D896942EA03620A43016806
:1008B0008900A1F1C0414A60C16AB1F5804F08D0FA
:1008C00000686FF070418000A0F1C040C0F80411D2
:1008D00010BD816BD1E9002342EA03128B680C8AB8
:1008E0001B0243EA04531A430B7D896942EA0362FF
:1008F00000680A438000A0F1C040C0F8042110BD88
:10090000F0B5002201274FF0030C0B6807FA02F53F
:100910002B40AB422CD1066853000CFA03F4A643DB
:1009200006600E79D0F800E09E4046EA0E060660AA
:100930000E79012E01D0022E12D18668A643866060
:100940004E79D0F808E09E4046EA0E06866046687A
:10095000AE43466045688E799640B6B235434560F1
:10096000C568A543C560CC799C40C3681C43C4607E
:10097000521C102AC9D3F0BD4B07DB0E9A40C908A0
:1009800010B500EB8100016A0F249C40A143016275
:10099000016A1143016210BD01837047FEE7000048
:1009A0002DE9F043184F0646002438887D884543DA
:1009B000B888A0F5D041043902D1B879012808D00F
:1009C0000021084603F0D8FE04F06AF84FF0D84042
:1009D00016E00020B8714FF02A09A7F80A904FF0EE
:1009E0002B08A7F80C80014603F0C6FE0120B87161
:1009F000A7F80A80A7F80C90E6E7A0F88060641CCE
:100A0000AC42FAD3BDE8F083EC0000202DE9F04FB2
:100A10004A492A232B24898845F2105A4FF4305B27
:100A20004FF4285E4FF448754FF0F00C49F241390D
:100A30004FF4A07745F210364FF4F07280B13F4882
:100A40004FF00108494580F806800780A0F802C0F1
:100A500001D0B1423ED12C2505814381848157E0EC
:100A600036484FF00008494580F80680A0F800C0DD
:100A7000478006D0A1F5D04CBCF1040C01D0B142A6
:100A80000CD12C2505814381A1F5D0438481043B01
:100A900001D0B14244D10780428041E0514507D1A5
:100AA000A0F808B0A0F80AE04FF42C5181810EE0C4
:100AB000A1F5C856633E06D0222101812021418143
:100AC000212181812CE02C210181448183810280BC
:100AD000458025E0A1F5D04CBCF1040C09D051456E
:100AE0000BD1A0F808B0A0F80AE04FF42C53838192
:100AF00021E02C250581448109E0A1F5C85CBCF109
:100B0000630C12D02223038121234381202383817C
:100B1000A1F5D043043B01D0B14201D1028047800E
:100B2000BDE8F04F002003F025BD4FF02C0CA0F8DD
:100B300008C04381848105804280E9E7EC00002001
:100B40002DE9FE4F0026A2EB000882465F1A701EB8
:100B500035468946B8F1000F02DD4FF0010102E091
:100B600003D14FF00001019102E0C8F100080190AB
:100B7000002F02DD4FF0010002E003D14FF0000032
:100B8000009002E0C7F1000700904046B84501DD43
:100B9000044600E03C46601C4FF0000B029015E05C
:100BA0001FFA89F11FFA8AF000F016F846443D4416
:100BB000A64202DD0199361B8A44A54202DD009956
:100BC0002D1B89440BF101001FFA80FB02998B4514
:100BD000E6DDBDE8FE8F000000B503F0CDFD03F0BB
:100BE0005FFF03484FF0D8410088A1F8800000BDA6
:100BF00058000020F0B51C4615460E4607460B4629
:100C0000FFF79EFF3A46234631461046FFF798FF0E
:100C100023462A4619463846FFF792FF2A462346BE
:100C20003146BDE8F0401046FFF78ABF2DE9F0439A
:100C3000414D91460C460246060AA9882846A1F570
:100C4000134340894FEA1428413B17D0A1F5A6432E
:100C5000103B13D0A1F5AA43103B13D02E46A1F5AB
:100C6000C857B3793688B61A761E633F23D0A1F5EC
:100C7000D047043F3AD0012B4DD04DE003F003FFA5
:100C8000304639E003F0FFFE304603F0F0FE68899D
:100C9000401C80B203F0F7FED0B203F0E8FEA88952
:100CA00003F0F1FE404603F0E2FEA889401C80B24A
:100CB00003F0E9FE2BE003B9B2B203F0E4FE160A3A
:100CC000304603F0D4FED0B203F0D1FE304603F03C
:100CD000CEFED0B203F0CBFEA88903F0D4FE40468E
:100CE00003F0C5FEE0B203F0C2FE0DE0012B00D11F
:100CF000B2B203F0C8FE100A03F0B9FED0B203F09E
:100D0000B6FEA88903F0BFFE404603F0B0FEE0B295
:100D100003F0ADFE07E0B2B2114603F0CBFEA889A6
:100D2000214603F0C7FE4FF0D840298920F87E1FE6
:100D3000A0F80290BDE8F083EC0000202DE9F84314
:100D4000204D1F468046AB88089EA3F5D04004384E
:100D500002D1A879012807D0A2EB0800401C85B277
:100D60000C464FF0D84929E02B880846991A0024F0
:100D7000AC713A462A24A3EB08036C812B27491E49
:100D80005B1EAF8189B29BB20096FFF7D7FF0120AF
:100D9000A8716F81AC81BDE8F8832146404603F01D
:100DA000EBFC03F07DFE0020494603E0A1F88060E3
:100DB000401C80B2A842F9D3641CA4B2BC42ECD956
:100DC000E9E70000EC0000202DE9F04FA1B000247D
:100DD00001217A201F9403F0D1FE0121084603F07F
:100DE000D9FE4FF40040009001208DF804008DF8EA
:100DF000064002208DF8050001208DF807006946A5
:100E0000FE48FFF77DFD4CF23370009002208DF814
:100E100004008DF8064003208DF8050001208DF8B0
:100E200007006946F648FFF76BFD4FF680700090AB
:100E300002208DF804008DF8064003208DF805008F
:100E40000120F04D8DF8070069462846FFF758FD50
:100E5000A814009002208DF804008DF806400320AD
:100E60008DF805000120E84E8DF8070069463046F0
:100E7000FFF746FDA814009002208DF804008DF8BD
:100E8000064003208DF805000120E04F8DF8070093
:100E900069463846FFF734FD0C220021D848FFF799
:100EA0006BFD0C220121D648FFF766FD0C220421C0
:100EB000D348FFF761FD0C220521D148FFF75CFD07
:100EC0000C220821CE48FFF757FD0C220921CC48FF
:100ED000FFF752FD0C220A21C948FFF74DFD0C22F5
:100EE0000E21C748FFF748FD0C220F21C448FFF729
:100EF00043FD0C2207212846FFF73EFD0C22082166
:100F00002846FFF739FD0C2209212846FFF734FD5A
:100F10000C220A212846FFF72FFD0C220B21284620
:100F2000FFF72AFD0C2211462846FFF725FD0C226B
:100F30000D212846FFF720FD0C220E212846FFF741
:100F40001BFD0C220F212846FFF716FD0C2211462F
:100F50003046FFF711FD0C2211463846FFF70CFD15
:100F60000F20CDE911043C20CDE91304159409208C
:100F70001694CDE917400820CDE919401B941C9424
:100F80000620CDE902041D941E941020CDE90440F2
:100F900006940002CDE90A40089407948000CDE948
:100FA0000C40099411A8CDE90E4018A8109002A891
:100FB000FFF742FC01210620FFF72EFC322004F04F
:100FC0001FF80121002003F075FD322004F018F80D
:100FD000002003F09DFA8E4A4FF0204A4FF6FF7B27
:100FE000908049F2413545F2103645F2105441F6F1
:100FF000631846F60407FF2804D3584502D0B0F51D
:10100000134F74D1D32003F03EFD03F077FA9080A4
:1010100003F074FA908003F071FA0BEA0020D946CD
:10102000908003F06BFA918808439080A8425ED0CC
:10103000BF2003F028FD03F061FA908003F05EFA10
:10104000908003F05BFA908003F058FA09EA0020E0
:10105000908003F053FA918808439080B84246D0BC
:10106000D42003F010FD03F049FA908003F046FA13
:10107000908003F043FA09EA0020908003F03EFAE2
:10108000918808439080B04231D04FF45A4003F029
:10109000FAFC03F033FA90804FF45B4003F0F3FC6A
:1010A00003F02CFA09EA002090804FF45C4003F032
:1010B000EAFC03F023FA918808439080B0F5004FD2
:1010C00039D0A04213D0A12003F0DDFC03F016FAC2
:1010D000908003F013FA09EA0020908003F00EFAE2
:1010E00091880843A0F5AE419080613920D080B24C
:1010F000A84205D0B04203D0A04201D040451CD147
:10110000DAF81C11504621F00F01CAF81C11DAF868
:101110001C1121F47061CAF81C11DAF81C1141F09D
:101120000301CAF81C11DAF81C1141F4007121E026
:10113000A2F80480E4E79480E2E7B84203D0A0F587
:101140004541053918D1DAF81C11504621F00F013C
:10115000CAF81C11DAF81C1121F47061CAF81C11CC
:10116000DAF81C1141F00A01CAF81C11DAF81C1156
:1011700041F44061C0F81C119146918825A0FFF709
:10118000DBF8B9F80400A8427DD1CF2003F07BFC46
:10119000002003F06CFCC12003F069FC302003F058
:1011A00066FCED2003F06FFC642003F060FC03207C
:1011B00003F05DFC122003F05AFC812003F057FC81
:1011C000E82003F060FC852003F051FC102003F0C0
:1011D0004EFC7A2003F04BFCCB2003F054FC39206A
:1011E00003F045FC2C2003F042FC002003F03FFC00
:1011F000342003F03CFC022014E000000004024014
:10120000000C02400010024000140240001802408E
:10121000EC000020204C43442049443A25780D0A34
:101220000000000003F023FCF72003F02CFC20203A
:1012300003F01DFCEA2003F026FC002003F017FC5D
:10124000002003F014FCC02003F01DFC1B2003F061
:101250000EFCC12003F017FC012003F008FCC520A0
:1012600003F011FC302003F002FC302003F0FFFB00
:10127000C72003F008FCB72003F0F9FB362003F089
:1012800002FC482000E0A7E003F0F1FB3A2003F065
:10129000FAFB552003F0EBFBB12003F0F4FB002038
:1012A00003F0E5FB1A2003F0E2FBB62003F0EBFBB2
:1012B0000A2003F0DCFBA22003F0D9FBF22003F0AC
:1012C000E2FB002003F0D3FB262003F0DCFB01202F
:1012D00003F0CDFBE02003F0D6FB0F2003F0C7FBAB
:1012E0002A2003F0C4FB282003F0C1FB082003F0F0
:1012F000BEFB0E2003F0BBFB082003F0B8FB54201C
:1013000003F0B5FBA92003F0B2FB432003F0AFFBD1
:101310000A2003F0ACFB0F2003F0A9FB002003F030
:10132000A6FB002003F0A3FB002003F0A0FB00209D
:1013300003F09DFBE12003F0A6FB002003F097FBE8
:10134000152003F094FB172003F091FB072003F016
:101350008EFB112003F08BFB062003F088FB2B2073
:1013600003F085FB562003F082FB3C2003F07FFB5B
:10137000052003F07CFB102003F079FB0F2003F025
:1013800076FB3F2003F073FB3F2003F070FB0F2040
:1013900003F06DFB2B2003F076FB002003F067FBCE
:1013A000002003F064FB012003F061FB3F2003F009
:1013B0005EFB2A2003F067FB002003F058FB0020AF
:1013C00003F055FB002003F052FBEF2003F04FFB2E
:1013D000112003F058FBA5E0B8427CD1112003F0A6
:1013E00052FB142003F00CFED02003F04CFB07202E
:1013F00003F03DFB422003F03AFB1D2003F037FBD6
:10140000D12003F040FB002003F031FB1A2003F051
:101410002EFB092003F02BFBD22003F034FB01202C
:1014200003F025FB222003F022FBC02003F02BFB5E
:10143000102003F01CFB3B2003F019FB002003F0FD
:1014400016FB022003F013FB112003F010FBC52054
:1014500003F019FB032003F00AFBC82003F013FB81
:10146000002003F004FB252003F001FB212003F002
:10147000FEFA052003F0FBFA002003F0F8FA0A2038
:1014800003F0F5FA652003F0F2FA252003F0EFFAF5
:10149000772003F0ECFA502003F0E9FA0F2003F074
:1014A000E6FA002003F0E3FAF82003F0ECFA01205A
:1014B00003F0DDFAFE2003F0E6FA002003F0D7FA8D
:1014C000022003F0D4FA202003F0DDFA362003F0E6
:1014D000DAFA082000E02BE003F0C9FA3A2003F022
:1014E000D2FA552003F0C3FA2B2003F0CCFA0020E7
:1014F00003F0BDFA002003F0BAFA012003F0B7FAB6
:101500003F2003F0B4FA2A2003F0BDFA002003F0D4
:10151000AEFA002003F0ABFA012003F0A8FADF20B6
:1015200003F0A5FA782003F06BFD292001F0FBBE43
:10153000B0427CD1ED2003F0A6FA012003F097FA27
:10154000FE2003F094FAEE2003F09DFADE2003F073
:101550008EFA212003F08BFAF12003F094FA012097
:1015600003F085FADF2003F08EFA102003F07FFAF3
:10157000C42003F088FA8F2003F079FAC62003F024
:1015800082FA002003F073FAE22003F070FAE220FE
:1015900003F06DFAE22003F06AFABF2003F073FA59
:1015A000AA2003F064FAB02003F06DFA0D2003F0D6
:1015B0005EFA002003F05BFA0D2003F058FA0020D9
:1015C00003F055FA112003F052FA002003F04FFA0D
:1015D000192003F04CFA002003F049FA212003F00F
:1015E00046FA002003F043FA2D2003F040FA0020D1
:1015F00003F03DFA3D2003F03AFA002003F037FAF9
:101600005D2003F034FA002003F031FA5D2003F08E
:101610002EFA002003F02BFAB12003F034FA8020D8
:1016200003F025FA002003F022FA8B2000E0FCE30F
:1016300003F01DFA002003F01AFA962003F017FABF
:10164000002003F014FAB22003F01DFA002003F08A
:101650000EFA002003F00BFA022003F008FA002033
:1016600003F005FA032003F002FA002003F0FFF96B
:10167000B32003F008FA002003F0F9F9002003F08A
:10168000F6F9002003F0F3F9002003F0F0F9002050
:1016900003F0EDF9002003F0EAF9002003F0E7F988
:1016A000002003F0E4F9002003F0E1F9002003F04A
:1016B000DEF9002003F0DBF9002003F0D8F9002068
:1016C00003F0D5F9002003F0D2F9002003F0CFF9A0
:1016D000002003F0CCF9002003F0C9F9002003F04A
:1016E000C6F9002003F0C3F9002003F0C0F9002080
:1016F00003F0BDF9002003F0BAF9002003F0B7F9B8
:10170000002003F0B4F9B42003F0BDF98B2003F0FE
:10171000AEF9002003F0ABF9962003F0A8F9002001
:1017200003F0A5F9A12003F0A2F9002003F09FF92E
:10173000B52003F0A8F9022003F099F9002003F086
:1017400096F9032003F093F9002003F090F90420A8
:1017500003F08DF9002003F08AF9B62003F093F925
:10176000002003F084F9002003F081F9B72003F092
:101770008AF9002003F07BF9002003F078F93F207C
:1017800003F075F9002003F072F95E2003F06FF9A1
:10179000002003F06CF9642003F069F9002003F0E5
:1017A00066F98C2003F063F9002003F060F9AC20A7
:1017B00003F05DF9002003F05AF9DC2003F057F93B
:1017C000002003F054F9702003F051F9002003F0D9
:1017D0004EF9902003F04BF9002003F048F9EB207C
:1017E00003F045F9002003F042F9DC2003F03FF953
:1017F000002003F03CF9B82003F045F9002003F085
:1018000036F9002003F033F9002003F030F900200E
:1018100003F02DF9002003F02AF9002003F027F946
:10182000002003F024F9002003F021F9BA2003F08E
:101830002AF9242003F01BF9002003F018F90020F6
:1018400003F015F9002003F012F9C12003F01BF991
:10185000202003F00CF9002003F009F9542003F0D4
:1018600006F9002003F003F9FF2003F000F900203F
:1018700003F0FDF8C22003F006F90A2003F0F7F8A0
:10188000002003F0F4F8042003F0F1F8002003F046
:10189000EEF8C32003F0F7F83C2003F0E8F800204E
:1018A00003F0E5F83A2003F0E2F8002003F0DFF857
:1018B000392003F0DCF8002003F0D9F8372003F0DA
:1018C000D6F8002003F0D3F83C2003F0D0F8002035
:1018D00003F0CDF8362003F0CAF8002003F0C7F873
:1018E000322003F0C4F8002003F0C1F82F2003F0E9
:1018F000BEF8002003F0BBF82C2003F0B8F800205D
:1019000003F0B5F8292003F0B2F8002003F0AFF897
:10191000262003F0ACF8002003F0A9F8242003F0FF
:10192000A6F8002003F0A3F8242003F0A0F800207C
:1019300003F09DF8232003F09AF8002003F097F8B5
:101940003C2003F094F8002003F091F8362003F0D7
:101950008EF8002003F08BF8322003F088F8002086
:1019600003F085F82F2003F082F8002003F07FF8C1
:101970002C2003F07CF8002003F079F8292003F0F4
:1019800076F8002003F073F8262003F070F80020AA
:1019900003F06DF8242003F06AF8002003F067F8E4
:1019A000242003F064F8002003F061F8232003F002
:1019B0005EF8002003F05BF8C42003F064F86220B6
:1019C00003F055F8002003F052F8052003F04FF81B
:1019D000002003F04CF8842003F049F8002003F0C5
:1019E00046F8F02003F043F8002003F040F81820F8
:1019F00003F03DF8002003F03AF8A42003F037F894
:101A0000002003F034F8182003F031F8002003F030
:101A10002EF8502003F02BF8002003F028F80C20BB
:101A200003F025F8002003F022F8172003F01FF838
:101A3000002003F01CF8952003F019F8002003F0B3
:101A400016F8F32003F013F8002003F010F8E62056
:101A500003F00DF8002003F00AF8C52003F013F896
:101A6000322003F004F8002003F001F8442002F0D3
:101A7000FEFF002002F0FBFF652002F0F8FF0020CF
:101A800002F0F5FF762002F0F2FF002002F0EFFFF7
:101A9000882002F0ECFF002002F0E9FFC62002F0EF
:101AA000F2FF202002F0E3FF002002F0E0FF172009
:101AB00002F0DDFF002002F0DAFF012002F0D7FF84
:101AC000002002F0D4FFC72002F0DDFF002002F06A
:101AD000CEFF002002F0CBFF002002F0C8FF002064
:101AE00002F0C5FFC82002F0CEFF002002F0BFFFC9
:101AF000002002F0BCFF002002F0B9FF002002F03D
:101B0000B6FFC92002F0BFFF002002F0B0FF0020A6
:101B100002F0ADFF002002F0AAFF002002F0A7FFB4
:101B2000002002F0A4FF002002F0A1FF002002F03C
:101B30009EFF002002F09BFF002002F098FF002093
:101B400002F095FF002002F092FF002002F08FFFCC
:101B5000002002F08CFF002002F089FF002002F03C
:101B600086FF002002F083FFE02002F08CFF1620A9
:101B700002F07DFF002002F07AFF1C2002F077FFC8
:101B8000002002F074FF212002F071FF002002F01B
:101B90006EFF362002F06BFF002002F068FF462047
:101BA00002F065FF002002F062FF522002F05FFFAA
:101BB000002002F05CFF642002F059FF002002F0D8
:101BC00056FF7A2002F053FF002002F050FF8B20D6
:101BD00002F04DFF002002F04AFF992002F047FF7B
:101BE000002002F044FFA82002F041FF002002F094
:101BF0003EFFB92002F03BFF002002F038FFC42076
:101C000002F035FF002002F032FFCA2002F02FFF61
:101C1000002002F02CFFD22002F029FF002002F069
:101C200026FFD92002F023FF002002F020FFE02051
:101C300002F01DFF002002F01AFFF32002F017FF50
:101C4000002002F014FFE12002F01DFF162002F038
:101C50000EFF002002F00BFF1C2002F008FF002006
:101C600002F005FF222002F002FF002002F0FFFE3A
:101C7000362002F0FCFE002002F0F9FE452002F0C2
:101C8000F6FE002002F0F3FE522002F0F0FE0020EB
:101C900002F0EDFE642002F0EAFE002002F0E7FE12
:101CA0007A2002F0E4FE002002F0E1FE8B2002F038
:101CB000DEFE002002F0DBFE992002F0D8FE0020BC
:101CC00002F0D5FEA82002F0D2FE002002F0CFFEE6
:101CD000B92002F0CCFE002002F0C9FEC42002F0C0
:101CE000C6FE002002F0C3FECA2002F0C0FE0020A3
:101CF00002F0BDFED22002F0BAFE002002F0B7FED4
:101D0000D82002F0B4FE002002F0B1FEE02002F084
:101D1000AEFE002002F0ABFEF32002F0A8FE002091
:101D200002F0A5FEE22002F0AEFE052002F09FFECA
:101D3000002002F09CFE0B2002F099FE002002F031
:101D400096FE1B2002F093FE002002F090FE34204D
:101D500002F08DFE002002F08AFE442002F087FE91
:101D6000002002F084FE4F2002F081FE002002F0ED
:101D70007EFE612002F07BFE002002F078FE7920DA
:101D800002F075FE002002F072FE882002F06FFE65
:101D9000002002F06CFE972002F069FE002002F0A5
:101DA00066FEA62002F063FE002002F060FEB7206F
:101DB00002F05DFE002002F05AFEC22002F057FE43
:101DC000002002F054FEC72002F051FE002002F075
:101DD0004EFED12002F04BFE002002F048FED6203D
:101DE00002F045FE002002F042FEDD2002F03FFE40
:101DF000002002F03CFEF32002F039FE002002F049
:101E000036FEE32002F03FFE052002F030FE002007
:101E100002F02DFE0A2002F02AFE002002F027FE2A
:101E20001C2002F024FE002000E0FDE202F01FFE74
:101E3000332002F01CFE002002F019FE442002F0C4
:101E400016FE002002F013FE502002F010FE0020CB
:101E500002F00DFE622002F00AFE002002F007FEF2
:101E6000782002F004FE002002F001FE882002F03B
:101E7000FEFD002002F0FBFD972002F0F8FD00209F
:101E800002F0F5FDA62002F0F2FD002002F0EFFDC9
:101E9000B72002F0ECFD002002F0E9FDC22002F0C4
:101EA000E6FD002002F0E3FDC72002F0E0FD002087
:101EB00002F0DDFDD12002F0DAFD002002F0D7FDB6
:101EC000D52002F0D4FD002002F0D1FDDD2002F08B
:101ED000CEFD002002F0CBFDF32002F0C8FD002073
:101EE00002F0C5FDE42002F0CEFD012002F0BFFDAE
:101EF000002002F0BCFD012002F0B9FD002002F03C
:101F0000B6FD022002F0B3FD002002F0B0FD2A2051
:101F100002F0ADFD002002F0AAFD3C2002F0A7FD7A
:101F2000002002F0A4FD4B2002F0A1FD002002F0F1
:101F30009EFD5D2002F09BFD002002F098FD7420C4
:101F400002F095FD002002F092FD842002F08FFD4A
:101F5000002002F08CFD932002F089FD002002F0A9
:101F600086FDA22002F083FD002002F080FDB32058
:101F700002F07DFD002002F07AFDBE2002F077FD28
:101F8000002002F074FDC42002F071FD002002F078
:101F90006EFDCD2002F06BFD002002F068FDD32025
:101FA00002F065FD002002F062FDDD2002F05FFD21
:101FB000002002F05CFDF32002F059FD002002F049
:101FC00056FDE52002F05FFD002002F050FD0020EC
:101FD00002F04DFD002002F04AFD002002F047FD16
:101FE000022002F044FD002002F041FD292002F011
:101FF0003EFD002002F03BFD3C2002F038FD0020B9
:1020000002F035FD4B2002F032FD002002F02FFDE2
:102010005D2002F02CFD002002F029FD742002F06A
:1020200026FD002002F023FD842002F020FD002088
:1020300002F01DFD932002F01AFD002002F017FDB2
:10204000A22002F014FD002002F011FDB32002F0E6
:102050000EFD002002F00BFDBE2002F008FD002066
:1020600002F005FDC42002F002FD002002F0FFFC9A
:10207000CD2002F0FCFC002002F0F9FCD32002F09D
:10208000F6FC002002F0F3FCDC2002F0F0FC002063
:1020900002F0EDFCF32002F0EAFC002002F0E7FC85
:1020A000E62002F0F0FC112002F0E1FC002002F03A
:1020B000DEFC342002F0DBFC002002F0D8FC5620CD
:1020C00002F0D5FC002002F0D2FC762002F0CFFC1A
:1020D000002002F0CCFC772002F0C9FC002002F0C6
:1020E000C6FC662002F0C3FC002002F0C0FC882081
:1020F00002F0BDFC002002F0BAFC992002F0B7FC0F
:10210000002002F0B4FCBB2002F0B1FC002002F081
:10211000AEFC992002F0ABFC002002F0A8FC662087
:1021200002F0A5FC002002F0A2FC552002F09FFC6A
:10213000002002F09CFC552002F099FC002002F0E7
:1021400096FC452002F093FC002002F090FC432016
:1021500002F08DFC002002F08AFC442002F087FC93
:10216000002002F084FCE72002F08DFC322002F017
:102170007EFC002002F07BFC552002F078FC002061
:1021800002F075FC762002F072FC002002F06FFC79
:10219000662002F06CFC002002F069FC672002F06F
:1021A00066FC002002F063FC672002F060FC002067
:1021B00002F05DFC872002F05AFC002002F057FC80
:1021C000992002F054FC002002F051FCBB2002F0E8
:1021D0004EFC002002F04BFC992002F048FC00204D
:1021E00002F045FC772002F042FC002002F03FFCA8
:1021F000442002F03CFC002002F039FC562002F0A2
:1022000036FC002002F033FC232002F030FC0020DA
:1022100002F02DFC332002F02AFC002002F027FC03
:10222000452002F024FC002002F021FCE82002F00E
:102230002AFC002002F01BFC002002F018FC992070
:1022400002F015FC002002F012FC872002F00FFCC7
:10225000002002F00CFC882002F009FC002002F0B3
:1022600006FC772002F003FC002002F000FC662050
:1022700002F0FDFB002002F0FAFB882002F0F7FBE1
:10228000002002F0F4FBAA2002F0F1FB002002F093
:10229000EEFBBB2002F0EBFB002002F0E8FB9920F4
:1022A00002F0E5FB002002F0E2FB662002F0DFFB1B
:1022B000002002F0DCFB552002F0D9FB002002F0E8
:1022C000D6FB552002F0D3FB002002F0D0FB4420C7
:1022D00002F0CDFB002002F0CAFB442002F0C7FB55
:1022E000002002F0C4FB552002F0C1FB002002F0E8
:1022F000BEFBE92002F0C7FBAA2002F0B8FB0020D9
:1023000002F0B5FB002002F0B2FB002002F0AFFBB0
:10231000002002F0B8FBAA2002F0A9FBCF2002F0B7
:10232000B2FB002002F0A3FB002002F0A0FB002083
:1023300002F09DFB002002F09AFB002002F097FBC8
:10234000002002F094FB002002F091FB002002F03C
:102350008EFB002002F08BFB002002F088FB0020A7
:1023600002F085FB002002F082FB002002F07FFBE0
:10237000002002F07CFB002002F079FB002002F03C
:1023800076FB002002F073FBF02002F07CFB0020C3
:1023900002F06DFB502002F06AFB002002F067FBA8
:1023A000002002F064FB002002F061FBF32002F049
:1023B0006AFB002002F05BFBF92002F064FB0620C0
:1023C00002F055FB102002F052FB292002F04FFBD7
:1023D000002002F04CFB3A2002F055FB552002F0A1
:1023E00046FB112002F04FFB642002F009FE292079
:1023F00002F049FB352002F046FB002002F037FBDB
:10240000512002F040FBFF2002F031FB532002F08C
:102410003AFB2C2002F02BFB552002F034FB8220EB
:1024200002F025FB2C20FCE3A0427DD14FF4704349
:102430005521184602F03EFB4FF20104AA21204626
:1024400002F038FB651C5221284602F033FBA61C23
:102450000821304602F02EFBE71C0121384602F02D
:1024600029FB0D214FF4304002F024FB0D214BF2EB
:10247000010002F01FFB0D214BF2020002F01AFBDB
:102480004FF436483421404602F014FB34214BF21D
:10249000016002F00FFB34214BF2026002F00AFBF4
:1024A0004FF431490D21484602F004FB4BF2011A6A
:1024B0000D21504602F0FEFA0D214BF2021002F0FF
:1024C000F9FA34214FF4374002F0F4FA34214BF298
:1024D000017002F0EFFA34214BF2027002F0EAFAD6
:1024E00000214FF4324002F0E5FA00214BF20120C6
:1024F00002F0E0FA00214BF2022002F0DBFA242184
:102500004FF4384002F0D6FA24214BF6010002F0D5
:10251000D1FA24214BF6020002F0CCFA01214FF44B
:102520003F4002F0C7FA00E0FEE30F214FF43340D2
:1025300002F0C0FA0F214BF2013002F0BBFA0F217A
:102540004BF2023002F0B6FA34214FF4394002F077
:10255000B1FA34214BF6011002F0ACFA34214BF6FB
:10256000021002F0A7FA08214FF4354002F0A2FA57
:1025700008214BF2015002F09DFA08214BF2025063
:1025800002F098FA03214FF4424002F093FA24211A
:102590004FF43A4002F08EFA24214BF6012002F06B
:1025A00089FA24214BF6022002F084FA00214FF42C
:1025B0003C4002F07FFA78214BF6014002F07AFAB3
:1025C00000214BF6024002F075FA00214FF43D4025
:1025D00002F070FA78214BF6015002F06BFA0021FC
:1025E0004BF6025002F066FA00214FF43E4002F032
:1025F00061FA64214BF6016002F05CFA00214FF4AD
:10260000514002F057FA33214DF2011002F052FA14
:1026100000214DF2021002F04DFA34214DF2031068
:1026200002F048FA00214DF2041002F043FA3A2178
:102630004DF2051002F03EFA00214DF2061002F0B4
:1026400039FA4A214DF2071002F034FA00214DF216
:10265000081002F02FFA5C214DF2091002F02AFA5C
:1026600000214DF20A1002F025FA81214DF20B10E3
:1026700002F020FA00214DF20C1002F01BFAA62104
:102680004DF20D1002F016FA00214DF20E1002F07C
:1026900011FAE5214DF20F1002F00CFA01214DF272
:1026A000101002F007FA13214DF2111002F002FA95
:1026B00001214DF2121002F0FDF954214DF21310D8
:1026C00002F0F8F901214DF2141002F0F3F9822121
:1026D0004DF2151002F0EEF901214DF2161002F044
:1026E000E9F9CA214DF2171002F0E4F902214DF286
:1026F000181002F0DFF900214DF2191002F0DAF99A
:1027000002214DF21A1002F0D5F901214DF21B10F1
:1027100002F0D0F902214DF21C1002F0CBF9342165
:102720004DF21D1002F0C6F902214DF21E1002F00A
:10273000C1F967214DF21F1002F0BCF902214DF2E0
:10274000201002F0B7F984214DF2211002F0B2F905
:1027500002214DF2221002F0ADF9A4214DF2231016
:1027600002F0A8F902214DF2241002F0A3F9B721DA
:102770004DF2251002F09EF902214DF2261002F0D2
:1027800099F9CF214DF2271002F094F902214DF270
:10279000281002F08FF9DE214DF2291002F08AF99B
:1027A00002214DF22A1002F085F9F2214DF22B1090
:1027B00002F080F902214DF22C1002F07BF9FE218B
:1027C0004DF22D1002F076F903214DF22E1002F099
:1027D00071F910214DF22F1002F06CF903214DF226
:1027E000301002F067F933214DF2311002F062F936
:1027F00003214DF2321002F05DF96D214DF23310DC
:1028000002F058F900214FF4524002F053F93321FD
:102810004DF2012002F04EF900214DF2022002F0AB
:1028200049F934214DF2032002F044F900214DF220
:10283000042002F03FF93A214DF2052002F03AF966
:1028400000214DF2062002F035F94A214DF2072011
:1028500002F030F900214DF2082002F02BF95C2142
:102860004DF2092002F026F900214DF20A2002F073
:1028700021F981214DF20B2002F01CF900214DF2CB
:102880000C2002F017F9A6214DF20D2002F012F9EA
:1028900000214DF20E2002F00DF9E5214DF20F203E
:1028A00002F008F901214DF2102002F003F9132182
:1028B0004DF2112002F0FEF801214DF2122002F03B
:1028C000F9F854214DF2132002F0F4F801214DF2F1
:1028D000142002F0EFF882214DF2152002F0EAF800
:1028E00001214DF2162002F0E5F8CA214DF2172021
:1028F00002F0E0F802214DF2182002F0DBF800218E
:102900004DF2192002F0D6F802214DF21A2002F001
:10291000D1F801214DF21B2002F0CCF802214DF23A
:102920001C2002F0C7F834214DF21D2002F0C2F83D
:1029300002214DF21E2002F0BDF867214DF21F204A
:1029400002F0B8F802214DF2202002F0B3F8842101
:102950004DF2212002F0AEF802214DF2222002F0C9
:10296000A9F8A4214DF2232002F0A4F802214DF28F
:10297000242002F09FF8B7214DF2252002F09AF8AA
:1029800002214DF2262002F095F8CF214DF22720AA
:1029900002F090F802214DF2282002F08BF8DE219F
:1029A0004DF2292002F086F802214DF22A2002F091
:1029B00081F8F2214DF22B2002F07CF802214DF239
:1029C0002C2002F077F8FE214DF22D2002F072F853
:1029D00003214DF22E2002F06DF810214DF22F2030
:1029E00002F068F803214DF2302002F063F8332141
:1029F0004DF2312002F05EF803214DF2322002F058
:102A000059F86D214DF2332002F054F800214FF4B3
:102A1000534002F04FF833214DF2013002F04AF8F2
:102A200000214DF2023002F045F834214DF203301E
:102A300002F040F800214DF2043002F03BF83A2158
:102A40004DF2053002F036F800214DF2063002F06A
:102A500031F84A214DF2073002F02CF800214DF2F6
:102A6000083002F027F85C214DF2093002F022F81C
:102A700000214DF20A3002F01DF881214DF20B3099
:102A800002F018F800214DF20C3002F013F8A621E4
:102A90004DF20D3002F00EF800214DF20E3002F032
:102AA00009F8E5214DF20F3002F004F801214DF252
:102AB000103001F0FFFF13214DF2113001F0FAFF49
:102AC00001214DF2123001F0F5FF54214DF2133087
:102AD00001F0F0FF01214DF2143001F0EBFF8221F3
:102AE0004DF2153001F0E6FF01214DF2163001F0F4
:102AF000E1FFCA214DF2173001F0DCFF02214DF257
:102B0000183001F0D7FF00214DF2193001F0D2FF4B
:102B100002214DF21A3001F0CDFF01214DF21B30A0
:102B200001F0C8FF02214DF21C3001F0C3FF342137
:102B30004DF21D3001F0BEFF02214DF21E3001F0BA
:102B4000B9FF67214DF21F3001F0B4FF02214DF2B1
:102B5000203001F0AFFF84214DF2213001F0AAFFB7
:102B600002214DF2223001F0A5FFA4214DF22330C5
:102B700001F0A0FF02214DF2243001F09BFFB721AC
:102B80004DF2253001F096FF02214DF2263001F082
:102B900091FFCF214DF2273001F08CFF02214DF241
:102BA000283001F087FFDE214DF2293001F082FF4D
:102BB00002214DF22A3001F07DFFF2214DF22B303F
:102BC00001F078FF02214DF22C3001F073FFFE215D
:102BD0004DF22D3001F06EFF03214DF22E3001F049
:102BE00069FF10214DF22F3001F064FF03214DF2F7
:102BF000303001F05FFF33214DF2313001F05AFFE8
:102C000003214DF2323001F055FF6D214DF233308A
:102C100001F050FF00214FF4544001F04BFF3321ED
:102C200000E080E34DF2014001F044FF00214DF24D
:102C3000024001F03FFF34214DF2034001F03AFF22
:102C400000214DF2044001F035FF3A214DF20540DC
:102C500001F030FF00214DF2064001F02BFF4A2128
:102C60004DF2074001F026FF00214DF2084001F02F
:102C700021FF5C214DF2094001F01CFF00214DF2C3
:102C80000A4001F017FF81214DF20B4001F012FFC5
:102C900000214DF20C4001F00DFFA6214DF20D4038
:102CA00001F008FF00214DF20E4001F003FFE52185
:102CB0004DF20F4001F0FEFE01214DF2104001F0F7
:102CC000F9FE13214DF2114001F0F4FE01214DF205
:102CD000124001F0EFFE54214DF2134001F0EAFEE4
:102CE00001214DF2144001F0E5FE82214DF2154024
:102CF00001F0E0FE01214DF2164001F0DBFECA2199
:102D00004DF2174001F0D6FE02214DF2184001F0BD
:102D1000D1FE00214DF2194001F0CCFE02214DF20E
:102D20001A4001F0C7FE00E000E301214DF21B4014
:102D300001F0C0FE02214DF21C4001F0BBFE342127
:102D40004DF21D4001F0B6FE02214DF21E4001F091
:102D5000B1FE67214DF21F4001F0ACFE02214DF2A1
:102D6000204001F0A7FE84214DF2214001F0A2FE97
:102D700002214DF2224001F09DFEA4214DF223409C
:102D800001F098FE02214DF2244001F093FEB7219C
:102D90004DF2254001F08EFE02214DF2264001F059
:102DA00089FECF214DF2274001F084FE02214DF231
:102DB000284001F07FFEDE214DF2294001F07AFE2D
:102DC00002214DF22A4001F075FEF2214DF22B4016
:102DD00001F070FE02214DF22C4001F06BFEFE214D
:102DE0004DF22D4001F066FE03214DF22E4001F020
:102DF00061FE10214DF22F4001F05CFE03214DF2E7
:102E0000304001F057FE33214DF2314001F052FEC7
:102E100003214DF2324001F04DFE6D214DF2334061
:102E200001F048FE00214FF4554001F043FE3321EC
:102E30004DF2015001F03EFE00214DF2025001F032
:102E400039FE34214DF2035001F034FE00214DF2E1
:102E5000045001F02FFE3A214DF2055001F02AFEF8
:102E600000214DF2065001F025FE4A214DF2075097
:102E700001F020FE00214DF2085001F01BFE5C2104
:102E80004DF2095001F016FE00214DF20A5001F0FA
:102E900011FE81214DF20B5001F00CFE00214DF28C
:102EA0000C5001F007FEA6214DF20D5001F002FE7C
:102EB00000214DF20E5001F0FDFDE5214DF20F50C5
:102EC00001F0F8FD01214DF2105001F0F3FD132146
:102ED0004DF2115001F0EEFD01214DF2125001F0C2
:102EE000E9FD54214DF2135001F0E4FD01214DF2B2
:102EF000145001F0DFFD82214DF2155001F0DAFD92
:102F000001214DF2165001F0D5FDCA214DF21750A6
:102F100001F0D0FD02214DF2185001F0CBFD00214F
:102F20004DF2195001F0C6FD02214DF21A5001F088
:102F3000C1FD01214DF21B5001F0BCFD02214DF2FB
:102F40001C5001F0B7FD34214DF21D5001F0B2FDCF
:102F500002214DF21E5001F0ADFD67214DF21F50D0
:102F600001F0A8FD02214DF2205001F0A3FD8421C3
:102F70004DF2215001F09EFD02214DF2225001F050
:102F800099FDA4214DF2235001F094FD02214DF250
:102F9000245001F08FFDB7214DF2255001F08AFD3C
:102FA00002214DF2265001F085FDCF214DF2275030
:102FB00001F080FD02214DF2285001F07BFDDE2161
:102FC0004DF2295001F076FD02214DF22A5001F018
:102FD00071FDF2214DF22B5001F06CFD02214DF2FA
:102FE0002C5001F067FDFE214DF22D5001F062FDE5
:102FF00003214DF22E5001F05DFD10214DF22F50B6
:1030000001F058FD03214DF2305001F053FD332102
:103010004DF2315001F04EFD03214DF2325001F0DE
:1030200049FD6D214DF2335001F044FD00214FF474
:10303000564001F03FFD33214DF2016001F03AFDB1
:1030400000214DF2026001F035FD34214DF20360A4
:1030500001F030FD00214DF2046001F02BFD3A211A
:103060004DF2056001F026FD00214DF2066001F0F1
:1030700021FD4A214DF2076001F01CFD00214DF2B7
:10308000086001F017FD5C214DF2096001F012FDAE
:1030900000214DF20A6001F00DFD81214DF20B601F
:1030A00001F008FD00214DF20C6001F003FDA621A6
:1030B0004DF20D6001F0FEFC00214DF20E6001F0BA
:1030C000F9FCE5214DF20F6001F0F4FC01214DF215
:1030D000106001F0EFFC13214DF2116001F0EAFCE9
:1030E00001214DF2126001F0E5FC54214DF2136014
:1030F00001F0E0FC01214DF2146001F0DBFC8221C3
:103100004DF2156001F0D6FC01214DF2166001F080
:10311000D1FCCA214DF2176001F0CCFC02214DF226
:10312000186001F0C7FC00214DF2196001F0C2FCEB
:1031300002214DF21A6001F0BDFC01214DF21B602D
:1031400001F0B8FC02214DF21C6001F0B3FC342107
:103150004DF21D6001F0AEFC02214DF21E6001F047
:10316000A9FC67214DF21F6001F0A4FC02214DF281
:10317000206001F09FFC84214DF2216001F09AFC57
:1031800002214DF2226001F095FCA4214DF2236052
:1031900001F090FC02214DF2246001F08BFCB7217C
:1031A0004DF2256001F086FC02214DF2266001F00F
:1031B00081FCCF214DF2276001F07CFC02214DF211
:1031C000286001F077FCDE214DF2296001F072FCED
:1031D00002214DF22A6001F06DFCF2214DF22B60CC
:1031E00001F068FC02214DF22C6001F063FCFE212D
:1031F0004DF22D6001F05EFC03214DF22E6001F0D6
:1032000059FC10214DF22F6001F054FC03214DF2C6
:10321000306001F04FFC33214DF2316001F04AFC87
:1032200003214DF2326001F045FC6D214DF2336017
:1032300001F040FC5521184601F03CFCAA21204633
:1032400001F038FC5221284601F034FC08213046B8
:1032500001F030FC0021384601F02CFCCC2148461E
:1032600001F028FC0021504601F024FC05214046D5
:1032700001F020FC70214FF4374001F01BFC70215D
:103280004BF2017001F016FC01214FF4384001F0BF
:1032900011FC03214BF6010001F00CFC03214BF65D
:1032A000020001F007FC03214BF6030001F002FCD1
:1032B00002214FF43C4001F0FDFB00214BF60140A0
:1032C00001F0F8FB00214BF6024001F0F3FBD021A6
:1032D0004FF4494001F0EEFB02214CF6011001F0E1
:1032E000E9FB50214CF6021001F0E4FB50214CF6B2
:1032F000031001F0DFFB50214CF6041001F0DAFB63
:1033000000214FF4545001F0D5FB55214FF4685083
:1033100001F0D0FB4FF4885001F0B5FB782001F0AC
:103320008BFE4FF4245001F0AEFBFDE0A0F51341FD
:103330004FF480744FF4E06940F2022A4FF42746BC
:1033400025397CD0A0F5134140F20775283977D094
:10335000A0F513414FF488774FF41C56203970D0F4
:10336000A0F5134131396DD0A0F5A84108396AD0D4
:10337000A0F5A8514FF44077053965D0A0F5354147
:1033800005397CD0A0F54541053979D0A0F58A41B1
:10339000313976D0A0F58A41353973D04045C4D152
:1033A000E22001F070FB1D2001F061FB022001F022
:1033B0005EFB042001F05BFB642001F03DFEE02099
:1033C00001F061FB012001F052FB0A2001F018FE20
:1033D000E02001F058FB032001F049FB0C2001F034
:1033E0000FFE012001F04FFB0A2001F009FEE6204C
:1033F00001F049FB2F2001F03AFBFF2001F037FBE1
:10340000FF2001F034FBB02001F03DFB202001F053
:103410002EFB002001F02BFB032001F028FB40F2E3
:103420001F3001F024FB012001F021FB40F2DF10EE
:1034300001F01DFB002001F01AFBB42005E080E044
:103440004BE103E2AAE27FE3FEE301F01CFB042070
:1034500001F00DFB40F21F4001F009FB002001F0DC
:1034600006FB2E2001F003FB002001F000FB0020F2
:1034700001F0FDFA002001F0FAFA002003E0FDE37C
:10348000FDE3FDE3FDE301F0F2FAB62001F0FBFA03
:10349000022001F0ECFA4FF4037001F0E8FA00208A
:1034A00001F0E5FA172001F0E2FA152001F0DFFA49
:1034B000002001F0DCFA002001F0D9FAF02001F040
:1034C000E2FA032001F0D3FA292001F0DCFAD0203F
:1034D00001F0D9FA002001F0CAFABE2001F0D3FAB7
:1034E000052001F0C4FAFE2001F0C1FA012001F02C
:1034F000BEFA002001F0BBFA002001F0B8FA00206B
:1035000001F0B5FAB82001F0BEFA032001F0AFFADD
:10351000012001F0ACFABA2001F0B5FA012001F067
:10352000A6FA642000F0FEFF0020FDF76FFAFF49C5
:103530000120C1F8BC025846FDF732FA21B0BDE8BF
:10354000F08F47F6F001E52001F0B4FA21460120A2
:1035500001F0B0FA4946022001F0ACFA41F2300124
:10356000032001F0A7FA0021042001F0A3FA51463C
:10357000082001F09FFA0021092001F09BFA0021A8
:103580000A2001F097FA00210C2001F093FA0021A3
:103590000D2001F08FFA00210F2001F08BFA00219D
:1035A000102001F087FA0721112001F083FA002191
:1035B000122001F07FFA0021132001F07BFA002194
:1035C000072001F077FA41F29061102001F072FAC1
:1035D00040F22721112001F06DFA9D21122001F007
:1035E00069FA4FF4C851132001F064FA252129200B
:1035F00001F060FA0D212B2001F05CFA0721302048
:1036000001F058FA40F20331312001F053FA03215E
:10361000322001F04FFA40F20621352001F04AFA3B
:103620000821362001F046FA40F20641372001F029
:1036300041FA4FF44171382001F03CFA072139205A
:1036400001F038FA40F202613C2001F033FA08211F
:103650003D2001F02FFA0021502001F02BFAEF213C
:10366000512001F027FA0021522001F023FA40F204
:103670003F11532001F01EFA3146602001F01AFA82
:103680000121612001F016FA00216A2001F012FAEE
:103690000021802001F00EFA0021812001F00AFAB9
:1036A0000021822001F006FA0021832001F002FAB5
:1036B0000021842001F0FEF90021852001F0FAF9B3
:1036C0001021902001F0F6F94FF4C061922001F032
:1036D000F1F940F233110720FEE341F28F01EC20B3
:1036E00001F0E8F941F23421EF2001F0E3F921463D
:1036F000012001F0DFF94946022001F0DBF941F237
:103700003001032001F0D6F90021042001F0D2F9A4
:103710005146082001F0CEF90021092001F0CAF934
:1037200000210A2001F0C6F901210C2001F0C2F9A4
:1037300000210D2001F0BEF900210F2001F0BAF99F
:103740000021102001F0B6F90721112001F0B2F993
:103750000021122001F0AEF90021132001F0AAF996
:103760000121072001F0A6F9322001F049FC41F2C5
:103770009041102001F09EF940F22721112001F024
:1037800099F9322001F03CFC8A21122001F092F9D3
:10379000322001F035FC4FF4D051132001F08AF9AA
:1037A0000621292001F086F90D212B2001F082F954
:1037B000322001F025FC0021202001F07BF90021BE
:1037C000212001F077F9322001F01AFC002130208D
:1037D00001F070F940F20461312001F06BF940F220
:1037E0000531322001F066F90021352001F062F93F
:1037F00040F60941362001F05DF94FF401713720A0
:1038000001F058F940F20131382001F053F929460E
:10381000392001F04FF900213C2001F04BF940F62E
:103820000A213D2001F046F9322001F0E9FB002198
:10383000502001F03FF9EF21512001F03BF9002128
:10384000522001F037F940F23F114EE100210846C5
:1038500001F030F92146012001F02CF949460220FF
:1038600001F028F941F23001032001F023F9002191
:10387000042001F01FF95146082001F01BF9002136
:10388000092001F017F900210A2001F013F90121A4
:103890000C2001F00FF900210D2001F00BF900219F
:1038A0000F2001F007F9322001F0AAFB40F20111CC
:1038B000072001F0FFF8322001F0A2FB4FF48651FF
:1038C000102001F0F7F80721112001F0F3F8394634
:1038D000122001F0EFF84FF43061132001F0EAF804
:1038E0000021292001F0E6F844F210012B2001F01C
:1038F000E1F80021502001F0DDF8EF21512001F026
:10390000D9F80021522001F0D5F840F23F115320A0
:1039100001F0D0F83146602001F0CCF8012161209F
:1039200001F0C8F800216A2002E000000080404257
:1039300001F0C0F80021802001F0BCF800218120B6
:1039400001F0B8F80021822001F0B4F800218320B2
:1039500001F0B0F80021842001F0ACF800218520AE
:1039600001F0A8F81021902001F0A4F80021922085
:1039700001F0A0F80121932001F09CF83946952030
:1039800001F098F80021972001F094F80021982088
:1039900001F090F840F27311072081E341F2140125
:1039A000E72001F087F82146012001F083F84FF469
:1039B0000071022001F07EF841F23801032001F08D
:1039C00079F85146082001F075F80021092001F02E
:1039D00071F800210A2001F06DF800210C2001F09F
:1039E00069F800210D2001F065F800210F2001F099
:1039F00061F80021102001F05DF80721112001F08D
:103A000059F80021122001F055F80021132001F08F
:103A100051F8C82001F0F4FA41F29061102001F051
:103A200049F840F22721112001F044F8322001F03A
:103A3000E7FA0C21122001F03DF8322001F0E0FA03
:103A40004FF40061132001F035F81121292001F015
:103A500031F80B212B2001F02DF8322001F0D0FAA3
:103A60000021202001F026F840F23F1319462120C2
:103A700001F020F80021302001F01CF84FF483748D
:103A80002146312001F016F80021322001F012F811
:103A90004FF40171352001F00DF841F20A61362032
:103AA00001F008F82946372001F004F821463820B3
:103AB00001F000F82946392000F0FCFF40F20241F5
:103AC0003C2000F0F7FF40F60F413D2000F0F2FFF0
:103AD0000021502000F0EEFFEF21512000F0EAFF1E
:103AE0000021522000F0E6FF1946532000F0E2FFCB
:103AF0003146602000F0DEFF0121612000F0DAFF96
:103B000000216A2000F0D6FF0021802000F0D2FFC3
:103B10000021812000F0CEFF0021822000F0CAFFAA
:103B20000021832000F0C6FF0021842000F0C2FFA6
:103B30000021852000F0BEFF1021902000F0BAFF88
:103B40004FF4C0619220FDE32146012000F0B2FF56
:103B50004946022000F0AEFF41F23001032000F0A0
:103B6000A9FF0021042000F0A5FF40F20721082052
:103B700000F0A0FF0021092000F09CFF00210A2096
:103B800000F098FF00210C2000F094FF00210D2090
:103B900000F090FF00210F2000F08CFF142001F0B6
:103BA0002FFA41F2B061102000F084FF01211120B2
:103BB00000F080FF0121172000F07CFF4FF49C7182
:103BC000122000F077FF4FF40061132000F072FF25
:103BD0000921292000F06EFF09212A2000F06AFF48
:103BE0000021A42000F066FF0021502000F062FFB9
:103BF000EF21512000F05EFF0021522000F05AFF1B
:103C000040F23F11532000F055FF3146602000F094
:103C100051FF0121612000F04DFF00216A2000F0DA
:103C200049FF0021802000F045FF0021812000F0A5
:103C300041FF0021822000F03DFF0021832000F0A1
:103C400039FF0021842000E021E000F033FF002153
:103C5000852000F02FFF1321902000F02BFF002182
:103C6000922000F027FF0321932000F023FF394624
:103C7000952000F01FFF40F2731103E014E110E201
:103C8000D7E28CE3072000F015FF322008E1002185
:103C9000072000F00FFF322001F0B2F94FF48E71CF
:103CA000122000F007FF0121A42000F003FF0F21E4
:103CB000082000F0FFFE08210A2000F0FBFE08218A
:103CC0000D2000F0F7FE2B462946302000F0F2FED2
:103CD0000721312000F0EEFE40F20361322000F0B7
:103CE000E9FE4D464946332000F0E4FE51463420BB
:103CF00000F0E0FE0221352000F0DCFE41F60F71FD
:103D0000362000F0D7FE1946372000F0D3FE002100
:103D1000382000F0CFFE0021392000F0CBFE1946FC
:103D20003A2000F0C7FE00213B2000F0C3FE07212F
:103D30003C2000F0BFFE00213D2000F0BBFE322001
:103D400001F05EF90121072000F0B4FE01211720E7
:103D500000F0B0FE322001F053F94FF4BD511020B5
:103D600000F0A8FE40F21721112000F0A3FE4FF44E
:103D70008F71122000F09EFE4FF47061132000F04E
:103D800099FE00212A2000F095FE0A21292000F04A
:103D900091FE4FF49F71122000F08CFE0021502004
:103DA00000F088FEEF21512000F084FE0021522017
:103DB00000F080FE40F23F11532000F07BFE3146C0
:103DC000602000F077FE0121612000F073FE0021E9
:103DD0006A2000F06FFE0021802000F06BFE0021C1
:103DE000812000F067FE0021822000F063FE0021A8
:103DF000832000F05FFE0021842000F05BFE0021A4
:103E0000852000F057FE1321902000F053FE394624
:103E1000922000F04FFE0521932000F04BFE002180
:103E2000952000F047FE0021972000F043FE00217E
:103E3000982000F03FFE2146012000F03BFE29467D
:103E4000022000F037FE41F23801032000F032FE7C
:103E50000021042000F02EFE00210C2000F02AFE9C
:103E600000210F2000F026FE0021202000F022FE7D
:103E70000021212000F01EFE2121072000F01AFE63
:103E8000142001F0BDF86121072000F013FE14207A
:103E900001F0B6F840F27311072000F00BFE142079
:103EA00001F0AEF8FFF740BB0021084600F002FE2B
:103EB0000021084600F0FEFD0021084600F0FAFD52
:103EC0000021084600F0F6FD0121A42000F0F2FDDB
:103ED000142001F095F800E0DEE03146602000F0AB
:103EE000E9FD55465146082000F0E4FD4FF4057108
:103EF000302000F0DFFD43F21571312000F0DAFDD3
:103F000040F20461322000F0D5FD40F61661332006
:103F100000F0D0FD42F21121342000F0CBFD4FF42F
:103F2000A851352000F0C6FD48F20751362000F0B8
:103F3000C1FD41F20741372000F0BCFD41F20341D1
:103F4000382000F0B7FD2021392000F0B3FD1A2100
:103F5000902000F0AFFD0021102000F0ABFD072104
:103F6000112000F0A7FD0021122000F0A3FD002188
:103F7000132000F09FFD142001F042F84FF4E66199
:103F8000102000F097FD40F23711112000F092FD53
:103F9000142001F035F84FF4DC71122000F08AFD96
:103FA000142001F02DF84FF47061132000F082FD11
:103FB00080212A2000F07EFD4821292000F07AFD92
:103FC000142001F01DF82146012000F073FD494640
:103FD000022000F06FFD41F23801032000F06AFD7D
:103FE0002946082000F066FD00210A2000F062FD4D
:103FF00000210C2000F05EFD00210D2000F05AFD94
:1040000030210E2000F056FD0021502000F052FD1E
:10401000EF21512000F04EFD0021522000F04AFD1A
:1040200040F23F11532000F045FD3146602000F082
:1040300041FD0121612000F03DFD00216A2000F0DA
:1040400039FD1121902000F035FD4FF4C061922020
:1040500000F030FD40F20241932000F02BFD0221E0
:10406000942000F027FD142000F0CAFF0121072052
:1040700000F020FD142000F0C3FF6121072000F0B4
:1040800019FD40F27311072000F014FD00212020DB
:1040900000F010FD0021212000F00CFD2221002065
:1040A0007AE10021084600F005FD0021084600F0F5
:1040B00001FD142000F0A4FF0021084600F0FAFCE6
:1040C0000021084600F0F6FC0021084600F0F2FC52
:1040D0000021084600F0EEFC0121A42000F0EAFCDB
:1040E000142000F08DFF3146602000F0E3FC40F624
:1040F0000601082000F0DEFC40F203731946302070
:1041000000F0D8FC0121312000F0D4FC0421322041
:1041100000F0D0FC4FF48171332000F0CBFC394625
:10412000342000F0C7FC40F20311352000F0C2FC3F
:104130001F21362000F0BEFC1946372000F0BAFCE3
:104140000121382000F0B6FC0421392000F0B2FC37
:104150001521902000F0AEFC4FF48261102000F099
:10416000A9FC40F24721112000F0A4FC4FF4DE71BD
:10417000122000F09FFC4FF46061132000F09AFCC5
:10418000782000F03DFF2146012000F093FC4FF421
:104190000071022000F08EFC41F23001032000F09B
:1041A00089FC08210A2000F085FC00210C2000F089
:1041B00081FC20210E2000F07DFC00210F2000F06A
:1041C00079FC0021202000F075FC0021212000F066
:1041D00071FC3D212A2000F06DFC142000F010FF3E
:1041E0002D21292000F066FC0021502000F062FC07
:1041F0004DF2EF01512000F05DFC0021522000F053
:1042000059FC40F23F11532000F054FC0021612082
:1042100000F050FC00216A2000F04CFC394692204E
:1042200000F048FC0521932000F044FC2146FFF7F4
:10423000B3BB0121002000F03DFC0A2000F0E0FEAD
:1042400041F22861102000F035FC0E21122000F010
:1042500031FC40F63921132000F02CFC0A2000F03C
:10426000CFFE4021112000F025FC5021152000F048
:1042700021FC0A2000F0C4FE1E21122000F01AFCCE
:104280000A2000F0BDFE4FF4B151102000F012FCE6
:1042900042F63921132000F00DFC0A2000F0B0FE98
:1042A0002146012000F006FC3946022000F002FC05
:1042B00041F23801032000F0FDFB5146082000F0D8
:1042C000F9FB08210A2000F0F5FB0021302000F066
:1042D000F1FB40F20241312000F0ECFB4FF483711E
:1042E000322000F0E7FB40F20351332000F0E2FB04
:1042F0004FF48271342000F0DDFB40F201313520B3
:1043000000F0D8FB2946362000F0D4FB40F20531FE
:10431000372000F0CFFB4FF40271382000F0CAFBC9
:1043200040F60B71392000F0C5FB0221412000F05E
:10433000C1FB3146602000F0BDFB0121612000F08F
:10434000B9FB00E0CDE04FF40471902000F0B2FB27
:104350004FF48571922000F0ADFB0421932000F012
:10436000A9FB2146A02000F0A5FB0121072000F0B9
:10437000A1FB2121072000F09DFB2321072000F055
:1043800099FB3321072000F095FB40F23311072001
:1043900000F090FB0021A02000F08CFB82E5302192
:1043A000152000F087FB10219A2000F083FB2021CC
:1043B000112000F07FFB43F22841102000F07AFB2F
:1043C0000221122000F076FB41F23801132000F0A8
:1043D00071FB282000F014FE1221084600F06AFB51
:1043E000282000F00DFE43F22041102000F062FB77
:1043F00043F23801132000F05DFB462000F000FE80
:104400000021302000F056FB40F20241312000F044
:1044100051FB40F20731322000F04CFB4FF4417168
:10442000332000F047FB0421342000F043FB40F22E
:104430000141352000F03EFB2946362000F03AFBD2
:1044400040F20531372000F035FB4FF4C2631946C6
:10445000382000F02FFB1946392000F02BFB2146B5
:10446000012000F027FB3946022000F023FB41F237
:104470003001032000F01EFB40F60801082000F088
:1044800019FB08210A2000F015FB3146602000F0DE
:1044900011FB0121612000F00DFB4FF49F71902072
:1044A00000F008FB2146922000F004FB21469320F7
:1044B00000F000FB4FF44051A02000F0FBFA102167
:1044C000A32000F0F7FA0121072000F0F3FA2121E0
:1044D000072000F0EFFA2321072000F0EBFA332148
:1044E000072000F0E7FA40F23311A0E6034601206E
:1044F00000E05843491EC9B2FBD2704708B54FF0DF
:10450000D840B0F88000ADF80000BDF8000008BD4C
:1045100010B500F0B8FA052000F08EFDBDE810409F
:10452000FFF7ECBF10B50246BE2000F0ACFA052044
:1045300000F09DFA104602F016FE9FED0C1B53ECA6
:10454000112B02F023FE02F0E1FD80B200F08FFAA1
:10455000012000F08CFAFF2000F089FA002000F022
:1045600086FABDE81040002000F081BA66666666F3
:1045700066660440F0B57F4D00232946AA798988F4
:1045800046F6040741F66314012A01D02AB11DE062
:10459000B9421BD0A14202D118E0A14216D108288D
:1045A00014D2DFE800F00406080A0C0E10120620F0
:1045B0000CE007200AE0042008E0052006E00120C6
:1045C00004E0002002E0032000E00220A1F5134CEB
:1045D00045F2103245F21056BCF1410C07D0B942F9
:1045E00005D0914203D0B14201D0A1427BD108282D
:1045F00012D2DFE800F0110406080A0C0E10802326
:104600000AE0402308E0C02306E0202304E0602302
:1046100002E0A02300E0E023B14202D14FF4585061
:1046200000E03620914205D0B14203D0A14201D032
:1046300043F00803B94201D143F00203194600F0E8
:1046400039FAAA88A2420AD098062888698802D531
:10465000884202D303E0884201D9298068806889B2
:10466000B24241D100F00FFA002000F000FA688950
:10467000401C80B200F007FA002000F0F8F96889C9
:10468000801C80B200F0FFF92888401EC0F30F2084
:1046900000F0EDF96889C01C80B200F0F4F92878C8
:1046A000401EC0B200F0E3F9A88900F0ECF9002048
:1046B00000F0DDF9A889401C80B200F0E4F9002088
:1046C00000F0D5F9A889801C80B200F0DCF9688878
:1046D000401EC0F30F2000F0CAF9A889C01C80B2A8
:1046E00000F0D1F922E028E000F0CDF9002000F040
:1046F000BEF9002000F0BBF92888401EC0F30F204F
:1047000000F0B5F92878401EC0B200F0B0F9A889D1
:1047100000F0B9F9002000F0AAF9002000F0A7F994
:104720006888401EC0F30F2000F0A1F9A878BDE80A
:10473000F040401EC0B200F09AB9082812D2DFE85B
:1047400000F0040608110A0C0E1030230AE01023B2
:1047500008E0202306E0382304E0282302E01823A1
:1047600000E00823BDE8F040032043F4805100F04E
:10477000A1B90000EC0000202DE9F043DFF84481EE
:104780000C460246050AB8F804104046A1F513434A
:1047900040894FEA1429413B17D0A1F5A643103BAD
:1047A00013D04646A1F5D047B3793688B61A761E9F
:1047B000043F0ED0A1F5C857633F1ED0A1F5AA470C
:1047C000103F57D0012B72D072E000F05CF9284600
:1047D00005E0012B00D1B2B200F055F9100A00F04B
:1047E00046F9D0B200F043F9B8F80C0000F04BF9EC
:1047F000484600F03CF9E0B22AE06BB300F043F920
:10480000284600F034F9D0B200F031F9B8F80000D1
:10481000401EC0F30F2000F02AF998F80000401E57
:10482000C0B200F024F9B8F80C0000F02CF94846AA
:1048300000F01DF9E0B200F01AF9B8F80200401ECD
:10484000C0F30F2000F013F998F80200401EC0B228
:10485000BDE8F04300F00BB9B2B200F014F900204B
:1048600000F005F9002000F002F9100A00F0FFF84E
:10487000D0B2D6E700F007F9284600F0F8F8B8F80B
:104880000A00401C80B200F0FEF8D0B200F0EFF851
:10489000B8F80C0000F0F7F8484600F0E8F8B8F86F
:1048A0000C00401C80B200F0EEF8A4E7FFE7B2B2C3
:1048B000114600F0FFF8B8F80C002146BDE8F043BF
:1048C00000F0F8B8EC0000202DE9F84F82461F46B2
:1048D0000C468B46580700D0012000EBD700790822
:1048E00010FB01F0203AC0B202F0FF090026009050
:1048F00041E00C2F10D0102F12D0182F3ED120499C
:1049000009EBC90001EB80004FF00008855D280627
:104910000AD51C4802880BE009EB49001A49F1E767
:104920001A4901EB0910EFE70A9828B9154842889F
:1049300021465046FCF77AF96806050E1448641CB7
:10494000A4B24088A04219D9A4EB0B00B84209D107
:104950000AF101001FFA80FA0D485C4601885145B2
:104960000CD906E008F1010000F0FF08B8F1080FCB
:10497000CDD3761CF6B200988642BAD3BDE8F88F44
:10498000F67D0008580000209273000806780008A1
:10499000EC0000202DE9F84F044600F0FF08101944
:1049A0000D46DDE90A761FFA80FA58191FFA80F9D8
:1049B0004FF0000B11E0544502D3E819444685B28C
:1049C0004D450FD23B4629462046CDF800B0FFF7B3
:1049D0007BFF04EB570084B2761C3278A2F12000F2
:1049E0005E28E8D9BDE8F88F2DE9FF4F81B08046F9
:1049F000DDF83CA00E984FF000091F4693464C4648
:104A00000AF0010546082BE0381B401EC1B20A20FF
:104A1000FFF76CFDBBFBF0F00A21B0FBF1F201FBEC
:104A20001200B9F1000F05D1791E8C4202DA48B1AB
:104A30004FF001093030C2B206FB048080B200950D
:104A40000E9B08E05FEA0A6006FB04800E9B80B2C2
:104A500000950AD530220299FFF736FF641CE4B2B4
:104A6000BC42D1D305B0BDE8F08F2022F3E701B5F9
:104A7000BDF80000ADF80000BDF800004FF0D841CF
:104A8000A1F8800008BD01B5BDF80000ADF8000038
:104A9000BDF800004FF0D841A1F87E0008BD00002D
:104AA00003484FF0D8410089A1F87E00704700000C
:104AB000EC0000204FF0D84222F87E0F5180704762
:104AC0007CB50121202000F059F801208DF8040068
:104AD00000228DF8062003218DF80510074D4FF4B4
:104AE000C0648DF80700009469462846FBF708FF6C
:104AF00021462846FBF750FF7CBD00000014024011
:104B0000FEE7704730B50F23C27801780125FAB16E
:104B1000144A126801F1E02102F4E062C2F5E06299
:104B2000C2F30722C2F10404D3404278A240847841
:104B30001C401443220181F80024007800F01F017A
:104B40008D404009800000F1E020C0F8005130BDE8
:104B500001F01F0085404809800000F1E020C0F806
:104B6000805130BD0CED00E0024908430249086065
:104B7000704700000000FA050CED00E0044A00292F
:104B8000116801D0014300E08143116070470000CB
:104B900030380240044A0029116801D0014300E086
:104BA000814311607047000038380240044A0029F0
:104BB000116801D0014300E081431160704700009B
:104BC0004438024070B5204B1968204C11F00C019C
:104BD00004D06610042903D0082903D004601BE028
:104BE000066019E0184A121F1168C1F38055116858
:104BF00001F03F0115B1B6FBF1F101E0B4FBF1F1B9
:104C000014681268C4F388146143C2F30142521C51
:104C10005200B1FBF2F1016019680F2202EA111192
:104C20000B4A545C0168E14041601C68072505EAB5
:104C30009424145D21FA04F484601B6805EA53335C
:104C4000D25CD140C16070BD083802400024F4003D
:104C5000680000200CB500222749009201920868E4
:104C600040F4803008604FF4A043086800F400303E
:104C700001900098401C0090019810B9009898424B
:104C8000F3D10868800334D5012001901A484030E0
:104C9000026842F0805202601848026842F44042C2
:104CA00002601548083002680260026842F400425F
:104CB0000260026842F4A0520260031F104A1A60A8
:104CC0000A6842F080720A600A689201FCD50D49B8
:104CD00040F205720A60016821F003010160016879
:104CE00041F0020101600168C1F381010229FAD19A
:104CF0000CBD01920CBD0000003802400070004065
:104D000008544007003C02404FF0E02104280869A5
:104D100003D020F004000861704740F00400FAE777
:104D200010B501F097FF012803D0BDE8104001F055
:104D300085BC10BD124810B5016841F470010160D6
:104D40001048016841F0010101600E4A002108325B
:104D5000116002680C4B1A400260031D0B4A1A6076
:104D6000026822F48022026006480C300160FFF7DE
:104D700071FF03494FF000608039086010BD0000EA
:104D800088ED00E000380240FFFFF6FE10300024FE
:104D900010B5084C0121204600F039F8012802D155
:104DA00005A0FBF7C9FA2046BDE81040012100F03C
:104DB0002BB800000004004054494D33CAE4B3F658
:104DC0002E2E2E2E2E2E2E0D0A00000010B5084C71
:104DD0000121204600F01BF8012802D105A0FBF7B5
:104DE000ABFA2046BDE81040012100F00DB80000EC
:104DF000000C004054494D35CAE4B3F62E2E2E2E39
:104E00002E2E2E0D0A000000C94301827047024673
:104E10000020138A92890B4202EA010202D0002A82
:104E200000D001207047000070B5154C40F22551AC
:104E3000204600F035F800280ED0204600F0BEF8DD
:104E4000104AC1B21088030406D444044FF0000392
:104E500006D50A2901D0138070BD40F400400DE052
:104E60000D2909D0C0F30D04074D401C80B229550F
:104E70001080C728EFD870BD40F48040108070BD0E
:104E80000010014060000020FA0000200029818904
:104E900002D041F4005101E021F4005181817047BA
:104EA00070B501F01F0501260024C1F3421306FA74
:104EB00005F2012B0FD0022B0FD0838A4FEA11216C
:104EC0000088134206FA01F600EA060001D000B19C
:104ED0000124204670BD8389F0E7038AEEE710B510
:104EE000C1F3421301F01F040121A140012B07D09F
:104EF000022B07D01430002A026805D00A4304E0D0
:104F00000C30F8E71030F6E78A43026010BD00006D
:104F10007FB50446008A0D46C98820F440500143FD
:104F20002182A08941F20C618843A9882A89114312
:104F30006A8902431143A181A08A20F44071A889A3
:104F40000843A0826846FFF73DFE1A48844202D01B
:104F50001948844201D1039800E00298A18909040C
:104F600000EBC00101EB0010296801D5490000E009
:104F70008900B0FBF1F06422B0FBF2F109010B09EA
:104F80006FF018056B4300EB8300A3891D044FF0FD
:104F9000320306D503EBC000B0FBF2F000F00700CF
:104FA00005E003EB0010B0FBF2F000F00F00084347
:104FB00020817FBD00100140001401408088C0F3B3
:104FC00008007047FEE7704710B504460420FFF75D
:104FD0009BFE0A484FF47A71047014FB01F1012220
:104FE00042804FF0E020026942F00202026141611A
:104FF000016941F00101016110BD00005C00002069
:1050000070B5044601F026FE01280CD0094D6888D1
:10501000844203D3B4FBF0F001F096F86888B4FB47
:10502000F0F100FB11444FF47A706043BDE870402A
:1050300000F002B85C00002070B54FF0E0250021C0
:105040006C69094AAB6912785043AA699A42FCD04C
:1050500002D2A3EB020302E0A4EB0206334419449C
:1050600013468142F1D370BD5C00002003490A88D9
:105070005206FCD5C2B28A80704700000010014081
:105080001CB54FF44070FFF76FFDA820FFF79CFFA1
:105090004FF4E13000F078FEFFF712FDFBF794FECD
:1050A0001F494FF47840102408801EA0CDE900402D
:1050B0002346C8220A211E20FFF76CFC1EA0CDE962
:1050C00000401E211023C8220846FFF763FC1FA0E2
:1050D000CDE900401023C82232211E20FFF75AFCE0
:1050E0001FA0CDE900401023C82246211E20FFF753
:1050F00051FC1FA0CDE900401023C8225A211E20D8
:10510000FFF748FC1D490120CDE900010023802262
:105110001BA11E4801F072FD01F076F900201CBDB4
:105120005800002041544B2053544D333246313007
:10513000332F4634303700004672656552544F5362
:10514000204578616D7020362D3100005461736BFD
:1051500020437265617420616E642044656C0000B8
:1051600041544F4D40414C49454E54454B00000081
:10517000323031362F31312F32350000000000201F
:1051800073746172745F7461736B00004D5B00082F
:105190002DE9F041184E0F460446F5683068001DB1
:1051A00000F048FE38B9306890F82C100120884093
:1051B000316981433161601C07D137B13168BDE885
:1051C000F0410E48091D00F06DBE30682C44AC4221
:1051D0004460316805D2B06BBDE8F041091D00F0B4
:1051E00049BE706B091D00F045FEB06A844200D2D2
:1051F000B462BDE8F081000078000020D4040020F3
:105200002DE9F041054600F059FE2D4EB068401CD6
:10521000B06030682B4F10B1706930B32BE035604F
:10522000B068012827D1002404EB840007EB80003C
:1052300000F012FE641C202CF6D3234800F00CFE74
:105240002148143000F008FE1F48283000F004FE0A
:105250001D483C3000F000FE1B48503000F0FCFDC3
:10526000194870631430B06305E03068E96AC06AB9
:10527000884200D83560706A0121401C7062686401
:10528000E86A326981401143316100EB800007EB2D
:105290008000291D00F006FE00F04CFE7069002819
:1052A0000CD03068E96AC06A884207D207494FF0DB
:1052B00080500860BFF34F8FBFF36F8FBDE8F08160
:1052C00078000020040200208404002004ED00E0A7
:1052D00010B500F0F3FD0E4C2068A0B90D4800F0A9
:1052E000BBFD0C48143000F0B7FD0A48E0601430F4
:1052F000206100221021052001F0B6F9206010B1D4
:1053000005A100F0EDFEBDE8104000F013BE000066
:10531000B4000020E8040020546D72510000000029
:1053200070B5124E124D1CE001F0B8F8306820B193
:10533000002401F0BDFDA4B901E00124F9E700F06B
:10534000BDFDF068C468201D00F074FDA868401E13
:10535000A8606868401E686000F0ECFD204600F020
:1053600052F868680028DFD170BD0000C00400203A
:105370007800002030B4026C0B46002A0BD0C168C4
:105380001144C1604468A14201D30168C16030BCCE
:105390001846FBF7A3B830BC70472DE9F041856B88
:1053A000174604460026026C82B1C7B1E068FBF7DD
:1053B00095F8E168206C091AE1602268914202D2F6
:1053C0006168081AE060022F16D017E02068A8B9BB
:1053D000606801F0C7FC0646002060600EE0A0682F
:1053E000FBF77CF8216CA0680844A06061688842E3
:1053F00004D32068A06001E005B16D1E6D1CA5639B
:105400003046BDE8F08110B50446006B00F0C4FDE5
:105410002046BDE8104000F0BFBD000010484FF42A
:10542000A041420706D0C01D0D4920F00700411AD7
:10543000C1F5A0410B4A00230144C2E90003083929
:10544000103A21F0070111604B600B600B1AC0E9A4
:10545000001393604FF000405360D060704700002D
:1054600010050020E4000020074E4FF08054074D47
:10547000FFF756FF30680128FAD92C60BFF34F8F31
:10548000BFF36F8FF4E700000402002004ED00E09A
:105490002DE9F047DDE909840E4617468246910062
:1054A0009946089DA522206BFBF75DF86FF003017C
:1054B000206B01EB8701084420F00707780705D02F
:1054C00040F22B3219A11EA0FAF736FF0020221855
:1054D000315C82F83410315C11B1401C1028F6D3D5
:1054E000002684F84360202D00D31F25E562C4E91F
:1054F0001356201D00F0BBFC04F1180000F0B7FCAF
:105500002461C5F120006462A061666584F858607A
:105510004A465146384600F003FB2060B8F1000FC0
:1055200001D0C8F80040BDE8F08700002E2E5C4690
:1055300072656552544F535C7461736B732E6300D4
:105540004572726F723A25732C25640D0A000000B3
:1055500030B5114900E011460A688242FBD34B681E
:105560005C18844203D14068184448600846436888
:105570001C18944209D1084C103C2468A24209D05E
:1055800052681A4442600A6812680260814200D080
:10559000086030BD0460F9E7E400002070B5002425
:1055A00041600B4D0061914206D8D11A8269914247
:1055B00006D2011D286907E09A4203D2994201D31D
:1055C000012403E0011DE86800F054FC204670BD92
:1055D000B400002010B5044600F070FCA06B20B1B0
:1055E000002400F0A7FC204610BD0124F9E70000CC
:1055F0002DE9F34100980F460026846C2CB940F643
:10560000CE1216A11AA0FAF797FEA06BE16B8842A2
:1056100005D340F6CF1211A115A0FAF78DFEA06BAD
:10562000E16B88420CD294F945503A4669462046CF
:10563000FFF7B3FE0646681C05D06D1C84F8455084
:105640003046BDE8FC81606A0028F9D004F12400EE
:1056500001F0E2FB0028F3D00126F1E72E2E5C4694
:1056600072656552544F535C71756575652E6300A4
:105670004572726F723A25732C25640D0A00000082
:10568000F8B5054614480E46C068C068C468201DB9
:1056900000F0D0FBE069012817D1A0692B46411921
:1056A00032462046FFF77AFF78B1002003460146D4
:1056B00000902A46204601F0E1FC30B907494FF43A
:1056C000027201F11800FAF737FE616A01B0204654
:1056D000BDE8F04008470000B4000020E06F00087B
:1056E00070B586B02F4E53E00198002806DADDE948
:1056F0000301029A90470198002849DB039C6069E6
:1057000010B1201D00F096FB05A800F0A7F8054693
:1057100001980A283CD2DFE800F00505053B273850
:1057200005053B270298A169034601442A46204605
:10573000FFF734FF00282BD0616A20468847E069D4
:10574000012825D1002000900298A1690023421869
:105750001946204601F092FCD0B940F2213212A144
:1057600017A0FAF7E9FD13E00298A06128B94FF4F9
:105770004E720DA112A0FAF7DFFDA0692B46411968
:105780001A462046FFF70AFF02E0204600F004FC1C
:1057900000231A4601A9306800F0A2FF0028A3D117
:1057A00006B070BDB40000202E2E5C4672656552B6
:1057B000544F535C74696D6572732E630000000072
:1057C0004572726F723A25732C25640D0A00000031
:1057D000F8B50D46064600F061FE684600F03EF85A
:1057E0000446009810B101F063FBF8BD1148ADB15B
:1057F00001690968D9B10025311B2A46006800F00B
:1058000081FC01F055FB0028EFD10B494FF080508F
:105810000860BFF34F8FBFF36F8FF8BDA642EBD880
:1058200001F046FB21463046FFF72AFFF8BD01256F
:10583000E2E70000B400002004ED00E00648416B00
:10584000096829B1416BC968C968496881627047B4
:105850004FF0FF31FAE700007800002070B50546F0
:1058600001F006FA064E0446B068844203D200F006
:1058700009F8012000E0002028602046B46070BDD7
:10588000B4000020F8B5184E26E0C068C46805686A
:10589000201D00F0CFFA616A20468847E0690128A0
:1058A0001AD1A0692844A84206D924616060211D4C
:1058B000F06800F0DFFA0FE0002003460146009098
:1058C0002A46204601F0DAFB30B9084940F292320C
:1058D00001F11800FAF730FDF06801680029D4D111
:1058E0003169C6E90310F8BDB4000020E06F00087C
:1058F00008484068401C05D040F20F1206A111A0D4
:10590000FAF71AFD502080F31188BFF34F8FBFF3D1
:105910006F8FFEE7C80000202E2E5C467265655230
:10592000544F535C706F727461626C655C52564484
:10593000535C41524D5F434D34465C706F72742E20
:10594000630000004572726F723A25732C25640D56
:105950000A000000084CE068016839B1002139B143
:105960000020FFF735FFFFF7BBFEF4E70121F6E764
:10597000C0680068F5E70000B40000202DE9F041A0
:10598000044600F09BFA94F9455004F1240610E017
:10599000A06C20B100212046FFF72AFE04E0606AD7
:1059A00048B1304601F038FA08B100F069FC6D1ECC
:1059B0006DB2002DECDC4FF0FF3684F8456000F04E
:1059C000B9FA00F07BFA94F9445004F1100709E0A9
:1059D000206948B1384601F01FFA08B100F050FCC8
:1059E0006D1E6DB2002DF3DC84F84460BDE8F0411B
:1059F00000F0A0BA2DE9F0410546002600F04EFD6A
:105A0000324F386808B9FFF709FDF86805424FD1F1
:105A1000002D4DD0083568070BD005F00700C0F108
:105A200008000544680704D0BF2229A132A0FAF774
:105A300083FC002D3CD07868854239D82349103149
:105A40000846046801E0214604466068A84202D284
:105A500020680028F7D13868B846844228D00E68FC
:105A60002068086060680836401B10280ED9671946
:105A7000780704D0EC2216A11FA0FAF75DFC60683D
:105A8000401B786038466560FFF762FD6168D8F8B2
:105A900004004246401AC8F80400D8F8083098427A
:105AA00000D29060D8F80C0001430020C4E9000146
:105AB00001F0FEF9700705D04FF4967204A10EA014
:105AC000FAF73AFC3046BDE8F0810000D40000202F
:105AD0002E2E5C4672656552544F535C706F727423
:105AE00061626C655C4D656D4D616E675C6865619A
:105AF000705F342E630000004572726F723A257336
:105B00002C25640D0A0000000449086818B10868D3
:105B1000026D521C02650868704700007800002082
:105B200010B5031F4FF080741C601B1F21F0010192
:105B30001960191F044B0B6014390A60091F6FF0BC
:105B4000020244380A6010BDF15800081CB500F08C
:105B5000B5F90F490220CDE90001002380220DA1F3
:105B60000F4801F04BF80A490320091DCDE9000157
:105B7000002380220BA10E4801F040F80448001FCA
:105B8000006800F017FBBDE81C4000F0D3B900002E
:105B9000040000207461736B315F7461736B0000EB
:105BA000B55B00087461736B325F7461736B0000E6
:105BB000B15C00081CB52C4D00244FF49D732C8063
:105BC00073226E210520FBF715F8822373221946F4
:105BD0000520FAF7B5FF1F202880102623A0CDE965
:105BE000006033466E226F210620FEF7D3FE234D60
:105BF000DFF88C800E2740F2391A4FF080094FF4FD
:105C00007A7B641CD5F8A402E4B248B10020C5F840
:105C1000A40221461BA0FAF78FFB052C02D009E055
:105C20000120F4E716480C38806800F0C3FA1BA086
:105C3000FAF782FBB4FBF7F007FB1041534638F844
:105C40002100722280B2009083210620FBF776F8B3
:105C5000CDE90069032322466F215620FEF7C4FEDA
:105C6000584600F071FACCE7580000205461736B7D
:105C7000312052756E3A30303000000000804242D0
:105C80000C000020C8CECEF131D2D1BEADD6B4D0FA
:105C9000D0A3BA2564B4CE0D0A000000C8CECEF160
:105CA00031C9BEB3FDC1CBC8CECEF132210D0A0041
:105CB0001CB5284D00244FF49D732C80EA226E21E0
:105CC0007D20FAF797FF8223EA2219467D20FAF712
:105CD00037FF1F20288010251FA0CDE900502B463C
:105CE0006E226F217E20FEF755FE1F4EDFF87C905E
:105CF00080274FF00E0840F2391A4FF47A7B641C6B
:105D0000D6F8A802E4B210B30020C6F8A8022146D3
:105D100017A0FAF711FBCDE90057032322466F21A4
:105D2000CE20FEF761FEB4FBF8F108FB1140C0F194
:105D30000D01534639F82100E92280B200908321F9
:105D40007E20FAF7FBFF584600F0FEF9D7E7012066
:105D5000DBE70000580000205461736B322052755D
:105D60006E3A303030000000008042420C000020CB
:105D7000C8CECEF132D2D1BEADD6B4D0D0A3BA25E2
:105D800064B4CE0D0A000000F0B50646012187B0CC
:105D90000846FEF7F3FE01211020FEF707FF234D12
:105DA000072209212846FAF7E7FD07220A2128469B
:105DB000FAF7E2FD02218DF814108DF815104FF45A
:105DC000C060002404908DF8164001278DF81770EC
:105DD00004A92846FAF794FDADF80440ADF8064052
:105DE000ADF80840ADF80C400C20114CADF80A009D
:105DF000009669462046FFF78BF801212046FFF701
:105E000045F8012240F225512046FFF768F8252089
:105E10008DF8180003208DF819008DF81A008DF800
:105E20001B7006A8FEF76EFE07B0F0BD0000024032
:105E300000100140D0E9013201699A60D0E90123E4
:105E40005A604A68824201D182684A600022026137
:105E50000868401E0860704700F108014FF0FF32EB
:105E6000C0E90112C1600161002101607047002199
:105E70000161704730B50C68621C02D000F1080265
:105E800002E0026904E01A4653681D68A542FAD987
:105E900053684B6099608A60516008610168491CD1
:105EA000016030BD42684A6093688B6093685960B6
:105EB000916008610168491C01607047502080F3BF
:105EC0001188BFF34F8FBFF36F8F09494868401C9B
:105ED000486001280AD10748006810F0FF0F05D07C
:105EE00040F2B91204A10FA0FAF726BA70470000D9
:105EF000C800002004ED00E02E2E5C46726565525D
:105F0000544F535C706F727461626C655C5256449E
:105F1000535C41524D5F434D34465C706F72742E3A
:105F2000630000004572726F723A25732C25640D70
:105F30000A00000010B5084C606828B94FF4E07200
:105F400006A111A0FAF7F8F96068401E606001D15F
:105F500080F3118810BD0000C80000202E2E5C4682
:105F600072656552544F535C706F727461626C65F8
:105F70005C525644535C41524D5F434D34465C7015
:105F80006F72742E630000004572726F723A25734F
:105F90002C25640D0A00000070B500282AD0164D8B
:105FA000A0F108046068E968084205D14FF4A072C6
:105FB00012A11CA0FAF7C0F9206828B140F24112E2
:105FC0000EA118A0FAF7B8F96068E968084211D084
:105FD0002268002A0ED18843606000F05FFA606892
:105FE0006968084468602046FFF7B2FABDE870406F
:105FF00000F05EBF70BD0000D40000202E2E5C4675
:1060000072656552544F535C706F727461626C6557
:106010005C4D656D4D616E675C686561705F342EC7
:10602000630000004572726F723A25732C25640D6F
:106030000A00000006484FF47A710068B0FBF1F1E5
:106040004FF0E020491E41610721016170470000C7
:106050004400002010B5FAF749F9104C10280CD371
:1060600000F1E02090F8F0032178884205D24FF447
:1060700040720BA115A0FAF75FF918480068A168F3
:1060800000F4E060884207D9BDE810404FF4447244
:1060900003A10EA0FAF750B910BD0000C8000020FF
:1060A0002E2E5C4672656552544F535C706F72744D
:1060B00061626C655C525644535C41524D5F434D86
:1060C00034465C706F72742E630000004572726F0C
:1060D000723A25732C25640D0A0000000CED00E0D7
:1060E00010B5074B002253F832401CB1521C082A4D
:1060F000F9D310BD43F8321003EBC201486010BD64
:10610000C401002070B515460E460446FFF7D6FEC2
:1061100094F944100020491C01D184F8440094F9FA
:106120004510491C01D184F84500FFF703FFA06B1F
:1061300028B92A46314604F1240000F0D1F820465F
:10614000BDE87040FFF71ABC10B5040012D00E492C
:10615000096B29B140F2CF420CA111A0FAF7ECF87B
:1061600000F09CF900212046FFF712F800F0A0FE95
:10617000002807D10E494FF080500860BFF34F8FC1
:10618000BFF36F8F10BD0000780000202E2E5C46FC
:1061900072656552544F535C7461736B732E630068
:1061A0004572726F723A25732C25640D0A00000047
:1061B00004ED00E070B50446FFF780FE234D04B9FE
:1061C0002C68201DFFF736FE58B9E06A204A00EB24
:1061D000800152F8211021B90121814028698843AA
:1061E0002861A06A18B104F11800FFF723FE686A5D
:1061F000401C68622868844207D1211D1548FFF7BA
:1062000051FE6868401C686007E0A868401EA860EE
:106210002046FFF7F8F8FFF711FBFFF78BFE6869E0
:10622000002812D0286884420FD1286B28B140F290
:10623000654209A10DA0FAF77FF810494FF0805090
:106240000860BFF34F8FBFF36F8F70BD78000020E1
:1062500004020020C00400202E2E5C4672656552A8
:10626000544F535C7461736B732E63004572726F8D
:10627000723A25732C25640D0A00000004ED00E03D
:1062800001490120C86170477800002070B50D46B3
:10629000040005D140F6063207A10CA0FAF74CF82D
:1062A0000E48016820461831FFF7E4FD2846BDE896
:1062B00070400121FEF76CBF2E2E5C467265655260
:1062C000544F535C7461736B732E63004572726F2D
:1062D000723A25732C25640D0A0000007800002016
:1062E00070B514460E46050005D140F6313209A1BD
:1062F0000DA0FAF721F81048016828461831FFF779
:10630000D1FD0CB14FF0FF3621463046BDE870405C
:10631000FEF73EBF2E2E5C4672656552544F535CAD
:106320007461736B732E63004572726F723A2573DA
:106330002C25640D0A0000007800002070B50400D0
:1063400039D01D4DE06A2968C96A884233D2A069F4
:10635000002804DB2868C06AC0F12000A061E06A60
:10636000164E00EB8000616906EB800081421FD170
:10637000201DFFF75FFD012150B9E06A00EB8002AC
:1063800056F8222022B92A6901FA00F082432A61D4
:106390002868C06AE0622A6981401143296100EBE4
:1063A000800006EB8000211DBDE87040FFF77ABD3C
:1063B0002868C06AE06270BD7800002004020020F6
:1063C00010B5040005D140F6C13205A109A0F9F7C6
:1063D000B3FF0C48016A2160C068606010BD000016
:1063E0002E2E5C4672656552544F535C7461736B1C
:1063F000732E63004572726F723A25732C25640DFB
:106400000A000000780000201CB517480024CDE9E0
:1064100000402346822215A1164800F0EFFB012818
:1064200003D100F0F1FD01280AD0401C1BD102B0BD
:1064300040F28472BDE810400FA114A0F9F77CBFB0
:10644000502080F31188BFF34F8FBFF36F8F064842
:106450004FF0FF312C38816201214161C460BDE8F9
:106460001C4000F061B81CBDA400002049444C450C
:1064700000000000695400082E2E5C4672656552CB
:10648000544F535C7461736B732E63004572726F6B
:10649000723A25732C25640D0A0000000248016B36
:1064A000491C0163704700007800002070B5134D4F
:1064B000286B10B10120E86170BD0020E8612869F7
:1064C0000F4EB0FA80F0C0F11F0000EB800456F8C8
:1064D000240028B940F6F6220AA10FA0F9F72CFFF4
:1064E00006EB840000F1080241684968416091426E
:1064F00001D149684160C868286070BD78000020FB
:10650000040200202E2E5C4672656552544F535C87
:106510007461736B732E63004572726F723A2573E8
:106520002C25640D0A0000001CB5304C2068304951
:10653000884205D140F259122EA139A0F9F7FCFE8C
:1065400020682B49491E884205D14FF4AD7229A11C
:1065500033A0F9F7F1FE364C20780190FF2020702F
:1065600020788DF800009DF800009DF8001000F0E4
:10657000F000884205D040F273121EA128A0F9F75E
:10658000DBFE9DF800002B4A00F050001070072041
:10659000906007E09068401E90609DF80000400009
:1065A0008DF800009DF800000006F3D4107A000278
:1065B00000F4E0609060019820700C482030016881
:1065C00041F470010160016841F070410160FFF722
:1065D00031FD00205060F9F751FE1748016841F085
:1065E00040410160F9F73AFE00201CBD00ED00E0DB
:1065F00071C20F412E2E5C4672656552544F535C3A
:10660000706F727461626C655C525644535C4152A7
:106610004D5F434D34465C706F72742E6300000012
:106620004572726F723A25732C25640D0A000000C2
:1066300000E400E0C800002034EF00E010B5502076
:1066400080F31188BFF34F8FBFF36F8F00F016FBFD
:1066500018B104494FF080500860002080F3118881
:1066600010BD000004ED00E02DE9F04117460E4694
:10667000050005D14FF4C47210A115A0F9F75CFE16
:10668000BEB105FB06F05430FFF7B4F904000ED09C
:1066900004F154007EB12060C4E90F562046012168
:1066A00000F0E0F884F8507000212046A164BDE8B5
:1066B000F0810020E7E72460EEE700002E2E5C4624
:1066C00072656552544F535C71756575652E630034
:1066D0004572726F723A25732C25640D0A00000012
:1066E0002DE9FF4F83B09B468A4604004FF0000619
:1066F00005D140F2DC4251A155A0F9F71DFEBAF1D7
:10670000000F07D1206C28B140F2DD424BA150A010
:10671000F9F712FE00F09EFA38B9059828B14FF447
:106720009C6246A14AA0F9F707FE4FF000094FF01E
:106730008057DFF82C81FFF7C1FBA56B45B35146AD
:106740002046E668FEF716FEBBF1000F13D0E660A8
:10675000606A50B104F1240000F05EFB28B1C8F873
:106760000070BFF34F8FBFF36F8FFFF7E3FB012084
:1067700007B0BDE8F08F6D1EA563206810B9FFF764
:10678000C3F9606020690028EFD004F11000E3E74E
:10679000059808B11EB106E0FFF7CCFB27E068467C
:1067A000FFF70EFE0126FFF7C5FBFFF777FEFFF7A9
:1067B00085FB94F94400401C01D184F8449094F97D
:1067C0004500401C01D184F84590FFF7B3FB05A9B3
:1067D000684600F0CFF9002820460AD0FFF7CEF82F
:1067E00000F066FB2046FEF7F5FE0028A3D000204F
:1067F000BEE7FEF7EFFED8B1206830B9FFF75EFBC9
:106800006068FFF79BFDFFF795FB04F124000599F5
:10681000FFF73CFD2046FFF7B1F800F049FB0028E8
:1068200089D1C8F80070BFF34F8FBFF36F8F82E735
:106830002046FFF7A3F800F03BFB7CE72E2E5C46DA
:1068400072656552544F535C71756575652E6300B2
:106850004572726F723A25732C25640D0A00000090
:1068600004ED00E070B50D46040005D140F21B12A6
:106870001CA121A0F9F760FDFFF720FBD4E90F2050
:10688000216802FB001161600021A1632168A16001
:106890000A46D4E90F01401E00FB0121E1602146B8
:1068A0004FF0FF3001F8440F487004F110004DB173
:1068B000FFF7D2FA04F12400FFF7CEFAFFF73AFB14
:1068C000012070BD21690029F8D000F0A5FA002848
:1068D000F4D00D494FF080500860BFF34F8FBFF3E5
:1068E0006F8FEBE72E2E5C4672656552544F535CFA
:1068F00071756575652E63004572726F723A257306
:106900002C25640D0A00000004ED00E02DE9FF4F86
:1069100083B099468B4604004FF0000605D140F243
:10692000D92252A156A0F9F707FDBBF1000F07D1FC
:10693000206C28B140F2DA224CA151A0F9F7FCFCFE
:10694000B9F1020F08D1E06B012805D040F2DB223B
:1069500046A14BA0F9F7F0FC00F07CF938B9059896
:1069600028B140F2DE2241A145A0F9F7E5FC4FF045
:10697000000A4FF08057DFF81881FFF79FFAA06BED
:10698000E16B884206D3B9F1020F03D0059800B33A
:1069900016B325E04A4659462046FEF7FEFCA16C98
:1069A00021B149462046FEF723FE05E0616A19B190
:1069B00004F1240000F030FA28B1C8F80070BFF3E9
:1069C0004F8FBFF36F8FFFF7B5FA012007B0BDE817
:1069D000F08FFFF7AFFA21E06846FFF7F1FC0126E0
:1069E000FFF7A8FAFFF75AFDFFF768FA94F9440099
:1069F000401C01D184F844A094F94500401C01D109
:106A000084F845A0FFF796FA05A9684600F0B2F8A9
:106A100030B12046FEF7B2FF00F04AFA0020D5E779
:106A2000FFF74CFAA06BE16B884201D1012500E031
:106A30000025FFF77FFA95B104F110000599FFF7E3
:106A400025FC2046FEF79AFF00F032FA002894D188
:106A5000C8F80070BFF34F8FBFF36F8F8DE72046EC
:106A6000FEF78CFF00F024FA87E700002E2E5C462C
:106A700072656552544F535C71756575652E630080
:106A80004572726F723A25732C25640D0A0000005E
:106A900004ED00E02DE9F0479846154689460400CC
:106AA00005D140F29F322AA12EA0F9F745FCB9F199
:106AB000000F07D1206C28B14FF4687224A129A0DF
:106AC000F9F73AFCB8F1020F08D1E06B012805D0C4
:106AD00040F2A1321EA123A0F9F72EFCFFF7BAFA6B
:106AE0005020EFF3118780F31188BFF34F8FBFF36E
:106AF0006F8FA06BE16B884207D3B8F1020F04D00F
:106B0000002087F31188BDE8F08794F9456042467C
:106B100049462046FEF741FC701C04D0761C84F8E0
:106B200045600120EDE7A06C012620B141462046DA
:106B3000FEF75EFD06E0606A0028F2D004F1240052
:106B400000F06AF90028ECD0002DEAD02E60E8E7CA
:106B50002E2E5C4672656552544F535C7175657597
:106B6000652E63004572726F723A25732C25640D91
:106B70000A00000070B50D46040005D140F6CB3286
:106B800014A119A0F9F7D8FB2DB940F6CC3211A108
:106B900015A0F9F7D1FBFFF791F9174AD0682968DA
:106BA0004B1C0FD02368126A934202D06268824263
:106BB0000AD96268801A884206D2081A28602046DC
:106BC000FFF7FEFB002400E00124FFF7B3F92046A5
:106BD00070BD00002E2E5C4672656552544F535CAA
:106BE0007461736B732E63004572726F723A257312
:106BF0002C25640D0A000000780000202DE9FF5FBD
:106C00008346DDE90E87994616468A469000FEF7D0
:106C1000F1FE05001AD05C20FEF7ECFE040012D055
:106C200025630021CDE90241CDE900874B4632467C
:106C300051465846FEF72CFC2046FEF7E1FA0120AB
:106C400004B0BDE8F09F2846FFF7A6F94FF0FF30EB
:106C5000F6E700000548416919B1006B18B1002042
:106C60007047012070470220704700007800002024
:106C70000148C06870470000780000202DE9F0410D
:106C80002D4F0026386B40B1B869401CB861F869D7
:106C900000B101263046BDE8F081FD686D1CFD6045
:106CA00011D1786B006828B140F6D91223A128A031
:106CB000F9F742FB786BB96B7963B863386A401CAB
:106CC0003862FEF7BBFDB86ADFF89480854209D3CD
:106CD000786B006880B1786BC068C4686068854272
:106CE0000DD2B8623868C06A00EB800158F8210004
:106CF0000128CCD90126CAE74FF0FF30F1E7201D6B
:106D0000FFF798F8A06A18B104F11800FFF792F89D
:106D1000E06A01213A6981401143396100EB800149
:106D200008EB8100211DFFF7BDF8E06A3968C96AE8
:106D30008842CDD30126CBE7780000202E2E5C467A
:106D400072656552544F535C7461736B732E6300AC
:106D50004572726F723A25732C25640D0A0000008B
:106D60000402002070B504004FF000063CD01F4D17
:106D70002868844205D040F6C7621DA121A0F9F71A
:106D8000DBFA206D28B940F6C96219A11DA0F9F7F8
:106D9000D3FA206D401E2065E26CE16A914223D057
:106DA00010BB201DFFF746F81A49012250B9E06ACE
:106DB00000EB800351F8233023B92B6902FA00F06D
:106DC00083432B61E06CE062C0F12000A061E06AC7
:106DD0002B6982401A432A6100EB800001EB80009E
:106DE000211DFFF75FF80126304670BD78000020B6
:106DF0002E2E5C4672656552544F535C7461736B02
:106E0000732E63004572726F723A25732C25640DE0
:106E10000A000000040200202DE9F041C068C468A7
:106E20002CB940F6613216A11AA0F9F785FA04F1DF
:106E300018000746FEF7FEFF1A4D286B012660B1C9
:106E400039461948FFF72EF8E06A2968C96A88426E
:106E500013D90120EE61BDE8F081201DFEF7EAFFA5
:106E6000E06A2A6906FA00F1114329610F4900EB33
:106E7000800001EB8000211DE4E70020EBE700002B
:106E80002E2E5C4672656552544F535C7461736B71
:106E9000732E63004572726F723A25732C25640D50
:106EA0000A00000078000020AC040020040200204A
:106EB0002DE9F0472B4D00242746286B28B94FF4C5
:106EC000FD6229A12DA0F9F737FAFEF7F7FF286B2D
:106ED000401E2863286BE8BBA8682C490126C8B36C
:106EE000A1F52A798846D8F80010E9B1D8F80C0045
:106EF000C46804F11800FEF79DFF201DFEF79AFFFD
:106F0000E06A2A6906FA00F11143296100EB800169
:106F100009EB8100211DFEF7C5FFE06A2968C96AF7
:106F20008842E0D3EE61DEE70CB1FEF787FCAC6986
:106F30003CB1FFF7A3FE00B1EE61641EF9D1002061
:106F4000A861E86930B11249012738070860BFF32A
:106F50004F8F00E001E0BFF36F8FFEF7EBFF384685
:106F6000BDE8F087780000202E2E5C4672656552E1
:106F7000544F535C7461736B732E63004572726F70
:106F8000723A25732C25640D0A000000AC04002021
:106F900004ED00E02DE9F0470746994616460D46F8
:106FA0002C20DDF820A0FEF725FD040014D0B84603
:106FB0004F46D1462DB94FF4C67209A10EA0F9F77C
:106FC000BBF9FEF785F904F11801C4F8008081E8E7
:106FD000E002201DFEF74BFF2046BDE8F0870000D1
:106FE0002E2E5C4672656552544F535C74696D6514
:106FF00072732E63000000004572726F723A25733F
:107000002C25640D0A0000001CB50024FEF760F971
:107010000C48006868B10B491F20091DCDE900012B
:1070200000234FF4827208A10948FFF7E7FD04002E
:1070300005D140F2331207A10CA0F9F77DF92046E3
:107040001CBD0000B4000020546D72205376630014
:10705000555900082E2E5C4672656552544F535C9C
:1070600074696D6572732E63000000004572726F63
:10707000723A25732C25640D0A0000002DE9FF47A4
:10708000DDF830A0994690460D4606004FF0000707
:1070900005D14FF4D37212A117A0F9F74DF91A4C8C
:1070A000206880B1CDE900580296062D11DAFFF76D
:1070B000D1FD02284FF0000309D000226946206864
:1070C000FFF724FC074604B03846BDE8F087524677
:1070D000F4E700234A466946FFF7DCFCF2E70000CC
:1070E0002E2E5C4672656552544F535C74696D6513
:1070F00072732E63000000004572726F723A25733E
:107100002C25640D0A000000B40000204FEA115342
:10711000A3F58063D3F11E03A8BFD3F1200C08DBD5
:107120004FF0004242EAC12252EA505232FA03F0D2
:10713000704709420BD4102BC4BF0020704703F5E1
:10714000787CBCF1FF3F05D04FF0FF3070474FF027
:107150000000704770B500F0C3F800BF499224806A
:1071600000207047F0E7B0FA80F310FA03F10AD07C
:10717000C3F11D0303F580634FEA41504FEA035208
:1071800002EBD12170474FF000007047DFF848C193
:1071900070B51CEA111E1EBF1CEA13159EEA0C0FE7
:1071A00095EA0C0F00F06F8081EA030423EA4C1388
:1071B0004EEAD47E21EA4C1141F4801143F480134D
:1071C000AE44A1FB024CA0FB0365AEF17F7E3619F5
:1071D00055EB0C05A1FB034C4CF10003A0FB021C7A
:1071E00016EB0C06654153F10003094218BF46F047
:1071F000010613F4007F0BD14FEA03314FEA05304B
:10720000340341EA155140EA16506FF003020AE0D8
:107210004FEAC3214FEAC520F40241EA555140EA42
:1072200056506FF0020202EB2E4201EB025585EA46
:10723000CE710AD05FEA440C18BF24F0004450F12C
:10724000000041F1000120EAD47040F2FE7C62456A
:1072500000D270BDA84214BF4FF080444FF04044AC
:10726000002E08BF0024BEF1806FA8BFA1F1C0416D
:10727000BDE8704080F282804FF0000001F1C04113
:1072800001F0004170479EEA0C0F0CEA131518BF7D
:1072900095EA0C0F06D04FF0000081EA030E0EF0C5
:1072A000004170BD00F01CF88900013E00F007B8F5
:1072B00000F009B84FEA430C5FEA5C5C08D081EA51
:1072C000030100F05BB84FEA410C5FEA5C5CF6D169
:1072D0004FF00000014970470000FF070000F87FF1
:1072E0000EF1020E2EF0030E5EF8046B364205D44A
:1072F000012A43EB030515F5001F12D8012841EBC5
:10730000010C1CF5001F0CD80ED14FEAD17C15F5ED
:10731000001F0CEB4C0C0CF1020C08BF4CEBD37CA7
:1073200004E04FF0080C01E04FEAD37C0CEB4C0575
:1073300026FA05F606F00706B6F1040C06D20EEBA7
:10734000860CBDE870404CF0010C6047DFE80CF0A3
:10735000090B02024FF000414FF00000A1F500219F
:1073600070BD19461046012851EB010418BFD4F531
:10737000001484BF002001F0004170BD0808A0F592
:1073800000114FEA310170474FF04070E1EE100AF2
:107390007047000000000000000000000000000036
:1073A00000003F40000000000000000030004000EE
:1073B00030004000000009000BC03D000BC03D0044
:1073C000090018C024407FE02240318000001800EE
:1073D00024C01B000D803240018003801C402740E8
:1073E0001C8007400040100060000000000000000A
:1073F00000000000000000001F802040402000002E
:10740000402020401F8000000000090006001F806F
:10741000060009000000040004003F80040004008E
:1074200000000010006000000000000000000400E8
:1074300004000400040004000000000000400000FC
:10744000000000000000002001C0060038004000DD
:1074500000001F802040204020401F8000000000CE
:1074600010403FC000400000000018C021402240F2
:1074700024401840000010802040244024401B80FD
:10748000000002000D0011003FC0014000003C80E0
:10749000244024402440238000001F8024402440B6
:1074A0003440038000003000200027C03800200056
:1074B00000001B802440244024401B8000001C004E
:1074C00022C0224022401F8000000000000008402F
:1074D0000000000000000000000004600000000048
:1074E0000000000004000A00110020804040090054
:1074F0000900090009000900000000004040208048
:1075000011000A0004001800200023402400180085
:1075100000001F802040274029401F4000000040FD
:1075200007C039000F0001C0004020403FC0244088
:1075300024401B8000001F802040204020403080DD
:10754000000020403FC0204020401F80000020401D
:107550003FC024402E4030C0000020403FC02440A7
:107560002E00300000000F001080204022403380A9
:10757000020020403FC0040004003FC020402040E3
:1075800020403FC0204020400000006020202020FC
:107590003FC02000200020403FC024400B0030C0EE
:1075A000204020403FC020400040004000C03FC07D
:1075B0003C0003C03C003FC0000020403FC00C40E6
:1075C00023003FC020001F802040204020401F801B
:1075D000000020403FC024402400180000001F800D
:1075E0002140214020E01FA0000020403FC0244057
:1075F000260019C0004018C0244024402240318099
:107600000000300020403FC020403000000020003B
:107610003F80004000403F80200020003E0001C02D
:10762000070038002000380007C03C0007C03800C1
:107630000000204039C0060039C020400000200072
:10764000384007C0384020000000304021C02640AC
:10765000384020C00000000000007FE040204020B3
:107660000000000070000C000380004000000000DB
:10767000402040207FE0000000000000200040008B
:10768000200000000000001000100010001000108A
:10769000001000000000400000000000000000009A
:1076A00002800540054003C0004020003FC0044068
:1076B00004400380000000000380044004400640B2
:1076C000000000000380044024403FC00040000050
:1076D00003800540054003400000000004401FC037
:1076E000244024402000000002E0055005500650D0
:1076F000042020403FC00440040003C000400000BC
:10770000044027C0004000000000001000100410DA
:1077100027E00000000020403FC00140070004C0F7
:107720000440204020403FC000400040000007C00F
:10773000040007C0040003C00000044007C0044068
:10774000040003C0004000000380044004400380A4
:107750000000041007F00450044003800000000003
:1077600003800440045007F00010044007C00240AA
:10777000040004000000000006400540054004C06D
:107780000000000004001F800440004000000400CE
:1077900007800040044007C000400400070004C008
:1077A000018006000400060001C0070001C00600B9
:1077B0000000044006C0010006C0044000000410A0
:1077C000071004E00180060004000000044005C02A
:1077D0000640044000000000000004007BE0402060
:1077E0000000000000000000FFF0000000000000AA
:1077F00040207BE0040000000000400080004000CA
:1078000020002000400000000000000000000000F8
:107810000000000000000000000000001FCC000C71
:1078200000000000000000000800300060000800B8
:10783000300060000000022003FC1E20022003FC38
:107840001E200220000000000E1811043FFF1084CB
:107850000C78000000000F0010840F3800C007787B
:1078600018840078000000780F8410C411240E984A
:1078700000E40084000808006800700000000000B8
:1078800000000000000000000000000007E01818E1
:10789000200440020000000040022004181807E005
:1078A0000000000000000240024001800FF0018053
:1078B0000240024000000080008000800FF800803D
:1078C0000080008000000001000D000E000000009C
:1078D00000000000000000000080008000800080A8
:1078E0000080008000800000000C000C0000000000
:1078F0000000000000000000000600180060018089
:10790000060018002000000007F00808100410040A
:10791000080807F000000000080408041FFC000429
:1079200000040000000000000E0C1014102410448D
:1079300011840E0C000000000C1810041104110436
:1079400012880C700000000000E0032004240824CA
:107950001FFC0024000000001F9810841104110473
:10796000108810700000000007F00888110411044E
:1079700018880070000000001C00100010FC1300AC
:107980001C001000000000000E3811441084108408
:1079900011440E38000000000700088C1044104409
:1079A000088807F00000000000000000030C030C32
:1079B00000000000000000000000000101060000BF
:1079C00000000000000000000080014002200410C0
:1079D00008081004000002200220022002200220D9
:1079E00002200220000000001004080804100220F9
:1079F00001400080000000000E001200100C106C0E
:107A000010800F00000003E00C1813E4142417C4C6
:107A1000082807D000000004003C03C41C400740B5
:107A200000E4001C000410041FFC110411041104E4
:107A30000E880070000003E00C18100410041004FD
:107A400010081C10000010041FFC10041004100487
:107A5000080807F0000010041FFC1104110417C4EB
:107A600010040818000010041FFC1104110017C0B6
:107A700010000800000003E00C181004100410446B
:107A80001C780040000010041FFC1084008000805F
:107A900010841FFC10040000100410041FFC1004CC
:107AA00010040000000000030001100110011FFE7F
:107AB00010001000000010041FFC11040380146467
:107AC000181C1004000010041FFC10040004000423
:107AD0000004000C000010041FFC1F0000FC1F002D
:107AE0001FFC1004000010041FFC0C04030000E045
:107AF00010181FFC100007F00808100410041004F0
:107B0000080807F0000010041FFC1084108010808B
:107B100010800F00000007F0081810241024101C1B
:107B2000080A07F2000010041FFC1104110011C024
:107B300011300E0C000400000E1C1104108410847F
:107B400010441C3800001800100010041FFC100422
:107B500010001800000010001FF8100400040004BA
:107B600010041FF8100010001E0011E0001C00702F
:107B700013801C0010001FC0103C00E01F0000E03C
:107B8000103C1FC000001004180C163401C001C0C6
:107B90001634180C100410001C00130400FC13040D
:107BA0001C00100000000804101C10641084130452
:107BB0001C04101800000000000000007FFE4002BE
:107BC000400240020000000030000C000380006012
:107BD000001C0003000000004002400240027FFE43
:107BE00000000000000000000000200040004000F5
:107BF0004000200000000001000100010001000120
:107C000000010001000100004000400020000000D1
:107C1000000000000000000000980124014401441D
:107C2000014400FC000410001FFC00880104010452
:107C3000008800700000000000700088010401044A
:107C400001040088000000000070008801040104A5
:107C500011081FFC0004000000F801440144014425
:107C6000014400C800000000010401040FFC1104DD
:107C7000110411001800000000D601290129012972
:107C800001C90106000010041FFC0084010001006E
:107C9000010400FC000400000104190419FC0004A4
:107CA00000040000000000000003000101011901B0
:107CB00019FE0000000010041FFC0024004001B465
:107CC000010C010400000000100410041FFC00045B
:107CD000000400000000010401FC0104010001FC9B
:107CE0000104010000FC010401FC0084010001000A
:107CF000010400FC0004000000F801040104010478
:107D0000010400F80000010101FF008501040104E5
:107D10000088007000000000007000880104010469
:107D2000010501FF00010104010401FC00840104BC
:107D3000010001800000000000CC01240124012486
:107D400001240198000000000100010007F801046F
:107D5000010400000000010001F800040004000418
:107D6000010801FC0004010001800170000C0010FA
:107D700001600180010001F0010C003001C0003001
:107D8000010C01F0010000000104018C007401707D
:107D9000018C01040000010101810171000E001835
:107DA00001600180010000000184010C01340144E4
:107DB0000184010C00000000000000000000010030
:107DC0003EFC400240020000000000000000FFFFF7
:107DD0000000000000000000400240023EFC0100E4
:107DE00000000000000000006000800080004000F3
:107DF0004000200020000000000000000000000003
:107E00000000000000000000000000000000000072
:107E10000000000000000000000000000000000062
:107E20000000000000000000000F80380FFE380F37
:107E3000803800000000000000000000000000008A
:107E4000000000000100000600000C0000380000E7
:107E50003100000600000C00003800003000000077
:107E600000000000000061800067F807F9800061F1
:107E7000800061800061800061800067F807F98000
:107E800000618000000000000000000001C0E0036D
:107E9000E0F00630080418081FFFFE040E080787EC
:107EA000F00381E000000000000001F000060C007B
:107EB000040408060C7001F9C0000E00003BE0004D
:107EC000EC18070808040C180003E000000000018B
:107ED000E00007F003F818041C0804170807E1D0B5
:107EE00003C0E00023B0003C0800200800001000A0
:107EF00000000000000100003100003200001C0002
:107F00000000000000000000000000000000000071
:107F10000000000000000000000000000000000061
:107F20000000000000007F0001FFC00780F00C008F
:107F300018100004200002000000000000200002D1
:107F40001000040C00180780F001FFC0007F000043
:107F50000000000000000000000000000000000021
:107F600000004200006600006600003C00001800AF
:107F700003FFC0001800003C00006600006600001F
:107F8000420000000000080000080000080000088F
:107F90000000080001FFC000080000080000080001
:107FA000000800000800000000000001000031008F
:107FB000003200001C000000000000000000000073
:107FC00000000000000000000000000000000800A9
:107FD0000008000008000008000008000008000079
:107FE0000800000800000800000800000000000071
:107FF00000000000000038000038000038000000D9
:108000000000000000000000000000000000000070
:10801000000000000000000600001C0000700001CD
:1080200080000E0000380000C0000700001C0000A7
:10803000300000000000000000007F8001FFE0032E
:108040008070060018040008040008060018038069
:108050007001FFE0007F80000000000000000000D1
:1080600001000801000801000803FFF807FFF800FD
:1080700000080000080000080000000000000000E8
:108080000001C03802C05804009804011804021806
:10809000040418061C1803F81801E0F8000000009A
:1080A000000000000001C0E003C0F0040008040864
:1080B0000804080806180803F41801E7F00001E0B6
:1080C000000000000000000000000300000D0000A0
:1080D000110000610000810803010807FFF80FFF8D
:1080E000F80001080001080000000000000000E0A6
:1080F00007FCD00608080610080610080610080637
:108100001838060FF00607C000000000000000004D
:1081100000003F8001FFE0038430020818041008CB
:10812000041008041008071810030FF00007C0001F
:10813000000000000000000003C00007000006006F
:10814000000600F80607F806180006E00007000021
:1081500006000000000000000001E1E003F7F00667
:108160003410041808041808040C08040C08061637
:108170001803F3F001C1E000000000000000F80067
:1081800003FC300306380402080402080402080451
:1081900004100308F001FFC0007F00000000000091
:1081A0000000000000000000000000000000703827
:1081B000007038007038000000000000000000006F
:1081C00000000000000000000000000000000000AF
:1081D0000000301A00301C00000000000000000009
:1081E0000000000000000000000000000008000087
:1081F00014000022000041000080800100400200C5
:108200002004001008000800000000000000210009
:1082100000210000210000210000210000210000B9
:1082200021000021000021000021000000000000CA
:1082300000000000080008040010020020010040B7
:1082400000808000410000220000140000080000AF
:10825000000000000003C00004C00004000008008B
:1082600038080F380808380810000C300007E00004
:1082700003C000000000000000003F8000FFE0039A
:108280008070020F1006708804C088048308047F81
:108290008802C09003012000FE4000000800001882
:1082A0000001F8003E0801C20007020007E20000DA
:1082B000FE00001FC80001F800003800000804009C
:1082C0000807FFF807FFF80408080408080408086E
:1082D00004080806180803F41801E7F00001E0009C
:1082E0000000000000003F8001FFE00380700200FA
:1082F0001804000804000804000804001006002008
:108300000780C000000004000807FFF807FFF8041A
:10831000000804000804000804001802001003808C
:108320007001FFE0007F8000000004000807FFF8F4
:1083300007FFF804080804080804080804080804EB
:108340003E08040008060018010060000000040058
:108350000807FFF807FFF8040808040800040800ED
:10836000040800043E000600000600000180000032
:108370000000000000003F8001FFE0038070060065
:10838000180400080402080402080203F00783F03E
:1083900000020000020004000807FFF807FFF804CD
:1083A0000808000800000800000800000800040891
:1083B0000807FFF807FFF8040008000000000000AD
:1083C00004000804000804000807FFF807FFF80489
:1083D000000804000804000800000000000000007D
:1083E0000000000600000700000104000104000175
:1083F00004000307FFFE07FFFC0400000400000464
:10840000000004000807FFF807FFF8040C08001834
:1084100000003E0004C7800503C80600F8040038C9
:1084200004001800000804000807FFF807FFF8041C
:108430000008000008000008000008000008000014
:108440000800001800006000000004000807FFF8A2
:1084500007800807FC00007FC00003F80007C00089
:10846000780007800807FFF807FFF80400080400F9
:108470000807FFF807000803C00000E0000038000C
:10848000001E000007000001C00400F007FFF80410
:108490000000000000007F8001FFE0038070060004
:1084A0001804000804000806001803003001FFE06B
:1084B000007F8000000004000807FFF807FFF804B1
:1084C0000408040400040400040400040400060C6E
:1084D0000003F80001F000000000000000007F80B1
:1084E00001FFE00380700600880400880400C806CD
:1084F000003C03003E01FFE6007F84000000040012
:108500000807FFF807FFF8040808040800040C0037
:10851000040F00040BC00610F003F03801E008005F
:10852000000800000001E0F803F0300630100418E5
:1085300008041808040C08040C080206180207F0C6
:108540000781E00000000180000600000400000434
:10855000000004000807FFF807FFF8040008040003
:108560000004000006000001800004000007FFE096
:1085700007FFF004001800000800000800000800D1
:10858000000800000804001007FFE00400000400D9
:108590000006000007E00007FE00041FE00001F8ED
:1085A0000000380001E0043E0007C000060000049F
:1085B000000004000007E00007FFC0041FF80007E8
:1085C000C007F80007FF80043FF80007C004F80068
:1085D000070000040000000000040008060018075F
:1085E000C07805F1C8003E00001F800463E80780E2
:1085F000F80600180400080000000400000600004F
:1086000007800007E008047C08001FF80007F80056
:10861000180804E00807000006000004000000003D
:10862000000100080600380400F80403E8040F08FD
:10863000047C0805F00807C0080700180400600063
:10864000000000000000000000000000000000002A
:10865000003FFFFE20000220000220000220000256
:1086600020000200000000000000000008000007D9
:10867000000000C0000038000006000001C000003B
:108680003000000E000001000000000000000000AB
:108690002000022000022000022000022000023FF1
:1086A000FFFE0000000000000000000000000000CD
:1086B0000000000000000008000010000030000072
:1086C0002000003000001000000800000000000042
:1086D0000000000001000001000001000001000096
:1086E0000100000100000100000100000100000184
:1086F0000000010000010000000000000000002058
:108700000000200000100000100000000000000029
:10871000000000000000000000000000000000F069
:108720000019F8001B180022080026080024080081
:108730002410003FF8001FF8000008000018000097
:108740000004000007FFF80FFFF0001818001008E1
:10875000002008002008003018001FF0000FC000A3
:1087600000000000000007C0001FF00018300020CB
:1087700008002008002008003C08001C10000060D1
:108780000000000000000000000007C0001FF00013
:10879000381800200800200800200804101007FFE7
:1087A000F80FFFF0000010000000000000000000C3
:1087B0000007C0001FF0001230002218002208003D
:1087C0002208003208001E10000E200000000000E9
:1087D0000000200000200800200801FFF803FFF837
:1087E00006200804200804200807200003000000D9
:1087F000000000000000000E000E6E001FF30031AC
:10880000B10020B10020B1003191001F13002E1ED5
:1088100000200E00300000000004000807FFF80FE1
:10882000FFF8001008002000002000002008003F92
:10883000F8001FF800000800000000000000000021
:10884000002008002008002008063FF8063FF80036
:108850000008000008000008000000000000000000
:1088600000000000000003000003002001002001C0
:10887000002003063FFE063FFC0000000000000051
:10888000000000000004000807FFF80FFFF80001D7
:1088900088000300002FC00038F8002038002008AE
:1088A00000000800000000000000000004000804B0
:1088B000000804000807FFF80FFFF8000008000098
:1088C00008000008000000000000002008003FF839
:1088D000003FF8001008002000003FF8003FF800BB
:1088E0001008002000003FF8003FF80000080000DA
:1088F00000002008003FF8003FF8001008001000BA
:10890000002000002008003FF8001FF800000800C9
:1089100000000000000007C0000FF0001830003019
:1089200008002008002008003008001830000FF070
:108930000007C0000000000000002001003FFF0011
:108940003FFF00101100200900200800200800301F
:1089500038001FF0000FC00000000000000007C03A
:10896000001FF0003818002008002008002009002F
:108970001011001FFF003FFF000001000000002059
:1089800008002008002008003FF8003FF800080811
:108990000010080020080020000030000030000017
:1089A0000000000000000000000C78001E180033DA
:1089B000080023080021080021880021980030F0D9
:1089C00000386000000000000000200000200000CF
:1089D000200000FFF003FFF800200800200800201E
:1089E000080000300000000000000000000020002F
:1089F000003FF0007FF800001800000800000800A9
:108A00002010003FF8007FF0000010000000000080
:108A100000002000003000003C00003F800023F0F8
:108A2000000078000070002380003C00003000004F
:108A30002000002000003C00003FE00023F8000080
:108A4000E0002700003E00003FE00021F80001E0C8
:108A5000003E000020000000000020080020080068
:108A60003838003E680027800003C8002CF8003822
:108A7000380020180020080000000000000020003E
:108A8000003003003C01003F830023EC0000700035
:108A90002380003C000020000020000000000000B7
:108AA000000000000038080020380020F80023E80B
:108AB000002F88003E0800380800201800007000D1
:108AC00000000000000000000000000000000000A6
:108AD000000008000014001FF7FC30000620000210
:108AE0000000000000000000000000000000000086
:108AF0000000000000000000FFFFFF000000000079
:108B00000000000000000000000000000000000065
:108B10002000023000061FF7FC00140000080000CF
:108B20000000000000000000000000000000000045
:108B3000001800006000004000004000002000001D
:108B40001000000800000400000400000C000010E9
:108B500000003031323334353637383941424344FE
:108B600045464030580030313233343536373839A5
:108B70006162636465664030780000009C8B000889
:108B800000000020EC000000C4010008888C0008F0
:108B9000EC000020845A0000E00100080000000002
:108BA0000000000000000000FFFF000000000000C7
:108BB0001F0000001FF80000E0FF0000FF0700009A
:108BC00000F800001FF80000E0070000FF7F000031
:108BD000E0FF000040BC000007FC00003084000003
:108BE000007A030A000000000000000001020304F4
:108BF000060708090000FFFF000000000000000059
:108C00000000000000000000010203040102030450
:108C10000607080900000000000000000000000036
:108C20000000000000000000000000000000000044
:108C30000000000000000000000000000000000034
:108C40000000000000000000000000000000000024
:108C50000000000000000000000000000000000014
:108C60000000000000000000AAAAAAAA000000005C
:108C700000000000000000000000000000000000F4
:088C80000000000000000000EC
:040000050800018965
:00000001FF
