Component: ARM Compiler 5.06 update 6 (build 750) Tool: armlink [4d35ed]

==============================================================================

Section Cross References

    main.o(i.main) refers to misc.o(i.NVIC_PriorityGroupConfig) for NVIC_PriorityGroupConfig
    main.o(i.main) refers to delay.o(i.delay_init) for delay_init
    main.o(i.main) refers to usart.o(i.uart_init) for uart_init
    main.o(i.main) refers to led.o(i.LED_Init) for LED_Init
    main.o(i.main) refers to lcd.o(i.LCD_Init) for LCD_Init
    main.o(i.main) refers to lcd.o(i.LCD_ShowString) for LCD_ShowString
    main.o(i.main) refers to tasks.o(i.xTaskCreate) for xTaskCreate
    main.o(i.main) refers to tasks.o(i.vTaskStartScheduler) for vTaskStartScheduler
    main.o(i.main) refers to lcd.o(.data) for POINT_COLOR
    main.o(i.main) refers to main.o(.data) for .data
    main.o(i.main) refers to main.o(i.start_task) for start_task
    main.o(i.start_task) refers to port.o(i.vPortEnterCritical) for vPortEnterCritical
    main.o(i.start_task) refers to tasks.o(i.xTaskCreate) for xTaskCreate
    main.o(i.start_task) refers to tasks.o(i.vTaskDelete) for vTaskDelete
    main.o(i.start_task) refers to port.o(i.vPortExitCritical) for vPortExitCritical
    main.o(i.start_task) refers to main.o(.data) for .data
    main.o(i.start_task) refers to main.o(i.task1_task) for task1_task
    main.o(i.start_task) refers to main.o(i.task2_task) for task2_task
==============================================================================

Removing Unused input sections from the image.

    Removing main.o(.rev16_text), (4 bytes).
    Removing main.o(.revsh_text), (4 bytes).
    Removing stm32f4xx_it.o(.rev16_text), (4 bytes).
    Removing stm32f4xx_it.o(.revsh_text), (4 bytes).
    Removing system_stm32f4xx.o(.rev16_text), (4 bytes).
    Removing system_stm32f4xx.o(.revsh_text), (4 bytes).
    Removing system_stm32f4xx.o(i.SystemCoreClockUpdate), (120 bytes).
    Removing led.o(.rev16_text), (4 bytes).
    Removing led.o(.revsh_text), (4 bytes).
    Removing timer.o(.rev16_text), (4 bytes).
    Removing timer.o(.revsh_text), (4 bytes).
    Removing timer.o(i.TIM3_Int_Init), (92 bytes).
    Removing timer.o(i.TIM5_Int_Init), (92 bytes).
    Removing lcd.o(.rev16_text), (4 bytes).
    Removing lcd.o(.revsh_text), (4 bytes).
    Removing lcd.o(i.LCD_BGR2RGB), (18 bytes).
    Removing lcd.o(i.LCD_Color_Fill), (86 bytes).
    Removing lcd.o(i.LCD_DisplayOff), (68 bytes).
==============================================================================

Image Symbol Table

    Local Symbols

    Symbol Name                              Value     Ov Type        Size  Object(Section)

    ../clib/angel/boardlib.s                 0x00000000   Number         0  boardshut.o ABSOLUTE
    ../clib/angel/boardlib.s                 0x00000000   Number         0  boardinit2.o ABSOLUTE
    ../clib/angel/boardlib.s                 0x00000000   Number         0  boardinit3.o ABSOLUTE
    ../clib/angel/boardlib.s                 0x00000000   Number         0  boardinit1.o ABSOLUTE
    ../clib/angel/handlers.s                 0x00000000   Number         0  __scatter_zi.o ABSOLUTE
    ../clib/angel/handlers.s                 0x00000000   Number         0  __scatter_copy.o ABSOLUTE
    ../clib/angel/kernel.s                   0x00000000   Number         0  rtexit2.o ABSOLUTE
    ../clib/angel/kernel.s                   0x00000000   Number         0  __rtentry2.o ABSOLUTE
    ../clib/angel/kernel.s                   0x00000000   Number         0  __rtentry4.o ABSOLUTE
    ../clib/angel/kernel.s                   0x00000000   Number         0  __rtentry.o ABSOLUTE
    ../clib/angel/kernel.s                   0x00000000   Number         0  rtexit.o ABSOLUTE
    ../clib/angel/rt.s                       0x00000000   Number         0  rt_raise.o ABSOLUTE
    ../clib/angel/scatter.s                  0x00000000   Number         0  __scatter.o ABSOLUTE
    ../clib/angel/startup.s                  0x00000000   Number         0  __main.o ABSOLUTE
    ../clib/angel/sys.s                      0x00000000   Number         0  indicate_semi.o ABSOLUTE
    ../clib/angel/sys.s                      0x00000000   Number         0  libspace.o ABSOLUTE
    ../clib/angel/sys.s                      0x00000000   Number         0  use_no_semi_2.o ABSOLUTE
    ../clib/angel/sys.s                      0x00000000   Number         0  use_no_semi.o ABSOLUTE
    ../clib/angel/sys.s                      0x00000000   Number         0  sys_stackheap_outer.o ABSOLUTE
    ../clib/angel/sysapp.c                   0x00000000   Number         0  sys_wrch.o ABSOLUTE
    ../clib/angel/sysapp.c                   0x00000000   Number         0  sys_command.o ABSOLUTE
    ../clib/armsys.c                         0x00000000   Number         0  no_argv.o ABSOLUTE
    ../clib/armsys.c                         0x00000000   Number         0  _get_argv_nomalloc.o ABSOLUTE
    ../clib/armsys.c                         0x00000000   Number         0  argv_veneer.o ABSOLUTE
    ../clib/armsys.c                         0x00000000   Number         0  argv_veneer.o ABSOLUTE
    ../clib/heapalloc.c                      0x00000000   Number         0  hrguard.o ABSOLUTE
    ../clib/heapaux.c                        0x00000000   Number         0  heapauxi.o ABSOLUTE
    ../clib/libinit.s                        0x00000000   Number         0  libinit.o ABSOLUTE
    ../clib/libinit.s                        0x00000000   Number         0  libinit2.o ABSOLUTE
    ../clib/libinit.s                        0x00000000   Number         0  libshutdown2.o ABSOLUTE
    ../clib/libinit.s                        0x00000000   Number         0  libshutdown.o ABSOLUTE
    ../clib/memcpset.s                       0x00000000   Number         0  rt_memcpy_w.o ABSOLUTE
    ../clib/memcpset.s                       0x00000000   Number         0  rt_memclr_w.o ABSOLUTE
    ../clib/memcpset.s                       0x00000000   Number         0  aeabi_memset.o ABSOLUTE
    ../clib/memcpset.s                       0x00000000   Number         0  rt_memcpy_v6.o ABSOLUTE
    ../clib/memcpset.s                       0x00000000   Number         0  rt_memclr.o ABSOLUTE
    ../clib/printf.c                         0x00000000   Number         0  __printf_nopercent.o ABSOLUTE
    ../clib/printf.c                         0x00000000   Number         0  _printf_char_file.o ABSOLUTE
    ../clib/printf.c                         0x00000000   Number         0  _printf_char.o ABSOLUTE
    ../clib/printf.c                         0x00000000   Number         0  _sputc.o ABSOLUTE
    ../clib/printf.c                         0x00000000   Number         0  _printf_char_common.o ABSOLUTE
    ../clib/printf.c                         0x00000000   Number         0  _printf_intcommon.o ABSOLUTE
    ../clib/printf.c                         0x00000000   Number         0  __printf_flags_ss_wp.o ABSOLUTE
    ../clib/printf.c                         0x00000000   Number         0  __printf_ss_wp.o ABSOLUTE
    ../clib/printf.c                         0x00000000   Number         0  __printf_flags_wp.o ABSOLUTE
    ../clib/printf.c                         0x00000000   Number         0  __printf_wp.o ABSOLUTE
    ../clib/printf.c                         0x00000000   Number         0  __printf_flags_ss.o ABSOLUTE
    ../clib/printf.c                         0x00000000   Number         0  __printf_ss.o ABSOLUTE
    ../clib/printf.c                         0x00000000   Number         0  __printf_flags.o ABSOLUTE
    ../clib/printf.c                         0x00000000   Number         0  _printf_dec.o ABSOLUTE
    ../clib/printf.c                         0x00000000   Number         0  _printf_hex_int_ll_ptr.o ABSOLUTE
    ../clib/printf.c                         0x00000000   Number         0  _printf_hex_ll_ptr.o ABSOLUTE
    ../clib/printf.c                         0x00000000   Number         0  _printf_hex_int_ptr.o ABSOLUTE
    ../clib/printf.c                         0x00000000   Number         0  _printf_hex_ptr.o ABSOLUTE
    ../clib/printf.c                         0x00000000   Number         0  _printf_hex_int_ll.o ABSOLUTE
    ../clib/printf.c                         0x00000000   Number         0  _printf_hex_int.o ABSOLUTE
    ../clib/printf.c                         0x00000000   Number         0  _printf_hex_ll.o ABSOLUTE
    ../clib/printf.c                         0x00000000   Number         0  _printf_str.o ABSOLUTE
    ../clib/printf.c                         0x00000000   Number         0  __printf.o ABSOLUTE
    ../clib/printf.c                         0x00000000   Number         0  noretval__2sprintf.o ABSOLUTE
    ../clib/printf.c                         0x00000000   Number         0  noretval__2printf.o ABSOLUTE
    ../clib/printf.c                         0x00000000   Number         0  __2sprintf.o ABSOLUTE
    ../clib/printf.c                         0x00000000   Number         0  __2printf.o ABSOLUTE
    ../clib/printf_percent.s                 0x00000000   Number         0  _printf_percent_end.o ABSOLUTE
    ../clib/printf_percent.s                 0x00000000   Number         0  _printf_s.o ABSOLUTE
    ../clib/printf_percent.s                 0x00000000   Number         0  _printf_percent.o ABSOLUTE
    ../clib/printf_percent.s                 0x00000000   Number         0  _printf_x.o ABSOLUTE
    ../clib/printf_percent.s                 0x00000000   Number         0  _printf_u.o ABSOLUTE
    ../clib/printf_percent.s                 0x00000000   Number         0  _printf_d.o ABSOLUTE
    ../clib/printf_percent.s                 0x00000000   Number         0  _printf_c.o ABSOLUTE
    ../clib/signal.c                         0x00000000   Number         0  defsig_abrt_inner.o ABSOLUTE
    ../clib/signal.c                         0x00000000   Number         0  defsig_exit.o ABSOLUTE
    ../clib/signal.c                         0x00000000   Number         0  defsig_rtmem_inner.o ABSOLUTE
    ../clib/signal.c                         0x00000000   Number         0  defsig_rtmem_outer.o ABSOLUTE
    ../clib/signal.c                         0x00000000   Number         0  __raise.o ABSOLUTE
    ../clib/signal.c                         0x00000000   Number         0  defsig_rtmem_formal.o ABSOLUTE
    ../clib/signal.c                         0x00000000   Number         0  defsig_rtred_inner.o ABSOLUTE
    ../clib/signal.c                         0x00000000   Number         0  defsig_stak_inner.o ABSOLUTE
    ../clib/signal.c                         0x00000000   Number         0  defsig_pvfn_inner.o ABSOLUTE
    ../clib/signal.c                         0x00000000   Number         0  defsig_cppl_inner.o ABSOLUTE
    ../clib/signal.c                         0x00000000   Number         0  defsig_segv_inner.o ABSOLUTE
    ../clib/signal.c                         0x00000000   Number         0  defsig_other.o ABSOLUTE
    ../clib/signal.c                         0x00000000   Number         0  defsig_fpe_inner.o ABSOLUTE
    ../clib/signal.c                         0x00000000   Number         0  defsig_general.o ABSOLUTE
    ../clib/signal.s                         0x00000000   Number         0  defsig.o ABSOLUTE
    ../clib/stdio.c                          0x00000000   Number         0  ferror_locked.o ABSOLUTE
    ../clib/stdio.c                          0x00000000   Number         0  ferror.o ABSOLUTE
    ../clib/stdlib.c                         0x00000000   Number         0  exit.o ABSOLUTE
    ../clib/string.c                         0x00000000   Number         0  strcpy.o ABSOLUTE
    ../clib/string.c                         0x00000000   Number         0  strlen.o ABSOLUTE
    ../fplib/dfixu.s                         0x00000000   Number         0  dfixu.o ABSOLUTE
    ../fplib/dflt.s                          0x00000000   Number         0  dflt_clz.o ABSOLUTE
    ../fplib/dmul.s                          0x00000000   Number         0  dmul.o ABSOLUTE
    ../fplib/dnaninf.s                       0x00000000   Number         0  dnaninf.o ABSOLUTE
    ../fplib/dretinf.s                       0x00000000   Number         0  dretinf.o ABSOLUTE
    ../fplib/fpinit.s                        0x00000000   Number         0  fpinit.o ABSOLUTE
    ../fplib/usenofp.s                       0x00000000   Number         0  usenofp.o ABSOLUTE
    ..\CORE\startup_stm32f40_41xxx.s         0x00000000   Number         0  startup_stm32f40_41xxx.o ABSOLUTE
    ..\FWLIB\src\misc.c                      0x00000000   Number         0  misc.o ABSOLUTE
    ..\FWLIB\src\stm32f4xx_fsmc.c            0x00000000   Number         0  stm32f4xx_fsmc.o ABSOLUTE
    ..\FWLIB\src\stm32f4xx_gpio.c            0x00000000   Number         0  stm32f4xx_gpio.o ABSOLUTE
    ..\FWLIB\src\stm32f4xx_rcc.c             0x00000000   Number         0  stm32f4xx_rcc.o ABSOLUTE
    ..\FWLIB\src\stm32f4xx_syscfg.c          0x00000000   Number         0  stm32f4xx_syscfg.o ABSOLUTE
    ..\FWLIB\src\stm32f4xx_tim.c             0x00000000   Number         0  stm32f4xx_tim.o ABSOLUTE
    ..\FWLIB\src\stm32f4xx_usart.c           0x00000000   Number         0  stm32f4xx_usart.o ABSOLUTE
    ..\FreeRTOS\croutine.c                   0x00000000   Number         0  croutine.o ABSOLUTE
    ..\FreeRTOS\event_groups.c               0x00000000   Number         0  event_groups.o ABSOLUTE
    ..\FreeRTOS\list.c                       0x00000000   Number         0  list.o ABSOLUTE
    ..\FreeRTOS\portable\MemMang\heap_4.c    0x00000000   Number         0  heap_4.o ABSOLUTE
    ..\FreeRTOS\portable\RVDS\ARM_CM4F\port.c 0x00000000   Number         0  port.o ABSOLUTE
    ..\FreeRTOS\queue.c                      0x00000000   Number         0  queue.o ABSOLUTE
    ..\FreeRTOS\tasks.c                      0x00000000   Number         0  tasks.o ABSOLUTE
    ..\FreeRTOS\timers.c                     0x00000000   Number         0  timers.o ABSOLUTE
    ..\HARDWARE\LCD\lcd.c                    0x00000000   Number         0  lcd.o ABSOLUTE
    ..\HARDWARE\LED\led.c                    0x00000000   Number         0  led.o ABSOLUTE
    ..\HARDWARE\TIMER\timer.c                0x00000000   Number         0  timer.o ABSOLUTE
    ..\SYSTEM\delay\delay.c                  0x00000000   Number         0  delay.o ABSOLUTE
    ..\SYSTEM\sys\sys.c                      0x00000000   Number         0  sys.o ABSOLUTE
    ..\SYSTEM\usart\usart.c                  0x00000000   Number         0  usart.o ABSOLUTE
    ..\\FWLIB\\src\\misc.c                   0x00000000   Number         0  misc.o ABSOLUTE
    ..\\FWLIB\\src\\stm32f4xx_fsmc.c         0x00000000   Number         0  stm32f4xx_fsmc.o ABSOLUTE
    ..\\FWLIB\\src\\stm32f4xx_gpio.c         0x00000000   Number         0  stm32f4xx_gpio.o ABSOLUTE
    ..\\FWLIB\\src\\stm32f4xx_rcc.c          0x00000000   Number         0  stm32f4xx_rcc.o ABSOLUTE
    ..\\FWLIB\\src\\stm32f4xx_syscfg.c       0x00000000   Number         0  stm32f4xx_syscfg.o ABSOLUTE
    ..\\FWLIB\\src\\stm32f4xx_tim.c          0x00000000   Number         0  stm32f4xx_tim.o ABSOLUTE
    ..\\FWLIB\\src\\stm32f4xx_usart.c        0x00000000   Number         0  stm32f4xx_usart.o ABSOLUTE
    ..\\FreeRTOS\\croutine.c                 0x00000000   Number         0  croutine.o ABSOLUTE
    ..\\FreeRTOS\\event_groups.c             0x00000000   Number         0  event_groups.o ABSOLUTE
    ..\\FreeRTOS\\list.c                     0x00000000   Number         0  list.o ABSOLUTE
    ..\\FreeRTOS\\portable\\MemMang\\heap_4.c 0x00000000   Number         0  heap_4.o ABSOLUTE
    ..\\FreeRTOS\\portable\\RVDS\\ARM_CM4F\\port.c 0x00000000   Number         0  port.o ABSOLUTE
    ..\\FreeRTOS\\queue.c                    0x00000000   Number         0  queue.o ABSOLUTE
    ..\\FreeRTOS\\tasks.c                    0x00000000   Number         0  tasks.o ABSOLUTE
    ..\\FreeRTOS\\timers.c                   0x00000000   Number         0  timers.o ABSOLUTE
    ..\\HARDWARE\\LCD\\lcd.c                 0x00000000   Number         0  lcd.o ABSOLUTE
    ..\\HARDWARE\\LED\\led.c                 0x00000000   Number         0  led.o ABSOLUTE
    ..\\HARDWARE\\TIMER\\timer.c             0x00000000   Number         0  timer.o ABSOLUTE
    ..\\SYSTEM\\delay\\delay.c               0x00000000   Number         0  delay.o ABSOLUTE
    ..\\SYSTEM\\sys\\sys.c                   0x00000000   Number         0  sys.o ABSOLUTE
    ..\\SYSTEM\\usart\\usart.c               0x00000000   Number         0  usart.o ABSOLUTE
    dc.s                                     0x00000000   Number         0  dc.o ABSOLUTE
    main.c                                   0x00000000   Number         0  main.o ABSOLUTE
    main.c                                   0x00000000   Number         0  main.o ABSOLUTE
    stm32f4xx_it.c                           0x00000000   Number         0  stm32f4xx_it.o ABSOLUTE
    stm32f4xx_it.c                           0x00000000   Number         0  stm32f4xx_it.o ABSOLUTE
    system_stm32f4xx.c                       0x00000000   Number         0  system_stm32f4xx.o ABSOLUTE
    system_stm32f4xx.c                       0x00000000   Number         0  system_stm32f4xx.o ABSOLUTE
    RESET                                    0x08000000   Section      392  startup_stm32f40_41xxx.o(RESET)
    !!!main                                  0x08000188   Section        8  __main.o(!!!main)
    !!!scatter                               0x08000190   Section       52  __scatter.o(!!!scatter)
    !!handler_copy                           0x080001c4   Section       26  __scatter_copy.o(!!handler_copy)
    !!handler_zi                             0x080001e0   Section       28  __scatter_zi.o(!!handler_zi)
    .ARM.Collect$$_printf_percent$$00000000  0x080001fc   Section        0  _printf_percent.o(.ARM.Collect$$_printf_percent$$00000000)
    .ARM.Collect$$_printf_percent$$00000009  0x080001fc   Section        6  _printf_d.o(.ARM.Collect$$_printf_percent$$00000009)
    .ARM.Collect$$_printf_percent$$0000000C  0x08000202   Section        6  _printf_x.o(.ARM.Collect$$_printf_percent$$0000000C)
    .ARM.Collect$$_printf_percent$$00000014  0x08000208   Section        6  _printf_s.o(.ARM.Collect$$_printf_percent$$00000014)
    .ARM.Collect$$_printf_percent$$00000017  0x0800020e   Section        4  _printf_percent_end.o(.ARM.Collect$$_printf_percent$$00000017)
    .ARM.Collect$$libinit$$00000000          0x08000212   Section        2  libinit.o(.ARM.Collect$$libinit$$00000000)
    .ARM.Collect$$libinit$$00000001          0x08000214   Section        4  libinit2.o(.ARM.Collect$$libinit$$00000001)
    .ARM.Collect$$libinit$$00000004          0x08000218   Section        0  libinit2.o(.ARM.Collect$$libinit$$00000004)
    .ARM.Collect$$libinit$$0000000A          0x08000218   Section        0  libinit2.o(.ARM.Collect$$libinit$$0000000A)
    .ARM.Collect$$libinit$$0000000C          0x08000218   Section        0  libinit2.o(.ARM.Collect$$libinit$$0000000C)
    .ARM.Collect$$libinit$$0000000E          0x08000218   Section        0  libinit2.o(.ARM.Collect$$libinit$$0000000E)
    .ARM.Collect$$libinit$$00000011          0x08000218   Section        0  libinit2.o(.ARM.Collect$$libinit$$00000011)
    .ARM.Collect$$libinit$$00000013          0x08000218   Section        0  libinit2.o(.ARM.Collect$$libinit$$00000013)
    .ARM.Collect$$libinit$$00000015          0x08000218   Section        0  libinit2.o(.ARM.Collect$$libinit$$00000015)
    .ARM.Collect$$libinit$$00000017          0x08000218   Section        0  libinit2.o(.ARM.Collect$$libinit$$00000017)
    .ARM.Collect$$libinit$$00000019          0x08000218   Section        0  libinit2.o(.ARM.Collect$$libinit$$00000019)
    .ARM.Collect$$libinit$$0000001B          0x08000218   Section        0  libinit2.o(.ARM.Collect$$libinit$$0000001B)
    .ARM.Collect$$libinit$$0000001D          0x08000218   Section        0  libinit2.o(.ARM.Collect$$libinit$$0000001D)
    .ARM.Collect$$libinit$$0000001F          0x08000218   Section        0  libinit2.o(.ARM.Collect$$libinit$$0000001F)
    .ARM.Collect$$libinit$$00000021          0x08000218   Section        0  libinit2.o(.ARM.Collect$$libinit$$00000021)
    .ARM.Collect$$libinit$$00000023          0x08000218   Section        0  libinit2.o(.ARM.Collect$$libinit$$00000023)
    .ARM.Collect$$libinit$$00000025          0x08000218   Section        0  libinit2.o(.ARM.Collect$$libinit$$00000025)
    .ARM.Collect$$libinit$$0000002C          0x08000218   Section        0  libinit2.o(.ARM.Collect$$libinit$$0000002C)
    .ARM.Collect$$libinit$$0000002E          0x08000218   Section        0  libinit2.o(.ARM.Collect$$libinit$$0000002E)
    .ARM.Collect$$libinit$$00000030          0x08000218   Section        0  libinit2.o(.ARM.Collect$$libinit$$00000030)
    .ARM.Collect$$libinit$$00000032          0x08000218   Section        0  libinit2.o(.ARM.Collect$$libinit$$00000032)
    .ARM.Collect$$libinit$$00000033          0x08000218   Section        2  libinit2.o(.ARM.Collect$$libinit$$00000033)
    .ARM.Collect$$libshutdown$$00000000      0x0800021a   Section        2  libshutdown.o(.ARM.Collect$$libshutdown$$00000000)
    .ARM.Collect$$libshutdown$$00000002      0x0800021c   Section        0  libshutdown2.o(.ARM.Collect$$libshutdown$$00000002)
    .ARM.Collect$$libshutdown$$00000004      0x0800021c   Section        0  libshutdown2.o(.ARM.Collect$$libshutdown$$00000004)
    .ARM.Collect$$libshutdown$$00000007      0x0800021c   Section        0  libshutdown2.o(.ARM.Collect$$libshutdown$$00000007)
    .ARM.Collect$$libshutdown$$0000000A      0x0800021c   Section        0  libshutdown2.o(.ARM.Collect$$libshutdown$$0000000A)
    .ARM.Collect$$libshutdown$$0000000C      0x0800021c   Section        0  libshutdown2.o(.ARM.Collect$$libshutdown$$0000000C)
    .ARM.Collect$$libshutdown$$0000000F      0x0800021c   Section        0  libshutdown2.o(.ARM.Collect$$libshutdown$$0000000F)
    .ARM.Collect$$libshutdown$$00000010      0x0800021c   Section        2  libshutdown2.o(.ARM.Collect$$libshutdown$$00000010)
    .ARM.Collect$$rtentry$$00000000          0x0800021e   Section        0  __rtentry.o(.ARM.Collect$$rtentry$$00000000)
    .ARM.Collect$$rtentry$$00000002          0x0800021e   Section        0  __rtentry2.o(.ARM.Collect$$rtentry$$00000002)
    .ARM.Collect$$rtentry$$00000004          0x0800021e   Section        6  __rtentry4.o(.ARM.Collect$$rtentry$$00000004)
    .ARM.Collect$$rtentry$$00000009          0x08000224   Section        0  __rtentry2.o(.ARM.Collect$$rtentry$$00000009)
    .ARM.Collect$$rtentry$$0000000A          0x08000224   Section        4  __rtentry2.o(.ARM.Collect$$rtentry$$0000000A)
    .ARM.Collect$$rtentry$$0000000C          0x08000228   Section        0  __rtentry2.o(.ARM.Collect$$rtentry$$0000000C)
    .ARM.Collect$$rtentry$$0000000D          0x08000228   Section        8  __rtentry2.o(.ARM.Collect$$rtentry$$0000000D)
    .ARM.Collect$$rtexit$$00000000           0x08000230   Section        2  rtexit.o(.ARM.Collect$$rtexit$$00000000)
    .ARM.Collect$$rtexit$$00000002           0x08000232   Section        0  rtexit2.o(.ARM.Collect$$rtexit$$00000002)
    .ARM.Collect$$rtexit$$00000003           0x08000232   Section        4  rtexit2.o(.ARM.Collect$$rtexit$$00000003)
    .ARM.Collect$$rtexit$$00000004           0x08000236   Section        6  rtexit2.o(.ARM.Collect$$rtexit$$00000004)
    .emb_text                                0x0800023c   Section      182  port.o(.emb_text)
    $v0                                      0x0800023c   Number         0  port.o(.emb_text)
    .text                                    0x080002f4   Section       64  startup_stm32f40_41xxx.o(.text)
    $v0                                      0x080002f4   Number         0  startup_stm32f40_41xxx.o(.text)
    .text                                    0x08000334   Section        2  use_no_semi_2.o(.text)
    .text                                    0x08000338   Section        0  noretval__2printf.o(.text)
    .text                                    0x08000350   Section        0  __printf.o(.text)
    .text                                    0x080003b8   Section        0  _printf_str.o(.text)
    .text                                    0x0800040c   Section        0  _printf_dec.o(.text)
    .text                                    0x08000484   Section        0  _printf_hex_int.o(.text)
    .text                                    0x080004dc   Section      138  rt_memcpy_v6.o(.text)
    .text                                    0x08000566   Section       16  aeabi_memset.o(.text)
    .text                                    0x08000576   Section        0  heapauxi.o(.text)
    .text                                    0x0800057c   Section        2  use_no_semi.o(.text)
    .text                                    0x0800057e   Section        0  _printf_intcommon.o(.text)
    .text                                    0x08000630   Section        0  _printf_char_common.o(.text)
    _printf_input_char                       0x08000631   Thumb Code    10  _printf_char_common.o(.text)
    .text                                    0x08000660   Section        0  _printf_char.o(.text)
    .text                                    0x0800068c   Section        0  _printf_char_file.o(.text)
    .text                                    0x080006b0   Section      100  rt_memcpy_w.o(.text)
    .text                                    0x08000714   Section       68  rt_memclr.o(.text)
    .text                                    0x08000758   Section        0  ferror.o(.text)
    .text                                    0x08000760   Section       78  rt_memclr_w.o(.text)
    .text                                    0x080007ae   Section       74  sys_stackheap_outer.o(.text)
    .text                                    0x080007f8   Section        0  exit.o(.text)
    .text                                    0x0800080c   Section        8  libspace.o(.text)
    i.BusFault_Handler                       0x08000814   Section        0  stm32f4xx_it.o(i.BusFault_Handler)
    i.DebugMon_Handler                       0x08000816   Section        0  stm32f4xx_it.o(i.DebugMon_Handler)
    i.FSMC_NORSRAMCmd                        0x08000818   Section        0  stm32f4xx_fsmc.o(i.FSMC_NORSRAMCmd)
    i.FSMC_NORSRAMInit                       0x08000838   Section        0  stm32f4xx_fsmc.o(i.FSMC_NORSRAMInit)
    i.GPIO_Init                              0x08000900   Section        0  stm32f4xx_gpio.o(i.GPIO_Init)
    i.GPIO_PinAFConfig                       0x08000978   Section        0  stm32f4xx_gpio.o(i.GPIO_PinAFConfig)
    i.GPIO_SetBits                           0x08000998   Section        0  stm32f4xx_gpio.o(i.GPIO_SetBits)
    i.HardFault_Handler                      0x0800099c   Section        0  stm32f4xx_it.o(i.HardFault_Handler)
    i.LCD_Clear                              0x080009a0   Section        0  lcd.o(i.LCD_Clear)
    i.LCD_Display_Dir                        0x08000a0c   Section        0  lcd.o(i.LCD_Display_Dir)
    i.LCD_DrawLine                           0x08000b40   Section        0  lcd.o(i.LCD_DrawLine)
    i.LCD_DrawPoint                          0x08000bd8   Section        0  lcd.o(i.LCD_DrawPoint)
    i.LCD_DrawRectangle                      0x08000bf4   Section        0  lcd.o(i.LCD_DrawRectangle)
    i.LCD_Fast_DrawPoint                     0x08000c2c   Section        0  lcd.o(i.LCD_Fast_DrawPoint)
    i.LCD_Fill                               0x08000d3c   Section        0  lcd.o(i.LCD_Fill)
    i.LCD_Init                               0x08000dc8   Section        0  lcd.o(i.LCD_Init)
    i.LCD_Pow                                0x080044ec   Section        0  lcd.o(i.LCD_Pow)
    i.LCD_RD_DATA                            0x080044fc   Section        0  lcd.o(i.LCD_RD_DATA)
    i.LCD_ReadReg                            0x08004510   Section        0  lcd.o(i.LCD_ReadReg)
    i.LCD_SSD_BackLightSet                   0x08004524   Section        0  lcd.o(i.LCD_SSD_BackLightSet)
    i.LCD_Scan_Dir                           0x08004574   Section        0  lcd.o(i.LCD_Scan_Dir)
    i.LCD_SetCursor                          0x08004778   Section        0  lcd.o(i.LCD_SetCursor)
    i.LCD_ShowChar                           0x080048c8   Section        0  lcd.o(i.LCD_ShowChar)
    i.LCD_ShowString                         0x08004994   Section        0  lcd.o(i.LCD_ShowString)
    i.LCD_ShowxNum                           0x080049e8   Section        0  lcd.o(i.LCD_ShowxNum)
    i.LCD_WR_DATA                            0x08004a6e   Section        0  lcd.o(i.LCD_WR_DATA)
    i.LCD_WR_REG                             0x08004a86   Section        0  lcd.o(i.LCD_WR_REG)
    i.LCD_WriteRAM_Prepare                   0x08004aa0   Section        0  lcd.o(i.LCD_WriteRAM_Prepare)
    i.LCD_WriteReg                           0x08004ab4   Section        0  lcd.o(i.LCD_WriteReg)
    i.LED_Init                               0x08004ac0   Section        0  led.o(i.LED_Init)
    i.MemManage_Handler                      0x08004b00   Section        0  stm32f4xx_it.o(i.MemManage_Handler)
    i.NMI_Handler                            0x08004b02   Section        0  stm32f4xx_it.o(i.NMI_Handler)
    i.NVIC_Init                              0x08004b04   Section        0  misc.o(i.NVIC_Init)
    i.NVIC_PriorityGroupConfig               0x08004b68   Section        0  misc.o(i.NVIC_PriorityGroupConfig)
    i.RCC_AHB1PeriphClockCmd                 0x08004b7c   Section        0  stm32f4xx_rcc.o(i.RCC_AHB1PeriphClockCmd)
    i.RCC_AHB3PeriphClockCmd                 0x08004b94   Section        0  stm32f4xx_rcc.o(i.RCC_AHB3PeriphClockCmd)
    i.RCC_APB2PeriphClockCmd                 0x08004bac   Section        0  stm32f4xx_rcc.o(i.RCC_APB2PeriphClockCmd)
    i.RCC_GetClocksFreq                      0x08004bc4   Section        0  stm32f4xx_rcc.o(i.RCC_GetClocksFreq)
    i.SetSysClock                            0x08004c54   Section        0  system_stm32f4xx.o(i.SetSysClock)
    SetSysClock                              0x08004c55   Thumb Code   162  system_stm32f4xx.o(i.SetSysClock)
    i.SysTick_CLKSourceConfig                0x08004d08   Section        0  misc.o(i.SysTick_CLKSourceConfig)
    i.SysTick_Handler                        0x08004d20   Section        0  delay.o(i.SysTick_Handler)
    i.SystemInit                             0x08004d34   Section        0  system_stm32f4xx.o(i.SystemInit)
    i.TIM3_IRQHandler                        0x08004d90   Section        0  timer.o(i.TIM3_IRQHandler)
    i.TIM5_IRQHandler                        0x08004dcc   Section        0  timer.o(i.TIM5_IRQHandler)
    i.TIM_ClearITPendingBit                  0x08004e08   Section        0  stm32f4xx_tim.o(i.TIM_ClearITPendingBit)
    i.TIM_GetITStatus                        0x08004e0e   Section        0  stm32f4xx_tim.o(i.TIM_GetITStatus)
    i.USART1_IRQHandler                      0x08004e28   Section        0  usart.o(i.USART1_IRQHandler)
    i.USART_Cmd                              0x08004e8c   Section        0  stm32f4xx_usart.o(i.USART_Cmd)
    i.USART_GetITStatus                      0x08004ea0   Section        0  stm32f4xx_usart.o(i.USART_GetITStatus)
    i.USART_ITConfig                         0x08004ede   Section        0  stm32f4xx_usart.o(i.USART_ITConfig)
    i.USART_Init                             0x08004f10   Section        0  stm32f4xx_usart.o(i.USART_Init)
    i.USART_ReceiveData                      0x08004fbc   Section        0  stm32f4xx_usart.o(i.USART_ReceiveData)
    i.UsageFault_Handler                     0x08004fc4   Section        0  stm32f4xx_it.o(i.UsageFault_Handler)
    i._sys_exit                              0x08004fc6   Section        0  usart.o(i._sys_exit)
    i.delay_init                             0x08004fc8   Section        0  delay.o(i.delay_init)
    i.delay_ms                               0x08005000   Section        0  delay.o(i.delay_ms)
    i.delay_us                               0x08005038   Section        0  delay.o(i.delay_us)
    i.fputc                                  0x0800506c   Section        0  usart.o(i.fputc)
    i.main                                   0x08005080   Section        0  main.o(i.main)
    i.prvAddCurrentTaskToDelayedList         0x08005190   Section        0  tasks.o(i.prvAddCurrentTaskToDelayedList)
    prvAddCurrentTaskToDelayedList           0x08005191   Thumb Code   102  tasks.o(i.prvAddCurrentTaskToDelayedList)
    i.prvAddNewTaskToReadyList               0x08005200   Section        0  tasks.o(i.prvAddNewTaskToReadyList)
    prvAddNewTaskToReadyList                 0x08005201   Thumb Code   192  tasks.o(i.prvAddNewTaskToReadyList)
    i.prvCheckForValidListAndQueue           0x080052d0   Section        0  timers.o(i.prvCheckForValidListAndQueue)
    prvCheckForValidListAndQueue             0x080052d1   Thumb Code    62  timers.o(i.prvCheckForValidListAndQueue)
    i.prvCheckTasksWaitingTermination        0x08005320   Section        0  tasks.o(i.prvCheckTasksWaitingTermination)
    prvCheckTasksWaitingTermination          0x08005321   Thumb Code    74  tasks.o(i.prvCheckTasksWaitingTermination)
    i.prvCopyDataFromQueue                   0x08005374   Section        0  queue.o(i.prvCopyDataFromQueue)
    prvCopyDataFromQueue                     0x08005375   Thumb Code    38  queue.o(i.prvCopyDataFromQueue)
    i.prvCopyDataToQueue                     0x0800539a   Section        0  queue.o(i.prvCopyDataToQueue)
    prvCopyDataToQueue                       0x0800539b   Thumb Code   108  queue.o(i.prvCopyDataToQueue)
    i.prvDeleteTCB                           0x08005406   Section        0  tasks.o(i.prvDeleteTCB)
    prvDeleteTCB                             0x08005407   Thumb Code    20  tasks.o(i.prvDeleteTCB)
    i.prvHeapInit                            0x0800541c   Section        0  heap_4.o(i.prvHeapInit)
    prvHeapInit                              0x0800541d   Thumb Code    66  heap_4.o(i.prvHeapInit)
    i.prvIdleTask                            0x08005468   Section        0  tasks.o(i.prvIdleTask)
    prvIdleTask                              0x08005469   Thumb Code    30  tasks.o(i.prvIdleTask)
    i.prvInitialiseNewTask                   0x08005490   Section        0  tasks.o(i.prvInitialiseNewTask)
    prvInitialiseNewTask                     0x08005491   Thumb Code   154  tasks.o(i.prvInitialiseNewTask)
    i.prvInsertBlockIntoFreeList             0x08005550   Section        0  heap_4.o(i.prvInsertBlockIntoFreeList)
    prvInsertBlockIntoFreeList               0x08005551   Thumb Code    72  heap_4.o(i.prvInsertBlockIntoFreeList)
    i.prvInsertTimerInActiveList             0x0800559c   Section        0  timers.o(i.prvInsertTimerInActiveList)
    prvInsertTimerInActiveList               0x0800559d   Thumb Code    52  timers.o(i.prvInsertTimerInActiveList)
    i.prvIsQueueEmpty                        0x080055d4   Section        0  queue.o(i.prvIsQueueEmpty)
    prvIsQueueEmpty                          0x080055d5   Thumb Code    26  queue.o(i.prvIsQueueEmpty)
    i.prvNotifyQueueSetContainer             0x080055f0   Section        0  queue.o(i.prvNotifyQueueSetContainer)
    prvNotifyQueueSetContainer               0x080055f1   Thumb Code   108  queue.o(i.prvNotifyQueueSetContainer)
    i.prvProcessExpiredTimer                 0x08005680   Section        0  timers.o(i.prvProcessExpiredTimer)
    prvProcessExpiredTimer                   0x08005681   Thumb Code    86  timers.o(i.prvProcessExpiredTimer)
    i.prvProcessReceivedCommands             0x080056e0   Section        0  timers.o(i.prvProcessReceivedCommands)
    prvProcessReceivedCommands               0x080056e1   Thumb Code   196  timers.o(i.prvProcessReceivedCommands)
    i.prvProcessTimerOrBlockTask             0x080057d0   Section        0  timers.o(i.prvProcessTimerOrBlockTask)
    prvProcessTimerOrBlockTask               0x080057d1   Thumb Code    98  timers.o(i.prvProcessTimerOrBlockTask)
    i.prvResetNextTaskUnblockTime            0x0800583c   Section        0  tasks.o(i.prvResetNextTaskUnblockTime)
    prvResetNextTaskUnblockTime              0x0800583d   Thumb Code    26  tasks.o(i.prvResetNextTaskUnblockTime)
    i.prvSampleTimeNow                       0x0800585c   Section        0  timers.o(i.prvSampleTimeNow)
    prvSampleTimeNow                         0x0800585d   Thumb Code    36  timers.o(i.prvSampleTimeNow)
    i.prvSwitchTimerLists                    0x08005884   Section        0  timers.o(i.prvSwitchTimerLists)
    prvSwitchTimerLists                      0x08005885   Thumb Code   100  timers.o(i.prvSwitchTimerLists)
    i.prvTaskExitError                       0x080058f0   Section        0  port.o(i.prvTaskExitError)
    prvTaskExitError                         0x080058f1   Thumb Code    36  port.o(i.prvTaskExitError)
    i.prvTimerTask                           0x08005954   Section        0  timers.o(i.prvTimerTask)
    prvTimerTask                             0x08005955   Thumb Code    34  timers.o(i.prvTimerTask)
    i.prvUnlockQueue                         0x0800597c   Section        0  queue.o(i.prvUnlockQueue)
    prvUnlockQueue                           0x0800597d   Thumb Code   120  queue.o(i.prvUnlockQueue)
    i.pvPortMalloc                           0x080059f4   Section        0  heap_4.o(i.pvPortMalloc)
    i.pvTaskIncrementMutexHeldCount          0x08005b08   Section        0  tasks.o(i.pvTaskIncrementMutexHeldCount)
    i.pxPortInitialiseStack                  0x08005b20   Section        0  port.o(i.pxPortInitialiseStack)
    i.start_task                             0x08005b4c   Section        0  main.o(i.start_task)
    i.task1_task                             0x08005bb4   Section        0  main.o(i.task1_task)
    i.task2_task                             0x08005cb0   Section        0  main.o(i.task2_task)
    i.uart_init                              0x08005d88   Section        0  usart.o(i.uart_init)
    i.uxListRemove                           0x08005e34   Section        0  list.o(i.uxListRemove)
    i.vListInitialise                        0x08005e58   Section        0  list.o(i.vListInitialise)
    i.vListInitialiseItem                    0x08005e6e   Section        0  list.o(i.vListInitialiseItem)
    i.vListInsert                            0x08005e74   Section        0  list.o(i.vListInsert)
    i.vListInsertEnd                         0x08005ea4   Section        0  list.o(i.vListInsertEnd)
    i.vPortEnterCritical                     0x08005ebc   Section        0  port.o(i.vPortEnterCritical)
    i.vPortExitCritical                      0x08005f34   Section        0  port.o(i.vPortExitCritical)
    i.vPortFree                              0x08005f98   Section        0  heap_4.o(i.vPortFree)
    i.vPortSetupTimerInterrupt               0x08006034   Section        0  port.o(i.vPortSetupTimerInterrupt)
    i.vPortValidateInterruptPriority         0x08006054   Section        0  port.o(i.vPortValidateInterruptPriority)
    i.vQueueAddToRegistry                    0x080060e0   Section        0  queue.o(i.vQueueAddToRegistry)
    i.vQueueWaitForMessageRestricted         0x08006104   Section        0  queue.o(i.vQueueWaitForMessageRestricted)
    i.vTaskDelay                             0x08006148   Section        0  tasks.o(i.vTaskDelay)
    i.vTaskDelete                            0x080061b4   Section        0  tasks.o(i.vTaskDelete)
    i.vTaskMissedYield                       0x08006280   Section        0  tasks.o(i.vTaskMissedYield)
    i.vTaskPlaceOnEventList                  0x0800628c   Section        0  tasks.o(i.vTaskPlaceOnEventList)
    i.vTaskPlaceOnEventListRestricted        0x080062e0   Section        0  tasks.o(i.vTaskPlaceOnEventListRestricted)
    i.vTaskPriorityInherit                   0x0800633c   Section        0  tasks.o(i.vTaskPriorityInherit)
    i.vTaskSetTimeOutState                   0x080063c0   Section        0  tasks.o(i.vTaskSetTimeOutState)
    i.vTaskStartScheduler                    0x08006408   Section        0  tasks.o(i.vTaskStartScheduler)
    i.vTaskSuspendAll                        0x0800649c   Section        0  tasks.o(i.vTaskSuspendAll)
    i.vTaskSwitchContext                     0x080064ac   Section        0  tasks.o(i.vTaskSwitchContext)
    i.xPortStartScheduler                    0x08006528   Section        0  port.o(i.xPortStartScheduler)
    i.xPortSysTickHandler                    0x0800663c   Section        0  port.o(i.xPortSysTickHandler)
    i.xQueueGenericCreate                    0x08006668   Section        0  queue.o(i.xQueueGenericCreate)
    i.xQueueGenericReceive                   0x080066e0   Section        0  queue.o(i.xQueueGenericReceive)
    i.xQueueGenericReset                     0x08006864   Section        0  queue.o(i.xQueueGenericReset)
    i.xQueueGenericSend                      0x0800690c   Section        0  queue.o(i.xQueueGenericSend)
    i.xQueueGenericSendFromISR               0x08006a94   Section        0  queue.o(i.xQueueGenericSendFromISR)
    i.xTaskCheckForTimeOut                   0x08006b74   Section        0  tasks.o(i.xTaskCheckForTimeOut)
    i.xTaskCreate                            0x08006bfc   Section        0  tasks.o(i.xTaskCreate)
    i.xTaskGetSchedulerState                 0x08006c54   Section        0  tasks.o(i.xTaskGetSchedulerState)
    i.xTaskGetTickCount                      0x08006c70   Section        0  tasks.o(i.xTaskGetTickCount)
    i.xTaskIncrementTick                     0x08006c7c   Section        0  tasks.o(i.xTaskIncrementTick)
    i.xTaskPriorityDisinherit                0x08006d64   Section        0  tasks.o(i.xTaskPriorityDisinherit)
    i.xTaskRemoveFromEventList               0x08006e18   Section        0  tasks.o(i.xTaskRemoveFromEventList)
    i.xTaskResumeAll                         0x08006eb0   Section        0  tasks.o(i.xTaskResumeAll)
    i.xTimerCreate                           0x08006f94   Section        0  timers.o(i.xTimerCreate)
    i.xTimerCreateTimerTask                  0x08007008   Section        0  timers.o(i.xTimerCreateTimerTask)
    i.xTimerGenericCommand                   0x0800707c   Section        0  timers.o(i.xTimerGenericCommand)
    x$fpl$dfixu                              0x0800710c   Section       90  dfixu.o(x$fpl$dfixu)
    $v0                                      0x0800710c   Number         0  dfixu.o(x$fpl$dfixu)
    x$fpl$dfltu                              0x08007166   Section       38  dflt_clz.o(x$fpl$dfltu)
    $v0                                      0x08007166   Number         0  dflt_clz.o(x$fpl$dfltu)
    x$fpl$dmul                               0x0800718c   Section      340  dmul.o(x$fpl$dmul)
    $v0                                      0x0800718c   Number         0  dmul.o(x$fpl$dmul)
    x$fpl$dnaninf                            0x080072e0   Section      156  dnaninf.o(x$fpl$dnaninf)
    $v0                                      0x080072e0   Number         0  dnaninf.o(x$fpl$dnaninf)
    x$fpl$dretinf                            0x0800737c   Section       12  dretinf.o(x$fpl$dretinf)
    $v0                                      0x0800737c   Number         0  dretinf.o(x$fpl$dretinf)
    x$fpl$fpinit                             0x08007388   Section       10  fpinit.o(x$fpl$fpinit)
    $v0                                      0x08007388   Number         0  fpinit.o(x$fpl$fpinit)
    .constdata                               0x08007392   Section     6080  lcd.o(.constdata)
    x$fpl$usenofp                            0x08007392   Section        0  usenofp.o(x$fpl$usenofp)
    .constdata                               0x08008b52   Section       40  _printf_hex_int.o(.constdata)
    uc_hextab                                0x08008b52   Data          20  _printf_hex_int.o(.constdata)
    lc_hextab                                0x08008b66   Data          20  _printf_hex_int.o(.constdata)
    .data                                    0x20000000   Section       68  main.o(.data)
    .data                                    0x20000044   Section       20  system_stm32f4xx.o(.data)
    .data                                    0x20000058   Section        4  lcd.o(.data)
    .data                                    0x2000005c   Section        4  delay.o(.data)
    fac_us                                   0x2000005c   Data           1  delay.o(.data)
    fac_ms                                   0x2000005e   Data           2  delay.o(.data)
    .data                                    0x20000060   Section        2  usart.o(.data)
    .data                                    0x20000064   Section        4  usart.o(.data)
    .data                                    0x20000068   Section       16  stm32f4xx_rcc.o(.data)
    APBAHBPrescTable                         0x20000068   Data          16  stm32f4xx_rcc.o(.data)
    .data                                    0x20000078   Section       60  tasks.o(.data)
    uxDeletedTasksWaitingCleanUp             0x2000007c   Data           4  tasks.o(.data)
    uxCurrentNumberOfTasks                   0x20000080   Data           4  tasks.o(.data)
    xTickCount                               0x20000084   Data           4  tasks.o(.data)
    uxTopReadyPriority                       0x20000088   Data           4  tasks.o(.data)
    xSchedulerRunning                        0x2000008c   Data           4  tasks.o(.data)
    uxPendedTicks                            0x20000090   Data           4  tasks.o(.data)
    xYieldPending                            0x20000094   Data           4  tasks.o(.data)
    xNumOfOverflows                          0x20000098   Data           4  tasks.o(.data)
    uxTaskNumber                             0x2000009c   Data           4  tasks.o(.data)
    xNextTaskUnblockTime                     0x200000a0   Data           4  tasks.o(.data)
    xIdleTaskHandle                          0x200000a4   Data           4  tasks.o(.data)
    uxSchedulerSuspended                     0x200000a8   Data           4  tasks.o(.data)
    pxDelayedTaskList                        0x200000ac   Data           4  tasks.o(.data)
    pxOverflowDelayedTaskList                0x200000b0   Data           4  tasks.o(.data)
    .data                                    0x200000b4   Section       20  timers.o(.data)
    xTimerQueue                              0x200000b4   Data           4  timers.o(.data)
    xTimerTaskHandle                         0x200000b8   Data           4  timers.o(.data)
    xLastTime                                0x200000bc   Data           4  timers.o(.data)
    pxCurrentTimerList                       0x200000c0   Data           4  timers.o(.data)
    pxOverflowTimerList                      0x200000c4   Data           4  timers.o(.data)
    .data                                    0x200000c8   Section       12  port.o(.data)
    ucMaxSysCallPriority                     0x200000c8   Data           1  port.o(.data)
    uxCriticalNesting                        0x200000cc   Data           4  port.o(.data)
    ulMaxPRIGROUPValue                       0x200000d0   Data           4  port.o(.data)
    .data                                    0x200000d4   Section       24  heap_4.o(.data)
    pxEnd                                    0x200000d4   Data           4  heap_4.o(.data)
    xFreeBytesRemaining                      0x200000d8   Data           4  heap_4.o(.data)
    xMinimumEverFreeBytesRemaining           0x200000dc   Data           4  heap_4.o(.data)
    xBlockAllocatedBit                       0x200000e0   Data           4  heap_4.o(.data)
    xStart                                   0x200000e4   Data           8  heap_4.o(.data)
    .bss                                     0x200000ec   Section       14  lcd.o(.bss)
    .bss                                     0x200000fa   Section      200  usart.o(.bss)
    .bss                                     0x200001c4   Section       64  queue.o(.bss)
    .bss                                     0x20000204   Section      740  tasks.o(.bss)
    pxReadyTasksLists                        0x20000204   Data         640  tasks.o(.bss)
    xDelayedTaskList1                        0x20000484   Data          20  tasks.o(.bss)
    xDelayedTaskList2                        0x20000498   Data          20  tasks.o(.bss)
    xPendingReadyList                        0x200004ac   Data          20  tasks.o(.bss)
    xTasksWaitingTermination                 0x200004c0   Data          20  tasks.o(.bss)
    xSuspendedTaskList                       0x200004d4   Data          20  tasks.o(.bss)
    .bss                                     0x200004e8   Section       40  timers.o(.bss)
    xActiveTimerList1                        0x200004e8   Data          20  timers.o(.bss)
    xActiveTimerList2                        0x200004fc   Data          20  timers.o(.bss)
    .bss                                     0x20000510   Section    20480  heap_4.o(.bss)
    ucHeap                                   0x20000510   Data       20480  heap_4.o(.bss)
    .bss                                     0x20005510   Section       96  libspace.o(.bss)
    HEAP                                     0x20005570   Section      512  startup_stm32f40_41xxx.o(HEAP)
    Heap_Mem                                 0x20005570   Data         512  startup_stm32f40_41xxx.o(HEAP)
    STACK                                    0x20005770   Section     1024  startup_stm32f40_41xxx.o(STACK)
    Stack_Mem                                0x20005770   Data        1024  startup_stm32f40_41xxx.o(STACK)
    __initial_sp                             0x20005b70   Data           0  startup_stm32f40_41xxx.o(STACK)

    Global Symbols

    Symbol Name                              Value     Ov Type        Size  Object(Section)

    BuildAttributes$$THM_ISAv4$E$P$D$K$B$S$7EM$VFPi3$EXTD16$VFPS$VFMA$PE$A:L22UL41UL21$X:L11$S22US41US21$IEEE1$IW$USESV6$~STKCKD$USESV7$~SHL$OSPACE$ROPI$EBA8$UX$STANDARDLIB$REQ8$PRES8$EABIv2 0x00000000   Number         0  anon$$obj.o ABSOLUTE
    __ARM_use_no_argv                        0x00000000   Number         0  main.o ABSOLUTE
    __ARM_exceptions_init                     - Undefined Weak Reference
    __alloca_initialize                       - Undefined Weak Reference
    __arm_preinit_                            - Undefined Weak Reference
    __cpp_initialize__aeabi_                  - Undefined Weak Reference
    __cxa_finalize                            - Undefined Weak Reference
    __rt_locale                               - Undefined Weak Reference
    __sigvec_lookup                           - Undefined Weak Reference
    _atexit_init                              - Undefined Weak Reference
    _call_atexit_fns                          - Undefined Weak Reference
    _clock_init                               - Undefined Weak Reference
    _fp_trap_init                             - Undefined Weak Reference
    _fp_trap_shutdown                         - Undefined Weak Reference
    _get_lc_collate                           - Undefined Weak Reference
    _get_lc_ctype                             - Undefined Weak Reference
    _get_lc_monetary                          - Undefined Weak Reference
    _get_lc_numeric                           - Undefined Weak Reference
    _get_lc_time                              - Undefined Weak Reference
    _getenv_init                              - Undefined Weak Reference
    _handle_redirection                       - Undefined Weak Reference
    _init_alloc                               - Undefined Weak Reference
    _init_user_alloc                          - Undefined Weak Reference
    _initio                                   - Undefined Weak Reference
    _mutex_acquire                            - Undefined Weak Reference
    _mutex_release                            - Undefined Weak Reference
    _printf_mbtowc                            - Undefined Weak Reference
    _printf_post_padding                      - Undefined Weak Reference
    _printf_pre_padding                       - Undefined Weak Reference
    _printf_truncate_signed                   - Undefined Weak Reference
    _printf_truncate_unsigned                 - Undefined Weak Reference
    _rand_init                                - Undefined Weak Reference
    _signal_finish                            - Undefined Weak Reference
    _signal_init                              - Undefined Weak Reference
    _terminate_alloc                          - Undefined Weak Reference
    _terminate_user_alloc                     - Undefined Weak Reference
    _terminateio                              - Undefined Weak Reference
    __Vectors_Size                           0x00000188   Number         0  startup_stm32f40_41xxx.o ABSOLUTE
    __Vectors                                0x08000000   Data           4  startup_stm32f40_41xxx.o(RESET)
    __Vectors_End                            0x08000188   Data           0  startup_stm32f40_41xxx.o(RESET)
    __main                                   0x08000189   Thumb Code     8  __main.o(!!!main)
    __scatterload                            0x08000191   Thumb Code     0  __scatter.o(!!!scatter)
    __scatterload_rt2                        0x08000191   Thumb Code    44  __scatter.o(!!!scatter)
    __scatterload_rt2_thumb_only             0x08000191   Thumb Code     0  __scatter.o(!!!scatter)
    __scatterload_null                       0x0800019f   Thumb Code     0  __scatter.o(!!!scatter)
    __scatterload_copy                       0x080001c5   Thumb Code    26  __scatter_copy.o(!!handler_copy)
    __scatterload_zeroinit                   0x080001e1   Thumb Code    28  __scatter_zi.o(!!handler_zi)
    _printf_d                                0x080001fd   Thumb Code     0  _printf_d.o(.ARM.Collect$$_printf_percent$$00000009)
    _printf_percent                          0x080001fd   Thumb Code     0  _printf_percent.o(.ARM.Collect$$_printf_percent$$00000000)
    _printf_x                                0x08000203   Thumb Code     0  _printf_x.o(.ARM.Collect$$_printf_percent$$0000000C)
    _printf_s                                0x08000209   Thumb Code     0  _printf_s.o(.ARM.Collect$$_printf_percent$$00000014)
    _printf_percent_end                      0x0800020f   Thumb Code     0  _printf_percent_end.o(.ARM.Collect$$_printf_percent$$00000017)
    __rt_lib_init                            0x08000213   Thumb Code     0  libinit.o(.ARM.Collect$$libinit$$00000000)
    __rt_lib_init_fp_1                       0x08000215   Thumb Code     0  libinit2.o(.ARM.Collect$$libinit$$00000001)
    __rt_lib_init_alloca_1                   0x08000219   Thumb Code     0  libinit2.o(.ARM.Collect$$libinit$$0000002E)
    __rt_lib_init_argv_1                     0x08000219   Thumb Code     0  libinit2.o(.ARM.Collect$$libinit$$0000002C)
    __rt_lib_init_atexit_1                   0x08000219   Thumb Code     0  libinit2.o(.ARM.Collect$$libinit$$0000001B)
    __rt_lib_init_clock_1                    0x08000219   Thumb Code     0  libinit2.o(.ARM.Collect$$libinit$$00000021)
    __rt_lib_init_cpp_1                      0x08000219   Thumb Code     0  libinit2.o(.ARM.Collect$$libinit$$00000032)
    __rt_lib_init_exceptions_1               0x08000219   Thumb Code     0  libinit2.o(.ARM.Collect$$libinit$$00000030)
    __rt_lib_init_fp_trap_1                  0x08000219   Thumb Code     0  libinit2.o(.ARM.Collect$$libinit$$0000001F)
    __rt_lib_init_getenv_1                   0x08000219   Thumb Code     0  libinit2.o(.ARM.Collect$$libinit$$00000023)
    __rt_lib_init_heap_1                     0x08000219   Thumb Code     0  libinit2.o(.ARM.Collect$$libinit$$0000000A)
    __rt_lib_init_lc_collate_1               0x08000219   Thumb Code     0  libinit2.o(.ARM.Collect$$libinit$$00000011)
    __rt_lib_init_lc_ctype_1                 0x08000219   Thumb Code     0  libinit2.o(.ARM.Collect$$libinit$$00000013)
    __rt_lib_init_lc_monetary_1              0x08000219   Thumb Code     0  libinit2.o(.ARM.Collect$$libinit$$00000015)
    __rt_lib_init_lc_numeric_1               0x08000219   Thumb Code     0  libinit2.o(.ARM.Collect$$libinit$$00000017)
    __rt_lib_init_lc_time_1                  0x08000219   Thumb Code     0  libinit2.o(.ARM.Collect$$libinit$$00000019)
    __rt_lib_init_preinit_1                  0x08000219   Thumb Code     0  libinit2.o(.ARM.Collect$$libinit$$00000004)
    __rt_lib_init_rand_1                     0x08000219   Thumb Code     0  libinit2.o(.ARM.Collect$$libinit$$0000000E)
    __rt_lib_init_return                     0x08000219   Thumb Code     0  libinit2.o(.ARM.Collect$$libinit$$00000033)
    __rt_lib_init_signal_1                   0x08000219   Thumb Code     0  libinit2.o(.ARM.Collect$$libinit$$0000001D)
    __rt_lib_init_stdio_1                    0x08000219   Thumb Code     0  libinit2.o(.ARM.Collect$$libinit$$00000025)
    __rt_lib_init_user_alloc_1               0x08000219   Thumb Code     0  libinit2.o(.ARM.Collect$$libinit$$0000000C)
    __rt_lib_shutdown                        0x0800021b   Thumb Code     0  libshutdown.o(.ARM.Collect$$libshutdown$$00000000)
    __rt_lib_shutdown_cpp_1                  0x0800021d   Thumb Code     0  libshutdown2.o(.ARM.Collect$$libshutdown$$00000002)
    __rt_lib_shutdown_fp_trap_1              0x0800021d   Thumb Code     0  libshutdown2.o(.ARM.Collect$$libshutdown$$00000007)
    __rt_lib_shutdown_heap_1                 0x0800021d   Thumb Code     0  libshutdown2.o(.ARM.Collect$$libshutdown$$0000000F)
    __rt_lib_shutdown_return                 0x0800021d   Thumb Code     0  libshutdown2.o(.ARM.Collect$$libshutdown$$00000010)
    __rt_lib_shutdown_signal_1               0x0800021d   Thumb Code     0  libshutdown2.o(.ARM.Collect$$libshutdown$$0000000A)
    __rt_lib_shutdown_stdio_1                0x0800021d   Thumb Code     0  libshutdown2.o(.ARM.Collect$$libshutdown$$00000004)
    __rt_lib_shutdown_user_alloc_1           0x0800021d   Thumb Code     0  libshutdown2.o(.ARM.Collect$$libshutdown$$0000000C)
    __rt_entry                               0x0800021f   Thumb Code     0  __rtentry.o(.ARM.Collect$$rtentry$$00000000)
    __rt_entry_presh_1                       0x0800021f   Thumb Code     0  __rtentry2.o(.ARM.Collect$$rtentry$$00000002)
    __rt_entry_sh                            0x0800021f   Thumb Code     0  __rtentry4.o(.ARM.Collect$$rtentry$$00000004)
    __rt_entry_li                            0x08000225   Thumb Code     0  __rtentry2.o(.ARM.Collect$$rtentry$$0000000A)
    __rt_entry_postsh_1                      0x08000225   Thumb Code     0  __rtentry2.o(.ARM.Collect$$rtentry$$00000009)
    __rt_entry_main                          0x08000229   Thumb Code     0  __rtentry2.o(.ARM.Collect$$rtentry$$0000000D)
    __rt_entry_postli_1                      0x08000229   Thumb Code     0  __rtentry2.o(.ARM.Collect$$rtentry$$0000000C)
    __rt_exit                                0x08000231   Thumb Code     0  rtexit.o(.ARM.Collect$$rtexit$$00000000)
    __rt_exit_ls                             0x08000233   Thumb Code     0  rtexit2.o(.ARM.Collect$$rtexit$$00000003)
    __rt_exit_prels_1                        0x08000233   Thumb Code     0  rtexit2.o(.ARM.Collect$$rtexit$$00000002)
    __rt_exit_exit                           0x08000237   Thumb Code     0  rtexit2.o(.ARM.Collect$$rtexit$$00000004)
    SVC_Handler                              0x0800023d   Thumb Code    28  port.o(.emb_text)
    __asm___6_port_c_39a90d8d__prvStartFirstTask 0x0800025d   Thumb Code    28  port.o(.emb_text)
    __asm___6_port_c_39a90d8d__prvEnableVFP  0x0800027d   Thumb Code    16  port.o(.emb_text)
    PendSV_Handler                           0x08000291   Thumb Code    88  port.o(.emb_text)
    vPortGetIPSR                             0x080002ed   Thumb Code     6  port.o(.emb_text)
    Reset_Handler                            0x080002f5   Thumb Code     8  startup_stm32f40_41xxx.o(.text)
    ADC_IRQHandler                           0x0800030f   Thumb Code     0  startup_stm32f40_41xxx.o(.text)
    CAN1_RX0_IRQHandler                      0x0800030f   Thumb Code     0  startup_stm32f40_41xxx.o(.text)
    CAN1_RX1_IRQHandler                      0x0800030f   Thumb Code     0  startup_stm32f40_41xxx.o(.text)
    CAN1_SCE_IRQHandler                      0x0800030f   Thumb Code     0  startup_stm32f40_41xxx.o(.text)
    CAN1_TX_IRQHandler                       0x0800030f   Thumb Code     0  startup_stm32f40_41xxx.o(.text)
    CAN2_RX0_IRQHandler                      0x0800030f   Thumb Code     0  startup_stm32f40_41xxx.o(.text)
    CAN2_RX1_IRQHandler                      0x0800030f   Thumb Code     0  startup_stm32f40_41xxx.o(.text)
    CAN2_SCE_IRQHandler                      0x0800030f   Thumb Code     0  startup_stm32f40_41xxx.o(.text)
    CAN2_TX_IRQHandler                       0x0800030f   Thumb Code     0  startup_stm32f40_41xxx.o(.text)
    CRYP_IRQHandler                          0x0800030f   Thumb Code     0  startup_stm32f40_41xxx.o(.text)
    DCMI_IRQHandler                          0x0800030f   Thumb Code     0  startup_stm32f40_41xxx.o(.text)
    DMA1_Stream0_IRQHandler                  0x0800030f   Thumb Code     0  startup_stm32f40_41xxx.o(.text)
    DMA1_Stream1_IRQHandler                  0x0800030f   Thumb Code     0  startup_stm32f40_41xxx.o(.text)
    DMA1_Stream2_IRQHandler                  0x0800030f   Thumb Code     0  startup_stm32f40_41xxx.o(.text)
    DMA1_Stream3_IRQHandler                  0x0800030f   Thumb Code     0  startup_stm32f40_41xxx.o(.text)
    DMA1_Stream4_IRQHandler                  0x0800030f   Thumb Code     0  startup_stm32f40_41xxx.o(.text)
    DMA1_Stream5_IRQHandler                  0x0800030f   Thumb Code     0  startup_stm32f40_41xxx.o(.text)
    DMA1_Stream6_IRQHandler                  0x0800030f   Thumb Code     0  startup_stm32f40_41xxx.o(.text)
    DMA1_Stream7_IRQHandler                  0x0800030f   Thumb Code     0  startup_stm32f40_41xxx.o(.text)
    DMA2_Stream0_IRQHandler                  0x0800030f   Thumb Code     0  startup_stm32f40_41xxx.o(.text)
    DMA2_Stream1_IRQHandler                  0x0800030f   Thumb Code     0  startup_stm32f40_41xxx.o(.text)
    DMA2_Stream2_IRQHandler                  0x0800030f   Thumb Code     0  startup_stm32f40_41xxx.o(.text)
    DMA2_Stream3_IRQHandler                  0x0800030f   Thumb Code     0  startup_stm32f40_41xxx.o(.text)
    DMA2_Stream4_IRQHandler                  0x0800030f   Thumb Code     0  startup_stm32f40_41xxx.o(.text)
    DMA2_Stream5_IRQHandler                  0x0800030f   Thumb Code     0  startup_stm32f40_41xxx.o(.text)
    DMA2_Stream6_IRQHandler                  0x0800030f   Thumb Code     0  startup_stm32f40_41xxx.o(.text)
    DMA2_Stream7_IRQHandler                  0x0800030f   Thumb Code     0  startup_stm32f40_41xxx.o(.text)
    ETH_IRQHandler                           0x0800030f   Thumb Code     0  startup_stm32f40_41xxx.o(.text)
    ETH_WKUP_IRQHandler                      0x0800030f   Thumb Code     0  startup_stm32f40_41xxx.o(.text)
    EXTI0_IRQHandler                         0x0800030f   Thumb Code     0  startup_stm32f40_41xxx.o(.text)
    EXTI15_10_IRQHandler                     0x0800030f   Thumb Code     0  startup_stm32f40_41xxx.o(.text)
    EXTI1_IRQHandler                         0x0800030f   Thumb Code     0  startup_stm32f40_41xxx.o(.text)
    EXTI2_IRQHandler                         0x0800030f   Thumb Code     0  startup_stm32f40_41xxx.o(.text)
    EXTI3_IRQHandler                         0x0800030f   Thumb Code     0  startup_stm32f40_41xxx.o(.text)
    EXTI4_IRQHandler                         0x0800030f   Thumb Code     0  startup_stm32f40_41xxx.o(.text)
    EXTI9_5_IRQHandler                       0x0800030f   Thumb Code     0  startup_stm32f40_41xxx.o(.text)
    FLASH_IRQHandler                         0x0800030f   Thumb Code     0  startup_stm32f40_41xxx.o(.text)
    FPU_IRQHandler                           0x0800030f   Thumb Code     0  startup_stm32f40_41xxx.o(.text)
    FSMC_IRQHandler                          0x0800030f   Thumb Code     0  startup_stm32f40_41xxx.o(.text)
    HASH_RNG_IRQHandler                      0x0800030f   Thumb Code     0  startup_stm32f40_41xxx.o(.text)
    I2C1_ER_IRQHandler                       0x0800030f   Thumb Code     0  startup_stm32f40_41xxx.o(.text)
    I2C1_EV_IRQHandler                       0x0800030f   Thumb Code     0  startup_stm32f40_41xxx.o(.text)
    I2C2_ER_IRQHandler                       0x0800030f   Thumb Code     0  startup_stm32f40_41xxx.o(.text)
    I2C2_EV_IRQHandler                       0x0800030f   Thumb Code     0  startup_stm32f40_41xxx.o(.text)
    I2C3_ER_IRQHandler                       0x0800030f   Thumb Code     0  startup_stm32f40_41xxx.o(.text)
    I2C3_EV_IRQHandler                       0x0800030f   Thumb Code     0  startup_stm32f40_41xxx.o(.text)
    OTG_FS_IRQHandler                        0x0800030f   Thumb Code     0  startup_stm32f40_41xxx.o(.text)
    OTG_FS_WKUP_IRQHandler                   0x0800030f   Thumb Code     0  startup_stm32f40_41xxx.o(.text)
    OTG_HS_EP1_IN_IRQHandler                 0x0800030f   Thumb Code     0  startup_stm32f40_41xxx.o(.text)
    OTG_HS_EP1_OUT_IRQHandler                0x0800030f   Thumb Code     0  startup_stm32f40_41xxx.o(.text)
    OTG_HS_IRQHandler                        0x0800030f   Thumb Code     0  startup_stm32f40_41xxx.o(.text)
    OTG_HS_WKUP_IRQHandler                   0x0800030f   Thumb Code     0  startup_stm32f40_41xxx.o(.text)
    PVD_IRQHandler                           0x0800030f   Thumb Code     0  startup_stm32f40_41xxx.o(.text)
    RCC_IRQHandler                           0x0800030f   Thumb Code     0  startup_stm32f40_41xxx.o(.text)
    RTC_Alarm_IRQHandler                     0x0800030f   Thumb Code     0  startup_stm32f40_41xxx.o(.text)
    RTC_WKUP_IRQHandler                      0x0800030f   Thumb Code     0  startup_stm32f40_41xxx.o(.text)
    SDIO_IRQHandler                          0x0800030f   Thumb Code     0  startup_stm32f40_41xxx.o(.text)
    SPI1_IRQHandler                          0x0800030f   Thumb Code     0  startup_stm32f40_41xxx.o(.text)
    SPI2_IRQHandler                          0x0800030f   Thumb Code     0  startup_stm32f40_41xxx.o(.text)
    SPI3_IRQHandler                          0x0800030f   Thumb Code     0  startup_stm32f40_41xxx.o(.text)
    TAMP_STAMP_IRQHandler                    0x0800030f   Thumb Code     0  startup_stm32f40_41xxx.o(.text)
    TIM1_BRK_TIM9_IRQHandler                 0x0800030f   Thumb Code     0  startup_stm32f40_41xxx.o(.text)
    TIM1_CC_IRQHandler                       0x0800030f   Thumb Code     0  startup_stm32f40_41xxx.o(.text)
    TIM1_TRG_COM_TIM11_IRQHandler            0x0800030f   Thumb Code     0  startup_stm32f40_41xxx.o(.text)
    TIM1_UP_TIM10_IRQHandler                 0x0800030f   Thumb Code     0  startup_stm32f40_41xxx.o(.text)
    TIM2_IRQHandler                          0x0800030f   Thumb Code     0  startup_stm32f40_41xxx.o(.text)
    TIM4_IRQHandler                          0x0800030f   Thumb Code     0  startup_stm32f40_41xxx.o(.text)
    TIM6_DAC_IRQHandler                      0x0800030f   Thumb Code     0  startup_stm32f40_41xxx.o(.text)
    TIM7_IRQHandler                          0x0800030f   Thumb Code     0  startup_stm32f40_41xxx.o(.text)
    TIM8_BRK_TIM12_IRQHandler                0x0800030f   Thumb Code     0  startup_stm32f40_41xxx.o(.text)
    TIM8_CC_IRQHandler                       0x0800030f   Thumb Code     0  startup_stm32f40_41xxx.o(.text)
    TIM8_TRG_COM_TIM14_IRQHandler            0x0800030f   Thumb Code     0  startup_stm32f40_41xxx.o(.text)
    TIM8_UP_TIM13_IRQHandler                 0x0800030f   Thumb Code     0  startup_stm32f40_41xxx.o(.text)
    UART4_IRQHandler                         0x0800030f   Thumb Code     0  startup_stm32f40_41xxx.o(.text)
    UART5_IRQHandler                         0x0800030f   Thumb Code     0  startup_stm32f40_41xxx.o(.text)
    USART2_IRQHandler                        0x0800030f   Thumb Code     0  startup_stm32f40_41xxx.o(.text)
    USART3_IRQHandler                        0x0800030f   Thumb Code     0  startup_stm32f40_41xxx.o(.text)
    USART6_IRQHandler                        0x0800030f   Thumb Code     0  startup_stm32f40_41xxx.o(.text)
    WWDG_IRQHandler                          0x0800030f   Thumb Code     0  startup_stm32f40_41xxx.o(.text)
    __user_initial_stackheap                 0x08000311   Thumb Code     0  startup_stm32f40_41xxx.o(.text)
    __use_no_semihosting                     0x08000335   Thumb Code     2  use_no_semi_2.o(.text)
    __2printf                                0x08000339   Thumb Code    20  noretval__2printf.o(.text)
    __printf                                 0x08000351   Thumb Code   104  __printf.o(.text)
    _printf_str                              0x080003b9   Thumb Code    82  _printf_str.o(.text)
    _printf_int_dec                          0x0800040d   Thumb Code   104  _printf_dec.o(.text)
    _printf_int_hex                          0x08000485   Thumb Code    84  _printf_hex_int.o(.text)
    _printf_longlong_hex                     0x08000485   Thumb Code     0  _printf_hex_int.o(.text)
    __aeabi_memcpy                           0x080004dd   Thumb Code     0  rt_memcpy_v6.o(.text)
    __rt_memcpy                              0x080004dd   Thumb Code   138  rt_memcpy_v6.o(.text)
    _memcpy_lastbytes                        0x08000543   Thumb Code     0  rt_memcpy_v6.o(.text)
    __aeabi_memset                           0x08000567   Thumb Code    16  aeabi_memset.o(.text)
    __use_two_region_memory                  0x08000577   Thumb Code     2  heapauxi.o(.text)
    __rt_heap_escrow$2region                 0x08000579   Thumb Code     2  heapauxi.o(.text)
    __rt_heap_expand$2region                 0x0800057b   Thumb Code     2  heapauxi.o(.text)
    __I$use$semihosting                      0x0800057d   Thumb Code     0  use_no_semi.o(.text)
    __use_no_semihosting_swi                 0x0800057d   Thumb Code     2  use_no_semi.o(.text)
    _printf_int_common                       0x0800057f   Thumb Code   178  _printf_intcommon.o(.text)
    _printf_char_common                      0x0800063b   Thumb Code    32  _printf_char_common.o(.text)
    _printf_cs_common                        0x08000661   Thumb Code    20  _printf_char.o(.text)
    _printf_char                             0x08000675   Thumb Code    16  _printf_char.o(.text)
    _printf_string                           0x08000685   Thumb Code     8  _printf_char.o(.text)
    _printf_char_file                        0x0800068d   Thumb Code    32  _printf_char_file.o(.text)
    __aeabi_memcpy4                          0x080006b1   Thumb Code     0  rt_memcpy_w.o(.text)
    __aeabi_memcpy8                          0x080006b1   Thumb Code     0  rt_memcpy_w.o(.text)
    __rt_memcpy_w                            0x080006b1   Thumb Code   100  rt_memcpy_w.o(.text)
    _memcpy_lastbytes_aligned                0x080006f9   Thumb Code     0  rt_memcpy_w.o(.text)
    __aeabi_memclr                           0x08000715   Thumb Code     0  rt_memclr.o(.text)
    __rt_memclr                              0x08000715   Thumb Code    68  rt_memclr.o(.text)
    _memset                                  0x08000719   Thumb Code     0  rt_memclr.o(.text)
    ferror                                   0x08000759   Thumb Code     8  ferror.o(.text)
    __aeabi_memclr4                          0x08000761   Thumb Code     0  rt_memclr_w.o(.text)
    __aeabi_memclr8                          0x08000761   Thumb Code     0  rt_memclr_w.o(.text)
    __rt_memclr_w                            0x08000761   Thumb Code    78  rt_memclr_w.o(.text)
    _memset_w                                0x08000765   Thumb Code     0  rt_memclr_w.o(.text)
    __user_setup_stackheap                   0x080007af   Thumb Code    74  sys_stackheap_outer.o(.text)
    exit                                     0x080007f9   Thumb Code    18  exit.o(.text)
    __user_libspace                          0x0800080d   Thumb Code     8  libspace.o(.text)
    __user_perproc_libspace                  0x0800080d   Thumb Code     0  libspace.o(.text)
    __user_perthread_libspace                0x0800080d   Thumb Code     0  libspace.o(.text)
    BusFault_Handler                         0x08000815   Thumb Code     2  stm32f4xx_it.o(i.BusFault_Handler)
    DebugMon_Handler                         0x08000817   Thumb Code     2  stm32f4xx_it.o(i.DebugMon_Handler)
    FSMC_NORSRAMCmd                          0x08000819   Thumb Code    26  stm32f4xx_fsmc.o(i.FSMC_NORSRAMCmd)
    FSMC_NORSRAMInit                         0x08000839   Thumb Code   200  stm32f4xx_fsmc.o(i.FSMC_NORSRAMInit)
    GPIO_Init                                0x08000901   Thumb Code   120  stm32f4xx_gpio.o(i.GPIO_Init)
    GPIO_PinAFConfig                         0x08000979   Thumb Code    32  stm32f4xx_gpio.o(i.GPIO_PinAFConfig)
    GPIO_SetBits                             0x08000999   Thumb Code     4  stm32f4xx_gpio.o(i.GPIO_SetBits)
    HardFault_Handler                        0x0800099d   Thumb Code     2  stm32f4xx_it.o(i.HardFault_Handler)
    LCD_Clear                                0x080009a1   Thumb Code   104  lcd.o(i.LCD_Clear)
    LCD_Display_Dir                          0x08000a0d   Thumb Code   304  lcd.o(i.LCD_Display_Dir)
    LCD_DrawLine                             0x08000b41   Thumb Code   150  lcd.o(i.LCD_DrawLine)
    LCD_DrawPoint                            0x08000bd9   Thumb Code    24  lcd.o(i.LCD_DrawPoint)
    LCD_DrawRectangle                        0x08000bf5   Thumb Code    56  lcd.o(i.LCD_DrawRectangle)
    LCD_Fast_DrawPoint                       0x08000c2d   Thumb Code   268  lcd.o(i.LCD_Fast_DrawPoint)
    LCD_Fill                                 0x08000d3d   Thumb Code   134  lcd.o(i.LCD_Fill)
    LCD_Init                                 0x08000dc9   Thumb Code 14116  lcd.o(i.LCD_Init)
    LCD_Pow                                  0x080044ed   Thumb Code    16  lcd.o(i.LCD_Pow)
    LCD_RD_DATA                              0x080044fd   Thumb Code    20  lcd.o(i.LCD_RD_DATA)
    LCD_ReadReg                              0x08004511   Thumb Code    20  lcd.o(i.LCD_ReadReg)
    LCD_SSD_BackLightSet                     0x08004525   Thumb Code    72  lcd.o(i.LCD_SSD_BackLightSet)
    LCD_Scan_Dir                             0x08004575   Thumb Code   510  lcd.o(i.LCD_Scan_Dir)
    LCD_SetCursor                            0x08004779   Thumb Code   332  lcd.o(i.LCD_SetCursor)
    LCD_ShowChar                             0x080048c9   Thumb Code   184  lcd.o(i.LCD_ShowChar)
    LCD_ShowString                           0x08004995   Thumb Code    84  lcd.o(i.LCD_ShowString)
    LCD_ShowxNum                             0x080049e9   Thumb Code   134  lcd.o(i.LCD_ShowxNum)
    LCD_WR_DATA                              0x08004a6f   Thumb Code    24  lcd.o(i.LCD_WR_DATA)
    LCD_WR_REG                               0x08004a87   Thumb Code    24  lcd.o(i.LCD_WR_REG)
    LCD_WriteRAM_Prepare                     0x08004aa1   Thumb Code    14  lcd.o(i.LCD_WriteRAM_Prepare)
    LCD_WriteReg                             0x08004ab5   Thumb Code    12  lcd.o(i.LCD_WriteReg)
    LED_Init                                 0x08004ac1   Thumb Code    58  led.o(i.LED_Init)
    MemManage_Handler                        0x08004b01   Thumb Code     2  stm32f4xx_it.o(i.MemManage_Handler)
    NMI_Handler                              0x08004b03   Thumb Code     2  stm32f4xx_it.o(i.NMI_Handler)
    NVIC_Init                                0x08004b05   Thumb Code    96  misc.o(i.NVIC_Init)
    NVIC_PriorityGroupConfig                 0x08004b69   Thumb Code    10  misc.o(i.NVIC_PriorityGroupConfig)
    RCC_AHB1PeriphClockCmd                   0x08004b7d   Thumb Code    18  stm32f4xx_rcc.o(i.RCC_AHB1PeriphClockCmd)
    RCC_AHB3PeriphClockCmd                   0x08004b95   Thumb Code    18  stm32f4xx_rcc.o(i.RCC_AHB3PeriphClockCmd)
    RCC_APB2PeriphClockCmd                   0x08004bad   Thumb Code    18  stm32f4xx_rcc.o(i.RCC_APB2PeriphClockCmd)
    RCC_GetClocksFreq                        0x08004bc5   Thumb Code   132  stm32f4xx_rcc.o(i.RCC_GetClocksFreq)
    SysTick_CLKSourceConfig                  0x08004d09   Thumb Code    24  misc.o(i.SysTick_CLKSourceConfig)
    SysTick_Handler                          0x08004d21   Thumb Code    20  delay.o(i.SysTick_Handler)
    SystemInit                               0x08004d35   Thumb Code    74  system_stm32f4xx.o(i.SystemInit)
    TIM3_IRQHandler                          0x08004d91   Thumb Code    34  timer.o(i.TIM3_IRQHandler)
    TIM5_IRQHandler                          0x08004dcd   Thumb Code    34  timer.o(i.TIM5_IRQHandler)
    TIM_ClearITPendingBit                    0x08004e09   Thumb Code     6  stm32f4xx_tim.o(i.TIM_ClearITPendingBit)
    TIM_GetITStatus                          0x08004e0f   Thumb Code    24  stm32f4xx_tim.o(i.TIM_GetITStatus)
    USART1_IRQHandler                        0x08004e29   Thumb Code    88  usart.o(i.USART1_IRQHandler)
    USART_Cmd                                0x08004e8d   Thumb Code    20  stm32f4xx_usart.o(i.USART_Cmd)
    USART_GetITStatus                        0x08004ea1   Thumb Code    62  stm32f4xx_usart.o(i.USART_GetITStatus)
    USART_ITConfig                           0x08004edf   Thumb Code    48  stm32f4xx_usart.o(i.USART_ITConfig)
    USART_Init                               0x08004f11   Thumb Code   164  stm32f4xx_usart.o(i.USART_Init)
    USART_ReceiveData                        0x08004fbd   Thumb Code     8  stm32f4xx_usart.o(i.USART_ReceiveData)
    UsageFault_Handler                       0x08004fc5   Thumb Code     2  stm32f4xx_it.o(i.UsageFault_Handler)
    _sys_exit                                0x08004fc7   Thumb Code     2  usart.o(i._sys_exit)
    delay_init                               0x08004fc9   Thumb Code    50  delay.o(i.delay_init)
    delay_ms                                 0x08005001   Thumb Code    52  delay.o(i.delay_ms)
    delay_us                                 0x08005039   Thumb Code    48  delay.o(i.delay_us)
    fputc                                    0x0800506d   Thumb Code    14  usart.o(i.fputc)
    main                                     0x08005081   Thumb Code   160  main.o(i.main)
    pvPortMalloc                             0x080059f5   Thumb Code   214  heap_4.o(i.pvPortMalloc)
    pvTaskIncrementMutexHeldCount            0x08005b09   Thumb Code    18  tasks.o(i.pvTaskIncrementMutexHeldCount)
    pxPortInitialiseStack                    0x08005b21   Thumb Code    40  port.o(i.pxPortInitialiseStack)
    start_task                               0x08005b4d   Thumb Code    66  main.o(i.start_task)
    task1_task                               0x08005bb5   Thumb Code   180  main.o(i.task1_task)
    task2_task                               0x08005cb1   Thumb Code   162  main.o(i.task2_task)
    uart_init                                0x08005d89   Thumb Code   164  usart.o(i.uart_init)
    uxListRemove                             0x08005e35   Thumb Code    36  list.o(i.uxListRemove)
    vListInitialise                          0x08005e59   Thumb Code    22  list.o(i.vListInitialise)
    vListInitialiseItem                      0x08005e6f   Thumb Code     6  list.o(i.vListInitialiseItem)
    vListInsert                              0x08005e75   Thumb Code    48  list.o(i.vListInsert)
    vListInsertEnd                           0x08005ea5   Thumb Code    24  list.o(i.vListInsertEnd)
    vPortEnterCritical                       0x08005ebd   Thumb Code    50  port.o(i.vPortEnterCritical)
    vPortExitCritical                        0x08005f35   Thumb Code    34  port.o(i.vPortExitCritical)
    vPortFree                                0x08005f99   Thumb Code    94  heap_4.o(i.vPortFree)
    vPortSetupTimerInterrupt                 0x08006035   Thumb Code    26  port.o(i.vPortSetupTimerInterrupt)
    vPortValidateInterruptPriority           0x08006055   Thumb Code    70  port.o(i.vPortValidateInterruptPriority)
    vQueueAddToRegistry                      0x080060e1   Thumb Code    32  queue.o(i.vQueueAddToRegistry)
    vQueueWaitForMessageRestricted           0x08006105   Thumb Code    68  queue.o(i.vQueueWaitForMessageRestricted)
    vTaskDelay                               0x08006149   Thumb Code    62  tasks.o(i.vTaskDelay)
    vTaskDelete                              0x080061b5   Thumb Code   152  tasks.o(i.vTaskDelete)
    vTaskMissedYield                         0x08006281   Thumb Code     8  tasks.o(i.vTaskMissedYield)
    vTaskPlaceOnEventList                    0x0800628d   Thumb Code    44  tasks.o(i.vTaskPlaceOnEventList)
    vTaskPlaceOnEventListRestricted          0x080062e1   Thumb Code    52  tasks.o(i.vTaskPlaceOnEventListRestricted)
    vTaskPriorityInherit                     0x0800633d   Thumb Code   124  tasks.o(i.vTaskPriorityInherit)
    vTaskSetTimeOutState                     0x080063c1   Thumb Code    30  tasks.o(i.vTaskSetTimeOutState)
    vTaskStartScheduler                      0x08006409   Thumb Code    96  tasks.o(i.vTaskStartScheduler)
    vTaskSuspendAll                          0x0800649d   Thumb Code    10  tasks.o(i.vTaskSuspendAll)
    vTaskSwitchContext                       0x080064ad   Thumb Code    80  tasks.o(i.vTaskSwitchContext)
    xPortStartScheduler                      0x08006529   Thumb Code   196  port.o(i.xPortStartScheduler)
    xPortSysTickHandler                      0x0800663d   Thumb Code    38  port.o(i.xPortSysTickHandler)
    xQueueGenericCreate                      0x08006669   Thumb Code    82  queue.o(i.xQueueGenericCreate)
    xQueueGenericReceive                     0x080066e1   Thumb Code   348  queue.o(i.xQueueGenericReceive)
    xQueueGenericReset                       0x08006865   Thumb Code   128  queue.o(i.xQueueGenericReset)
    xQueueGenericSend                        0x0800690d   Thumb Code   350  queue.o(i.xQueueGenericSend)
    xQueueGenericSendFromISR                 0x08006a95   Thumb Code   188  queue.o(i.xQueueGenericSendFromISR)
    xTaskCheckForTimeOut                     0x08006b75   Thumb Code    94  tasks.o(i.xTaskCheckForTimeOut)
    xTaskCreate                              0x08006bfd   Thumb Code    86  tasks.o(i.xTaskCreate)
    xTaskGetSchedulerState                   0x08006c55   Thumb Code    22  tasks.o(i.xTaskGetSchedulerState)
    xTaskGetTickCount                        0x08006c71   Thumb Code     6  tasks.o(i.xTaskGetTickCount)
    xTaskIncrementTick                       0x08006c7d   Thumb Code   188  tasks.o(i.xTaskIncrementTick)
    xTaskPriorityDisinherit                  0x08006d65   Thumb Code   136  tasks.o(i.xTaskPriorityDisinherit)
    xTaskRemoveFromEventList                 0x08006e19   Thumb Code   102  tasks.o(i.xTaskRemoveFromEventList)
    xTaskResumeAll                           0x08006eb1   Thumb Code   180  tasks.o(i.xTaskResumeAll)
    xTimerCreate                             0x08006f95   Thumb Code    74  timers.o(i.xTimerCreate)
    xTimerCreateTimerTask                    0x08007009   Thumb Code    58  timers.o(i.xTimerCreateTimerTask)
    xTimerGenericCommand                     0x0800707d   Thumb Code    98  timers.o(i.xTimerGenericCommand)
    __aeabi_d2uiz                            0x0800710d   Thumb Code     0  dfixu.o(x$fpl$dfixu)
    _dfixu                                   0x0800710d   Thumb Code    90  dfixu.o(x$fpl$dfixu)
    __aeabi_ui2d                             0x08007167   Thumb Code     0  dflt_clz.o(x$fpl$dfltu)
    _dfltu                                   0x08007167   Thumb Code    38  dflt_clz.o(x$fpl$dfltu)
    __aeabi_dmul                             0x0800718d   Thumb Code     0  dmul.o(x$fpl$dmul)
    _dmul                                    0x0800718d   Thumb Code   332  dmul.o(x$fpl$dmul)
    __fpl_dnaninf                            0x080072e1   Thumb Code   156  dnaninf.o(x$fpl$dnaninf)
    __fpl_dretinf                            0x0800737d   Thumb Code    12  dretinf.o(x$fpl$dretinf)
    _fp_init                                 0x08007389   Thumb Code    10  fpinit.o(x$fpl$fpinit)
    __fplib_config_fpu_vfp                   0x08007391   Thumb Code     0  fpinit.o(x$fpl$fpinit)
    __fplib_config_pureend_doubles           0x08007391   Thumb Code     0  fpinit.o(x$fpl$fpinit)
    __I$use$fp                               0x08007392   Number         0  usenofp.o(x$fpl$usenofp)
    asc2_1206                                0x08007392   Data        1140  lcd.o(.constdata)
    asc2_1608                                0x08007806   Data        1520  lcd.o(.constdata)
    asc2_2412                                0x08007df6   Data        3420  lcd.o(.constdata)
    Region$$Table$$Base                      0x08008b7c   Number         0  anon$$obj.o(Region$$Table)
    Region$$Table$$Limit                     0x08008b9c   Number         0  anon$$obj.o(Region$$Table)
    StartTask_Handler                        0x20000000   Data           4  main.o(.data)
    Task1Task_Handler                        0x20000004   Data           4  main.o(.data)
    Task2Task_Handler                        0x20000008   Data           4  main.o(.data)
    lcd_discolor                             0x2000000c   Data          56  main.o(.data)
    SystemCoreClock                          0x20000044   Data           4  system_stm32f4xx.o(.data)
    AHBPrescTable                            0x20000048   Data          16  system_stm32f4xx.o(.data)
    POINT_COLOR                              0x20000058   Data           2  lcd.o(.data)
    BACK_COLOR                               0x2000005a   Data           2  lcd.o(.data)
    USART_RX_STA                             0x20000060   Data           2  usart.o(.data)
    __stdout                                 0x20000064   Data           4  usart.o(.data)
    pxCurrentTCB                             0x20000078   Data           4  tasks.o(.data)
    lcddev                                   0x200000ec   Data          14  lcd.o(.bss)
    USART_RX_BUF                             0x200000fa   Data         200  usart.o(.bss)
    xQueueRegistry                           0x200001c4   Data          64  queue.o(.bss)
    __libspace_start                         0x20005510   Data          96  libspace.o(.bss)
    __temporary_stack_top$libspace           0x20005570   Data           0  libspace.o(.bss)



==============================================================================

Memory Map of the image

  Image Entry point : 0x08000189

  Load Region LR_IROM1 (Base: 0x08000000, Size: 0x00008c88, Max: 0x00100000, ABSOLUTE)

    Execution Region ER_IROM1 (Exec base: 0x08000000, Load base: 0x08000000, Size: 0x00008b9c, Max: 0x00100000, ABSOLUTE)

    Exec Addr    Load Addr    Size         Type   Attr      Idx    E Section Name        Object

    0x08000000   0x08000000   0x00000188   Data   RO          721    RESET               startup_stm32f40_41xxx.o
    0x08000188   0x08000188   0x00000008   Code   RO         3228  * !!!main             c_w.l(__main.o)
    0x08000190   0x08000190   0x00000034   Code   RO         3423    !!!scatter          c_w.l(__scatter.o)
    0x080001c4   0x080001c4   0x0000001a   Code   RO         3425    !!handler_copy      c_w.l(__scatter_copy.o)
    0x080001de   0x080001de   0x00000002   PAD
    0x080001e0   0x080001e0   0x0000001c   Code   RO         3427    !!handler_zi        c_w.l(__scatter_zi.o)
    0x080001fc   0x080001fc   0x00000000   Code   RO         3217    .ARM.Collect$$_printf_percent$$00000000  c_w.l(_printf_percent.o)
    0x080001fc   0x080001fc   0x00000006   Code   RO         3215    .ARM.Collect$$_printf_percent$$00000009  c_w.l(_printf_d.o)
    0x08000202   0x08000202   0x00000006   Code   RO         3214    .ARM.Collect$$_printf_percent$$0000000C  c_w.l(_printf_x.o)
    0x08000208   0x08000208   0x00000006   Code   RO         3213    .ARM.Collect$$_printf_percent$$00000014  c_w.l(_printf_s.o)
    0x0800020e   0x0800020e   0x00000004   Code   RO         3255    .ARM.Collect$$_printf_percent$$00000017  c_w.l(_printf_percent_end.o)
    0x08000212   0x08000212   0x00000002   Code   RO         3297    .ARM.Collect$$libinit$$00000000  c_w.l(libinit.o)
    0x08000214   0x08000214   0x00000004   Code   RO         3303    .ARM.Collect$$libinit$$00000001  c_w.l(libinit2.o)
    0x08000218   0x08000218   0x00000000   Code   RO         3306    .ARM.Collect$$libinit$$00000004  c_w.l(libinit2.o)
    0x08000218   0x08000218   0x00000000   Code   RO         3309    .ARM.Collect$$libinit$$0000000A  c_w.l(libinit2.o)
    0x08000218   0x08000218   0x00000000   Code   RO         3311    .ARM.Collect$$libinit$$0000000C  c_w.l(libinit2.o)
    0x08000218   0x08000218   0x00000000   Code   RO         3313    .ARM.Collect$$libinit$$0000000E  c_w.l(libinit2.o)
    0x08000218   0x08000218   0x00000000   Code   RO         3316    .ARM.Collect$$libinit$$00000011  c_w.l(libinit2.o)
    0x08000218   0x08000218   0x00000000   Code   RO         3318    .ARM.Collect$$libinit$$00000013  c_w.l(libinit2.o)
    0x08000218   0x08000218   0x00000000   Code   RO         3320    .ARM.Collect$$libinit$$00000015  c_w.l(libinit2.o)
    0x08000218   0x08000218   0x00000000   Code   RO         3322    .ARM.Collect$$libinit$$00000017  c_w.l(libinit2.o)
    0x08000218   0x08000218   0x00000000   Code   RO         3324    .ARM.Collect$$libinit$$00000019  c_w.l(libinit2.o)
    0x08000218   0x08000218   0x00000000   Code   RO         3326    .ARM.Collect$$libinit$$0000001B  c_w.l(libinit2.o)
    0x08000218   0x08000218   0x00000000   Code   RO         3328    .ARM.Collect$$libinit$$0000001D  c_w.l(libinit2.o)
    0x08000218   0x08000218   0x00000000   Code   RO         3330    .ARM.Collect$$libinit$$0000001F  c_w.l(libinit2.o)
    0x08000218   0x08000218   0x00000000   Code   RO         3332    .ARM.Collect$$libinit$$00000021  c_w.l(libinit2.o)
    0x08000218   0x08000218   0x00000000   Code   RO         3334    .ARM.Collect$$libinit$$00000023  c_w.l(libinit2.o)
    0x08000218   0x08000218   0x00000000   Code   RO         3336    .ARM.Collect$$libinit$$00000025  c_w.l(libinit2.o)
    0x08000218   0x08000218   0x00000000   Code   RO         3340    .ARM.Collect$$libinit$$0000002C  c_w.l(libinit2.o)
    0x08000218   0x08000218   0x00000000   Code   RO         3342    .ARM.Collect$$libinit$$0000002E  c_w.l(libinit2.o)
    0x08000218   0x08000218   0x00000000   Code   RO         3344    .ARM.Collect$$libinit$$00000030  c_w.l(libinit2.o)
    0x08000218   0x08000218   0x00000000   Code   RO         3346    .ARM.Collect$$libinit$$00000032  c_w.l(libinit2.o)
    0x08000218   0x08000218   0x00000002   Code   RO         3347    .ARM.Collect$$libinit$$00000033  c_w.l(libinit2.o)
    0x0800021a   0x0800021a   0x00000002   Code   RO         3365    .ARM.Collect$$libshutdown$$00000000  c_w.l(libshutdown.o)
    0x0800021c   0x0800021c   0x00000000   Code   RO         3375    .ARM.Collect$$libshutdown$$00000002  c_w.l(libshutdown2.o)
    0x0800021c   0x0800021c   0x00000000   Code   RO         3377    .ARM.Collect$$libshutdown$$00000004  c_w.l(libshutdown2.o)
    0x0800021c   0x0800021c   0x00000000   Code   RO         3380    .ARM.Collect$$libshutdown$$00000007  c_w.l(libshutdown2.o)
    0x0800021c   0x0800021c   0x00000000   Code   RO         3383    .ARM.Collect$$libshutdown$$0000000A  c_w.l(libshutdown2.o)
    0x0800021c   0x0800021c   0x00000000   Code   RO         3385    .ARM.Collect$$libshutdown$$0000000C  c_w.l(libshutdown2.o)
    0x0800021c   0x0800021c   0x00000000   Code   RO         3388    .ARM.Collect$$libshutdown$$0000000F  c_w.l(libshutdown2.o)
    0x0800021c   0x0800021c   0x00000002   Code   RO         3389    .ARM.Collect$$libshutdown$$00000010  c_w.l(libshutdown2.o)
    0x0800021e   0x0800021e   0x00000000   Code   RO         3244    .ARM.Collect$$rtentry$$00000000  c_w.l(__rtentry.o)
    0x0800021e   0x0800021e   0x00000000   Code   RO         3266    .ARM.Collect$$rtentry$$00000002  c_w.l(__rtentry2.o)
    0x0800021e   0x0800021e   0x00000006   Code   RO         3278    .ARM.Collect$$rtentry$$00000004  c_w.l(__rtentry4.o)
    0x08000224   0x08000224   0x00000000   Code   RO         3268    .ARM.Collect$$rtentry$$00000009  c_w.l(__rtentry2.o)
    0x08000224   0x08000224   0x00000004   Code   RO         3269    .ARM.Collect$$rtentry$$0000000A  c_w.l(__rtentry2.o)
    0x08000228   0x08000228   0x00000000   Code   RO         3271    .ARM.Collect$$rtentry$$0000000C  c_w.l(__rtentry2.o)
    0x08000228   0x08000228   0x00000008   Code   RO         3272    .ARM.Collect$$rtentry$$0000000D  c_w.l(__rtentry2.o)
    0x08000230   0x08000230   0x00000002   Code   RO         3301    .ARM.Collect$$rtexit$$00000000  c_w.l(rtexit.o)
    0x08000232   0x08000232   0x00000000   Code   RO         3349    .ARM.Collect$$rtexit$$00000002  c_w.l(rtexit2.o)
    0x08000232   0x08000232   0x00000004   Code   RO         3350    .ARM.Collect$$rtexit$$00000003  c_w.l(rtexit2.o)
    0x08000236   0x08000236   0x00000006   Code   RO         3351    .ARM.Collect$$rtexit$$00000004  c_w.l(rtexit2.o)
    0x0800023c   0x0800023c   0x000000b6   Code   RO         3013    .emb_text           port.o
    0x080002f2   0x080002f2   0x00000002   PAD
    0x080002f4   0x080002f4   0x00000040   Code   RO          722    .text               startup_stm32f40_41xxx.o
    0x08000334   0x08000334   0x00000002   Code   RO         3155    .text               c_w.l(use_no_semi_2.o)
    0x08000336   0x08000336   0x00000002   PAD
    0x08000338   0x08000338   0x00000018   Code   RO         3161    .text               c_w.l(noretval__2printf.o)
    0x08000350   0x08000350   0x00000068   Code   RO         3165    .text               c_w.l(__printf.o)
    0x080003b8   0x080003b8   0x00000052   Code   RO         3167    .text               c_w.l(_printf_str.o)
    0x0800040a   0x0800040a   0x00000002   PAD
    0x0800040c   0x0800040c   0x00000078   Code   RO         3169    .text               c_w.l(_printf_dec.o)
    0x08000484   0x08000484   0x00000058   Code   RO         3174    .text               c_w.l(_printf_hex_int.o)
    0x080004dc   0x080004dc   0x0000008a   Code   RO         3222    .text               c_w.l(rt_memcpy_v6.o)
    0x08000566   0x08000566   0x00000010   Code   RO         3224    .text               c_w.l(aeabi_memset.o)
    0x08000576   0x08000576   0x00000006   Code   RO         3226    .text               c_w.l(heapauxi.o)
    0x0800057c   0x0800057c   0x00000002   Code   RO         3242    .text               c_w.l(use_no_semi.o)
    0x0800057e   0x0800057e   0x000000b2   Code   RO         3245    .text               c_w.l(_printf_intcommon.o)
    0x08000630   0x08000630   0x00000030   Code   RO         3247    .text               c_w.l(_printf_char_common.o)
    0x08000660   0x08000660   0x0000002c   Code   RO         3251    .text               c_w.l(_printf_char.o)
    0x0800068c   0x0800068c   0x00000024   Code   RO         3253    .text               c_w.l(_printf_char_file.o)
    0x080006b0   0x080006b0   0x00000064   Code   RO         3256    .text               c_w.l(rt_memcpy_w.o)
    0x08000714   0x08000714   0x00000044   Code   RO         3258    .text               c_w.l(rt_memclr.o)
    0x08000758   0x08000758   0x00000008   Code   RO         3282    .text               c_w.l(ferror.o)
    0x08000760   0x08000760   0x0000004e   Code   RO         3286    .text               c_w.l(rt_memclr_w.o)
    0x080007ae   0x080007ae   0x0000004a   Code   RO         3288    .text               c_w.l(sys_stackheap_outer.o)
    0x080007f8   0x080007f8   0x00000012   Code   RO         3290    .text               c_w.l(exit.o)
    0x0800080a   0x0800080a   0x00000002   PAD
    0x0800080c   0x0800080c   0x00000008   Code   RO         3298    .text               c_w.l(libspace.o)
    0x08000814   0x08000814   0x00000002   Code   RO          208    i.BusFault_Handler  stm32f4xx_it.o
    0x08000816   0x08000816   0x00000002   Code   RO          209    i.DebugMon_Handler  stm32f4xx_it.o
    0x08000818   0x08000818   0x00000020   Code   RO         2006    i.FSMC_NORSRAMCmd   stm32f4xx_fsmc.o
    0x08000838   0x08000838   0x000000c8   Code   RO         2008    i.FSMC_NORSRAMInit  stm32f4xx_fsmc.o
    0x08000900   0x08000900   0x00000078   Code   RO          773    i.GPIO_Init         stm32f4xx_gpio.o
    0x08000978   0x08000978   0x00000020   Code   RO          774    i.GPIO_PinAFConfig  stm32f4xx_gpio.o
    0x08000998   0x08000998   0x00000004   Code   RO          781    i.GPIO_SetBits      stm32f4xx_gpio.o
    0x0800099c   0x0800099c   0x00000002   Code   RO          210    i.HardFault_Handler  stm32f4xx_it.o
    0x0800099e   0x0800099e   0x00000002   PAD
    0x080009a0   0x080009a0   0x0000006c   Code   RO          383    i.LCD_Clear         lcd.o
    0x08000a0c   0x08000a0c   0x00000134   Code   RO          387    i.LCD_Display_Dir   lcd.o
    0x08000b40   0x08000b40   0x00000096   Code   RO          388    i.LCD_DrawLine      lcd.o
    0x08000bd6   0x08000bd6   0x00000002   PAD
    0x08000bd8   0x08000bd8   0x0000001c   Code   RO          389    i.LCD_DrawPoint     lcd.o
    0x08000bf4   0x08000bf4   0x00000038   Code   RO          390    i.LCD_DrawRectangle  lcd.o
    0x08000c2c   0x08000c2c   0x00000110   Code   RO          392    i.LCD_Fast_DrawPoint  lcd.o
    0x08000d3c   0x08000d3c   0x0000008c   Code   RO          393    i.LCD_Fill          lcd.o
    0x08000dc8   0x08000dc8   0x00003724   Code   RO          394    i.LCD_Init          lcd.o
    0x080044ec   0x080044ec   0x00000010   Code   RO          395    i.LCD_Pow           lcd.o
    0x080044fc   0x080044fc   0x00000014   Code   RO          396    i.LCD_RD_DATA       lcd.o
    0x08004510   0x08004510   0x00000014   Code   RO          398    i.LCD_ReadReg       lcd.o
    0x08004524   0x08004524   0x00000050   Code   RO          399    i.LCD_SSD_BackLightSet  lcd.o
    0x08004574   0x08004574   0x00000204   Code   RO          400    i.LCD_Scan_Dir      lcd.o
    0x08004778   0x08004778   0x00000150   Code   RO          401    i.LCD_SetCursor     lcd.o
    0x080048c8   0x080048c8   0x000000cc   Code   RO          403    i.LCD_ShowChar      lcd.o
    0x08004994   0x08004994   0x00000054   Code   RO          405    i.LCD_ShowString    lcd.o
    0x080049e8   0x080049e8   0x00000086   Code   RO          406    i.LCD_ShowxNum      lcd.o
    0x08004a6e   0x08004a6e   0x00000018   Code   RO          407    i.LCD_WR_DATA       lcd.o
    0x08004a86   0x08004a86   0x00000018   Code   RO          408    i.LCD_WR_REG        lcd.o
    0x08004a9e   0x08004a9e   0x00000002   PAD
    0x08004aa0   0x08004aa0   0x00000014   Code   RO          410    i.LCD_WriteRAM_Prepare  lcd.o
    0x08004ab4   0x08004ab4   0x0000000c   Code   RO          411    i.LCD_WriteReg      lcd.o
    0x08004ac0   0x08004ac0   0x00000040   Code   RO          324    i.LED_Init          led.o
    0x08004b00   0x08004b00   0x00000002   Code   RO          211    i.MemManage_Handler  stm32f4xx_it.o
    0x08004b02   0x08004b02   0x00000002   Code   RO          212    i.NMI_Handler       stm32f4xx_it.o
    0x08004b04   0x08004b04   0x00000064   Code   RO          728    i.NVIC_Init         misc.o
    0x08004b68   0x08004b68   0x00000014   Code   RO          729    i.NVIC_PriorityGroupConfig  misc.o
    0x08004b7c   0x08004b7c   0x00000018   Code   RO          870    i.RCC_AHB1PeriphClockCmd  stm32f4xx_rcc.o
    0x08004b94   0x08004b94   0x00000018   Code   RO          876    i.RCC_AHB3PeriphClockCmd  stm32f4xx_rcc.o
    0x08004bac   0x08004bac   0x00000018   Code   RO          882    i.RCC_APB2PeriphClockCmd  stm32f4xx_rcc.o
    0x08004bc4   0x08004bc4   0x00000090   Code   RO          891    i.RCC_GetClocksFreq  stm32f4xx_rcc.o
    0x08004c54   0x08004c54   0x000000b4   Code   RO          287    i.SetSysClock       system_stm32f4xx.o
    0x08004d08   0x08004d08   0x00000018   Code   RO          732    i.SysTick_CLKSourceConfig  misc.o
    0x08004d20   0x08004d20   0x00000014   Code   RO          591    i.SysTick_Handler   delay.o
    0x08004d34   0x08004d34   0x0000005c   Code   RO          289    i.SystemInit        system_stm32f4xx.o
    0x08004d90   0x08004d90   0x0000003c   Code   RO          344    i.TIM3_IRQHandler   timer.o
    0x08004dcc   0x08004dcc   0x0000003c   Code   RO          346    i.TIM5_IRQHandler   timer.o
    0x08004e08   0x08004e08   0x00000006   Code   RO         1457    i.TIM_ClearITPendingBit  stm32f4xx_tim.o
    0x08004e0e   0x08004e0e   0x00000018   Code   RO         1483    i.TIM_GetITStatus   stm32f4xx_tim.o
    0x08004e26   0x08004e26   0x00000002   PAD
    0x08004e28   0x08004e28   0x00000064   Code   RO          665    i.USART1_IRQHandler  usart.o
    0x08004e8c   0x08004e8c   0x00000014   Code   RO         1264    i.USART_Cmd         stm32f4xx_usart.o
    0x08004ea0   0x08004ea0   0x0000003e   Code   RO         1268    i.USART_GetITStatus  stm32f4xx_usart.o
    0x08004ede   0x08004ede   0x00000030   Code   RO         1270    i.USART_ITConfig    stm32f4xx_usart.o
    0x08004f0e   0x08004f0e   0x00000002   PAD
    0x08004f10   0x08004f10   0x000000ac   Code   RO         1271    i.USART_Init        stm32f4xx_usart.o
    0x08004fbc   0x08004fbc   0x00000008   Code   RO         1278    i.USART_ReceiveData  stm32f4xx_usart.o
    0x08004fc4   0x08004fc4   0x00000002   Code   RO          213    i.UsageFault_Handler  stm32f4xx_it.o
    0x08004fc6   0x08004fc6   0x00000002   Code   RO          666    i._sys_exit         usart.o
    0x08004fc8   0x08004fc8   0x00000038   Code   RO          592    i.delay_init        delay.o
    0x08005000   0x08005000   0x00000038   Code   RO          593    i.delay_ms          delay.o
    0x08005038   0x08005038   0x00000034   Code   RO          594    i.delay_us          delay.o
    0x0800506c   0x0800506c   0x00000014   Code   RO          667    i.fputc             usart.o
    0x08005080   0x08005080   0x00000110   Code   RO            3    i.main              main.o
    0x08005190   0x08005190   0x00000070   Code   RO         2532    i.prvAddCurrentTaskToDelayedList  tasks.o
    0x08005200   0x08005200   0x000000d0   Code   RO         2533    i.prvAddNewTaskToReadyList  tasks.o
    0x080052d0   0x080052d0   0x00000050   Code   RO         2885    i.prvCheckForValidListAndQueue  timers.o
    0x08005320   0x08005320   0x00000054   Code   RO         2534    i.prvCheckTasksWaitingTermination  tasks.o
    0x08005374   0x08005374   0x00000026   Code   RO         2303    i.prvCopyDataFromQueue  queue.o
    0x0800539a   0x0800539a   0x0000006c   Code   RO         2304    i.prvCopyDataToQueue  queue.o
    0x08005406   0x08005406   0x00000014   Code   RO         2535    i.prvDeleteTCB      tasks.o
    0x0800541a   0x0800541a   0x00000002   PAD
    0x0800541c   0x0800541c   0x0000004c   Code   RO         3098    i.prvHeapInit       heap_4.o
    0x08005468   0x08005468   0x00000028   Code   RO         2536    i.prvIdleTask       tasks.o
    0x08005490   0x08005490   0x000000c0   Code   RO         2537    i.prvInitialiseNewTask  tasks.o
    0x08005550   0x08005550   0x0000004c   Code   RO         3099    i.prvInsertBlockIntoFreeList  heap_4.o
    0x0800559c   0x0800559c   0x00000038   Code   RO         2886    i.prvInsertTimerInActiveList  timers.o
    0x080055d4   0x080055d4   0x0000001a   Code   RO         2305    i.prvIsQueueEmpty   queue.o
    0x080055ee   0x080055ee   0x00000002   PAD
    0x080055f0   0x080055f0   0x00000090   Code   RO         2306    i.prvNotifyQueueSetContainer  queue.o
    0x08005680   0x08005680   0x00000060   Code   RO         2887    i.prvProcessExpiredTimer  timers.o
    0x080056e0   0x080056e0   0x000000f0   Code   RO         2888    i.prvProcessReceivedCommands  timers.o
    0x080057d0   0x080057d0   0x0000006c   Code   RO         2889    i.prvProcessTimerOrBlockTask  timers.o
    0x0800583c   0x0800583c   0x00000020   Code   RO         2539    i.prvResetNextTaskUnblockTime  tasks.o
    0x0800585c   0x0800585c   0x00000028   Code   RO         2890    i.prvSampleTimeNow  timers.o
    0x08005884   0x08005884   0x0000006c   Code   RO         2891    i.prvSwitchTimerLists  timers.o
    0x080058f0   0x080058f0   0x00000064   Code   RO         3014    i.prvTaskExitError  port.o
    0x08005954   0x08005954   0x00000028   Code   RO         2892    i.prvTimerTask      timers.o
    0x0800597c   0x0800597c   0x00000078   Code   RO         2307    i.prvUnlockQueue    queue.o
    0x080059f4   0x080059f4   0x00000114   Code   RO         3100    i.pvPortMalloc      heap_4.o
    0x08005b08   0x08005b08   0x00000018   Code   RO         2541    i.pvTaskIncrementMutexHeldCount  tasks.o
    0x08005b20   0x08005b20   0x0000002c   Code   RO         3015    i.pxPortInitialiseStack  port.o
    0x08005b4c   0x08005b4c   0x00000068   Code   RO            4    i.start_task        main.o
    0x08005bb4   0x08005bb4   0x000000fc   Code   RO            5    i.task1_task        main.o
    0x08005cb0   0x08005cb0   0x000000d8   Code   RO            6    i.task2_task        main.o
    0x08005d88   0x08005d88   0x000000ac   Code   RO          668    i.uart_init         usart.o
    0x08005e34   0x08005e34   0x00000024   Code   RO         2258    i.uxListRemove      list.o
    0x08005e58   0x08005e58   0x00000016   Code   RO         2259    i.vListInitialise   list.o
    0x08005e6e   0x08005e6e   0x00000006   Code   RO         2260    i.vListInitialiseItem  list.o
    0x08005e74   0x08005e74   0x00000030   Code   RO         2261    i.vListInsert       list.o
    0x08005ea4   0x08005ea4   0x00000018   Code   RO         2262    i.vListInsertEnd    list.o
    0x08005ebc   0x08005ebc   0x00000078   Code   RO         3017    i.vPortEnterCritical  port.o
    0x08005f34   0x08005f34   0x00000064   Code   RO         3018    i.vPortExitCritical  port.o
    0x08005f98   0x08005f98   0x0000009c   Code   RO         3101    i.vPortFree         heap_4.o
    0x08006034   0x08006034   0x00000020   Code   RO         3019    i.vPortSetupTimerInterrupt  port.o
    0x08006054   0x08006054   0x0000008c   Code   RO         3020    i.vPortValidateInterruptPriority  port.o
    0x080060e0   0x080060e0   0x00000024   Code   RO         2313    i.vQueueAddToRegistry  queue.o
    0x08006104   0x08006104   0x00000044   Code   RO         2317    i.vQueueWaitForMessageRestricted  queue.o
    0x08006148   0x08006148   0x0000006c   Code   RO         2549    i.vTaskDelay        tasks.o
    0x080061b4   0x080061b4   0x000000cc   Code   RO         2551    i.vTaskDelete       tasks.o
    0x08006280   0x08006280   0x0000000c   Code   RO         2555    i.vTaskMissedYield  tasks.o
    0x0800628c   0x0800628c   0x00000054   Code   RO         2557    i.vTaskPlaceOnEventList  tasks.o
    0x080062e0   0x080062e0   0x0000005c   Code   RO         2558    i.vTaskPlaceOnEventListRestricted  tasks.o
    0x0800633c   0x0800633c   0x00000084   Code   RO         2560    i.vTaskPriorityInherit  tasks.o
    0x080063c0   0x080063c0   0x00000048   Code   RO         2564    i.vTaskSetTimeOutState  tasks.o
    0x08006408   0x08006408   0x00000094   Code   RO         2565    i.vTaskStartScheduler  tasks.o
    0x0800649c   0x0800649c   0x00000010   Code   RO         2567    i.vTaskSuspendAll   tasks.o
    0x080064ac   0x080064ac   0x0000007c   Code   RO         2568    i.vTaskSwitchContext  tasks.o
    0x08006528   0x08006528   0x00000114   Code   RO         3021    i.xPortStartScheduler  port.o
    0x0800663c   0x0800663c   0x0000002c   Code   RO         3022    i.xPortSysTickHandler  port.o
    0x08006668   0x08006668   0x00000078   Code   RO         2322    i.xQueueGenericCreate  queue.o
    0x080066e0   0x080066e0   0x00000184   Code   RO         2323    i.xQueueGenericReceive  queue.o
    0x08006864   0x08006864   0x000000a8   Code   RO         2324    i.xQueueGenericReset  queue.o
    0x0800690c   0x0800690c   0x00000188   Code   RO         2325    i.xQueueGenericSend  queue.o
    0x08006a94   0x08006a94   0x000000e0   Code   RO         2326    i.xQueueGenericSendFromISR  queue.o
    0x08006b74   0x08006b74   0x00000088   Code   RO         2569    i.xTaskCheckForTimeOut  tasks.o
    0x08006bfc   0x08006bfc   0x00000056   Code   RO         2570    i.xTaskCreate       tasks.o
    0x08006c52   0x08006c52   0x00000002   PAD
    0x08006c54   0x08006c54   0x0000001c   Code   RO         2574    i.xTaskGetSchedulerState  tasks.o
    0x08006c70   0x08006c70   0x0000000c   Code   RO         2575    i.xTaskGetTickCount  tasks.o
    0x08006c7c   0x08006c7c   0x000000e8   Code   RO         2577    i.xTaskIncrementTick  tasks.o
    0x08006d64   0x08006d64   0x000000b4   Code   RO         2580    i.xTaskPriorityDisinherit  tasks.o
    0x08006e18   0x08006e18   0x00000098   Code   RO         2581    i.xTaskRemoveFromEventList  tasks.o
    0x08006eb0   0x08006eb0   0x000000e4   Code   RO         2583    i.xTaskResumeAll    tasks.o
    0x08006f94   0x08006f94   0x00000074   Code   RO         2895    i.xTimerCreate      timers.o
    0x08007008   0x08007008   0x00000074   Code   RO         2896    i.xTimerCreateTimerTask  timers.o
    0x0800707c   0x0800707c   0x00000090   Code   RO         2897    i.xTimerGenericCommand  timers.o
    0x0800710c   0x0800710c   0x0000005a   Code   RO         3230    x$fpl$dfixu         fz_wm.l(dfixu.o)
    0x08007166   0x08007166   0x00000026   Code   RO         3234    x$fpl$dfltu         fz_wm.l(dflt_clz.o)
    0x0800718c   0x0800718c   0x00000154   Code   RO         3240    x$fpl$dmul          fz_wm.l(dmul.o)
    0x080072e0   0x080072e0   0x0000009c   Code   RO         3260    x$fpl$dnaninf       fz_wm.l(dnaninf.o)
    0x0800737c   0x0800737c   0x0000000c   Code   RO         3262    x$fpl$dretinf       fz_wm.l(dretinf.o)
    0x08007388   0x08007388   0x0000000a   Code   RO         3357    x$fpl$fpinit        fz_wm.l(fpinit.o)
    0x08007392   0x08007392   0x00000000   Code   RO         3264    x$fpl$usenofp       fz_wm.l(usenofp.o)
    0x08007392   0x08007392   0x000017c0   Data   RO          414    .constdata          lcd.o
    0x08008b52   0x08008b52   0x00000028   Data   RO         3175    .constdata          c_w.l(_printf_hex_int.o)
    0x08008b7a   0x08008b7a   0x00000002   PAD
    0x08008b7c   0x08008b7c   0x00000020   Data   RO         3421    Region$$Table       anon$$obj.o


    Execution Region RW_IRAM1 (Exec base: 0x20000000, Load base: 0x08008b9c, Size: 0x00005b70, Max: 0x00020000, ABSOLUTE)

    Exec Addr    Load Addr    Size         Type   Attr      Idx    E Section Name        Object

    0x20000000   0x08008b9c   0x00000044   Data   RW            7    .data               main.o
    0x20000044   0x08008be0   0x00000014   Data   RW          290    .data               system_stm32f4xx.o
    0x20000058   0x08008bf4   0x00000004   Data   RW          415    .data               lcd.o
    0x2000005c   0x08008bf8   0x00000004   Data   RW          596    .data               delay.o
    0x20000060   0x08008bfc   0x00000002   Data   RW          670    .data               usart.o
    0x20000062   0x08008bfe   0x00000002   PAD
    0x20000064   0x08008c00   0x00000004   Data   RW          671    .data               usart.o
    0x20000068   0x08008c04   0x00000010   Data   RW          923    .data               stm32f4xx_rcc.o
    0x20000078   0x08008c14   0x0000003c   Data   RW         2586    .data               tasks.o
    0x200000b4   0x08008c50   0x00000014   Data   RW         2905    .data               timers.o
    0x200000c8   0x08008c64   0x0000000c   Data   RW         3023    .data               port.o
    0x200000d4   0x08008c70   0x00000018   Data   RW         3106    .data               heap_4.o
    0x200000ec        -       0x0000000e   Zero   RW          413    .bss                lcd.o
    0x200000fa        -       0x000000c8   Zero   RW          669    .bss                usart.o
    0x200001c2   0x08008c88   0x00000002   PAD
    0x200001c4        -       0x00000040   Zero   RW         2337    .bss                queue.o
    0x20000204        -       0x000002e4   Zero   RW         2585    .bss                tasks.o
    0x200004e8        -       0x00000028   Zero   RW         2904    .bss                timers.o
    0x20000510        -       0x00005000   Zero   RW         3105    .bss                heap_4.o
    0x20005510        -       0x00000060   Zero   RW         3299    .bss                c_w.l(libspace.o)
    0x20005570        -       0x00000200   Zero   RW          720    HEAP                startup_stm32f40_41xxx.o
    0x20005770        -       0x00000400   Zero   RW          719    STACK               startup_stm32f40_41xxx.o


==============================================================================

Image component sizes


      Code (inc. data)   RO Data    RW Data    ZI Data      Debug   Object Name

       184         14          0          4          0       3205   delay.o
         0          0          0          0          0      10792   event_groups.o
       584        138          0         24      20480       4863   heap_4.o
     16668        138       6080          4         14      31058   lcd.o
        64          6          0          0          0        667   led.o
       136          0          0          0          0       3938   list.o
       844        276          0         68          0     304899   main.o
       144         14          0          0          0       2601   misc.o
      1038        382          0         12          0      12297   port.o
      1832        236          0          0         64      17717   queue.o
        64         26        392          0       1536        936   startup_stm32f40_41xxx.o
       232          6          0          0          0       2257   stm32f4xx_fsmc.o
       156          0          0          0          0       2818   stm32f4xx_gpio.o
        12          0          0          0          0       3445   stm32f4xx_it.o
       216         30          0         16          0       5463   stm32f4xx_rcc.o
        30          0          0          0          0       3173   stm32f4xx_tim.o
       310          8          0          0          0       5186   stm32f4xx_usart.o
       272         36          0         20          0       2265   system_stm32f4xx.o
      2758        670          0         60        740      33679   tasks.o
       120         52          0          0          0       1300   timer.o
      1144        260          0         20         40      11602   timers.o
       294         26          0          6        200       5068   usart.o

    ----------------------------------------------------------------------
     27120       2318       6504        236      23076     469229   Object Totals
         0          0         32          0          0          0   (incl. Generated)
        18          0          0          2          2          0   (incl. Padding)

    ----------------------------------------------------------------------

      Code (inc. data)   RO Data    RW Data    ZI Data      Debug   Library Member Name

         8          0          0          0          0         68   __main.o
       104          0          0          0          0         84   __printf.o
         0          0          0          0          0          0   __rtentry.o
        12          0          0          0          0          0   __rtentry2.o
         6          0          0          0          0          0   __rtentry4.o
        52          8          0          0          0          0   __scatter.o
        26          0          0          0          0          0   __scatter_copy.o
        28          0          0          0          0          0   __scatter_zi.o
        44          0          0          0          0        108   _printf_char.o
        48          6          0          0          0         96   _printf_char_common.o
        36          4          0          0          0         80   _printf_char_file.o
         6          0          0          0          0          0   _printf_d.o
       120         16          0          0          0         92   _printf_dec.o
        88          4         40          0          0         88   _printf_hex_int.o
       178          0          0          0          0         88   _printf_intcommon.o
         0          0          0          0          0          0   _printf_percent.o
         4          0          0          0          0          0   _printf_percent_end.o
         6          0          0          0          0          0   _printf_s.o
        82          0          0          0          0         80   _printf_str.o
         6          0          0          0          0          0   _printf_x.o
        16          0          0          0          0         68   aeabi_memset.o
        18          0          0          0          0         80   exit.o
         8          0          0          0          0         68   ferror.o
         6          0          0          0          0        152   heapauxi.o
         2          0          0          0          0          0   libinit.o
         6          0          0          0          0          0   libinit2.o
         2          0          0          0          0          0   libshutdown.o
         2          0          0          0          0          0   libshutdown2.o
         8          4          0          0         96         68   libspace.o
        24          4          0          0          0         84   noretval__2printf.o
        68          0          0          0          0         68   rt_memclr.o
        78          0          0          0          0         80   rt_memclr_w.o
       138          0          0          0          0         68   rt_memcpy_v6.o
       100          0          0          0          0         80   rt_memcpy_w.o
         2          0          0          0          0          0   rtexit.o
        10          0          0          0          0          0   rtexit2.o
        74          0          0          0          0         80   sys_stackheap_outer.o
         2          0          0          0          0         68   use_no_semi.o
         2          0          0          0          0         68   use_no_semi_2.o
        90          4          0          0          0        140   dfixu.o
        38          0          0          0          0        116   dflt_clz.o
       340         12          0          0          0        152   dmul.o
       156          4          0          0          0        140   dnaninf.o
        12          0          0          0          0        116   dretinf.o
        10          0          0          0          0        116   fpinit.o
         0          0          0          0          0          0   usenofp.o

    ----------------------------------------------------------------------
      2074         66         42          0         96       2596   Library Totals
         8          0          2          0          0          0   (incl. Padding)

    ----------------------------------------------------------------------

      Code (inc. data)   RO Data    RW Data    ZI Data      Debug   Library Name

      1420         46         40          0         96       1816   c_w.l
       646         20          0          0          0        780   fz_wm.l

    ----------------------------------------------------------------------
      2074         66         42          0         96       2596   Library Totals

    ----------------------------------------------------------------------

==============================================================================


      Code (inc. data)   RO Data    RW Data    ZI Data      Debug   

     29194       2384       6546        236      23172     458289   Grand Totals
     29194       2384       6546        236      23172     458289   ELF Image Totals
     29194       2384       6546        236          0          0   ROM Totals

==============================================================================

    Total RO  Size (Code + RO Data)                35740 (  34.90kB)
    Total RW  Size (RW Data + ZI Data)             23408 (  22.86kB)
    Total ROM Size (Code + RO Data + RW Data)      35976 (  35.13kB)

==============================================================================

