:020000040800F2
:1000000028EC0120E9780008C5040008C7040008AE
:10001000CB040008CF040008D3040008000000004F
:100020000000000000000000000000009502000831
:10003000D704000800000000E9020008B999000890
:1000400003790008037900080379000803790008A0
:100050000379000803790008037900080379000890
:100060000379000803790008037900080379000880
:100070000379000803790008037900080379000870
:100080000379000803790008037900080379000860
:100090000379000803790008037900080379000850
:1000A0000379000803790008037900080379000840
:1000B00003790008B578000803790008037900087F
:1000C0000379000803790008037900080379000820
:1000D00003790008639B000803790008037900088E
:1000E0000379000803790008037900080379000800
:1000F00003790008037900080379000803790008F0
:1001000003790008037900080379000803790008DF
:1001100003790008037900080379000803790008CF
:1001200003790008037900080379000803790008BF
:1001300003790008037900080379000803790008AF
:10014000037900080379000803790008037900089F
:10015000037900080379000803790008037900088F
:10016000037900080379000803790008037900087F
:10017000037900080379000803790008037900086F
:10018000037900080379000800F002F800F072F823
:100190000AA090E8000C82448344AAF10107DA45E2
:1001A00001D100F067F8AFF2090EBAE80F0013F0C2
:1001B000010F18BFFB1A43F001031847C84006009F
:1001C000E84006000A444FF0000C10F8013B13F021
:1001D000070408BF10F8014B1D1108BF10F8015BA0
:1001E000641E05D010F8016B641E01F8016BF9D193
:1001F00013F0080F1EBF10F8014BAD1C0C1B09D1EA
:100200006D1E58BF01F801CBFAD505E014F8016B5B
:1002100001F8016B6D1EF9D59142D6D370470000ED
:100220000023002400250026103A28BF78C1FBD8FF
:10023000520728BF30C148BF0B607047692911F0D1
:100240006B81642911F06881752911F06581782925
:1002500011F09E81632911F03A84732911F03F84D3
:10026000002070471FB52BF03CFD11F0D2F91FBDE7
:1002700010B510BD11F094FC1146FFF7F3FF00F02C
:10028000D0F811F0B2FC03B4FFF7F2FF03BC09F0A1
:1002900009FC00002A4B19680868B0E8F04F80F3A9
:1002A0000988BFF36F8F4FF0000080F3118870470B
:1002B0000000000006480068006880F3088862B605
:1002C00061B6BFF34F8FBFF36F8F00DF00BF00BF7A
:1002D00008ED00E0DFF80C00016841F470010160F6
:1002E000704700BF88ED00E0EFF30980BFF36F8F28
:1002F000134B1A681EF0100F08BF20ED108A20E97A
:10030000F04F106008B44FF0500080F31188BFF335
:100310004F8FBFF36F8F0BF0C0F84FF0000080F3EA
:10032000118808BC19680868B0E8F04F1EF0100F7B
:1003300008BFB0EC108A80F30988BFF36F8F704755
:10034000D0000020EFF30580704700000B49D1F882
:1003500000C04A685CF8043B1068184442F8040B7B
:100360008C4528BFA1F1DC0C8A4228BFA1F1DC0238
:10037000C1F800C04A6020F000407047C0E501208D
:1003800001E00EF093F8FCE70BE03C48006808B988
:10039000012000E00020394908604FF4FA700AF0AB
:1003A00053FFF2E704E017F0BDF805200AF04CFF18
:1003B000F9E71CB504460121080308F02DF90420D3
:1003C0001DF068FB15F0FCFC01201DF049F90CF054
:1003D000F4FB2B48022100238022CDE9001029A143
:1003E000AFF23F000AF0B2FC29480321002380222B
:1003F000CDE9001027A1AFF26F000AF0A7FC284852
:1004000004210023CA01CDE9001026A1AFF28F001C
:100410000AF09CFC274800680AF0E6FC0CF0F0FBB0
:100420001CBD1CB5A82009F0CFFA4FF4407007F0AE
:100430007BFA4FF4E13009F042FB01F048F806F096
:1004400083FD00F051F904F0C3FF002009F0E5FB43
:10045000012009F0E2FB022009F0DFFB1548012131
:1004600000230A02CDE9001013A1AFF2B9000AF08F
:100470006DFC0BF094F900201CBD0000A4824242E8
:1004800004000020746F7563685F7461736B000013
:10049000080000206C6564305F7461736B000000BD
:1004A0000C000020656D77696E64656D6F5F746127
:1004B000736B00000000002073746172745F7461DC
:1004C000736B0000704700BFFEE700BFFEE700BF90
:1004D000FEE700BFFEE770470CB5002001900090DA
:1004E0007648006840F480307449086000BF734863
:1004F000006800F4003000900198401C01900098C2
:1005000018B90198B0F5A04FF1D16C48006800F41B
:10051000003010B10120009001E000200090009810
:10052000012846D165484030006840F0805063495A
:10053000403108606248006840F44040604908600B
:100540005E48083000685D49083108600846006868
:1005500040F4004008600846006840F4A05008607D
:100560005848091F0860081F006840F08070091F84
:10057000086000BF5148006800F000700028F9D002
:1005800040F20570504908604C480830006820F07F
:1005900003004A49083108600846006840F002003C
:1005A000086000BF45480830006800F00C000828CB
:1005B000F8D10CBD10B54548006840F470004349BF
:1005C00008603E48006840F001003C490860002097
:1005D0003A4908310860394800683D4908403749C0
:1005E00008603C48091D0860081F006820F480204E
:1005F000091F0860002031490C310860FFF76CFFCB
:100600004FF0006031498039086010BD70B500209E
:100610000022022300240221284D08352D6805F010
:100620000C0020B1042806D0082834D107E02A4D58
:100630002A4E356033E02A4D284E35602FE01F4D9D
:100640002D1D2D68C5F380541C4D2D1D2D6805F002
:100650003F0154B1224DB5FBF1F5184E361D3668F9
:10066000C6F3881605FB06F209E01B4DB5FBF1F554
:10067000124E361D3668C6F3881605FB06F20F4D7E
:100680002D1D2D68C5F301456D1C6B00B2FBF3F504
:10069000124E356003E0104D104E356000BF00BFB4
:1006A000064D08352D68C5F303150E4E705D0B4DD4
:1006B0002D68C540094E356070BD0000003802400D
:1006C0000070004008544007003C024088ED00E004
:1006D000FFFFF6FE103000240024F400100000207C
:1006E00000127A00140000201CB50121202007F020
:1006F00093FF4FF4C060009001208DF804000020AB
:100700008DF806008DF8070003208DF80500694676
:10071000044807F0E3FC4FF4C061024807F05AFDBB
:100720001CBD00000014024001B5BDF8000000909F
:10073000BDF80000FC49088008BD01B5BDF8000007
:100740000090BDF80000F849891C088008BD08B574
:10075000F548801C00880090BDF8000008BD03B576
:10076000BDF80000F0490880BDF804004FF0D84102
:10077000A1F880000CBD01B5BDF80000FFF7D4FF63
:10078000052009F03EF9FFF7E2FF08BDE7480089C0
:10079000E54908807047E449891C0880704730B5F6
:1007A000014601F01F04C1F34513CA0AE50205EB37
:1007B00043151544A8B230BD00BF011EA0F10102CF
:1007C000D0B2FAD1704730B504460D46D74880887C
:1007D00049F24131884205D0D448808845F2103131
:1007E000884214D1D1494889FFF79EFF2012FFF7B4
:1007F000A4FFE0B2FFF7A1FFCC498889FFF794FF7F
:100800002812FFF79AFFE8B2FFF797FFABE0C7485F
:10081000808846F6040188421DD1C44880790128A9
:1008200004D1C2480088401E001B84B2BF494889D9
:10083000FFF77AFF2012FFF780FFE0B2FFF77DFF9E
:10084000BA498889FFF770FF2812FFF776FFE8B2F0
:10085000FFF773FF87E0B548808841F6631188424F
:1008600047D1B2488079A8B9B0480088401E001B23
:1008700084B2AE494889FFF757FF0020FFF75DFFBC
:100880000020FFF75AFF2012FFF757FFE0B2FFF7F3
:1008900054FF16E0A5494889FFF746FF2012FFF7ED
:1008A0004CFFE0B2FFF749FFA0490988491EC1F398
:1008B0000F20FFF742FF9D490978491EC8B2FFF794
:1008C0003CFF9A498889FFF72FFF2812FFF735FF71
:1008D000E8B2FFF732FF95494988491EC1F30F205E
:1008E000FFF72BFF91498978491EC8B2FFF725FF12
:1008F00039E08E48808845F21051884220D18B49DA
:100900004889FFF711FF2012FFF717FF8749498930
:10091000491C88B2FFF708FFE0B2FFF70EFF8349DA
:100920008889FFF701FF2812FFF707FF7F498989B0
:10093000491C88B2FFF7F8FEE8B2FFF7FEFE12E0AE
:100940007A488079012804D178480088401E001B2D
:1009500084B2764948892146FFF701FF73498889A7
:100960002946FFF7FCFE30BD3EB504460D4600208B
:100970000290019000906D480088A04203DD6B4812
:100980004088A84201DC00203EBD29462046FFF7F2
:100990001AFF6648808849F24131884211D0634885
:1009A000808846F6040188420BD06048808845F272
:1009B0001031884205D05D48808841F66311884235
:1009C00003D12E20FFF7B0FE0DE05848808845F295
:1009D0001051884204D14FF43850FFF7A5FE02E0D1
:1009E0002220FFF7A1FE5148808849F22031884239
:1009F00002D10220FFF7E0FEFFF7A9FE02904B486C
:100A0000808841F66311884202D1BDF80800BBE737
:100A10000220FFF7D1FEFFF79AFE0290434880883C
:100A200049F2413188420BD04048808845F210316C
:100A3000884205D03D48808845F21051884210D147
:100A40000220FFF7B9FEFFF782FE0090BDF8080014
:100A5000C0B20190BDF804004FF6FF7101EA00201A
:100A600001903248808849F22531884216D02F48BB
:100A7000808844F23551884210D02C488088091F64
:100A800088420BD0294880884BF20551884205D016
:100A9000264880884CF20551884202D1BDF80800F2
:100AA00072E72248808849F2413188420BD01F48C2
:100AB000808845F21031884205D01C48808845F274
:100AC000105188420DD1BDF80800C012C002BDF817
:100AD0000410891240EA4110BDF8001040EAE120FC
:100AE00052E7BDF80800FFF75AFE4DE700B50F4882
:100AF000808849F24131884211D00C48808846F6FE
:100B0000040188420BD00948808845F210318842A0
:100B100005D00648808841F66311884208D1292013
:100B2000FFF702FE14E000007E00006C080F0020BA
:100B3000FE48808845F21051884204D14FF4245079
:100B4000FFF7F2FD04E040F273110720FFF707FE04
:100B500000BD00B5F548808849F24131884211D086
:100B6000F248808846F6040188420BD0EF4880881E
:100B700045F21031884205D0EC48808841F6631177
:100B8000884203D12820FFF7CFFD0EE0E748808898
:100B900045F21051884204D14FF42050FFF7C4FDB4
:100BA00003E000210720FFF7DAFD00BDF0B50546A0
:100BB00000240027DD48807901280BD1DB4880889C
:100BC00046F60401884205D0D848808841F6631172
:100BD000884208D1D5488079F0B9D448808841F658
:100BE0006311884218D1082D15D2DFE805F00406FC
:100BF000080A0C0E101206250DE007250BE004254F
:100C000009E0052507E0012505E0002503E00325AF
:100C100001E0022500BF00BFC448808849F241318D
:100C2000884217D0C148808846F60401884211D016
:100C3000BE48808845F2103188420BD0BB4880887E
:100C400045F21051884205D0B848808841F66311BA
:100C500088427DD1082D1CD2DFE805F00406090C7E
:100C60000F12151800BF14E044F0800411E044F0A6
:100C700040040EE044F0C0040BE044F0200408E01F
:100C800044F0600405E044F0A00402E044F0E00415
:100C900000BF00BFA548808845F21051884202D1AC
:100CA0004FF4585700E03627A048808845F21031AD
:100CB00088420DD09D48808845F21051884207D067
:100CC0009A48808841F66311884201D044F00804B4
:100CD0009648808846F60401884201D144F0020417
:100CE00021463846FFF73BFD9048808841F6631166
:100CF00088421DD004F0200068B18C4800888B49E0
:100D00004988884214DA89480688408887490880DB
:100D1000084646800CE08548008884494988884216
:100D200006DD82480688408880490880084646805B
:100D30007E48808845F21051884254D17B494889C9
:100D4000FFF7F2FC0020FFF7F8FC7849498900E042
:100D500078E0491C88B2FFF7E7FC0020FFF7EDFCC4
:100D600072494989891C88B2FFF7DEFC6F490988FE
:100D7000491EC1F30F20FFF7E0FC6C494989C91CEB
:100D800088B2FFF7D1FC69490978491EC8B2FFF75C
:100D9000D4FC66498889FFF7C7FC0020FFF7CDFC2B
:100DA00062498989491C88B2FFF7BEFC0020FFF721
:100DB000C4FC5E498989891C88B2FFF7B5FC5B4990
:100DC0004988491EC1F30F20FFF7B7FC57498989AD
:100DD000C91C88B2FFF7A8FC54498978491EC8B2DB
:100DE000FFF7ABFC55E051494889FFF79DFC002017
:100DF000FFF7A3FC0020FFF7A0FC4C490988491E1F
:100E0000C1F30F20FFF799FC48490978491EC8B281
:100E1000FFF793FC45498889FFF786FC0020FFF720
:100E20008CFC0020FFF789FC40494988491EC1F32A
:100E30000F20FFF782FC3D498978491EC8B2FFF7B1
:100E40007CFC26E0082D1CD2DFE805F004070A0D23
:100E50000F12151844F0300413E044F0100410E0B1
:100E600044F020040DE000BF0BE044F0380408E03B
:100E700044F0280405E044F0180402E044F00804BB
:100E800000BF00BF032744F4805421463846FFF7D3
:100E900066FCF0BD30B504460D4629462046FFF7F6
:100EA00092FCFFF773FC224800882249088030BD7D
:100EB00070B504460D4616461C48808849F24131FB
:100EC000884205D01948808845F21031884214D1F3
:100ED00016494889FFF728FC2012FFF72EFCE0B2E4
:100EE000FFF72BFC11498889FFF71EFC2812FFF73A
:100EF00024FCE8B2FFF721FC93E00C48808845F21F
:100F00001051884227D109494889FFF70DFC20126A
:100F1000FFF713FC05494989491C88B2FFF704FC17
:100F2000E0B2FFF70AFC0149888905E0080F0020BC
:100F3000240000208000006CFFF7F6FB2812FFF76A
:100F4000FCFBFE498989491C88B2FFF7EDFBE8B23A
:100F5000FFF7F3FB65E0F948808841F663118842AA
:100F600028D1F648807920B9F4480088401E001B3B
:100F700084B2F2494889FFF7D7FB2012FFF7DDFB67
:100F8000E0B2FFF7DAFB2012FFF7D7FBE0B2FFF782
:100F9000D4FBEA498889FFF7C7FB2812FFF7CDFB8E
:100FA000E8B2FFF7CAFB2812FFF7C7FBE8B2FFF76A
:100FB000C4FB36E0E148808846F6040188421DD132
:100FC000DE488079012804D1DC480088401E001BDF
:100FD00084B2DA494889FFF7A7FB2012FFF7ADFB7F
:100FE000E0B2FFF7AAFBD5498889FFF79DFB2812DD
:100FF000FFF7A3FBE8B2FFF7A0FB12E0CF48807930
:10100000012804D1CD480088401E001B84B2CB4982
:1010100048892146FFF7A3FBC84988892946FFF77D
:101020009EFBC6480089C64908804FF0D840A0F80A
:10103000806070BD70B52DED048B0446BE20FFF7B7
:1010400073FB0520FFF779FB20462AF093FA41EC69
:10105000190B9FEDBC0B53EC102B2AF0DBFA41EC83
:10106000180B2AF043FA85B22846FFF766FB0120E9
:10107000FFF763FBFF20FFF760FB0020FFF75DFB3E
:101080000020FFF75AFBBDEC048B70BD10B5044681
:10109000002C66D1A9498871F02008804FF4A07017
:1010A00048800846808849F2413188420BD0A348E5
:1010B000808846F60401884205D0A048808845F221
:1010C000103188421AD12C209C4908812A2048815D
:1010D0002B2088810846808846F60401884205D086
:1010E0009648808845F21031884206D14FF4A070AE
:1010F000924908804FF4F0704880A1E08F488088C2
:1011000045F21051884210D14FF430508B4908817C
:101110004FF4285048814FF42C5088814FF4F070E0
:1011200008804FF4487048808AE08448808841F6FF
:10113000631188420DD12C20804908812B204881E1
:101140002A2088814FF4F07008804FF4487048805E
:1011500076E0222079490881202048812120888159
:101160006EE00120754988714FF4A0700880F0206E
:1011700048800846808849F24131884205D06F484E
:10118000808845F21031884207D12C206B490881B4
:101190002A2048812B2088813FE06848808846F6D5
:1011A0000401884207D12C20644908812B20488102
:1011B0002A20888131E06148808845F210518842B8
:1011C00010D14FF430505D4908814FF428504881C8
:1011D0004FF42C5088814FF4487008804FF4F07021
:1011E00048801AE05548808841F6631188420DD145
:1011F0002C20524908812A2048812B2088814FF4D5
:10120000487008804FF4F070488006E022204B4977
:10121000088121204881202088814848808846F61E
:101220000401884205D04548808845F21031884243
:1012300006D14FF4F070414908804FF4A070488007
:101240000020FFF7B3FC10BD2DE9F04F86B0044637
:101250000D469046994604EB0800401E86B205EB09
:101260000900401E87B23548808849F241318842E2
:1012700015D03248808845F2103188420FD02F486F
:10128000808846F60401884209D02C4880790128DC
:1012900026D12A48808841F66311884220D1274907
:1012A0004889FFF741FA2012FFF747FAE0B2FFF74B
:1012B00044FA3012FFF741FAF0B2FFF73EFA1F4945
:1012C0008889FFF731FA2812FFF737FAE8B2FFF7FB
:1012D00034FA3812FFF731FAF8B2FFF72EFAC1E00C
:1012E0001648808841F6631188423DD11348008832
:1012F000A0EB0800001B84B205EB0900401E1FFA9A
:1013000080F90E494889FFF70FFA2012FFF715FA06
:10131000E0B2FFF712FA04EB0801491EC1F30F20F7
:10132000FFF70BFA04EB0801491EC8B2FFF705FAF4
:1013300002498889FFF7F8F9281207E0080F002012
:101340007E00006C6666666666660440FFF7F5F927
:10135000E8B2FFF7F2F94FEA2920FFF7EEF909F0BA
:10136000FF00FFF7EAF97DE0FE48808845F2105162
:10137000884244D1FB494889FFF7D6F92012FFF78C
:10138000DCF9F8494989491C88B2FFF7CDF9E0B288
:10139000FFF7D3F9F3494989891C88B2FFF7C4F9EB
:1013A0003012FFF7CAF9EF494989C91C88B2FFF723
:1013B000BBF9F0B2FFF7C1F9EA498889FFF7B4F940
:1013C0002812FFF7BAF9E7498989491C88B2FFF763
:1013D000ABF9E8B2FFF7B1F9E2498989891C88B213
:1013E000FFF7A2F93812FFF7A8F9DE498989C91C6D
:1013F00088B2FFF799F9F8B2FFF79FF932E0D948C0
:10140000807901280ED1AA46BB46D6480088801BA9
:10141000401E80B20190D3480088001B401E80B25D
:10142000009003E0A246B346019500975020059036
:101430005120049052200390532002905146059869
:10144000FFF78DF959460498FFF789F90199039838
:10145000FFF785F900990298FFF781F929462046A0
:10146000FFF7B1F906B0BDE8F08F70B5044600266D
:10147000BC48058840884543BA48808846F6040140
:10148000884216D1B7488079012812D10020B54989
:1014900088712A2048812B20888100210846FFF787
:1014A00092F90120AF4988712B2048812A20888138
:1014B00003E000210846FFF786F9FFF767F90026E9
:1014C00002E0A9480480761CAE42FAD370BD00B594
:1014D000A1B00020209001217A2007F09DF8012181
:1014E000084607F0D1F84FF400401E9001208DF817
:1014F0007C0000208DF87E0002208DF87D00012008
:101500008DF87F001EA9994806F0E8FD4CF2337073
:101510001E9002208DF87C0000208DF87E000320B4
:101520008DF87D0001208DF87F001EA9904806F0FF
:10153000D5FD4FF680701E9002208DF87C000020B3
:101540008DF87E0003208DF87D0001208DF87F004E
:101550001EA9884806F0C2FD4FF480501E9002205C
:101560008DF87C0000208DF87E0003208DF87D0032
:1015700001208DF87F001EA97F4806F0AFFD4FF4D3
:1015800080501E9002208DF87C0000208DF87E0097
:1015900003208DF87D0001208DF87F001EA977487B
:1015A00006F09CFD0C220021714806F022FE0C2260
:1015B00001216F4806F01DFE0C2204216C4806F044
:1015C00018FE0C2205216A4806F013FE0C220821A1
:1015D000674806F00EFE0C220921654806F009FE58
:1015E0000C220A21624806F004FE0C220E216048FB
:1015F00006F0FFFD0C220F215D4806F0FAFD0C22DB
:1016000007215C4806F0F5FD0C220821594806F038
:10161000F0FD0C220921574806F0EBFD0C220A21AF
:10162000544806F0E6FD0C220B21524806F0E1FD7D
:101630000C2211464F4806F0DCFD0C220D214D48CE
:1016400006F0D7FD0C220E214A4806F0D2FD0C22EE
:101650000F21484806F0CDFD0C221146464806F001
:10166000C8FD0C221146454806F0C3FD0F20089026
:10167000002009903C200A9000200B900C900D90C7
:101680000E90092001900020029008200390002075
:10169000049005900690079006200F90002010906F
:1016A0001190102012900020139015901490169015
:1016B00017904FF480501890002019904FF48040FC
:1016C0001A9000201B9008A81C9001A81D900FA83C
:1016D00006F0B5F90121062006F03CFA322008F0A8
:1016E000B2F901210020FFF73AF8322008F0ABF9F7
:1016F0000020FFF740F81B49888008468088FF28B3
:101700000ADB084680884FF6FF71884204D01548EE
:101710008088B0F5134F7DD1D320FFF705F8FFF790
:1017200016F810498880FFF712F80E498880FFF7F5
:101730000EF80C498880084680884FF6FF7101EA50
:10174000002008498880FFF702F806498988084385
:10175000044988800846808849F24131884259D03E
:10176000BF200DE0080F00208000006C0004024044
:10177000000C024000100240001402400018024019
:10178000FEF7D2FFFEF7E3FFFE498880FEF7DFFF9A
:10179000FC498880FEF7DBFFFA498880FEF7D7FF17
:1017A000F8498880084680884FF6FF7101EA0020DA
:1017B000F4498880FEF7CBFFF24989880843F14954
:1017C00088800846808846F6040188427AD0D42072
:1017D000FEF7AAFFFEF7BBFFEA498880FEF7B7FFD6
:1017E000E8498880FEF7B3FFE6498880084680888C
:1017F0004FF6FF7101EA0020E2498880FEF7A7FF5B
:10180000E04989880843DF4988800846808845F296
:10181000103100E056E0884254D04FF45A40FEF7B1
:1018200083FFFEF794FFD74988804FF45B40FEF7B3
:101830007BFFFEF78CFFD3498880084680884FF6EF
:10184000FF7101EA0020CF4988804FF45C40FEF729
:101850006BFFFEF77CFFCB4989880843C949888024
:1018600008468088B0F5004F02D145F210508880BC
:10187000C448808845F21051884223D0A120FEF749
:1018800053FFFEF764FFBF498880FEF760FFBD4944
:101890008880084680884FF6FF7101EA0020B94928
:1018A0008880FEF754FFB74989880843B549888086
:1018B0000846808845F26171884203D141F6631081
:1018C000B0498880AF48808849F24131884211D0C0
:1018D000AC48808845F2103188420BD0A9488088F6
:1018E00045F21051884205D0A648808841F6631120
:1018F00088421DD1A448006820F00F004FF020411D
:10190000C1F81C010846D0F81C0120F47060C1F831
:101910001C010846D0F81C0140F00300C1F81C016E
:101920000846D0F81C0140F40070C1F81C0128E002
:101930009448808846F60401884205D09148808802
:101940004CF2055188421CD18F48006820F00F00EE
:101950004FF02041C1F81C010846D0F81C0120F4CA
:101960007060C1F81C010846D0F81C0140F00A0064
:10197000C1F81C010846D0F81C0140F44060C1F8D1
:101980001C018048818881A00FF048FD7D48808837
:1019900049F2413188427CD1CF20FEF7C5FE0020BC
:1019A000FEF7CBFE2098401C2090C120FEF7C5FE1C
:1019B0003020FEF7C2FEED20FEF7B6FE6420FEF7F3
:1019C000BCFE0320FEF7B9FE1220FEF7B6FE812012
:1019D000FEF7B3FEE820FEF7A7FE8520FEF7ADFE7A
:1019E0001020FEF7AAFE7A20FEF7A7FECB20FEF716
:1019F0009BFE3920FEF7A1FE2C20FEF79EFE002064
:101A0000FEF79BFE3420FEF798FE0220FEF795FEBF
:101A1000F720FEF789FE2020FEF78FFEEA20FEF772
:101A200083FE0020FEF789FE0020FEF786FEC02020
:101A3000FEF77AFE1B20FEF780FEC120FEF774FE43
:101A40000120FEF77AFEC520FEF76EFE3020FEF77D
:101A500074FE3020FEF771FEC720FEF765FEB7204A
:101A6000FEF76BFE3620FEF75FFE4820FEF765FEB0
:101A70003A20FEF759FE5520FEF75FFEB120FEF733
:101A800053FE0020FEF759FE1A20FEF756FEB62040
:101A900000E0A7E0FEF748FE0A20FEF74EFEA22077
:101AA000FEF74BFEF220FEF73FFE0020FEF745FE5C
:101AB0002620FEF739FE0120FEF73FFEE020FEF76C
:101AC00033FE0F20FEF739FE2A20FEF736FE2820CF
:101AD000FEF733FE0820FEF730FE0E20FEF72DFE47
:101AE0000820FEF72AFE5420FEF727FEA920FEF765
:101AF00024FE4320FEF721FE0A20FEF71EFE0F20E3
:101B0000FEF71BFE0020FEF718FE0020FEF715FE74
:101B10000020FEF712FE0020FEF70FFEE120FEF788
:101B200003FE0020FEF709FE1520FEF706FE172033
:101B3000FEF703FE0720FEF700FE1120FEF7FDFD75
:101B40000620FEF7FAFD2B20FEF7F7FD5620FEF7E4
:101B5000F4FD3C20FEF7F1FD0520FEF7EEFD102020
:101B6000FEF7EBFD0F20FEF7E8FD3F20FEF7E5FD59
:101B70003F20FEF7E2FD0F20FEF7DFFD2B20FEF7F2
:101B8000D3FD09E0080F00201C0100A04C434420B5
:101B900049443A25780D0A000020FEF7CEFD0020CA
:101BA000FEF7CBFD0120FEF7C8FD3F20FEF7C5FD87
:101BB0002A20FEF7B9FD0020FEF7BFFD0020FEF74A
:101BC000BCFD0020FEF7B9FDEF20FEF7B6FD1120A9
:101BD000FEF7AAFD782007F036FF2920FEF7A4FDC6
:101BE00003F01DB9FE48808846F6040188427CD186
:101BF0001120FEF799FD142007F025FFD020FEF7F5
:101C000093FD0720FEF799FD4220FEF796FD1D206B
:101C1000FEF793FDD120FEF787FD0020FEF78DFD36
:101C20001A20FEF78AFD0920FEF787FDD220FEF775
:101C30007BFD0120FEF781FD2220FEF77EFDC02006
:101C4000FEF772FD1020FEF778FD3B20FEF775FDD4
:101C50000020FEF772FD0220FEF76FFD1120FEF757
:101C60006CFDC520FEF760FD0320FEF766FDC82071
:101C7000FEF75AFD0020FEF760FD2520FEF75DFD12
:101C80002120FEF75AFD0520FEF757FD0020FEF744
:101C900054FD0A20FEF751FD6520FEF74EFD25207C
:101CA000FEF74BFD7720FEF748FD5020FEF745FD7F
:101CB0000F20FEF742FD0020FEF73FFDF820FEF763
:101CC00033FD0120FEF739FDFE20FEF72DFD00203B
:101CD000FEF733FD0220FEF730FD2020FEF724FD45
:101CE0003620FEF721FD082000E02CE0FEF725FD60
:101CF0003A20FEF719FD5520FEF71FFD2B20FEF7B9
:101D000013FD0020FEF719FD0020FEF716FD01204F
:101D1000FEF713FD3F20FEF710FD2A20FEF704FD1D
:101D20000020FEF70AFD0020FEF707FD0120FEF768
:101D300004FDDF20FEF701FD782007F084FE292056
:101D4000FEF7F2FC4CE7A648808845F21031884245
:101D500040F07C87ED20FEF7E7FC0120FEF7EDFC6C
:101D6000FE20FEF7EAFCEE20FEF7DEFCDE20FEF7AA
:101D7000E4FC2120FEF7E1FCF120FEF7D5FC012078
:101D8000FEF7DBFCDF20FEF7CFFC1020FEF7D5FCD2
:101D9000C420FEF7C9FC8F20FEF7CFFCC620FEF75B
:101DA000C3FC0020FEF7C9FCE220FEF7C6FCE220DF
:101DB000FEF7C3FCE220FEF7C0FCBF20FEF7B4FC38
:101DC000AA20FEF7BAFCB020FEF7AEFC0D20FEF70D
:101DD000B4FC0020FEF7B1FC0D20FEF7AEFC0020A5
:101DE000FEF7ABFC1120FEF7A8FC0020FEF7A5FCD7
:101DF0001920FEF7A2FC0020FEF79FFC2120FEF731
:101E00009CFC0020FEF799FC2D20FEF796FC00209C
:101E1000FEF793FC3D20FEF790FC0020FEF78DFCC2
:101E20005D20FEF78AFC0020FEF787FC5D20FEF7B0
:101E300084FC0020FEF781FCB120FEF775FC8020B9
:101E4000FEF77BFC0020FEF778FC8B20FEF775FC8C
:101E50000020FEF772FC9620FEF76FFC0020FEF7D4
:101E60006CFCB220FEF760FC0020FEF766FC002050
:101E7000FEF763FC0220FEF760FC0020FEF75DFC2D
:101E80000320FEF75AFC0020FEF757FCB320FEF7B4
:101E90004BFC0020FEF751FC0020FEF74EFC00201A
:101EA000FEF74BFC0020FEF748FC0020FEF745FC47
:101EB0000020FEF742FC0020FEF73FFC0020FEF76A
:101EC0003CFC0020FEF739FC0020FEF736FC002029
:101ED000FEF733FC0020FEF730FC0020FEF72DFC5F
:101EE0000020FEF72AFC0020FEF727FC0020FEF76A
:101EF00024FC0020FEF721FC0020FEF71EFC002041
:101F0000FEF71BFC0020FEF718FC0020FEF715FC76
:101F10000020FEF712FC0020FEF70FFC0020FEF769
:101F20000CFCB420FEF700FC8B20FEF706FC002022
:101F3000FEF703FC9620FEF700FC0020FEF7FDFBF9
:101F4000A120FEF7FAFB0020FEF7F7FBB520FEF715
:101F5000EBFB0220FEF7F1FB0020FEF7EEFB032077
:101F6000FEF7EBFB0020FEF7E8FB0420FEF7E5FBA5
:101F70000020FEF7E2FBB620FEF7D6FB0020FEF7BE
:101F8000DCFB0020FEF7D9FBB720FEF7CDFB0020DD
:101F9000FEF7D3FB0020FEF7D0FB3F20FEF7CDFB82
:101FA0000020FEF7CAFB5E20FEF7C7FB0020FEF70D
:101FB000C4FB6420FEF7C1FB0020FEF7BEFB8C20B3
:101FC000FEF7BBFB0020FEF7B8FBAC20FEF7B5FB2D
:101FD0000020FEF7B2FBDC20FEF7AFFB002001E0A3
:101FE000080F0020FEF7A9FB7020FEF7A6FB0020DB
:101FF000FEF7A3FB9020FEF7A0FB0020FEF79DFB61
:10200000EB20FEF79AFB0020FEF797FBDC20FEF7A3
:1020100094FB0020FEF791FBB820FEF785FB002023
:10202000FEF78BFB0020FEF788FB0020FEF785FB08
:102030000020FEF782FB0020FEF77FFB0020FEF76A
:102040007CFB0020FEF779FB0020FEF776FBBA2030
:10205000FEF76AFB2420FEF770FB0020FEF76DFB05
:102060000020FEF76AFB0020FEF767FBC120FEF7A9
:102070005BFB2020FEF761FB0020FEF75EFB542097
:10208000FEF75BFB0020FEF758FBFF20FEF755FB39
:102090000020FEF752FBC220FEF746FB0A20FEF7A7
:1020A0004CFB0020FEF749FB0420FEF746FB002016
:1020B000FEF743FBC320FEF737FB3C20FEF73DFB5A
:1020C0000020FEF73AFB3A20FEF737FB0020FEF730
:1020D00034FB3920FEF731FB0020FEF72EFB3720C2
:1020E000FEF72BFB0020FEF728FB3C20FEF725FB2C
:1020F0000020FEF722FB3620FEF71FFB0020FEF734
:102100001CFB3220FEF719FB0020FEF716FB2F20E8
:10211000FEF713FB0020FEF710FB2C20FEF70DFB53
:102120000020FEF70AFB2920FEF707FB0020FEF740
:1021300004FB2620FEF701FB0020FEF7FEFA242018
:10214000FEF7FBFA0020FEF7F8FA2420FEF7F5FA76
:102150000020FEF7F2FA2320FEF7EFFA0020FEF748
:10216000ECFA3C20FEF7E9FA0020FEF7E6FA36200A
:10217000FEF7E3FA0020FEF7E0FA3220FEF7DDFA80
:102180000020FEF7DAFA2F20FEF7D7FA0020FEF73C
:10219000D4FA2C20FEF7D1FA0020FEF7CEFA29203F
:1021A000FEF7CBFA0020FEF7C8FA2620FEF7C5FAA4
:1021B0000020FEF7C2FA2420FEF7BFFA0020FEF747
:1021C000BCFA2420FEF7B9FA0020FEF7B6FA232065
:1021D000FEF7B3FA0020FEF7B0FAC420FEF7A4FA27
:1021E0006220FEF7AAFA0020FEF7A7FA0520FEF704
:1021F000A4FA0020FEF7A1FA8420FEF79EFA002040
:10220000FEF79BFAF020FEF798FA0020FEF795FA09
:102210001820FEF792FA0020FEF78FFAA420FEF7AE
:102220008CFA0020FEF789FA1820FEF786FA0020C3
:10223000FEF783FA5020FEF780FA0020FEF77DFAC1
:102240000C20FEF77AFA0020FEF777FA1720FEF747
:1022500074FA0020FEF771FA9520FEF76EFA00205E
:10226000FEF76BFAF320FEF768FA0020FEF765FA36
:10227000E620FEF762FA0020FEF75FFAC520FEF7BF
:1022800053FA3220FEF759FA0020FEF756FA44209E
:10229000FEF753FA0020FEF750FA6520FEF74DFADC
:1022A0000020FEF74AFA7620FEF747FA0020FEF7F4
:1022B00044FA8820FEF741FA0020FEF73EFAC620D5
:1022C000FEF732FA2020FEF738FA0020FEF735FA42
:1022D0001720FEF732FA0020FEF72FFA0120FEF752
:1022E0002CFA0020FEF729FAC720FEF71DFA00207D
:1022F000FEF723FA0020FEF720FA0020FEF71DFA71
:102300000020FEF71AFAC820FEF70EFA0020FEF7AA
:1023100014FA0020FEF711FA0020FEF70EFA002052
:10232000FEF70BFAC920FEF7FFF90020FEF705FAC9
:102330000020FEF702FA0020FEF7FFF90020FEF76A
:10234000FCF90020FEF7F9F90020FEF7F6F900206D
:10235000FEF7F3F90020FEF7F0F90020FEF7EDF9A3
:102360000020FEF7EAF90020FEF7E7F90020FEF76B
:10237000E4F90020FEF7E1F90020FEF7DEF9002085
:10238000FEF7DBF90020FEF7D8F9E020FEF7CCF9E4
:102390001620FEF7D2F90020FEF7CFF91C20FEF739
:1023A000CCF90020FEF7C9F92120FEF7C6F900207C
:1023B000FEF7C3F93620FEF7C0F90020FEF7BDF99D
:1023C0004620FEF7BAF90020FEF7B7F95220FEF7D3
:1023D000B4F90020FEF7B1F96420FEF7AEF9002051
:1023E000FEF7ABF97A20FEF7A8F90020FEF7A5F971
:1023F0008B20FEF7A2F90020FEF79FF99920FEF747
:102400009CF90020FEF799F9A820FEF796F9002024
:10241000FEF793F9B920FEF790F90020FEF78DF949
:10242000C420FEF78AF90020FEF787F9CA20FEF7DC
:1024300084F90020FEF781F9D220FEF77EF9002012
:10244000FEF77BF9D920FEF778F90020FEF775F941
:10245000E020FEF772F90020FEF76FF9F320FEF797
:102460006CF90020FEF769F9E120FEF75DF916200E
:10247000FEF763F90020FEF760F91C20FEF75DF916
:102480000020FEF75AF92220FEF757F90020FEF748
:1024900054F93620FEF751F90020FEF74EF9452099
:1024A000FEF74BF90020FEF748F95220FEF745F9F8
:1024B0000020FEF742F96420FEF73FF90020FEF706
:1024C0003CF97A20FEF739F90020FEF736F98B2027
:1024D000FEF733F90020FEF730F99920FEF72DF9C9
:1024E0000020FEF72AF9A820FEF727F90020FEF7C2
:1024F00024F9B920FEF721F90020FEF71EF9C420C7
:10250000FEF71BF90020FEF718F9CA20FEF715F9AF
:102510000020FEF712F9D220FEF70FF90020FEF797
:102520000CF9D820FEF709F90020FEF706F9E020A3
:10253000FEF703F90020FEF700F9F320FEF7FDF89F
:102540000020FEF7FAF8E220FEF7EEF80520FEF78D
:10255000F4F80020FEF7F1F80B20FEF7EEF800206B
:10256000FEF7EBF81B20FEF7E8F80020FEF7E5F891
:102570003420FEF7E2F80020FEF7DFF84420FEF7F3
:10258000DCF80020FEF7D9F84F20FEF7D6F800203F
:10259000FEF7D3F86120FEF7D0F80020FEF7CDF863
:1025A0007920FEF7CAF80020FEF7C7F88820FEF76A
:1025B000C4F80020FEF7C1F89720FEF7BEF800200F
:1025C000FEF7BBF8A620FEF7B8F80020FEF7B5F836
:1025D000B720FEF7B2F80020FEF7AFF8C220FEF7F2
:1025E000ACF80020FEF7A9F8C720FEF7A6F80020F7
:1025F000FEF7A3F8D120FEF7A0F80020FEF79DF823
:10260000D620FEF79AF80020FEF797F8DD20FEF7B7
:1026100094F80020FEF791F8F320FEF78EF80020E2
:10262000FEF78BF8E320FEF77FF80520FEF785F82C
:102630000020FEF782F80A20FEF77FF80020FEF760
:102640007CF81C20FEF779F80020FEF776F833209E
:10265000FEF773F80020FEF770F84420FEF76DF8DF
:102660000020FEF76AF85020FEF767F80020FEF71A
:1026700064F86220FEF761F80020FEF75EF878202B
:10268000FEF75BF80020FEF758F88820FEF755F8B3
:102690000020FEF752F89720FEF74FF80020FEF7D3
:1026A0004CF8A620FEF749F80020FEF746F8B720C0
:1026B000FEF743F80020FEF740F8C220FEF73DF891
:1026C0000020FEF73AF8C720FEF737F80020FEF7A3
:1026D00034F8D120FEF731F80020FEF72EF8D5208F
:1026E000FEF72BF80020FEF728F8DD20FEF725F88E
:1026F0000020FEF722F8F320FEF71FF80020FEF777
:102700001CF8E420FEF710F80120FEF716F8002070
:10271000FEF713F80120FEF710F80020FEF70DF881
:102720000220FEF70AF80020FEF707F82A20FEF73D
:1027300004F80020FEF701F83C20FDF7FEFF002022
:10274000FDF7FBFF4B20FDF7F8FF0020FDF7F5FF3D
:102750005D20FDF7F2FF0020FDF7EFFF7420FDF78D
:10276000ECFF0020FDF7E9FF8420FDF7E6FF0020E5
:10277000FDF7E3FF9320FDF7E0FF0020FDF7DDFF0D
:10278000A220FDF7DAFF0020FDF7D7FFB320FDF709
:10279000D4FF0020FDF7D1FFBE20FDF7CEFF0020C3
:1027A000FDF7CBFFC420FDF7C8FF0020FDF7C5FFF4
:1027B000CD20FDF7C2FF0020FDF7BFFFD320FDF7BE
:1027C000BCFF0020FDF7B9FFDD20FDF7B6FF0020BC
:1027D000FDF7B3FFF320FDF7B0FF0020FDF7ADFFDD
:1027E000E520FDF7A1FF0020FDF7A7FF0020FDF782
:1027F000A4FF0020FDF7A1FF0020FDF79EFF0220AF
:10280000FDF79BFF0020FDF798FF2920FDF795FFBE
:102810000020FDF792FF3C20FDF78FFF0020FDF721
:102820008CFF4B20FDF789FF0020FDF786FF5D2020
:10283000FDF783FF0020FDF780FF7420FDF77DFF8B
:102840000020FDF77AFF8420FDF777FF0020FDF7D9
:1028500074FF9320FDF771FF0020FDF76EFFA220AB
:10286000FDF76BFF0020FDF768FFB320FDF765FF64
:102870000020FDF762FFBE20FDF75FFF0020FDF79F
:102880005CFFC420FDF759FF0020FDF756FFCD2067
:10289000FDF753FF0020FDF750FFD320FDF74DFF5C
:1028A0000020FDF74AFFDC20FDF747FF0020FDF781
:1028B00044FFF320FDF741FF0020FDF73EFFE62037
:1028C000FDF732FF1120FDF738FF0020FDF735FF3F
:1028D0003420FDF732FF0020FDF72FFF5620FDF7D3
:1028E0002CFF0020FDF729FF7620FDF726FF0020B2
:1028F000FDF723FF7720FDF720FF0020FDF71DFFE8
:102900006620FDF71AFF0020FDF717FF8820FDF76E
:1029100014FF0020FDF711FF9920FDF70EFF0020A6
:10292000FDF70BFFBB20FDF708FF0020FDF705FFBB
:102930009920FDF702FF0020FDF7FFFE6620FDF75E
:10294000FCFE0020FDF7F9FE5520FDF7F6FE002005
:10295000FDF7F3FE5520FDF7F0FE0020FDF7EDFE3C
:102960004520FDF7EAFE0020FDF7E7FE4320FDF7D6
:10297000E4FE0020FDF7E1FE4420FDF7DEFE00202E
:10298000FDF7DBFEE720FDF7CFFE3220FDF7D5FE99
:102990000020FDF7D2FE5520FDF7CFFE0020FDF709
:1029A000CCFE7620FDF7C9FE0020FDF7C6FE6620AE
:1029B000FDF7C3FE0020FDF7C0FE6720FDF7BDFE5A
:1029C0000020FDF7BAFE6720FDF7B7FE0020FDF7F7
:1029D000B4FE8720FDF7B1FE0020FDF7AEFE992082
:1029E000FDF7ABFE0020FDF7A8FEBB20FDF7A5FE1E
:1029F0000020FDF7A2FE9920FDF79FFE0020FDF7C5
:102A00009CFE7720FDF799FE0020FDF796FE4420FE
:102A1000FDF793FE0020FDF790FE5620FDF78DFE9A
:102A20000020FDF78AFE2320FDF787FE0020FDF73A
:102A300084FE3320FDF781FE0020FDF77EFE452059
:102A4000FDF77BFE0020FDF778FEE820FDF76CFE29
:102A50000020FDF772FE0020FDF76FFE9920FDF7C4
:102A60006CFE0020FDF769FE8720FDF766FE002062
:102A7000FDF763FE8820FDF760FE0020FDF75DFE98
:102A80007720FDF75AFE0020FDF757FE6620FDF780
:102A900054FE0020FDF751FE8820FDF74EFE002079
:102AA000FDF74BFEAA20FDF748FE0020FDF745FE8E
:102AB000BB20FDF742FE0020FDF73FFE9920FDF709
:102AC0003CFE0020FDF739FE6620FDF736FE0020B3
:102AD000FDF733FE5520FDF730FE0020FDF72DFEFB
:102AE0005520FDF72AFE0020FDF727FE4420FDF7C4
:102AF00024FE0020FDF721FE4420FDF71EFE0020ED
:102B0000FDF71BFE5520FDF718FE0020FDF715FE12
:102B1000E920FDF709FEAA20FDF70FFE0020FDF7D2
:102B20000CFE0020FDF709FE0020FDF706FE002048
:102B3000FDF7FAFDAA20FDF700FECF20FDF7F4FD1A
:102B40000020FDF7FAFD0020FDF7F7FD0020FDF75E
:102B5000F4FD0020FDF7F1FD0020FDF7EEFD002063
:102B6000FDF7EBFD0020FDF7E8FD0020FDF7E5FD9A
:102B70000020FDF7E2FD0020FDF7DFFD0020FDF75E
:102B8000DCFD0020FDF7D9FD0020FDF7D6FD00207B
:102B9000FDF7D3FD0020FDF7D0FD0020FDF7CDFDB2
:102BA0000020FDF7CAFDF020FDF7BEFD0020FDF777
:102BB000C4FD5020FDF7C1FD0020FDF7BEFD002043
:102BC000FDF7BBFD0020FDF7B8FDF320FDF7ACFDE0
:102BD0000020FDF7B2FDF920FDF7A6FD0620FDF768
:102BE000ACFD1020FDF7A9FD2920FDF7A6FD002072
:102BF000FDF7A3FD3A20FDF797FD5520FDF79DFD5C
:102C00001120FDF791FD642006F01DFF2920FDF73E
:102C10008BFD3520FDF788FD0020FDF78EFD51204E
:102C2000FDF782FDFF20FDF788FD5320FDF77CFDB9
:102C30002C20FDF782FD5520FDF776FD8220FDF763
:102C40007CFD2C20FDF770FD02F0E9B8FE4880887D
:102C500045F2105188427DD155214FF47040FDF767
:102C60007EFDAA214FF20100FDF779FD52214FF2BE
:102C70000200FDF774FD08214FF20300FDF76FFD20
:102C800001214FF20400FDF76AFD0D214FF43040A1
:102C9000FDF765FD0D214BF20100FDF760FD0D21F3
:102CA0004BF20200FDF75BFD34214FF43640FDF797
:102CB00056FD34214BF20160FDF751FD34214BF2FA
:102CC0000260FDF74CFD0D214FF43140FDF747FD4B
:102CD0000D214BF20110FDF742FD0D214BF20210C8
:102CE000FDF73DFD34214FF43740FDF738FD342129
:102CF0004BF20170FDF733FD34214BF20270FDF70A
:102D00002EFD00214FF43240FDF729FD00214BF24A
:102D10000120FDF724FD00214BF20220FDF71FFDED
:102D200024214FF43840FDF71AFD24214BF6010011
:102D3000FDF715FD24214BF60200FDF710FD0121E2
:102D40004FF43F40FDF70BFD0F214FF43340FDF7EB
:102D500006FD00E0FDE30F214BF20130FDF7FFFC23
:102D60000F214BF20230FDF7FAFC34214FF43940C9
:102D7000FDF7F5FC34214BF60110FDF7F0FC342192
:102D80004BF60210FDF7EBFC08214FF43540FDF740
:102D9000E6FC08214BF20150FDF7E1FC08214BF263
:102DA0000250FDF7DCFC03214FF44240FDF7D7FC55
:102DB00024214FF43A40FDF7D2FC24214BF60120A8
:102DC000FDF7CDFC24214BF60220FDF7C8FC0021C5
:102DD0004FF43C40FDF7C3FC78214BF60140FDF772
:102DE000BEFC00214BF60240FDF7B9FC00214FF478
:102DF0003D40FDF7B4FC78214BF60150FDF7AFFCE8
:102E000000214BF60250FDF7AAFC00214FF43E4092
:102E1000FDF7A5FC64214BF60160FDF7A0FC002145
:102E20004FF45140FDF79BFC33214DF20110FDF7AB
:102E300096FC00214DF20210FDF791FC34214DF279
:102E40000310FDF78CFC00214DF20410FDF787FC08
:102E50003A214DF20510FDF782FC00214DF20610DB
:102E6000FDF77DFC4A214DF20710FDF778FC0021AB
:102E70004DF20810FDF773FC5C214DF20910FDF7CF
:102E80006EFC00214DF20A10FDF769FC81214DF224
:102E90000B10FDF764FC00214DF20C10FDF75FFCF8
:102EA000A6214DF20D10FDF75AFC00214DF20E1037
:102EB000FDF755FCE5214DF20F10FDF750FC012107
:102EC0004DF21010FDF74BFC13214DF21110FDF7E0
:102ED00046FC01214DF21210FDF741FC54214DF248
:102EE0001310FDF73CFC01214DF21410FDF737FCE7
:102EF00082214DF21510FDF732FC01214DF2161022
:102F0000FDF72DFCCA214DF21710FDF728FC022118
:102F10004DF21810FDF723FC00214DF21910FDF7BA
:102F20001EFC02214DF21A10FDF719FC01214DF291
:102F30001B10FDF714FC02214DF21C10FDF70FFCD5
:102F400034214DF21D10FDF70AFC02214DF21E1036
:102F5000FDF705FC67214DF21F10FDF700FC022173
:102F60004DF22010FDF7FBFB84214DF22110FDF7FF
:102F7000F6FB02214DF22210FDF7F1FBA4214DF2E8
:102F80002310FDF7ECFB02214DF22410FDF7E7FBC7
:102F9000B7214DF22510FDF7E2FB02214DF226107C
:102FA000FDF7DDFBCF214DF22710FDF7D8FB022105
:102FB0004DF22810FDF7D3FBDE214DF22910FDF76D
:102FC000CEFB02214DF22A10FDF7C9FBF2214DF292
:102FD0002B10FDF7C4FB02214DF22C10FDF7BFFBB7
:102FE000FE214DF22D10FDF7BAFB03214DF22E10FC
:102FF000FDF7B5FB10214DF22F10FDF7B0FB0321BB
:103000004DF23010FDF7ABFB33214DF23110FDF7DF
:10301000A6FB03214DF23210FDF7A1FB6D214DF20D
:103020003310FDF79CFB00214FF45240FDF797FB56
:1030300033214DF20120FDF792FB00214DF20220D9
:10304000FDF78DFB342101E0080F00204DF2032035
:10305000FDF785FB00214DF20420FDF780FB3A21AE
:103060004DF20520FDF77BFB00214DF20620FDF718
:1030700076FB4A214DF20720FDF771FB00214DF24E
:103080000820FDF76CFB5C214DF20920FDF767FB82
:1030900000214DF20A20FDF762FB81214DF20B2049
:1030A000FDF75DFB00214DF20C20FDF758FBA6213A
:1030B0004DF20D20FDF753FB00214DF20E20FDF7E0
:1030C0004EFBE5214DF20F20FDF749FB01214DF2AA
:1030D0001020FDF744FB13214DF21120FDF73FFBBB
:1030E00001214DF21220FDF73AFB54214DF213203D
:1030F000FDF735FB01214DF21420FDF730FB822155
:103100004DF21520FDF72BFB01214DF21620FDF7A6
:1031100026FBCA214DF21720FDF721FB02214DF2BB
:103120001820FDF71CFB00214DF21920FDF717FBBD
:1031300002214DF21A20FDF712FB01214DF21B2056
:10314000FDF70DFB02214DF21C20FDF708FB342199
:103150004DF21D20FDF703FB02214DF21E20FDF76D
:10316000FEFA67214DF21F20FDF7F9FA02214DF218
:103170002020FDF7F4FA84214DF22120FDF7EFFA2B
:1031800002214DF22220FDF7EAFAA4214DF223207C
:10319000FDF7E5FA02214DF22420FDF7E0FAB72110
:1031A0004DF22520FDF7DBFA02214DF22620FDF736
:1031B000D6FACF214DF22720FDF7D1FA02214DF2A8
:1031C0002820FDF7CCFADE214DF22920FDF7C7FAC1
:1031D00002214DF22A20FDF7C2FAF2214DF22B20F6
:1031E000FDF7BDFA02214DF22C20FDF7B8FAFE21C1
:1031F0004DF22D20FDF7B3FA03214DF22E20FDF7FD
:10320000AEFA10214DF22F20FDF7A9FA03214DF25D
:103210003020FDF7A4FA33214DF23120FDF79FFA5B
:1032200003214DF23220FDF79AFA6D214DF2332041
:10323000FDF795FA00214FF45340FDF790FA332142
:103240004DF20130FDF78BFA00214DF20230FDF70F
:1032500086FA34214DF20330FDF781FA00214DF258
:103260000430FDF77CFA3A214DF20530FDF777FA8C
:1032700000214DF20630FDF772FA4A214DF2073077
:10328000FDF76DFA00214DF20830FDF768FA5C2178
:103290004DF20930FDF763FA00214DF20A30FDF7D7
:1032A0005EFA81214DF20B30FDF759FA00214DF203
:1032B0000C30FDF754FAA6214DF20D30FDF74FFA10
:1032C00000214DF20E30FDF74AFAE5214DF20F30A4
:1032D000FDF745FA01214DF21030FDF740FA1321B8
:1032E0004DF21130FDF73BFA01214DF21230FDF79E
:1032F00036FA54214DF21330FDF731FA01214DF227
:103300001430FDF72CFA82214DF21530FDF727FA23
:1033100001214DF21630FDF722FACA214DF2173085
:10332000FDF71DFA02214DF21830FDF718FA0021C1
:103330004DF21930FDF713FA02214DF21A30FDF764
:103340000EFA01214DF21B30FDF709FA02214DF270
:103350001C30FDF704FA34214DF21D30FDF7FFF962
:1033600002214DF21E30FDF7FAF967214DF21F30B0
:10337000FDF7F5F902214DF22030FDF7F0F9842137
:103380004DF22130FDF7EBF902214DF22230FDF72D
:10339000E6F9A4214DF22330FDF7E1F902214DF2C7
:1033A0002430FDF7DCF9B7214DF22530FDF7D7F9D0
:1033B00002214DF22630FDF7D2F9CF214DF2273010
:1033C000FDF7CDF902214DF22830FDF7C8F9DE21D5
:1033D0004DF22930FDF7C3F902214DF22A30FDF7F5
:1033E000BEF9F2214DF22B30FDF7B9F902214DF271
:1033F0002C30FDF7B4F9FE214DF22D30FDF7AFF979
:1034000003214DF22E30FDF7AAF910214DF22F3095
:10341000FDF7A5F903214DF23030FDF7A0F9332176
:103420004DF23130FDF79BF903214DF23230FDF7BB
:1034300096F96D214DF23330FDF791F900214FF4EB
:103440005440FDF78CF933214DF20140FDF787F927
:1034500000214DF20240FDF782F934214DF2034084
:10346000FDF77DF900214DF20440FDF778F93A218E
:103470004DF20540FDF773F900214DF20640FDF7CE
:103480006EF94A214DF20740FDF769F900214DF22E
:103490000840FDF764F95C214DF20940FDF75FF942
:1034A00000214DF20A40FDF75AF981214DF20B40FF
:1034B000FDF755F900214DF20C40FDF750F9A6211A
:1034C0004DF20D40FDF74BF900214DF20E40FDF796
:1034D00046F9E5214DF20F40FDF741F901214DF28A
:1034E0001040FDF73CF913214DF21140FDF737F97B
:1034F00001214DF21240FDF732F954214DF21340F3
:10350000FDF72DF901214DF21440FDF728F9822134
:103510004DF21540FDF723F901214DF21640FDF75C
:103520001EF9CA214DF21740FDF719F902214DF29B
:103530001840FDF714F900214DF21940FDF70FF97D
:1035400002214DF21A40FDF70AF901214DF21B400C
:1035500000E006E3FDF703F902214DF21C40FDF700
:10356000FEF834214DF21D40FDF7F9F802214DF22D
:103570001E40FDF7F4F867214DF21F40FDF7EFF80C
:1035800002214DF22040FDF7EAF884214DF221405E
:10359000FDF7E5F802214DF22240FDF7E0F8A42105
:1035A0004DF22340FDF7DBF802214DF22440FDF7F8
:1035B000D6F8B7214DF22540FDF7D1F802214DF2A2
:1035C0002640FDF7CCF8CF214DF22740FDF7C7F894
:1035D00002214DF22840FDF7C2F8DE214DF22940CC
:1035E000FDF7BDF802214DF22A40FDF7B8F8F221AF
:1035F0004DF22B40FDF7B3F802214DF22C40FDF7C0
:10360000AEF8FE214DF22D40FDF7A9F803214DF251
:103610002E40FDF7A4F810214DF22F40FDF79FF842
:1036200003214DF23040FDF79AF833214DF231403D
:10363000FDF795F803214DF23240FDF790F86D212A
:103640004DF23340FDF78BF800214FF45540FDF764
:1036500086F833214DF20150FDF781F800214DF23B
:103660000250FDF77CF834214DF20350FDF777F856
:1036700000214DF20450FDF772F83A214DF2055049
:10368000FDF76DF800214DF20650FDF768F84A216C
:103690004DF20750FDF763F800214DF20850FDF799
:1036A0005EF85C214DF20950FDF759F800214DF20A
:1036B0000A50FDF754F881214DF20B50FDF74FF8F9
:1036C00000214DF20C50FDF74AF8A6214DF20D50A5
:1036D000FDF745F800214DF20E50FDF740F8E521C9
:1036E0004DF20F50FDF73BF801214DF21050FDF760
:1036F00036F813214DF21150FDF731F801214DF24A
:103700001250FDF72CF854214DF21350FDF727F815
:1037100001214DF21450FDF722F882214DF215508F
:10372000FDF71DF801214DF21650FDF718F8CA21DA
:103730004DF21750FDF713F802214DF21850FDF726
:103740000EF800214DF21950FDF709F802214DF253
:103750001A50FDF704F801214DF21B50FCF7FFFF52
:1037600002214DF21C50FCF7FAFF34214DF21D509E
:10377000FCF7F5FF02214DF21E50FCF7F0FF672128
:103780004DF21F50FCF7EBFF02214DF22050FCF7E9
:10379000E6FF84214DF22150FCF7E1FF02214DF2BA
:1037A0002250FCF7DCFFA4214DF22350FCF7D7FF99
:1037B00002214DF22450FCF7D2FFB7214DF22550E3
:1037C000FCF7CDFF02214DF22650FCF7C8FFCF21B8
:1037D0004DF22750FCF7C3FF02214DF22850FCF7B1
:1037E000BEFFDE214DF22950FCF7B9FF02214DF258
:1037F0002A50FCF7B4FFF2214DF22B50FCF7AFFF3B
:1038000002214DF22C50FCF7AAFFFE214DF22D5063
:10381000FCF7A5FF03214DF22E50FCF7A0FF10216D
:103820004DF22F50FCF79BFF03214DF23050FCF777
:1038300096FF33214DF23150FCF791FF03214DF2F9
:103840003250FCF78CFF6D214DF23350FCF787FFAF
:1038500000214FF45640FCF782FF33214DF2016006
:10386000FCF77DFF00214DF20260FCF778FF342168
:103870004DF20360FCF773FF00214DF20460FCF78A
:103880006EFF3A214DF20560FCF769FF00214DF211
:103890000660FCF764FF4A214DF20760FCF75FFF0A
:1038A00000214DF20860FCF75AFF5C214DF20960DF
:1038B000FCF755FF00214DF20A60FCF750FF812113
:1038C0004DF20B60FCF74BFF00214DF20C60FCF752
:1038D00046FFA6214DF20D60FCF741FF00214DF29D
:1038E0000E60FCF73CFFE5214DF20F60FCF737FF5F
:1038F00001214DF21060FCF732FF13214DF21160EF
:10390000FCF72DFF01214DF21260FCF728FF542136
:103910004DF21360FCF723FF01214DF21460FCF718
:103920001EFF82214DF21560FCF719FF01214DF2B7
:103930001660FCF714FFCA214DF21760FCF70FFF69
:1039400002214DF21860FCF70AFF00214DF21960C8
:10395000FCF705FF02214DF21A60FCF700FF012180
:103960004DF21B60FCF7FBFE02214DF21C60FCF7E0
:10397000F6FE34214DF21D60FCF7F1FE02214DF2FE
:103980001E60FCF7ECFE67214DF21F60FCF7E7FEBE
:1039900002214DF22060FCF7E2FE84214DF221600D
:1039A000FCF7DDFE02214DF22260FCF7D8FEA421D7
:1039B0004DF22360FCF7D3FE02214DF22460FCF7A8
:1039C000CEFEB7214DF22560FCF7C9FE02214DF273
:1039D0002660FCF7C4FECF214DF22760FCF7BFFE46
:1039E00002214DF22860FCF7BAFEDE214DF229607B
:1039F000FCF7B5FE02214DF22A60FCF7B0FEF22181
:103A00004DF22B60FCF7ABFE02214DF22C60FCF76F
:103A1000A6FEFE214DF22D60FCF7A1FE03214DF222
:103A20002E60FCF79CFE10214DF22F60FCF797FEF4
:103A300003214DF23060FCF792FE33214DF23160EC
:103A4000FCF78DFE03214DF23260FCF788FE6D21FC
:103A50004DF23360FCF783FE55214FF47040FCF7C4
:103A60007EFEAA214FF20100FCF779FE52214FF2AF
:103A70000200FCF774FE08214FF20300FCF76FFE12
:103A800000214FF20400FCF76AFECC214FF43140D4
:103A9000FCF765FE00214BF20110FCF760FE0521EA
:103AA0004FF43640FCF75BFE70214FF43740FCF7D3
:103AB00056FE70214BF20170FCF751FE01214FF4CC
:103AC0003840FCF74CFE03214BF60100FCF747FEA3
:103AD00003214BF60200FCF742FE03214BF60300E4
:103AE000FCF73DFE02214FF43C40FCF738FE00217C
:103AF0004BF60140FCF733FE00214BF60240FCF789
:103B00002EFED0214FF44940FCF729FE02214CF64D
:103B10000110FCF724FE50214CF60210FCF71FFEAA
:103B200050214CF60310FCF71AFE50214CF60410FD
:103B3000FCF715FE00214FF45450FCF710FE552100
:103B40004FF46850FCF70BFE4FF48850FCF7ECFD87
:103B5000782005F056FF4FF42450FCF7E5FD01F006
:103B60005EB9FE48808849F2253188427ED147F609
:103B7000F001E520FCF7F3FD4FF480710120FCF724
:103B8000EEFD4FF4E0610220FCF7E9FD41F2300167
:103B90000320FCF7E4FD00210420FCF7E0FD40F2E7
:103BA00002210820FCF7DBFD00210920FCF7D7FDEE
:103BB00000210A20FCF7D3FD00210C20FCF7CFFDEB
:103BC00000210D20FCF7CBFD00210F20FCF7C7FDE5
:103BD00000211020FCF7C3FD07211120FCF7BFFDD9
:103BE00000211220FCF7BBFD00211320FCF7B7FDDC
:103BF00000210720FCF7B3FD41F290611020FCF793
:103C0000AEFD40F227211120FCF7A9FD9D211220D5
:103C1000FCF7A5FD4FF4C8511320FCF7A0FD2521AA
:103C20002920FCF79CFD0D212B20FCF798FD072196
:103C30003020FCF794FD40F203313120FCF78FFD7A
:103C400003213220FCF78BFD40F206213520FCF7E2
:103C500086FD08213620FCF782FD40F20641372020
:103C6000FCF77DFD4FF44171382000E057E0FCF790
:103C700076FD07213920FCF772FD40F202613C20FD
:103C8000FCF76DFD08213D20FCF769FD0021502067
:103C9000FCF765FDEF215120FCF761FD002152206A
:103CA000FCF75DFD40F23F115320FCF758FD4FF447
:103CB00027416020FCF753FD01216120FCF74FFDF7
:103CC00000216A20FCF74BFD00218020FCF747FD16
:103CD00000218120FCF743FD00218220FCF73FFDFD
:103CE00000218320FCF73BFD00218420FCF737FDF9
:103CF00000218520FCF733FD10219020FCF72FFDDB
:103D00004FF4C0619220FCF72AFD40F233110720E6
:103D1000FCF725FD22210020FCF721FD1FE78F483D
:103D2000808849F2283188427ED141F28F01EC200F
:103D3000FCF715FD41F23421EF20FCF710FD4FF4A4
:103D400080710120FCF70BFD4FF4E0610220FCF7CD
:103D500006FD41F230010320FCF701FD00210420A3
:103D6000FCF7FDFC40F202210820FCF7F8FC0021E2
:103D70000920FCF7F4FC00210A20FCF7F0FC0121EB
:103D80000C20FCF7ECFC00210D20FCF7E8FC0021E6
:103D90000F20FCF7E4FC00211020FCF7E0FC0721D9
:103DA0001120FCF7DCFC00211220FCF7D8FC0021DC
:103DB0001320FCF7D4FC01210720FCF7D0FC3220B3
:103DC00005F041FE41F290411020FCF7C8FC40F2A2
:103DD00027211120FCF7C3FC322005F034FE8A2194
:103DE0001220FCF7BCFC322005F02DFE4FF4D05120
:103DF0001320FCF7B4FC06212920FCF7B0FC0D21B0
:103E00002B20FCF7ACFC322005F01DFE0021202009
:103E1000FCF7A5FC00212120FCF7A1FC322005F0D5
:103E200012FE0021302000E074E0FCF798FC40F224
:103E300004613120FCF793FC40F205313220FCF79D
:103E40008EFC00213520FCF78AFC40F60941362023
:103E5000FCF785FC4FF401713720FCF780FC40F241
:103E600001313820FCF77BFC40F207713920FCF768
:103E700076FC00213C20FCF772FC40F60A213D2034
:103E8000FCF76DFC322005F0DEFD00215020FCF730
:103E900066FCEF215120FCF762FC00215220FCF768
:103EA0005EFC40F23F115320FCF759FC4FF42741D0
:103EB0006020FCF754FC01216120FCF750FC00213C
:103EC0006A20FCF74CFC00218020FCF748FC002114
:103ED0008120FCF744FC00218220FCF740FC0021FB
:103EE0008320FCF73CFC00218420FCF738FC0021F7
:103EF0008520FCF734FC10219020FCF730FC4FF4B7
:103F0000C0619220FCF72BFC40F233110720FCF734
:103F100026FC24E61148808849F2203188427DD170
:103F200000210846FCF71BFC4FF480710120FCF7D0
:103F300016FC4FF4E0610220FCF711FC41F2300165
:103F40000320FCF70CFC00210420FCF708FC40F2E5
:103F500002210820FCF703FC002101E0080F0020EB
:103F60000920FCF7FCFB00210A20FCF7F8FB0121EB
:103F70000C20FCF7F4FB00210D20FCF7F0FB0021E6
:103F80000F20FCF7ECFB322005F05DFD40F2011143
:103F90000720FCF7E4FB322005F055FD4FF4865175
:103FA0001020FCF7DCFB07211120FCF7D8FB4FF4B5
:103FB00088711220FCF7D3FB4FF430611320FCF71B
:103FC000CEFB00212920FCF7CAFB44F210012B2074
:103FD000FCF7C5FB00215020FCF7C1FBEF2151206D
:103FE000FCF7BDFB00215220FCF7B9FB40F23F116A
:103FF0005320FCF7B4FB4FF41C516020FCF7AFFBDF
:1040000001216120FCF7ABFB00216A20FCF7A7FB34
:1040100000218020FCF7A3FB002100E031E081209B
:10402000FCF79DFB00218220FCF799FB00218320F7
:10403000FCF795FB00218420FCF791FB00218520F3
:10404000FCF78DFB10219020FCF789FB00219220CA
:10405000FCF785FB01219320FCF781FB4FF488716D
:104060009520FCF77CFB00219720FCF778FB0021D2
:104070009820FCF774FB40F273110720FCF76FFBEC
:104080006DE5FE48808849F2313188427DD141F2A8
:104090001401E720FCF763FB4FF480710120FCF76B
:1040A0005EFB4FF400710220FCF759FB41F238012E
:1040B0000320FCF754FB40F202210820FCF74FFBE1
:1040C00000210920FCF74BFB00210A20FCF747FBED
:1040D00000210C20FCF743FB00210D20FCF73FFBE7
:1040E00000210F20FCF73BFB00211020FCF737FBE1
:1040F00007211120FCF733FB00211220FCF72FFBD6
:1041000000211320FCF72BFBC82005F09CFC41F29A
:1041100090611020FCF723FB40F227211120FCF7CF
:104120001EFB322005F08FFC0C211220FCF717FB40
:10413000322005F088FC4FF400611320FCF70FFBE0
:1041400011212920FCF70BFB0B212B20FCF707FB8F
:10415000322005F078FC00212020FCF700FB40F223
:104160003F112120FCF7FBFA00213020FCF7F7FA81
:104170004FF483713120FCF7F2FA00213220FCF772
:10418000EEFA4FF40171352000E064E0FCF7E7FA45
:1041900041F20A613620FCF7E2FA40F2077137205B
:1041A000FCF7DDFA4FF483713820FCF7D8FA40F2BF
:1041B00007713920FCF7D3FA40F202413C20FCF7AA
:1041C000CEFA40F60F413D20FCF7C9FA00215020FD
:1041D000FCF7C5FAEF215120FCF7C1FA002152206B
:1041E000FCF7BDFA40F23F115320FCF7B8FA4FF448
:1041F0001C516020FCF7B3FA01216120FCF7AFFAF3
:1042000000216A20FCF7ABFA00218020FCF7A7FA16
:1042100000218120FCF7A3FA00218220FCF79FFAFD
:1042200000218320FCF79BFA00218420FCF797FAF9
:1042300000218520FCF793FA10219020FCF78FFADB
:104240004FF4C0619220FCF78AFA40F23311072044
:10425000FCF785FA83E48948808845F20841884262
:104260007ED14FF480710120FCF779FA4FF4E061C0
:104270000220FCF774FA41F230010320FCF76FFAD8
:1042800000210420FCF76BFA40F207210820FCF71C
:1042900066FA00210920FCF762FA00210A20FCF7E7
:1042A0005EFA00210C20FCF75AFA00210D20FCF7E1
:1042B00056FA00210F20FCF752FA142005F0C3FB38
:1042C00041F2B0611020FCF74AFA01211120FCF7FD
:1042D00046FA01211720FCF742FA4FF49C71122094
:1042E000FCF73DFA4FF400611320FCF738FA09217E
:1042F0002920FCF734FA09212A20FCF730FA0021A2
:10430000A420FCF72CFA00215020FCF728FAEF211A
:104310005120FCF724FA00215220FCF720FA40F249
:104320003F115320FCF71BFA4FF41C516020FCF79F
:1043300016FA01216120FCF712FA00216A20FCF72D
:104340000EFA00218020FCF70AFA00218120FCF7F8
:1043500006FA00218220FCF702FA0021832000E007
:1043600023E0FCF7FCF900218420FCF7F8F9002198
:104370008520FCF7F4F913219020FCF7F0F90021D7
:104380009220FCF7ECF903219320FCF7E8F94FF4B5
:1043900088719520FCF7E3F940F273110720FCF7D0
:1043A000DEF9322005F04FFBB8E43448808841F252
:1043B000055188427ED100210720FCF7D0F9322038
:1043C00005F041FB4FF48E711220FCF7C8F9012172
:1043D000A420FCF7C4F90F210820FCF7C0F908213C
:1043E0000A20FCF7BCF908210D20FCF7B8F940F2CF
:1043F00007713020FCF7B3F907213120FCF7AFF942
:1044000040F203613220FCF7AAF94FF4E061332057
:10441000FCF7A5F940F202213420FCF7A0F90221B3
:104420003520FCF79CF941F60F713620FCF797F91F
:1044300040F207713720FCF792F900213820FCF791
:104440008EF900213920FCF78AF940F207713A20F1
:10445000FCF785F900213B20FCF781F907213C207E
:10446000FCF77DF900213D20FCF779F9322005F0B9
:10447000EAFA01210720FCF772F901E0080F002099
:1044800001211720FCF76BF9322005F0DCFA4FF41C
:10449000BD511020FCF763F940F217211120FCF701
:1044A0005EF94FF48F711220FCF759F94FF47061E7
:1044B000132000E097E0FCF752F900212A20FCF7D6
:1044C0004EF90A212920FCF74AF94FF49F71122076
:1044D000FCF745F900215020FCF741F9EF2151206C
:1044E000FCF73DF900215220FCF739F940F23F1169
:1044F0005320FCF734F94FF41C516020FCF72FF9DE
:1045000001216120FCF72BF900216A20FCF727F933
:1045100000218020FCF723F900218120FCF71FF9FE
:1045200000218220FCF71BF900218320FCF717F9FA
:1045300000218420FCF713F900218520FCF70FF9F6
:1045400013219020FCF70BF94FF440719220FCF7F7
:1045500006F905219320FCF702F900219520FCF7CC
:10456000FEF800219720FCF7FAF800219820FCF7CC
:10457000F6F84FF480710120FCF7F1F84FF4E06198
:104580000220FCF7ECF841F238010320FCF7E7F8D1
:1045900000210420FCF7E3F800210C20FCF7DFF8F1
:1045A00000210F20FCF7DBF800212020FCF7D7F8D2
:1045B00000212120FCF7D3F821210720FCF7CFF8B8
:1045C000142005F040FA61210720FCF7C8F81420F8
:1045D00005F039FA40F273110720FCF7C0F81420F7
:1045E00005F031FA95E4FE4880884BF20551884287
:1045F0007ED100210846FCF7B2F800210846FCF7FE
:10460000AEF800210846FCF7AAF800210846FCF79E
:10461000A6F80121A420FCF7A2F8142005F013FA53
:104620004FF41C516020FCF79AF840F20221082058
:10463000FCF795F84FF405713020FCF790F843F241
:1046400015713120FCF78BF840F204613220FCF741
:1046500086F840F616613320FCF781F842F211210A
:104660003420FCF77CF84FF4A8513520FCF777F89C
:1046700048F207513620FCF772F841F20741372023
:10468000FCF76DF841F203413820FCF768F820216F
:104690003920FCF764F81A219020FCF760F800211B
:1046A0001020FCF75CF807211120FCF758F80021D6
:1046B0001220FCF754F800211320FCF750F81420C6
:1046C00005F0C1F94FF4E6611020FCF748F840F21C
:1046D00037111120FCF743F8142005F0B4F94FF41A
:1046E000DC711220FCF73BF8142005F0ACF900E077
:1046F00083E04FF470611320FCF731F880212A2009
:10470000FCF72DF848212920FCF729F8142005F0A2
:104710009AF94FF480710120FCF721F84FF4E06121
:104720000220FCF71CF841F238010320FCF717F8CF
:1047300040F202210820FCF712F800210A20FCF7C1
:104740000EF800210C20FCF70AF800210D20FCF7E0
:1047500006F830210E20FCF702F800215020FBF76C
:10476000FEFFEF215120FBF7FAFF00215220FBF75B
:10477000F6FF40F23F115320FBF7F1FF4FF41C51BD
:104780006020FBF7ECFF01216120FBF7E8FF00212F
:104790006A20FBF7E4FF11219020FBF7E0FF4FF4C4
:1047A000C0619220FBF7DBFF40F202419320FBF750
:1047B000D6FF02219420FBF7D2FF142005F043F925
:1047C00001210720FBF7CBFF142005F03CF9612104
:1047D0000720FBF7C4FF40F273110720FBF7BFFF70
:1047E00000212020FBF7BBFF00212120FBF7B7FFB2
:1047F00022210020FBF7B3FF11E3794880884CF2B7
:10480000055188427ED100210846FBF7A8FF002110
:104810000846FBF7A4FF142005F015F9002108460F
:10482000FBF79DFF00210846FBF799FF0021084692
:10483000FBF795FF00210846FBF791FF0121A4201B
:10484000FBF78DFF142005F0FEF84FF41C5160209B
:10485000FBF785FF40F606010820FBF780FF40F2DA
:1048600003713020FBF77BFF01213120FBF777FF3D
:1048700004213220FBF773FF4FF481713320FBF7E3
:104880006EFF4FF440713420FBF769FF40F20311D3
:104890003520FBF764FF1F213620FBF760FF40F255
:1048A00003713720FBF75BFF01213820FBF757FF2F
:1048B00004213920FBF753FF15219020FBF74FFF10
:1048C0004FF482611020FBF74AFF40F2472111208C
:1048D000FBF745FF4FF4DE711220FBF740FF4FF46A
:1048E00060611320FBF73BFF782005F0ACF84FF434
:1048F00080710120FBF733FF4FF400710220FBF7BA
:104900002EFF00E050E041F230010320FBF727FFCB
:1049100008210A20FBF723FF00210C20FBF71FFFD3
:1049200020210E20FBF71BFF00210F20FBF717FFB4
:1049300000212020FBF713FF00212120FBF70FFFB0
:104940003D212A20FBF70BFF142005F07CF82D21D8
:104950002920FBF704FF00215020FBF700FF4DF258
:10496000EF015120FBF7FBFE00215220FBF7F7FE81
:1049700040F23F115320FBF7F2FE00216120FBF7CC
:10498000EEFE00216A20FBF7EAFE4FF44071922010
:10499000FBF7E5FE05219320FBF7E1FE4FF4807164
:1049A0000720FBF7DCFE3AE20D48808844F23151E3
:1049B00088427CD101210020FBF7D1FE0A2005F0BE
:1049C00042F841F228611020FBF7C9FE0E211220A7
:1049D000FBF7C5FE40F639211320FBF7C0FE01E0CE
:1049E000080F00200A2005F02EF840211120FBF7C7
:1049F000B6FE50211520FBF7B2FE0A2005F023F881
:104A00001E211220FBF7ABFE0A2005F01CF84FF424
:104A1000B1511020FBF7A3FE42F639211320FBF71A
:104A20009EFE0A2005F00FF84FF480710120FBF77D
:104A300096FE4FF440710220FBF791FE41F23801DF
:104A40000320FBF78CFE40F202210820FBF787FED3
:104A500008210A20FBF783FE00213020FBF77FFEB0
:104A600040F202413120FBF77AFE4FF4837132208D
:104A7000FBF775FE40F203513320FBF770FE4FF455
:104A800082713420FBF76BFE40F201313520FBF7D9
:104A900066FE40F207713620FBF761FE40F20531F9
:104AA0003720FBF75CFE4FF40271382000E040E055
:104AB000FBF755FE40F60B713920FBF750FE022143
:104AC0004120FBF74CFE4FF41C516020FBF747FEE2
:104AD00001216120FBF743FE4FF404719020FBF7A6
:104AE0003EFE4FF485719220FBF739FE042193209E
:104AF000FBF735FE4FF48071A020FBF730FE01215B
:104B00000720FBF72CFE21210720FBF728FE23219D
:104B10000720FBF724FE33210720FBF720FE40F29D
:104B200033110720FBF71BFE0021A020FBF717FE27
:104B300075E1F848808844F2355188427ED13021B1
:104B40001520FBF70CFE10219A20FBF708FE202110
:104B50001120FBF704FE43F228411020FBF7FFFD74
:104B600002211220FBF7FBFD41F238011320FBF775
:104B7000F6FD282004F067FF12210846FBF7EFFD41
:104B8000282004F060FF43F220411020FBF7E7FDEE
:104B900043F238011320FBF7E2FD462004F053FFF7
:104BA00000213020FBF7DBFD40F202413120FBF712
:104BB000D6FD40F207313220FBF7D1FD4FF44171B1
:104BC0003320FBF7CCFD04213420FBF7C8FD40F275
:104BD00001413520FBF7C3FD40F207713620FBF79A
:104BE000BEFD40F205313720FBF7B9FD4FF4C2613D
:104BF0003820FBF7B4FD4FF4C2613920FBF7AFFD5D
:104C00004FF480710120FBF7AAFD4FF440710220A0
:104C1000FBF7A5FD41F230010320FBF7A0FD40F6B4
:104C200008010820FBF79BFD08210A20FBF797FDF0
:104C30004FF41C516020FBF792FD00E031E00121B0
:104C40006120FBF78CFD4FF49F719020FBF787FDEF
:104C50004FF480719220FBF782FD4FF48071932016
:104C6000FBF77DFD4FF44051A020FBF778FD1021AC
:104C7000A320FBF774FD01210720FBF770FD212124
:104C80000720FBF76CFD23210720FBF768FD33218C
:104C90000720FBF764FD40F233110720FBF75FFDAF
:104CA000BDE09C48808841F663118842F8D1E2203B
:104CB000FBF73AFD1D20FBF740FD0220FBF73DFD11
:104CC0000420FBF73AFD642004F09BFEE020FBF794
:104CD0002BFD0120FBF731FD0A2004F0B4FEE0209B
:104CE000FBF722FD0320FBF728FD0C2004F0ABFEB0
:104CF0000120FBF719FD0A2004F0A5FEE620FBF7D2
:104D000013FD2F20FBF719FDFF20FBF716FDFF20F9
:104D1000FBF713FDB020FBF707FD2020FBF70DFD8F
:104D20000020FBF70AFD0320FBF707FD40F21F30D0
:104D3000FBF703FD0120FBF700FD40F2DF10FBF75E
:104D4000FCFC0020FBF7F9FCB420FBF7EDFC042091
:104D5000FBF7F3FC40F21F40FBF7EFFC0020FBF7F2
:104D6000ECFC2E20FBF7E9FC1D20FBF7E6FC002005
:104D7000FBF7E3FC0020FBF7E0FC0020FBF7DDFC89
:104D8000B620FBF7D1FC0220FBF7D7FC4FF40370F1
:104D9000FBF7D3FC0020FBF7D0FC1720FBF7CDFC82
:104DA0001520FBF7CAFC0020FBF7C7FC0020FBF72F
:104DB000C4FCF020FBF7B8FC0320FBF7BEFC292065
:104DC000FBF7B2FCD020FBF7AFFC0020FBF7B5FCF3
:104DD000BE20FBF7A9FC0520FBF7AFFCFE20FBF78C
:104DE000ACFC0120FBF7A9FC0020FBF7A6FC00208F
:104DF000FBF7A3FC0020FBF7A0FCB820FBF794FC1A
:104E00000320FBF79AFC0120FBF797FCBA20FBF785
:104E10008BFC0120FBF791FC6420FCF70BF90120CF
:104E2000FCF734F901203C4908604FF6FF70FCF7AD
:104E30001CFB21B000BD2DE9FC4F05460E46174670
:104E40009846DDF82C90002001903248808846F684
:104E50000401884229D12F488079012825D1AB4609
:104E600035462C480088C01B401E86B2474629485C
:104E70000088A0EB0B00401E1FFA80F80020254997
:104E800088712A2048812B20888143463A46314642
:104E90002846CDF80090FFF7CEFF01201D4988710C
:104EA0002B2048812A2088811DE0781B401C80B27D
:104EB0000190344615E021462846FBF784FCFBF7B9
:104EC00065FC4FF0000A07E04FF0D840A0F8809052
:104ED0000AF101001FFA80FA01988245F4DB601C98
:104EE00084B24445E7DDBDE8FC8F2DE9F84F074665
:104EF0000D4690469946DDF828B0A8EB0700401C07
:104F00001FFA80FAA9EB0500401C80B20090002433
:104F100019E00000080F0020BC824042281981B22D
:104F20003846FBF750FCFBF731FC002607E004FB9A
:104F30000A603BF81000F8490880701C86B256459C
:104F4000F5DB601C84B200988442E7DBBDE8F88F93
:104F50002DE9FF4F84B081468A46002003900290DD
:104F60000698A0EB09050798A0EB0A06CDF8049077
:104F7000CDF800A0002D01DD012705E00DB90027C7
:104F800002E04FF0FF376D42002E02DD4FF00108C6
:104F900006E016B94FF0000802E04FF0FF38764205
:104FA000B54201DD2C4600E034464FF0000B21E015
:104FB000009A91B2019A90B2FBF76CFF03982844D3
:104FC00003900298304402900398A04205DD0398B4
:104FD000001B03900198384401900298A04205DD1F
:104FE0000298001B02900098404400900BF10100D1
:104FF0001FFA80FB601C8345DADD08B0BDE8F08F46
:10500000F0B504460D4616461F462B463246294645
:105010002046FFF79DFF3B46224629462046FFF7E4
:1050200097FF3B46324639462046FFF791FF3B4605
:10503000324629463046FFF78BFFF0BD2DE9F0439D
:1050400006460F469046002445460320A0EB48093B
:105050003CE07A1B91B2321990B2FBF71BFF3A1B6E
:1050600091B2721990B2FBF715FF3A1991B2721909
:1050700090B2FBF70FFF7A1991B2321990B2FBF799
:1050800009FF7A1991B2321B90B2FBF703FF3A196C
:1050900091B2721B90B2FBF7FDFE7A1B91B2321BEC
:1050A00090B2FBF7F7FE3A1B91B2721B90B2FBF77E
:1050B000F1FE641CB9F1000F03DAA000801D8144E9
:1050C00004E0601B80000A3081446D1EAC42C0DDEC
:1050D000BDE8F0832DE9F84F80460E4617461C4682
:1050E000B3462046E31704EB5373DB1021464FEA27
:1050F000E47C04EB5C7C4FEAEC0CA4EBCC0CBCF144
:10510000000F02D04FF0010C01E04FF0000C63449F
:10511000224604EBD27C4FEA6C0C03FB0CF3DBB2AF
:105120000093A7F12000C7B2002556E00C2C07D150
:1051300007EB4700794901EB800010F8059013E078
:10514000102C05D1764800EB071010F805900BE005
:10515000182C07D107EBC700724901EB800010F84B
:10516000059001E0BDE8F88F4FF0000A2FE009F04C
:10517000800030B16C48028831464046FBF798FE0B
:1051800007E00A9828B96948028831464046FBF78B
:105190008FFE4FEA49604FEA1069701C86B264487E
:1051A0004088B04200DCDDE7A6EB0B00A0420AD14C
:1051B0005E4608F101001FFA80F85D48008840450E
:1051C00000DCCFE706E00AF1010000F0FF0ABAF1C7
:1051D000080FCCDB00BF681CC5B200988542A5DB78
:1051E00000BFBFE710B50246012000E050430B1E90
:1051F000A1F10104E1B2F9D110BD2DE9FF4F81B059
:10520000074691461E460E9D4FF0000A002439E0E5
:10521000301B401EC1B20A20FFF7E4FFB9FBF0F0DB
:105220000A21B0FBF1F201FB1208BAF1000F16D10E
:10523000701EA04213DDB8F1000F0ED10020AB4666
:1052400005EBDB71491001FB0471009088B22B461D
:1052500020220299FFF73EFF12E04FF0010A0020E2
:10526000AB4605EBDB71491001FB0471009088B27D
:1052700008F13001CAB22B460299FFF72BFF00BF9D
:10528000601CC4B2B442C3DB05B0BDE8F08F2DE9A9
:10529000FF4F82B0064692461F46DDE90F480020C8
:1052A000019000255CE0781B401EC1B20A20FFF788
:1052B00099FFBAFBF0F00A21B0FBF1F201FB1209F1
:1052C000019840BB781EA84236DDB9F1000F31D1FC
:1052D00008F0800078B108F00100A34604EBDB7110
:1052E000491001FB0561009088B2234630220399E2
:1052F000FFF7F0FE0EE008F00100A34604EBDB71BF
:10530000491001FB0561009088B2234620220399D1
:10531000FFF7E0FE22E00FE08000006CF6BC020820
:105320006AC102085AC70208240000202600002093
:10533000080F00200120019008F00100A34604EBB3
:10534000DB71491001FB0561009088B209F1300161
:10535000CAB223460399FFF7BDFE00BF681CC5B261
:10536000BD42A0DB06B0BDE8F08F2DE9F84704464A
:105370000D4690469946DDE9096704F0FF0A08EBFF
:1053800004001FFA80F809EB05001FFA80F916E007
:10539000444502DB5446A81985B24D4500DB14E0B4
:1053A000002000903A78334629462046FFF792FEC7
:1053B000304606EBD07104EB61018CB27F1C38786B
:1053C0007E2802DC38782028E2DA00BFBDE8F887C2
:1053D00000B599B00121782003F01EF94FF6337023
:1053E000179002208DF8600003208DF861000020E6
:1053F0008DF8620001208DF8630017A9994802F02A
:105400006DFE4FF68370179017A9974802F066FE5D
:105410004FF23F00179017A9944802F05FFE40F248
:105420003F40179017A9924802F058FE0C22002125
:105430008C4802F0DEFE0C2201218A4802F0D9FEDF
:105440000C220421874802F0D4FE0C220521854855
:1054500002F0CFFE0C220821824802F0CAFE0C2284
:105460000921804802F0C5FE0C220A217D4802F085
:10547000C0FE0C220B217B4802F0BBFE0C22114621
:10548000784802F0B6FE0C220D21764802F0B1FEFB
:105490000C220E21734802F0ACFE0C220F21714841
:1054A00002F0A7FE0C2200216F4802F0A2FE0C229F
:1054B00001216D4802F09DFE0C2207216A4802F08E
:1054C00098FE0C220821684802F093FE0C22092164
:1054D000654802F08EFE0C220A21634802F089FE24
:1054E0000C220B21604802F084FE0C2211465E481B
:1054F00002F07FFE0C220D215B4802F07AFE0C22A6
:105500000E21594802F075FE0C220F21564802F078
:1055100070FE0C220021554802F06BFE0C22012186
:10552000524802F066FE0C220221504802F061FE51
:105530000C2203214D4802F05CFE0C2204214B4852
:1055400002F057FE0C220521484802F052FE0C22C0
:105550001146464802F04DFE0C220D21434802F050
:1055600048FE0C220E21414802F043FE0C220F217E
:105570003E4802F03EFE0C2200213D4802F039FE7A
:105580000C2201213A4802F034FE0C220221384854
:1055900002F02FFE0C220321354802F02AFE0C22D5
:1055A0000421334802F025FE0C220521304802F088
:1055B00020FE0C220A212E4802F01BFE0020019042
:1055C0000290092003900020049005900690079017
:1055D00004200890002009900A9010200B900020D1
:1055E0000C900D900E900F9010904FF480501190F1
:1055F000002012901390149001A81590169008A8FE
:1056000002F01DFA0121042002F0A4FA19B000BD35
:1056100010B506E004784FF0D0435C54491C401CA0
:10562000521E002AF6D110BD06E04FF0D0435B5C5D
:1056300000F8013B491C521E002AF6D1704713B5F1
:1056400004460122214601A8FFF7E2FF1CBD18B560
:105650000446012221466846FFF7E6FF9DF8000058
:1056600018BD0000000C024000100240001402406F
:105670000018024010B500F0BBF810BD70B504462C
:10568000002600F0D4F82546E11704EB1161091259
:10569000A02202EB4101C8B200F075F900F008F950
:1056A000E11704EB11610912A4EB0121C8B200F06B
:1056B0006AF900F0FDF800F0BAF8A12000F063F9F3
:1056C00000F0F6F8002000F08BF9064600F0D1F863
:1056D000304670BD70B504460E4600F0A8F8254669
:1056E000E11704EB11610912A02202EB4101C8B2DB
:1056F00000F049F900F0DCF8E11704EB1161091240
:10570000A4EB0121C8B200F03EF900F0D1F8304618
:1057100000F039F900F0CCF800F0ABF80A2004F002
:1057200092F970BD2DE9F04105460E46174600245A
:1057300009E0E20026FA02F2D1B22A1990B2FFF78C
:10574000C9FF601CC4B2BC42F3DBBDE8F0812DE9A7
:10575000F04107460C460026002509E036023919BB
:10576000491B491E88B2FFF789FF0644681CC5B271
:10577000A542F3DB3046BDE8F08110B5FF20FFF70E
:105780007DFF0446552C01D1002010BD5521FF207E
:10579000FFF7A0FFFF20FFF771FF0446552C01D152
:1057A0000020F2E70120F0E770B506460C461546EA
:1057B00008E03046721C96B2FFF760FF04F8010B58
:1057C000681E85B2002DF4D170BD70B505460C463B
:1057D000164606E021782846FFF77CFF681C85B254
:1057E000641C301EA6F101018EB2F3D170BD000021
:1057F0001CB50121022002F00FFF4FF44070009011
:1058000001208DF8040003208DF8050000208DF89C
:10581000060001208DF807006946894802F05EFC09
:105820000120884908608849C1F8A4021CBD10B550
:105830008348006820F440208149086008460068D9
:1058400040F48020086001207E49091D08607E49DF
:10585000C1F8A002042004F0D4F800207949091D01
:105860000860042004F0CDF800207749C1F8A002B8
:1058700010BD10B57248006820F4402070490860DF
:105880000846006840F48020086000206D490860E8
:105890006D49C1F8A402042004F0B3F8012069495D
:1058A00008606949C1F8A402042004F0AAF810BDF8
:1058B00010B500246248006820F440206049086068
:1058C00008460068086001205E49091D086004F070
:1058D00098F801205C49C1F8A00204F092F807E0B2
:1058E000601CC4B2FA2C03DDFFF7C3FF012010BD1A
:1058F00054487C3800680028F2D15249086000BF43
:10590000F5E710B500204F4908604D48006820F4C5
:1059100040204B4908600846006840F48020086039
:1059200000204949C1F8A402022004F06AF80120CD
:1059300044490860022004F064F800204249C1F89C
:10594000A00210BD10B500203E4908603C48006828
:1059500020F440203A4908600846006840F480205E
:10596000086001203849C1F8A402022004F049F877
:10597000012034490860022004F043F80020324935
:10598000C1F8A00210BD70B504462D48006820F48F
:1059900040202B4908600846006840F480200860D9
:1059A000002028490860002517E0E0092549091D65
:1059B00008606006040E022004F023F8012022494A
:1059C000C1F8A002022004F01CF800201D49086064
:1059D000022004F016F8681CC5B2082DE5DB70BD86
:1059E00070B5054600241648006820F4402014498C
:1059F0000860084600680860002616E0002011498B
:105A00000860022003F0FDFF01200F49C1F8A00249
:105A10006006040E0B487C38006808B1601CC4B2F4
:105A2000012003F0EEFF701CC6B2082EE6DB15B9AC
:105A3000FFF788FF01E0FFF764FF204670BD00001C
:105A400000040240A08240420080404210B5052080
:105A500003F0D7FF10BD1CB50121222002F0DCFDB0
:105A6000012000908DF8040003208DF8050000202F
:105A70008DF8060001208DF807006946844802F081
:105A80002DFB4FF4006000906946824802F026FB2F
:105A90000120814908608149C1F8AC021CBD10B5E4
:105AA0007C48006820F440007A4908600846006895
:105AB00040F4800008600120794908607949C1F804
:105AC0008002142003F09DFF002075490860FFF755
:105AD000BDFF00207349C1F8800210BD10B56D48AC
:105AE000006820F440006B4908600846006840F4F4
:105AF00080000860012068490860142003F081FFDD
:105B000000206649C1F8AC02FFF7A0FF01206449FC
:105B1000086010BD10B500245E48006820F4400005
:105B20005C49086008460068086001205C4908601C
:105B30005C49C1F880020AE0601CC4B2FA2C03DDA3
:105B4000FFF7CCFF012010BD012003F05AFF54489D
:105B5000803800680028EFD14F49086000BFF2E7A5
:105B600010B500204C4908604A48006820F4400005
:105B7000484908600846006840F480000860FFF764
:105B800065FF00204549C1F8AC02FFF75FFF012027
:105B900041490860FFF75AFF00204249C1F88002DE
:105BA00010BD10B500203C4908603A48006820F458
:105BB0004000384908600846006840F480000860EA
:105BC000FFF744FF01203549C1F8AC02FFF73EFF63
:105BD000012031490860FFF739FF00203149C1F841
:105BE000800210BD70B504462A48006820F44000C9
:105BF000284908600846006840F4800008600020DA
:105C000025490860FFF722FF002511E0E00924493B
:105C100008606006040E01202249C1F88002FFF7E7
:105C200015FF00201C490860FFF710FF681CC5B273
:105C3000082DEBDB70BD70B50546002415480068E3
:105C400020F44000134908600846006808600026F8
:105C500013E00020104908601E2003F0D2FE01204E
:105C60001049C1F880026006040E0D4880380068B3
:105C700008B1601CC4B2701CC6B2082EE9DB15B9AD
:105C8000FFF78FFF01E0FFF76BFF204670BD0000BC
:105C900000040240001402408082404200804242E0
:105CA000AC824242008040422DE9F04104460E465B
:105CB00017464FF00008FFF7F2FEB220FFF792FF01
:105CC000FFF728FF2012FFF78DFFFFF723FFE0B259
:105CD000FFF788FFFFF71EFF00250BE0705DFFF761
:105CE00081FFFFF717FF8046B8F1000F00D003E0F7
:105CF000681CC5B2BD42F1DB00BFFFF7EFFE4046B6
:105D0000BDE8F0812DE9F04105460F461646FFF744
:105D1000C6FEB220FFF766FFFFF7FCFE2812FFF772
:105D200061FFFFF7F7FEE8B2FFF75CFFFFF7F2FE57
:105D3000FFF7B5FEB320FFF755FFFFF7EBFE00249A
:105D40000BE0711EA14201D0012100E000210846B4
:105D5000FFF771FF3855601CC4B2B442F1DBFFF7A6
:105D6000BDFEBDE8F08138B50446002000900CB1BE
:105D700080200090012269464FF45060FFF794FFA5
:105D800038BD0EB5002002900121062002F044FC2F
:105D90000220009000208DF8040001208DF80700FB
:105DA0006946924802F09AF94FF4005000900120A1
:105DB0008DF8040003208DF8050000208DF8060002
:105DC00069468B4802F08AF9FFF745FE00208949B1
:105DD0000860642003F037FE01208749C1F8B4024F
:105DE000642003F030FE0120FFF7BDFF012202A96D
:105DF0004FF45060FFF786FF9DF808107FA00BF06E
:105E00000DFB9DF80800802801D100200EBD012067
:105E1000FCE731B52DED068B82B0002400257A48D1
:105E20000078401C78490870084600780A2190FBE9
:105E3000F1F201FB120018B1734800780A287DDAEC
:105E4000012208A90020FFF75DFF9DF8200000F067
:105E50001F00002872D09DF8200000F01F0040F0C5
:105E6000C0006A4981F83400002483E0674890F854
:105E700034000121A1400840002879D0644931F85C
:105E80001400042201A9FFF73DFF604890F8480084
:105E900000F00100C0B39DF807109DF8062001EB4B
:105EA000022025F050FB41EC190B9FED5A0B53ECEF
:105EB000102B25F0AFFB41EC180B25F0E7FA534906
:105EC000203141F824009DF805109DF8042001EBD5
:105ED000022025F038FB41EC1A0B9FED500B53ECE0
:105EE000102B25F097FB41EC190B9FED4E0B53EC5B
:105EF000102B25F0C3FC41EC180B25F0C7FA4349E1
:105F00000C3141F8240033E0FFE79DF807109DF8BD
:105F1000062001EB022025F016FB41EC190B9FED4A
:105F20003D0B53EC102B25F075FB41EC180B25F0C5
:105F3000ADFA36490C3141F8240000E029E09DF823
:105F400005109DF8042001EB022025F0FCFA41EC3D
:105F5000190B9FED320B53EC102B25F05BFB41EC42
:105F6000180B25F093FA01462848203040F82410F9
:105F7000601CC4B2052CFFF679AF01252348C06828
:105F800020B92248006A08B90020089000201E4964
:105F900008709DF8200000F01F00D0B91B4890F851
:105FA000340000F0800040B1184890F8340020F030
:105FB0008000164981F834000BE04FF6FF7013495A
:105FC000C8600862084690F8340000F0E00081F8EC
:105FD00034000D480078F02802DD0A200A490870D4
:105FE000284602B0BDEC068B38BD0000000402401C
:105FF00000080240B4024142000041424354502094
:1060000049443A25780D0A00280000202C00002081
:10601000B6D402087B14AE47E17AD43FD8817346E8
:1060200094F6D23F0000000000008940002100BF2C
:1060300014E000F080021AB10122F84B1A6002E06D
:106040000022F64B1A604206100E0022F44B1A6032
:106050000122F44BC3F880224A1CD1B20829E8DBA4
:10606000704770B50646002500240020EC49086002
:10607000ED49C1F8AC02ED4908603046FFF7D6FFA4
:10608000062003F0BEFC0020E649C1F88002012092
:1060900003F0B7FC0120E249086003F0B2FC0020E5
:1060A000E049C1F8800200BF15E04FF6FF7000EA3A
:1060B00044040020DA490860012003F0A2FC01201A
:1060C000D849C1F88002D6487838006808B1601C09
:1060D00084B2681CC5B2102DE7DB24110120D3491E
:1060E0000860204670BD2DE9FE438046002700244D
:1060F00006E04046FFF7B5FF2DF81400601C84B29F
:10610000052CF6DB002416E0601C85B20FE03DF89C
:1061100014003DF81510884207DD3DF814603DF885
:1061200015002DF814002DF81560681C85B2052D9A
:10613000EDDB601C84B2042CE6DB0027012405E0C3
:106140003DF81400384487B2601C84B2042CF7DB9D
:10615000032097FBF0F086B23046BDE8FE832DE9C0
:10616000F04104460D46B2480078FFF7BCFF0646F2
:10617000B0480078FFF7B7FF074626602F60012080
:10618000BDE8F0817FB504460D4602A903A8FFF7DC
:10619000E6FF064616B9002004B070BD694601A8A6
:1061A000FFF7DDFF06460EB90020F5E703990198D9
:1061B000884204DC019832300399814208DB01995E
:1061C0000398884226DC039832300199814221DA13
:1061D00002990098884204DC00983230029981428A
:1061E00008DB00990298884214DC0298323000994A
:1061F00081420FDA019A0399881800EBD071491097
:106200002160009A0299881800EBD071491029602A
:106210000120C1E70020BFE770B504460D461646D1
:106220008548068004F10D018AB2193988B22B46DF
:106230002946FEF78DFE05F10D0083B2193881B2B3
:1062400022462046FEF784FE6A1C91B2621C90B280
:10625000FAF720FE6A1C91B2621E90B2FAF71AFE9B
:106260006A1E91B2621C90B2FAF714FE6A1E91B2D5
:10627000621E90B2FAF70EFE062229462046FEF76D
:10628000DDFE70BD70B504460D4616466A480680B0
:1062900029462046FAF7FEFD611C88B22946FAF726
:1062A000F9FD681C81B22046FAF7F4FD6A1C91B230
:1062B000621C90B2FAF7EEFD70BD10B50446584866
:1062C0007C380068E0BB2CB15C49A1F11400FFF7F9
:1062D00059FF23E05949A1F11400FFF753FFE8B13A
:1062E0005648203890ED100A90ED0E1AD0ED030AB2
:1062F000F8EEE00A01EE200ABDEEC00A80ED030AC6
:1063000090ED110A90ED0F1AD0ED080AF8EEE00AB0
:1063100001EE200ABDEEC00A80ED080A4748203889
:1063200090F8340000F0800040BBC0204349203981
:1063300081F834000846C168C161016A01631DE04B
:10634000FFE73E48203890F8340000F0800050B15C
:106350003A48203890F8340020F08000374920393E
:1063600081F834000AE0002134482038C16101631B
:106370004FF6FF7031492039C86008622F48203835
:1063800090F8340000F0800010BD10B52B48203884
:1063900090ED0E0ADFED2A0A20EE200ABDEEC00ABB
:1063A00010EE104A042221462820FFF7BBF92348AB
:1063B000203890ED0F0ADFED220A20EE200ABDEE14
:1063C000C00A10EE104A042221462C20FFF7AAF939
:1063D0001A48203890ED100ABCEEC00A10EE101AD0
:1063E00002223020FFF79EF91448203890ED110A60
:1063F000BCEEC00A10EE101A02223220FFF792F90A
:106400000E48203890F848103420FFF763F90A242A
:1064100021463520FFF75EF910BD0000AC824242F4
:10642000808240420080404200804242B4024142A9
:106430007800002079000020240000204C0000207B
:1064400020BCBE4C10B53520FFF718F904460A2CC5
:106450004ED104212820FFF77AF9044600EE104AB5
:10646000B8EEC00A5FED0A0A80EE201AFA4880ED05
:106470000E1A04212C20FFF76AF9044600EE104A98
:10648000B8EEC00A5FED120A80EE201AF24880EDE5
:106490000F1A02213020FFF75AF900EE100AB8EE69
:1064A000400AED4880ED100A02213220FFF74FF933
:1064B00000EE100AB8EE400AE74880ED110A3420D9
:1064C000FFF7DCF8E44981F84800084690F84800F6
:1064D00030B19020E1490870D020E149087005E012
:1064E000D020DE4908709020DD490870012010BDE1
:1064F0000020FCE72DE9FC5F04460D4617461E46CA
:10650000DDE90EABDDE90C894FF47840D549088010
:10651000D5A01021CDE90010D44843880288A021DD
:106520002820FEF722FFD2A01021CDE90010CF488D
:1065300043880288A0217820FEF717FFCDA0102104
:10654000CDE90010C94843880288B4212820FEF70D
:106550000CFFC9A01021CDE90010C448438802886F
:10656000B4217820FEF701FFC4A01021CDE900106E
:10657000BE4843880288C8212820FEF7F6FEC0A046
:106580001021CDE90010B94843880288C82178203D
:10659000FEF7EBFEBBA01021CDE90010B348438805
:1065A0000288DC212820FEF7E0FEB7A01021CDE90B
:1065B0000010AE4843880288DC217820FEF7D5FE23
:1065C000B2A01021CDE90010A84843880288F0212C
:1065D0002820FEF7CAFE102004232246A0210090A6
:1065E0004020FEF70AFE102004232A46A021009036
:1065F0009020FEF702FE102004233A46B4210090BA
:106600004020FEF7FAFD102004233246B42100900A
:106610009020FEF7F2FD102004234246C82100908E
:106620004020FEF7EAFD102004234A46C8210090CE
:106630009020FEF7E2FD102004235246DC2100905A
:106640004020FEF7DAFD102004235A46DC2100909A
:106650009020FEF7D2FD102000908448018803238B
:106660006020109AFEF7C9FDBDE8FC9F00B597B009
:10667000002012900B9012901F217A4801804FF653
:10668000FF7084490880FAF7F0FE4FF478417548AE
:1066900001804FF6FF70FAF7E8FE0020714908808C
:1066A0007D48006810216423A022CDE90010282134
:1066B0000846FEF75AFE4FF4784214210846FFF7C9
:1066C000ABFD0021644880F834109FED740A80ED22
:1066D0000E0A55E2604840680A9001200A998847EE
:1066E0005D4890F8340000F0C000402871D10020CF
:1066F0000B90594890F8340020F04000564981F83A
:1067000034000846808981B213AA129822F820101A
:106710005148008C81B2129802EB8000418012989F
:10672000401CC0B212901298012806D0022815D041
:10673000032829D0042810D141E04FF6FF7214211C
:106740000846FFF769FD49480088143880B24FF4C5
:10675000784214210A90FFF75FFDE0E34348008888
:10676000143880B24FF6FF7214210A90FFF754FDDF
:106770003E484088143880B24FF4784201460A906F
:106780001420FFF749FDCAE338484088143880B226
:106790004FF6FF7201460A901420FFF73DFD334883
:1067A0004088143880B20A9030480088143880B28B
:1067B0004FF4784209900A99FFF72EFDAFE3BDF838
:1067C0004C00BDF85010401A0A90002802DB0A98CD
:1067D00002E0A5E30A9840420F90BDF84E1013A8BE
:1067E000C088081A0A90002801DB0A9801E00A987C
:1067F00040420E900F9840430F900E9840430E90E9
:10680000DDE90E100844059024F0B4FECDE9060140
:106810009DED060B24F0D4FA8DED080B9DED080BD1
:1068200051EC100B24F062FE80B21190BDF85400C0
:10683000BDF85810401A0A90002801DB0A9801E0C0
:106840000A9840420F9013A84189C089081A0A90FB
:10685000002825DB0A9825E02C0000207800002085
:10686000790000202400002078313A00080F002031
:1068700079313A0078323A0079323A0078333A0086
:1068800079333A0078343A0079343A00666163200B
:1068900069733A00260000207C0000200000000000
:1068A0000A9840420E900F9840430F900E98404334
:1068B0000E90DDE90E100844059024F05BFECDE952
:1068C00006019DED060B24F07BFA8DED080B9DED86
:1068D000080B51EC100B24F009FE80B210909DEDD6
:1068E000110AF8EE400A9DED100AB8EE401A80EE4B
:1068F000810A8DED0A0A0A9825F082F9CDE90C018A
:106900009FEDFE0B53EC102B9DED0C0B51EC100B7F
:1069100024F044FE0ED39FEDFB0B53EC102B9DEDAA
:106920000C0B51EC100B24F073FF03D3119808B13A
:106930001098E8BB00201290F4484088143880B2C8
:106940000A90F2480088143880B24FF6FF7209901E
:106950000A99FFF761FC4FF4784214210846FFF7CB
:106960005BFC9FEDEB0B53EC102B9DED0C0B51ECF6
:10697000100B24F04FFECDE908019DED080B51EC02
:10698000100B24F0B3FD80B213A90A90C989BDF899
:10699000582013AB5B89CDE90132CDE90310BDF876
:1069A0005400009013A8C0880990BDF8500000E082
:1069B0000BE00890BDF84E000790BDF84C00069023
:1069C00007A90EC9FFF796FDB9E2BDF84C00BDF866
:1069D0005410401A0A90002801DB0A9801E00A9836
:1069E00040420F90BDF84E1013A84089081A0A9033
:1069F000002801DB0A9801E00A9840420E900F98A7
:106A000040430F900E9840430E90DDE90E1008446D
:106A1000059024F0AFFDCDE906019DED060B24F0B5
:106A2000CFF98DED080B9DED080B51EC100B24F008
:106A30005DFD80B21190BDF85000BDF85810401AAD
:106A40000A90002801DB0A9801E00A9840420F9062
:106A500013A8C188C089081A0A90002801DB0A9887
:106A600001E00A9840420E900F9840430F900E9814
:106A700040430E90DDE90E100844059024F07AFDA5
:106A8000CDE906019DED060B24F09AF98DED080B7A
:106A90009DED080B51EC100B24F028FD80B21090F6
:106AA0009DED110AF8EE400A9DED100AB8EE401A6D
:106AB00080EE810A8DED0A0A0A9825F0A1F8CDE949
:106AC0000C019FED8E0B53EC102B9DED0C0B51EC3C
:106AD000100B24F063FD0AD39FED8A0B53EC102BAF
:106AE0009DED0C0B51EC100B24F092FE49D20020CE
:106AF000129086484088143880B20A9083480088F3
:106B0000143880B24FF6FF7209900A99FFF784FBA0
:106B10004FF4784214210846FFF77EFB9FED7C0B73
:106B200053EC102B9DED0C0B51EC100B24F072FD6F
:106B3000CDE908019DED080B51EC100B24F0D6FCBB
:106B400080B201460A9013A8C089BDF8582013AB43
:106B50005B89CDE90132CDE90301BDF85400009015
:106B600013A8C0880990BDF850000890BDF84E00E9
:106B70000790BDF84C00069007A90EC9FFF7BAFCB4
:106B8000DDE1BDF85000BDF85410401A0A9000280D
:106B900001DB0A9801E00A9840420F9013A8C188CF
:106BA0004089081A0A90002801DB0A9801E00A9837
:106BB00040420E900F9840430F900E9840430E9025
:106BC000DDE90E100844059024F0D4FCCDE906015F
:106BD0009DED060B24F0F4F88DED080B9DED080BF0
:106BE00051EC100B24F082FC80B21190BDF84C00E7
:106BF000BDF85810401A0A90002801DB0A9801E0FD
:106C00000A9840420F90BDF84E1013A8C089081A88
:106C10000A90002801DB0A9801E00A9840420E9091
:106C20000F9840430F900E9840430E90DDE90E10F0
:106C30000844059024F09EFCCDE906019DED060B6D
:106C400024F0BEF88DED080B9DED080B51EC100BF8
:106C500024F04CFC80B210909DED110AF8EE400A31
:106C60009DED100AB8EE401A80EE810A8DED0A0AF9
:106C70000A9824F0C5FFCDE90C019FED200B53ECE1
:106C8000102B9DED0C0B51EC100B24F087FC0AD35C
:106C90009FED1C0B53EC102B9DED0C0B51EC100BCE
:106CA00024F0B6FD58D200201290184840881438BD
:106CB00080B20A9015480088143880B24FF6FF72EF
:106CC00009900A99FFF7A8FA4FF478421421084670
:106CD000FFF7A2FA9FED0E0B53EC102B9DED0C0B62
:106CE00051EC100B24F096FCCDE908019DED080B4A
:106CF00051EC100B24F0FAFB80B20DE0666666667C
:106D00006666EE3FCDCCCCCCCCCCF03F080F00205B
:106D1000000000000000594002460A9013A8C089F4
:106D2000BDF8581013AB5B89CDE90131CDE9030201
:106D3000BDF85400009013A8C0880990BDF8500019
:106D40000890BDF84E000790BDF84C00069007A9CA
:106D50000EC9FFF7CFFBF2E0BDF85000BDF84C10B4
:106D6000401A00EE100AF8EEC00AC0480088283821
:106D700000EE100AB8EEC00A80EE201ABC4880ED82
:106D80000E1ABDF85000BDF84C10084400EE100A71
:106D9000F8EEC00AB548008800EE100AB8EE400AC6
:106DA000B34890ED0E1A01EE600AF0EE000A80EE94
:106DB000201A80ED101A13A84089BDF84E10401A11
:106DC00000EE100AF8EEC00AA8484088283800EE05
:106DD000100AB8EEC00A80EE201AA54880ED0F1AFE
:106DE00013A84089BDF84E10084400EE100AF8EED2
:106DF000C00A9E48408800EE100AB8EE400A9C483F
:106E000090ED0F1A01EE600AF0EE000A80EE201AF3
:106E100080ED111A90ED0E0ABDEEC00A8DED090A43
:106E20000998002801DB099801E0099840420228EE
:106E30000FDC8F4890ED0F0ABDEEC00A8DED0A0AF7
:106E40000A98002801DB0A9801E00A9840420228CB
:106E500042DD0020129085484088143880B20A90A4
:106E600082480088143880B24FF6FF7209900A9960
:106E7000FFF7D2F94FF4784214210846FFF7CCF916
:106E80007CA01021CDE90010784840880A9077480E
:106E90000088099002461A2128200A9BFEF765FA0D
:106EA000734890F8480008B9012000E000207049BC
:106EB00081F84800084690F8480030B190207249A7
:106EC0000870D0207149087005E0D0206E49087024
:106ED00090206E49087032E01F206D4908804FF6FF
:106EE000FF70FAF7C2FA6BA01021CDE900105F48DD
:106EF00040880A905D480088099002466E21232050
:106F00000A9BFEF732FA4FF47A7002F09CFDFFF70D
:106F10003CFA4FF6FF70FAF7A8FA17B000BD00BFB1
:106F20000A2002F090FD0B98401C80B20B900B9849
:106F3000B0F57A7F02DDFFF785FA02E000BFFFF7C8
:106F4000C9BB00BF00BFE8E71CB54848808845F2D0
:106F50001051884220D100F041F918B953484449F2
:106F6000486004E0FEF70DFF514841494860404841
:106F700090F8480040F080003D4981F848000846FC
:106F800090F848003949897901F0010108433849EE
:106F900081F8480000201CBD3448808841F6631108
:106FA000884218D100F007FB424831494860084642
:106FB00090F8480040F0800081F84800084690F8BA
:106FC00048002A49897901F001010843284981F8DC
:106FD00048000020DFE70121262001F01DFB0620EC
:106FE000009000208DF8040001208DF8070069460C
:106FF000314801F073F84FF40060009001208DF8E3
:10700000040003208DF8050000208DF80600012003
:107010008DF807006946294801F060F801200090CA
:107020006946254801F05AF84FF40050009069462F
:10703000234801F053F80E492031A1F11400FFF765
:107040008EF8FEF717FBFFF7FDF908B10020A2E765
:107050001C480088FAF709FAFFF708FBFFF795F9D3
:10706000FFF7F0F900BF012095E70000080F0020AE
:107070002C0000205450204E6565642072656164C8
:107080006A757374210000007800002079000020E8
:1070900024000020546F7563682053637265656E29
:1070A0002041646A757374204F4B2100D37200082D
:1070B000135E0008937600080004024000140240AA
:1070C00000080240260000202DE9F04104460E464B
:1070D00017464FF00008FEF7E2FC2820FEF782FD7D
:1070E000FEF718FD2012FEF77DFDFEF713FDE0B25E
:1070F000FEF778FDFEF70EFD00250BE0705DFEF754
:1071000071FDFEF707FD8046B8F1000F00D003E0E7
:10711000681CC5B2BD42F1DB00BFFEF7DFFC404694
:10712000BDE8F08138B50546002400208DF8000048
:107130008DF8015000BF09E09DF80000E049095DAD
:107140000844C0B28DF80000601CC4B2B82CF3D360
:107150009DF80000C043401CC0B28DF80000B8226A
:10716000D74948F24700FFF7AFFF0222694648F2CD
:10717000FF00FFF7A9FF002038BD2DE9F0410546CB
:107180000F461646FEF78BFC2820FEF72BFDFEF778
:10719000C1FC2812FEF726FDFEF7BCFCE8B2FEF7A4
:1071A00021FDFEF7B7FCFEF77AFC2920FEF71AFD59
:1071B000FEF7B0FC00240BE0711EA14201D00121BA
:1071C00000E000210846FEF736FD3855601CC4B2C9
:1071D000B442F1DBFEF782FCBDE8F0811FB501216E
:1071E000062001F019FA0220009000208DF804001A
:1071F0008DF8060003208DF8050001208DF80700AA
:107200006946B04800F06AFF4FF40050009001203A
:107210008DF804006946AC4800F060FFFEF71BFCE7
:107220000020AA4908600A2002F00DFC0120A849AC
:10723000C1F8B4020A2002F006FC022000900020EF
:107240008DF804008DF8070069469E4800F046FF5F
:10725000642002F0F8FB042202A948F24010FFF774
:107260008CFF00208DF80C0002A99AA00AF0D6F835
:107270009BA102A80AF05CFB48BB02208DF8080025
:10728000012202A948F24000FFF71EFF012202A9D5
:1072900048F24700FFF771FF9DF80800602807DA01
:1072A0009DF8081090A00AF0B9F80120FFF73AFF06
:1072B0000A2002F0C8FB00208DF80800012202A974
:1072C00048F24000FFF700FF002004B010BD01208D
:1072D000FBE771B583B00024002688480078401C85
:1072E00086490870084600780A2190FBF1F201FBFC
:1072F000120018B1814800780A286FDA012203A928
:1073000048F24E10FFF739FF9DF80C0000F08000A6
:1073100028B19DF80C0000F00F00062804DB9DF852
:107320000C0000F0200038B100200190012201A9DA
:1073300048F24E10FFF7C8FE9DF80C0000F00F0059
:1073400000284BD09DF80C0000F00F000628D4DA7E
:107350009DF80C0000F00F01FF208840C0B20190A2
:10736000674890F834509DF80400C043C0B240F024
:10737000C000634981F834000846C168C161016AF0
:107380000163002441E05E4890F834000121A140EF
:10739000084010B35B4931F81400042202A9FFF73A
:1073A000ECFE574890F8480000F00100B8B19DF895
:1073B00008009DF8091000EB01215148203040F8E9
:1073C00024109DF80A009DF80B1000EB0120C0F579
:1073D00048714B480C3040F8241014E045E09DF80B
:1073E00008009DF8091000EB012145480C3040F8D9
:1073F00024109DF80A009DF80B1000EB0121404875
:10740000203040F82410601CC4B2052CBBDB0126E0
:107410003B48C0683C490988884205DC3848006A16
:107420003949498888421DDD9DF80C0000F00F00A5
:1074300001280ADD324800693149C8600846406ABF
:10744000086200202D4908700FE02D48C0692C49C2
:10745000C8600846006B086280200390084680F8E8
:10746000345002E00020254908709DF80C0000F01F
:107470008F0080281AD1224890F8340000F0800054
:1074800040B11F4890F8340020F080001C4981F87A
:1074900034000BE04FF6FF701949C86008620846D7
:1074A00090F8340000F0E00081F8340013480078D0
:1074B000F02802DD0A2011490870304604B070BD82
:1074C000C0D402080004024000080240B402414255
:1074D000000041424354502049443A25730D0A00AC
:1074E000393134370000000044656661756C7420E2
:1074F0005665723A25640D0A0000000080000020E5
:107500002C00002078D50208080F00202DE9F0415A
:1075100005460E4617464FF00008FEF7C0FA7020E9
:10752000FEF760FBFEF7F6FAE8B2FEF75BFBFEF74C
:10753000F1FA00240BE0305DFEF754FBFEF7EAFAA7
:107540008046B8F1000F00D003E0601CC4B2BC421A
:10755000F1DB00BFFEF7C2FA4046BDE8F0812DE93D
:10756000F04106460F461546FEF799FA7020FEF7E1
:1075700039FBFEF7CFFAF0B2FEF734FBFEF7CAFA9A
:10758000FEF78DFA7120FEF72DFBFEF7C3FA0024FB
:107590000BE0691EA14201D0012100E00021084654
:1075A000FEF749FB3855601CC4B2AC42F1DBFEF774
:1075B00095FABDE8F0810EB50121062001F02CF806
:1075C0000220009000208DF8040001208DF80700B3
:1075D0006946934800F082FD4FF40050009001206E
:1075E0008DF8040003208DF8050000208DF80600BA
:1075F00069468C4800F072FDFEF72DFA00208A499A
:107600000860142002F01FFA01208849C1F8B40272
:10761000322002F018FA00208DF80800012202A999
:10762000FFF774FF012202A9A420FFF76FFF1620C5
:107630008DF80800012202A98020FFF767FF0C20C7
:107640008DF80800012202A98820FFF75FFF0222BF
:1076500002A9A120FFF783FF9DF80800302803D17D
:107660009DF80900032807D09DF80900012803D0E0
:107670009DF8090002280AD19DF809009DF808200C
:1076800000EB02216AA009F0C9FE00200EBD012016
:10769000FCE771B581B00024002668480078401CE2
:1076A00066490870084600780A2190FBF1F201FB58
:1076B000120018B1614800780A2866DA012201A98F
:1076C0000220FFF74CFF9DF8040000F00F00002897
:1076D0007DD09DF8040000F00F00062877DA9DF8B1
:1076E000040000F00F01FF208840C5B2E843C0B29B
:1076F00040F0C000524981F83400002459E050485D
:1077000090F834000121A1400840E8B34D4931F818
:10771000140004226946FFF722FF494890F8480008
:1077200000F00100C0B19DF801009DF8001001F0CB
:107730000F0100EB01214248203040F824109DF851
:1077400003009DF8021001F00F0100EB01213C48FD
:107750000C3040F824101CE09DF801009DF800104A
:1077600001F00F0100EB0120C0F5F07134480C303E
:1077700040F824109DF803009DF8021001F00F015D
:1077800000EB01212E4801E011E020E0203040F81C
:1077900024109DF8000000F0F000802807D00021A0
:1077A0002748203040F82410143840F82410601C7A
:1077B000C4B2052CA3DB01262148C06820B92048AB
:1077C000006A08B90020019000201C4908709DF84B
:1077D000040000F01F00D0B9194890F8340000F000
:1077E000800040B1164890F8340020F08000144921
:1077F00081F834000BE04FF6FF701149C860086251
:10780000084690F8340000F0E00081F834000B489E
:107810000078F02802DD0A200849087030467CBD57
:107820000004024000080240B4024142000041420C
:107830004354502049443A25780D0A008100002025
:107840002C00002082D502087FB505460C46012198
:10785000022000F02AFF0295ADF804400020ADF8A8
:107860000600ADF80C0001A91D4801F0D6F8012270
:1078700011461B4801F072FD0121194801F056F92B
:107880001D208DF8000001208DF8010000208DF8EA
:10789000020001208DF80300684600F04AF87FBD21
:1078A00010B500210F4A1160516053213120FFF7BC
:1078B000CBFF10BD10B50121094801F066FD01287C
:1078C00008D1084802684068521C40F10000054990
:1078D0000A6048600121024801F068FD10BD000007
:1078E00000040040880000200948804709480047FC
:1078F000FEE7FEE7FEE7FEE7FEE7FEE7FEE7FEE760
:10790000FEE7FEE704480549054A064B70470000BC
:10791000B50500088901000828E6012028EC0120AF
:1079200028E8012028E8012032490143324A116049
:10793000704770B5002100230F22C4781CB32E4C71
:10794000246804F4E064C4F5E064C4F30721C1F1E1
:107950000404E3B20A4144789C40E1B284781440C4
:1079600021430C07210E254C05786155047804F05D
:107970001F050124AC4005786D11AD0005F1E0252F
:10798000C5F8004109E0047804F01F050124AC406B
:107990001B4D0678761145F8264070BD194A0A40FD
:1079A0000243154B1B1F1A60704739B1124A121D52
:1079B00012680243104B1B1D1A6006E00E4A121D8E
:1079C000126882430C4B1B1D1A607047042808D1B3
:1079D0004FF0E021096941F004014FF0E02211610C
:1079E00007E04FF0E021096921F004014FF0E022A7
:1079F000116170470000FA050CED00E000E400E0C2
:107A000080E100E080FFFF1F30B943F2DB0281001C
:107A1000A1F1C0410A6005E043F2D2028100A1F168
:107A2000C0410A606FF07042411C8900A1F1C04161
:107A30000A608100A1F1C041C1F804217047D0E97A
:107A400001121143C2681143026911434269114393
:107A500082691143C2691143026A1143426A1143A8
:107A6000826A1143C26A1143026B11430268920099
:107A7000A2F1C0421160816808290BD10168890018
:107A8000A1F1C041096841F0400201688900A1F1FB
:107A9000C0410A60416B0968426B526841EA0211B9
:107AA000426B926841EA0221426B928941EA0241AB
:107AB000426B128A41EA0251426B127D41EA026135
:107AC000426B926911430268521C9200A2F1C042BB
:107AD0001160C16AB1F5804F1BD1816B0968826B5F
:107AE000526841EA0211826B926841EA0221826B7C
:107AF000128A41EA0251826B127D41EA0261826B75
:107B00009269114302689200A2F1C042C2F80411C6
:107B100007E06FF0704201688900A1F1C041C1F82F
:107B20000421704700210160022141600021816031
:107B3000C160016141618161C16101624FF48051A5
:107B40004162490081620021C1620163F8494163D9
:107B50008163704751B18200A2F1C042126842F0C5
:107B600001038200A2F1C042136009E08200A2F189
:107B7000C0421268EF4B1A408300A3F1C0431A6061
:107B8000704710280AD118214FF020421166402179
:107B900051664FF0FC319166D16610E01821E64A3B
:107BA000116040214FF02042C2F884104FF0FC31A8
:107BB000E14A083211604FF02042C2F88C10704741
:107BC00030B5002100220023446844F00804856891
:107BD0002C43C5682C4305692C43456944EA452478
:107BE000856944EA4531C4692468C5696D6844EA19
:107BF0000524C5692D8944EA0544C5692D7B44EAFD
:107C00000562046A2468056A6D6844EA0524056A09
:107C10002D8944EA0544056A2D7B44EA056304681E
:107C2000102C05D14FF020442166A266E36608E0DF
:107C3000C14C21604FF02044C4F88820BE4C0C3465
:107C4000236030BD10210160002141608160C1606E
:107C5000016141618161FC21C2691160C2695160A9
:107C6000C2699160C269D160026A1160026A5160A2
:107C7000026A9160026AD160704799B1102808D1F8
:107C80004FF02042126E42F004024FF020431A6679
:107C90001DE0A94A126842F004024FF02043C3F8E5
:107CA000802014E0102809D14FF02042126EA14B21
:107CB000DB1E1A404FF020431A6608E09E4A126805
:107CC0009C4BDB1E1A404FF02043C3F880207047C6
:107CD00099B1102808D14FF02042126E42F04002B4
:107CE0004FF020431A661DE0934A126842F04002AA
:107CF0004FF02043C3F8802014E0102809D14FF042
:107D00002042126E8B4B3F3B1A404FF020431A66C5
:107D100008E0894A1268874B3F3B1A404FF02043E6
:107D2000C3F88020704701460020102903D14FF08E
:107D30002042506F02E0804A1432106870471820C9
:107D40007D492031086000200906C1F8A4004FF0E9
:107D5000FC30794928310860091D0860091D086058
:107D60007047016841F01001426841EA422182688F
:107D700041EA4231704A20321160C1680968C26824
:107D8000526841EA0221C268128941EA0241C2688E
:107D9000127B41EA0261684A283211600169096870
:107DA0000269526841EA02210269128941EA0241EC
:107DB0000269127B41EA02615F4A2C32116041691B
:107DC00009684269526841EA02214269128941EA1E
:107DD00002414269127B41EA02614FF02042C2F83F
:107DE000B01070470021016041608160FC21C268D1
:107DF0001160C2685160C2689160C268D160026956
:107E0000116002695160026991600269D160426942
:107E1000116042695160426991604269D160704766
:107E200048B145492031096841F004014FF0204232
:107E3000C2F8A01009E04049203109683D4AD21E2D
:107E400011404FF02042C2F8A010704710B5F2B1B7
:107E5000102807D14FF020435B6E0B434FF02044B6
:107E6000636632E0B0F5807F08D1334B1B1D1B6881
:107E70000B434FF02044C4F8843026E02E4B2433CB
:107E80001B680B434FF02044C4F8A4301DE01028B9
:107E900007D14FF020435B6E8B434FF02044636665
:107EA00013E0B0F5807F08D1234B1B1D1B688B436B
:107EB0004FF02044C4F8843007E01F4B24331B6884
:107EC0008B434FF02044C4F8A43010BD10B50246D7
:107ED00000200023102A03D14FF02044636E09E0F4
:107EE000B2F5807F03D1144C241D236802E0124CAC
:107EF0002434236803EA01040CB1012000E00020CF
:107F000010BD102807D14FF02042526E8A434FF027
:107F100020435A6619E0B0F5807F0FD1064A121D42
:107F200012688A434FF02043C3F884200DE000001C
:107F30008CD50208FEFF0F00800000A0234A1268C3
:107F40008A434FF02043C3F8A420704770B502461F
:107F50000020002300240025102A03D14FF02046E2
:107F6000736E08E0B2F5807F03D1184E203E33686F
:107F700001E0164E336803EA010403EAD10514B1A7
:107F80000DB1012000E0002070BD102808D14FF095
:107F90002042526E22EAD1024FF020435A6614E08A
:107FA000B0F5807F09D1094A203A126822EAD1024D
:107FB0004FF02043C3F8842007E0044A126822EA05
:107FC000D1024FF02043C3F8A4207047A40000A0C2
:107FD00010B504469848844208D10121084600F0B3
:107FE00086FB0021012000F082FB76E0934884426A
:107FF00008D10121022000F07AFB0021022000F0CC
:1080000076FB6AE08E48844208D10121042000F00A
:108010006EFB0021042000F06AFB5EE08948844288
:1080200008D10121082000F062FB0021082000F0A7
:108030005EFB52E08448844208D10121102000F008
:1080400056FB0021102000F052FB46E07F4884429E
:1080500008D10121202000F04AFB0021202000F05F
:1080600046FB3AE07A48844208D10121402000F0E2
:108070003EFB0021402000F03AFB2EE07548844290
:1080800008D10121802000F032FB0021802000F087
:108090002EFB22E07048844208D10121801500F0B7
:1080A00026FB0021A01500F022FB16E06B4884425D
:1080B00008D10121401500F01AFB0021601500F0E5
:1080C00016FB0AE06648844207D10121001500F042
:1080D0000EFB0021201500F00AFB10BDF0B50A468A
:1080E00000210023002400BF3DE0012505FA01F333
:1080F000156805EA03049C4234D105684F00032645
:10810000BE40B543056015794E00B540066835435D
:1081100005601579012D02D01579022D16D18568DB
:108120004F000326BE40B543856055794E00B540EB
:10813000866835438560456801268E40B5434560B5
:10814000456896798E40B6B235434560C5684F00A4
:108150000326BE40B543C560D5794E00B540C6681C
:108160003543C560491C1029BFD3F0BD4FF6FF71E0
:1081700001600021017141718171C171704708B5C1
:108180004FF480320092009A0A430092009AC26132
:10819000C161009AC261C2690092C269009208BDC1
:1081A0000246002013690B400BB1012000E00020C3
:1081B00070470146086980B2704702460020536943
:1081C0000B400BB1012000E00020704701464869D8
:1081D00080B2704701837047418370470AB10183C1
:1081E00000E0418370474161704742694A40426103
:1081F0007047F0B5002300244D07ED0E02FA05F399
:10820000CE1000F1200555F826504E07F70E0F2628
:10821000BE40B543CF1000F1200646F82750CE10DF
:1082200000F1200555F8265045EA0304CE1000F170
:10823000200545F82640F0BD000002400004024041
:1082400000080240000C02400010024000140240EE
:1082500000180240001C024000200240002402409E
:1082600000280240F948006840F00100F749086022
:108270000020F64908310860F4480068F4490840D5
:10828000F2490860F348091D0860F348EF4984315A
:108290000860F0481038091D0860EC48006820F4B8
:1082A0008020EA4908600020E8490C310860E7496D
:1082B0008C31086070470021E44A921C117011460D
:1082C0000870704710B501460022002300204A11B3
:1082D000012A02D1DD4C236808E0022A03D1DB4CDD
:1082E0007034236802E0D94C7434236801F01F0213
:1082F000012494401C400CB1012000E0002010BD7E
:1083000038B5002000900024002500BF3120FFF781
:10831000D9FF05460098401C00900098B0F5A04F8A
:1083200001D0002DF2D03120FFF7CCFF08B101249D
:1083300000E00024204638BD01460020C34A1068F2
:1083400020F0F80040EAC10010607047C34908609F
:1083500070470021BD4A703211701170012802D09F
:1083600004280AD104E00121B84A7032117005E0F6
:108370000521B64A7032117000E000BF00BF70479F
:10838000B7490860704770B5049C41EA8215012620
:10839000C6EB530645EA0645054345EA0465AB4E80
:1083A000361D356070BDAD4908667047820142EAEE
:1083B0000172A64B84331A607047A84988667047DB
:1083C00010B5830143EA016343EA02739F4C88348A
:1083D000236010BDA14908677047A049C864704771
:1083E00002460020994B0833186820F0EC6042EAFE
:1083F00001031843954B083318607047024600206C
:10840000924B0833186820F0784042EA0103184381
:108410008E4B083318607047014600208B4A0832A3
:10842000106820F003000843106070478748083048
:10843000006800F00C00704701460020834A0832B3
:10844000106820F0F00008431060704701460020DB
:108450007E4A0832106820F4E050084310607047EC
:1084600001460020794A0832106820F4604040EA52
:10847000C10010607047F0B50021002200240225E1
:1084800000260223714F08373F6807F00C0121B125
:10849000042905D0082937D105E0724F076036E07E
:1084A000714F076033E0694F3F1D3F68C7F3805647
:1084B000664F3F1D3F6807F03F036EB16A4FB7FB41
:1084C000F3F7DFF888C10CF1040CDCF800C0CCF342
:1084D000881C07FB0CF40CE0624FB7FBF3F7DFF8E6
:1084E0006CC10CF1040CDCF800C0CCF3881C07FB59
:1084F0000CF4564F3F1D3F68C7F301477F1C7D00BA
:10850000B4FBF5F7076002E0564F076000BF00BFFD
:108510004E4F08373F6807F0F0010909534F7A5C66
:108520000768D7404760494F08373F6807F4E05174
:10853000890A4E4F7A5C4768D7408760434F0837B7
:108540003F6807F46041490B484F7A5C4768D74061
:10855000C760F0BD002100F44072B2F5407F0AD13F
:108560003A4A0832116821F4F811414A0240114395
:10857000364A08321160354A70321268C0F30B0374
:108580001A43324B70331A607047354944390860DA
:108590007047334940390860704736490860704772
:1085A00001460020294A8C32106820F01F004A1E24
:1085B0001043264A8C321060704701460020234A3F
:1085C0008C32106820F4F8504A1E40EA02201F4AFC
:1085D0008C3210607047014600201C4A8C321068B3
:1085E00020F4401008431060704701460020174AED
:1085F0008C32106820F44000084310607047014638
:108600000020124A8C32106820F440300843106079
:10861000704719490860704739B10C4A3032126806
:1086200002430A4B30331A6006E0084A30321268BF
:108630008243064B30331A607047F9B1034A343233
:1086400012680243014B34331A601CE000380240C8
:10865000FFFFF6EA103000240030002000004742FF
:10866000800E47420024F40000127A00900000209F
:10867000FFFCFF0F5C014742E01147428F4A12683E
:1086800082438E4B1A60704739B18C4A121D1268B2
:1086900002438A4B1B1D1A6006E0884A121D1268AD
:1086A0008243864B1B1D1A60704739B1834A0C32D6
:1086B00012680243814B0C331A6006E07F4A0C3289
:1086C000126882437D4B0C331A60704739B17B4A84
:1086D000103212680243794B10331A6006E0774A71
:1086E000103212688243754B10331A60704739B1EB
:1086F000724A243A12680243704B243B1A6006E027
:108700006E4A243A126882436C4B243B1A607047CD
:1087100039B16A4A203A12680243684B203B1A601A
:1087200006E0664A203A12688243644B203B1A6096
:10873000704739B1614A1C3A126802435F4B1C3BD7
:108740001A6006E05D4A1C3A126882435B4B1C3B90
:108750001A60704739B1594A143A12680243574BAC
:10876000143B1A6006E0554A143A12688243534B90
:10877000143B1A60704739B1504A103A12680243EC
:108780004E4B103B1A6006E04C4A103A1268824386
:108790004A4B103B1A60704739B1484A1C32126884
:1087A0000243464B1C331A6006E0444A1C321268EE
:1087B0008243424B1C331A60704739B13F4A203222
:1087C000126802433D4B20331A6006E03B4A2032D8
:1087D00012688243394B20331A60704739B1374AE7
:1087E000243212680243354B24331A6006E0334AC0
:1087F000243212688243314B24331A60704739B1F6
:108800002E4A2C32126802432C4B2C331A6006E09D
:108810002A4A2C3212688243284B2C331A60704744
:1088200039B1264A303212680243244B30331A6081
:1088300006E0224A303212688243204B30331A60FD
:108840007047012808D11D493C31096841F00801F1
:108850001A4A3C32116007E018493C31096821F09E
:108860000801164A3C321160704739B1134A273A61
:1088700012780243114B273B1A7006E00F4A273A41
:10888000127882430D4B273B1A7070470B484030DB
:10889000006840F080700949403108607047014627
:1088A0000020064A283A12680A400AB1012000E076
:1088B000002070470149263908707047343802405B
:1088C00010B50446FE48844208D101210846FFF74E
:1088D00052FF00210120FFF74EFF9DE0B4F1804FD1
:1088E00008D101210846FFF735FF00210120FFF7DD
:1088F00031FF91E0F348844208D101210220FFF7C3
:1089000029FF00210220FFF725FF85E0EE48844281
:1089100008D101210420FFF71DFF00210420FFF7EB
:1089200019FF79E0E948844208D101210820FFF7C6
:1089300011FF00210820FFF70DFF6DE0E44884429D
:1089400008D101211020FFF705FF00211020FFF7BB
:1089500001FF61E0DF48844208D101212020FFF7B8
:10896000F9FE00212020FFF7F5FE55E0DA488442A9
:1089700008D101210220FFF7FEFE00210220FFF7AF
:10898000FAFE49E0D548844209D101210804FFF7E5
:10899000F2FE00214FF48030FFF7EDFE3CE0D048BE
:1089A000844209D101214804FFF7E5FE00214FF47C
:1089B0000030FFF7E0FE2FE0CA48844209D10121D0
:1089C0008804FFF7D8FE00214FF48020FFF7D3FE84
:1089D00022E0C548844208D101214020FFF7BAFEB9
:1089E00000214020FFF7B6FE16E0C048844208D1BF
:1089F00001218020FFF7AEFE00218020FFF7AAFEB4
:108A00000AE0BB48844207D101218015FFF7A2FE8E
:108A10000021A015FFF79EFE10BD00220288A84B82
:108A200098420ED0AC4B98420BD0B0F1804F08D09A
:108A3000A44B984205D0A44B984202D0A34B984235
:108A400004D14FF68F731A404B881A43A04B9842BB
:108A500007D0A04B984204D04FF6FF431A400B8931
:108A60001A4302804B68C3620B880385944B98427B
:108A700002D0994B984201D18B7A038601238382DD
:108A800070474FF0FF31416000210180018141803A
:108A9000817270470185828270470A4600210188F1
:108AA0004FF68F7319401143018070474162704740
:108AB000C16270470146486A70470146088D704799
:108AC00021B1028842F00202028004E002884FF6DF
:108AD000FD731A400280704721B1028842F00402FF
:108AE000028004E002884FF6FB731A400280704750
:108AF00021B1028842F08002028004E002884FF631
:108B00007F731A400280704702884FF6F7731A404D
:108B1000028002880A430280704702884FF6FF43B2
:108B20001A40028002880A430280704721B10288FD
:108B300042F00102028004E002884FF6FE731A4000
:108B40000280704770B5002400220023058C4FF688
:108B5000FE7635400584028C8388048B4FF68F7532
:108B60002C40B51E2C400D882C43751E2A408D8943
:108B70002A434D882A43524DA84202D0564DA8425E
:108B800013D14FF6F7752A40CD892A434FF6FB756E
:108B90002A408D882A434FF6FF652B404FF6FF553C
:108BA0002B400D8A2B434D8A2B43838004838D6891
:108BB0004563028470BD70B5002400220023058C3B
:108BC0004FF6EF7635400584028C8388048B48F697
:108BD000FF752C404FF6FF452C400D884FF6FF7671
:108BE00006EA05252C434FF6DF752A408D8906EAF3
:108BF00005152A434D8806EA05152A43304DA8423B
:108C000002D0354DA8421DD14FF67F752A40CD893F
:108C10004FF6FF7606EA05152A434FF6BF752A4040
:108C20008D8806EA05152A434FF6FF352B404FF293
:108C3000FF752B400D8A06EA85052B434D8A06EA0F
:108C400085052B43838004838D688563028470BD12
:108C500070B5002400220023058C4FF6FF663540D6
:108C60000584028C8388848B4FF68F752C404FF6D9
:108C7000FC752C400D882C434FF6FF552A408D89FA
:108C80004FF6FF7606EA05252A434D8806EA0525B4
:108C90002A430B4DA84202D00F4DA84238D14FF2C3
:108CA000FF752A40CD894FF6FF7606EA05252A434F
:108CB0004FF6FF352A408D8806EA05252A4319E03C
:108CC000000001400004004000080040000C00408B
:108CD000001000400014004000040140004001402A
:108CE000004401400048014000180040001C0040C2
:108CF000002000404EF6FF752B404DF6FF752B40CF
:108D00000D8A06EA05152B434D8A06EA05152B4305
:108D1000838084838D68C563028470BD70B5002232
:108D200000230024058C4EF6FF7635400584038C25
:108D30008488828B48F6FF752A404FF6FF452A400B
:108D40000D884FF6FF7606EA05252A434DF6FF7596
:108D50002B408D8906EA05352B434D8806EA0535FB
:108D60002B43FE4DA84202D0FD4DA84208D14BF640
:108D7000FF752C400D8A4FF6FF7606EA85152C43C9
:108D8000848082838D680564038470BD0021018026
:108D90004180818081608181C181018241827047EF
:108DA00070B50346002000241846183001258D4078
:108DB000ACB21D8CA5431D8409B108290AD100EB72
:108DC000610005684FF68F763540056005681543EC
:108DD00005600FE00D1FC5F34E052844056848F6F1
:108DE000FF763540056005684FF6FF7606EA0226F5
:108DF0003543056070BD4163704781637047C1634F
:108E00007047016470470A460021018B4FF68F734B
:108E100019401143018370470A460021018B48F62F
:108E2000FF7319404FF6FF7303EA022319430183CE
:108E300070470A460021818B4FF68F73194011430A
:108E4000818370470A460021818B48F6FF731940E1
:108E50004FF6FF7303EA02231943818370470A46E2
:108E60000021018B4FF6F7731940114301837047BE
:108E70000A460021018B4FF2FF7319404FF6FF7332
:108E800003EA02231943018370470A460021818BBC
:108E90004FF6F77319401143818370470A4600214A
:108EA000818B4FF2FF7319404FF6FF7303EA0223E1
:108EB0001943818370470A460021018B4FF6FB73EB
:108EC00019401143018370470A460021018B4FF678
:108ED000FF3319404FF6FF7303EA0223194301835E
:108EE00070470A460021818B4FF6FB7319401143EE
:108EF000818370470A460021818B4FF6FF3319406A
:108F00004FF6FF7303EA02231943818370470A4631
:108F10000021018B4FF67F73194011430183704785
:108F20000A460021018BC1F30E014FF6FF7303EADD
:108F300002231943018370470A460021818B4FF6B3
:108F40007F7319401143818370470A460021818B4A
:108F5000C1F30E014FF6FF7303EA02231943818325
:108F600070470A460021018C4FF6FD7319401143EA
:108F7000018470470A460021018C4FF6F7731940AF
:108F80001143018470470A460021018C4FF6DF73BC
:108F900019404FF6FF7303EA021319430184704727
:108FA0000A460021018C4FF67F7319404FF6FF737C
:108FB00003EA02131943018470470A460021018C19
:108FC0004FF6FF5319404FF6FF7303EA022319438C
:108FD000018470470A460021018C4FF2FF7319404B
:108FE0004FF6FF7303EA02231943018470470A46D0
:108FF0000021018C4DF6FF7319404FF6FF7303EA11
:10900000023319430184704730B5002301248C409A
:10901000A3B2048C9C430484048C02FA01F5ADB223
:109020002C43048430BD30B5002304248C40A3B20B
:10903000048C9C430484048C02FA01F5ADB22C43E9
:10904000048430BD828B4FF2FF331A408283828BBF
:109050004FF6FF7303EA01231A4382837047F0B58A
:109060000C461546002100220026078C4EF6FF7C98
:1090700007EA0C070784818B028C4FF6FF7707EA1B
:10908000043640F6FF4739404FF6FF7707EA0527D9
:1090900039434FF6FF7707EA0337394345F6FF7741
:1090A0003A4046F480573A4381830284F0BD828B74
:1090B0004FF6F3731A408283828B0A438283704790
:1090C000F0B50C461546002100220026078C4FF60D
:1090D000FF6C07EA0C070784818B028C4FF6FF7741
:1090E00007EA04264FF60C7739404FF6FF7707EA78
:1090F00003172F4339434FF2FF573A4046F4807726
:109100003A4381830284F0BD028B4FF2FF331A4051
:109110000283028B4FF6FF7303EA01231A43028393
:109120007047F0B50C461546002100220026078C3A
:109130004FF6EF7C07EA0C070784018B028C4FF691
:10914000FF7707EA041640F6FF4739404FF6FF77EE
:1091500007EA033739434FF6FF7703E00000014089
:109160000004014007EA052739434FF65F773A408C
:1091700046F010073A4301830284F0BD028B4FF69C
:10918000F3731A400283028B0A4302837047F0B5DF
:109190000C46154600210022068C4FF6FE773E4015
:1091A0000684018B028C4FF60C7631407E1C06EA59
:1091B00003162E4331434FF6F576324044F0010654
:1091C000324301830284F0BD70B505460C46208809
:1091D00050B92389A28861882846FFF7D8FFE18823
:1091E0002846FFF7CBFF25E0208804280AD12389F1
:1091F000A28861882846FFF794FFE1882846FFF798
:1092000083FF17E0208808280AD12389A288618873
:109210002846FFF755FFE1882846FFF748FF09E099
:109220002389A28861882846FFF719FFE18828462C
:10923000FFF708FF70BD002101804180012181807E
:109240000021C180018170472DE9F04105460C469F
:1092500000260127608808B9022600E00026A088C1
:10926000012801D1022700E001272088A0B9238925
:10927000A28861882846FFF78AFFE1882846FFF721
:109280007DFF23893A4631462846FFF74AFFE188A9
:109290002846FFF739FF13E02389A2886188284612
:1092A000FFF73FFFE1882846FFF72EFF23893A4664
:1092B00031462846FFF76BFFE1882846FFF75EFF3F
:1092C000BDE8F0810146486B70470146886B7047E6
:1092D0000146C86B70470146086C70470A884B8886
:1092E0001A438B881A43CB881A430B891A434B893C
:1092F0001A438B891A43A0F844207047002101804B
:1093000041808180C180018141818181704731B17B
:10931000B0F8442042F40042A0F8442005E0B0F840
:109320004420C2F30E02A0F84420704721B1828885
:1093300042F00402828004E082884FF6FB731A40F8
:109340008280704721B1828842F00102828004E06D
:1093500082884FF6FE731A40828070471AB1838963
:109360000B43838102E083898B4383817047818231
:10937000704702460020138A0B400BB1012000E029
:1093800000207047CA430282704730B50246002071
:1093900000230024158A05EA0103958905EA0104E2
:1093A00013B10CB1012000E0002030BDCA4302829D
:1093B000704741EA0203A0F8483070471AB1838928
:1093C0000B43838102E083898B438381704721B102
:1093D000828842F00802828004E082884FF6F773A8
:1093E0001A408280704701894FF6F872114001815E
:1093F00070470A46002101894FF68F7319401143C7
:109400000181704730B504460D4629462046FFF7D6
:10941000F0FF208940F00700208130BD2DE9F041A8
:1094200004460D4616461F46602D06D13B460122D6
:1094300031462046FFF775FE05E03B4601223146E6
:109440002046FFF7A4FE29462046FFF7D2FF2089D9
:1094500040F007002081BDE8F08130B50C460021C6
:109460000189C9B24FF6FF7505EA03251543254367
:109470002943018130BD2DE9F04105460E461746CE
:109480009846002443463A4631462846FFF7E5FF12
:109490002C894FF6F870044044F007044FF68F70A3
:1094A000044044F070042C81BDE8F081F0B504461E
:1094B0000D4616461F463B46324629462046FFF7D4
:1094C000CCFF208940F480402081F0BD82884FF697
:1094D0008F731A40828082880A4382807047028993
:1094E0004FF6F8731A40028102890A4302817047DD
:1094F00002894FF67F731A40028102890A43028172
:109500007047F0B50C4615461E4600210022002388
:109510000189028B038C4FF6F877394021434FF6CF
:10952000FC473A4040F201173A434FF6DD773B40A3
:109530004FF6FF7707EA06172F433B43018102836B
:109540000384F0BD21B1828842F08002828004E071
:1095500082884FF67F731A4082807047A0F85010BF
:109560007047000010B50446FA48844208D1012132
:109570001020FFF700F900211020FFF7FCF857E05A
:10958000F548844209D101214804FFF7E3F800219E
:109590004FF40030FFF7DEF84AE0F048844209D18A
:1095A00001218804FFF7D6F800214FF48020FFF74F
:1095B000D1F83DE0EA48844209D10121C804FFF70F
:1095C000C9F800214FF40020FFF7C4F830E0E54867
:1095D000844209D101210805FFF7BCF800214FF4AE
:1095E0008010FFF7B7F823E0DF48844208D101215B
:1095F0002020FFF7C0F800212020FFF7BCF817E07B
:10960000DA48844209D101218807FFF7A3F8002135
:109610004FF08040FFF79EF80AE0D548844207D11A
:1096200001214005FFF796F800216005FFF792F849
:1096300010BD2DE9FF4705460E460024A14600BF98
:10964000A046B08900B100BF2C8A24F44054F088B1
:1096500004432C82AC8941F20C608443B088318988
:109660000843718908430443AC81AC8A24F44074F4
:10967000B0890443AC826846FEF7FDFEB5488542DA
:1096800002D0B948854202D1DDF80C9001E0DDF846
:109690000890A88900F4004040B109EBC90000EB34
:1096A000091031684900B0FBF1F707E009EBC90088
:1096B00000EB091031688900B0FBF1F76420B7FBBB
:1096C000F0F004012009642101FB1078A88900F45E
:1096D000004040B1322000EBC800B0FBF1F000F0D8
:1096E0000700044308E0322000EB08106421B0FBBF
:1096F000F1F000F00F0004432C81BDE8FF874FF428
:109700001651016000218180C18001810C214181BD
:1097100000218181704710B502460020108A20F494
:1097200070600B884C8823438C882343CC88234368
:109730001843108210BD0021018041808180C180CA
:10974000704721B1828942F40052828104E082890B
:109750004DF6FF731A4082817047028B02F47F42FC
:109760000283028B0A430283704721B1828942F44B
:109770000042828103E08289C2F30E028281704737
:1097800021B1828A42F40062828204E0828A4FF22E
:10979000FF731A4082827047C1F3080282807047CB
:1097A00001468888C0F308007047028A4FF6F073BC
:1097B0001A400282028A0A430282704721B18289DA
:1097C00042F00202828104E082894FF6FD731A4062
:1097D0008281704782894FF2FF731A4082818289A9
:1097E0000A4382817047028A4FF6DF731A40028271
:1097F000028A0A430282704721B1028A42F48042FF
:10980000028204E0028A4BF6FF731A40028270471C
:10981000818941F001018181704721B1828A42F042
:109820000802828204E0828A4FF6F7731A4082822D
:109830007047028BD2B20283028B42EA012202837A
:10984000704721B1828A42F02002828204E0828A3B
:109850004FF6DF731A408282704721B1828A42F04C
:109860001002828204E0828A4FF6EF731A408282ED
:109870007047828A4FF6FB731A408282828A0A43BB
:109880008282704721B1828A42F00202828204E021
:10989000828A4FF6FD731A40828270471AB1838A1A
:1098A0000B43838202E0838A8B4383827047F0B547
:1098B0000346002400260025002040F66A17B9421E
:1098C00000D100BF1846C1F3421401F01F06012762
:1098D00007FA06F5012C01D10C3004E0022C01D16D
:1098E000103000E014301AB107682F43076002E01F
:1098F0000768AF430760F0BD02460020B1F5007F66
:1099000000D100BF13880B400BB1012000E0002004
:10991000704701F40072B2F5007F00D100BFCA4366
:109920000280704770B50246002400230025002005
:1099300040F66A16B14200D100BFC1F3421501F0F2
:109940001F03012606FA03F3012D13D19689334034
:1099500017E00000001001400044004000480040B3
:10996000004C0040005000400014014000780040CE
:10997000007C0040022D02D1168A334001E0968A15
:1099800033400C12012606FA04F41688344013B151
:109990000CB1012000E0002070BD10B500220023B2
:1099A00040F66A14A14200D100BF0A12012494407B
:1099B000A3B2DC43048010BD10B502F0A4F9012865
:1099C00001D003F035F910BD70B504460420FDF751
:1099D000FDFF3248047025464FF47A70454301205C
:1099E0002F4908804FF0E020006940F002004FF05E
:1099F000E021086108464561006940F00100086106
:109A000070BD70B5034600224FF0E0267569234E05
:109A1000367803FB06F44FF0E026B16910E04FF012
:109A2000E026B06988420BD0884202D20E1A324436
:109A300002E02E1A0E4432440146A24200D300E056
:109A4000EDE700BF70BD70B5044602F05CF9012877
:109A500010D013480088844206D311480088B4FB14
:109A6000F0F5284601F0F0FB0D480088B4FBF0F15A
:109A700000FB11444FF47A7104FB01F0FFF7C1FFC2
:109A800070BD30B50446002504E04FF47A70FFF74E
:109A9000B8FF6D1CA542F8D330BD0000A000002027
:109AA000A200002000BF704700BF4C4A128802F09D
:109AB0004002002AF9D0C2B2484B9A80704710B5D4
:109AC00088B0044601210846FEF7A6FD01211020BA
:109AD000FEF7FCFD072209214148FEF78AFB072219
:109AE0000A213F48FEF785FB4FF4C0600690022034
:109AF0008DF81C008DF81D0000208DF81E0001203F
:109B00008DF81F0006A93648FEF7E8FA02940020F7
:109B1000ADF80C00ADF80E00ADF81000ADF8140073
:109B20000C20ADF8120002A92C48FFF782FD01219C
:109B30002A48FFF706FE012240F225512748FFF789
:109B4000B6FE25208DF8040003208DF805008DF861
:109B5000060001208DF8070001A8FDF7EAFE08B015
:109B600010BD10B540F225511C48FFF7DBFE10B3C5
:109B70001A48FFF715FEC4B21A48008800F40040E6
:109B8000C8B91848008800F4804060B10A2C03D09E
:109B900000201449088020E01248008840F400406A
:109BA0001049088019E00D2C06D10E48008840F4B9
:109BB00080400C49088010E00A480088C0F30D007E
:109BC00009490C5407480088401C0649088008468B
:109BD0000088C72801DD0020088010BD001001406A
:109BE00000000240A8000020160F002070B50346B8
:109BF0000C4603E014F8015B03F8015B151EA2F1AB
:109C00000102F7D170BD30B5034601E003F8011B36
:109C1000141EA2F10102F9D130BD10B504467C49F1
:109C200051F824104A007B4951F824000021FFF725
:109C3000EAFF794951F8242076490C3951F824007B
:109C40000021FFF7E0FF012172480C30015510BDE3
:109C500010B501460023002207E06E4850F82100AD
:109C600030F8120000B15B1C521C694850F821000A
:109C70009042F2D864205843654C54F82140B0FB20
:109C8000F4F0C0B210BD2DE9F04704460F460025A0
:109C9000A94660480C30005D20B95E481438016860
:109CA000204688471FB94FF0FF30BDE8F0875B487A
:109CB00050F82400B7FBF0F086B2584850F8240062
:109CC000B7FBF0F100FB117008B1701C86B2504870
:109CD00050F82400451E22E04E4850F8240030F889
:109CE000150020B909F101001FFA80F901E04FF0D9
:109CF0000009B14512D14FF0000808E0454850F87E
:109D0000240005EB080120F8116008F10108B045B6
:109D1000F4D3424850F824006843C6E76D1E002D76
:109D2000DADA4FF0FF30C0E72DE9F04104460E4685
:109D300038480C30005D38B9364814380168204680
:109D400088470120BDE8F081334850F82400B04234
:109D500017D9324850F82400B6FBF0F12D4850F8DE
:109D6000240030F81120002507E00023294850F88E
:109D700024004F1920F817306D1C9542F5DB0020A8
:109D8000E0E70220DEE770B505460C4604B970BD79
:109D900020480C3850F82500261A31462846FFF78F
:109DA000C3FF00BFF3E770B504460E4631462046B8
:109DB000FFF769FF0546681C08B9002070BD15480B
:109DC0000C3850F824002844F8E72DE9F041044607
:109DD0000F46164631462046FFF755FF0546681CDC
:109DE00010B90020BDE8F0810A490C3951F824105F
:109DF000481932463946FFF7F9FE39462046FFF743
:109E0000C2FF04480C3850F824002844EAE7000058
:109E1000A8D50208C0000020C0D50208B4D50208A9
:109E200000F1080141604FF0FF31816000F108014D
:109E3000C16001610021016070470021016170472C
:109E400042684A6093688B609368596091600861CA
:109E500003685B1C0360704710B502460B685C1C0E
:109E60000CB9106907E002F1080000E0406844689E
:109E700024689C42FAD944684C604C68A1608860B0
:109E800041600A611468641C146010BD01460A69CF
:109E9000D1E901309860D1E90103586050688842E7
:109EA00001D188685060002008611068401E106071
:109EB0001068704770B505460E462C462CB940F226
:109EC0001B12FAA1FEA007F0A9FA02F076FED4E96F
:109ED0000F12206801FB020060600020A063206870
:109EE000A060E06B401E226C216800FB0210E06065
:109EF000FF2084F8440084F845009EB9206908B921
:109F0000012000E00020A8B904F1100001F0FBFDE1
:109F100080B14FF08050EE490860BFF34F8FBFF320
:109F20006F8F07E004F11000FFF77AFF04F12400BF
:109F3000FFF776FF02F064FE012070BD2DE9F041CD
:109F400006460D4617469846069C0DB9246000E06B
:109F50002760E663256401212046FFF7ABFF84F804
:109F600050800020A064BDE8F0812DE9F84305464B
:109F70000E4690460DB1012000E0002028B94FF4B4
:109F8000C472CAA1CEA007F049FA0EB9002701E0B9
:109F900005FB06F707F1540002F01FFF044644B129
:109FA00004F1540943464A46314628460094FFF7D7
:109FB000C5FF2046BDE8F8832DE9F04104460F4671
:109FC00015464FF00008A66B206C40B9206860BBB6
:109FD000606801F0F6FE80460020606025E07DB9F3
:109FE0003946226CA06807F098FB216CA0680844F1
:109FF000A060D4E90110884217D32068A06014E063
:10A000003946226CE06807F088FB216CE068401A52
:10A01000E0602168E068884203D2216C6068401AE1
:10A02000E060022D01D106B1761E701CA06340468F
:10A03000BDE8F0812DE9F3410D460098846C0027BE
:10A040002CB940F6CE1299A19DA007F0E7F9A06BBC
:10A05000E16B884201D2012000E0002028B940F6DF
:10A06000CF1292A196A007F0D9F9A06BE16B8842BC
:10A070001BD294F945602A4669462046FFF79CFFAB
:10A080000746701C60B9606A08B9012000E0002032
:10A0900050B904F1240001F036FD28B1012703E096
:10A0A000701C40B284F8450000BF3846BDE8FC8112
:10A0B00070B5044602F081FD94F945501AE0A06C99
:10A0C00038B100212046FFF7B5FF88B101F0EFFD60
:10A0D0000EE0606A08B9012000E0002038B904F100
:10A0E000240001F010FD18B101F0E1FD00E003E0F3
:10A0F000681E45B2002DE2DC00BFFF2084F8450059
:10A1000002F07EFD02F059FD94F9445010E0206900
:10A1100008B9012000E0002048B904F1100001F066
:10A12000F2FC08B101F0C3FD681E45B200E001E099
:10A13000002DECDC00BFFF2084F8440002F060FD3D
:10A1400070BD70B5054602F038FDA86BE96B88421A
:10A1500001D1012400E0002402F052FD204670BD30
:10A160002DE9FF4383B0064688461D464FF000099F
:10A1700034462CB940F2D9224CA151A007F04EF937
:10A18000B8F1000F01D1206C08B9012000E00020D7
:10A1900028B940F2DA2245A149A007F03FF9022D83
:10A1A00002D1E06B012801D1012000E0002028B994
:10A1B00040F2DB223DA142A007F030F901F0A3FDFF
:10A1C00008B9059808B9012000E0002028B940F23C
:10A1D000DE2236A13AA007F021F900BF02F0EDFC23
:10A1E000A06BE16B884201D3022D38D12A4641464B
:10A1F0002046FFF7E1FE0746A06C68B129462046DD
:10A20000FFF718FF28B34FF0805031490860BFF3C3
:10A210004F8FBFF36F8F1CE0606A08B9012000E028
:10A22000002068B904F1240001F06DFC88B14FF002
:10A23000805027490860BFF34F8FBFF36F8F08E04E
:10A240003FB14FF0805022490860BFF34F8FBFF3FA
:10A250006F8F02F0D5FC012007B0BDE8F0830598B0
:10A2600018B902F0CDFC0020F6E7B9F1000F04D1D7
:10A2700001A801F0CCFC4FF0010902F0C1FC00F094
:10A2800082FF02F09AFC94F94400401C10B90020AF
:10A2900084F8440094F94500401C10B9002084F86B
:10A2A000450002F0ADFC05A901A813E02E2E5C4686
:10A2B00072656552544F535C71756575652E630008
:10A2C0004572726F723A25732C25640D0A000000E6
:10A2D00004ED00E001F0ADFCF8B92046FFF731FFD6
:10A2E000A8B104F11000059901F0AFFB2046FFF77B
:10A2F000DFFE00F09DFE00287FF470AF4FF080502D
:10A30000FA490860BFF34F8FBFF36F8F66E72046AF
:10A31000FFF7CEFE00F08CFE60E72046FFF7C8FE98
:10A3200000F086FE002097E710B504464CB10020EF
:10A3300060602060E06000231A4619462046FFF75F
:10A340000FFF10BD2DE9F0410446012600272246EB
:10A3500000210120FFF709FE05462846FFF7E4FF2C
:10A360002846BDE8F08170B5064634463CB940F257
:10A370004122AFF2C801AFF2B80007F04FF801F088
:10A38000BFFC616888420CD1E068401EE060E06874
:10A3900028B900231A4619462046FFF7E1FE012599
:10A3A00000E00025284670BD70B5054602F005FCAA
:10A3B000A86B08B9012400E0002402F021FC20462B
:10A3C00070BD70B504460D46206C70B1216CE0681C
:10A3D0000844E0606168E068884201D32068E0607A
:10A3E0002846226CE16807F098F970BD2DE9FF4717
:10A3F00082B005460E461F464FF0000A2C463CB977
:10A4000040F2DC42AFF25C11AFF24C1007F006F8FC
:10A410000EB9206C08B9012000E0002038B940F2E4
:10A42000DD42AFF27811AFF2681006F0F7FF01F0ED
:10A430006AFC08B9049808B9012000E0002038B986
:10A440004FF49C62AFF29C11AFF28C1006F0E6FF65
:10A4500000BF02F0B2FBD4F83890B9F1000F3DD044
:10A46000D4F80C8031462046FFF7ABFFDFB9A9F1E5
:10A470000100A063206810B901F082FD60602069CE
:10A4800008B9012000E0002010BB04F1100001F029
:10A490003AFBE8B14FF0805094490860BFF34F8F0A
:10A4A000BFF36F8F14E0C4F80C80606A08B9012014
:10A4B00000E0002060B904F1240001F024FB38B171
:10A4C0004FF0805089490860BFF34F8FBFF36F8F03
:10A4D00002F096FB012006B0BDE8F087049818B999
:10A4E00002F08EFB0020F6E7BAF1000F04D16846B7
:10A4F00001F08DFB4FF0010A02F082FB00F043FEF9
:10A5000002F05BFB94F94400401C10B9002084F871
:10A51000440094F94500401C10B9002084F845001F
:10A5200002F06EFB04A9684601F083FB40BB2046A5
:10A53000FFF73AFFF0B1206830B902F03EFB6068E7
:10A5400001F0EDFB02F05CFB04F12400049901F042
:10A550007CFA2046FFF7ACFD00F06AFD00287FF48E
:10A5600078AF4FF0805061490860BFF34F8FBFF361
:10A570006F8F6EE72046FFF79BFD00F059FD68E7FF
:10A580002046FFF795FD00F053FD2046FFF70CFF36
:10A590000028EED000209EE72DE9F04106460F4648
:10A5A00034463CB94FF41E72AFF20031AFF2F020E6
:10A5B00006F034FF01F0A4FB6168884204D1E06832
:10A5C000401CE06001250AE000233A461946204677
:10A5D000FFF70CFF054615B1E068401CE060284617
:10A5E000BDE8F08170B505460E460DB1012000E0D2
:10A5F000002038B940F2BD22AFF25031AFF2403006
:10A6000006F00CFFAE4201D8012000E0002038B96E
:10A6100040F2BE22AFF26C31AFF25C3006F0FEFECB
:10A62000022200212846FFF7A0FC044604B1A663DD
:10A63000204670BD2DE9F05F80468A4615461E46CD
:10A6400044463CB940F29F32AFF2A031AFF29030B5
:10A6500006F0E4FEBAF1000F01D1206C08B9012028
:10A6600000E0002038B94FF46872AFF2C031AFF2A9
:10A67000B03006F0D3FE022E02D1E06B012801D1EA
:10A68000012000E0002038B940F2A132AFF2E431FD
:10A69000AFF2D43006F0C2FE02F0E2FA00BF502161
:10A6A000EFF3118081F31188BFF34F8FBFF36F8FEA
:10A6B00000BF0746A06BE16B884201D3022E2ED16A
:10A6C00094F945B0324651462046FFF775FC0BF130
:10A6D0000100E0B9A06C58B131462046FFF7AAFC52
:10A6E000D0B1CDB10120286016E0000004ED00E0FB
:10A6F000606A08B9012000E0002068B904F1240074
:10A7000001F001FA40B13DB10120286004E00BF1F5
:10A71000010040B284F845004FF0010901E04FF01C
:10A72000000900BF87F3118800BF4846BDE8F09FCD
:10A730002DE9F04707460D463C463CB940F23C4205
:10A74000AFF29841AFF2884006F068FE206C08B97D
:10A75000012000E0002038B94FF48862AFF2B44124
:10A76000AFF2A44006F05AFE206808B9606808B944
:10A77000012000E0002038B940F24542AFF2D44158
:10A78000AFF2C44006F04AFE02F06AFA00BF502160
:10A79000EFF3118081F31188BFF34F8FBFF36F8FF9
:10A7A00000BF0646D4F83890E06B484529D994F9A3
:10A7B00045A009F10100A0630AF10100C8B9A06C2D
:10A7C00040B100212046FFF735FCB8B1B5B10120FA
:10A7D000286013E0606A08B9012000E0002068B931
:10A7E00004F1240001F08FF940B13DB1012028604F
:10A7F00004E00AF1010040B284F845004FF001087E
:10A8000001E04FF0000800BF86F3118800BF40460A
:10A81000BDE8F0872DE9F05F0646894617463446C5
:10A820003CB94FF4B462AFF27C51AFF26C5006F019
:10A83000F5FDB9F1000F01D1206C08B9012000E04D
:10A84000002038B940F2A152AFF2A051AFF29050BF
:10A8500006F0E4FD02F004FA00BF5021EFF311808E
:10A8600081F31188BFF34F8FBFF36F8F00BF054691
:10A87000D4F838A0BAF1000F22D094F944B0494678
:10A880002046FFF79EFDAAF10100A0630BF1010035
:10A8900070B9206908B9012000E0002068B904F10E
:10A8A000100001F030F940B13FB10120386004E000
:10A8B0000BF1010040B284F844004FF0010801E0C0
:10A8C0004FF0000800BF85F3118800BF4046BDE887
:10A8D000F09F2DE9F0470646884634463CB940F2E1
:10A8E000FC52AFF23861AFF2286006F097FDB8F184
:10A8F000000F01D1206C08B9012000E0002038B918
:10A9000040F2FD52AFF25C61AFF24C6006F086FDA2
:10A91000206C08B1012000E0002038B940F2FE525E
:10A92000AFF27861AFF2686006F078FD02F098F956
:10A9300000BF5021EFF3118081F31188BFF34F8FD7
:10A94000BFF36F8F00BF0546A06B48B1D4F80C90E1
:10A9500041462046FFF735FDC4F80C90012700E082
:10A96000002700BF85F3118800BF3846BDE8F08797
:10A9700070B504463CB940F22F62AFF2D061AFF23D
:10A98000C06006F04BFD02F018F9A56B02F038F933
:10A99000284670BD70B5044625463DB940F2416277
:10A9A000AFF2F861AFF2E86006F038FD02F005F9A9
:10A9B000D5E90E10461A02F023F9304670BD70B585
:10A9C00004463CB940F25162AFF22071AFF2107010
:10A9D00006F024FDA56B284670BD014600200EE060
:10A9E000764A02EBC00252688A4207D10022734BBA
:10A9F00043F8302003EBC0035A6002E0401C0828F3
:10AA0000EED300BF704770B5044625463DB940F20D
:10AA10005D62AFF26871AFF2587006F0FFFC284635
:10AA2000FFF7DBFF284602F05BFA70BD0146C86CF9
:10AA30007047C1647047014691F85000704770B587
:10AA400005463DB940F29372AFF2A071AFF290703B
:10AA500006F0E4FCA86B08B9012400E000242046BD
:10AA600070BD70B504463CB940F2BA72AFF2C47121
:10AA7000AFF2B47006F0D2FCA06BE16B884201D15A
:10AA8000012500E00025284670BD024600200BE0AD
:10AA90004A4B53F8303033B9484B43F8301003EB8E
:10AAA000C0035A6002E0401C0828F1D300BF704781
:10AAB0000246002000210AE0404B03EBC1035B6823
:10AAC000934203D13D4B53F8310002E0491C082961
:10AAD000F2D300BF70472DE9F04105460E461746F8
:10AAE0002C4602F06AF894F94400401C10B900208A
:10AAF00084F8440094F94500401C10B9002084F803
:10AB0000450002F07DF8A06B28B93A46314604F1C1
:10AB1000240000F0DDFF2046FFF7CAFABDE8F0810F
:10AB200070B50446002204212046FFF71EFA0546B0
:10AB3000284670BD70B504460E4602F03EF8A06C83
:10AB400008B1002505E0A06B08B1002501E0A6646E
:10AB5000012502F055F8284670BD2DE9F041054663
:10AB60000F462E46B06CB84201D000240AE0B06B0C
:10AB700008B1002406E002F020F80020B06402F0E2
:10AB80003FF801242046BDE8F08138B505460C4663
:10AB9000002000900023224669462846FFF726FC45
:10ABA000009838BD38B50446002000900022694660
:10ABB0002046FFF72FFE009838BD0000608E012070
:10ABC00010B5002407E004EB8401FB4A02EB81008E
:10ABD000FFF726F9641C202CF5D3F848FFF720F97D
:10ABE000F748FFF71DF9F748FFF71AF9F648FFF79E
:10ABF00017F9F648FFF714F9F048F5490860F048EE
:10AC0000F449086010BD10B5044601F0D6FFF248C3
:10AC10000068401CF0490860F048006840B9EF48FF
:10AC200004600846006801280DD1FFF7C9FF0AE05B
:10AC3000EB48006838B9E9480068C06AE16A8842B0
:10AC400001D8E6480460E7480068401CE549086010
:10AC500008460068A06494F82C1001208840E2495E
:10AC600009680843E0490860E16A01EB8101D24AC2
:10AC700002EB8100211DFFF7E3F801F0C1FFD84886
:10AC8000006868B1D5480068C06AE16A884207D2A6
:10AC90004FF08050D5490860BFF34F8FBFF36F8FDF
:10ACA00010BD2DE9F05F82460F4690469B460A9EF6
:10ACB0000C9C4FEA8801A522206B06F0E7FDA8F165
:10ACC0000100216B01EB800929F0070909F0070059
:10ACD00008B9012000E0002028B940F22B32C4A1BD
:10ACE000C8A006F09BFB002507E0795D04F1340065
:10ACF0004155785D00B902E06D1C142DF5D300BFFD
:10AD0000002147200155202E00D31F26E66226652C
:10AD100000206065201DFFF790F804F11800FFF790
:10AD20008CF82461C6F12000A06164620020A06557
:10AD300084F85C005A465146484601F08CFE20607B
:10AD40000B9808B10B980460BDE8F09F2DE9FF4F08
:10AD500085B0804689461746DDE912ABB80002F09F
:10AD60003CF8064656B1602002F037F804460CB1B4
:10AD7000266304E0304602F0B3F800E000247CB122
:10AD80000020CDE900ABCDE902403A4649464046B5
:10AD9000089BFFF786FF2046FFF735FF012501E0FE
:10ADA0004FF0FF35284609B0BDE8F08F88490968A3
:10ADB000096809B9012100E0002121B14FF0FF31FC
:10ADC000944A116006E082490968C968C868914AD6
:10ADD00041681160704710B50446206B02F080F89E
:10ADE000204602F07DF810BD70B5054601F0E5FE85
:10ADF00015B97A48006800E028460446201DFFF790
:10AE000045F878B9E06A00EB80006B4951F8200002
:10AE100040B994F82C100120884073490968814397
:10AE200071480160A06A18B104F11800FFF72EF80C
:10AE30006C480068401C6B490860684800688442A0
:10AE400009D1211D6048FEF7FBFF73480068401CD4
:10AE50007149086009E060480068401E5E4908606A
:10AE60002046FFF7B8FFFFF7A1FF01F0C9FE5C48DD
:10AE70000068C0B159480068844214D1674800682E
:10AE800008B9012000E0002028B940F2654258A12D
:10AE90005CA006F0C3FA4FF0805054490860BFF33D
:10AEA0004F8FBFF36F8F70BD2DE9F0414FF0000859
:10AEB0005A480068002872D159480068451C584813
:10AEC0000560EDB942480068006808B9012000E05B
:10AED000002028B940F6D91245A14AA006F09EFAF2
:10AEE0003B4807683B4800683949086039480760B3
:10AEF0004C480068401C4B490860FFF757FF00BFF3
:10AF00004448006885423CD300BF3148006800686F
:10AF100008B9012000E0002020B14FF0FF303D498A
:10AF200008602DE02A480068C068C4686668B542B9
:10AF300002D23848066023E0201DFEF7A7FFA06A72
:10AF400018B104F11800FEF7A1FF94F82C100120AD
:10AF5000884025490968084323490860E16A01EBF4
:10AF60008101154A02EB8100211DFEF769FF1B4993
:10AF7000E06A0968C96A8842C7D34FF00108C4E78C
:10AF800000BF16480068C06A00EB80000A4951F80B
:10AF90002000012801D94FF0010805E0FFE7224811
:10AFA0000068401C204908602048006808B14FF044
:10AFB00001084046BDE8F081A08E012020910120CB
:10AFC00034910120489101205C9101207091012071
:10AFD000D4000020D8000020E0000020D000002095
:10AFE000EC000020FC000020E800002004ED00E060
:10AFF0002E2E5C4672656552544F535C7461736BC0
:10B00000732E63004572726F723A25732C25640D9E
:10B010000A00000000010020DC00002008010020E0
:10B02000E4000020F8000020F0000020F4000020E0
:10B0300070B500240026FE48006838B94FF4FD6260
:10B04000AFF25401AFF2440006F0E8F901F0B5FDAB
:10B05000F7480068401EF649086008460068002866
:10B060004FD1F448006800284BD024E0F248C06873
:10B07000C46804F11800FEF709FF201DFEF706FF63
:10B0800094F82C1001208840EC4909680843EB49EA
:10B090000860E16A01EB8101E94A02EB8100211DB0
:10B0A000FEF7CEFEE749E06A0968C96A884202D322
:10B0B0000120E5490860E048006808B9012000E087
:10B0C00000200028D2D00CB1FFF770FEDF480568E1
:10B0D00065B100BFFFF7E8FE10B10120DA49086052
:10B0E0006D1E002DF6D10020D8490860D6480068B2
:10B0F00038B101263007D6490860BFF34F8FBFF340
:10B100006F8F01F07DFD304670BD2DE9F0410546A1
:10B110000E46D0480768CB480068001DFEF7B6FE13
:10B1200050B9C848006890F82C1001208840C349E5
:10B1300009688143C1480160681C38B936B1C1480B
:10B140000168091DC448FEF77BFE1AE07C19BD4862
:10B1500000684460BC4207D2BA480168091DBF4874
:10B160000068FEF779FE0CE0B6480168091DBC488E
:10B170000068FEF771FEBB480068844201D2B948FE
:10B180000460BDE8F081AA480068401CA849086036
:10B1900070472DE9F04704460F464FF000093CB9CF
:10B1A00040F27942AFF2B811AFF2A81006F036F9CA
:10B1B0000FB1012000E0002038B940F27A42AFF22E
:10B1C000D011AFF2C01006F029F99948006808B90B
:10B1D000012000E0002038B940F27B42AFF2F011CC
:10B1E000AFF2E01006F01AF9FFF7CDFF99480668B4
:10B1F0002068C5192068B04207D92068A8420BD939
:10B20000B54209D94FF0010906E02068A84201D8EB
:10B21000B54201D94FF001092560B9F1000F03D003
:10B22000A81B0021FFF771FFFFF702FF8046B8F16E
:10B23000000F07D14FF0805085490860BFF34F8F52
:10B24000BFF36F8FBDE8F08770B504460025BCB131
:10B250007748006808B9012000E0002038B940F2C2
:10B26000CF42AFF27421AFF2642006F0D7F8FFF7B7
:10B270008AFF00212046FFF748FFFFF7D9FE054669
:10B280003DB94FF0805072490860BFF34F8FBFF354
:10B290006F8F70BD2DE9F04107463E463EB940F242
:10B2A000FB42AFF2B421AFF2A42006F0B7F8654834
:10B2B0000068864201D100241EE001F07EFC756921
:10B2C00001F09EFC66480068854203D06348006830
:10B2D000854201D102240FE05F48854205D1B06A62
:10B2E00008B9032408E0022406E05F48854200D044
:10B2F0000DB9042400E001242046BDE8F08170B5BA
:10B30000044601F05AFC14B94E48006800E020469B
:10B310000646F56A01F074FC284670BD2DE9F0413F
:10B32000054601F09DFC00BF5021EFF3118081F331
:10B330001188BFF34F8FBFF36F8F00BF044615B95D
:10B340004048006800E028460746FE6A00BF84F3D4
:10B35000118800BF3046BDE8F0812DE9F0478046F6
:10B360000D464FF00009202D01D2012000E0002001
:10B3700038B94FF4B062AFF28831AFF2783006F0EE
:10B380004DF8202D00D31F2501F017FCB8F1000F58
:10B3900002D12C48006800E040460446266DAE42CB
:10B3A00077D0B5420BD92748006884420DD0254894
:10B3B0000068C06AA84208D84FF0010905E021489A
:10B3C0000068844201D14FF00109E76AE16A206D0B
:10B3D000884200D1E5622565A06900F0004010B9FF
:10B3E000C5F12000A06107EB8701154A02EB81013E
:10B3F0006069884201D1012000E00020B0B3201D27
:10B40000FEF744FD30B90120B8400C49096881437A
:10B410000A48016094F82C10012088400749096807
:10B42000084306490860E16A01EB8101044A1FE014
:10B4300008010020E000002048910120E8000020E1
:10B44000A08E0120D0000020F4000020F000002099
:10B4500004ED00E0E400002070910120D8000020FD
:10B46000D4000020000100205C91012005E010E0E4
:10B4700002EB8100211DFEF7E3FCB9F1000F07D0BC
:10B480004FF08050FC490860BFF34F8FBFF36F8FC0
:10B4900000BF01F0B5FBBDE8F08710B5F7480068C4
:10B4A00018B10120F64908602FE00020F449086037
:10B4B000F4480068B0FA80F0C0F11F0404EB840087
:10B4C000F14951F8200008B1012000E0002038B90E
:10B4D00040F6F622AFF2E841AFF2D84005F09EFF09
:10B4E00004EB8401E84A02EB81004168496841604D
:10B4F00000F1080142688A4202D14168496841600E
:10B500004168C968E14A116000BF10BD70B50546C9
:10B5100001F053FB15B9DD48006800E028460446F9
:10B52000201DFEF7B3FC78B9E06A00EB8000D64935
:10B5300051F8200040B994F82C1001208840D149DE
:10B5400009688143CF480160A06A18B104F118006E
:10B55000FEF79CFC211DCE48FEF772FC01F050FB6B
:10B56000CC48006828B101F028FBFFF71FFC01F070
:10B5700047FBC6480068844226D1C6480068B8B177
:10B58000BE48006808B9012000E0002038B940F248
:10B590005762AFF2A451AFF2945005F03FFF4FF065
:10B5A0008050B5490860BFF34F8FBFF36F8F0BE03A
:10B5B000B7480068B8490968884203D10020B349F8
:10B5C000086001E0FFF769FF70BD70B50546002611
:10B5D0002C463DB940F28162AFF2EC51AFF2DC5043
:10B5E00005F01CFFAA496069884201D1012000E0F2
:10B5F000002070B1A949A06A884201D1012000E071
:10B60000002030B9A06A08B9012000E0002000B194
:10B610000126304670BD70B505462C463DB940F256
:10B62000AB62AFF23461AFF2246005F0F7FE74B3A1
:10B630009648006884422AD001F0BFFA2046FFF7FE
:10B64000C4FF10B3201DFEF721FC94F82C1001203C
:10B6500088408C49096808438A490860E16A01EB1F
:10B660008101894A02EB8100211DFEF7E9FB874930
:10B67000E06A0968C96A884207D34FF080507E4962
:10B680000860BFF34F8FBFF36F8F01F0B9FA70BD41
:10B690002DE9F0410646002734463EB940F2E26209
:10B6A000AFF2B461AFF2A46005F0B8FE01F0D8FAD1
:10B6B00000BF5021EFF3118081F31188BFF34F8F4A
:10B6C000BFF36F8F00BF05462046FFF77EFF20B314
:10B6D0006A480068E0B96D49E06A0968C96A884249
:10B6E00000D30127201DFEF7D1FB94F82C10012078
:10B6F000884064490968084362490860E16A01EBCF
:10B700008101614A02EB8100211DFEF799FB04E0F3
:10B7100004F118016148FEF793FB00BF85F311881F
:10B7200000BF3846BDE8F08170B523E0FFF72BFD80
:10B730005B48006808B9012000E000200546FFF7DB
:10B7400077FCBDB901F039FA5548C068C468201DBE
:10B75000FEF79CFB50480068401E4F490860514866
:10B760000068401E4F49086001F04AFA2046FFF782
:10B7700032FB00BF4B4800680028D7D170BD00BF26
:10B78000FFF7D2FF404800680128F9D94FF08050F8
:10B7900039490860BFF34F8FBFF36F8FF0E71CB5D7
:10B7A000414800210B468222CDE900103FA14148CB
:10B7B000FFF7CCFA0446012C02D100F0EFFF04465B
:10B7C000012C17D100BF502080F31188BFF34F8F99
:10B7D000BFF36F8F00BF4FF0FF3037490860012083
:10B7E0002C490860002035490860FCF759F801F041
:10B7F00052F90DE0601C08B1012000E0002038B9CA
:10B8000040F28472AFF61801AFF6080005F006FEAC
:10B810001CBD10B500BF502080F31188BFF34F8FBF
:10B82000BFF36F8F00BF00201A49086001F0B4F920
:10B8300010BD22490868704770B501F011FA002563
:10B840001E480468204670BD13480068704770B5F4
:10B85000044614B90D48006800E0204605463DB98D
:10B8600040F68C02AFF67801AFF6680005F0D6FD21
:10B8700005F1340070BD000004ED00E00801002077
:10B88000F4000020E8000020A08E0120D00000205D
:10B8900070910120EC000020E00000204891012080
:10B8A0005C910120DC0000200401002049444C454B
:10B8B000000000007FB7000800010020E400002025
:10B8C0000246002101E0521C491C1078A528FAD03C
:10B8D000890888B270472DE9F04107460C4690462A
:10B8E0001E4617B9F748006800E03846054625604F
:10B8F00005F134006060E86A2061286BE061A86CA3
:10B90000A060207B032807D1FFF73DFCA86A08B19F
:10B9100002202073FFF78CFB286D60610020A0617E
:10B92000052E01D0267303E03846FFF7B3FC2073E1
:10B93000B8F1000F04D0286BFFF7C2FF208401E0AC
:10B9400000202084BDE8F0812DE9F04707460C4631
:10B9500090460026206848B3204641684968416007
:10B9600000F1080142688A4202D141684968416099
:10B970004168D1F80C9000BF204641684968416099
:10B9800000F1080142688A4202D141684968416079
:10B990004168CD6806EBC60007EB800143460122F3
:10B9A0002846FFF798FF761C4D45E5D13046BDE8A7
:10B9B000F0872DE9F04105468846164600242027E9
:10B9C000FFF7E1FBC0480068804539D300BF7F1E08
:10B9D00007EB8702BD4B03EB820104EBC40205EBCE
:10B9E00082000122FFF7B0FF0444002FEFD104EBE7
:10B9F000C40105EB81000222B5490968FFF7A4FFE5
:10BA0000044404EBC40105EB81000222B14909683A
:10BA1000FFF79AFF044404EBC40105EB8100042204
:10BA2000AD49FFF791FF044404EBC40105EB81002D
:10BA30000322AA49FFF788FF04440EB100203060BA
:10BA4000FFF7F6FA2046BDE8F08170B504460D46D2
:10BA50003CB940F60632AFF66821AFF6582005F043
:10BA6000DDFC9848016818312046FEF7F5F9012100
:10BA70002846FFF74AFB70BD70B504460D461646D2
:10BA80003CB940F61732AFF69821AFF6882005F0A2
:10BA9000C5FC9348006808B1012000E0002038B9D7
:10BAA00040F61B32AFF6B821AFF6A82005F0B6FC81
:10BAB00045F000408349096888618248016818316F
:10BAC0002046FEF7BDF901213046FFF71EFB70BD91
:10BAD00070B505460E4614463DB940F63132AFF614
:10BAE000F021AFF6E02005F099FC764801681831A6
:10BAF0002846FEF7A5F90CB14FF0FF362146304637
:10BB0000FFF703FB70BD70B50646F068C4683CB92A
:10BB100040F66132AFF62831AFF6183005F07EFC02
:10BB200004F11800FEF7B2F96D480068A8B9201DAD
:10BB3000FEF7ACF994F82C10012088406949096897
:10BB4000084368490860E16A01EB81015F4A02EB42
:10BB50008100211DFEF774F904E004F11801624828
:10BB6000FEF76EF95749E06A0968C96A884204D944
:10BB7000012501205D49086000E00025284670BDD0
:10BB80002DE9F04105460F465548006808B10120EF
:10BB900000E0002038B940F69932AFF6AC31AFF68C
:10BBA0009C3005F03BFC47F000402860EC683CB955
:10BBB00040F6A132AFF6C831AFF6B83005F02EFC32
:10BBC0002846FEF763F9201DFEF760F994F82C1063
:10BBD0000120884043490968084342490860E16AF6
:10BBE00001EB8101394A02EB8100211DFEF728F9A2
:10BBF0003449E06A0968C96A884204D901260120EB
:10BC00003A49086000E000263046BDE8F08110B5F2
:10BC100004463CB940F6C132AFF62C41AFF61C40A9
:10BC200005F0FCFB32480068206032480068606024
:10BC300010BD2DE9F04104460D463CB940F6CB322B
:10BC4000AFF65441AFF6444005F0E8FB3DB940F68D
:10BC5000CC32AFF66441AFF6544005F0DFFB00F0A4
:10BC6000ACFF244807682868401C08B9002619E082
:10BC70001F4920680968884204D06068B84201D82A
:10BC800001260FE06068381A2968884209D22868BE
:10BC90006168791A401A28602046FFF7B8FF00262D
:10BCA00000E0012600F0ACFF3046BDE8F081012045
:10BCB0000E4908607047014611B10A46D06C00E099
:10BCC00000207047D0000020E0000020A08E01205E
:10BCD000D4000020D80000205C9101207091012048
:10BCE00008010020E800002048910120F400002015
:10BCF000F8000020E400002008B10246D16470473B
:10BD0000FB4908687047FB49096809B9012005E04B
:10BD1000F949096809B9022000E00020704770B5B0
:10BD200005462C46002D4BD0F149E06A0968C96AE6
:10BD3000884245D2A06900F0004028B9EC4800686C
:10BD4000C06AC0F12000A061E16A01EB8101EB4A09
:10BD500002EB81016069884201D1012000E00020EE
:10BD600050B3201DFEF792F878B9E06A00EB80002E
:10BD7000E24951F8200040B994F82C100120884085
:10BD8000DF4909688143DE480160D9480068C06A1C
:10BD9000E06294F82C1001208840D94909680843D2
:10BDA000D7490860E16A01EB8101D44A02EB8100C6
:10BDB000211DFEF745F803E0CD480068C06AE06247
:10BDC00070BD70B505462C460026002D4FD0C848E2
:10BDD0000068844201D1012000E0002038B940F61B
:10BDE000C762AFF6F451AFF6E45005F017FB606D93
:10BDF00038B940F6C962AFF60861AFF6F85005F001
:10BE00000DFB606D401E6065216DE06A88422ED09A
:10BE1000606D60BB201DFEF739F878B9E06A00EB71
:10BE20008000B64951F8200040B994F82C10012048
:10BE30008840B34909688143B1480160206DE062E0
:10BE4000E06AC0F12000A06194F82C100120884025
:10BE5000AB4909680843AA490860E16A01EB81011E
:10BE6000A64A02EB8100211DFDF7EAFF01263046BC
:10BE700070BD70B505460E463146284605F0FEFBFE
:10BE8000284605F01FFC044602E020202855641CCB
:10BE9000132CFAD300202855281970BD7FB505460C
:10BEA000002028709748006803909649096801EBC4
:10BEB000C101880000F091FF0446002C53D00022FD
:10BEC00020460399FFF775FD03900020029043E0A0
:10BED000029800EBC00004EB8000007B012806D034
:10BEE000022806D0032806D0042808D105E05226EF
:10BEF00007E0422605E0532603E0442601E0002641
:10BF000000BF00BF029800EBC00004EB8000416856
:10BF10002846FFF7AEFF0546029800EBC00004EB91
:10BF200080008068029901EBC10104EB8101098C5A
:10BF3000CDE90010029800EBC00004EB800032460F
:10BF400071A10369284605F075FA284605F0BAFB89
:10BF500005440298401C0290DDE902018842B7D3F3
:10BF6000204600F0BDFF7FBD6149096888696049CE
:10BF70000968C96AC1F120015D4A12689161704780
:10BF80005B48006830B15A49096801F15400496DB5
:10BF9000491C016056480068704770B506460D465A
:10BFA00000F00BFE52480068806D88B901205049AE
:10BFB000096881F85C005DB101212846FFF7A5F80A
:10BFC0004FF0805054490860BFF34F8FBFF36F8F1D
:10BFD00000F016FE00F0F1FD45480068846D4CB19C
:10BFE00026B1002042490968886503E0601E404987
:10BFF0000968886500203E49096881F85C0000F006
:10C00000FFFD204670BD2DE9F041074688461446E5
:10C010001D4600F0D2FD3648006890F85C0002280A
:10C0200018D03349096801F15800896DB94301609E
:10C0300001202F49096881F85C005DB10121284683
:10C04000FFF763F84FF0805033490860BFF34F8F1C
:10C05000BFF36F8F00F0D4FD00F0AFFD1CB124489A
:10C060000068806D20602248006890F85C0001281C
:10C0700001D1002608E01E49096801F15800896DC8
:10C0800021EA08010160012600201949096881F8A8
:10C090005C0000F0B5FD3046BDE8F0812DE9F047C9
:10C0A00006460D46174698464FF0010A36B941F24A
:10C0B000FD021A4901F1140005F0B0F9344600F010
:10C0C0007CFDB8F1000F02D0A06DC8F8000094F814
:10C0D0005C90022084F85C00052F30D2DFE807F086
:10C0E0002E0320242600A06D2843A06527E0000031
:10C0F000D0000020EC00002008010020A08E0120CC
:10C10000E8000020E00000200925630925750925C5
:10C11000750925750D0A000004ED00E0F0AF000878
:10C12000A06D401CA0650AE0A56508E0B9F1020F0A
:10C1300001D0A56501E04FF0000A00E000BF00BF9C
:10C14000B9F1010F2FD1201DFDF7A0FE94F82C109E
:10C15000012088409B49096808439A490860E16AC0
:10C1600001EB8101984A02EB8100211DFDF768FE79
:10C17000A06A08B9012000E0002030B941F2351270
:10C18000924901F1140005F049F99149E06A096802
:10C19000C96A884207D94FF080508E490860BFF3C2
:10C1A0004F8FBFF36F8F00F02BFD5046BDE8F08737
:10C1B0002DE9F84F07460E4690469946DDF828B01F
:10C1C0000120009037B941F26812804901F1140052
:10C1D00005F024F900F044FD3C4600BF5021EFF388
:10C1E000118081F31188BFF34F8FBFF36F8F00BFB2
:10C1F0000546B9F1000F02D0A06DC9F8000094F80F
:10C200005CA0022084F85C00B8F1050F17D2DFE8CB
:10C2100008F01503070B0D00A06D3043A0650EE07C
:10C22000A06D401CA0650AE0A66508E0BAF1020F07
:10C2300001D0A66501E00020009000E000BF00BF33
:10C24000BAF1010F3AD1A06A08B9012000E000203C
:10C2500030B941F2AF125D4901F1140005F0DEF88A
:10C260005D480068A8B9201DFDF710FE94F82C1059
:10C270000120884053490968084352490860E16A2F
:10C2800001EB8101504A02EB8100211DFDF7D8FD31
:10C2900004E004F118015148FDF7D2FD4C49E06A71
:10C2A0000968C96A884209D9BBF1000F03D001208F
:10C2B000CBF8000002E001204949086000BF85F387
:10C2C000118800BF0098BDE8F88F2DE9F0410546C0
:10C2D0000F4635B941F2E3123C4901F1140005F073
:10C2E0009DF800F0BDFC2C4600BF5021EFF31180FB
:10C2F00081F31188BFF34F8FBFF36F8F00BF0646E6
:10C3000094F85C80022084F85C00A06D401CA0655D
:10C31000B8F1010F37D1A06A08B9012000E0002070
:10C3200030B941F20922294901F1140005F076F8EB
:10C3300029480068A8B9201DFDF7A8FD94F82C1025
:10C34000012088401F49096808431E490860E16AC6
:10C3500001EB81011C4A02EB8100211DFDF770FDFC
:10C3600004E004F118011D48FDF76AFD1849E06A70
:10C370000968C96A884206D917B10120386002E00D
:10C3800001201749086000BF86F3118800BFBDE88F
:10C39000F08170B5054615B90D48006800E02846E3
:10C3A000064600F00AFC96F85C00022804D1002042
:10C3B00086F85C00012400E0002400F021FC204607
:10C3C00070BD0000E8000020A08E0120F0AF000842
:10C3D000D000002004ED00E0080100204891012079
:10C3E000F40000202DE9F04104460D4616461F4694
:10C3F0004FF0000865602461B5420CD8F01BA169BC
:10C40000884202D34FF0010811E0211DF74800686F
:10C41000FDF722FD0BE0BE4204D2BD4202D34FF035
:10C42000010804E0211DF2480068FDF715FD4046B3
:10C43000BDE8F0812DE9FF4704460D4616461F462C
:10C44000DDF830804FF000092CB94FF4D372E9A128
:10C45000EEA004F0E3FFF148006810B300950196E8
:10C460000294062D15DAFFF74EFC022808D10023AE
:10C4700042466946E9480068FDF772FE814610E0D1
:10C4800000231A466946E5480068FDF769FE8146C3
:10C4900007E000233A466946E0480068FEF7CAF81C
:10C4A0008146484604B0BDE8F0872DE9F8432DE009
:10C4B000CF480068C0680568CD480068C068C46897
:10C4C000201DFDF7E3FC2046616A8847E0690128EA
:10C4D0001CD1A0694619AE4207D966602461211DAE
:10C4E000C3480068FDF7B8FC10E0002003462A4668
:10C4F000014600902046FFF79DFF07462FB940F206
:10C500009232BCA1C1A004F089FF00BFB848006806
:10C51000006808B9012000E000200028C8D0B44815
:10C52000D0F80080B1480068B1490860AF48C0F851
:10C530000080BDE8F88370B50446FFF77AF9054638
:10C54000B7480068854204D2FFF7AFFF01202060A2
:10C5500001E000202060B2480560284670BDF0B5BB
:10C5600087B070E0039800280CDA04AE2EB940F2D0
:10C57000E722A0A1A5A004F051FFD6E90020B168F0
:10C58000904700BF039800285DDB059C606908B9EF
:10C59000012000E0002010B9201DFDF777FC02A863
:10C5A000FFF7C9FF054603980A284AD2DFE800F0E2
:10C5B0000905072C2E4506082D2F00BF00BF00BF20
:10C5C00000BF0498A269811803462A462046FFF757
:10C5D00009FFC0B12046616A8847E069012812D18D
:10C5E000002000900498A1694218002319462046B3
:10C5F000FFF720FF07462FB940F221327DA183A02B
:10C6000004F00CFF00BF1DE000BF1BE000BF04985A
:10C61000A061A06908B1012000E0002028B94FF412
:10C620004E7274A179A004F0F9FEA06941192B465D
:10C630002A462046FFF7D6FE04E0204600F050FCD4
:10C6400000E000BF00BF00231A4603A9734800683A
:10C65000FDF7CCFE002885D107B0F0BDF8B5054642
:10C660000F4663480068C068C468201DFDF70EFCD3
:10C67000E069012818D1A06941192B463A462046A5
:10C68000FFF7B0FE80B1002003462A460146009025
:10C690002046FFF7CFFE06462EB94FF4027255A191
:10C6A0005AA004F0BBFE00BF2046616A8847F8BD6F
:10C6B000F8B505460C46FEF766FD6846FFF73BFFFA
:10C6C0000646009820BB44B9B54206D8FEF7B0FC38
:10C6D00031462846FFF7C2FF1CE03CB143480068E2
:10C6E000006808B9012000E000200446A91B22468A
:10C6F0004A480068FEF7EFF9FEF79AFC50B94FF090
:10C70000805048490860BFF34F8FBFF36F8F01E03F
:10C71000FEF78EFCF8BD0146354A126812680AB968
:10C72000012200E000220A600A6822B9304A126839
:10C73000D268106800E00020704708B500BF684666
:10C74000FFF7E9FF044620460099FFF7B1FFFFF726
:10C7500006FFF4E710B500F030FA30480068D0B9B1
:10C760003148FDF75DFB3148FDF75AFB2E48204963
:10C7700008602E481D490860002210210520FDF7A1
:10C78000F4FB264908600846006820B128A1234828
:10C790000068FEF77AF900F033FA10BD1CB50024EA
:10C7A000FFF7D8FF1D48006858B123481F21002318
:10C7B0004FF48272CDE9001020A12248FEF7C6FA9C
:10C7C00004462CB940F233120AA110A004F026FE50
:10C7D00020461CBD2DE9F04706460D4617469846F3
:10C7E000DDE908940DB101202FE02DE010010020BB
:10C7F0000C0100202E2E5C4672656552544F535C2E
:10C8000074696D6572732E63000000004572726F6B
:10C81000723A25732C25640D0A00000014010020D3
:10C820001C01002004ED00E084910120989101207A
:10C83000546D72510000000018010020546D7220E8
:10C84000537663003BC70008002038B94FF4C67226
:10C85000AFF26001AFF24C0004F0E0FD5CB1FFF715
:10C8600079FF2660A561E761C4F82080C4F82490B0
:10C87000201DFDF7E2FABDE8F0872DE9FC470546EB
:10C880000E4617469846DDF828902C2000F0A5FAB1
:10C8900004463CB143463A4631462846CDE9009429
:10C8A000FFF798FF2046BDE8FC8710B55B4800689D
:10C8B00008B1012000E0002038B94FF4E872AFF26F
:10C8C000CC01AFF2B80004F0A9FD5448006810BDD7
:10C8D00070B5044625463CB940F2D912AFF2EC01DE
:10C8E000AFF2D80004F09AFDA86970BD70B5044697
:10C8F00025463CB940F2E312AFF20811AFF2F40062
:10C9000004F08CFD6E68304670BD70B50446254657
:10C910003CB940F2ED12AFF22411AFF2101004F066
:10C920007DFD286870BD70B5044626463CB940F2CE
:10C93000DA32AFF24011AFF22C1004F06FFD00F0CC
:10C940003CF9706908B9012000E0002080F0010581
:10C9500000F056F9284670BD70B5044626463CB92D
:10C9600040F2EF32AFF27411AFF2601004F056FDF6
:10C9700000F023F9356A00F043F9284670BD70B520
:10C9800004460D4626463CB940F2FF32AFF29C11F8
:10C99000AFF2881004F042FD00F00FF9356200F0AC
:10C9A0002FF970BD2DE9FF4104460D4616461F467E
:10C9B0006FF00100009001940295039600233A461F
:10C9C000694617480068FDF735FE8046404604B0CA
:10C9D000BDE8F0812DE9FF4104460D4616461F468D
:10C9E0000F48006838B940F22B42AFF2F811AFF2AD
:10C9F000E41004F013FD4FF0FF3000900194029515
:10CA0000039600233A46694605480068FDF7A8FBEF
:10CA10008046404604B0BDE8F081000018010020C7
:10CA200014010020A4480068401C08B9012000E05F
:10CA3000002028B940F20F12A0A1ABA004F0EEFC38
:10CA400000BF502080F31188BFF34F8FBFF36F8F6B
:10CA500000BF00BFFEE7001F4FF080730360001FA0
:10CA600021F001030360001FA34B03601438026030
:10CA7000001F6FF002030360203870479F48006872
:10CA80004FF47A71B0FBF1F0401E4FF0E0214861A5
:10CA90000720086170471CB5994800689949884289
:10CAA00001D0012000E0002028B940F2591283A1F2
:10CAB0008DA004F0B3FC924800689249491E884258
:10CAC00001D0012000E0002028B94FF4AD727BA115
:10CAD00085A004F0A3FC8C4C204600780190FF2038
:10CAE000214608700846007800909DF8000000F08C
:10CAF000F0009DF80010884201D1012000E00020E4
:10CB000028B940F273126DA177A004F087FC9DF85C
:10CB1000000000F050007D49087007207C49086043
:10CB200009E07B480068401E794908609DF80000D4
:10CB30004006000E00909DF8000000F08000802864
:10CB4000EFD0734800680002714908600846008809
:10CB500000F4E06008606C49019808706848203073
:10CB6000006840F47000664920310860084600689B
:10CB700040F070400860FFF781FF00204E490860D8
:10CB8000F3F7A8FB6348006840F040406149086043
:10CB9000F3F790FB00201CBD10B547480068B0F5C6
:10CBA0007A7F01D1012000E0002028B940F2A912CB
:10CBB00042A14DA004F032FC10BD10B500BF5020C2
:10CBC00080F31188BFF34F8FBFF36F8F00BF3A48D8
:10CBD0000068401C384908600846006801280ED1EA
:10CBE0004748001D0068C0B208B9012000E00020DD
:10CBF00028B940F2B91231A13BA004F00FFC10BDDE
:10CC000010B52D48006828B94FF4E0722BA136A06A
:10CC100004F004FC28480068401E274908600846C4
:10CC2000006820B9002080F3118800BF00BF10BD4C
:10CC300010B500BF502080F31188BFF34F8FBFF3B2
:10CC40006F8F00BFFEF730F920B14FF080502C49B4
:10CC5000091D086000BF002080F3118800BF10BDCF
:10CC600070B5F3F76FFB0546102D11D305F1E020E9
:10CC700090F8F04325480078844201DB012000E071
:10CC8000002028B94FF440720CA117A004F0C6FB95
:10CC90001B480C30006800F4E0601D4909688842B8
:10CCA00001D8012000E0002028B94FF4447203A10C
:10CCB0000DA004F0B3FB70BD200100202E2E5C46B9
:10CCC00072656552544F535C706F727461626C652B
:10CCD0005C525644535C41524D5F434D34465C7048
:10CCE0006F72742E630000004572726F723A257382
:10CCF0002C25640D0A00000025CA00081000002041
:10CD000000ED00E071C20F4100E400E024010020CA
:10CD10002801002034EF00E010B50146924800E001
:10CD2000006803688B42FBD30246436813448B427E
:10CD300004D143684C682344436001460A464B686B
:10CD400013440468A34211D1884C03682468A342A9
:10CD500008D04B680468646823444B6003681B6810
:10CD60000B6005E0814B1B680B6001E003680B6002
:10CD7000884200D0016010BD30B54FF4A0437C481C
:10CD800000F007042CB1C01D20F00700784C041BF4
:10CD90001B1B0246744C22600024734D6C60D0183B
:10CDA000083820F00700714C206000246F4D2D687A
:10CDB0006C606E4D2D682C601146441A4C606B4CB3
:10CDC00024680C606B4D4C682C606B4D4C682C607B
:10CDD0004FF00044694D2C6030BD2DE9F041044610
:10CDE0004FF00008FEF7CFF96048006808B9FFF778
:10CDF000C3FF62480068204000285FD1A4B1083416
:10CE000004F0070080B104F00700C0F108000444FA
:10CE100004F0070008B9012000E0002020B9BF227B
:10CE200057A161A004F0FAFA002C47D052480068DC
:10CE3000844243D84C4E3046056801E02E462D68AA
:10CE40006868A04202D228680028F7D147480068E5
:10CE5000854233D0306800F108082868306068687F
:10CE6000001B102813D92F1907F0070008B901205B
:10CE700000E0002020B9EC2241A14BA004F0CEFA42
:10CE80006868001B78606C603846FFF745FF3A49D8
:10CE900068680968081A3849086008460068354912
:10CEA0000968884203D2344800683249086033492F
:10CEB000686809680843686000202860FEF7B8F8D1
:10CEC00008F0070008B9012000E0002028B94FF45D
:10CED00096722BA134A004F0A1FA4046BDE8F0817F
:10CEE00070B506463546002E35D0083D2C46234900
:10CEF00060680968084008B1012000E0002028B9F6
:10CF00004FF4A0721EA128A004F088FA206808B986
:10CF1000012000E0002028B940F2411218A122A00F
:10CF200004F07CFA154960680968084098B12068E7
:10CF300088B912496068096888436060FEF723F980
:10CF40000D496068096808440B4908602046FFF7EE
:10CF5000E3FEFEF76DF870BD0748006870470548AE
:10CF600000687047704700002C0100203401002049
:10CF7000AC9101203C01002038010020400100203C
:10CF80002E2E5C4672656552544F535C706F7274FE
:10CF900061626C655C4D656D4D616E675C68656175
:10CFA000705F342E630000004572726F723A257311
:10CFB0002C25640D0A00000010B54FF4FA21012061
:10CFC000FCF7F1FE04464FF4FA21204607F03AFA46
:10CFD000802007F071FB02480AF086F810BD0000BF
:10CFE00018D2050810B5FEF724FC10BD10B5044694
:10CFF0002046FEF729F910BD10B50120FFF7F6FF16
:10D0000010BD10B50120FDF79DF9434908600322CA
:10D0100000210120FCF7A9FF40490860084600688C
:10D0200030B100231A4619463C480068FDF798F8CD
:10D0300010BD10B500235A1E194637480068FDF789
:10D04000D5F910BD10B500231A46194632480068BC
:10D05000FDF786F810BD10B5FEF752FE10BD10B5F5
:10D0600000235A1E19462D480068FDF7BFF910BD70
:10D0700010B500231A46194628480068FDF770F8D5
:10D0800010BD10B5032200210120FCF76EFF2449DA
:10D0900008600846006830B100231A461946204847
:10D0A0000068FDF75DF810BD10B51E48007820B986
:10D0B00001201C490870FFF7E4FF10BD10B51A48A5
:10D0C0000468FFF7F1FF002017490860204610BDF3
:10D0D00010B5FFF7E9FF1448006830B900235A1E65
:10D0E00019460F480068FDF781F90F4804680020D1
:10D0F0000D490860204610BD10B504460A4804607A
:10D1000000231A46194606480068FDF729F810BDA5
:10D11000704770477047000044010020480100201C
:10D120004C01002054010020500100202DE9F04165
:10D1300007460C4615461E46B2B2A9B2A0B2F3F796
:10D14000B7FEBDE8F0812DE9F04107460C461546D3
:10D15000A9B2A0B2F3F708FC06463046BDE8F0815C
:10D160002DE9F04104460D46164632462946204632
:10D17000FFF7E9FF0746216988688047804687EA0C
:10D180000803324629462046FFF7D0FFBDE8F0816C
:10D190002DE9F84381460D4614461E46DDF82080F1
:10D1A000F8480068007C00F0010070B10AE02F46EA
:10D1B00005E0224639464846FFF7D2FF7F1CB742BA
:10D1C000F7DD641C4445F2DD0CE0EE480068C06BFE
:10D1D000008880B21FFA88F3B2B2A1B20090A8B260
:10D1E000F7F729FEBDE8F883F8B505460E46144664
:10D1F0001F463B462246314628460094FFF7C8FFAB
:10D20000F8BDF8B506460C4617461D4623463A4675
:10D21000214630460095FFF7BBFFF8BD2DE9FF4FD3
:10D2200083B081460E461C46DDE9117A109DDAF87E
:10D2300000000290DAF8040001902E44D148006802
:10D24000007C00F0030030B1012836D002281CD049
:10D25000032855D130E000BF207880222A411040B9
:10D2600008B1019800E0029803463146761C484612
:10D27000059AFFF75BFF681C0546082801D10025C9
:10D28000641C781E071EE7D13AE000BF2078802199
:10D290002941084028B131464846019B059AFFF7CD
:10D2A00045FF761C681C0546082801D10025641C32
:10D2B000781E071EEAD123E000BFD9F81010886855
:10D2C0008047804600BF207880212941084060B116
:10D2D00031464846059AFFF736FF83468BEA080336
:10D2E00031464846059AFFF721FF761C681C054623
:10D2F000082801D10025641C781E071EE3D100BF59
:10D3000000BF07B0BDE8F08F2DE9FF4F81B00F4699
:10D310009846DDE90F9A98F800B00E9D0E9D2F44B7
:10D3200098480068007C00F0030010B102284BD13F
:10D330004BE0BAF1000F25D000BFC5F10300440057
:10D34000C4F10601C020084100EA0B0020FA04F6EF
:10D350005AF82600009039467F1CDDE90030039A18
:10D36000FFF7E4FE681C0546042805D1002508F1F6
:10D370000100804690F800B0A9F10100B0F1000969
:10D38000DBD121E000BFC5F103004400C4F1060178
:10D39000C020084100EA0B0020FA04F639467F1C41
:10D3A0003346039A0198FFF7C1FE681C054604281E
:10D3B00005D1002508F10100804690F800B0A9F1E0
:10D3C0000100B0F10009DED14DE0BAF1000F26D026
:10D3D00000BFC5F103004400C4F10601C0200841AC
:10D3E00000EA0B0020FA04F646B15AF82600009035
:10D3F0003946DDE90030039AFFF798FE7F1C681C70
:10D400000546042805D1002508F10100804690F862
:10D4100000B0A9F10100B0F10009DAD122E000BFAB
:10D42000C5F103004400C4F10601C020084100EA30
:10D430000B0020FA04F62EB133463946039A0198C0
:10D44000FFF774FE7F1C681C0546042805D10025E3
:10D4500008F10100804690F800B0A9F10100B0F198
:10D460000009DDD100BF00BF05B0BDE8F08F2DE998
:10D47000FF4F81B00F469846DDE90F9A98F800B04B
:10D480000E9D0E9D2F443F480068007C00F0030075
:10D4900010B102284BD14BE0BAF1000F25D000BFEC
:10D4A000C5F101008400C4F10401F020084100EA44
:10D4B0000B0020FA04F65AF82600009039467F1C2B
:10D4C000DDE90030039AFFF731FE681C05460228AB
:10D4D00005D1002508F10100804690F800B0A9F1BF
:10D4E0000100B0F10009DBD121E000BFC5F101006E
:10D4F0008400C4F10401F020084100EA0B0020FA86
:10D5000004F639467F1C3346039A0198FFF70EFE56
:10D51000681C0546022805D1002508F10100804657
:10D5200090F800B0A9F10100B0F10009DED14FE0A0
:10D53000BAF1000F28D000BFC5F101008400C4F18A
:10D540000401F020084100EA0B0020FA04F646B17D
:10D550005AF8260000903946DDE90030039AFFF7BB
:10D56000E5FD7F1C681C0546022805D1002508F151
:10D570000100804690F800B0A9F10100B0F1000967
:10D58000DAD124E04008002000BFC5F1010084008A
:10D59000C4F10401F020084100EA0B0020FA04F66F
:10D5A0002EB133463946039A0198FFF7BFFD7F1C21
:10D5B000681C0546022805D1002508F101008046B7
:10D5C00090F800B0A9F10100B0F10009DDD100BF71
:10D5D00000BF05B0BDE8F08F2DE9F04781460F464A
:10D5E00092461C46DDE90858F4480068007C00F0CB
:10D5F000030010B1022841D11EE0B8F1000F0ED097
:10D600000AE0267858F82630524639464846FFF751
:10D610008DFD6D1E7F1C641C002DF2DC0BE008E00C
:10D620002378524639464846FFF780FD6D1E7F1C21
:10D63000641C002DF4DC21E0B8F1000F0FD00BE0EA
:10D64000267836B158F82630524639464846FFF714
:10D650006DFD6D1E7F1C641C002DF1DC0DE00AE0E9
:10D6600026782EB13346524639464846FFF75EFDCE
:10D670006D1E7F1C641C002DF2DC00BF00BFBDE8E6
:10D68000F0872DE9F04781460C4617461D46DDF828
:10D690002080B9B2A0B2F3F796F8C9480089C94909
:10D6A0000968088007E02E88C74800680680A8F14E
:10D6B0000108641CAD1CB8F1000FF4DCBDE8F08774
:10D6C0002DE9F04107460D4690461C46069E08E0AF
:10D6D0004246294638462368FFF728FD761E6D1C12
:10D6E000241D002EF4DCBDE8F0812DE9FF4F83B04E
:10D6F00015461E46DDE914BADDE91297DDF84080D3
:10D70000119808283FD006DC012809D0022818D03B
:10D71000042863D126E0102844D020285ED14FE0B1
:10D7200000240BE062193B46CDE900B6CDF808A015
:10D73000DDE90301FFF772FD4F44641C4445F1DB52
:10D740004CE000240BE062193B46CDE900B6CDF871
:10D7500008A0DDE90301FFF7D7FD4F44641C4445F1
:10D76000F1DB3BE000240BE062193B46CDE900B65B
:10D77000CDF808A0DDE90301FFF779FE4F44641CF2
:10D780004445F1DB2AE0002409E062193B46CDE97B
:10D79000006ADDE90301FFF71FFF4F44641C4445A5
:10D7A000F3DB1BE0002408E062193B460096DDE94C
:10D7B0000301FFF766FF4F44641C4445F4DB0DE0B2
:10D7C000002408E062193B460096DDE90301FFF7FB
:10D7D00077FF4F44641C4445F4DB00BF00BF07B033
:10D7E000BDE8F08F70B50446A06858B91C2006F05B
:10D7F00077FEA060A56821698868804706460CF01E
:10D8000073FAA861A06808B9012070BD0020FCE788
:10D8100003460A4699680F2A1FD2DFE802F01E0865
:10D820000A0C0E1E1E1E10121416181A1C00486830
:10D8300070478868FCE7C868FAE70869F8E788690C
:10D84000F6E70020F4E70120F2E70120F0E70020EE
:10D85000EEE70020ECE70020EAE74FF0FF30E7E7D3
:10D860000246012901D1594870470020FCE782682F
:10D8700000230B804B8093895B1E1BB28B80138A25
:10D880005B1E1BB2CB8070477CB504460D46164626
:10D89000002000900190009501966A460321A0693E
:10D8A00000F0B8F97CBDF8B504460D4600200090A4
:10D8B0002046FFF797FFA06838B1A668356000954D
:10D8C0006A460221A06900F0A5F9F8BD2DE9F041F2
:10D8D00005460E4617462846FFF784FFA86818B18C
:10D8E000AC68E66027616661BDE8F0812DE9FC4126
:10D8F00005460E4617460020009001902846FFF787
:10D9000071FFA86878B1AC68606908B9304600E07A
:10D91000606960616660A760009601976A460721AA
:10D92000A86900F077F9BDE8FC8170B5044620468F
:10D93000FFF758FF054600220121A06900F06AF9AF
:10D940000543284670BD10B5044600220521A06994
:10D9500000F060F910BD10B5044600220621A06950
:10D9600000F058F910BD7CB504460D46164600205F
:10D97000009001908DF8045000966A460421A06939
:10D9800000F048F97CBD0246A1F10900082813D235
:10D99000DFE800F00406080A120C0E100C4870476D
:10D9A0000C48FCE70C48FAE70C48F8E70C48F6E7A7
:10D9B0000C48F4E70C48F2E70020F0E740080020AC
:10D9C000080F0020580100205C01002030240608C8
:10D9D000A7D80008CDD80008EDD800082BD900083A
:10D9E00047D9000857D9000867D900087047704721
:10D9F00010B51848808845F21051884205D0154866
:10DA0000808841F66311884207D11348416800209D
:10DA100088471148C468204610BDD020F8F763FB42
:10DA2000FAE710B50B48808845F21051884205D0BE
:10DA30000848808841F66311884207D1064841684A
:10DA4000002088470448046A204610BD9020F8F75B
:10DA50004AFBFAE7080F00202C00002008B500233D
:10DA60001A467349734807F053FA7348428801888D
:10DA700000200CF00DF870484288018800200CF05E
:10DA80001DF86D48808845F21051884228D16A48B7
:10DA9000807990B940F2DF100023421C19460090B3
:10DAA000184609F0E9FC40F21F300023421C1946D9
:10DAB0000090012009F0E0FCABE040F2DF10002311
:10DAC000421C19460090184609F0D6FC40F21F305F
:10DAD0000023421C19460090012009F0CDFC98E07B
:10DAE0005548808841F66311884228D15248807990
:10DAF00090B940F21F300023421C1946009018468E
:10DB000009F0BAFC40F2DF100023421C19460090D5
:10DB1000012009F0B1FC7CE040F21F300023421CE0
:10DB200019460090184609F0A7FC40F2DF100023C8
:10DB3000421C19460090012009F09EFC69E03E4815
:10DB4000808845F21031884205D03B48808846F6EF
:10DB5000040188422FD138488079A0B9E22040F6EC
:10DB60005B734FF4A07200210090084609F084FC1A
:10DB7000C42040F6E4634FF4F072002100900120CD
:10DB800009F07AFC45E0062009F070FDE22040F63D
:10DB90005B734FF4A07200210090084609F06CFC02
:10DBA000C42040F6E4634FF4F0720021009001209D
:10DBB00009F062FC2DE020488079A0B940F63F7062
:10DBC00000901D4802889B230021084609F054FC60
:10DBD00040F65F70009018484288BC230021012065
:10DBE00009F04AFC15E0062009F040FD40F63F70C0
:10DBF0009B23F02200210090084609F03DFC40F6EE
:10DC00005F70BC234FF4A07200210090012009F046
:10DC100033FC08BD10B503461446012901D100208C
:10DC200010BD4FF0FF3200BF00BF1046F8E7000004
:10DC3000ECCA0508CCD50208080F00200020F749DF
:10DC40000860F7490860F7490860704710B5044656
:10DC50004FF4080009F014FA07F084F824B1052203
:10DC60001146F14807F032FC10BD7CB504460BF0BC
:10DC700085FC05460BF08EFC06464FF40800EB4988
:10DC800033462A46CDE900100021084607F076FD0C
:10DC900024B105221146E44807F018FC7CBD2DE9AB
:10DCA000F04F85B080460BF069FC03900BF072FCDE
:10DCB00006460BF057FC8346B34509DD4FF40800D8
:10DCC00009F0DEF95B4600210846039A07F058F890
:10DCD000D7480068002867D1C925D648D64901220F
:10DCE0002B46CDE9002102902A460021084608F083
:10DCF0005FFA824601203346009000210846039ACD
:10DD000008F016FACA490860CA48CB4901226423C0
:10DD1000CDE9002102900021084608F049FA814629
:10DD2000504608F07FFC04904FF4080009F0A8F971
:10DD300007F018F8484608F075FC4FF40800BB4996
:10DD400064230022CDE900101146104607F016FDAD
:10DD5000484608F0C2FB0746504608F063FC002422
:10DD600009E0386809F0A3F922466421084607F063
:10DD700049FC641C3F1D642CF3DBAD48006808F0CF
:10DD800051FC0021039833460A46CDE90060029118
:10DD9000504608F041FB504608F026FA484608F085
:10DDA00023FA049808F03EFCA148006808F09AFCA9
:10DDB000B8F1000F04D0052211469B4807F086FBFE
:10DDC00005B0BDE8F08F10B54FF404719B480068B2
:10DDD0000EF0ACFF044620460FF004FB10BD10B55A
:10DDE0004FF40471954800680EF0A0FF04462046E9
:10DDF0000FF081FF10BD70B5044620680E280DD0CD
:10DE00000F2802D01E2815D105E08D4800788D49D5
:10DE10000968884712E00020E0600FE0E568686864
:10DE200038B128686E2803D101208749086000BFF7
:10DE300000BF03E020460EF013FE00BF00BF70BD20
:10DE400010B502E00A2007F047F97448006801287D
:10DE5000F8D07D480068012804D100207A49086084
:10DE6000012010BD0020FCE7FEB506460C462568E3
:10DE700007F008FE684608F0A3FE9DF8080018B1F8
:10DE8000012020600020FEBD9DF8080038B9012D5A
:10DE900005D10020206001206B490860F3E7FFF7FF
:10DEA000CFFF6949086008460068ECE72DE9FC47A8
:10DEB000044620680E2806D00F283CD01D2809D023
:10DEC00026287BD14BE00EF01BFF824621460FF047
:10DED00027FD82E04FF4047160680EF027FF814651
:10DEE0000E2148460CF0C8FF584948460CF092FFF6
:10DEF0004FF4006160680EF019FF8146002148462A
:10DF000004F078F840F6010160680EF00FFF8146DA
:10DF10000021484604F06EF84FF4B07160680EF0CE
:10DF200005FF81464AA148460DF013FE4A4948467E
:10DF30000DF0F8FD51E060680FF04AF806466068A1
:10DF40000FF05DF8074645486FF07F417B1E721E5B
:10DF5000CDE900100021084607F010FC3DE0A06864
:10DF60000EF033FF0546D4F80C80B8F1020F2ED125
:10DF7000B5F5006F03D0A5F6010030BB1FE02748C0
:10DF8000006868B100202549086007F0C2FE2549F5
:10DF90000968401A2249086000200FF06FFB0CE06E
:10DFA00001201E49086007F0B4FE1D490968401AA7
:10DFB0001C49086060680FF061FB06E009E0012081
:10DFC00021490860FFF73AFE00BF00BF00BF00BF55
:10DFD00003E020460EF044FD00BF00BFBDE8FC8713
:10DFE0002DE9FC410446206801280BD00E2802D000
:10DFF0000F2849D134E00EF083FE074621460FF08A
:10E000008FFC45E00BF0BAFA054641206B10691011
:10E010000090002260680FF05FFE39E07C01002074
:10E0200074010020780100209C6404085555FF000D
:10E030008C010020D4CA0508A42406086001002031
:10E04000880100206801002080010020C427030807
:10E05000496E74726F00000070DE0508C0CEDC00EF
:10E0600060680EF0B5FF054660680EF0C8FF064612
:10E07000F8486FF07F41731E6A1ECDE90010002141
:10E08000084607F07BFB03E020460EF0E9FC00BFEA
:10E0900000BFBDE8FC8110B50446606840B90E21A0
:10E0A000206804F0F2FC0021206804F007FD03E082
:10E0B000204604F011FA10BD00BF0020FBE770B548
:10E0C0000246002300E05B1CD55C002DFBD101243F
:10E0D000012003E004EB84056C00401CB1FBF4F567
:10E0E0000A2DF7D20025D61835540DE00A25B1FBCC
:10E0F000F5F605FB16153035D618064406F8015C12
:10E100000A25B1FBF5F1401E0028EFD170BD10B516
:10E1100002460020002300E0401C145C002CFBD1D0
:10E1200003E0CC5C1454401C5B1CCC5C002CF8D18C
:10E13000145410BD10B586B0142101A803F0D0FB13
:10E140004FF4B071C44800680EF0F0FD0446C3A15E
:10E1500001A8FFF7DCFFC3480168491C01A8FFF7CD
:10E16000AEFFC1A101A8FFF7D2FFC048016801A816
:10E17000FFF7A5FFBEA101A8FFF7C9FFBD48406892
:10E18000411E01A8FFF79BFF01A920460DF0E1FC0D
:10E1900006B010BD7CB50EF0B3FD06460FF09EFB39
:10E1A00006F0E0FD06F09AFD0BF0E8F904460BF0EE
:10E1B000F1F905460EF0A4FD0646A5F13D01A4F1D6
:10E1C00050003346AC4ACDE900010521AB4806F0CA
:10E1D00021FEA14908600EF093FD064600210120B2
:10E1E000C0EB64003346A64ACDE900010221A548F0
:10E1F00006F010FEA4490860084600680FF0F2F827
:10E20000954800680FF0B2F90EF07AFD06460EF060
:10E21000C7FC07F037FC0EF073FD06460EF0D2FC8B
:10E2200001F0C4FE00208F49086014E0FFF706FDEE
:10E23000FFF780FF8F4909688A4A126851F8220067
:10E240008047002089490860904908608548006837
:10E25000401C84490860874800688249096850F872
:10E2600021000028E2D17F4908607B4800680EF059
:10E270002FFC854800680EF02BFC06F047FC7CBDA7
:10E2800008B1012100E00021814A1170704700218E
:10E290000170704710B57F48006810B17E48006873
:10E2A00010BD07F036FD7D490968401AF8E72DE9F1
:10E2B000F04104464FF40471674800680EF036FDE3
:10E2C0008046642C01DDFFF78AFD002140460CF0FA
:10E2D000E8FD2246002140460CF0B0FD07F019FD94
:10E2E000064600BFFFF7D6FF871B642C03DD3946C7
:10E2F00040460CF0D6FD052006F0EEFEFFF7A0FD2F
:10E300000546A74201D2002DECD0642C01DDFFF7B9
:10E310005AFD07F0B7FBBDE8F08110B50446204672
:10E320005F490968884710BD014652480089084086
:10E3300008B1012070470020FCE710B5464800688E
:10E340000FF050F80EF0DCFC04460FF0EDFC10BDB1
:10E3500010B54D4800680FF045F80EF0D1FC0446AA
:10E360000FF0E2FC10BD10B540480068401C3F496A
:10E370000860FFF763FCFFF7DDFE10BD10B53648FF
:10E3800000680FF0B8FC07F07DFB10BD70B50446C7
:10E390003D4800680FF045F950B14FF4B0713A486C
:10E3A00000680EF0C3FC0546214628460DF0D1FB5F
:10E3B00070BD10B5344800680FF09DFC10BD10B55D
:10E3C00004462046FFF773FFFFF7CDFF10BD2DE990
:10E3D000F84F07460C460BF0D1F882460BF0DAF8FE
:10E3E00083464FEA6A0000904FEA6B09FFF7B0FFDF
:10E3F000FFF7C4FF07F046FB0120FFF78EFF6FF029
:10E400007F4008F054FE022008F00AFF254808F07B
:10E410007DFE3C223846009906F084FF224808F031
:10E4200075FE07F027FC8046A9EB080000F10A0200
:10E430002046009906F076FF002500E06D1C605D27
:10E440000028FBD105EB850006013046FFF7B7FF3A
:10E45000BDE8F88FC0CEDC006001002044656D6F20
:10E46000200000006C0100202E0000007001002040
:10E470002F000000ACE10120ADDE000800D602084C
:10E48000E1DF00088CD6020864010020840100202E
:10E49000880100207C010020780100207401002008
:10E4A00068010020CC560308D00006088CB02C4927
:10E4B0002C4808F0DFF80EF023FC06462A490FF03E
:10E4C0005EFA03F0A9FD002101A804F0DBF90020A9
:10E4D0000690002101A804F08DFA012101A804F0A2
:10E4E000D1F900200690012101A804F083FA1F4809
:10E4F00004F04EFA1E480CF07FFC1E4803F06CFD41
:10E500001D480DF01FF81D480DF002FA1C480AF0D6
:10E51000FFFC022008F084FE1A4801F031FA0AF0EC
:10E520007DFF0546102D11DB0420FFF7FDFE68B1CD
:10E5300006F04EF80446B4F5001F03DD12481349F7
:10E54000086006E012481149086002E011480F49CE
:10E5500008600120FFF794FE01E0FFF71BFEFCE7D7
:10E560008401002069DE0008F7DD000897E000085C
:10E5700075AD0108A11D010885B3010881B7010827
:10E58000098E0108ACE101209FDC00086801002031
:10E590006BDC00084DDC00082DE9FF4F95B080468C
:10E5A00089461546229E4022E04901A803F03CF925
:10E5B00008FB06F809FB06F97543DD49189848433E
:10E5C00011900027002430E0119978180AF07CF9A6
:10E5D00013901199781809F0A3FB129012986843D0
:10E5E0004FEA104B13986843020C1492A246E117AD
:10E5F00004EB11710911A4EB011101AA52F82100D9
:10E6000008F055FD05F0AEFD304605F0A5FE149A64
:10E6100009EB020108EB0B002A4605F0BBFD05F0F3
:10E6200099FD45F2E4700744641CC2488742CBD38D
:10E6300019B0BDE8F08F2DE9FF4105460C4628686A
:10E6400002906868039002A808F025FD002241218D
:10E6500002A808F0A5FABDF90800BDF90C1047188A
:10E66000BDF90A00BDF90E104618042006EBD6725B
:10E67000511007EBD7720090501000232322FFF7B0
:10E680008BFF6FF07F4008F012FD01230E2202A9DC
:10E69000A9A006F08BFE0022412102A808F080FA12
:10E6A0006FF07F400021CDE90010BDF90E30BDF9BB
:10E6B0000C20BDF90A10BDF9080007F023F8BDF8D9
:10E6C0000A00204400B2ADF80E00FF2008F0EFFC75
:10E6D0000E2202A99AA006F03FFE2246002102A8BF
:10E6E00008F05EFA4FF47F4008F0E1FC0E2202A928
:10E6F00093A006F031FE2246002102A808F050FA4D
:10E700004FF47F0008F0D3FC0E2202A98CA006F083
:10E7100023FE60424200002102A808F041FABDF841
:10E720000A0004EB4401084400B2ADF80E000022D8
:10E73000412102A808F034FABDF80A00204400B2D2
:10E74000ADF80E00FF2008F09BFC06F00BFB224604
:10E75000002102A808F024FA4FF47F4008F090FC52
:10E7600006F000FB2246002102A808F019FA4FF437
:10E770007F0008F085FC06F0F5FA604242000021B7
:10E7800002A808F00DFABDF80A0004EB44010844A1
:10E7900000B2ADF80E006FF07F4008F088FC012356
:10E7A0000E2202A964A006F001FE0022412102A867
:10E7B00008F0F6F9BDF80A00204400B2ADF80E00EA
:10E7C0000020FF21CDE90010BDF90E30BDF90C206D
:10E7D000BDF90A10BDF9080006F0D0FF224600215D
:10E7E00002A808F0DDF900204FF47F41CDE90010C8
:10E7F000BDF90E30BDF90C20BDF90A10BDF90800B5
:10E8000006F0BCFF2246002102A808F0C9F900204A
:10E810004FF47F01CDE90010BDF90E30BDF90C2099
:10E82000BDF90A10BDF9080006F0A8FF60424200D9
:10E83000002102A808F0B4F9BDF80A0004EB440175
:10E84000084400B2ADF80E006FF07F4008F02FFCD6
:10E8500001230E2202A938A006F0A8FD002008F02E
:10E860001AFCBDE8FF8170B504460D46354808F036
:10E870004DFC6FF07F4008F01AFC01230E22294660
:10E88000204606F093FD70BD1CB52F4808F03EFCF5
:10E890000C22BE212DA006F045FD0020ADF80000A1
:10E8A0002B20ADF802003B20ADF80400BDF80200BB
:10E8B0005F3000B2ADF80600BDF90600BDF90210E8
:10E8C000401A032190FBF1F4694626A0FFF7CBFF25
:10E8D0002B4808F01BFC21466846FFF7ACFE65227A
:10E8E0000021684608F05CF9694626A0FFF7BBFFE7
:10E8F0002B4808F00BFC21466846FFF79CFE1CBD28
:10E9000010B528A134A0FFF762FD0120FFF705FD37
:10E91000012007F077F80446FFF7B6FF4FF47A605E
:10E92000FFF74DFD204607F06DF810BDC4D6020874
:10E9300018FCFFFF407E05004142430A4142430A62
:10E94000414243007CED0508CC560308416E7469D2
:10E95000616C696173656420746578742073616D9E
:10E96000706C6500416E7469616C696173656420E7
:10E97000746578740A2028342062707029000000C1
:10E98000886B0308416E7469616C6961736564200A
:10E99000746578740A2028322062707029000000A3
:10E9A000E06C03084F757470757420616E74696152
:10E9B0006C696173656420746578740A6F6E206495
:10E9C0006966666572656E74206261636B67726FFB
:10E9D000756E64732E000000416E7469616C69612C
:10E9E0007365642054657874000000002DE9F041DF
:10E9F00005460AF0C3FD06460AF0CCFD04466FF05A
:10EA00007F4008F054FB002008F00AFC002008F0CA
:10EA100037FB06F0A7F925B105221146FE4806F09E
:10EA200055FDFE48006880B1FD4808F06FFBA4F179
:10EA300028020A21FBA006F061FCA4F1170002B233
:10EA400003230A21002006F08FFBFA48006858B122
:10EA5000F94808F05BFB07F00DF9201A4710711018
:10EA60003A46F6A006F05EFCBDE8F0812DE9F047DD
:10EA70000446F048006868B3F3480068A04229D013
:10EA80000AF07CFD05460AF085FD0646EE48046066
:10EA90006FF07F4008F00BFB002008F0C1FBE64858
:10EAA00008F034FB07F0E6F8301A401007B23120C6
:10EAB00007F09EF88146E1A007F021F92844401CA8
:10EAC000C9EB60000FFA80F801233A464146204620
:10EAD00006F04AFBBDE8F08710B52DED068B044625
:10EAE000002C1EDBB4F57A7F1BDA20461CF02BFDD0
:10EAF00041EC1A0B9FEDD50B53EC102B1CF08AFD4B
:10EB000041EC190B9FEDD30B53EC102B1CF0B6FE10
:10EB100041EC180B1CF07CFA00EE100ABDEC068BE1
:10EB200010BDB4F57A7F1EDB40F2E24084421ADA6F
:10EB3000A4F57A701CF007FD41EC1A0B9FEDC70B92
:10EB400053EC102B1CF066FD41EC190B9FEDC50B2F
:10EB500053EC102B1CF08EFA41EC180B1CF058FAF9
:10EB600000EE100ADAE740F2E240844221DB40F690
:10EB7000B24084421DDA0220FFF778FFA4F2E2409F
:10EB80001CF0E1FC41EC1A0B9FEDB80B53EC102B81
:10EB90001CF040FD41EC190B9FEDAE0B53EC102B1C
:10EBA0001CF06CFE41EC180B1CF032FA00EE100A5F
:10EBB000B4E740F6B24084421EDB40F6AC508442DB
:10EBC0001ADAA4F6B2401CF0BEFC41EC1A0B9FED21
:10EBD000A30B53EC102B1CF01DFD41EC190B9FED0A
:10EBE000A10B53EC102B1CF045FA41EC180B1CF058
:10EBF0000FFA00EE100A91E740F6AC50844221DB98
:10EC000041F2707084421DDA0320FFF72FFFA4F653
:10EC1000AC501CF098FC41EC1A0B9FED960B53EC9A
:10EC2000102B1CF0F7FC41EC190B9FED8A0B53ECF9
:10EC3000102B1CF023FE41EC180B1CF0E9F900EE40
:10EC4000100A6BE741F2707084421FDB41F66A00E4
:10EC500084421BDAA4F5B85070381CF074FC41EC07
:10EC60001A0B9FED7E0B53EC102B1CF0D3FC41ECE8
:10EC7000190B9FED7C0B53EC102B1CF0FBF941ECB6
:10EC8000180B1CF0C5F900EE100A47E741F66A00C0
:10EC9000844222DB42F2224084421EDA0420FFF743
:10ECA000E5FEA4F5C0506A381CF04DFC41EC1A0B8F
:10ECB0009FED720B53EC102B1CF0ACFC41EC190BCC
:10ECC0009FED640B53EC102B1CF0D8FD41EC180B9E
:10ECD0001CF09EF900EE100A20E742F22240844226
:10ECE0001FDB42F21C5084421BDAA4F5105022387C
:10ECF0001CF029FC41EC1A0B9FED580B53EC102B28
:10ED00001CF088FC41EC190B9FED560B53EC102BBB
:10ED10001CF0B0F941EC180B1CF07AF900EE100A67
:10ED2000FCE642F21C50844222DB43F698208442E7
:10ED30001EDA0520FFF79AFEA4F514501C381CF0CB
:10ED400002FC41EC1A0B9FED4F0B53EC102B1CF007
:10ED500061FC41EC190B9FED3F0B53EC102B1CF0A9
:10ED60008DFD41EC180B1CF053F900EE100AD5E6AE
:10ED70009FED460AD2E610B52DED068B0446002C19
:10ED80001EDBB4F57A7F1BDA20461CF0DCFB41EC7D
:10ED90001A0B9FED3F0B53EC102B1CF03BFC41EC8E
:10EDA000190B9FED3D0B53EC102B1CF067FD41EC54
:10EDB000180B1CF02DF900EE100ABDEC068B10BDEF
:10EDC000B4F57A7F06DB40F2E240844202DA9FED3E
:10EDD000340AF2E740F2E24084426EDB40F6B24091
:10EDE00084426ADAA4F2E2401CF0ADFB41EC1A0B5B
:10EDF0009FED2C0B53EC102B1CF00CFC41EC190B71
:10EE00009FED2A0B53EC102B1CF038FD41EC180B36
:10EE10001CF0FEF84EE050E09C640408B8010020AD
:10EE2000E03903086D7365632F70696374757265EB
:10EE30003A0A0000BC010020CC5603084765617205
:10EE40002020202031000000C00100203333333364
:10EE50003333B33F0000000000406A4033333333A4
:10EE60003333D33F0000000000E0604033333333DE
:10EE70003333A33FB81E85EB51B89E3F9A999999B9
:10EE80009999993F79E9263108AC6C3F0000074316
:10EE90007B14AE47E17A943F0000000000206C40F4
:10EEA00000004D437B14AE47E17A843F0000000030
:10EEB00000A0694000EE100A7FE740F6B2408442AD
:10EEC00006DB40F6AC50844202DA9FEDFE0A74E79E
:10EED00040F6AC5084421EDB41F2707084421ADA74
:10EEE000A4F6AC501CF02FFB41EC1A0B9FEDF60B77
:10EEF00053EC102B1CF08EFB41EC190B9FEDF40B27
:10EF000053EC102B1CF0BAFC41EC180B1CF080F8F1
:10EF100000EE100A51E741F27070844206DB41F6C0
:10EF20006A00844202DA9FEDEC0A46E741F66A0085
:10EF300084421FDB42F2224084421BDAA4F5C05017
:10EF40006A381CF000FB41EC1A0B9FEDDF0B53EC11
:10EF5000102B1CF05FFB41EC190B9FEDE00B53EC09
:10EF6000102B1CF08BFC41EC180B1CF051F800EE40
:10EF7000100A22E742F22240844206DB42F21C5091
:10EF8000844202DA9FEDD70A17E742F21C5084420E
:10EF90001FDB43F6982084421BDAA4F514501C387A
:10EFA0001CF0D1FA41EC1A0B9FEDCF0B53EC102B58
:10EFB0001CF030FB41EC190B9FEDCD0B53EC102BEB
:10EFC0001CF05CFC41EC180B1CF022F800EE100A5F
:10EFD000F3E61FED520AF0E62DE9F04105462E4614
:10EFE0000AF0CCFA04463078F0B1C34B1B88C24F0C
:10EFF0003F88E71B03EB67035A1EBF4B5B88BF4F7D
:10F000003F68D919BC4B1B88E31A5810BB4B1B68CF
:10F01000623305F0B5FEB8480088201A4110B748A1
:10F020000268B54806F052FA6FF07F4008F03FF8EA
:10F03000B24800688A3000EB4003601000EB4002E9
:10F040000521B01C05F0E2F8307890B1022008F0FC
:10F05000E7F8FF2008F02BF8A94808F057F8A64871
:10F060004088A64B1B681844421D6110A5A006F0FD
:10F0700059F9BDE8F0812DE9F04105462E460AF028
:10F080007DFA0446307840B39B4F3F88DFF868C272
:10F09000BCF800C0A4EB0C0C07EB6C077A1E974F72
:10F0A0003F6862377B00944F7F88DFF850C2DCF8FE
:10F0B00000C067447900904F3F88E71B781005F047
:10F0C0005FFE8E480068400000F162028A480088B6
:10F0D000201A4110884806F0F9F96FF07F4007F0D8
:10F0E000E6FF8648006862304000283000EB4003AD
:10F0F000601000EB40020421B01C05F087F8307866
:10F10000A0B1022008F08CF8FF2007F0D0FF7C4867
:10F1100007F0FCFF7948006840006230764B5B885E
:10F120001844421D61107AA006F0FCF8BDE8F08199
:10F130002DE9F047A2B0482107A802F0D1FB00203A
:10F140000190029081460AF025FA05460120FFF75A
:10F150008DFC00244BE0BFEE000A05A800EB840004
:10F1600080ED000A04EBC40119AA02EB410006F08D
:10F17000DBFF6A4850F8241048468847DFED680AEC
:10F1800020EE200A04EBC40007A901EB800080ED0B
:10F19000080A04EBC4038C460CEB8303D3ED080A86
:10F1A000B0EE600A5F4B03EBC4035A685D4B53F843
:10F1B000341004EBC4030CEB8303981C07F0AAFD86
:10F1C00004EBC40C0DF11C0A0AEB8C03DFF858C1E8
:10F1D0005CF8242004EBC40C0AEB8C0104EBC40C97
:10F1E0000DF1640A0AEB4C0007F0BAF8641C022C1B
:10F1F000B1DBFFF74FF806460027DEE0002499E078
:10F20000464850F8241048468847DFED450A20EE6E
:10F21000200A04EBC40007A901EB800080ED080A76
:10F2200005A800EB840090ED000A04EBC40001EB9C
:10F230008000D0ED080AB4EE600AF1EE10FA78D042
:10F2400004EBC40001EB800090ED080A05A800EB78
:10F25000840080ED000AFFF71DF8804604EBC4032C
:10F260000DF11C0C0CEB8303D3ED080AB0EE600A21
:10F270002C4B03EBC4035A682A4B53F8341004EBAD
:10F28000C4030CEB8303981C07F044FD04EBC40C8F
:10F290000DF11C0A0AEB8C03DFF88CC05CF824200B
:10F2A00004EBC40C0AEB8C0104EBC40C0DF1640AF2
:10F2B0000AEB4C0007F054F8FEF7ECFFA0EB080057
:10F2C00003A934E000003943FCA9F1D24D62703F3C
:10F2D000000000000020674000002F4300000000F5
:10F2E00000E0654000002343613255302AA9533FB6
:10F2F00000000000006064408C100308B40100208E
:10F30000CC56030852504D202F20313030300000B1
:10F310004D5048202F20313000000000D401002043
:10F3200035FA8E3CC4010020DC01002001E041F8E8
:10F330002400641C022CFFF663AF5A480068C8B36F
:10F34000142097FBF0F100FB117098BB6FF07F4029
:10F3500007F0ADFE002007F063FF534807F0D6FE2C
:10F36000002425E003A850F8240001A951F8241036
:10F3700088421CD0A5F11700DFF82CC19CF818C0FA
:10F3800000EB0C036A1001460A2005F0F9FCA5F118
:10F3900017010AB203A951F8240003230A2105F03A
:10F3A000E3FE03A850F8240001A941F82400641CDE
:10F3B000022CD7DB06F066FB7F1CFEF76BFF801B81
:10F3C000814643F69821884204DAFEF739FD002889
:10F3D0003FF414AF002407E004EBC40119AA02EBC8
:10F3E000410006F025FF641C022CF5DB22B0BDE8CD
:10F3F000F0872DE9F04100262CA136A0FEF7E7FFAB
:10F400000AF0BCF804460AF0C5F80546A5F1C400A8
:10F41000032190FBF1F03449086034480088401D16
:10F4200033490988611AB0EB610F06DB2F48408829
:10F43000401D2D490968884200DA0126AFF21C60A0
:10F4400006F05DFC2A490988611AB0EB610F07DB01
:10F450002548006862304100A5F12800814202DAA7
:10F46000012010490860234807F050FE074606F0C7
:10F4700001FC401C1C490968884202DA01201E492F
:10F480000860384607F042FE3046FFF7AFFA04F056
:10F4900069FE032004F060FFFFF74AFE04F05AFE05
:10F4A000BDE8F081B8010020E03903084578616DBE
:10F4B000706C657320666F72207468650A6175747C
:10F4C0006F6D6F7469766520696E647573747269A7
:10F4D000650000004175746F6D6F74697665207307
:10F4E000616D706C65730000B40100209C640408B9
:10F4F0008C100308CC560308BC010020F8B50AF0B4
:10F500003DF844100AF046F845103B48008840108A
:10F5100000EB4000261A38484088401000EB4000BD
:10F520002F1A032003463A4631460090324805F030
:10F53000F9FF32A0FEF72AFFF8BD2DE9F0410AF0ED
:10F540001DF806460AF026F80746322214213248F2
:10F5500005F0BCFF31A0FEF719FF40F6B830FEF70A
:10F560002EFF0020FEF7D9FE32221421224805F09A
:10F57000ADFF30A0FEF70AFF40F6B830FEF71FFFE0
:10F58000002415E000250BE01B48408800FB05F235
:10F590001948008800FB04F1174805F097FF6D1C1F
:10F5A0001548408897FBF0F0401CA842ECDC641C36
:10F5B0001148008896FBF0F0401CA042E2DC4FF4BA
:10F5C000FA60FEF7FCFE20A0FEF7E0FEFFF796FFD4
:10F5D000BDE8F08110B527A134A0FEF7F8FEFEF7D4
:10F5E000E8FE0020FEF799FEFFF7A7FF4FF47A60D0
:10F5F000FEF7E5FE10BD0000101C03084269746DA3
:10F600006170732063616E206265206D61676E6951
:10F61000666965642E2E2E00C8230308524C4520CF
:10F62000436F6D70726573736564206269746D6198
:10F6300070730000312F322F342F38206270702009
:10F640006269746D617073004269746D61707320DA
:10F650006D617920616C736F2062650A6D61676E00
:10F66000696669656420616E6420726F7461746597
:10F670006400000053686F77696E670A64696666A4
:10F680006572656E74206269746D6170732077694C
:10F6900074680A616E6420776974686F757420639A
:10F6A0006F6D7072657373696F6E00004269746D7F
:10F6B000617073002DE9F04F99B0502105A802F058
:10F6C0000FF909F05BFF824609F064FF03908E4951
:10F6D0008EA0FEF77CFE0120FEF71FFE6FF07F403C
:10F6E00007F0E5FC8C4807F011FD4FEA6A010C2297
:10F6F0008AA005F017FE8C4807F008FD2B22012197
:10F700008AA005F0FBFD3F22012189A005F0F6FD4E
:10F710005322012188A005F0F1FD6222012188A079
:10F7200005F0ECFD7122012187A005F0E7FD85229F
:10F73000012187A005F0E2FD9922012186A005F0B4
:10F74000DDFD874807F0E2FC09F068FE049005A89B
:10F750000499FEF7B4FC83A105A8FEF7D8FC0920A4
:10F7600009F078FE8146B9F1000F0BD07FA105A802
:10F77000FEF7CDFC494605A8FEF7A1FC7CA105A833
:10F78000FEF7C5FC0398A0F119020C2105A805F0AD
:10F79000B5FDFEF77FFD0746A6E0FEF77BFDC01B2B
:10F7A0004FF4FA6190FBF1F201FB1206481096FB50
:10F7B000F0F808EB4800C0EBC810A6EBC006B6F5A1
:10F7C000FA7F00DD90E0C6EB06204FF4FA7190FB63
:10F7D000F1F0C8EB082180EA010B0BEB0B2000EBEA
:10F7E0000B446FF07F40051BFF20342352462B2132
:10F7F000CDE900043C2005F085FFFF203E23524662
:10F800003521CDE900053C2005F07CFF4FF47F4019
:10F81000482352463F21CDE900043C2005F072FF09
:10F820004FF47F40522352464921CDE900053C2048
:10F8300005F068FF4FF47F005C2352465321CDE969
:10F8400000043C2005F05EFF4FF47F006623524623
:10F850005D21CDE900053C2005F054FF46487023AA
:10F8600052466721CDE900043C2005F04BFF4FF6DE
:10F87000FF707A2352467121CDE900053C2005F046
:10F8800041FF4FF6FF70842352467B21CDE90004EF
:10F890003C2005F037FF39488E2352468521CDE9BB
:10F8A00000053C2005F02EFF3448982352468F2156
:10F8B000CDE900043C2005F025FF4FF0FF10A22306
:10F8C00052469921CDE900053C2005F01BFF4FF081
:10F8D000FF10AC235246A321CDE900043C2005F0E3
:10F8E00011FF06F0CFF800BFFEF7D4FCC01B41F2B9
:10F8F0007071884204DAFEF7A3FA00283FF44DAF96
:10F9000019B0BDE8F08F000040380608436F6C6FF7
:10F910007220626172000000CC560308436F6C6F66
:10F920007220626172730000D000060852656400A4
:10F93000477265656E000000426C7565000000004E
:10F94000477265790000000059656C6C6F770000A4
:10F950004379616E000000004D6167656E7461005F
:10F9600070DE050820627070000000002C2000008E
:10F9700020636F6C6F7273008080800000FFFF0057
:10F98000034901600C21416005210181704700009D
:10F99000E40100202DE9FC5F06468846174600205A
:10F9A0000190009000240CE056F8345028684188FB
:10F9B0000198814204DD286840880190A868009081
:10F9C000641C032CF0DB4A4807F0A0FB3A46414692
:10F9D000B06905F093FC06F04DF9401C074445481A
:10F9E00007F094FB002428E056F8345006EBC400DE
:10F9F00090F8049000983844A968A0EB010B4846A1
:10FA000006F0F6F829680988081A4FEA600A1C22ED
:10FA100002FB0482511D5A46286805F057FD0198E3
:10FA20003844801C02B21C2000FB0480401D50445E
:10FA300001B2484605F084FB641C032CD4DBBDE80E
:10FA4000FC9F2DE9F0412DED048B09F097FD064652
:10FA5000022007F0E5FB284807F058FB71100C2244
:10FA600026A005F05FFC442430461BF06CFD41EC01
:10FA7000190B9FED270B53EC102B1BF0AFFB41EC48
:10FA8000180B1BF003FD07464B2522460521224893
:10FA9000FFF780FF621905212048FFF77BFF224610
:10FAA00039461F48FFF776FF621939461D48FFF7B0
:10FAB00071FFBDEC048BBDE8F08110B51AA123A045
:10FAC000FEF785FC0120FEF728FC05F01FF8FFF784
:10FAD000B8FF4FF47A60FEF772FC05F0FFF80021E2
:10FAE000084605F0B7F81B4805F044F810BD0000C3
:10FAF000E039030830F60508CC5603084176616901
:10FB00006C61626C6520637572736F7273000000C4
:10FB10000000000000000440DC2303081424030854
:10FB2000F8230308302403085354656D57696E2089
:10FB3000737570706F7274730A736F667477617225
:10FB40006520637572736F720000000043757273F5
:10FB50006F720000ACC805082DE9F04180460C46E4
:10FB600024B1012C05D0022C09D105E0462503263D
:10FB700007E03225012604E01E25072601E0BDE846
:10FB8000F08100BFEC4951F8240008F09DFE0746C3
:10FB9000E94850F824004FF47A7101FB0600E64969
:10FBA00041F8240007FB05F0E44A128802EB2040EC
:10FBB00001B2404603F06CFD00BFE0E770B50446BB
:10FBC0000D46DF48DF4A126830F82200DB4A12880F
:10FBD000104401B2204603F05BFDDA480068401C87
:10FBE000D8490860462801D10020086070BD2DE981
:10FBF000FF4F85B00D461646994609F0BFFC0390AD
:10FC00000398273804904FF0000B002405E055F8C6
:10FC10002410059803F060FC641CB442F7DB0AE092
:10FC2000002404E055F824002146C847641CB4426F
:10FC3000F8DB0BF1010B04988345F1DBFEF72AFB9F
:10FC400007460120019000BFFEF724FBA0EB070848
:10FC5000002404E055F824002146C847641CB4423F
:10FC6000F8DB019880B10020019005F00BFFB64849
:10FC70000168059803F0A8FDB4480168059803F0F1
:10FC8000A3FD05980EF050F8FEF7DAF80290FEF7A3
:10FC900001FBA0EB070AAAEB08000F2805DAAAEB84
:10FCA0000801C1F10F0005F017FA41F288308045D4
:10FCB00002DA02980028C7D0002405E055F8241085
:10FCC000059803F04EFD641CB442F7DBFEF74BFBD6
:10FCD00009B0BDE8F08F10B5044620680F2803D1A5
:10FCE0000120FEF71AFB03E020460CF0B9FE00BF2E
:10FCF00000BF10BD2DE9F04F8DB009F03FFC8046EC
:10FD000009F048FC834692480CF072FB0C900CF012
:10FD1000F7FF904905900DF032FEA8F11406ABF103
:10FD20004B05F22D0DDDF22505EB850080000B2142
:10FD300090FBF1F0B04204DA05EB8500800090FB07
:10FD4000F1F6A8EB060040100690ABEB05004FEA79
:10FD50006009B9F1460F01DA4FF046090CF0D0FF07
:10FD6000002140F602030590CDE901312B463246D1
:10FD7000039100904946069803F039FC8246092019
:10FD800000231A4613210090504603F0B3FD50465D
:10FD90000DF018FF00227049504603F0CCFD0122FF
:10FDA0004FF40801504603F0C6FD022200215046E0
:10FDB00003F0C1FD03226949504603F0BCFD012157
:10FDC000504603F025FE1921504603F0D3FD0A21C9
:10FDD000504603F0E9FD50460CF0E6FC00240CE030
:10FDE000A8F127015E4A52F8240000231A4603F0C6
:10FDF0006DFC07A941F82400641C052CF0DBA5F17B
:10FE00000907192300220C21042003F011FD4E499B
:10FE10000860142301220221092003F009FD4B4947
:10FE20000860291F4848006803F04AFD6FF004018C
:10FE30004548006803F02AFD002443E004EB440138
:10FE4000484A52F83100FEF7A1FA3F48016850468F
:10FE500003F064FB3D480168504603F05FFB04EB90
:10FE60004400404901EBC0008068784340123349A8
:10FE7000086004EB44003B4A02EBC000C0687843D2
:10FE80004112504603F0AAFDA7F1090004EB440219
:10FE9000344B03EBC2025268504341122B480068B6
:10FEA00003F0F4FC04EB44002E4901EBC0000369AD
:10FEB00004EB440001EBC00007A942695046FFF77C
:10FEC00096FE641C04EB4400264901EBC000006967
:10FED0000028B3D11C480168504603F075FC1B484C
:10FEE0000168504603F070FC1748006803F0CCFC32
:10FEF0001648006803F0C8FC002405E007A951F883
:10FF0000240003F023FC641C052CF7DB50460CF0A6
:10FF1000DFFD0C980CF06CFA0DB0BDE8F08F10B559
:10FF200011A11EA0FEF753FAFEF743FAFFF7E2FE17
:10FF3000FEF719FA10BD0000B8E1012048030020C7
:10FF400014020020940300204003002044030020FA
:10FF5000F8240608D7FC000840404000808080005C
:10FF60002C0300204C0300204F7074696D697A6582
:10FF7000642064726177696E6720726F7574696E50
:10FF8000650A666F722064726177696E67206772B6
:10FF900061706820646174610000000044726177E0
:10FFA000696E67206120677261706800F0B589B082
:10FFB00020223A4901A801F037FC09F0DFFA054692
:10FFC00009F0E8FA04466E100020FEF7A6F90220B8
:10FFD00007F026F96FF07F4007F069F8304807F026
:10FFE00095F844F3191231462EA005F09BF92F48DD
:10FFF00007F08CF804EB440000EBC400821131469A
:020000040801F1
:100000002BA005F08FF9384807F051F8162060430F
:100010008211314635A005F085F9404807F076F8A1
:1000200016206043122101EBA01231463CA005F0DE
:1000300079F96FF07F4007F03AF81C4807F066F84E
:1000400005F06AFE0746394601A801F05AFBC4EBE9
:1000500044108211314601A805F064F9262060435E
:10006000821137480088281A4110364805F02EFAC8
:100070006FF07F4007F01BF8094807F047F8C4EB22
:10008000C40040F3D90231462FA005F04BF941F2EC
:100090008830FEF70CF909B0F0BD00004C240308CD
:1000A000CC5603085354656D57696E00D00006089E
:1000B000556E6976657273616C20677261706869EC
:1000C0006320736F6674776172650A666F7220656C
:1000D0006D626564646564206170706C69636174ED
:1000E000696F6E7300000000FF882200466F722067
:1000F00053544D3332204D43552050726F64756315
:100100007473202D20436F72746578204D33202D39
:1001100020436F72746578204D34000058E505085F
:10012000436F6D70696C6564204D617220313420BD
:10013000323031372031333A30313A303800000034
:1001400058970308403E04087777772E73742E6320
:100150006F6D2F73746D333200000000F0B593B0F3
:1001600006460D463C2101A801F0BAFBF0F7EEF877
:10017000F521B0FBF1F201FB1204AA4850F824105B
:1001800001A801F07BFA00240BE0F0F7DFF81A2158
:1001900090FBF1F201FB12004130C1B206A80155FB
:1001A000641C052CF1DBF0F7D1F842F2107190FBE2
:1001B000F1F201FB1200A0EB610422469AA10BA808
:1001C00001F038F9002408E004EB840001A901EBF8
:1001D000800010A941F82400641C032CF4DB35B125
:1001E00010AA002130460AF013F9074604E010A9CE
:1001F000304609F010FE0746384613B0F0BD70B522
:10020000054628460AF07AF80646012108F0AAFEBB
:10021000012128460AF025FA012128460AF044FA6D
:10022000052128460AF0C4FA052128460AF0A7FA53
:10023000002417E07D4800EB041083687B4800EB46
:1002400004100268794800EB04104168284609F060
:1002500092FD764800EB04102146C26828460AF059
:1002600003FA641C032CE5DB28460AF032F870BD63
:100270002DE9F14F82B04FF00008C146C246C34697
:100280004FF0FF37002400BF04EB4400684901EB46
:100290008000806838B104EB4401654A02EB8101BB
:1002A0008868FEF773F804EB4400614901EB8000B5
:1002B000406807285CD2DFE800F05B404A38303401
:1002C000040002980AF056F80646002522E0594834
:1002D00050F82A0000234A464146009002980AF04E
:1002E00002FA0AF101008246182801D14FF0000AF3
:1002F00002980AF02AF808F101018846884201D1E3
:100300004FF0000809F101008146B04201D14FF0E1
:1003100000096D1CB542DAD32AE002980AF06AF8A7
:1003200026E0029809F0C6FF22E08BF0010B5A4646
:10033000394602980AF055FA1AE0002504E0002137
:100340000298FFF70BFF6D1C282DF8D310E0781CE6
:1003500008B9002706E07F1C029809F0F6FFB842B2
:1003600000D100275A46394602980AF03AFA00BFEF
:1003700000BF04EB44012E4A52F8210004F0ACFE09
:10038000601C0446212804D2FDF75AFD00283FF4E2
:100390007BAFBDE8FE8F2DE9FF4709F0EFF804467B
:1003A00009F0F8F88046A4F1D2005521B1EB600FB6
:1003B00001DA451002E0A4F591704510A8F1410062
:1003C000C6100CF09DFC81464FF400700021022203
:1003D000CDE90092CDE90210A8F14100A0EB46035F
:1003E00006F14101D222284609F0E2FE07463846CE
:1003F0000DF062FB3846FFF702FF3846FFF738FF83
:1004000038460CF065FBBDE8FF8710B50AA115A0C2
:10041000FDF7DDFF0120FDF780FFFDF7CAFFFFF7C5
:10042000BAFF10BD98030020256900006C24030862
:100430009C2403082826030853686F777320736F82
:100440006D65206665617475726573206F660A74E8
:100450006865204C49535456455720776964676551
:10046000740000004C697374766965772064656D6B
:100470006F0000002DE9F04F85B009F07FF8029081
:1004800009F088F801904FF0000A00250298471EF5
:1004900041260198A0F13D0805F0D5FB049005F038
:1004A0009BFB0390039806F002FEFDF7F3FE8146E6
:1004B00000BF43463A463146284605F0FDFA0AF1A8
:1004C000010AFDF7E7FE044609F16401601A0028FD
:1004D000EFDDA4EB0904781B401CA8EB0601491CC6
:1004E000484300FB0AF000900098B0FBF4F04FF492
:1004F0007A7100FB01FB049806F0D9FD584605B05F
:10050000BDE8F08F2DE9F04796B02821684601F04C
:10051000E7F909F033F8054609F03CF8044609F01C
:1005200021F8804604F0F2FAA0450DDD0020ADF878
:100530002800ADF82A0028B2ADF82C0020B2ADF8A2
:100540002E000AA806F0A7FD5EA16AA0FDF73FFFF6
:10055000002608E06A4951F8260004F04FFC0EA975
:1005600041F82600761C082EF4DBFDF793FE0746C3
:10057000002667E006F007010EAA52F8210006F0F7
:10058000A1FDEFF7E3FE90FBF5F105FB1100A94695
:1005900005EBD971A0EB610000B2ADF83000EFF7C8
:1005A000D5FE90FBF4F104FB1100A14604EBD971D8
:1005B000A0EB610000B2ADF83200EFF7C7FE90FB90
:1005C000F5F105FB1101BDF830001430084400B20C
:1005D000ADF83400EFF7BAFE90FBF4F104FB110123
:1005E000BDF832001430084400B2ADF83600BDF951
:1005F0003630BDF93420BDF93210BDF9300005F0B8
:100600005BFABDF93400A84203DB681E00B2ADF806
:100610003400BDF93600A04203DB601E00B2ADF825
:100620003600BDF93000002802DA0020ADF83000B5
:10063000BDF93600002802DA0020ADF8360005F0DA
:1006400021FA761CFDF726FEC01B41F28831884254
:1006500003DAFDF7F5FB00288CD0FDF784FEFFF7E9
:1006600009FF8246002006F016FD0020FDF755FE2A
:100670006FF07F4006F01BFD022006F0D1FD2148FF
:1006800006F044FD052211461F4804F01FFF1FA17C
:100690006846FDF73CFD51466846FDF710FD05F044
:1006A000F7FA201A4FEA600969104A46684604F0D2
:1006B00039FE4FF47A60FDF7FAFD04F00FFB16B037
:1006C000BDE8F0874D756C7469206C6179657220A6
:1006D000636C697070696E670A486967686C792035
:1006E0006F7074696D697A65642064726976657289
:1006F00073000000486967682073706565640000D6
:10070000B0640408CC5603089C64040850697865FA
:100710006C732F7365633A20000000002DE9F047E9
:100720008046D8F8049008F029FF064608F032FF0A
:100730000446FE4805884788D8F800000F286AD08C
:10074000B0F5806F10D0A0F20140002862D1F848C7
:10075000006840B9F748006828B90020F4490860EB
:100760000220F449086000BFF04805884788F04837
:10077000006800280BDA701BEF490968884234DBF7
:100780000020EB490860801EEA4908602DE0E94836
:10079000006800280BDAE01BE8490968884224DB7E
:1007A0000220E34908600020E24908601DE0E048BB
:1007B000006800280ADDE0480068002815DB0020FA
:1007C000DB4908600220DB4908600EE0D948006878
:1007D00000280ADDD9480068002806DB6FF0010018
:1007E000D34908600020D3490860AE4206DAD248F7
:1007F0000068CF4909680844CF490860BC4206DA5E
:10080000CE480068CB4909680844CC49086048468E
:100810000CF0ACFE4FE06FF07F4006F031FCAE42D2
:1008200003DD701B4010C4490860BC4203DDE01BBF
:100830004010C2490860C1480268BF480168BB480F
:1008400004F044FEBC48006838B1631EBA48006832
:10085000421E0021084604F093FAB7480068284475
:10086000B04207DA631E721EB349096848190021B5
:1008700004F086FAB148006858B1B0480068431ED9
:10088000AD4800682844421E0021AB48006804F0CF
:1008900077FAAA4800683844A0420BDA631EA648DB
:1008A00000682844421EA5480068C119A248006893
:1008B00004F066FA00BF00BFBDE8F0872DE9F04103
:1008C00006460C46214630460CF030FA07463846BC
:1008D0000AF0EBFF0546B4F5987F03D0A4F231107F
:1008E00078B905E09648056030460CF03FFE08E018
:1008F0009448056030460CF0EDFA80460CF036FE68
:1009000000BF00BFBDE8F0812DE9F04104466668F4
:1009100020680F2833D01D2802D026283DD120E0A2
:100920004FF4987130460CF001FA8046FF22002106
:1009300040460AF0FBFF8248016840460BF017F87A
:1009400040F2311130460CF0F1F98046FF220021CF
:1009500040460AF0EBFF7B48016840460BF007F881
:100960001BE0A0680CF031FA0746E568052D04D1BC
:1009700039463046FFF7A2FF00BF00BF0DE07049C7
:10098000087806F041FB704806F07AFB04F0EAF9BB
:10099000002006F039FBBDE8F08100BF6B4800681D
:1009A00018B1204669490968884700BFF3E710B5C8
:1009B000044620680F2804D16249087806F024FB19
:1009C00000BF00BF204601F0F7FB002006F01CFB33
:1009D00010BD2DE9F04F87B008F0D0FD83465C488C
:1009E00001F0D0FF022001F0E7FF4FF0FF110020DF
:1009F00001F0BEFF4FF0FF11012001F0B9FF0BF035
:100A00007FF8049052480BF081F84FF47F000BF010
:100A100083F80CF075F94F4902900CF0B0FF039089
:100A20000CF06EF940F2014102900CF088FFABF13E
:100A3000DC003721029000EBD070401000231A46F2
:100A4000CDE900010521444804F0E4F98046404620
:100A50000DF0B8F8414940460CF091FF40460CF0CB
:100A600044F9069006980DF0ADF83D4906980CF053
:100A700086FF364908601D2106980CF060FF40464D
:100A80000CF033F94FF4987102900CF04FF9814655
:100A900040460CF02AF940F2311102900CF046F970
:100AA0008246FDF7F7FB064606F12800059000BFD9
:100AB000012004F011FBFDF7EDFB0446A51B059991
:100AC0008C422EDB04F1280005900CF019F94FF44C
:100AD000806102900CF033FF41F2883095FBF0F119
:100AE00000FB11554010854207DAC5EB0520800058
:100AF00042F2107190FBF1F70AE0A5F6C410C0EBCA
:100B00000020800042F2107190FBF1F0C0F1FF076D
:100B1000394648460AF02BFFC7F1FF0150460AF05C
:100B200026FFFDF7B7FB801B1CE0000074BF040824
:100B3000780700207C070020800700208407002021
:100B40006C07002070070020AAAAAA0074070020E2
:100B5000CC0E06081D07010888BF0408AF0901086C
:100B60000909010842F21071884203DAFDF768F9B9
:100B700000289DD040460BF0ABFF144801F002FF67
:100B8000002001F019FF1249002001F0F1FE4FF49E
:100B90007F01012001F0ECFE04980AF0B7FF00206D
:100BA0000AF0BAFF0CF0ACF8029003990CF0E7FEE3
:100BB00007B0BDE8F08F10B506A111A0FDF707FC46
:100BC000FDF7C6FBFFF705FF10BD000050D8050874
:100BD000404040005573657320616C70686120620D
:100BE0006C656E64696E670A666F72207472616EFE
:100BF00073706172656E6379206566666563740003
:100C00005472616E73706172656E74206469616C98
:100C10006F6700002DE9F04104460D461646E06975
:100C2000401CE0612169E069884201DB0020E0614D
:100C3000A1682068084420602068A84206DDE169B8
:100C4000606950F82100008840422060E1696069D5
:100C500050F82100008840422168884200DD25606C
:100C6000E1686068084460606068002802DAE06853
:100C70004042E060E169606950F821004088301A24
:100C80006168884202DAE0684042E060D4F81CC043
:100C9000676957F82C10D4E90023A06906F0C2F860
:100CA000BDE8F081F8B50546FEA000231A460121F3
:100CB000009028460BF01FFA0446FDA002232246AE
:100CC0000121009028460BF016FA0646FBA00123EE
:100CD00032461946009028460BF00DFA06460022CF
:100CE000114628460BF0F6F8044604222146284611
:100CF0000BF0F0F80446F3A00223224601210090F5
:100D000028460BF0F8F90646EFA0012332461946B3
:100D1000009028460BF0EFF90646ECA0012332467E
:100D20001946009028460BF0E6F90646E9A0012393
:100D300032461946009028460BF0DDF9064604229B
:100D4000214628460BF0C6F80446E3A002232246BB
:100D50000021009028460BF0CEF90646E0A00123C2
:100D600032460021009028460BF0C5F90646DEA069
:100D7000012332460021009028460BF0BCF90646BC
:100D80000222214628460BF0A5F80446D9A00223EA
:100D900022460021009028460BF0ADF90646D9A066
:100DA000012332460021009028460BF0A4F90646A4
:100DB000D8A0012332460021009028460BF09BF971
:100DC00006460222214628460BF084F80446D5A0A8
:100DD000022322460021009028460BF08CF906469B
:100DE000D3A0012332460021009028460BF083F95E
:100DF0000646D2A0012332460021009028460BF07F
:100E00007AF906460222214628460BF063F804468A
:100E1000CDA0022322460021009028460BF06BF95A
:100E200006460522214628460BF054F804460222C5
:100E3000214628460BF04EF80446C6A0022322465F
:100E40000021009028460BF056F90646C4A0012365
:100E500032460021009028460BF04DF9064601214C
:100E600028460BF08EF9012128460BF09AF9002252
:100E7000114628460BF02EF807460BF0D7F8284607
:100E80000CF01AFEF8BD70B50446656820680F289E
:100E90000BD01D280AD14FF4107128460BF046FFE5
:100EA00006463046FFF7FEFE00E000BF00BF70BD03
:100EB0002DE9F04786B0074688469146002400BFDA
:100EC000FDF7E8F904EB4401A84A52F8211046184E
:100ED00004EB4400114601EB8000806830B104EB64
:100EE000440102EB81018868FDF750FA00BFFCF76E
:100EF000A7FF10B106B0BDE8F0870120FDF714FA96
:100F000060B1002507E09A4901EB45104A46414689
:100F1000FFF780FE6D1C022DF5D300BF642004F0A6
:100F2000DBF8FDF7B7F9B042E1DB38460BF03AF8F1
:100F3000824601A950460BF086F804EB44008B4929
:100F400001EB8000406809283BD2DFE800F03A2A34
:100F50002E3236140F050A00002138460BF031F905
:100F60002FE0012138460BF02CF92AE00121384608
:100F70000BF048F925E0019868B1029828B17D4A44
:100F8000012150460BF082F80AE07B4A00215046CE
:100F90000BF07CF804E0794A022150460BF076F819
:100FA0000FE038460BF0A4F80BE038460AF08EFF4D
:100FB00007E050460BF03AF803E050460BF006F815
:100FC00000BF00BF601C04462B28FFF479AF00BFB0
:100FD00090E72DE9F04F91B03822694903A800F05D
:100FE00023FC08F0CBFA054608F0D4FA064628465A
:100FF00005EBD071491009B2ADF81A1030B2ADF856
:101000001C00284605EBD07149100AB2ADF8362015
:1010100031B2ADF838100BF073FE0446002000909A
:101020002346584A0221019003A803F0F3FE074625
:1010300038460BF05AFE804640460BF0C9FF824608
:1010400040460BF0DCFF83464FF4107138460BF03E
:101050006DFE81465A46514648460CF008FE012076
:10106000FDF762F9C0B1002413E0414B03EB4413D8
:101070005A683F4B03EB441319683D4B03EB441391
:101080005B69186805F080FE394901EB44118861FD
:10109000641C022CE9D300BF324629464846FFF7BC
:1010A00007FF71E04C6F63616C206469736B000033
:1010B0005069637475726573000000004D6F766946
:1010C00065730000424D5000474946004A5045476D
:1010D00000000000504E47004361742E626D7000A6
:1010E000446F672E626D700046726F672E626D707E
:1010F00000000000466C6F7763686172742E676948
:101100006600000050726F6A656374732E676966CB
:1011100000000000496E7465726C616365642E673F
:1011200069660000547265652E6A7065670000008C
:101130004E61747572652E6A706567005061756CDA
:101140002E6A706567000000506172726F742E70B5
:101150006E670000536D696C69652E6769660000F3
:10116000436174732E67696600000000A0C405081F
:10117000B007002010C104087CC1040860C0040846
:10118000A4C60508870E01080120FDF7CDF858B167
:10119000002406E0114901EB4411886905F000FEC6
:1011A000641C022CF6D300BF38460BF091FC11B042
:1011B000BDE8F08F10B50A490AA0FDF708F9FDF760
:1011C000F8F80020FDF7A9F803F0A0FCFFF701FFF5
:1011D00003F084FDFDF7C7F810BD0000B007002044
:1011E0003442060854726565766965772064656DDA
:1011F0006F0000002DE9F04104460D4617461E46DB
:1012000000BF2C442146002005F0CCFF304603F0FF
:1012100063FFFCF715FE10B10120BDE8F081781ED8
:10122000071EEED100BFF8E7F0B587B05F4903C9EC
:10123000CDE9050108F0A2F9064608F0ABF904462D
:101240005B4805F063FF022005F0EAFF0020ADF8DF
:101250000C00ADF80E00701E00B2ADF81000601E5C
:1012600000B2ADF812006FF07F4005F020FF0E22B3
:1012700003A950A004F070F8FA2003F02DFFBDF888
:101280000E00204400B2ADF80E00BDF8120020445C
:1012900000B2ADF8120000206FF07F41CDE90010E0
:1012A000BDF91230BDF91020BDF90E10BDF90C00CA
:1012B00004F064FA032094FBF0F0BDF81210081A51
:1012C00000B2ADF812004FF4004005F0F0FE0E221F
:1012D00003A93CA004F040F8052094FBF0F700259A
:1012E0002AE005A850F825303A4605210020FFF7EE
:1012F00081FF012801D107B0F0BD2146002005F093
:1013000051FFFA2003F0E8FE05A850F825303A46D0
:101310006FF004012046FFF76DFF012800D1EAE7D6
:101320000021084605F03EFFFA2003F0D5FEFCF749
:1013300087FD00B1DFE76D1C022DD2D3002512E03E
:101340002146002005F02EFFC82003F0C5FE002135
:10135000084605F027FFC82003F0BEFEFCF770FD2D
:1013600000B1C8E76D1C052DEADB4FF47A70FCF77D
:101370009EFF00BFBFE770B508F00CF9044608F007
:10138000F1F80546B5EB440F00DA70BD14A11EA0BC
:10139000FDF71DF80120FCF7C0FFFFF745FF002116
:1013A000084605F0FFFE00BFEFE70000DCC60508B9
:1013B000CC23060844656661756C7420736372659E
:1013C000656E000048657265206973207468652049
:1013D0007669727475616C2073637265656E000066
:1013E00044656D6F6E7374726174657320686F7796
:1013F00020746F207573650A7669727475616C204C
:1014000073637265656E73005653637265656E2013
:1014100064656D6F00000000704700000FB4044960
:1014200010B503AA029800F05FFB10BC5DF814FB36
:10143000A40000200FB41CB5074B06AA7B446946E4
:101440000090059800F021FB0020694600F030FB79
:101450001CBC5DF814FB0000710600002DE9F04192
:101460000E460446002020622046E168884730B3DB
:10147000252805D0D4E901219047206A401CF2E7D5
:10148000E168204600278847050018D0A5F14100F3
:10149000192802D820354FF40067324629462046E5
:1014A0002760EEF7CBFE40B1012804D0F61D26F0F0
:1014B00007060836D8E7361DD6E72846DAE7206A59
:1014C000BDE8F08170B50C460546012A05D02878A4
:1014D000800600D5EA69002302E0012305E05B1CD9
:1014E000934202D2E05C0028F9D1A869E618C01A3C
:1014F000A861286A184428622846AFF3008004E0F7
:10150000D5E9012114F8010B9047B442F8D32846DD
:10151000AFF3008070BD00002DE9F04106460024C5
:1015200010687529314616A510D0AFF30080002849
:1015300002DA404213A507E031688A0701D512A5F7
:1015400002E0490704D511A5012401E0AFF30080B2
:1015500000210A2206F1240709E0B0FBF2FCB0FBEF
:10156000F2F302FB1C00303078541846491C002866
:10157000F3D123462A463046BDE8F04100F027BAB1
:10158000000000002D0000002B00000020000000E3
:1015900070B504460D4621461068AFF300802188DF
:1015A000090502D50F4A7A4402E00E4A7A440E3207
:1015B000002104F1240305E000F00F060009965D08
:1015C0005E54491C0028F7D120780023000704D579
:1015D000702D02D009B1022311322046BDE87040BF
:1015E00000F0F5B9C32105000B4910B5A1F17C024B
:1015F0000A4CC2E93712372106E000EB104342F8EB
:101600002130074B00FB03400B1EA1F10101F4DC6C
:1016100010BD0120E8E7000060E50120E119D66671
:10162000CD0D010040EA010310B59B070FD1042A3C
:101630000DD310C808C9121F9C42F8D020BA19BA9D
:10164000884201D9012010BD4FF0FF3010BD1AB102
:10165000D30703D0521C07E0002010BD10F8013B57
:1016600011F8014B1B1B07D110F8013B11F8014B7E
:101670001B1B01D1921EF1D1184610BD40EA010397
:10168000024630B59B0710D14FF0013400E008C28C
:1016900008C91D1B9D4315EAC41FF8D013F0FF01B4
:1016A00002F8011B0DD01B0AF8E711F8013B002BD3
:1016B00002F8013B05D011F8013B002B02F8013B79
:1016C000F3D130BD10B5431C02E010F8011B71B11D
:1016D0008107FAD14FF0013202C88C1A8C4314EA08
:1016E000C211F9D0C01A0A0603D0C01E10BDC01A1C
:1016F00010BD0A0401D0801E10BD0902FCD0401E9E
:1017000010BD421E12F8013F002BFBD111F8013B26
:10171000002B02F8013BF9D17047032A40F23080D8
:1017200010F0030C00F0158011F8013BBCF1020F22
:10173000624498BF11F801CB00F8013B38BF11F8A3
:10174000013BA2F1040298BF00F801CB38BF00F8BA
:10175000013B11F0030300F06780083AC0F00880F5
:1017600051F8043B083A51F804CBA0E80810F5E71B
:10177000121D5CBF51F8043B40F8043BAFF30080FE
:10178000D20724BF11F8013B11F801CB48BF11F873
:10179000012B24BF00F8013B00F801CB48BF00F843
:1017A000012B7047431A28BF9A427FF6B6AF032A2F
:1017B0001044114440F2268010F0030F1EBF11F8B0
:1017C000013D521E00F8013D10F0030F7FF4F6AF0B
:1017D00011F0030300F0AD81083AC0F00B8051F81E
:1017E000043D083A51F804CD40F8043D40F804CDDA
:1017F000FFF7F3BF121D5CBF51F8043D40F8043DF4
:10180000AFF30080D20724BF11F8013D11F801CDDC
:1018100048BF11F8012C24BF00F8013D00F801CDAC
:1018200048BF00F8012C704710B5203AC0F00B807B
:10183000B1E81850203AA0E81850B1E81850A0E8D4
:101840001850BFF4F5AF5FEA027C24BFB1E818502E
:10185000A0E8185044BF18C918C0BDE810405FEA9E
:10186000827C24BF51F8043B40F8043B08BF70471A
:10187000D20728BF31F8023B48BF11F8012B28BF1F
:1018800020F8023B48BF00F8012B704702F0FF032D
:1018900043EA032242EA024200F002B84FF000029B
:1018A0000429C0F0128010F0030C00F01B80CCF172
:1018B000040CBCF1020F18BF00F8012BA8BF20F8E0
:1018C000022BA1EB0C0100F00DB85FEAC17C24BF34
:1018D00000F8012B00F8012B48BF00F8012B7047DE
:1018E0004FF0000200B5134694469646203922BFB9
:1018F000A0E80C50A0E80C50B1F12001BFF4F7AF04
:10190000090728BFA0E80C5048BF0CC05DF804EBE5
:10191000890028BF40F8042B08BF704748BF20F853
:10192000022B11F0804F18BF00F8012B7047000008
:101930004FF0013C50F8042B51F8043B9A4221D15E
:10194000A2EB0C03934313EACC1317D150F8042BEA
:1019500051F8043B9A4215D1A2EB0C03934313EACE
:10196000CC130BD150F8042B51F8043B9A4209D107
:10197000A2EB0C03934313EACC13DBD04FF000002F
:10198000704700BFD01A01BAB1FA81F101F0180115
:1019900022FA01F0CB40C1F12001DBB2C0B2C01A83
:1019A0002CFA01F3D11A914311EAC311E6D1704721
:1019B000704770477047704710B500F0E5F8006851
:1019C00010BD10B5044600F0DFF8046010BD2DE92D
:1019D000F0470D4699469246044600F124080168F6
:1019E000880604D5E06921F01001216000E00120A3
:1019F000A84201DD471B00E00027A1697A1902EB2C
:101A00000900081AA0612078C00602D42046AFF36E
:101A10000080002608E0D4E901211AF8060090476A
:101A2000206A401C761C20624E45F4DB2078C006FC
:101A30000AD52046AFF3008006E0D4E9012130202A
:101A40009047206A401C2062381EA7F10107F4DC91
:101A500007E0D4E9012118F805009047206A401CEE
:101A60002062281EA5F10105F3DC2046AFF30080BB
:101A70002078000602D50220BDE8F0870120FBE7B0
:101A800001694A1C02610878704700B58FB0CDE942
:101A900001310021059105497944CDE90310114632
:101AA0006846FFF7DBFC0FB000BD0000E5FFFFFF5D
:101AB0000A6802F8010B0A60704710B5436913B158
:101AC000AFF3008001E0FFF7FDFC012010BD1278AC
:101AD00000F124010A7000224A700122EDE711682A
:101AE0004FF0FF32E9E70000074B70B50D467B442D
:101AF000FFF7CBFF0446284600F04AF810B14FF03C
:101B0000FF3070BD204670BDB77FFFFF431A28BF6E
:101B10009A427FF689AE104410F0030F11441EBFA5
:101B200011F8013D521E00F8013D10F0030F7FF443
:101B3000F6AF103AC0F00A8010B531E91850103AEB
:101B400020E91850BFF4F9AFBDE81040530724BF97
:101B500031E9081020E9081044BF51F8043D40F86D
:101B6000043D12F0030F08BF7047D20728BF31F8B9
:101B7000023D48BF11F8012C28BF20F8023D48BFA4
:101B800000F8012C7047000000487047C8E50120AC
:101B9000007B00F08000704700487047C8E50120D6
:101BA0007546FFF7F9FFAE4605006946534620F03B
:101BB0000700854618B020B5F5F7A4FEBDE8204023
:101BC0004FF000064FF000074FF000084FF0000BF9
:101BD00021F00701AC46ACE8C009ACE8C009ACE8AC
:101BE000C009ACE8C0098D46704710B50446AFF394
:101BF00000802046BDE81040EEF745BB002800DC21
