:020000040800F2
:10000000785B0020F5020008374D0008D70A000889
:10001000354D0008150800082952000800000000AE
:100020000000000000000000000000003D02000889
:10003000170800080000000091020008854F000822
:100040000F0300080F0300080F0300080F03000848
:100050000F0300080F0300080F0300080F03000838
:100060000F0300080F030008190800080F03000819
:100070000F0300080F0300080F0300080F03000818
:100080000F0300080F0300080F0300080F03000808
:100090000F0300080F0300080F0300080F030008F8
:1000A0000F0300080F0300080F0300080F030008E8
:1000B0000F030008F54F00080F0300080F030008A6
:1000C0000F0300080F0300080F0300080F030008C8
:1000D0000F0300088D5000080F0300080F030008ED
:1000E0000F0300080F0300080F0300080F030008A8
:1000F0000F0300080F0300080F0300080F03000898
:100100000F0300080F030008315000080F03000818
:100110000F0300080F0300080F0300080F03000877
:100120000F0300080F0300080F0300080F03000867
:100130000F0300080F0300080F0300080F03000857
:100140000F0300080F0300080F0300080F03000847
:100150000F0300080F0300080F0300080F03000837
:100160000F0300080F0300080F0300080F03000827
:100170000F0300080F0300080F0300080F03000817
:100180000F0300080F03000800F002F800F047F822
:100190000AA090E8000C82448344AAF10107DA45E2
:1001A00001D100F03CF8AFF2090EBAE80F0013F0ED
:1001B000010F18BFFB1A43F001031847308F0000EE
:1001C000508F0000103A24BF78C878C1FAD852077F
:1001D00024BF30C830C144BF04680C6070470000C1
:1001E0000023002400250026103A28BF78C1FBD840
:1001F000520728BF30C148BF0B607047642900F028
:100200000581782900F03E81732900F03B820020AF
:1002100070471FB507F070FB1FBD10B510BD00F093
:10022000C6FA1146FFF7F5FF05F0A8F800F0E4FA6A
:1002300003B4FFF7F2FF03BC04F0F7FF2A4B196881
:100240000868B0E8F04F80F30988BFF36F8F4FF074
:10025000000080F311887047000000000648006825
:10026000006880F3088862B661B6BFF34F8FBFF3B2
:100270006F8F00DF00BF00BF08ED00E0DFF80C006B
:10028000016841F470010160704700BF88ED00E033
:10029000EFF30980BFF36F8F134B1A681EF0100F36
:1002A00008BF20ED108A20E9F04F106008B44FF02D
:1002B000500080F31188BFF34F8FBFF36F8F06F0AC
:1002C00057FB4FF0000080F3118808BC19680868DC
:1002D000B0E8F04F1EF0100F08BFB0EC108A80F3AA
:1002E0000988BFF36F8F70477C000020EFF3058013
:1002F000704700000948804709480047FEE7FEE7CD
:10030000FEE7FEE7FEE7FEE7FEE7FEE7FEE7FEE7C5
:1003100004480549054A064B70470000994F0008FC
:100320008901000878550020785B0020785700206C
:1003300078570020704700000FB4044910B503AA95
:10034000029800F0A3F910BC5DF814FB68000020CF
:100350002DE9F0410E460446002020622046E16867
:10036000884730B3252805D0D4E901219047206A79
:10037000401CF2E7E168204600278847050018D0B6
:10038000A5F14100192802D820354FF40067324604
:10039000294620462760FFF731FF40B1012804D0ED
:1003A000F61D26F007060836D8E7361DD6E728469C
:1003B000DAE7206ABDE8F08170B50C460546012AEF
:1003C00005D02878800600D5EA69002302E00123E1
:1003D00005E05B1C934202D2E05C0028F9D1A869D9
:1003E000E618C01AA861286A184428622846AFF3A4
:1003F000008004E0D5E9012114F8010B9047B442D4
:10040000F8D32846AFF3008070BD00002DE9F0411D
:100410000646002410687529314616A510D0AFF3A2
:100420000080002802DA404213A507E031688A07FD
:1004300001D512A502E0490704D511A5012401E068
:10044000AFF3008000210A2206F1240709E0B0FB87
:10045000F2FCB0FBF2F302FB1C003030785418467B
:10046000491C0028F3D123462A463046BDE8F04116
:1004700000F085B8000000002D0000002B000000F7
:100480002000000070B504460D4621461068AFF309
:1004900000802188090502D50F4A7A4402E00E4AFD
:1004A0007A440E32002104F1240305E000F00F0627
:1004B0000009965D5E54491C0028F7D1207800237E
:1004C000000704D5702D02D009B102231132204655
:1004D000BDE8704000F053B8248C0000032A40F2BD
:1004E000308010F0030C00F0158011F8013BBCF1D6
:1004F000020F624498BF11F801CB00F8013B38BFEE
:1005000011F8013BA2F1040298BF00F801CB38BFFB
:1005100000F8013B11F0030300F0CA80083AC0F074
:10052000088051F8043B083A51F804CBA0E80810C1
:10053000F5E7121D5CBF51F8043B40F8043BAFF3F4
:100540000080D20724BF11F8013B11F801CB48BF4E
:1005500011F8012B24BF00F8013B00F801CB48BF84
:1005600000F8012B704702F0FF0343EA032242EA3E
:10057000024200F0D1B870477047704770472DE9CC
:10058000F0470D4699469246044600F1240801685A
:10059000880604D5E06921F01001216000E0012007
:1005A000A84201DD471B00E00027A1697A1902EB90
:1005B0000900081AA0612078C00602D42046AFF3D3
:1005C0000080002608E0D4E901211AF806009047CF
:1005D000206A401C761C20624E45F4DB2078C00661
:1005E0000AD52046AFF3008006E0D4E9012130208F
:1005F0009047206A401C2062381EA7F10107F4DCF6
:1006000007E0D4E9012118F805009047206A401C52
:100610002062281EA5F10105F3DC2046AFF300801F
:100620002078000602D50220BDE8F0870120FBE714
:1006300001694A1C02610878704700B58FB0CDE9A6
:1006400001310021059105497944CDE90310114696
:100650006846FFF77DFE0FB000BD0000E5FFFFFF1D
:1006600010B5436913B1AFF3008001E0FFF7A4FEBA
:10067000012010BD127800F124010A7000224A7096
:100680000122EDE711684FF0FF32E9E7074B70B543
:100690000D467B44FFF7D1FF0446284600F05CF886
:1006A00010B14FF0FF3070BD204670BD574C0000B8
:1006B00010B5203AC0F00B80B1E81850203AA0E8FD
:1006C0001850B1E81850A0E81850BFF4F5AF5FEA31
:1006D000027C24BFB1E81850A0E8185044BF18C9E4
:1006E00018C0BDE810405FEA827C24BF51F8043B8B
:1006F00040F8043B08BF7047D20728BF31F8023BDF
:1007000048BF11F8012B28BF20F8023B48BF00F872
:10071000012B70474FF000020429C0F0128010F046
:10072000030C00F01F80CCF1040CBCF1020F18BFC9
:1007300000F8012BA8BF20F8022BA1EB0C0100F060
:1007400011B85FEAC17C24BF00F8012B00F8012B2F
:1007500048BF00F8012B7047007B00F08000704715
:100760004FF0000200B5134694469646203922BF4A
:10077000A0E80C50A0E80C50B1F12001BFF4F7AF95
:10078000090728BFA0E80C5048BF0CC05DF804EB77
:10079000890028BF40F8042B08BF704748BF20F8E5
:1007A000022B11F0804F18BF00F8012B70477546DF
:1007B00000F02CF8AE4605006946534620F00700CD
:1007C000854618B020B5FFF7A3FDBDE820404FF0E7
:1007D00000064FF000074FF000084FF0000B21F02B
:1007E0000701AC46ACE8C009ACE8C009ACE8C009F8
:1007F000ACE8C0098D46704710B50446AFF30080E1
:100800002046BDE81040FFF713BD000000487047C8
:1008100014550020FEE7704710B5142004F058FD71
:1008200010210D4800F04EF980B90C48006806F020
:1008300013FE04460AA0FFF77FFD012C06D10D49E7
:1008400020070860BFF34F8FBFF36F8FBDE81040E4
:10085000102000F039B80000001002400C00002009
:10086000BBD6B8B4C8CECEF132B5C4D4CBD0D0212B
:100870000D0A000004ED00E03EB500F02DF9012165
:10088000880304F0ADFA0421084604F0FDFA1020B4
:10089000002500908DF804500C208DF805000124EF
:1008A0008DF80640684600F015F80A208DF808001B
:1008B00006208DF809008DF80A508DF80B4002A82B
:1008C00004F03AFA3EBD000001490860704700009C
:1008D000143C014030B51A4A8379016853B3136858
:1008E0008B431360111D0B680468A3430B600179EF
:1008F00011440B68046823430B60114B08331968DB
:100900000468A14319601C1D21680568A943216082
:100910004179102905D011440A68006802430A6031
:1009200030BD1968026811431960216800680143ED
:10093000216030BD0079104402688A43026030BDF6
:10094000003C01408000A0F1C0400029016802D0B5
:1009500041F0010101E0024A1140016070470000CE
:10096000FEFF0F0010B5D0E901121143D0E90323B7
:100970001A4311434269114382691143C269114309
:10098000026A1143426A1143826A1143C26A1143E7
:10099000026B114302689200A2F1C04211608168AB
:1009A000082907D101688900A1F1C0410A6842F015
:1009B00040020A60416BD1E9002342EA03128B68CE
:1009C0008C891B0243EA04431A430B8A42EA03520E
:1009D0000B7D896942EA03620A4301688900A1F13B
:1009E000C0414A60C16AB1F5804F08D000686FF01D
:1009F00070418000A0F1C040C0F8041110BD816BAF
:100A0000D1E9002342EA03128B680C8A1B0243EAF5
:100A100004531A430B7D896942EA036200680A4362
:100A20008000A0F1C040C0F8042110BDF0B5002244
:100A300001274FF0030C0B6807FA02F52B40AB427D
:100A40002CD1066853000CFA03F4A64306600E7915
:100A5000D0F800E09E4046EA0E0606600E79012EB0
:100A600001D0022E12D18668A64386604E79D0F856
:100A700008E09E4046EA0E0686604668AE43466041
:100A800045688E799640B6B235434560C568A54342
:100A9000C560CC799C40C3681C43C460521C102ABA
:100AA000C9D3F0BD4B07DB0E9A40C90810B500EB67
:100AB0008100016A0F249C40A1430162016A114335
:100AC000016210BD0246002012690A4200D00120D6
:100AD000704701837047FEE71CB50121112004F027
:100AE00067F91C20009000208DF8040003208DF889
:100AF000050001248DF8074069460648FFF796FF78
:100B000002208DF80700009469460348FFF78EFF26
:100B10001CBD000000100240000002402DE9F04121
:100B20002E4C2F4F2F4D012608B1267001E0207862
:100B3000A0B110212846FFF7C5FFB0B10821284613
:100B4000FFF7C0FF88B104212846FFF7BBFF60B163
:100B500001213846FFF7B6FF012806D010212846AC
:100B6000FFF7B0FF012824D035E00A2004F07AFB1B
:100B70000020207010212846FFF7A4FF80B1082133
:100B80002846FFF79FFF70B104212846FFF79AFF20
:100B900058B101213846FFF795FF012807D01AE028
:100BA0000120BDE8F0810220FBE70320F9E70420E3
:100BB000F7E708212846FFF785FF01280BD104211C
:100BC0002846FFF77FFF012805D101213846FFF7AE
:100BD00079FF00B926700020E3E7000060000020E4
:100BE00000000240001002402DE9F043184F064675
:100BF000002438887D884543B888A0F5D041043961
:100C000002D1B879012808D00021084603F0CEFEB1
:100C100004F060F84FF0D84016E00020B8714FF0B3
:100C20002A09A7F80A904FF02B08A7F80C80014674
:100C300003F0BCFE0120B871A7F80A80A7F80C9059
:100C4000E6E7A0F88060641CAC42FAD3BDE8F0830C
:100C5000F00000202DE9F04F4A492A232B248988EF
:100C600045F2105A4FF4305B4FF4285E4FF448754C
:100C70004FF0F00C49F241394FF4A07745F21036AD
:100C80004FF4F07280B13F484FF00108494580F8B9
:100C900006800780A0F802C001D0B1423ED12C25C9
:100CA00005814381848157E036484FF0000849456B
:100CB00080F80680A0F800C0478006D0A1F5D04C8F
:100CC000BCF1040C01D0B1420CD12C25058143812B
:100CD000A1F5D0438481043B01D0B14244D10780C7
:100CE000428041E0514507D1A0F808B0A0F80AE0E1
:100CF0004FF42C5181810EE0A1F5C856633E06D019
:100D00002221018120214181212181812CE02C217E
:100D10000181448183810280458025E0A1F5D04C8A
:100D2000BCF1040C09D051450BD1A0F808B0A0F8D3
:100D30000AE04FF42C53838121E02C250581448166
:100D400009E0A1F5C85CBCF1630C12D02223038139
:100D50002123438120238381A1F5D043043B01D08B
:100D6000B14201D102804780BDE8F04F002003F07E
:100D70001BBD4FF02C0CA0F808C043818481058076
:100D80004280E9E7F00000202DE9FE4F0026A2EBAB
:100D9000000882465F1A701E35468946B8F1000F7A
:100DA00002DD4FF0010102E003D14FF0000101919B
:100DB00002E0C8F100080190002F02DD4FF00100B1
:100DC00002E003D14FF00000009002E0C7F10007FD
:100DD00000904046B84501DD044600E03C46601CFA
:100DE0004FF0000B029015E01FFA89F11FFA8AF00C
:100DF00000F016F846443D44A64202DD0199361B38
:100E00008A44A54202DD00992D1B89440BF10100A3
:100E10001FFA80FB02998B45E6DDBDE8FE8F0000DE
:100E200000B503F0C3FD03F055FF03484FF0D84170
:100E30000088A1F8800000BD5C000020F0B51C46D1
:100E400015460E4607460B46FFF79EFF3A462346D9
:100E500031461046FFF798FF23462A461946384682
:100E6000FFF792FF2A4623463146BDE8F040104680
:100E7000FFF78ABF2DE9F043414D91460C460246EB
:100E8000060AA9882846A1F5134340894FEA142889
:100E9000413B16D0A1F5A643103B12D0B3F5007329
:100EA00013D02E46A1F5C857B3793688B61A761EE8
:100EB000633F23D0A1F5D047043F3AD0012B4DD05A
:100EC0004DE003F0FAFE304639E003F0F6FE30461E
:100ED00003F0E7FE6889401C80B203F0EEFED0B25A
:100EE00003F0DFFEA88903F0E8FE404603F0D9FED8
:100EF000A889401C80B203F0E0FE2BE003B9B2B237
:100F000003F0DBFE160A304603F0CBFED0B203F04E
:100F1000C8FE304603F0C5FED0B203F0C2FEA88979
:100F200003F0CBFE404603F0BCFEE0B203F0B9FE96
:100F30000DE0012B00D1B2B203F0BFFE100A03F0A6
:100F4000B0FED0B203F0ADFEA88903F0B6FE404675
:100F500003F0A7FEE0B203F0A4FE07E0B2B2114630
:100F600003F0C2FEA889214603F0BEFE4FF0D84030
:100F7000298920F87E1FA0F80290BDE8F0830000C8
:100F8000F00000202DE9F843204D1F468046AB8835
:100F9000089EA3F5D040043802D1A879012807D0D3
:100FA000A2EB0800401C85B20C464FF0D84929E05E
:100FB0002B880846991A0024AC713A462A24A3EBE0
:100FC00008036C812B27491E5B1EAF8189B29BB23F
:100FD0000096FFF7D7FF0120A8716F81AC81BDE8B3
:100FE000F8832146404603F0E1FC03F073FE002045
:100FF000494603E0A1F88060401C80B2A842F9D3C2
:10100000641CA4B2BC42ECD9E9E70000F000002067
:101010002DE9F04FA1B0002401217A201F9403F0A4
:10102000C7FE0121084603F0CFFE4FF400400090B8
:1010300001208DF804008DF8064002208DF805008F
:1010400001208DF807006946FE48FFF7EFFC4CF2DF
:101050003370009002208DF804008DF806400320C4
:101060008DF8050001208DF807006946F648FFF766
:10107000DDFC4FF68070009002208DF804008DF8A2
:10108000064003208DF805000120F04D8DF8070083
:1010900069462846FFF7CAFCA814009002208DF884
:1010A00004008DF8064003208DF805000120E84E6D
:1010B0008DF8070069463046FFF7B8FCA814009089
:1010C00002208DF804008DF8064003208DF80500FD
:1010D0000120E04F8DF8070069463846FFF7A6FC6F
:1010E0000C220021D848FFF7DDFC0C220121D64854
:1010F000FFF7D8FC0C220421D348FFF7D3FC0C22C5
:101100000521D148FFF7CEFC0C220821CE48FFF77D
:10111000C9FC0C220921CC48FFF7C4FC0C220A218F
:10112000C948FFF7BFFC0C220E21C748FFF7BAFCE5
:101130000C220F21C448FFF7B5FC0C2207212846DA
:10114000FFF7B0FC0C2208212846FFF7ABFC0C226D
:1011500009212846FFF7A6FC0C220A212846FFF7A2
:10116000A1FC0C220B212846FFF79CFC0C22114607
:101170002846FFF797FC0C220D212846FFF792FC2A
:101180000C220E212846FFF78DFC0C220F21284649
:10119000FFF788FC0C2211463046FFF783FC0C2237
:1011A00011463846FFF77EFC0F20CDE911043C20A4
:1011B000CDE91304159409201694CDE917400820B1
:1011C000CDE919401B941C940620CDE902041D941E
:1011D0001E941020CDE9044006940002CDE90A4097
:1011E000089407948000CDE90C40099411A8CDE93A
:1011F0000E4018A8109002A8FFF7B4FB01210620AA
:10120000FFF7A0FB322004F02DF80121002003F0AD
:101210006BFD322004F026F8002003F092FA8E4A8B
:101220004FF0204A4FF6FF7B908049F2413545F25E
:10123000103645F2105441F6631846F60407FF28AD
:1012400004D3584502D0B0F5134F74D1D32003F026
:1012500034FD03F06CFA908003F069FA908003F09B
:1012600066FA0BEA0020D946908003F060FA918874
:1012700008439080A8425ED0BF2003F01EFD03F01B
:1012800056FA908003F053FA908003F050FA908061
:1012900003F04DFA09EA0020908003F048FA9188A3
:1012A00008439080B84246D0D42003F006FD03F0F6
:1012B0003EFA908003F03BFA908003F038FA09EA96
:1012C0000020908003F033FA918808439080B04268
:1012D00031D04FF45A4003F0F0FC03F028FA90802C
:1012E0004FF45B4003F0E9FC03F021FA09EA002027
:1012F00090804FF45C4003F0E0FC03F018FA918812
:1013000008439080B0F5004F39D0A04213D0A120FF
:1013100003F0D3FC03F00BFA908003F008FA09EA1B
:101320000020908003F003FA91880843A0F5AE41B5
:101330009080613920D080B2A84205D0B04203D05D
:10134000A04201D040451CD1DAF81C11504621F0D2
:101350000F01CAF81C11DAF81C1121F47061CAF8E7
:101360001C11DAF81C1141F00301CAF81C11DAF85B
:101370001C1141F4007121E0A2F80480E4E794809C
:10138000E2E7B84203D0A0F54541053918D1DAF8B3
:101390001C11504621F00F01CAF81C11DAF81C117B
:1013A00021F47061CAF81C11DAF81C1141F00A012D
:1013B000CAF81C11DAF81C1141F44061C0F81C1184
:1013C0009146918825A0FEF7B7FFB9F80400A8421E
:1013D0007DD1CF2003F071FC002003F062FCC1201E
:1013E00003F05FFC302003F05CFCED2003F065FCB3
:1013F000642003F056FC032003F053FC122003F09A
:1014000050FC812003F04DFCE82003F056FC8520C1
:1014100003F047FC102003F044FC7A2003F041FC69
:10142000CB2003F04AFC392003F03BFC2C2003F0D6
:1014300038FC002003F035FC342003F032FC02209D
:1014400014E0000000040240000C024000100240C2
:101450000014024000180240F0000020204C4344D9
:101460002049443A25780D0A0000000003F019FCD9
:10147000F72003F022FC202003F013FCEA2003F005
:101480001CFC002003F00DFC002003F00AFCC0202F
:1014900003F013FC1B2003F004FCC12003F00DFC3F
:1014A000012003F0FEFBC52003F007FC302003F011
:1014B000F8FB302003F0F5FBC72003F0FEFBB7205C
:1014C00003F0EFFB362003F0F8FB482000E0A7E034
:1014D00003F0E7FB3A2003F0F0FB552003F0E1FBBB
:1014E000B12003F0EAFB002003F0DBFB1A2003F03D
:1014F000D8FBB62003F0E1FB0A2003F0D2FBA220C8
:1015000003F0CFFBF22003F0D8FB002003F0C9FB6F
:10151000262003F0D2FB012003F0C3FBE02003F000
:10152000CCFB0F2003F0BDFB2A2003F0BAFB2820E0
:1015300003F0B7FB082003F0B4FB0E2003F0B1FB6F
:10154000082003F0AEFB542003F0ABFBA92003F00E
:10155000A8FB432003F0A5FB0A2003F0A2FB0F2009
:1015600003F09FFB002003F09CFB002003F099FB9D
:10157000002003F096FB002003F093FBE12003F032
:101580009CFB002003F08DFB152003F08AFB172045
:1015900003F087FB072003F084FB112003F081FB9D
:1015A000062003F07EFB2B2003F07BFB562003F08C
:1015B00078FB3C2003F075FB052003F072FB102044
:1015C00003F06FFB0F2003F06CFB3F2003F069FB7F
:1015D0003F2003F066FB0F2003F063FB2B2003F09A
:1015E0006CFB002003F05DFB002003F05AFB0120A0
:1015F00003F057FB3F2003F054FB2A2003F05DFB70
:10160000002003F04EFB002003F04BFB002003F012
:1016100048FBEF2003F045FB112003F04EFBA5E053
:10162000B8427CD1112003F048FB142003F01AFECD
:10163000D02003F042FB072003F033FB422003F0ED
:1016400030FB1D2003F02DFBD12003F036FB0020E2
:1016500003F027FB1A2003F024FB092003F021FBF1
:10166000D22003F02AFB012003F01BFB222003F011
:1016700018FBC02003F021FB102003F012FB3B20DD
:1016800003F00FFB002003F00CFB022003F009FB2A
:10169000112003F006FBC52003F00FFB032003F02D
:1016A00000FBC82003F009FB002003F0FAFA252014
:1016B00003F0F7FA212003F0F4FA052003F0F1FA21
:1016C000002003F0EEFA0A2003F0EBFA652003F0A5
:1016D000E8FA252003F0E5FA772003F0E2FA50203B
:1016E00003F0DFFA0F2003F0DCFA002003F0D9FA50
:1016F000F82003F0E2FA012003F0D3FAFE2003F011
:10170000DCFA002003F0CDFA022003F0CAFA202010
:1017100003F0D3FA362003F0D0FA082000E02BE0E3
:1017200003F0BFFA3A2003F0C8FA552003F0B9FAE3
:101730002B2003F0C2FA002003F0B3FA002003F0DC
:10174000B0FA012003F0ADFA3F2003F0AAFA2A20F4
:1017500003F0B3FA002003F0A4FA002003F0A1FA8A
:10176000012003F09EFADF2003F09BFA782003F0BB
:1017700079FD292001F0FBBEB0427CD1ED2003F0C1
:101780009CFA012003F08DFAFE2003F08AFAEE2085
:1017900003F093FADE2003F084FA212003F081FAAB
:1017A000F12003F08AFA012003F07BFADF2003F036
:1017B00084FA102003F075FAC42003F07EFA8F201B
:1017C00003F06FFAC62003F078FA002003F069FAFC
:1017D000E22003F066FAE22003F063FAE22003F06D
:1017E00060FABF2003F069FAAA2003F05AFAB02089
:1017F00003F063FA0D2003F054FA002003F051FACD
:101800000D2003F04EFA002003F04BFA112003F0F4
:1018100048FA002003F045FA192003F042FA0020AC
:1018200003F03FFA212003F03CFA002003F039FADC
:101830002D2003F036FA002003F033FA3D2003F0A8
:1018400030FA002003F02DFA5D2003F02AFA002080
:1018500003F027FA5D2003F024FA002003F021FAB8
:10186000B12003F02AFA802003F01BFA002003F0D5
:1018700018FA8B2000E0FCE303F013FA002003F0D9
:1018800010FA962003F00DFA002003F00AFAB220B5
:1018900003F013FA002003F004FA002003F001FA29
:1018A000022003F0FEF9002003F0FBF9032003F00F
:1018B000F8F9002003F0F5F9B32003F0FEF9002059
:1018C00003F0EFF9002003F0ECF9002003F0E9F950
:1018D000002003F0E6F9002003F0E3F9002003F014
:1018E000E0F9002003F0DDF9002003F0DAF9002030
:1018F00003F0D7F9002003F0D4F9002003F0D1F968
:10190000002003F0CEF9002003F0CBF9002003F013
:10191000C8F9002003F0C5F9002003F0C2F9002047
:1019200003F0BFF9002003F0BCF9002003F0B9F97F
:10193000002003F0B6F9002003F0B3F9002003F013
:10194000B0F9002003F0ADF9002003F0AAF9B420AB
:1019500003F0B3F98B2003F0A4F9002003F0A1F900
:10196000962003F09EF9002003F09BF9A12003F0DC
:1019700098F9002003F095F9B52003F09EF90220B4
:1019800003F08FF9002003F08CF9032003F089F9AC
:10199000002003F086F9042003F083F9002003F00F
:1019A00080F9B62003F089F9002003F07AF90020CD
:1019B00003F077F9B72003F080F9002003F071F904
:1019C000002003F06EF93F2003F06BF9002003F0D4
:1019D00068F95E2003F065F9002003F062F96420E5
:1019E00003F05FF9002003F05CF98C2003F059F953
:1019F000002003F056F9AC2003F053F9002003F067
:101A000050F9DC2003F04DF9002003F04AF9702072
:101A100003F047F9002003F044F9902003F041F966
:101A2000002003F03EF9EB2003F03BF9002003F027
:101A300038F9DC2003F035F9002003F032F9B82042
:101A400003F03BF9002003F02CF9002003F029F902
:101A5000002003F026F9002003F023F9002003F012
:101A600020F9002003F01DF9002003F01AF90020EE
:101A700003F017F9BA2003F020F9242003F011F93C
:101A8000002003F00EF9002003F00BF9002003F012
:101A900008F9C12003F011F9202003F002F9002019
:101AA00003F0FFF8542003F0FCF8002003F0F9F8ED
:101AB000FF2003F0F6F8002003F0F3F8C22003F053
:101AC000FCF80A2003F0EDF8002003F0EAF8042007
:101AD00003F0E7F8002003F0E4F8C32003F0EDF88A
:101AE0003C2003F0DEF8002003F0DBF83A2003F09E
:101AF000D8F8002003F0D5F8392003F0D2F8002000
:101B000003F0CFF8372003F0CCF8002003F0C9F839
:101B10003C2003F0C6F8002003F0C3F8362003F0A1
:101B2000C0F8002003F0BDF8322003F0BAF800201E
:101B300003F0B7F82F2003F0B4F8002003F0B1F859
:101B40002C2003F0AEF8002003F0ABF8292003F0BE
:101B5000A8F8002003F0A5F8262003F0A2F8002042
:101B600003F09FF8242003F09CF8002003F099F87C
:101B7000242003F096F8002003F093F8232003F0CC
:101B800090F8002003F08DF83C2003F08AF8002044
:101B900003F087F8362003F084F8002003F081F882
:101BA000322003F07EF8002003F07BF82F2003F0B2
:101BB00078F8002003F075F82C2003F072F800206C
:101BC00003F06FF8292003F06CF8002003F069F8A7
:101BD000262003F066F8002003F063F8242003F0C9
:101BE00060F8002003F05DF8242003F05AF800208C
:101BF00003F057F8232003F054F8002003F051F8C5
:101C0000C42003F05AF8622003F04BF8002003F0E0
:101C100048F8052003F045F8002003F042F884203E
:101C200003F03FF8002003F03CF8F02003F039F80F
:101C3000002003F036F8182003F033F8002003F0FA
:101C400030F8A42003F02DF8002003F02AF8182023
:101C500003F027F8002003F024F8502003F021F8C7
:101C6000002003F01EF80C2003F01BF8002003F006
:101C700018F8172003F015F8002003F012F895204B
:101C800003F00FF8002003F00CF8F32003F009F83C
:101C9000002003F006F8E62003F003F8002003F02C
:101CA00000F8C52003F009F8322002F0FAFF002006
:101CB00002F0F7FF442002F0F4FF002002F0F1FFF1
:101CC000652002F0EEFF002002F0EBFF762002F02C
:101CD000E8FF002002F0E5FF882002F0E2FF00208C
:101CE00002F0DFFFC62002F0E8FF202002F0D9FF5B
:101CF000002002F0D6FF172002F0D3FF002002F0F0
:101D0000D0FF012002F0CDFF002002F0CAFFC72063
:101D100002F0D3FF002002F0C4FF002002F0C1FF58
:101D2000002002F0BEFF002002F0BBFFC82002F03E
:101D3000C4FF002002F0B5FF002002F0B2FF002037
:101D400002F0AFFF002002F0ACFFC92002F0B5FFA7
:101D5000002002F0A6FF002002F0A3FF002002F006
:101D6000A0FF002002F09DFF002002F09AFF00205B
:101D700002F097FF002002F094FF002002F091FF94
:101D8000002002F08EFF002002F08BFF002002F006
:101D900088FF002002F085FF002002F082FF002073
:101DA00002F07FFF002002F07CFF002002F079FFAC
:101DB000E02002F082FF162002F073FF002002F004
:101DC00070FF1C2002F06DFF002002F06AFF21204E
:101DD00002F067FF002002F064FF362002F061FF8E
:101DE000002002F05EFF462002F05BFF002002F0C0
:101DF00058FF522002F055FF002002F052FF6420ED
:101E000002F04FFF002002F04CFF7A2002F049FF61
:101E1000002002F046FF8B2002F043FF002002F07A
:101E200040FF992002F03DFF002002F03AFFA82079
:101E300002F037FF002002F034FFB92002F031FF3A
:101E4000002002F02EFFC42002F02BFF002002F041
:101E500028FFCA2002F025FF002002F022FFD22036
:101E600002F01FFF002002F01CFFD92002F019FF32
:101E7000002002F016FFE02002F013FF002002F025
:101E800010FFF32002F00DFF002002F00AFFE12016
:101E900002F013FF162002F004FF002002F001FF01
:101EA0001C2002F0FEFE002002F0FBFE222002F0C9
:101EB000F8FE002002F0F5FE362002F0F2FE0020CF
:101EC00002F0EFFE452002F0ECFE002002F0E9FEF9
:101ED000522002F0E6FE002002F0E3FE642002F051
:101EE000E0FE002002F0DDFE7A2002F0DAFE0020A3
:101EF00002F0D7FE8B2002F0D4FE002002F0D1FECB
:101F0000992002F0CEFE002002F0CBFEA82002F0C5
:101F1000C8FE002002F0C5FEB92002F0C2FE00207B
:101F200002F0BFFEC42002F0BCFE002002F0B9FEA9
:101F3000CA2002F0B6FE002002F0B3FED22002F06A
:101F4000B0FE002002F0ADFED82002F0AAFE002074
:101F500002F0A7FEE02002F0A4FE002002F0A1FEA5
:101F6000F32002F09EFE002002F09BFEE22002F031
:101F7000A4FE052002F095FE002002F092FE0B2048
:101F800002F08FFE002002F08CFE1B2002F089FE82
:101F9000002002F086FE342002F083FE002002F0D2
:101FA00080FE442002F07DFE002002F07AFE4F20E9
:101FB00002F077FE002002F074FE612002F071FE54
:101FC000002002F06EFE792002F06BFE002002F08D
:101FD00068FE882002F065FE002002F062FE972075
:101FE00002F05FFE002002F05CFEA62002F059FE27
:101FF000002002F056FEB72002F053FE002002F04F
:1020000050FEC22002F04DFE002002F04AFEC72022
:1020100002F047FE002002F044FED12002F041FE13
:10202000002002F03EFED62002F03BFE002002F02F
:1020300038FEDD2002F035FE002002F032FEF320F3
:1020400002F02FFE002002F02CFEE32002F035FE0D
:10205000052002F026FE002002F023FE0A2002F0F6
:1020600020FE002002F01DFE1C2002F01AFE0020BF
:1020700000E0FDE202F015FE332002F012FE002027
:1020800002F00FFE442002F00CFE002002F009FED8
:10209000502002F006FE002002F003FE622002F053
:1020A00000FE002002F0FDFD782002F0FAFD002085
:1020B00002F0F7FD882002F0F4FD002002F0F1FDAF
:1020C000972002F0EEFD002002F0EBFDA62002F0CA
:1020D000E8FD002002F0E5FDB72002F0E2FD00205F
:1020E00002F0DFFDC22002F0DCFD002002F0D9FD8D
:1020F000C72002F0D6FD002002F0D3FDD12002F06F
:10210000D0FD002002F0CDFDD52002F0CAFD002058
:1021100002F0C7FDDD2002F0C4FD002002F0C1FD89
:10212000F32002F0BEFD002002F0BBFDE42002F02F
:10213000C4FD012002F0B5FD002002F0B2FD012037
:1021400002F0AFFD002002F0ACFD022002F0A9FD7C
:10215000002002F0A6FD2A2002F0A3FD002002F0DC
:10216000A0FD3C2002F09DFD002002F09AFD4B20D6
:1021700002F097FD002002F094FD5D2002F091FD39
:10218000002002F08EFD742002F08BFD002002F092
:1021900088FD842002F085FD002002F082FD93205E
:1021A00002F07FFD002002F07CFDA22002F079FD0C
:1021B000002002F076FDB32002F073FD002002F053
:1021C00070FDBE2002F06DFD002002F06AFDC4200B
:1021D00002F067FD002002F064FDCD2002F061FDF9
:1021E000002002F05EFDD32002F05BFD002002F033
:1021F00058FDDD2002F055FD002002F052FDF320D5
:1022000002F04FFD002002F04CFDE52002F055FDEC
:10221000002002F046FD002002F043FD002002F005
:1022200040FD002002F03DFD022002F03AFD0020BA
:1022300002F037FD292002F034FD002002F031FDCC
:102240003C2002F02EFD002002F02BFD4B2002F07E
:1022500028FD002002F025FD5D2002F022FD002077
:1022600002F01FFD742002F01CFD002002F019FD99
:10227000842002F016FD002002F013FD932002F0EE
:1022800010FD002002F00DFDA22002F00AFD00204A
:1022900002F007FDB32002F004FD002002F001FD72
:1022A000BE2002F0FEFC002002F0FBFCC42002F085
:1022B000F8FC002002F0F5FCCD2002F0F2FC00203A
:1022C00002F0EFFCD32002F0ECFC002002F0E9FC6D
:1022D000DC2002F0E6FC002002F0E3FCF32002F038
:1022E000E0FC002002F0DDFCE62002F0E6FC11201C
:1022F00002F0D7FC002002F0D4FC342002F0D1FC24
:10230000002002F0CEFC562002F0CBFC002002F0B0
:10231000C8FC762002F0C5FC002002F0C2FC772049
:1023200002F0BFFC002002F0BCFC662002F0B9FC09
:10233000002002F0B6FC882002F0B3FC002002F07E
:10234000B0FC992002F0ADFC002002F0AAFCBB20FA
:1023500002F0A7FC002002F0A4FC992002F0A1FCEE
:10236000002002F09EFC662002F09BFC002002F0A0
:1023700098FC552002F095FC002002F092FC5520BC
:1023800002F08FFC002002F08CFC452002F089FC5A
:10239000002002F086FC432002F083FC002002F0C3
:1023A00080FC442002F07DFC002002F07AFCE72053
:1023B00002F083FC322002F074FC002002F071FC79
:1023C000552002F06EFC002002F06BFC762002F03B
:1023D00068FC002002F065FC662002F062FC002030
:1023E00002F05FFC672002F05CFC002002F059FC68
:1023F000672002F056FC002002F053FC872002F018
:1024000050FC002002F04DFC992002F04AFC002014
:1024100002F047FCBB2002F044FC002002F041FC2B
:10242000992002F03EFC002002F03BFC772002F0F5
:1024300038FC002002F035FC442002F032FC002081
:1024400002F02FFC562002F02CFC002002F029FCA8
:10245000232002F026FC002002F023FC332002F0AF
:1024600020FC002002F01DFC452002F01AFC002098
:1024700002F017FCE82002F020FC002002F011FC22
:10248000002002F00EFC992002F00BFC002002F06C
:1024900008FC872002F005FC002002F002FC8820E6
:1024A00002F0FFFB002002F0FCFB772002F0F9FBBA
:1024B000002002F0F6FB662002F0F3FB002002F0A1
:1024C000F0FB882002F0EDFB002002F0EAFBAA20DE
:1024D00002F0E7FB002002F0E4FBBB2002F0E1FB8E
:1024E000002002F0DEFB992002F0DBFB002002F06E
:1024F000D8FB662002F0D5FB002002F0D2FB55206D
:1025000002F0CFFB002002F0CCFB552002F0C9FB0B
:10251000002002F0C6FB442002F0C3FB002002F0C2
:10252000C0FB442002F0BDFB002002F0BAFB5520A6
:1025300002F0B7FB002002F0B4FBE92002F0BDFB83
:10254000AA2002F0AEFB002002F0ABFB002002F05C
:10255000A8FB002002F0A5FB002002F0AEFBAA20A1
:1025600002F09FFBCF2002F0A8FB002002F099FBB5
:10257000002002F096FB002002F093FB002002F006
:1025800090FB002002F08DFB002002F08AFB00206F
:1025900002F087FB002002F084FB002002F081FBA8
:1025A000002002F07EFB002002F07BFB002002F006
:1025B00078FB002002F075FB002002F072FB002087
:1025C00002F06FFB002002F06CFB002002F069FBC0
:1025D000F02002F072FB002002F063FB502002F0BA
:1025E00060FB002002F05DFB002002F05AFB00209F
:1025F00002F057FBF32002F060FB002002F051FBD9
:10260000F92002F05AFB062002F04BFB102002F0EA
:1026100048FB292002F045FB002002F042FB3A2053
:1026200002F04BFB552002F03CFB112002F045FB71
:10263000642002F017FE292002F03FFB352002F053
:102640003CFB002002F02DFB512002F036FBFF2066
:1026500002F027FB532002F030FB2C2002F021FB7C
:10266000552002F02AFB822002F01BFB2C20FCE309
:10267000A0427DD14FF470435521184602F034FB3F
:102680004FF20104AA21204602F02EFB651C5221C4
:10269000284602F029FBA61C0821304602F024FB44
:1026A000E71C0121384602F01FFB0D214FF430409A
:1026B00002F01AFB0D214BF2010002F015FB0D2177
:1026C0004BF2020002F010FB4FF436483421404632
:1026D00002F00AFB34214BF2016002F005FB3421C9
:1026E0004BF2026002F000FB4FF431490D214846E5
:1026F00002F0FAFA4BF2011A0D21504602F0F4FAF8
:102700000D214BF2021002F0EFFA34214FF4374062
:1027100002F0EAFA34214BF2017002F0E5FA3421BA
:102720004BF2027002F0E0FA00214FF4324002F066
:10273000DBFA00214BF2012002F0D6FA00214BF225
:10274000022002F0D1FA24214FF4384002F0CCFAF2
:1027500024214BF6010002F0C7FA24214BF60200B7
:1027600002F0C2FA01214FF43F4002F0BDFA00E04E
:10277000FEE30F214FF4334002F0B6FA0F214BF283
:10278000013002F0B1FA0F214BF2023002F0ACFA44
:1027900034214FF4394002F0A7FA34214BF60110EE
:1027A00002F0A2FA34214BF6021002F09DFA082141
:1027B0004FF4354002F098FA08214BF2015002F034
:1027C00093FA08214BF2025002F08EFA03214FF4E3
:1027D000424002F089FA24214FF43A4002F084FA90
:1027E00024214BF6012002F07FFA24214BF602202F
:1027F00002F07AFA00214FF43C4002F075FA782199
:102800004BF6014002F070FA00214BF6024002F054
:102810006BFA00214FF43D4002F066FA78214BF646
:10282000015002F061FA00214BF6025002F05CFA0E
:1028300000214FF43E4002F057FA64214BF601604C
:1028400002F052FA00214FF4514002F04DFA3321C8
:102850004DF2011002F048FA00214DF2021002F090
:1028600043FA34214DF2031002F03EFA00214DF2FA
:10287000041002F039FA3A214DF2051002F034FA50
:1028800000214DF2061002F02FFA4A214DF20710F6
:1028900002F02AFA00214DF2081002F025FA5C211C
:1028A0004DF2091002F020FA00214DF20A1002F058
:1028B0001BFA81214DF20B1002F016FA00214DF2A5
:1028C0000C1002F011FAA6214DF20D1002F00CFAD4
:1028D00000214DF20E1002F007FAE5214DF20F1023
:1028E00002F002FA01214DF2101002F0FDF913215D
:1028F0004DF2111002F0F8F901214DF2121002F020
:10290000F3F954214DF2131002F0EEF901214DF2CA
:10291000141002F0E9F982214DF2151002F0E4F9E9
:1029200001214DF2161002F0DFF9CA214DF2171005
:1029300002F0DAF902214DF2181002F0D5F9002167
:102940004DF2191002F0D0F902214DF21A1002F0E6
:10295000CBF901214DF21B1002F0C6F902214DF214
:102960001C1002F0C1F934214DF21D1002F0BCF927
:1029700002214DF21E1002F0B7F967214DF21F102F
:1029800002F0B2F902214DF2201002F0ADF98421DB
:102990004DF2211002F0A8F902214DF2221002F0AE
:1029A000A3F9A4214DF2231002F09EF902214DF269
:1029B000241002F099F9B7214DF2251002F094F994
:1029C00002214DF2261002F08FF9CF214DF227108F
:1029D00002F08AF902214DF2281002F085F9DE2179
:1029E0004DF2291002F080F902214DF22A1002F076
:1029F0007BF9F2214DF22B1002F076F902214DF213
:102A00002C1002F071F9FE214DF22D1002F06CF93C
:102A100003214DF22E1002F067F910214DF22F1014
:102A200002F062F903214DF2301002F05DF933211A
:102A30004DF2311002F058F903214DF2321002F03C
:102A400053F96D214DF2331002F04EF900214FF48D
:102A5000524002F049F933214DF2012002F044F9CD
:102A600000214DF2022002F03FF934214DF2032003
:102A700002F03AF900214DF2042002F035F93A2132
:102A80004DF2052002F030F900214DF2062002F04F
:102A90002BF94A214DF2072002F026F900214DF2D0
:102AA000082002F021F95C214DF2092002F01CF906
:102AB00000214DF20A2002F017F981214DF20B207E
:102AC00002F012F900214DF20C2002F00DF9A621BE
:102AD0004DF20D2002F008F900214DF20E2002F017
:102AE00003F9E5214DF20F2002F0FEF801214DF22D
:102AF000102002F0F9F813214DF2112002F0F4F841
:102B000001214DF2122002F0EFF854214DF2132072
:102B100002F0EAF801214DF2142002F0E5F88221DA
:102B20004DF2152002F0E0F801214DF2162002F0DE
:102B3000DBF8CA214DF2172002F0D6F802214DF23F
:102B4000182002F0D1F800214DF2192002F0CCF843
:102B500002214DF21A2002F0C7F801214DF21B208C
:102B600002F0C2F802214DF21C2002F0BDF834211F
:102B70004DF21D2002F0B8F802214DF21E2002F0A5
:102B8000B3F867214DF21F2002F0AEF802214DF29A
:102B9000202002F0A9F884214DF2212002F0A4F8AF
:102BA00002214DF2222002F09FF8A4214DF22320B1
:102BB00002F09AF802214DF2242002F095F8B72194
:102BC0004DF2252002F090F802214DF2262002F06D
:102BD0008BF8CF214DF2272002F086F802214DF22A
:102BE000282002F081F8DE214DF2292002F07CF845
:102BF00002214DF22A2002F077F8F2214DF22B202B
:102C000002F072F802214DF22C2002F06DF8FE2144
:102C10004DF22D2002F068F803214DF22E2002F033
:102C200063F810214DF22F2002F05EF803214DF2DF
:102C3000302002F059F833214DF2312002F054F8DF
:102C400003214DF2322002F04FF86D214DF2332076
:102C500002F04AF800214FF4534002F045F83321C6
:102C60004DF2013002F040F800214DF2023002F046
:102C70003BF834214DF2033002F036F800214DF2DA
:102C8000043002F031F83A214DF2053002F02CF810
:102C900000214DF2063002F027F84A214DF20730AC
:102CA00002F022F800214DF2083002F01DF85C21FC
:102CB0004DF2093002F018F800214DF20A3002F00E
:102CC00013F881214DF20B3002F00EF800214DF285
:102CD0000C3002F009F8A6214DF20D3002F004F894
:102CE00000214DF20E3001F0FFFFE5214DF20F30D3
:102CF00001F0FAFF01214DF2103001F0F5FF132130
:102D00004DF2113001F0F0FF01214DF2123001F0CF
:102D1000EBFF54214DF2133001F0E6FF01214DF29B
:102D2000143001F0E1FF82214DF2153001F0DCFF9B
:102D300001214DF2163001F0D7FFCA214DF21730B4
:102D400001F0D2FF02214DF2183001F0CDFF002139
:102D50004DF2193001F0C8FF02214DF21A3001F096
:102D6000C3FF01214DF21B3001F0BEFF02214DF2E5
:102D70001C3001F0B9FF34214DF21D3001F0B4FFD9
:102D800002214DF21E3001F0AFFF67214DF21F30DE
:102D900001F0AAFF02214DF2203001F0A5FF8421AD
:102DA0004DF2213001F0A0FF02214DF2223001F05E
:102DB0009BFFA4214DF2233001F096FF02214DF23A
:102DC000243001F091FFB7214DF2253001F08CFF46
:102DD00002214DF2263001F087FFCF214DF227303E
:102DE00001F082FF02214DF2283001F07DFFDE214B
:102DF0004DF2293001F078FF02214DF22A3001F026
:102E000073FFF2214DF22B3001F06EFF02214DF2E3
:102E10002C3001F069FFFE214DF22D3001F064FFEE
:102E200003214DF22E3001F05FFF10214DF22F30C3
:102E300001F05AFF03214DF2303001F055FF3321EC
:102E40004DF2313001F050FF03214DF2323001F0EC
:102E50004BFF6D214DF2333001F046FF00214FF45E
:102E6000544001F041FF332100E080E34DF2014086
:102E700001F03AFF00214DF2024001F035FF34210C
:102E80004DF2034001F030FF00214DF2044001F00B
:102E90002BFF3A214DF2054001F026FF00214DF2B3
:102EA000064001F021FF4A214DF2074001F01CFFCE
:102EB00000214DF2084001F017FF5C214DF209405E
:102EC00001F012FF00214DF20A4001F00DFF8121B7
:102ED0004DF20B4001F008FF00214DF20C4001F0D3
:102EE00003FFA6214DF20D4001F0FEFE00214DF240
:102EF0000E4001F0F9FEE5214DF20F4001F0F4FE25
:102F000001214DF2104001F0EFFE13214DF211406E
:102F100001F0EAFE01214DF2124001F0E5FE5421DC
:102F20004DF2134001F0E0FE01214DF2144001F09A
:102F3000DBFE82214DF2154001F0D6FE01214DF25B
:102F4000164001F0D1FECA214DF2174001F0CCFE2F
:102F500002214DF2184001F0C7FE00214DF2194048
:102F600001F0C2FE02214DF21A4001F0BDFE00E068
:102F700000E301214DF21B4001F0B6FE02214DF2AB
:102F80001C4001F0B1FE34214DF21D4001F0ACFEB9
:102F900002214DF21E4001F0A7FE67214DF21F40B5
:102FA00001F0A2FE02214DF2204001F09DFE84219D
:102FB0004DF2214001F098FE02214DF2224001F035
:102FC00093FEA4214DF2234001F08EFE02214DF22A
:102FD000244001F089FEB7214DF2254001F084FE26
:102FE00002214DF2264001F07FFECF214DF2274015
:102FF00001F07AFE02214DF2284001F075FEDE213B
:103000004DF2294001F070FE02214DF22A4001F0FC
:103010006BFEF2214DF22B4001F066FE02214DF2D3
:103020002C4001F061FEFE214DF22D4001F05CFECE
:1030300003214DF22E4001F057FE10214DF22F409A
:1030400001F052FE03214DF2304001F04DFE3321DC
:103050004DF2314001F048FE03214DF2324001F0C3
:1030600043FE6D214DF2334001F03EFE00214FF44E
:10307000554001F039FE33214DF2015001F034FE8C
:1030800000214DF2025001F02FFE34214DF2035089
:1030900001F02AFE00214DF2045001F025FE3A21F4
:1030A0004DF2055001F020FE00214DF2065001F0D6
:1030B0001BFE4A214DF2075001F016FE00214DF291
:1030C000085001F011FE5C214DF2095001F00CFE98
:1030D00000214DF20A5001F007FE81214DF20B5004
:1030E00001F002FE00214DF20C5001F0FDFDA62181
:1030F0004DF20D5001F0F8FD00214DF20E5001F09F
:10310000F3FDE5214DF20F5001F0EEFD01214DF2EE
:10311000105001F0E9FD13214DF2115001F0E4FDD2
:1031200001214DF2125001F0DFFD54214DF21350F8
:1031300001F0DAFD01214DF2145001F0D5FD82219C
:103140004DF2155001F0D0FD01214DF2165001F065
:10315000CBFDCA214DF2175001F0C6FD02214DF200
:10316000185001F0C1FD00214DF2195001F0BCFDD5
:1031700002214DF21A5001F0B7FD01214DF21B5012
:1031800001F0B2FD02214DF21C5001F0ADFD3421E1
:103190004DF21D5001F0A8FD02214DF21E5001F02C
:1031A000A3FD67214DF21F5001F09EFD02214DF25B
:1031B000205001F099FD84214DF2215001F094FD41
:1031C00002214DF2225001F08FFDA4214DF2235037
:1031D00001F08AFD02214DF2245001F085FDB72156
:1031E0004DF2255001F080FD02214DF2265001F0F4
:1031F0007BFDCF214DF2275001F076FD02214DF2EB
:10320000285001F071FDDE214DF2295001F06CFDD6
:1032100002214DF22A5001F067FDF2214DF22B50B0
:1032200001F062FD02214DF22C5001F05DFDFE2106
:103230004DF22D5001F058FD03214DF22E5001F0BA
:1032400053FD10214DF22F5001F04EFD03214DF2A0
:10325000305001F049FD33214DF2315001F044FD71
:1032600003214DF2325001F03FFD6D214DF23350FC
:1032700001F03AFD00214FF4564001F035FD3321B5
:103280004DF2016001F030FD00214DF2026001F0CD
:103290002BFD34214DF2036001F026FD00214DF29B
:1032A000046001F021FD3A214DF2056001F01CFDA2
:1032B00000214DF2066001F017FD4A214DF2076032
:1032C00001F012FD00214DF2086001F00DFD5C21BE
:1032D0004DF2096001F008FD00214DF20A6001F095
:1032E00003FD81214DF20B6001F0FEFC00214DF247
:1032F0000C6001F0F9FCA6214DF20D6001F0F4FC28
:1033000000214DF20E6001F0EFFCE5214DF20F605F
:1033100001F0EAFC01214DF2106001F0E5FC1321FF
:103320004DF2116001F0E0FC01214DF2126001F05C
:10333000DBFC54214DF2136001F0D6FC01214DF26B
:10334000146001F0D1FC82214DF2156001F0CCFC3B
:1033500001214DF2166001F0C7FCCA214DF2176041
:1033600001F0C2FC02214DF2186001F0BDFC002109
:103370004DF2196001F0B8FC02214DF21A6001F023
:10338000B3FC01214DF21B6001F0AEFC02214DF2B5
:103390001C6001F0A9FC34214DF21D6001F0A4FC79
:1033A00002214DF21E6001F09FFC67214DF21F606B
:1033B00001F09AFC02214DF2206001F095FC84217D
:1033C0004DF2216001F090FC02214DF2226001F0EB
:1033D0008BFCA4214DF2236001F086FC02214DF20A
:1033E000246001F081FCB7214DF2256001F07CFCE6
:1033F00002214DF2266001F077FCCF214DF22760CB
:1034000001F072FC02214DF2286001F06DFCDE211A
:103410004DF2296001F068FC02214DF22A6001F0B2
:1034200063FCF2214DF22B6001F05EFC02214DF2B3
:103430002C6001F059FCFE214DF22D6001F054FC8E
:1034400003214DF22E6001F04FFC10214DF22F6050
:1034500001F04AFC03214DF2306001F045FC3321BC
:103460004DF2316001F040FC03214DF2326001F079
:103470003BFC6D214DF2336001F036FC55211846BE
:1034800001F032FCAA21204601F02EFC52212846F0
:1034900001F02AFC0821304601F026FC00213846C4
:1034A00001F022FCCC21484601F01EFC00215046D0
:1034B00001F01AFC0521404601F016FC70214FF482
:1034C000374001F011FC70214BF2017001F00CFC4F
:1034D00001214FF4384001F007FC03214BF60100B5
:1034E00001F002FC03214BF6020001F0FDFB032179
:1034F0004BF6030001F0F8FB02214FF43C4001F0D1
:10350000F3FB00214BF6014001F0EEFB00214BF6EE
:10351000024001F0E9FBD0214FF4494001F0E4FB07
:1035200002214CF6011001F0DFFB50214CF6021095
:1035300001F0DAFB50214CF6031001F0D5FB5021CD
:103540004CF6041001F0D0FB00214FF4545001F070
:10355000CBFB55214FF4685001F0C6FB4FF4885067
:1035600001F0ABFB782001F099FE4FF4245001F0FC
:10357000A4FBF3E0A0F513414FF480744FF4E0692D
:1035800040F2022A4FF4274625397CD040F20775D5
:10359000C91E79D04FF488774FF41C56083174D087
:1035A000113973D0A0F5A841083970D0A0F5A85101
:1035B0004FF4407705396BD0B1F5204169D0B1F5B2
:1035C000805167D0A0F58A4131397CD0091F7BD06A
:1035D0004045CED1E22001F070FB1D2001F061FBDF
:1035E000022001F05EFB042001F05BFB642001F08F
:1035F00055FEE02001F061FB012001F052FB0A20A2
:1036000001F030FEE02001F058FB032001F049FBFF
:103610000C2001F027FE012001F04FFB0A2001F0F1
:1036200021FEE62001F049FB2F2001F03AFBFF20AC
:1036300001F037FBFF2001F034FBB02001F03DFB2F
:10364000202001F02EFB002001F02BFB032001F0D5
:1036500028FB40F21F3001F024FB012001F021FB88
:1036600040F2DF1001F01DFB002001F01AFBB42036
:1036700001F023FB042001F014FB40F21F4001F095
:1036800010FB002007E076E041E1F9E1A0E275E3FC
:10369000FEE3FEE3FEE301F004FB2E2001F001FB5C
:1036A000002001F0FEFA002001F0FBFA002001F0FA
:1036B000F8FA002001F0F5FAB62001F0FEFA022037
:1036C00001F0EFFA01E0E6E3E6E34FF4037001F006
:1036D000E8FA002001F0E5FA172001F0E2FA1520DF
:1036E00001F0DFFA002001F0DCFA002001F0D9FA45
:1036F000F02001F0E2FA032001F0D3FA292001F0D2
:10370000DCFAD02001F0D9FA002001F0CAFABE207C
:1037100001F0D3FA052001F0C4FAFE2001F0C1FA4D
:10372000012001F0BEFA002001F0BBFA002001F0F8
:10373000B8FA002001F0B5FAB82001F0BEFA032073
:1037400001F0AFFA012001F0ACFABA2001F0B5FAAD
:10375000012001F0A6FA642000F0FEFF0020FDF732
:1037600079FAFF490120C1F8BC025846FDF73CFA3E
:1037700021B0BDE8F08F47F6F001E52001F0B4FA82
:103780002146012001F0B0FA4946022001F0ACFACE
:1037900041F23001032001F0A7FA0021042001F0DA
:1037A000A3FA5146082001F09FFA0021092001F0F8
:1037B0009BFA00210A2001F097FA00210C2001F069
:1037C00093FA00210D2001F08FFA00210F2001F063
:1037D0008BFA0021102001F087FA0721112001F057
:1037E00083FA0021122001F07FFA0021132001F05A
:1037F0007BFA0021072001F077FA41F29061102056
:1038000001F072FA40F22721112001F06DFA9D219A
:10381000122001F069FA4FF4C851132001F064FA44
:103820002521292001F060FA0D212B2001F05CFAFE
:103830000721302001F058FA40F20331312001F025
:1038400053FA0321322001F04FFA40F206213520CD
:1038500001F04AFA0821362001F046FA40F206410A
:10386000372001F041FA4FF44171382001F03CFA61
:103870000721392001F038FA40F202613C2001F0C2
:1038800033FA08213D2001F02FFA0021502001F0E9
:103890002BFAEF21512001F027FA0021522001F0EC
:1038A00023FA40F23F11532001F01EFA3146602006
:1038B00001F01AFA0121612001F016FA00216A20B4
:1038C00001F012FA0021802001F00EFA002181207F
:1038D00001F00AFA0021822001F006FA002183207B
:1038E00001F002FA0021842001F0FEF90021852078
:1038F00001F0FAF91021902001F0F6F94FF4C061BF
:10390000922001F0F1F940F233110720FEE341F279
:103910008F01EC2001F0E8F941F23421EF2001F0B1
:10392000E3F92146012001F0DFF94946022001F0C8
:10393000DBF941F23001032001F0D6F90021042027
:1039400001F0D2F95146082001F0CEF900210920FA
:1039500001F0CAF900210A2001F0C6F901210C206A
:1039600001F0C2F900210D2001F0BEF900210F2065
:1039700001F0BAF90021102001F0B6F90721112059
:1039800001F0B2F90021122001F0AEF9002113205C
:1039900001F0AAF90121072001F0A6F9322001F077
:1039A00061FC41F29041102001F09EF940F2272184
:1039B000112001F099F9322001F054FC8A211220E3
:1039C00001F092F9322001F04DFC4FF4D051132058
:1039D00001F08AF90621292001F086F90D212B201A
:1039E00001F082F9322001F03DFC0021202001F09D
:1039F0007BF90021212001F077F9322001F032FC1F
:103A00000021302001F070F940F20461312001F012
:103A10006BF940F20531322001F066F900213520C2
:103A200001F062F940F60941362001F05DF94FF4EA
:103A30000171372001F058F940F20131382001F0CE
:103A400053F92946392001F04FF900213C2001F0BB
:103A50004BF940F60A213D2001F046F9322001F0F1
:103A600001FC0021502001F03FF9EF21512001F02D
:103A70003BF90021522001F037F940F23F114EE1AD
:103A80000021084601F030F92146012001F02CF90F
:103A90004946022001F028F941F23001032001F0EB
:103AA00023F90021042001F01FF95146082001F0FC
:103AB0001BF90021092001F017F900210A2001F06B
:103AC00013F901210C2001F00FF900210D2001F064
:103AD0000BF900210F2001F007F9322001F0C2FBA1
:103AE00040F20111072001F0FFF8322001F0BAFB8B
:103AF0004FF48651102001F0F7F80721112001F052
:103B0000F3F83946122001F0EFF84FF4306113203A
:103B100001F0EAF80021292001F0E6F844F2100152
:103B20002B2001F0E1F80021502001F0DDF8EF2119
:103B3000512001F0D9F80021522001F0D5F840F2CF
:103B40003F11532001F0D0F83146602001F0CCF84D
:103B50000121612001F0C8F800216A2002E0000084
:103B60000080404201F0C0F80021802001F0BCF844
:103B70000021812001F0B8F80021822001F0B4F882
:103B80000021832001F0B0F80021842001F0ACF87E
:103B90000021852001F0A8F81021902001F0A4F860
:103BA0000021922001F0A0F80121932001F09CF85F
:103BB0003946952001F098F80021972001F094F8FB
:103BC0000021982001F090F840F27311072080E363
:103BD00041F21401E72001F087F82146012001F0AD
:103BE00083F84FF40071022001F07EF841F23801B1
:103BF000032001F079F85146082001F075F8002102
:103C0000092001F071F800210A2001F06DF800216F
:103C10000C2001F069F800210D2001F065F8002169
:103C20000F2001F061F80021102001F05DF807215C
:103C3000112001F059F80021122001F055F800215F
:103C4000132001F051F8C82001F00CFB41F2906103
:103C5000102001F049F840F22721112001F044F82A
:103C6000322001F0FFFA0C21122001F03DF8322041
:103C700001F0F8FA4FF40061132001F035F811213A
:103C8000292001F031F80B212B2001F02DF83220F2
:103C900001F0E8FA0021202001F026F840F23F135D
:103CA0001946212001F020F80021302001F01CF8F5
:103CB0004FF483742146312001F016F800213220A0
:103CC00001F012F84FF40171352001F00DF841F2C6
:103CD0000A61362001F008F82946372001F004F87F
:103CE0002146382001F000F82946392000F0FCFF79
:103CF00040F202413C2000F0F7FF40F60F413D202A
:103D000000F0F2FF0021502000F0EEFFEF215120E3
:103D100000F0EAFF0021522000F0E6FF1946532090
:103D200000F0E2FF3146602000F0DEFF012161205B
:103D300000F0DAFF00216A2000F0D6FF0021802089
:103D400000F0D2FF0021812000F0CEFF0021822070
:103D500000F0CAFF0021832000F0C6FF002184206C
:103D600000F0C2FF0021852000F0BEFF102190204E
:103D700000F0BAFF4FF4C0619220FCE3214601201D
:103D800000F0B2FF4946022000F0AEFF41F23001E0
:103D9000032000F0A9FF0021042000F0A5FF40F25D
:103DA0000721082000F0A0FF0021092000F09CFF5F
:103DB00000210A2000F098FF00210C2000F094FF61
:103DC00000210D2000F090FF00210F2000F08CFF5B
:103DD000142001F047FA41F2B061102000F084FF96
:103DE0000121112000F080FF0121172000F07CFF4D
:103DF0004FF49C71122000F077FF4FF40061132004
:103E000000F072FF0921292000F06EFF09212A200D
:103E100000F06AFF0021A42000F066FF002150207E
:103E200000F062FFEF21512000F05EFF00215220E0
:103E300000F05AFF40F23F11532000F055FF314689
:103E4000602000F051FF0121612000F04DFF0021B2
:103E50006A2000F049FF0021802000F045FF00218A
:103E6000812000F041FF0021822000F03DFF002171
:103E7000832000F039FF0021842000F035FF00216D
:103E8000852000F031FF1321902000F02DFF04E089
:103E900016E022E11EE2E5E29AE30021922000F022
:103EA00023FF0321932000F01FFF3946952000F0E7
:103EB0001BFF40F27311072000F016FF322008E1CB
:103EC0000021072000F010FF322001F0CBF94FF461
:103ED0008E71122000F008FF0121A42000F004FFE1
:103EE0000F21082000F000FF08210A2000F0FCFE4E
:103EF00008210D2000F0F8FE2B462946302000F066
:103F0000F3FE0721312000F0EFFE40F20361322082
:103F100000F0EAFE4D464946332000F0E5FE5146EA
:103F2000342000F0E1FE0221352000F0DDFE41F6F4
:103F30000F71362000F0D8FE1946372000F0D4FE6D
:103F40000021382000F0D0FE0021392000F0CCFE06
:103F500019463A2000F0C8FE00213B2000F0C4FEC4
:103F600007213C2000F0C0FE00213D2000F0BCFEF7
:103F7000322001F077F90121072000F0B5FE012180
:103F8000172000F0B1FE322001F06CF94FF4BD5162
:103F9000102000F0A9FE40F21721112000F0A4FE2D
:103FA0004FF48F71122000F09FFE4FF470611320C8
:103FB00000F09AFE00212A2000F096FE0A21292016
:103FC00000F092FE4FF49F71122000F08DFE002150
:103FD000502000F089FEEF21512000F085FE0021E5
:103FE000522000F081FE40F23F11532000F07CFE91
:103FF0003146602000F078FE0121612000F074FE5F
:1040000000216A2000F070FE0021802000F06CFE8C
:104010000021812000F068FE0021822000F064FE73
:104020000021832000F060FE0021842000F05CFE6F
:104030000021852000F058FE1321902000F054FE4E
:104040003946922000F050FE0521932000F04CFEEE
:104050000021952000F048FE0021972000F044FE4A
:104060000021982000F040FE2146012000F03CFE97
:104070002946022000F038FE41F23801032000F00A
:1040800033FE0021042000F02FFE00210C2000F060
:104090002BFE00210F2000F027FE0021202000F041
:1040A00023FE0021212000F01FFE2121072000F027
:1040B0001BFE142001F0D6F86121072000F014FE49
:1040C000142001F0CFF840F27311072000F00CFE2D
:1040D000142001F0C7F8FFF741BB0021084600F0AB
:1040E00003FE0021084600F0FFFD0021084600F015
:1040F000FBFD0021084600F0F7FD0121A42000F09F
:10410000F3FD142001F0AEF8314600E0DDE0602060
:1041100000F0EAFD55465146082000F0E5FD4FF459
:104120000571302000F0E0FD43F21571312000F000
:10413000DBFD40F20461322000F0D6FD40F616614E
:10414000332000F0D1FD42F21121342000F0CCFDEB
:104150004FF4A851352000F0C7FD48F20751362032
:1041600000F0C2FD41F20741372000F0BDFD41F2F1
:104170000341382000F0B8FD2021392000F0B4FDC3
:104180001A21902000F0B0FD0021102000F0ACFDBD
:104190000721112000F0A8FD0021122000F0A4FD4D
:1041A0000021132000F0A0FD142001F05BF84FF473
:1041B000E661102000F098FD40F23711112000F068
:1041C00093FD142001F04EF84FF4DC71122000F042
:1041D0008BFD142001F046F84FF47061132000F0BD
:1041E00083FD80212A2000F07FFD4821292000F056
:1041F0007BFD142001F036F82146012000F074FD0B
:104200004946022000F070FD41F23801032000F021
:104210006BFD2946082000F067FD00210A2000F010
:1042200063FD00210C2000F05FFD00210D2000F057
:104230005BFD30210E2000F057FD0021502000F0E2
:1042400053FDEF21512000F04FFD0021522000F0DE
:104250004BFD40F23F11532000F046FD31466020F7
:1042600000F042FD0121612000F03EFD00216A20A6
:1042700000F03AFD1121902000F036FD4FF4C061AE
:10428000922000F031FD40F20241932000F02CFD1D
:104290000221942000F028FD142000F0E3FF01210A
:1042A000072000F021FD142000F0DCFF6121072031
:1042B00000F01AFD40F27311072000F015FD0021F7
:1042C000202000F011FD0021212000F00DFD222111
:1042D00000207AE10021084600F006FD0021084692
:1042E00000F002FD142000F0BDFF0021084600F0A0
:1042F000FBFC0021084600F0F7FC0021084600F016
:10430000F3FC0021084600F0EFFC0121A42000F09E
:10431000EBFC142000F0A6FF3146602000F0E4FC26
:1043200040F60601082000F0DFFC40F20373194656
:10433000302000F0D9FC0121312000F0D5FC04210F
:10434000322000F0D1FC4FF48171332000F0CCFC1E
:104350003946342000F0C8FC40F20311352000F04B
:10436000C3FC1F21362000F0BFFC1946372000F0A7
:10437000BBFC0121382000F0B7FC0421392000F0FB
:10438000B3FC1521902000F0AFFC4FF482611020A7
:1043900000F0AAFC40F24721112000F0A5FC4FF4E8
:1043A000DE71122000F0A0FC4FF46061132000F0D9
:1043B0009BFC782000F056FF2146012000F094FC81
:1043C0004FF40071022000F08FFC41F23001032015
:1043D00000F08AFC08210A2000F086FC00210C2055
:1043E00000F082FC20210E2000F07EFC00210F2036
:1043F00000F07AFC0021202000F076FC0021212032
:1044000000F072FC3D212A2000F06EFC142000F028
:1044100029FF2D21292000F067FC0021502000F009
:1044200063FC4DF2EF01512000F05EFC00215220B0
:1044300000F05AFC40F23F11532000F055FC0021DF
:10444000612000F051FC00216A2000F04DFC39464B
:10445000922000F049FC0521932000F045FC214604
:10446000FFF7B4BB0121002000F03EFC0A2000F061
:10447000F9FE41F22861102000F036FC0E211220D6
:1044800000F032FC40F63921132000F02DFC0A2008
:1044900000F0E8FE4021112000F026FC50211520FC
:1044A00000F022FC0A2000F0DDFE1E21122000F0A8
:1044B0001BFC0A2000F0D6FE4FF4B151102000F092
:1044C00013FC42F63921132000F00EFC0A2000F004
:1044D000C9FE2146012000F007FC3946022000F009
:1044E00003FC41F23801032000F0FEFB5146082096
:1044F00000F0FAFB08210A2000F0F6FB0021302032
:1045000000F0F2FB40F20241312000F0EDFB4FF4ED
:104510008371322000F0E8FB40F20351332000F0B9
:10452000E3FB4FF48271342000F0DEFB40F20131F6
:10453000352000F0D9FB2946362000F0D5FB40F2AB
:104540000531372000F0D0FB4FF40271382000F025
:10455000CBFB40F60B71392000F0C6FB0221412055
:1045600000F0C2FB3146602000F0BEFB012161205B
:1045700000F0BAFB00E0CDE04FF40471902000F0B1
:10458000B3FB4FF48571922000F0AEFB0421932021
:1045900000F0AAFB2146A02000F0A6FB0121072085
:1045A00000F0A2FB2121072000F09EFB2321072021
:1045B00000F09AFB3321072000F096FB40F2331104
:1045C000072000F091FB0021A02000F08DFB82E588
:1045D0003021152000F088FB10219A2000F084FB88
:1045E0002021112000F080FB43F22841102000F030
:1045F0007BFB0221122000F077FB41F238011320EF
:1046000000F072FB282000F02DFE1221084600F079
:104610006BFB282000F026FE43F22041102000F022
:1046200063FB43F23801132000F05EFB462000F0EC
:1046300019FE0021302000F057FB40F202413120EA
:1046400000F052FB40F20731322000F04DFB4FF4F6
:104650004171332000F048FB0421342000F044FB7A
:1046600040F20141352000F03FFB2946362000F0A2
:104670003BFB40F20531372000F036FB4FF4C263BC
:104680001946382000F030FB1946392000F02CFB89
:104690002146012000F028FB3946022000F024FBCF
:1046A00041F23001032000F01FFB40F60801082012
:1046B00000F01AFB08210A2000F016FB31466020AA
:1046C00000F012FB0121612000F00EFB4FF49F71FE
:1046D000902000F009FB2146922000F005FB2146C6
:1046E000932000F001FB4FF44051A02000F0FCFAB1
:1046F0001021A32000F0F8FA0121072000F0F4FABD
:104700002121072000F0F0FA2321072000F0ECFA25
:104710003321072000F0E8FA40F23311A0E6034607
:10472000012000E05843491EC9B2FBD2704708B5CA
:104730004FF0D840B0F88000ADF80000BDF80000A0
:1047400008BD10B500F0B9FA052000F0A7FDBDE8DE
:104750001040FFF7ECBF000010B50246BE2000F08D
:10476000ACFA052000F09DFA104602F0B4FF9FED70
:104770000C1B53EC112B02F0C1FF02F07FFF80B243
:1047800000F08FFA012000F08CFAFF2000F089FA87
:10479000002000F086FABDE81040002000F081BA49
:1047A0006666666666660440F0B57F4D002329465E
:1047B000AA79898846F6040741F66314012A01D0D4
:1047C0002AB11DE0B9421BD0A14202D118E0A1429A
:1047D00016D1082814D2DFE800F00406080A0C0EEF
:1047E000101206200CE007200AE0042008E0052053
:1047F00006E0012004E0002002E0032000E00220A7
:10480000A1F5134C45F2103245F21056BCF1410CA3
:1048100007D0B94205D0914203D0B14201D0A142A4
:104820007BD1082812D2DFE800F0110406080A0C38
:104830000E1080230AE0402308E0C02306E0202376
:1048400004E0602302E0A02300E0E023B14202D1B3
:104850004FF4585000E03620914205D0B14203D0C9
:10486000A14201D043F00803B94201D143F0020351
:10487000194600F039FAAA88A2420AD09806288878
:10488000698802D5884202D303E0884201D9298091
:1048900068806889B24241D100F00FFA002000F030
:1048A00000FA6889401C80B200F007FA002000F08E
:1048B000F8F96889801C80B200F0FFF92888401E52
:1048C000C0F30F2000F0EDF96889C01C80B200F041
:1048D000F4F92878401EC0B200F0E3F9A88900F08E
:1048E000ECF9002000F0DDF9A889401C80B200F04E
:1048F000E4F9002000F0D5F9A889801C80B200F00E
:10490000DCF96888401EC0F30F2000F0CAF9A889BE
:10491000C01C80B200F0D1F922E028E000F0CDF90F
:10492000002000F0BEF9002000F0BBF92888401EEE
:10493000C0F30F2000F0B5F92878401EC0B200F097
:10494000B0F9A88900F0B9F9002000F0AAF9002018
:1049500000F0A7F96888401EC0F30F2000F0A1F90D
:10496000A878BDE8F040401EC0B200F09AB908280F
:1049700012D2DFE800F0040608110A0C0E103023F2
:104980000AE0102308E0202306E0382304E028236F
:1049900002E0182300E00823BDE8F040032043F4C0
:1049A000805100F0A1B90000F00000202DE9F04393
:1049B000DFF844810C460246050AB8F80410404668
:1049C000A1F5134340894FEA1429413B17D0A1F5C3
:1049D000A643103B13D04646A1F5D047B37936889D
:1049E000B61A761E043F0ED0A1F5C857633F1ED0FD
:1049F000A1F5AA47103F57D0012B72D072E000F00A
:104A00005CF9284605E0012B00D1B2B200F055F95F
:104A1000100A00F046F9D0B200F043F9B8F80C00E3
:104A200000F04BF9484600F03CF9E0B22AE06BB3E5
:104A300000F043F9284600F034F9D0B200F031F923
:104A4000B8F80000401EC0F30F2000F02AF998F8D3
:104A50000000401EC0B200F024F9B8F80C0000F0CD
:104A60002CF9484600F01DF9E0B200F01AF9B8F848
:104A70000200401EC0F30F2000F013F998F8020066
:104A8000401EC0B2BDE8F04300F00BB9B2B200F076
:104A900014F9002000F005F9002000F002F9100AD6
:104AA00000F0FFF8D0B2D6E700F007F9284600F092
:104AB000F8F8B8F80A00401C80B200F0FEF8D0B256
:104AC00000F0EFF8B8F80C0000F0F7F8484600F0F6
:104AD000E8F8B8F80C00401C80B200F0EEF8A4E74B
:104AE000FFE7B2B2114600F0FFF8B8F80C0021461B
:104AF000BDE8F04300F0F8B8F00000202DE9F84FD1
:104B000082461F460C468B46580700D0012000EB1A
:104B1000D700790810FB01F0203AC0B202F0FF097B
:104B20000026009041E00C2F10D0102F12D0182F2B
:104B30003ED1204909EBC90001EB80004FF000088D
:104B4000855D28060AD51C4802880BE009EB490060
:104B50001A49F1E71A4901EB0910EFE70A9828B959
:104B60001548428821465046FCF784F96806050E30
:104B70001448641CA4B24088A04219D9A4EB0B00CD
:104B8000B84209D10AF101001FFA80FA0D485C46CB
:104B9000018851450CD906E008F1010000F0FF083A
:104BA000B8F1080FCDD3761CF6B200988642BAD37E
:104BB000BDE8F88F668300085C00002002790008D9
:104BC000767D0008F00000202DE9F84F044600F043
:104BD000FF0810190D46DDE90A761FFA80FA581908
:104BE0001FFA80F94FF0000B11E0544502D3E81989
:104BF000444685B24D450FD23B4629462046CDF866
:104C000000B0FFF77BFF04EB570084B2761C3278CC
:104C1000A2F120005E28E8D9BDE8F88F2DE9FF4F0A
:104C200081B08046DDF83CA00E984FF000091F4689
:104C300093464C460AF0010546082BE0381B401EFF
:104C4000C1B20A20FFF76BFDBBFBF0F00A21B0FBFD
:104C5000F1F201FB1200B9F1000F05D1791E8C426F
:104C600002DA48B14FF001093030C2B206FB0480CD
:104C700080B200950E9B08E05FEA0A6006FB0480A4
:104C80000E9B80B200950AD530220299FFF736FFBD
:104C9000641CE4B2BC42D1D305B0BDE8F08F202241
:104CA000F3E701B5BDF80000ADF80000BDF8000065
:104CB0004FF0D841A1F8800008BD01B5BDF8000053
:104CC000ADF80000BDF800004FF0D841A1F87E001B
:104CD00008BD000003484FF0D8410089A1F87E00CC
:104CE00070470000F00000204FF0D84222F87E0FFD
:104CF000518070477CB50121202000F059F8012037
:104D00008DF8040000228DF8062003218DF805108F
:104D1000074D4FF4C0648DF807000094694628469B
:104D2000FBF784FE21462846FBF7D3FE7CBD00003E
:104D300000140240FEE7704730B50F23C2780178B7
:104D40000125FAB1144A126801F1E02102F4E0628F
:104D5000C2F5E062C2F30722C2F10404D3404278F4
:104D6000A24084781C401443220181F8002400787A
:104D700000F01F018D404009800000F1E020C0F8E4
:104D8000005130BD01F01F0085404809800000F14E
:104D9000E020C0F8805130BD0CED00E0024908432E
:104DA00002490860704700000000FA050CED00E0C1
:104DB000044A0029116801D0014300E081431160D9
:104DC0007047000030380240044A0029116801D0C1
:104DD000014300E081431160704700003838024011
:104DE000044A0029116801D0014300E081431160A9
:104DF000704700004438024070B5204B1968204CC1
:104E000011F00C0104D06610042903D0082903D046
:104E100004601BE0066019E0184A121F1168C1F314
:104E20008055116801F03F0115B1B6FBF1F101E0C9
:104E3000B4FBF1F114681268C4F388146143C2F33F
:104E40000142521C5200B1FBF2F1016019680F22BD
:104E500002EA11110B4A545C0168E14041601C6890
:104E6000072505EA9424145D21FA04F484601B6884
:104E700005EA5333D25CD140C16070BD08380240AE
:104E80000024F4006C00002010B58A0721F0030410
:104E90000849120F21440F23D1F8084893409C433E
:104EA000C1F80848D1F8083890400343C1F80838E1
:104EB00010BD0000003001400CB5002227490092CF
:104EC0000192086840F4803008604FF4A0430868FD
:104ED00000F4003001900098401C0090019810B937
:104EE00000989842F3D10868800334D501200190DE
:104EF0001A484030026842F0805202601848026846
:104F000042F44042026015480830026802600268BC
:104F100042F400420260026842F4A0520260031FA1
:104F2000104A1A600A6842F080720A600A689201A8
:104F3000FCD50D4940F205720A60016821F00301B9
:104F40000160016841F0020101600168C1F3810163
:104F50000229FAD10CBD01920CBD000000380240BC
:104F60000070004008544007003C02404FF0E02130
:104F70000428086903D020F004000861704740F05D
:104F80000400FAE710B502F0C7F8012803D0BDE825
:104F9000104001F0B5BD10BD124810B5016841F4D4
:104FA000700101601048016841F0010101600E4A82
:104FB00000210832116002680C4B1A400260031D88
:104FC0000B4A1A60026822F48022026006480C3004
:104FD0000160FFF771FF03494FF0006080390860FE
:104FE00010BD000088ED00E000380240FFFFF6FE33
:104FF0001030002410B5084C0121204600F039F88B
:10500000012802D105A0FBF797F92046BDE8104022
:10501000012100F02BB800000004004054494D333A
:10502000CAE4B3F62E2E2E2E2E2E2E0D0A000000D0
:1050300010B5084C0121204600F01BF8012802D1D0
:1050400005A0FBF779F92046BDE81040012100F0EA
:105050000DB80000000C004054494D35CAE4B3F6C9
:105060002E2E2E2E2E2E2E0D0A000000C943018258
:10507000704702460020138A92890B4202EA01021D
:1050800002D0002A00D001207047000070B5154CF6
:1050900040F22551204600F035F800280ED0204679
:1050A00000F0BEF8104AC1B21088030406D44404CC
:1050B0004FF0000306D50A2901D0138070BD40F4DB
:1050C00000400DE00D2909D0C0F30D04074D401C30
:1050D00080B229551080C728EFD870BD40F48040B9
:1050E000108070BD0010014066000020FE0000200E
:1050F0000029818902D041F4005101E021F40051DE
:105100008181704770B501F01F0501260024C1F3AD
:10511000421306FA05F2012B0FD0022B0FD0838A1F
:105120004FEA11210088134206FA01F600EA060050
:1051300001D000B10124204670BD8389F0E7038AC5
:10514000EEE710B5C1F3421301F01F040121A140A5
:10515000012B07D0022B07D01430002A026805D09B
:105160000A4304E00C30F8E71030F6E78A430260A7
:1051700010BD00007FB50446008A0D46C98820F4A2
:10518000405001432182A08941F20C618843A988E3
:105190002A8911436A8902431143A181A08A20F41C
:1051A0004071A8890843A0826846FFF725FE1A4887
:1051B000844202D01948844201D1039800E0029849
:1051C000A189090400EBC00101EB0010296801D599
:1051D000490000E08900B0FBF1F06422B0FBF2F17D
:1051E00009010B096FF018056B4300EB8300A389DD
:1051F0001D044FF0320306D503EBC000B0FBF2F004
:1052000000F0070005E003EB0010B0FBF2F000F047
:105210000F00084320817FBD0010014000140140B1
:105220008088C0F308007047FEE7704710B5044659
:105230000420FFF79BFE0A484FF47A71047014FBB8
:1052400001F1012242804FF0E020026942F00202A7
:1052500002614161016941F00101016110BD00007D
:105260006200002070B5044601F056FF01280CD002
:10527000094D6888844203D3B4FBF0F001F00EF9C5
:105280006888B4FBF0F100FB11444FF47A7060437E
:10529000BDE8704000F002B86200002070B54FF029
:1052A000E02500216C69094AAB6912785043AA696C
:1052B0009A42FCD002D2A3EB020302E0A4EB020666
:1052C0003344194413468142F1D370BD620000207B
:1052D00070B5054600244FF47A7603E03046FFF7B8
:1052E000DDFF641CAC42F9D370BD000003490A889D
:1052F0005206FCD5C2B28A807047000000100140FF
:105300000E4C0020FBF70AFC022808D0032810D01E
:1053100004280AD1A06801F0BBFA09A003E0A06844
:1053200001F0F8F90BA0FBF707F80A2001F0B6F836
:10533000E7E7E06801F0ACFA0BA0F4E7000000201A
:10534000B9D2C6F0C8CECEF131B5C4D4CBD0D021BD
:105350000D0A0000BBD6B8B4C8CECEF131B5C4D466
:10536000CBD0D0210D0A0000B9D2C6F0C8CECEF104
:1053700032B5C4D4CBD0D0210D0A00001CB54FF4F7
:105380004070FFF70BFDA820FFF750FF4FF4E1300E
:1053900000F0A4FEFFF7AEFCFBF79EFBFBF76CFAF8
:1053A000FBF736FE1F494FF47840102408801EA0FA
:1053B000CDE900402346C8220A211E20FFF704FC45
:1053C0001EA0CDE900401E211023C8220846FFF789
:1053D000FBFB1FA0CDE900401023C82232211E2074
:1053E000FFF7F2FB1FA0CDE900401023C8224621A1
:1053F0001E20FFF7E9FB1FA0CDE900401023C822C3
:105400005A211E20FFF7E0FB1D490120CDE90001D4
:10541000002380221BA11E4801F052FE01F0EEF98C
:1054200000201CBD5C00002041544B2053544D33E0
:1054300032463130332F3430370000004672656514
:1054400052544F53204578616D7020362D33000043
:105450005461736B205375737020616E64205265C4
:1054600073756D0041544F4D40414C49454E544574
:105470004B000000323031362F31312F32350000F1
:105480000000002073746172745F7461736B0000BC
:10549000A55E00082DE9F041184E0F460446F56858
:1054A0003068001D00F070FE38B9306890F82C109C
:1054B00001208840316981433161601C07D137B1D7
:1054C0003168BDE8F0410E48091D00F095BE306816
:1054D0002C44AC424460316805D2B06BBDE8F04169
:1054E000091D00F071BE706B091D00F06DFEB06A01
:1054F000844200D2B462BDE8F08100007C0000204C
:10550000D80400202DE9F041054600F081FE2D4E23
:10551000B068401CB06030682B4F10B1706930B378
:105520002BE03560B068012827D1002404EB84000B
:1055300007EB800000F03AFE641C202CF6D32348D1
:1055400000F034FE2148143000F030FE1F482830AF
:1055500000F02CFE1D483C3000F028FE1B48503067
:1055600000F024FE194870631430B06305E0306821
:10557000E96AC06A884200D83560706A0121401C1F
:1055800070626864E86A326981401143316100EBFE
:10559000800007EB8000291D00F02EFE00F074FE55
:1055A000706900280CD03068E96AC06A884207D266
:1055B00007494FF080500860BFF34F8FBFF36F8FE4
:1055C000BDE8F0817C000020080200208804002053
:1055D00004ED00E010B500F01BFE0E4C2068A0B9F1
:1055E0000D4800F0E3FD0C48143000F0DFFD0A48E0
:1055F000E0601430206100221021052001F096FAAD
:10560000206010B105A100F015FFBDE8104000F0CA
:105610003BBE0000B8000020EC040020546D725125
:105620000000000070B5124E124D1CE001F098F918
:10563000306820B1002401F09DFEA4B901E00124EE
:10564000F9E700F0E5FDF068C468201D00F09CFD5E
:10565000A868401EA8606868401E686000F014FEDC
:10566000204600F052F868680028DFD170BD0000C5
:10567000C40400207C00002030B4026C0B46002AD9
:105680000BD0C1681144C1604468A14201D30168D4
:10569000C16030BC1846FAF721BF30BC70472DE915
:1056A000F041856B174604460026026C82B1C7B1F3
:1056B000E068FAF713FFE168206C091AE1602268DC
:1056C000914202D26168081AE060022F16D017E0FA
:1056D0002068A8B9606801F0A7FD06460020606058
:1056E0000EE0A068FAF7FAFE216CA0680844A060FA
:1056F0006168884204D32068A06001E005B16D1E96
:105700006D1CA5633046BDE8F08110B50446006B02
:1057100000F0ECFD2046BDE8104000F0E7BD0000C1
:1057200010484FF4A041420706D0C01D0D4920F09B
:105730000700411AC1F5A0410B4A00230144C2E908
:1057400000030839103A21F0070111604B600B602B
:105750000B1AC0E9001393604FF000405360D06013
:105760007047000014050020E8000020074E4FF0AD
:105770008054074DFFF756FF30680128FAD92C6096
:10578000BFF34F8FBFF36F8FF4E7000008020020D4
:1057900004ED00E02DE9F047DDE909840E461746E7
:1057A000824691009946089DA522206BFAF7DBFE00
:1057B0006FF00301206B01EB8701084420F007071D
:1057C000780705D040F22B3219A11EA0FAF7B4FDDC
:1057D00000202218315C82F83410315C11B1401C79
:1057E0001028F6D3002684F84360202D00D31F250F
:1057F000E562C4E91356201D00F0E3FC04F1180033
:1058000000F0DFFC2461C5F120006462A0616665E0
:1058100084F858604A465146384600F02DFB206017
:10582000B8F1000F01D0C8F80040BDE8F0870000D3
:105830002E2E5C4672656552544F535C7461736BD7
:10584000732E63004572726F723A25732C25640DB6
:105850000A00000030B5114900E011460A68824292
:10586000FBD34B685C18844203D1406818444860FD
:10587000084643681C18944209D1084C103C24681F
:10588000A24209D052681A4442600A681268026053
:10589000814200D0086030BD0460F9E7E8000020D4
:1058A00070B5002441600B4D0061914206D8D11AB9
:1058B0008269914206D2011D286907E09A4203D20B
:1058C000994201D3012403E0011DE86800F07CFC4B
:1058D000204670BDB800002010B5044600F098FCCA
:1058E000A06B20B1002400F0CFFC204610BD0124A5
:1058F000F9E700002DE9F34100980F460026846C7B
:105900002CB940F6CE1216A11AA0FAF715FDA06B1D
:10591000E16B884205D340F6CF1211A115A0FAF72A
:105920000BFDA06BE16B88420CD294F945503A46CE
:1059300069462046FFF7B3FE0646681C05D06D1C7D
:1059400084F845503046BDE8FC81606A0028F9D0F3
:1059500004F1240001F0C2FC0028F3D00126F1E795
:105960002E2E5C4672656552544F535C7175657599
:10597000652E63004572726F723A25732C25640D93
:105980000A000000F8B5054614480E46C068C06815
:10599000C468201D00F0F8FBE069012817D1A06958
:1059A0002B46411932462046FFF77AFF78B1002096
:1059B0000346014600902A46204601F017FE30B902
:1059C00007494FF4027201F11800FAF7B5FC616A59
:1059D00001B02046BDE8F04008470000B8000020B4
:1059E0005075000870B586B02F4E53E0019800281E
:1059F00006DADDE90301029A90470198002849DBA5
:105A0000039C606910B1201D00F0BEFB05A800F0EA
:105A1000A7F8054601980A283CD2DFE800F0050502
:105A2000053B273805053B270298A1690346014439
:105A30002A462046FFF734FF00282BD0616A204613
:105A40008847E069012825D1002000900298A169CB
:105A5000002342181946204601F0C8FDD0B940F293
:105A6000213212A117A0FAF767FC13E00298A06197
:105A700028B94FF44E720DA112A0FAF75DFCA0698F
:105A80002B4641191A462046FFF70AFF02E020463E
:105A900000F02CFC00231A4601A9306801F082F8BE
:105AA0000028A3D106B070BDB80000202E2E5C46A1
:105AB00072656552544F535C74696D6572732E63E1
:105AC000000000004572726F723A25732C25640D38
:105AD0000A000000F8B50D46064600F041FF684692
:105AE00000F03EF80446009810B101F043FCF8BD08
:105AF0001148ADB101690968D9B10025311B2A46A9
:105B0000006800F0A9FC01F035FC0028EFD10B493A
:105B10004FF080500860BFF34F8FBFF36F8FF8BD19
:105B2000A642EBD801F026FC21463046FFF72AFFBB
:105B3000F8BD0125E2E70000B800002004ED00E018
:105B40000648416B096829B1416BC968C968496851
:105B5000816270474FF0FF31FAE700007C000020BF
:105B600070B5054601F0E6FA064E0446B068844278
:105B700003D200F009F8012000E000202860204650
:105B8000B46070BDB8000020F8B5184E26E0C068BB
:105B9000C4680568201D00F0F7FA616A204688474E
:105BA000E06901281AD1A0692844A84206D92461D5
:105BB0006060211DF06800F007FB0FE00020034645
:105BC000014600902A46204601F010FD30B90849F0
:105BD00040F2923201F11800FAF7AEFBF06801686A
:105BE0000029D4D13169C6E90310F8BDB8000020FE
:105BF0005075000808484068401C05D040F20F125C
:105C000006A111A0FAF798FB502080F31188BFF38A
:105C10004F8FBFF36F8FFEE7CC0000202E2E5C4627
:105C200072656552544F535C706F727461626C653B
:105C30005C525644535C41524D5F434D34465C7058
:105C40006F72742E630000004572726F723A257392
:105C50002C25640D0A00000070B50025040005D154
:105C600040F2816207A10CA0FAF766FB0E49606959
:105C7000884205D1A06A2839884201D000B901259F
:105C8000284670BD2E2E5C4672656552544F535C9B
:105C90007461736B732E63004572726F723A257371
:105CA0002C25640D0A000000D8040020084CE06890
:105CB000016839B1002139B10020FFF70BFFFFF770
:105CC00091FEF4E70121F6E7C0680068F5E70000FF
:105CD000B80000202DE9F041044600F099FA94F94B
:105CE000455004F1240610E0A06C20B100212046AC
:105CF000FFF700FE04E0606A48B1304601F0EEFABA
:105D000008B100F067FC6D1E6DB2002DECDC4FF0A9
:105D1000FF3684F8456000F0B7FA00F079FA94F99C
:105D2000445004F1100709E0206948B1384601F0F9
:105D3000D5FA08B100F04EFC6D1E6DB2002DF3DCFB
:105D400084F84460BDE8F04100F09EBA2DE9F041CE
:105D50000546002600F004FE324F386808B9FFF708
:105D6000DFFCF86805424FD1002D4DD0083568079B
:105D70000BD005F00700C0F108000544680704D007
:105D8000BF2229A132A0FAF7D7FA002D3CD07868BB
:105D9000854239D8234910310846046801E021467C
:105DA00004466068A84202D220680028F7D138680B
:105DB000B846844228D00E682068086060680836BB
:105DC000401B10280ED96719780704D0EC2216A1C1
:105DD0001FA0FAF7B1FA6068401B7860384665602A
:105DE000FFF738FD6168D8F804004246401AC8F849
:105DF0000400D8F80830984200D29060D8F80C001F
:105E000001430020C4E9000101F0B4FA700705D095
:105E10004FF4967204A10EA0FAF78EFA3046BDE850
:105E2000F0810000D80000202E2E5C46726565527D
:105E3000544F535C706F727461626C655C4D656D3C
:105E40004D616E675C686561705F342E63000000B1
:105E50004572726F723A25732C25640D0A0000009A
:105E60000449086818B10868026D521C0265086888
:105E7000704700007C00002010B5031F4FF08074B5
:105E80001C601B1F21F001011960191F044B0B60DE
:105E900014390A60091F6FF0020244380A6010BD0D
:105EA000F55B00081CB500F0B3F914490220CDE9F8
:105EB00000010023802212A1144801F001F90F49CA
:105EC0000320091DCDE900010023802210A1134801
:105ED00001F0F6F8094904200831CDE9000100235A
:105EE00080220FA1114801F0EBF80448001F006860
:105EF00000F00AFBBDE81C4000F0C6B90400002019
:105F00006B65795F7461736B0000000001530008DA
:105F10007461736B315F7461736B0000315F0008F3
:105F20007461736B325F7461736B0000056000080D
:105F30001CB5274D00244FF49D732C8073226E21D5
:105F40000520FAF77BFF8223732219460520FAF712
:105F50001BFF1F20288010251EA0CDE900502B46D6
:105F60006E226F210620FEF72FFE1E4EDFF878808E
:105F70000E2740F2391A4FF080094FF47A7B641CE7
:105F8000D6F8A402E4B200B30020C6F8A402214669
:105F900016A0FAF7D1F9B4FBF7F007FB104153460E
:105FA00038F82100722280B2009083210620FAF78F
:105FB000E9FFCDE90059032322466F215620FEF761
:105FC0002DFE584600F06AFAD9E70120DDE700000F
:105FD0005C0000205461736B312052756E3A303092
:105FE000300000000080424210000020C8CECEF1F8
:105FF00031D2D1BEADD6B4D0D0A3BA2564B4CE0DC3
:106000000A0000001CB5284D00244FF49D732C801D
:10601000EA226E217D20FAF711FF8223EA22194637
:106020007D20FAF7B1FE1F20288010251FA0CDE9A2
:1060300000502B466E226F217E20FEF7C5FD1F4EBD
:10604000DFF87C9080274FF00E0840F2391A4FF4A9
:106050007A7B641CD6F8A802E4B210B30020C6F81C
:10606000A802214617A0FAF767F9CDE900570323E4
:1060700022466F21CE20FEF7D1FDB4FBF8F108FBDC
:106080001140C0F10D01534639F82100E92280B2D8
:10609000009083217E20FAF775FF584600F0FEF944
:1060A000D7E70120DBE700005C0000205461736B40
:1060B000322052756E3A303030000000008042428B
:1060C00010000020C8CECEF132D2D1BEADD6B4D0B1
:1060D000D0A3BA2564B4CE0D0A000000F0B5064680
:1060E000012187B00846FEF763FE01211020FEF76C
:1060F00077FE234D072209212846FAF7D3FC072211
:106100000A212846FAF7CEFC02218DF814108DF8EA
:1061100015104FF4C060002404908DF8164001273C
:106120008DF8177004A92846FAF780FCADF80440F2
:10613000ADF80640ADF80840ADF80C400C20114C0D
:10614000ADF80A00009669462046FFF713F80121D2
:106150002046FEF7CDFF012240F225512046FEF7F2
:10616000F0FF25208DF8180003208DF819008DF818
:106170001A008DF81B7006A8FEF7DEFD07B0F0BD13
:106180000000024000100140D0E9013201699A602C
:10619000D0E901235A604A68824201D182684A608C
:1061A000002202610868401E0860704700F1080183
:1061B0004FF0FF32C0E90112C160016100210160AE
:1061C000704700210161704730B50C68621C02D035
:1061D00000F1080202E0026904E01A4653681D68F3
:1061E000A542FAD953684B6099608A605160086192
:1061F0000168491C016030BD42684A6093688B6049
:1062000093685960916008610168491C016070479A
:10621000502080F31188BFF34F8FBFF36F8F094970
:106220004868401C486001280AD10748006810F0FF
:10623000FF0F05D040F2B91204A10FA0FAF77CB805
:1062400070470000CC00002004ED00E02E2E5C46DC
:1062500072656552544F535C706F727461626C6505
:106260005C525644535C41524D5F434D34465C7022
:106270006F72742E630000004572726F723A25735C
:106280002C25640D0A00000010B5084C606828B980
:106290004FF4E07206A111A0FAF74EF86068401EB4
:1062A000606001D180F3118810BD0000CC00002097
:1062B0002E2E5C4672656552544F535C706F72743B
:1062C00061626C655C525644535C41524D5F434D74
:1062D00034465C706F72742E630000004572726FFA
:1062E000723A25732C25640D0A00000070B5002851
:1062F0002AD0164DA0F108046068E968084205D16B
:106300004FF4A07212A11CA0FAF716F8206828B169
:1063100040F241120EA118A0FAF70EF86068E96881
:10632000084211D02268002A0ED18843606000F034
:1063300017FB60686968084468602046FFF78AFABE
:10634000BDE8704001F016B870BD0000D800002014
:106350002E2E5C4672656552544F535C706F72749A
:1063600061626C655C4D656D4D616E675C68656111
:10637000705F342E630000004572726F723A2573AD
:106380002C25640D0A00000006484FF47A7100685D
:10639000B0FBF1F14FF0E020491E4161072101619E
:1063A000704700004800002010B5F9F79FFF104C1F
:1063B00010280CD300F1E02090F8F00321788842F7
:1063C00005D24FF440720BA115A0F9F7B5FF18489C
:1063D0000068A16800F4E060884207D9BDE8104079
:1063E0004FF4447203A10EA0F9F7A6BF10BD000040
:1063F000CC0000202E2E5C4672656552544F535CD3
:10640000706F727461626C655C525644535C4152A9
:106410004D5F434D34465C706F72742E6300000014
:106420004572726F723A25732C25640D0A000000C4
:106430000CED00E010B5074B002253F832401CB1C0
:10644000521C082AF9D310BD43F8321003EBC201E5
:10645000486010BDC801002070B515460E460446C0
:10646000FFF7D6FE94F944100020491C01D184F8AE
:10647000440094F94510491C01D184F84500FFF708
:1064800003FFA06B28B92A46314604F1240000F02E
:10649000D1F82046BDE87040FFF71CBC10B50400E1
:1064A00012D00E49096B29B140F2CF420CA111A0C4
:1064B000F9F742FF00F054FA00212046FEF7EAFF08
:1064C00000F058FF002807D10E494FF080500860B7
:1064D000BFF34F8FBFF36F8F10BD00007C00002013
:1064E0002E2E5C4672656552544F535C7461736B1B
:1064F000732E63004572726F723A25732C25640DFA
:106500000A00000004ED00E070B50446FFF780FECD
:10651000234D04B92C68201DFFF736FE58B9E06AF8
:10652000204A00EB800152F8211021B9012181405D
:10653000286988432861A06A18B104F11800FFF7A0
:1065400023FE686A401C68622868844207D1211DC6
:106550001548FFF751FE6868401C686007E0A868AE
:10656000401EA8602046FFF7D0F8FFF7E9FAFFF7D2
:106570008BFE6869002812D0286884420FD1286BEE
:1065800028B140F2654209A10DA0F9F7D5FE1049E6
:106590004FF080500860BFF34F8FBFF36F8F70BD17
:1065A0007C00002008020020C40400202E2E5C463F
:1065B00072656552544F535C7461736B732E630044
:1065C0004572726F723A25732C25640D0A00000023
:1065D00004ED00E001490120C86170477C00002003
:1065E00070B50D46040005D140F6063207A10CA097
:1065F000F9F7A2FE0E48016820461831FFF7E4FDC6
:106600002846BDE870400121FEF744BF2E2E5C46AF
:1066100072656552544F535C7461736B732E6300E3
:106620004572726F723A25732C25640D0A000000C2
:106630007C00002070B514460E46050005D140F6DA
:10664000313209A10DA0F9F777FE104801682846FC
:106650001831FFF7D1FD0CB14FF0FF36214630461F
:10666000BDE87040FEF716BF2E2E5C46726565527F
:10667000544F535C7461736B732E63004572726F79
:10668000723A25732C25640D0A0000007C0000205E
:1066900070B5040039D01D4DE06A2968C96A884286
:1066A00033D2A069002804DB2868C06AC0F120004A
:1066B000A061E06A164E00EB8000616906EB800085
:1066C00081421FD1201DFFF75FFD012150B9E06A13
:1066D00000EB800256F8222022B92A6901FA00F064
:1066E00082432A612868C06AE0622A6981401143B6
:1066F000296100EB800006EB8000211DBDE87040A1
:10670000FFF77ABD2868C06AE06270BD7C00002097
:106710000802002070B504002BD01A4D286884426E
:106720002FD0FFF775FD2046FFF796FAE8B1201D40
:10673000FFF72AFDE06A01212A698140114329619E
:10674000114900EB800001EB8000211DFFF754FD93
:10675000E06A2968C96A884207D30C494FF0805023
:106760000860BFF34F8FBFF36F8FBDE87040FFF736
:106770008BBDBDE8704040F2AB6205A109A0F9F7FE
:10678000DBBD70BD7C0000200802002004ED00E0AD
:106790002E2E5C4672656552544F535C7461736B68
:1067A000732E63004572726F723A25732C25640D47
:1067B0000A00000010B5040005D140F6C13205A161
:1067C00009A0F9F7B9FD0C48016A2160C068606052
:1067D00010BD00002E2E5C4672656552544F535C0E
:1067E0007461736B732E63004572726F723A257316
:1067F0002C25640D0A0000007C0000201CB5174801
:106800000024CDE900402346822215A1164800F05D
:1068100057FC012803D100F0AFFE01280AD0401C2C
:106820001BD102B040F28472BDE810400FA114A049
:10683000F9F782BD502080F31188BFF34F8FBFF36B
:106840006F8F06484FF0FF312C3881620121416182
:10685000C460BDE81C4000F0C9B81CBDA800002001
:1068600049444C45000000006D5700082E2E5C4640
:1068700072656552544F535C7461736B732E630081
:106880004572726F723A25732C25640D0A00000060
:1068900070B50446FFF7BCFC244D04B92C68201DDC
:1068A000FFF772FC58B9E06A214A00EB800152F808
:1068B000211021B901218140286988432861A06AFB
:1068C00018B104F11800FFF75FFC211D1948FFF70C
:1068D00093FCFFF7D9FC686928B1FFF799FCFFF733
:1068E0002FF9FFF7D1FC2868844211D1686980B183
:1068F000286B28B140F257620FA114A0F9F71CFDD4
:1069000016494FF080500860BFF34F8FBFF36F8F71
:1069100070BD0848A9680068884202D1002028603C
:1069200070BDBDE8704000F023B800007C0000207E
:1069300008020020D80400202E2E5C4672656552A5
:10694000544F535C7461736B732E63004572726FA6
:10695000723A25732C25640D0A00000004ED00E056
:106960000248016B491C0163704700007C00002055
:1069700070B5134D286B10B10120E86170BD002087
:10698000E86128690F4EB0FA80F0C0F11F0000EBFB
:10699000800456F8240028B940F6F6220AA10FA078
:1069A000F9F7CAFC06EB840000F108024168496867
:1069B0004160914201D149684160C868286070BD5A
:1069C0007C000020080200202E2E5C467265655275
:1069D000544F535C7461736B732E63004572726F16
:1069E000723A25732C25640D0A0000001CB5304C4A
:1069F00020683049884205D140F259122EA139A0B1
:106A0000F9F79AFC20682B49491E884205D14FF4BA
:106A1000AD7229A133A0F9F78FFC364C2078019094
:106A2000FF20207020788DF800009DF800009DF870
:106A3000001000F0F000884205D040F273121EA151
:106A400028A0F9F779FC9DF800002B4A00F05000CF
:106A500010700720906007E09068401E90609DF8DD
:106A6000000040008DF800009DF800000006F3D4FF
:106A7000107A000200F4E0609060019820700C48E9
:106A80002030016841F470010160016841F07041FB
:106A90000160FFF779FC00205060F9F7EFFB174821
:106AA000016841F040410160F9F7D8FB00201CBDAE
:106AB00000ED00E071C20F412E2E5C4672656552FA
:106AC000544F535C706F727461626C655C525644D3
:106AD000535C41524D5F434D34465C706F72742E6F
:106AE000630000004572726F723A25732C25640DA5
:106AF0000A00000000E400E0CC00002034EF00E0D9
:106B000010B5502080F31188BFF34F8FBFF36F8F04
:106B100000F016FB18B104494FF0805008600020C7
:106B200080F3118810BD000004ED00E02DE9F04174
:106B300017460E46050005D14FF4C47210A115A0EA
:106B4000F9F7FAFBBEB105FB06F05430FFF7FEF88B
:106B500004000ED004F154007EB12060C4E90F5649
:106B60002046012100F0E0F884F850700021204612
:106B7000A164BDE8F0810020E7E72460EEE70000B3
:106B80002E2E5C4672656552544F535C7175657567
:106B9000652E63004572726F723A25732C25640D61
:106BA0000A0000002DE9FF4F83B09B468A4604008F
:106BB0004FF0000605D140F2DC4251A155A0F9F793
:106BC000BBFBBAF1000F07D1206C28B140F2DD42C7
:106BD0004BA150A0F9F7B0FB00F09EFA38B9059828
:106BE00028B14FF49C6246A14AA0F9F7A5FB4FF0EB
:106BF00000094FF08057DFF82C81FFF709FBA56BE8
:106C000045B351462046E668FEF736FDBBF1000F5E
:106C100013D0E660606A50B104F1240000F05EFB1E
:106C200028B1C8F80070BFF34F8FBFF36F8FFFF725
:106C30002BFB012007B0BDE8F08F6D1EA563206817
:106C400010B9FFF70DF9606020690028EFD004F15A
:106C50001000E3E7059808B11EB106E0FFF714FB4A
:106C600027E06846FFF7A6FD0126FFF70DFBFFF7BB
:106C700077FEFFF7CDFA94F94400401C01D184F867
:106C8000449094F94500401C01D184F84590FFF7E9
:106C9000FBFA05A9684600F0CFF9002820460AD083
:106CA000FFF718F800F066FB2046FEF715FE0028F7
:106CB000A3D00020BEE7FEF70FFED8B1206830B9A0
:106CC000FFF7A6FA6068FFF7E3FCFFF7DDFA04F1CF
:106CD00024000599FFF784FC2046FEF7FBFF00F037
:106CE00049FB002889D1C8F80070BFF34F8FBFF36C
:106CF0006F8F82E72046FEF7EDFF00F03BFB7CE75D
:106D00002E2E5C4672656552544F535C71756575E5
:106D1000652E63004572726F723A25732C25640DDF
:106D20000A00000004ED00E070B50D46040005D136
:106D300040F21B121CA121A0F9F7FEFAFFF768FA36
:106D4000D4E90F20216802FB001161600021A163DA
:106D50002168A1600A46D4E90F01401E00FB012111
:106D6000E16021464FF0FF3001F8440F487004F114
:106D700010004DB1FFF71AFA04F12400FFF716FADC
:106D8000FFF782FA012070BD21690029F8D000F0D8
:106D9000A5FA0028F4D00D494FF080500860BFF3E9
:106DA0004F8FBFF36F8FEBE72E2E5C4672656552F7
:106DB000544F535C71756575652E63004572726F33
:106DC000723A25732C25640D0A00000004ED00E0E2
:106DD0002DE9FF4F83B099468B4604004FF0000623
:106DE00005D140F2D92252A156A0F9F7A5FABBF17C
:106DF000000F07D1206C28B140F2DA224CA151A03B
:106E0000F9F79AFAB9F1020F08D1E06B012805D021
:106E100040F2DB2246A14BA0F9F78EFA00F07CF994
:106E200038B9059828B140F2DE2241A145A0F9F712
:106E300083FA4FF0000A4FF08057DFF81881FFF710
:106E4000E7F9A06BE16B884206D3B9F1020F03D0DA
:106E5000059800B316B325E04A4659462046FEF78A
:106E60001EFCA16C21B149462046FEF743FD05E01A
:106E7000616A19B104F1240000F030FA28B1C8F8B1
:106E80000070BFF34F8FBFF36F8FFFF7FDF9012045
:106E900007B0BDE8F08FFFF7F7F921E06846FFF78C
:106EA00089FC0126FFF7F0F9FFF75AFDFFF7B0F96B
:106EB00094F94400401C01D184F844A094F94500A1
:106EC000401C01D184F845A0FFF7DEF905A968460A
:106ED00000F0B2F830B12046FEF7FCFE00F04AFAAE
:106EE0000020D5E7FFF794F9A06BE16B884201D150
:106EF000012500E00025FFF7C7F995B104F1100066
:106F00000599FFF76DFB2046FEF7E4FE00F032FA2C
:106F1000002894D1C8F80070BFF34F8FBFF36F8F74
:106F20008DE72046FEF7D6FE00F024FA87E7000042
:106F30002E2E5C4672656552544F535C71756575B3
:106F4000652E63004572726F723A25732C25640DAD
:106F50000A00000004ED00E02DE9F04798461546D0
:106F60008946040005D140F29F322AA12EA0F9F7EC
:106F7000E3F9B9F1000F07D1206C28B14FF4687222
:106F800024A129A0F9F7D8F9B8F1020F08D1E06BD4
:106F9000012805D040F2A1321EA123A0F9F7CCF9B7
:106FA000FFF702FA5020EFF3118780F31188BFF347
:106FB0004F8FBFF36F8FA06BE16B884207D3B8F19F
:106FC000020F04D0002087F31188BDE8F08794F900
:106FD0004560424649462046FEF761FB701C04D0DE
:106FE000761C84F845600120EDE7A06C012620B1F5
:106FF00041462046FEF77EFC06E0606A0028F2D09B
:1070000004F1240000F06AF90028ECD0002DEAD049
:107010002E60E8E72E2E5C4672656552544F535C35
:1070200071756575652E63004572726F723A2573CE
:107030002C25640D0A00000070B50D46040005D132
:1070400040F6CB3214A119A0F9F776F92DB940F624
:10705000CC3211A115A0F9F76FF9FFF7D9F8174A4B
:10706000D06829684B1C0FD02368126A934202D063
:10707000626882420AD96268801A884206D2081A77
:1070800028602046FFF796FB002400E00124FFF76C
:10709000FBF8204670BD00002E2E5C4672656552DE
:1070A000544F535C7461736B732E63004572726F3F
:1070B000723A25732C25640D0A0000007C00002024
:1070C0002DE9FF5F8346DDE90E87994616468A461D
:1070D0009000FEF73BFE05001AD05C20FEF736FE5E
:1070E000040012D025630021CDE90241CDE90087DB
:1070F0004B46324651465846FEF74CFB2046FEF7BB
:1071000001FA012004B0BDE8F09F2846FFF7EEF831
:107110004FF0FF30F6E700000548416919B1006BF8
:1071200018B100207047012070470220704700000E
:107130007C0000200148C068704700007C000020EF
:107140002DE9F0412D4F0026386B40B1B869401C45
:10715000B861F86900B101263046BDE8F081FD68EC
:107160006D1CFD6011D1786B006828B140F6D91212
:1071700023A128A0F9F7E0F8786BB96B7963B863BD
:10718000386A401C3862FEF7DBFCB86ADFF894808E
:10719000854209D3786B006880B1786BC068C46899
:1071A000606885420DD2B8623868C06A00EB800121
:1071B00058F821000128CCD90126CAE74FF0FF304A
:1071C000F1E7201DFEF7E0FFA06A18B104F11800F6
:1071D000FEF7DAFFE06A01213A6981401143396123
:1071E00000EB800108EB8100211DFFF705F8E06A44
:1071F0003968C96A8842CDD30126CBE77C000020DC
:107200002E2E5C4672656552544F535C7461736BED
:10721000732E63004572726F723A25732C25640DCC
:107220000A0000000802002070B504004FF00006BC
:107230003CD01F4D2868844205D040F6C7621DA18E
:1072400021A0F9F779F8206D28B940F6C96219A193
:107250001DA0F9F771F8206D401E2065E26CE16A0F
:10726000914223D010BB201DFEF78EFF1A49012248
:1072700050B9E06A00EB800351F8233023B92B6941
:1072800002FA00F083432B61E06CE062C0F1200061
:10729000A061E06A2B6982401A432A6100EB8000FA
:1072A00001EB8000211DFEF7A7FF0126304670BDCF
:1072B0007C0000202E2E5C4672656552544F535C54
:1072C0007461736B732E63004572726F723A25732B
:1072D0002C25640D0A000000080200202DE9F04171
:1072E000C068C4682CB940F6613216A11AA0F9F73B
:1072F00023F804F118000746FEF746FF1A4D286BE5
:10730000012660B139461948FEF776FFE06A296820
:10731000C96A884213D90120EE61BDE8F081201DC1
:10732000FEF732FFE06A2A6906FA00F1114329618B
:107330000F4900EB800001EB8000211DE4E70020F5
:10734000EBE700002E2E5C4672656552544F535C8D
:107350007461736B732E63004572726F723A25739A
:107360002C25640D0A0000007C000020B0040020E1
:10737000080200202DE9F0472B4D00242746286BFA
:1073800028B94FF4FD6229A12DA0F8F7D5FFFEF72B
:107390003FFF286B401E2863286BE8BBA8682C4978
:1073A0000126C8B3A1F52A798846D8F80010E9B1BA
:1073B000D8F80C00C46804F11800FEF7E5FE201DA3
:1073C000FEF7E2FEE06A2A6906FA00F1114329613C
:1073D00000EB800109EB8100211DFEF70DFFE06A43
:1073E0002968C96A8842E0D3EE61DEE70CB1FEF796
:1073F000A7FBAC693CB1FFF7A3FE00B1EE61641ED0
:10740000F9D10020A861E86930B112490127380795
:107410000860BFF34F8F00E001E0BFF36F8FFEF70E
:1074200033FF3846BDE8F0877C0000202E2E5C46F6
:1074300072656552544F535C7461736B732E6300B5
:107440004572726F723A25732C25640D0A00000094
:10745000B004002004ED00E02DE9F0410026040016
:1074600005D140F2E2621BA11FA0F8F765FFFEF70D
:107470009BFF5020EFF3118580F31188BFF34F8FEE
:10748000BFF36F8F2046FEF7E7FBE8B11A4F386B6A
:1074900018B104F11801194814E0E06A3968C96AA2
:1074A000884200D30126201DFEF76EFEE06A01210E
:1074B0003A69814011433961114900EB800001EBC9
:1074C0008000211DFEF798FE85F311883046BDE847
:1074D000F08100002E2E5C4672656552544F535C5D
:1074E0007461736B732E63004572726F723A257309
:1074F0002C25640D0A0000007C000020B004002050
:10750000080200202DE9F0470746994616460D4629
:107510002C20DDF820A0FEF719FC040014D0B8469A
:107520004F46D1462DB94FF4C67209A10EA0F8F707
:1075300003FFFEF74FF804F11801C4F8008081E85A
:10754000E002201DFEF73DFE2046BDE8F08700006A
:107550002E2E5C4672656552544F535C74696D659E
:1075600072732E63000000004572726F723A2573C9
:107570002C25640D0A0000001CB50024FEF72AF833
:107580000C48006868B10B491F20091DCDE90001B6
:1075900000234FF4827208A10948FFF791FD04000F
:1075A00005D140F2331207A10CA0F8F7C5FE204622
:1075B0001CBD0000B8000020546D7220537663009B
:1075C000AD5C00082E2E5C4672656552544F535CCC
:1075D00074696D6572732E63000000004572726FEE
:1075E000723A25732C25640D0A0000002DE9FF472F
:1075F000DDF830A0994690460D4606004FF0000792
:1076000005D14FF4D37212A117A0F8F795FE1A4CCA
:10761000206880B1CDE900580296062D11DAFFF7F7
:107620007BFD02284FF0000309D000226946206844
:10763000FFF7CEFB074604B03846BDE8F087524658
:10764000F4E700234A466946FFF786FCF2E70000AC
:107650002E2E5C4672656552544F535C74696D659D
:1076600072732E63000000004572726F723A2573C8
:107670002C25640D0A000000B80000204FEA1153C9
:10768000A3F58063D3F11E03A8BFD3F1200C08DB60
:107690004FF0004242EAC12252EA505232FA03F05D
:1076A000704709420BD4102BC4BF0020704703F56C
:1076B000787CBCF1FF3F05D04FF0FF3070474FF0B2
:1076C0000000704770B500F0C3F800BF49922480F5
:1076D00000207047F0E7B0FA80F310FA03F10AD007
:1076E000C3F11D0303F580634FEA41504FEA035293
:1076F00002EBD12170474FF000007047DFF848C11E
:1077000070B51CEA111E1EBF1CEA13159EEA0C0F71
:1077100095EA0C0F00F06F8081EA030423EA4C1312
:107720004EEAD47E21EA4C1141F4801143F48013D7
:10773000AE44A1FB024CA0FB0365AEF17F7E36197F
:1077400055EB0C05A1FB034C4CF10003A0FB021C04
:1077500016EB0C06654153F10003094218BF46F0D1
:10776000010613F4007F0BD14FEA03314FEA0530D5
:10777000340341EA155140EA16506FF003020AE063
:107780004FEAC3214FEAC520F40241EA555140EACD
:1077900056506FF0020202EB2E4201EB025585EAD1
:1077A000CE710AD05FEA440C18BF24F0004450F1B7
:1077B000000041F1000120EAD47040F2FE7C6245F5
:1077C00000D270BDA84214BF4FF080444FF0404437
:1077D000002E08BF0024BEF1806FA8BFA1F1C041F8
:1077E000BDE8704080F282804FF0000001F1C0419E
:1077F00001F0004170479EEA0C0F0CEA131518BF08
:1078000095EA0C0F06D04FF0000081EA030E0EF04F
:10781000004170BD00F01CF88900013E00F007B87F
:1078200000F009B84FEA430C5FEA5C5C08D081EADB
:10783000030100F05BB84FEA410C5FEA5C5CF6D1F3
:107840004FF00000014970470000FF070000F87F7B
:107850000EF1020E2EF0030E5EF8046B364205D4D4
:10786000012A43EB030515F5001F12D8012841EB4F
:10787000010C1CF5001F0CD80ED14FEAD17C15F578
:10788000001F0CEB4C0C0CF1020C08BF4CEBD37C32
:1078900004E04FF0080C01E04FEAD37C0CEB4C0500
:1078A00026FA05F606F00706B6F1040C06D20EEB32
:1078B000860CBDE870404CF0010C6047DFE80CF02E
:1078C000090B02024FF000414FF00000A1F500212A
:1078D00070BD19461046012851EB010418BFD4F5BC
:1078E000001484BF002001F0004170BD0808A0F51D
:1078F00000114FEA310170474FF04070E1EE100A7D
:1079000070470000000000000000000000000000C0
:1079100000003F4000000000000000003000400078
:1079200030004000000009000BC03D000BC03D00CE
:10793000090018C024407FE0224031800000180078
:1079400024C01B000D803240018003801C40274072
:107950001C80074000401000600000000000000094
:1079600000000000000000001F80204040200000B8
:10797000402020401F8000000000090006001F80FA
:10798000060009000000040004003F800400040019
:107990000000001000600000000000000000040073
:1079A0000400040004000400000000000040000087
:1079B000000000000000002001C006003800400068
:1079C00000001F802040204020401F800000000059
:1079D00010403FC000400000000018C0214022407D
:1079E00024401840000010802040244024401B8088
:1079F000000002000D0011003FC0014000003C806B
:107A0000244024402440238000001F802440244040
:107A10003440038000003000200027C038002000E0
:107A200000001B802440244024401B8000001C00D8
:107A300022C0224022401F800000000000000840B9
:107A400000000000000000000000046000000000D2
:107A50000000000004000A001100208040400900DE
:107A600009000900090009000000000040402080D2
:107A700011000A0004001800200023402400180010
:107A800000001F802040274029401F400000004088
:107A900007C039000F0001C0004020403FC0244013
:107AA00024401B8000001F80204020402040308068
:107AB000000020403FC0204020401F8000002040A8
:107AC0003FC024402E4030C0000020403FC0244032
:107AD0002E00300000000F00108020402240338034
:107AE000020020403FC0040004003FC0204020406E
:107AF00020403FC020402040000000602020202087
:107B00003FC02000200020403FC024400B0030C078
:107B1000204020403FC020400040004000C03FC007
:107B20003C0003C03C003FC0000020403FC00C4070
:107B300023003FC020001F802040204020401F80A5
:107B4000000020403FC024402400180000001F8097
:107B50002140214020E01FA0000020403FC02440E1
:107B6000260019C0004018C0244024402240318023
:107B70000000300020403FC02040300000002000C6
:107B80003F80004000403F80200020003E0001C0B8
:107B9000070038002000380007C03C0007C038004C
:107BA0000000204039C0060039C0204000002000FD
:107BB000384007C0384020000000304021C0264037
:107BC000384020C00000000000007FE0402040203E
:107BD0000000000070000C00038000400000000066
:107BE000402040207FE00000000000002000400016
:107BF0002000000000000010001000100010001015
:107C00000010000000004000000000000000000024
:107C100002800540054003C0004020003FC00440F2
:107C2000044003800000000003800440044006403C
:107C3000000000000380044024403FC000400000DA
:107C400003800540054003400000000004401FC0C1
:107C5000244024402000000002E00550055006505A
:107C6000042020403FC00440040003C00040000046
:107C7000044027C000400000000000100010041065
:107C800027E00000000020403FC00140070004C082
:107C90000440204020403FC000400040000007C09A
:107CA000040007C0040003C00000044007C00440F3
:107CB000040003C00040000003800440044003802F
:107CC0000000041007F0045004400380000000008E
:107CD00003800440045007F00010044007C0024035
:107CE000040004000000000006400540054004C0F8
:107CF0000000000004001F80044000400000040059
:107D000007800040044007C000400400070004C092
:107D1000018006000400060001C0070001C0060043
:107D20000000044006C0010006C00440000004102A
:107D3000071004E00180060004000000044005C0B4
:107D40000640044000000000000004007BE04020EA
:107D50000000000000000000FFF000000000000034
:107D600040207BE004000000000040008000400054
:107D70002000200040000000000000000000000083
:107D80000000000000000000000000001FCC000CFC
:107D90000000000000000000080030006000080043
:107DA000300060000000022003FC1E20022003FCC3
:107DB0001E200220000000000E1811043FFF108456
:107DC0000C78000000000F0010840F3800C0077806
:107DD00018840078000000780F8410C411240E98D5
:107DE00000E4008400080800680070000000000043
:107DF00000000000000000000000000007E018186C
:107E0000200440020000000040022004181807E08F
:107E10000000000000000240024001800FF00180DD
:107E20000240024000000080008000800FF80080C7
:107E30000080008000000001000D000E0000000026
:107E40000000000000000000008000800080008032
:107E50000080008000800000000C000C000000008A
:107E60000000000000000000000600180060018013
:107E7000060018002000000007F008081004100495
:107E8000080807F000000000080408041FFC0004B4
:107E900000040000000000000E0C10141024104418
:107EA00011840E0C000000000C18100411041104C1
:107EB00012880C700000000000E003200424082455
:107EC0001FFC0024000000001F98108411041104FE
:107ED000108810700000000007F0088811041104D9
:107EE00018880070000000001C00100010FC130037
:107EF0001C001000000000000E3811441084108493
:107F000011440E38000000000700088C1044104493
:107F1000088807F00000000000000000030C030CBC
:107F20000000000000000000000000010106000049
:107F3000000000000000000000800140022004104A
:107F40000808100400000220022002200220022063
:107F50000220022000000000100408080410022083
:107F600001400080000000000E001200100C106C98
:107F700010800F00000003E00C1813E4142417C451
:107F8000082807D000000004003C03C41C40074040
:107F900000E4001C000410041FFC1104110411046F
:107FA0000E880070000003E00C1810041004100488
:107FB00010081C10000010041FFC10041004100412
:107FC000080807F0000010041FFC1104110417C476
:107FD00010040818000010041FFC1104110017C041
:107FE00010000800000003E00C18100410041044F6
:107FF0001C780040000010041FFC108400800080EA
:1080000010841FFC10040000100410041FFC100456
:1080100010040000000000030001100110011FFE09
:1080200010001000000010041FFC110403801464F1
:10803000181C1004000010041FFC100400040004AD
:108040000004000C000010041FFC1F0000FC1F00B7
:108050001FFC1004000010041FFC0C04030000E0CF
:1080600010181FFC100007F008081004100410047A
:10807000080807F0000010041FFC10841080108016
:1080800010800F00000007F0081810241024101CA6
:10809000080A07F2000010041FFC1104110011C0AF
:1080A00011300E0C000400000E1C1104108410840A
:1080B00010441C3800001800100010041FFC1004AD
:1080C00010001800000010001FF810040004000445
:1080D00010041FF8100010001E0011E0001C0070BA
:1080E00013801C0010001FC0103C00E01F0000E0C7
:1080F000103C1FC000001004180C163401C001C051
:108100001634180C100410001C00130400FC130497
:108110001C00100000000804101C106410841304DC
:108120001C04101800000000000000007FFE400248
:10813000400240020000000030000C00038000609C
:10814000001C0003000000004002400240027FFECD
:10815000000000000000000000002000400040007F
:1081600040002000000000010001000100010001AA
:10817000000100010001000040004000200000005C
:1081800000000000000000000098012401440144A8
:10819000014400FC000410001FFC008801040104DD
:1081A00000880070000000000070008801040104D5
:1081B0000104008800000000007000880104010430
:1081C00011081FFC0004000000F8014401440144B0
:1081D000014400C800000000010401040FFC110468
:1081E000110411001800000000D6012901290129FD
:1081F00001C90106000010041FFC008401000100F9
:10820000010400FC000400000104190419FC00042E
:10821000000400000000000000030001010119013A
:1082200019FE0000000010041FFC0024004001B4EF
:10823000010C010400000000100410041FFC0004E5
:10824000000400000000010401FC0104010001FC25
:108250000104010000FC010401FC00840100010094
:10826000010400FC0004000000F801040104010402
:10827000010400F80000010101FF00850104010470
:1082800000880070000000000070008801040104F4
:10829000010501FF00010104010401FC0084010447
:1082A000010001800000000000CC01240124012411
:1082B00001240198000000000100010007F80104FA
:1082C000010400000000010001F8000400040004A3
:1082D000010801FC0004010001800170000C001085
:1082E00001600180010001F0010C003001C000308C
:1082F000010C01F0010000000104018C0074017008
:10830000018C01040000010101810171000E0018BF
:1083100001600180010000000184010C013401446E
:108320000184010C000000000000000000000100BA
:108330003EFC400240020000000000000000FFFF81
:108340000000000000000000400240023EFC01006E
:10835000000000000000000060008000800040007D
:10836000400020002000000000000000000000008D
:1083700000000000000000000000000000000000FD
:1083800000000000000000000000000000000000ED
:108390000000000000000000000F80380FFE380FC2
:1083A0008038000000000000000000000000000015
:1083B000000000000100000600000C000038000072
:1083C0003100000600000C00003800003000000002
:1083D00000000000000061800067F807F98000617C
:1083E000800061800061800061800067F807F9808B
:1083F00000618000000000000000000001C0E003F8
:10840000E0F00630080418081FFFFE040E08078776
:10841000F00381E000000000000001F000060C0005
:10842000040408060C7001F9C0000E00003BE000D7
:10843000EC18070808040C180003E0000000000115
:10844000E00007F003F818041C0804170807E1D03F
:1084500003C0E00023B0003C08002008000010002A
:1084600000000000000100003100003200001C008C
:1084700000000000000000000000000000000000FC
:1084800000000000000000000000000000000000EC
:108490000000000000007F0001FFC00780F00C001A
:1084A000181000042000020000000000002000025C
:1084B0001000040C00180780F001FFC0007F0000CE
:1084C00000000000000000000000000000000000AC
:1084D00000004200006600006600003C000018003A
:1084E00003FFC0001800003C0000660000660000AA
:1084F000420000000000080000080000080000081A
:108500000000080001FFC00008000008000008008B
:108510000008000008000000000000010000310019
:10852000003200001C0000000000000000000000FD
:108530000000000000000000000000000000080033
:108540000008000008000008000008000008000003
:1085500008000008000008000008000000000000FB
:108560000000000000003800003800003800000063
:1085700000000000000000000000000000000000FB
:10858000000000000000000600001C000070000158
:1085900080000E0000380000C0000700001C000032
:1085A000300000000000000000007F8001FFE003B9
:1085B00080700600180400080400080600180380F4
:1085C0007001FFE0007F800000000000000000005C
:1085D00001000801000801000803FFF807FFF80088
:1085E0000008000008000008000000000000000073
:1085F0000001C03802C05804009804011804021891
:10860000040418061C1803F81801E0F80000000024
:10861000000000000001C0E003C0F00400080408EE
:108620000804080806180803F41801E7F00001E040
:10863000000000000000000000000300000D00002A
:10864000110000610000810803010807FFF80FFF17
:10865000F80001080001080000000000000000E030
:1086600007FCD006080806100806100806100806C1
:108670001838060FF00607C00000000000000000D8
:1086800000003F8001FFE003843002081804100856
:10869000041008041008071810030FF00007C000AA
:1086A000000000000000000003C0000700000600FA
:1086B000000600F80607F806180006E000070000AC
:1086C00006000000000000000001E1E003F7F006F2
:1086D0003410041808041808040C08040C080616C2
:1086E0001803F3F001C1E000000000000000F800F2
:1086F00003FC3003063804020804020804020804DC
:1087000004100308F001FFC0007F0000000000001B
:1087100000000000000000000000000000007038B1
:1087200000703800703800000000000000000000F9
:108730000000000000000000000000000000000039
:108740000000301A00301C00000000000000000093
:108750000000000000000000000000000008000011
:10876000140000220000410000808001004002004F
:108770002004001008000800000000000000210094
:108780000021000021000021000021000021000044
:108790002100002100002100002100000000000055
:1087A0000000000008000804001002002001004042
:1087B000008080004100002200001400000800003A
:1087C000000000000003C00004C000040000080016
:1087D00038080F380808380810000C300007E0008F
:1087E00003C000000000000000003F8000FFE00325
:1087F0008070020F1006708804C088048308047F0C
:108800008802C09003012000FE400000080000180C
:108810000001F8003E0801C20007020007E2000064
:10882000FE00001FC80001F8000038000008040026
:108830000807FFF807FFF8040808040808040808F8
:1088400004080806180803F41801E7F00001E00026
:108850000000000000003F8001FFE0038070020084
:108860001804000804000804000804001006002092
:108870000780C000000004000807FFF807FFF804A5
:108880000008040008040008040018020010038017
:108890007001FFE0007F8000000004000807FFF87F
:1088A00007FFF80408080408080408080408080476
:1088B0003E080400080600180100600000000400E3
:1088C0000807FFF807FFF804080804080004080078
:1088D000040800043E0006000006000001800000BD
:1088E0000000000000003F8001FFE00380700600F0
:1088F000180400080402080402080203F00783F0C9
:1089000000020000020004000807FFF807FFF80457
:10891000080800080000080000080000080004081B
:108920000807FFF807FFF804000800000000000037
:1089300004000804000804000807FFF807FFF80413
:108940000008040008040008000000000000000007
:1089500000000006000007000001040001040001FF
:1089600004000307FFFE07FFFC04000004000004EE
:10897000000004000807FFF807FFF8040C080018BF
:1089800000003E0004C7800503C80600F804003854
:1089900004001800000804000807FFF807FFF804A7
:1089A000000800000800000800000800000800009F
:1089B0000800001800006000000004000807FFF82D
:1089C00007800807FC00007FC00003F80007C00014
:1089D000780007800807FFF807FFF8040008040084
:1089E0000807FFF807000803C00000E00000380097
:1089F000001E000007000001C00400F007FFF8049B
:108A00000000000000007F8001FFE003807006008E
:108A10001804000804000806001803003001FFE0F5
:108A2000007F8000000004000807FFF807FFF8043B
:108A30000408040400040400040400040400060CF8
:108A40000003F80001F000000000000000007F803B
:108A500001FFE00380700600880400880400C80657
:108A6000003C03003E01FFE6007F8400000004009C
:108A70000807FFF807FFF8040808040800040C00C2
:108A8000040F00040BC00610F003F03801E00800EA
:108A9000000800000001E0F803F030063010041870
:108AA00008041808040C08040C080206180207F051
:108AB0000781E000000001800006000004000004BF
:108AC000000004000807FFF807FFF804000804008E
:108AD0000004000006000001800004000007FFE021
:108AE00007FFF0040018000008000008000008005C
:108AF000000800000804001007FFE0040000040064
:108B00000006000007E00007FE00041FE00001F877
:108B10000000380001E0043E0007C0000600000429
:108B2000000004000007E00007FFC0041FF8000772
:108B3000C007F80007FF80043FF80007C004F800F2
:108B400007000004000000000004000806001807E9
:108B5000C07805F1C8003E00001F800463E807806C
:108B6000F8060018040008000000040000060000D9
:108B700007800007E008047C08001FF80007F800E1
:108B8000180804E0080700000600000400000000C8
:108B9000000100080600380400F80403E8040F0888
:108BA000047C0805F00807C00807001804006000EE
:108BB00000000000000000000000000000000000B5
:108BC000003FFFFE200002200002200002200002E1
:108BD0002000020000000000000000000800000764
:108BE000000000C0000038000006000001C00000C6
:108BF0003000000E00000100000000000000000036
:108C00002000022000022000022000022000023F7B
:108C1000FFFE000000000000000000000000000057
:108C200000000000000000080000100000300000FC
:108C300020000030000010000008000000000000CC
:108C40000000000001000001000001000001000020
:108C5000010000010000010000010000010000010E
:108C600000000100000100000000000000000020E2
:108C700000002000001000001000000000000000B4
:108C8000000000000000000000000000000000F0F4
:108C90000019F8001B18002208002608002408000C
:108CA0002410003FF8001FF8000008000018000022
:108CB0000004000007FFF80FFFF00018180010086C
:108CC000002008002008003018001FF0000FC0002E
:108CD00000000000000007C0001FF0001830002056
:108CE00008002008002008003C08001C100000605C
:108CF0000000000000000000000007C0001FF0009E
:108D0000381800200800200800200804101007FF71
:108D1000F80FFFF00000100000000000000000004D
:108D20000007C0001FF000123000221800220800C7
:108D30002208003208001E10000E20000000000073
:108D40000000200000200800200801FFF803FFF8C1
:108D50000620080420080420080720000300000063
:108D6000000000000000000E000E6E001FF3003136
:108D7000B10020B10020B1003191001F13002E1E60
:108D800000200E00300000000004000807FFF80F6C
:108D9000FFF8001008002000002000002008003F1D
:108DA000F8001FF8000008000000000000000000AC
:108DB000002008002008002008063FF8063FF800C1
:108DC000000800000800000800000000000000008B
:108DD000000000000000030000030020010020014B
:108DE000002003063FFE063FFC00000000000000DC
:108DF000000000000004000807FFF80FFFF8000162
:108E000088000300002FC00038F800203800200838
:108E1000000008000000000000000000040008043A
:108E2000000804000807FFF80FFFF8000008000022
:108E300008000008000000000000002008003FF8C3
:108E4000003FF8001008002000003FF8003FF80045
:108E50001008002000003FF8003FF8000008000064
:108E600000002008003FF8003FF800100800100044
:108E7000002000002008003FF8001FF80000080054
:108E800000000000000007C0000FF00018300030A4
:108E900008002008002008003008001830000FF0FB
:108EA0000007C0000000000000002001003FFF009C
:108EB0003FFF0010110020090020080020080030AA
:108EC00038001FF0000FC00000000000000007C0C5
:108ED000001FF000381800200800200800200900BA
:108EE0001011001FFF003FFF0000010000000020E4
:108EF00008002008002008003FF8003FF80008089C
:108F000000100800200800200000300000300000A1
:108F10000000000000000000000C78001E18003364
:108F2000080023080021080021880021980030F063
:108F30000038600000000000000020000020000059
:108F4000200000FFF003FFF80020080020080020A8
:108F500008000030000000000000000000002000B9
:108F6000003FF0007FF80000180000080000080033
:108F70002010003FF8007FF000001000000000000B
:108F800000002000003000003C00003F800023F083
:108F9000000078000070002380003C0000300000DA
:108FA0002000002000003C00003FE00023F800000B
:108FB000E0002700003E00003FE00021F80001E053
:108FC000003E0000200000000000200800200800F3
:108FD0003838003E680027800003C8002CF80038AD
:108FE00038002018002008000000000000002000C9
:108FF000003003003C01003F830023EC00007000C0
:109000002380003C00002000002000000000000041
:10901000000000000038080020380020F80023E895
:10902000002F88003E08003808002018000070005B
:109030000000000000000000000000000000000030
:10904000000008000014001FF7FC3000062000029A
:109050000000000000000000000000000000000010
:109060000000000000000000FFFFFF000000000003
:1090700000000000000000000000000000000000F0
:109080002000023000061FF7FC001400000800005A
:1090900000000000000000000000000000000000D0
:1090A00000180000600000400000400000200000A8
:1090B0001000000800000400000400000C00001074
:1090C0000000303132333435363738394142434489
:1090D0004546403058003031323334353637383930
:1090E0006162636465664030780000000C9100089E
:1090F00000000020F0000000C4010008FC910008FE
:10910000F0000020885A0000E00100080000000084
:10911000000000000000000000000000FFFF000051
:10912000000000001F0000001FF80000E0FF00002A
:10913000FF07000000F800001FF80000E007000033
:10914000FF7F0000E0FF000040BC000007FC0000C3
:1091500030840000007A030A0000000000000000D4
:1091600001020304060708090000FFFF01000000D8
:1091700000000000000000000000000001020304E5
:1091800001020304060708090000000000000000B7
:1091900000000000000000000000000000000000CF
:1091A00000000000000000000000000000000000BF
:1091B00000000000000000000000000000000000AF
:1091C000000000000000000000000000000000009F
:1091D000000000000000000000000000AAAAAAAAE7
:1091E000000000000000000000000000000000007F
:0C91F00000000000000000000000000073
:040000050800018965
:00000001FF
