:020000040800F2
:10000000285B0020F10200089F080008590800083A
:100010009D080008B9070008B90E0008000000009C
:10002000000000000000000000000000390200088D
:10003000BB070008000000008D020008BD0A000890
:100040000B0300080B0300080B0300080B03000858
:100050000B0300080B0300080B0300080B03000848
:100060000B0300080B0300080B0300080B03000838
:100070000B0300080B0300080B0300080B03000828
:100080000B0300080B0300080B0300080B03000818
:100090000B0300080B0300080B0300080B03000808
:1000A0000B0300080B0300080B0300080B030008F8
:1000B0000B0300082D0B00080B0300080B030008BE
:1000C0000B0300080B0300080B0300080B030008D8
:1000D0000B0300081D0D00080B0300080B030008AC
:1000E0000B0300080B0300080B0300080B030008B8
:1000F0000B0300080B0300080B0300080B030008A8
:100100000B0300080B030008C50B00080B030008D5
:100110000B0300080B0300080B0300080B03000887
:100120000B0300080B0300080B0300080B03000877
:100130000B0300080B0300080B0300080B03000867
:100140000B0300080B0300080B0300080B03000857
:100150000B0300080B0300080B0300080B03000847
:100160000B0300080B0300080B0300080B03000837
:100170000B0300080B0300080B0300080B03000827
:100180000B0300080B03000800F002F800F044F82D
:100190000AA090E8000C82448344AAF10107DA45E2
:1001A00001D100F039F8AFF2090EBAE80F0013F0F0
:1001B000010F18BFFB1A43F001031847182C000069
:1001C000382C0000103A24BF78C878C1FAD85207FA
:1001D00024BF30C830C144BF04680C6070470000C1
:1001E0000023002400250026103A28BF78C1FBD840
:1001F000520728BF30C148BF0B607047642900F028
:100200000381732900F01082002070471FB502F0AF
:10021000DBFD1FBD10B510BD00F09BFA1146FFF7C6
:10022000F5FF00F0DDFE00F0B9FA03B4FFF7F2FFCE
:1002300003BC00F042FE00002A4B19680868B0E8D1
:10024000F04F80F30988BFF36F8F4FF0000080F309
:10025000118870470000000006480068006880F3BD
:10026000088862B661B6BFF34F8FBFF36F8F00DFB0
:1002700000BF00BF08ED00E0DFF80C00016841F4AA
:1002800070010160704700BF88ED00E0EFF3098066
:10029000BFF36F8F134B1A681EF0100F08BF20EDCD
:1002A000108A20E9F04F106008B44FF0500080F33E
:1002B0001188BFF34F8FBFF36F8F01F055FF4FF0E1
:1002C000000080F3118808BC19680868B0E8F04F96
:1002D0001EF0100F08BFB0EC108A80F30988BFF33E
:1002E0006F8F70473C000020EFF3058070470000DF
:1002F0000948804709480047FEE7FEE7FEE7FEE7BA
:10030000FEE7FEE7FEE7FEE7FEE7FEE704480549F5
:10031000054A064B70470000D10A00088901000811
:1003200028550020285B002028570020285700204F
:10033000704700000FB4044910B503AA029800F0FA
:1003400077F910BC5DF814FB280000202DE9F0417E
:100350000E460446002020622046E168884730B3FC
:10036000252805D0D4E901219047206A401CF2E7F6
:10037000E168204600278847050018D0A5F1410014
:10038000192802D820354FF4006732462946204606
:100390002760FFF733FF40B1012804D0F61D26F097
:1003A00007060836D8E7361DD6E72846DAE7206A7A
:1003B000BDE8F08170B50C460546012A05D02878C5
:1003C000800600D5EA69002302E0012305E05B1CFA
:1003D000934202D2E05C0028F9D1A869E618C01A5D
:1003E000A861286A184428622846AFF3008004E018
:1003F000D5E9012114F8010B9047B442F8D32846FF
:10040000AFF3008070BD00002DE9F04106460024E6
:1004100010687529314616A510D0AFF3008000286A
:1004200002DA404213A507E031688A0701D512A518
:1004300002E0490704D511A5012401E0AFF30080D3
:1004400000210A2206F1240709E0B0FBF2FCB0FB10
:10045000F2F302FB1C00303078541846491C002887
:10046000F3D123462A463046BDE8F04100F059B8A2
:10047000000000002D0000002B0000002000000004
:10048000032A40F2308010F0030C00F0158011F8C0
:10049000013BBCF1020F624498BF11F801CB00F898
:1004A000013B38BF11F8013BA2F1040298BF00F8EC
:1004B00001CB38BF00F8013B11F0030300F0CA8004
:1004C000083AC0F0088051F8043B083A51F804CBD0
:1004D000A0E80810F5E7121D5CBF51F8043B40F896
:1004E000043BAFF30080D20724BF11F8013B11F8A1
:1004F00001CB48BF11F8012B24BF00F8013B00F8E5
:1005000001CB48BF00F8012B704702F0FF0343EA1C
:10051000032242EA024200F0D1B8704770477047A8
:1005200070472DE9F0470D4699469246044600F182
:1005300024080168880604D5E06921F010012160D3
:1005400000E00120A84201DD471B00E00027A1696F
:100550007A1902EB0900081AA0612078C00602D4BB
:100560002046AFF30080002608E0D4E901211AF804
:1005700006009047206A401C761C20624E45F4DB42
:100580002078C0060AD52046AFF3008006E0D4E903
:10059000012130209047206A401C2062381EA7F1BC
:1005A0000107F4DC07E0D4E9012118F805009047C1
:1005B000206A401C2062281EA5F10105F3DC2046BC
:1005C000AFF300802078000602D50220BDE8F08756
:1005D0000120FBE701694A1C02610878704700B5F9
:1005E0008FB0CDE901310021059105497944CDE96C
:1005F000031011466846FFF7A9FE0FB000BD0000CA
:10060000E5FFFFFF10B5436913B1AFF3008001E0D0
:10061000FFF7D0FE012010BD127800F124010A700E
:1006200000224A700122EDE711684FF0FF32E9E73E
:10063000074B70B50D467B44FFF7D1FF04462846B3
:1006400000F05CF810B14FF0FF3070BD204670BD77
:100650000B09000010B5203AC0F00B80B1E818502B
:10066000203AA0E81850B1E81850A0E81850BFF49C
:10067000F5AF5FEA027C24BFB1E81850A0E818503B
:1006800044BF18C918C0BDE810405FEA827C24BF8F
:1006900051F8043B40F8043B08BF7047D20728BF1D
:1006A00031F8023B48BF11F8012B28BF20F8023B6C
:1006B00048BF00F8012B70474FF000020429C0F03A
:1006C000128010F0030C00F01F80CCF1040CBCF180
:1006D000020F18BF00F8012BA8BF20F8022BA1EBD6
:1006E0000C0100F011B85FEAC17C24BF00F8012BB7
:1006F00000F8012B48BF00F8012B7047007B00F089
:10070000800070474FF0000200B5134694469646AD
:10071000203922BFA0E80C50A0E80C50B1F1200114
:10072000BFF4F7AF090728BFA0E80C5048BF0CC0C2
:100730005DF804EB890028BF40F8042B08BF704720
:1007400048BF20F8022B11F0804F18BF00F8012B92
:100750007047754600F02CF8AE46050069465346D2
:1007600020F00700854618B020B5FFF7CFFDBDE8A3
:1007700020404FF000064FF000074FF000084FF008
:10078000000B21F00701AC46ACE8C009ACE8C00999
:10079000ACE8C009ACE8C0098D46704710B5044606
:1007A000AFF300802046BDE81040FFF73EBD0000DB
:1007B00000487047C4540020FEE77047F0B500229F
:1007C00001274FF0030C0B6807FA02F52B40AB42F0
:1007D0002CD1066853000CFA03F4A64306600E7988
:1007E000D0F800E09E4046EA0E0606600E79012E23
:1007F00001D0022E12D18668A64386604E79D0F8C9
:1008000008E09E4046EA0E0686604668AE434660B3
:1008100045688E799640B6B235434560C568A543B4
:10082000C560CC799C40C3681C43C460521C102A2C
:10083000C9D3F0BD4B07DB0E9A40C90810B500EBD9
:100840008100016A0F249C40A1430162016A1143A7
:10085000016210BD01837047FEE700007CB50121F5
:10086000202000F059F801208DF8040000228DF8B6
:10087000062003218DF80510074D4FF4C0648DF854
:100880000700009469462846FFF798FF214628464E
:10089000FFF7E0FF7CBD000000140240FEE7704758
:1008A00030B50F23C27801780125FAB1144A1268D5
:1008B00001F1E02102F4E062C2F5E062C2F3072236
:1008C000C2F10404D3404278A24084781C4014430F
:1008D000220181F80024007800F01F018D404009BA
:1008E000800000F1E020C0F8005130BD01F01F0091
:1008F00085404809800000F1E020C0F8805130BDFB
:100900000CED00E00249084302490860704700000E
:100910000000FA050CED00E0044A0029116801D03E
:10092000014300E08143116070470000303802400D
:10093000044A0029116801D0014300E0814311609D
:100940007047000040380240044A0029116801D075
:10095000014300E0814311607047000044380240C9
:1009600070B5204B1968204C11F00C0104D06610B2
:10097000042903D0082903D004601BE0066019E0B5
:10098000184A121F1168C1F38055116801F03F0128
:1009900015B1B6FBF1F101E0B4FBF1F11468126896
:1009A000C4F388146143C2F30142521C5200B1FBEC
:1009B000F2F1016019680F2202EA11110B4A545C2E
:1009C0000168E14041601C68072505EA9424145D34
:1009D00021FA04F484601B6805EA5333D25CD140E9
:1009E000C16070BD083802400024F4002C000020D3
:1009F0000CB50022274900920192086840F480302B
:100A000008604FF4A043086800F40030019000989B
:100A1000401C0090019810B900989842F3D10868E2
:100A2000800334D5012001901A484030026842F01A
:100A3000805202601848026842F440420260154841
:100A4000083002680260026842F4004202600268F4
:100A500042F4A0520260031F104A1A600A6842F072
:100A600080720A600A689201FCD50D4940F2057255
:100A70000A60016821F003010160016841F0020190
:100A800001600168C1F381010229FAD10CBD019214
:100A90000CBD0000003802400070004008544007C0
:100AA000003C02404FF0E0210428086903D020F008
:100AB00004000861704740F00400FAE710B501F047
:100AC00027FF012803D0BDE8104001F015BC10BD80
:100AD000124810B5016841F47001016010480168C6
:100AE00041F0010101600E4A0021083211600268E4
:100AF0000C4B1A400260031D0B4A1A60026822F474
:100B00008022026006480C300160FFF771FF034944
:100B10004FF000608039086010BD000088ED00E0F3
:100B200000380240FFFFF6FE1030002410B5084CDC
:100B30000121204600F09FF8012802D105A0FFF70F
:100B4000F9FB2046BDE81040012100F087B8000005
:100B50000004004054494D33CAE4B3F62E2E2E2E25
:100B60002E2E2E0D0A0000007FB50D4604460121F1
:100B70000220FFF7DDFE0194ADF800500024104D77
:100B8000ADF80240ADF808406946284600F088F804
:100B900001221146284600F07AF80121284600F08B
:100BA00060F81D208DF80C0004208DF80D008DF8E4
:100BB0000E4001208DF80F0003A8FFF771FE7FBDE6
:100BC0000004004010B5084C0121204600F053F805
:100BD000012802D105A0FFF7ADFB2046BDE810407B
:100BE000012100F03BB80000000C004054494D3595
:100BF000CAE4B3F62E2E2E2E2E2E2E0D0A00000045
:100C00007FB50D46044601210820FFF791FE0194AF
:100C1000ADF800500024104DADF80240ADF808408A
:100C20006946284600F03CF801221146284600F0AB
:100C30002EF80121284600F014F832208DF80C001F
:100C400005208DF80D008DF80E4001208DF80F0065
:100C500003A8FFF725FE7FBD000C0040C9430182B9
:100C600070470029018802D041F0010101E021F024
:100C700001010180704702460020138A92890B42CD
:100C800002EA010202D0002A00D001207047002AA7
:100C9000828901D00A4300E08A43828170470000C4
:100CA00030B50288164C174DA0420DD0A8420BD08B
:100CB000B0F1804F08D0144B984205D0134B9842A6
:100CC00002D0134B984203D122F070034A881A4392
:100CD000104B984206D0104B984203D022F4407338
:100CE0000A891A4302804A68C2620A880285A042C1
:100CF00001D0A84201D1897A01860121818230BDCB
:100D000000000140000401400004004000080040D1
:100D1000000C0040001000400014004070B5154C5D
:100D200040F22551204600F035F800280ED020462C
:100D300000F0BEF8104AC1B21088030406D444047F
:100D40004FF0000306D50A2901D0138070BD40F48E
:100D500000400DE00D2909D0C0F30D04074D401CE3
:100D600080B229551080C728EFD870BD40F480406C
:100D7000108070BD0010014024000020B000002051
:100D80000029818902D041F4005101E021F4005191
:100D90008181704770B501F01F0501260024C1F361
:100DA000421306FA05F2012B0FD0022B0FD0838AD3
:100DB0004FEA11210088134206FA01F600EA060004
:100DC00001D000B10124204670BD8389F0E7038A79
:100DD000EEE710B5C1F3421301F01F040121A14059
:100DE000012B07D0022B07D01430002A026805D04F
:100DF0000A4304E00C30F8E71030F6E78A4302605B
:100E000010BD00007FB50446008A0D46C98820F455
:100E1000405001432182A08941F20C618843A98896
:100E20002A8911436A8902431143A181A08A20F4CF
:100E30004071A8890843A0826846FFF791FD1A48CF
:100E4000844202D01948844201D1039800E00298FC
:100E5000A189090400EBC00101EB0010296801D54C
:100E6000490000E08900B0FBF1F06422B0FBF2F130
:100E700009010B096FF018056B4300EB8300A38990
:100E80001D044FF0320306D503EBC000B0FBF2F0B7
:100E900000F0070005E003EB0010B0FBF2F000F0FB
:100EA0000F00084320817FBD001001400014014065
:100EB0008088C0F308007047FEE7704710B504460D
:100EC0000420FFF7EFFD0A484FF47A71047014FB19
:100ED00001F1012242804FF0E020026942F002025B
:100EE00002614161016941F00101016110BD000031
:100EF0002000002070B54FF0E02500216C69094A00
:100F0000AB6912785043AA699A42FCD002D2A3EB93
:100F1000020302E0A4EB0206334419441346814263
:100F2000F1D370BD2000002070B5054600244FF4B9
:100F30007A7603E03046FFF7DDFF641CAC42F9D35C
:100F400070BD000003490A885206FCD5C2B28A80EF
:100F50007047000000100140134C144D41F28836D8
:100F60004FF47A772068401C2060052812D110A029
:100F7000FFF7E0F9502080F31188BFF34F8FBFF3E4
:100F80006F8F3046FFF7D0FF0FA0FFF7D3F9002097
:100F900080F31188D5F8A402C043C5F8A4023846EE
:100FA00000F030FFDEE70000000000200080424239
:100FB000B9D8B1D5D6D0B6CF2E2E2E2E2E2E2E2E7F
:100FC0002E2E2E2E2E0D0A00B4F2BFAAD6D0B6CFEA
:100FD0002E2E2E2E2E2E2E2E2E2E2E2E2E0D0A00A4
:100FE0007CB54FF44070FFF78DFCA820FFF766FF3B
:100FF0004FF4E13000F026FDFFF730FC42F2CF0461
:1010000042F20F7521462846FFF7AEFD21462846DD
:10101000FFF7F6FD06490120CDE900010202002399
:1010200004A1074801F048FC01F04CF800207CBD09
:101030000400002073746172745F7461736B00004C
:10104000011A00082DE9F041184E0F460446F568D4
:101050003068001D00F04CFD38B9306890F82C1055
:1010600001208840316981433161601C07D137B16B
:101070003168BDE8F0410E48091D00F071BD3068CF
:101080002C44AC424460316805D2B06BBDE8F041FD
:10109000091D00F04DBD706B091D00F049FDB06ADF
:1010A000844200D2B462BDE8F08100003C00002020
:1010B000880400202DE9F041054600F05DFD2D4E2D
:1010C000B068401CB06030682B4F10B1706930B30D
:1010D0002BE03560B068012827D1002404EB8400A0
:1010E00007EB800000F016FD641C202CF6D323488B
:1010F00000F010FD2148143000F00CFD1F4828308E
:1011000000F008FD1D483C3000F004FD1B48503045
:1011100000F000FD194870631430B06305E03068DA
:10112000E96AC06A884200D83560706A0121401CB3
:1011300070626864E86A326981401143316100EB92
:10114000800007EB8000291D00F00AFD00F050FD33
:10115000706900280CD03068E96AC06A884207D2FA
:1011600007494FF080500860BFF34F8FBFF36F8F78
:10117000BDE8F0813C000020B801002038040020C8
:1011800004ED00E010B500F0F7FC0E4C2068A0B9AB
:101190000D4800F0BFFC0C48143000F0BBFC0A48BE
:1011A000E0601430206100221021052001F0BAF81F
:1011B000206010B105A100F0F1FDBDE8104000F085
:1011C00017BD0000780000209C040020546D72516F
:1011D0000000000070B5124E124D1CE000F0BCFF84
:1011E000306820B1002401F0C1FCA4B901E0012461
:1011F000F9E700F0C1FCF068C468201D00F078FC3D
:10120000A868401EA8606868401E686000F0F0FC96
:10121000204600F052F868680028DFD170BD000059
:10122000740400203C00002030B4026C0B46002AFD
:101230000BD0C1681144C1604468A14201D3016868
:10124000C16030BC1846FFF71BB930BC70472DE9B0
:10125000F041856B174604460026026C82B1C7B187
:10126000E068FFF70DF9E168206C091AE160226877
:10127000914202D26168081AE060022F16D017E08E
:101280002068A8B9606801F0CBFB064600206060CA
:101290000EE0A068FFF7F4F8216CA0680844A06095
:1012A0006168884204D32068A06001E005B16D1E2A
:1012B0006D1CA5633046BDE8F08110B50446006B97
:1012C00000F0C8FC2046BDE8104000F0C3BC0000A0
:1012D00010484FF4A041420706D0C01D0D4920F030
:1012E0000700411AC1F5A0410B4A00230144C2E99D
:1012F00000030839103A21F0070111604B600B60C0
:101300000B1AC0E9001393604FF000405360D060A7
:1013100070470000C4040020A8000020074E4FF0D2
:101320008054074DFFF756FF30680128FAD92C602A
:10133000BFF34F8FBFF36F8FF4E70000B8010020B9
:1013400004ED00E02DE9F047DDE909840E4617467B
:10135000824691009946089DA522206BFFF7D5F89B
:101360006FF00301206B01EB8701084420F00707B1
:10137000780705D040F22B3219A11EA0FEF7DAFF44
:1013800000202218315C82F83410315C11B1401C0D
:101390001028F6D3002684F84360202D00D31F25A3
:1013A000E562C4E91356201D00F0BFFB04F11800EC
:1013B00000F0BBFB2461C5F120006462A06166659A
:1013C00084F858604A465146384600F003FB2060D6
:1013D000B8F1000F01D0C8F80040BDE8F087000068
:1013E0002E2E5C4672656552544F535C7461736B6C
:1013F000732E63004572726F723A25732C25640D4B
:101400000A00000030B5114900E011460A68824226
:10141000FBD34B685C18844203D140681844486091
:10142000084643681C18944209D1084C103C2468B3
:10143000A24209D052681A4442600A6812680260E7
:10144000814200D0086030BD0460F9E7A8000020A8
:1014500070B5002441600B4D0061914206D8D11A4D
:101460008269914206D2011D286907E09A4203D29F
:10147000994201D3012403E0011DE86800F058FB04
:10148000204670BD7800002010B5044600F074FBC3
:10149000A06B20B1002400F0ABFB204610BD01245E
:1014A000F9E700002DE9F34100980F460026846C0F
:1014B0002CB940F6CE1216A11AA0FEF73BFFA06B86
:1014C000E16B884205D340F6CF1211A115A0FEF7BB
:1014D00031FFA06BE16B88420CD294F945503A463B
:1014E00069462046FFF7B3FE0646681C05D06D1C12
:1014F00084F845503046BDE8FC81606A0028F9D088
:1015000004F1240001F0E6FA0028F3D00126F1E707
:101510002E2E5C4672656552544F535C717565752D
:10152000652E63004572726F723A25732C25640D27
:101530000A000000F8B5054614480E46C068C068A9
:10154000C468201D00F0D4FAE069012817D1A06911
:101550002B46411932462046FFF77AFF78B100202A
:101560000346014600902A46204601F0E5FB30B9CB
:1015700007494FF4027201F11800FEF7DBFE616AC1
:1015800001B02046BDE8F040084700007800002088
:101590009C2C000870B586B02F4E53E001980028AF
:1015A00006DADDE90301029A90470198002849DB39
:1015B000039C606910B1201D00F09AFA05A800F0A4
:1015C000A7F8054601980A283CD2DFE800F0050597
:1015D000053B273805053B270298A16903460144CE
:1015E0002A462046FFF734FF00282BD0616A2046A8
:1015F0008847E069012825D1002000900298A16960
:10160000002342181946204601F096FBD0B940F25B
:10161000213212A117A0FEF78DFE13E00298A061FF
:1016200028B94FF44E720DA112A0FEF783FEA069F7
:101630002B4641191A462046FFF70AFF02E02046D2
:1016400000F008FB00231A4601A9306800F0A6FE4E
:101650000028A3D106B070BD780000202E2E5C4675
:1016600072656552544F535C74696D6572732E6375
:10167000000000004572726F723A25732C25640DCC
:101680000A000000F8B50D46064600F065FD684604
:1016900000F03EF80446009810B101F067FAF8BD7A
:1016A0001148ADB101690968D9B10025311B2A463D
:1016B000006800F085FB01F059FA0028EFD10B49D2
:1016C0004FF080500860BFF34F8FBFF36F8FF8BDAE
:1016D000A642EBD801F04AFA21463046FFF72AFF2E
:1016E000F8BD0125E2E700007800002004ED00E0ED
:1016F0000648416B096829B1416BC968C9684968E6
:10170000816270474FF0FF31FAE700003C00002093
:1017100070B5054601F00AF9064E0446B0688442E9
:1017200003D200F009F8012000E0002028602046E4
:10173000B46070BD78000020F8B5184E26E0C0688F
:10174000C4680568201D00F0D3F9616A2046884707
:10175000E06901281AD1A0692844A84206D9246169
:101760006060211DF06800F0E3F90FE000200346FF
:10177000014600902A46204601F0DEFA30B90849B9
:1017800040F2923201F11800FEF7D4FDF0680168D2
:101790000029D4D13169C6E90310F8BD78000020D2
:1017A0009C2C000808484068401C05D040F20F12ED
:1017B00006A111A0FEF7BEFD502080F31188BFF3F3
:1017C0004F8FBFF36F8FFEE78C0000202E2E5C46FC
:1017D00072656552544F535C706F727461626C65D0
:1017E0005C525644535C41524D5F434D34465C70ED
:1017F0006F72742E630000004572726F723A257327
:101800002C25640D0A000000084CE068016839B11D
:10181000002139B10020FFF735FFFFF7BBFEF4E7E9
:101820000121F6E7C0680068F5E7000078000020B5
:101830002DE9F041044600F09FF994F9455004F178
:10184000240610E0A06C20B100212046FFF72AFEFC
:1018500004E0606A48B1304601F03CF908B100F09C
:101860006DFB6D1E6DB2002DECDC4FF0FF3684F881
:10187000456000F0BDF900F07FF994F9445004F19F
:10188000100709E0206948B1384601F023F908B192
:1018900000F054FB6D1E6DB2002DF3DC84F8446043
:1018A000BDE8F04100F0A4B92DE9F041054600265D
:1018B00000F052FC324F386808B9FFF709FDF868AC
:1018C00005424FD1002D4DD0083568070BD005F0EB
:1018D0000700C0F108000544680704D0BF2229A111
:1018E00032A0FEF727FD002D3CD07868854239D81C
:1018F000234910310846046801E021460446606827
:10190000A84202D220680028F7D13868B84684423D
:1019100028D00E682068086060680836401B1028D0
:101920000ED96719780704D0EC2216A11FA0FEF784
:1019300001FD6068401B786038466560FFF762FD16
:101940006168D8F804004246401AC8F80400D8F884
:101950000830984200D29060D8F80C000143002073
:10196000C4E9000101F002F9700705D04FF4967246
:1019700004A10EA0FEF7DEFC3046BDE8F0810000B9
:10198000980000202E2E5C4672656552544F535CC1
:10199000706F727461626C655C4D656D4D616E67F0
:1019A0005C686561705F342E630000004572726F81
:1019B000723A25732C25640D0A000000044908685A
:1019C00018B10868026D521C026508687047000073
:1019D0003C00002010B5031F4FF080741C601B1FDB
:1019E00021F001011960191F044B0B6014390A60C2
:1019F000091F6FF0020244380A6010BDA5170008E5
:101A00001CB500F0B9F809490220CDE90001C20176
:101A1000002307A10A4800F04FFF04480838406837
:101A200000F026FABDE81C4000F0E2B808000020F3
:101A3000696E746572727570745F7461736B0000A7
:101A4000590F0008F0B50646012187B00846FEF799
:101A500063FF01211020FEF777FF234D07220921A4
:101A60002846FEF7E7FE07220A212846FEF7E2FE97
:101A700002218DF814108DF815104FF4C060002469
:101A800004908DF8164001278DF8177004A9284698
:101A9000FEF794FEADF80440ADF80640ADF80840FE
:101AA000ADF80C400C20114CADF80A0000966946C8
:101AB0002046FFF7A7F901212046FFF761F901222F
:101AC00040F225512046FFF784F925208DF81800B3
:101AD00003208DF819008DF81A008DF81B7006A8E8
:101AE000FEF7DEFE07B0F0BD00000240001001402E
:101AF000D0E9013201699A60D0E901235A604A684D
:101B0000824201D182684A60002202610868401E58
:101B10000860704700F108014FF0FF32C0E9011280
:101B2000C1600161002101607047002101617047BF
:101B300030B50C68621C02D000F1080202E00269B4
:101B400004E01A4653681D68A542FAD953684B60F1
:101B500099608A60516008610168491C016030BD6C
:101B600042684A6093688B6093685960916008612D
:101B70000168491C01607047502080F31188BFF351
:101B80004F8FBFF36F8F09494868401C4860012898
:101B90000AD10748006810F0FF0F05D040F2B912D3
:101BA00004A10FA0FEF7C6BB704700008C00002008
:101BB00004ED00E02E2E5C4672656552544F535C76
:101BC000706F727461626C655C525644535C415232
:101BD0004D5F434D34465C706F72742E630000009D
:101BE0004572726F723A25732C25640D0A0000004D
:101BF00010B5084C606828B94FF4E07206A111A036
:101C0000FEF798FB6068401E606001D180F3118888
:101C100010BD00008C0000202E2E5C4672656552BF
:101C2000544F535C706F727461626C655C525644C1
:101C3000535C41524D5F434D34465C706F72742E5D
:101C4000630000004572726F723A25732C25640D93
:101C50000A00000070B500282AD0164DA0F1080433
:101C60006068E968084205D14FF4A07212A11CA077
:101C7000FEF760FB206828B140F241120EA118A0C7
:101C8000FEF758FB6068E968084211D02268002A14
:101C90000ED18843606000F05FFA606869680844AC
:101CA00068602046FFF7AEFBBDE8704000F05EBF05
:101CB00070BD0000980000202E2E5C4672656552B3
:101CC000544F535C706F727461626C655C4D656DEE
:101CD0004D616E675C686561705F342E6300000063
:101CE0004572726F723A25732C25640D0A0000004C
:101CF00006484FF47A710068B0FBF1F14FF0E02034
:101D0000491E416107210161704700000C0000205D
:101D100010B5FEF7E9FA104C10280CD300F1E020C2
:101D200090F8F0032178884205D24FF440720BA15D
:101D300015A0FEF7FFFA18480068A16800F4E060FB
:101D4000884207D9BDE810404FF4447203A10EA0A9
:101D5000FEF7F0BA10BD00008C0000202E2E5C466D
:101D600072656552544F535C706F727461626C653A
:101D70005C525644535C41524D5F434D34465C7057
:101D80006F72742E630000004572726F723A257391
:101D90002C25640D0A0000000CED00E010B5074B87
:101DA000002253F832401CB1521C082AF9D310BD4E
:101DB00043F8321003EBC201486010BD78010020E7
:101DC00070B515460E460446FFF7D6FE94F944104A
:101DD0000020491C01D184F8440094F94510491CA5
:101DE00001D184F84500FFF703FFA06B28B92A460C
:101DF000314604F1240000F0D1F82046BDE87040DF
:101E0000FFF716BD10B5040012D00E49096B29B1B9
:101E100040F2CF420CA111A0FEF78CFA00F09CF921
:101E200000212046FFF70EF900F0A0FE002807D1A0
:101E30000E494FF080500860BFF34F8FBFF36F8F94
:101E400010BD00003C0000202E2E5C4672656552DD
:101E5000544F535C7461736B732E63004572726FE1
:101E6000723A25732C25640D0A00000004ED00E091
:101E700070B50446FFF780FE234D04B92C68201D81
:101E8000FFF736FE58B9E06A204A00EB800152F8AD
:101E9000211021B901218140286988432861A06A65
:101EA00018B104F11800FFF723FE686A401C68624D
:101EB0002868844207D1211D1548FFF751FE686844
:101EC000401C686007E0A868401EA8602046FFF735
:101ED000F4F9FFF70DFCFFF78BFE6869002812D0BC
:101EE000286884420FD1286B28B140F2654209A1CD
:101EF0000DA0FEF71FFA10494FF080500860BFF3A5
:101F00004F8FBFF36F8F70BD3C000020B8010020E1
:101F1000740400202E2E5C4672656552544F535C4B
:101F20007461736B732E63004572726F723A25731E
:101F30002C25640D0A00000004ED00E00149012099
:101F4000C86170473C00002070B50D46040005D103
:101F500040F6063207A10CA0FEF7ECF90E48016826
:101F600020461831FFF7E4FD2846BDE87040012106
:101F7000FFF768B82E2E5C4672656552544F535C6D
:101F80007461736B732E63004572726F723A2573BE
:101F90002C25640D0A0000003C00002070B514469A
:101FA0000E46050005D140F6313209A10DA0FEF71D
:101FB000C1F91048016828461831FFF7D1FD0CB16E
:101FC0004FF0FF3621463046BDE87040FFF73AB883
:101FD0002E2E5C4672656552544F535C7461736B70
:101FE000732E63004572726F723A25732C25640D4F
:101FF0000A0000003C00002070B5040039D01D4DDF
:10200000E06A2968C96A884233D2A069002804DBE3
:102010002868C06AC0F12000A061E06A164E00EB9B
:102020008000616906EB800081421FD1201DFFF70F
:102030005FFD012150B9E06A00EB800256F82220D2
:1020400022B92A6901FA00F082432A612868C06A2D
:10205000E0622A6981401143296100EB800006EBB0
:102060008000211DBDE87040FFF77ABD2868C06A76
:10207000E06270BD3C000020B801002010B50400F3
:1020800005D140F6C13205A109A0FEF753F90C486D
:10209000016A2160C068606010BD00002E2E5C46A1
:1020A00072656552544F535C7461736B732E630099
:1020B0004572726F723A25732C25640D0A00000078
:1020C0003C0000201CB517480024CDE90040234601
:1020D000822215A1164800F0EFFB012803D100F081
:1020E000F1FD01280AD0401C1BD102B040F28472DD
:1020F000BDE810400FA114A0FEF71CB9502080F3DA
:102100001188BFF34F8FBFF36F8F06484FF0FF3139
:102110002C38816201214161C460BDE81C4000F09F
:1021200061B81CBD6800002049444C450000000017
:102130001D1300082E2E5C4672656552544F535C89
:102140007461736B732E63004572726F723A2573FC
:102150002C25640D0A0000000248016B491C016334
:10216000704700003C00002070B5134D286B10B183
:102170000120E86170BD0020E86128690F4EB0FAC7
:1021800080F0C0F11F0000EB800456F8240028B94D
:1021900040F6F6220AA10FA0FEF7CCF806EB840069
:1021A00000F10802416849684160914201D14968E3
:1021B0004160C868286070BD3C000020B801002064
:1021C0002E2E5C4672656552544F535C7461736B7E
:1021D000732E63004572726F723A25732C25640D5D
:1021E0000A0000001CB5304C20683049884205D1F7
:1021F00040F259122EA139A0FEF79CF820682B4915
:10220000491E884205D14FF4AD7229A133A0FEF7D3
:1022100091F8364C20780190FF20207020788DF8BE
:1022200000009DF800009DF8001000F0F0008842CA
:1022300005D040F273121EA128A0FEF77BF89DF88E
:1022400000002B4A00F0500010700720906007E05B
:102250009068401E90609DF8000040008DF80000DE
:102260009DF800000006F3D4107A000200F4E0604C
:102270009060019820700C482030016841F4700192
:102280000160016841F070410160FFF731FD0020FD
:102290005060FDF7F1FF1748016841F040410160CF
:1022A000FDF7DAFF00201CBD00ED00E071C20F4118
:1022B0002E2E5C4672656552544F535C706F72747B
:1022C00061626C655C525644535C41524D5F434DB4
:1022D00034465C706F72742E630000004572726F3A
:1022E000723A25732C25640D0A00000000E400E01A
:1022F0008C00002034EF00E010B5502080F31188EE
:10230000BFF34F8FBFF36F8F00F016FB18B1044976
:102310004FF080500860002080F3118810BD00004D
:1023200004ED00E02DE9F04117460E46050005D109
:102330004FF4C47210A115A0FDF7FCFFBEB105FB60
:1023400006F05430FFF7B0FA04000ED004F1540048
:102350007EB12060C4E90F562046012100F0E0F86C
:1023600084F8507000212046A164BDE8F08100206F
:10237000E7E72460EEE700002E2E5C4672656552AA
:10238000544F535C71756575652E63004572726FAD
:10239000723A25732C25640D0A0000002DE9FF4FC9
:1023A00083B09B468A4604004FF0000605D140F2F8
:1023B000DC4251A155A0FDF7BDFFBAF1000F07D1D6
:1023C000206C28B140F2DD424BA150A0FDF7B2FFD6
:1023D00000F09EFA38B9059828B14FF49C6246A1E6
:1023E0004AA0FDF7A7FF4FF000094FF08057DFF834
:1023F0002C81FFF7C1FBA56B45B351462046E6682B
:10240000FEF712FFBBF1000F13D0E660606A50B117
:1024100004F1240000F05EFB28B1C8F80070BFF39F
:102420004F8FBFF36F8FFFF7E3FB012007B0BDE8CD
:10243000F08F6D1EA563206810B9FFF7BFFA6060CA
:1024400020690028EFD004F11000E3E7059808B1F7
:102450001EB106E0FFF7CCFB27E06846FFF70EFE53
:102460000126FFF7C5FBFFF777FEFFF785FB94F921
:102470004400401C01D184F8449094F94500401C6C
:1024800001D184F84590FFF7B3FB05A9684600F039
:10249000CFF9002820460AD0FFF7CAF900F066FB02
:1024A0002046FEF7F1FF0028A3D00020BEE7FEF78C
:1024B000EBFFD8B1206830B9FFF75EFB6068FFF72B
:1024C0009BFDFFF795FB04F124000599FFF73CFD08
:1024D0002046FFF7ADF900F049FB002889D1C8F884
:1024E0000070BFF34F8FBFF36F8F82E72046FFF777
:1024F0009FF900F03BFB7CE72E2E5C46726565522F
:10250000544F535C71756575652E63004572726F2B
:10251000723A25732C25640D0A00000004ED00E0DA
:1025200070B50D46040005D140F21B121CA121A07C
:10253000FDF700FFFFF720FBD4E90F20216802FB25
:10254000001161600021A1632168A1600A46D4E9FD
:102550000F01401E00FB0121E16021464FF0FF30DA
:1025600001F8440F487004F110004DB1FFF7D2FAA2
:1025700004F12400FFF7CEFAFFF73AFB012070BD0B
:1025800021690029F8D000F0A5FA0028F4D00D49FF
:102590004FF080500860BFF34F8FBFF36F8FEBE7B2
:1025A0002E2E5C4672656552544F535C717565758D
:1025B000652E63004572726F723A25732C25640D87
:1025C0000A00000004ED00E02DE9FF4F83B09946BA
:1025D0008B4604004FF0000605D140F2D92252A1EB
:1025E00056A0FDF7A7FEBBF1000F07D1206C28B164
:1025F00040F2DA224CA151A0FDF79CFEB9F1020F86
:1026000008D1E06B012805D040F2DB2246A14BA0A7
:10261000FDF790FE00F07CF938B9059828B140F23A
:10262000DE2241A145A0FDF785FE4FF0000A4FF0E4
:102630008057DFF81881FFF79FFAA06BE16B8842A3
:1026400006D3B9F1020F03D0059800B316B325E005
:102650004A4659462046FEF7FAFDA16C21B149468B
:102660002046FEF71FFF05E0616A19B104F124005E
:1026700000F030FA28B1C8F80070BFF34F8FBFF3F5
:102680006F8FFFF7B5FA012007B0BDE8F08FFFF7B5
:10269000AFFA21E06846FFF7F1FC0126FFF7A8FA40
:1026A000FFF75AFDFFF768FA94F94400401C01D186
:1026B00084F844A094F94500401C01D184F845A059
:1026C000FFF796FA05A9684600F0B2F830B1204647
:1026D000FFF7AEF800F04AFA0020D5E7FFF74CFA12
:1026E000A06BE16B884201D1012500E00025FFF7D6
:1026F0007FFA95B104F110000599FFF725FC2046FB
:10270000FFF796F800F032FA002894D1C8F800706C
:10271000BFF34F8FBFF36F8F8DE72046FFF788F829
:1027200000F024FA87E700002E2E5C4672656552A1
:10273000544F535C71756575652E63004572726FF9
:10274000723A25732C25640D0A00000004ED00E0A8
:102750002DE9F047984615468946040005D140F218
:102760009F322AA12EA0FDF7E5FDB9F1000F07D198
:10277000206C28B14FF4687224A129A0FDF7DAFD7E
:10278000B8F1020F08D1E06B012805D040F2A13268
:102790001EA123A0FDF7CEFDFFF7BAFA5020EFF3FC
:1027A000118780F31188BFF34F8FBFF36F8FA06B3A
:1027B000E16B884207D3B8F1020F04D0002087F301
:1027C0001188BDE8F08794F94560424649462046A5
:1027D000FEF73DFD701C04D0761C84F84560012096
:1027E000EDE7A06C012620B141462046FEF75AFED7
:1027F00006E0606A0028F2D004F1240000F06AF9D3
:102800000028ECD0002DEAD02E60E8E72E2E5C46A2
:1028100072656552544F535C71756575652E630022
:102820004572726F723A25732C25640D0A00000000
:1028300070B50D46040005D140F6CB3214A119A0A5
:10284000FDF778FD2DB940F6CC3211A115A0FDF7AA
:1028500071FDFFF791F9174AD06829684B1C0FD01A
:102860002368126A934202D0626882420AD962687F
:10287000801A884206D2081A28602046FFF7FEFB1D
:10288000002400E00124FFF7B3F9204670BD0000EA
:102890002E2E5C4672656552544F535C7461736BA7
:1028A000732E63004572726F723A25732C25640D86
:1028B0000A0000003C0000202DE9FF5F8346DDE9AF
:1028C0000E87994616468A469000FEF7EDFF0500F2
:1028D0001AD05C20FEF7E8FF040012D02563002127
:1028E000CDE90241CDE900874B4632465146584674
:1028F000FEF728FD2046FEF7DDFB012004B0BDE811
:10290000F09F2846FFF7A6F94FF0FF30F6E70000EA
:102910000548416919B1006B18B1002070470120CA
:1029200070470220704700003C0000200148C0684A
:10293000704700003C0000202DE9F0412D4F00269B
:10294000386B40B1B869401CB861F86900B1012624
:102950003046BDE8F081FD686D1CFD6011D1786BDB
:10296000006828B140F6D91223A128A0FDF7E2FCA7
:10297000786BB96B7963B863386A401C3862FEF7CC
:10298000B7FEB86ADFF89480854209D3786B006897
:1029900080B1786BC068C468606885420DD2B86247
:1029A0003868C06A00EB800158F821000128CCD9B2
:1029B0000126CAE74FF0FF30F1E7201DFFF798F836
:1029C000A06A18B104F11800FFF792F8E06A01213B
:1029D0003A6981401143396100EB800108EB8100C5
:1029E000211DFFF7BDF8E06A3968C96A8842CDD376
:1029F0000126CBE73C0000202E2E5C467265655216
:102A0000544F535C7461736B732E63004572726F25
:102A1000723A25732C25640D0A000000B8010020CD
:102A200070B504004FF000063CD01F4D286884426A
:102A300005D040F6C7621DA121A0FDF77BFC206DEB
:102A400028B940F6C96219A11DA0FDF773FC206DDD
:102A5000401E2065E26CE16A914223D010BB201D2C
:102A6000FFF746F81A49012250B9E06A00EB8003EB
:102A700051F8233023B92B6902FA00F083432B610C
:102A8000E06CE062C0F12000A061E06A2B69824046
:102A90001A432A6100EB800001EB8000211DFFF743
:102AA0005FF80126304670BD3C0000202E2E5C46AB
:102AB00072656552544F535C7461736B732E63007F
:102AC0004572726F723A25732C25640D0A0000005E
:102AD000B80100202DE9F041C068C4682CB940F667
:102AE000613216A11AA0FDF725FC04F11800074673
:102AF000FEF7FEFF1A4D286B012660B139461948D2
:102B0000FFF72EF8E06A2968C96A884213D90120C4
:102B1000EE61BDE8F081201DFEF7EAFFE06A2A6958
:102B200006FA00F1114329610F4900EB800001EB27
:102B30008000211DE4E70020EBE700002E2E5C461C
:102B400072656552544F535C7461736B732E6300EE
:102B50004572726F723A25732C25640D0A000000CD
:102B60003C00002060040020B80100202DE9F0475F
:102B70002B4D00242746286B28B94FF4FD6229A16C
:102B80002DA0FDF7D7FBFEF7F7FF286B401E28634B
:102B9000286BE8BBA8682C490126C8B3A1F52A799F
:102BA0008846D8F80010E9B1D8F80C00C46804F1E0
:102BB0001800FEF79DFF201DFEF79AFFE06A2A69C4
:102BC00006FA00F11143296100EB800109EB810055
:102BD000211DFEF7C5FFE06A2968C96A8842E0D373
:102BE000EE61DEE70CB1FEF783FDAC693CB1FFF7A7
:102BF000A3FE00B1EE61641EF9D10020A861E8696E
:102C000030B11249012738070860BFF34F8F00E049
:102C100001E0BFF36F8FFEF7EBFF3846BDE8F087AA
:102C20003C0000202E2E5C4672656552544F535C6A
:102C30007461736B732E63004572726F723A257301
:102C40002C25640D0A0000006004002004ED00E063
:102C50002DE9F0470746994616460D462C20DDF82B
:102C600020A0FEF721FE040014D0B8464F46D146FE
:102C70002DB94FF4C67209A10EA0FDF75BFBFEF75C
:102C800081FA04F11801C4F8008081E8E002201DF7
:102C9000FEF74BFF2046BDE8F08700002E2E5C4675
:102CA00072656552544F535C74696D6572732E631F
:102CB000000000004572726F723A25732C25640D76
:102CC0000A0000001CB50024FEF75CFA0C480068FE
:102CD00068B10B491F20091DCDE9000100234FF405
:102CE000827208A10948FFF7E7FD040005D140F210
:102CF000331207A10CA0FDF71DFB20461CBD0000F0
:102D000078000020546D7220537663000918000883
:102D10002E2E5C4672656552544F535C74696D6526
:102D200072732E63000000004572726F723A257351
:102D30002C25640D0A0000002DE9FF47DDF830A0C6
:102D4000994690460D4606004FF0000705D14FF416
:102D5000D37212A117A0FDF7EDFA1A4C206880B1CA
:102D6000CDE900580296062D11DAFFF7D1FD0228B1
:102D70004FF0000309D0002269462068FFF724FCC9
:102D8000074604B03846BDE8F0875246F4E7002312
:102D90004A466946FFF7DCFCF2E700002E2E5C464F
:102DA00072656552544F535C74696D6572732E631E
:102DB000000000004572726F723A25732C25640D75
:102DC0000A000000780000204FF04070E1EE100A89
:102DD00070470000F42D000800000020B000000043
:102DE000C4010008A42E0008B0000020785A00009A
:102DF000E0010008000000000000000000000000EA
:102E0000007A030A00000000000000000102030431
:102E10000607080900000000000000000000000094
:102E20000000000001020304010203040607080970
:102E30000000000000000000000000000000000092
:102E40000000000000000000000000000000000082
:102E50000000000000000000000000000000000072
:102E60000000000000000000000000000000000062
:102E70000000000000000000000000000000000052
:102E800000000000AAAAAAAA00000000000000009A
:102E90000000000000000000000000000000000032
:042EA000000000002E
:040000050800018965
:00000001FF
