:020000040800F2
:10000000385B0020F5020008F34800089D0900084D
:10001000F148000815080008B54D00080000000070
:100020000000000000000000000000003D02000889
:10003000170800080000000091020008114B00089A
:100040000F0300080F0300080F0300080F03000848
:100050000F0300080F0300080F0300080F03000838
:100060000F0300080F0300080F0300080F03000828
:100070000F0300080F0300080F0300080F03000818
:100080000F0300080F0300080F0300080F03000808
:100090000F0300080F0300080F0300080F030008F8
:1000A0000F0300080F0300080F0300080F030008E8
:1000B0000F030008814B00080F0300080F0300081E
:1000C0000F0300080F0300080F0300080F030008C8
:1000D0000F030008194C00080F0300080F03000865
:1000E0000F0300080F0300080F0300080F030008A8
:1000F0000F0300080F0300080F0300080F03000898
:100100000F0300080F030008BD4B00080F03000891
:100110000F0300080F0300080F0300080F03000877
:100120000F0300080F0300080F0300080F03000867
:100130000F0300080F0300080F0300080F03000857
:100140000F0300080F0300080F0300080F03000847
:100150000F0300080F0300080F0300080F03000837
:100160000F0300080F0300080F0300080F03000827
:100170000F0300080F0300080F0300080F03000817
:100180000F0300080F03000800F002F800F047F822
:100190000AA090E8000C82448344AAF10107DA45E2
:1001A00001D100F03CF8AFF2090EBAE80F0013F0ED
:1001B000010F18BFFB1A43F001031847888600009F
:1001C000A8860000103A24BF78C878C1FAD8520730
:1001D00024BF30C830C144BF04680C6070470000C1
:1001E0000023002400250026103A28BF78C1FBD840
:1001F000520728BF30C148BF0B607047642900F028
:100200000581782900F03E81732900F03B820020AF
:1002100070471FB506F01CFF1FBD10B510BD00F0E4
:10022000C6FA1146FFF7F5FF04F02EFE00F0E4FADF
:1002300003B4FFF7F2FF03BC04F0BDFD2A4B1968BD
:100240000868B0E8F04F80F30988BFF36F8F4FF074
:10025000000080F311887047000000000648006825
:10026000006880F3088862B661B6BFF34F8FBFF3B2
:100270006F8F00DF00BF00BF08ED00E0DFF80C006B
:10028000016841F470010160704700BF88ED00E033
:10029000EFF30980BFF36F8F134B1A681EF0100F36
:1002A00008BF20ED108A20E9F04F106008B44FF02D
:1002B000500080F31188BFF34F8FBFF36F8F05F0AD
:1002C00059FF4FF0000080F3118808BC19680868D6
:1002D000B0E8F04F1EF0100F08BFB0EC108A80F3AA
:1002E0000988BFF36F8F704740000020EFF305804F
:1002F000704700000948804709480047FEE7FEE7CD
:10030000FEE7FEE7FEE7FEE7FEE7FEE7FEE7FEE7C5
:1003100004480549054A064B70470000254B000874
:100320008901000838550020385B0020385700202C
:1003300038570020704700000FB4044910B503AAD5
:10034000029800F0A3F910BC5DF814FB2C0000200B
:100350002DE9F0410E460446002020622046E16867
:10036000884730B3252805D0D4E901219047206A79
:10037000401CF2E7E168204600278847050018D0B6
:10038000A5F14100192802D820354FF40067324604
:10039000294620462760FFF731FF40B1012804D0ED
:1003A000F61D26F007060836D8E7361DD6E728469C
:1003B000DAE7206ABDE8F08170B50C460546012AEF
:1003C00005D02878800600D5EA69002302E00123E1
:1003D00005E05B1C934202D2E05C0028F9D1A869D9
:1003E000E618C01AA861286A184428622846AFF3A4
:1003F000008004E0D5E9012114F8010B9047B442D4
:10040000F8D32846AFF3008070BD00002DE9F0411D
:100410000646002410687529314616A510D0AFF3A2
:100420000080002802DA404213A507E031688A07FD
:1004300001D512A502E0490704D511A5012401E068
:10044000AFF3008000210A2206F1240709E0B0FB87
:10045000F2FCB0FBF2F302FB1C003030785418467B
:10046000491C0028F3D123462A463046BDE8F04116
:1004700000F085B8000000002D0000002B000000F7
:100480002000000070B504460D4621461068AFF309
:1004900000802188090502D50F4A7A4402E00E4AFD
:1004A0007A440E32002104F1240305E000F00F0627
:1004B0000009965D5E54491C0028F7D1207800237E
:1004C000000704D5702D02D009B102231132204655
:1004D000BDE8704000F053B87C830000032A40F26E
:1004E000308010F0030C00F0158011F8013BBCF1D6
:1004F000020F624498BF11F801CB00F8013B38BFEE
:1005000011F8013BA2F1040298BF00F801CB38BFFB
:1005100000F8013B11F0030300F0CA80083AC0F074
:10052000088051F8043B083A51F804CBA0E80810C1
:10053000F5E7121D5CBF51F8043B40F8043BAFF3F4
:100540000080D20724BF11F8013B11F801CB48BF4E
:1005500011F8012B24BF00F8013B00F801CB48BF84
:1005600000F8012B704702F0FF0343EA032242EA3E
:10057000024200F0D1B870477047704770472DE9CC
:10058000F0470D4699469246044600F1240801685A
:10059000880604D5E06921F01001216000E0012007
:1005A000A84201DD471B00E00027A1697A1902EB90
:1005B0000900081AA0612078C00602D42046AFF3D3
:1005C0000080002608E0D4E901211AF806009047CF
:1005D000206A401C761C20624E45F4DB2078C00661
:1005E0000AD52046AFF3008006E0D4E9012130208F
:1005F0009047206A401C2062381EA7F10107F4DCF6
:1006000007E0D4E9012118F805009047206A401C52
:100610002062281EA5F10105F3DC2046AFF300801F
:100620002078000602D50220BDE8F0870120FBE714
:1006300001694A1C02610878704700B58FB0CDE9A6
:1006400001310021059105497944CDE90310114696
:100650006846FFF77DFE0FB000BD0000E5FFFFFF1D
:1006600010B5436913B1AFF3008001E0FFF7A4FEBA
:10067000012010BD127800F124010A7000224A7096
:100680000122EDE711684FF0FF32E9E7074B70B543
:100690000D467B44FFF7D1FF0446284600F05CF886
:1006A00010B14FF0FF3070BD204670BDDF47000035
:1006B00010B5203AC0F00B80B1E81850203AA0E8FD
:1006C0001850B1E81850A0E81850BFF4F5AF5FEA31
:1006D000027C24BFB1E81850A0E8185044BF18C9E4
:1006E00018C0BDE810405FEA827C24BF51F8043B8B
:1006F00040F8043B08BF7047D20728BF31F8023BDF
:1007000048BF11F8012B28BF20F8023B48BF00F872
:10071000012B70474FF000020429C0F0128010F046
:10072000030C00F01F80CCF1040CBCF1020F18BFC9
:1007300000F8012BA8BF20F8022BA1EB0C0100F060
:1007400011B85FEAC17C24BF00F8012B00F8012B2F
:1007500048BF00F8012B7047007B00F08000704715
:100760004FF0000200B5134694469646203922BF4A
:10077000A0E80C50A0E80C50B1F12001BFF4F7AF95
:10078000090728BFA0E80C5048BF0CC05DF804EB77
:10079000890028BF40F8042B08BF704748BF20F8E5
:1007A000022B11F0804F18BF00F8012B70477546DF
:1007B00000F02CF8AE4605006946534620F00700CD
:1007C000854618B020B5FFF7A3FDBDE820404FF0E7
:1007D00000064FF000074FF000084FF0000B21F02B
:1007E0000701AC46ACE8C009ACE8C009ACE8C009F8
:1007F000ACE8C0098D46704710B50446AFF30080E1
:100800002046BDE81040FFF713BD000000487047C8
:10081000D8540020FEE770478000A0F1C0400029B6
:10082000016802D041F0010101E0024A114001607B
:1008300070470000FEFF0F0010B5D0E90112114310
:10084000D0E903231A4311434269114382691143DA
:10085000C2691143026A1143426A1143826A114319
:10086000C26A1143026B114302689200A2F1C042B6
:1008700011608168082907D101688900A1F1C04190
:100880000A6842F040020A60416BD1E9002342EA63
:1008900003128B688C891B0243EA04431A430B8AB8
:1008A00042EA03520B7D896942EA03620A43016806
:1008B0008900A1F1C0414A60C16AB1F5804F08D0FA
:1008C00000686FF070418000A0F1C040C0F80411D2
:1008D00010BD816BD1E9002342EA03128B680C8AB8
:1008E0001B0243EA04531A430B7D896942EA0362FF
:1008F00000680A438000A0F1C040C0F8042110BD88
:10090000F0B5002201274FF0030C0B6807FA02F53F
:100910002B40AB422CD1066853000CFA03F4A643DB
:1009200006600E79D0F800E09E4046EA0E060660AA
:100930000E79012E01D0022E12D18668A643866060
:100940004E79D0F808E09E4046EA0E06866046687A
:10095000AE43466045688E799640B6B235434560F1
:10096000C568A543C560CC799C40C3681C43C4607E
:10097000521C102AC9D3F0BD4B07DB0E9A40C908A0
:1009800010B500EB8100016A0F249C40A143016275
:10099000016A1143016210BD01837047FEE7000048
:1009A0002DE9F043184F0646002438887D884543DA
:1009B000B888A0F5D041043902D1B879012808D00F
:1009C0000021084603F014FE03F062FF4FF0D84008
:1009D00016E00020B8714FF02A09A7F80A904FF0EE
:1009E0002B08A7F80C80014603F002FE0120B87125
:1009F000A7F80A80A7F80C90E6E7A0F88060641CCE
:100A0000AC42FAD3BDE8F083B40000202DE9F04FEA
:100A10004A492A232B24898845F2105A4FF4305B27
:100A20004FF4285E4FF448754FF0F00C49F241390D
:100A30004FF4A07745F210364FF4F07280B13F4882
:100A40004FF00108494580F806800780A0F802C0F1
:100A500001D0B1423ED12C2505814381848157E0EC
:100A600036484FF00008494580F80680A0F800C0DD
:100A7000478006D0A1F5D04CBCF1040C01D0B142A6
:100A80000CD12C2505814381A1F5D0438481043B01
:100A900001D0B14244D10780428041E0514507D1A5
:100AA000A0F808B0A0F80AE04FF42C5181810EE0C4
:100AB000A1F5C856633E06D0222101812021418143
:100AC000212181812CE02C210181448183810280BC
:100AD000458025E0A1F5D04CBCF1040C09D051456E
:100AE0000BD1A0F808B0A0F80AE04FF42C53838192
:100AF00021E02C250581448109E0A1F5C85CBCF109
:100B0000630C12D02223038121234381202383817C
:100B1000A1F5D043043B01D0B14201D1028047800E
:100B2000BDE8F04F002003F061BC4FF02C0CA0F8A2
:100B300008C04381848105804280E9E7B400002039
:100B40002DE9F043414D91460C460246060AA9881C
:100B50002846A1F5134340894FEA1428413B17D09A
:100B6000A1F5A643103B13D0A1F5AA43103B13D027
:100B70002E46A1F5C857B3793688B61A761E633F5C
:100B800023D0A1F5D047043F3AD0012B4DD04DE002
:100B900003F072FE304639E003F06EFE304603F09B
:100BA0005FFE6889401C80B203F066FED0B203F09D
:100BB00057FEA88903F060FE404603F051FEA88965
:100BC000401C80B203F058FE2BE003B9B2B203F030
:100BD00053FE160A304603F043FED0B203F040FE47
:100BE000304603F03DFED0B203F03AFEA88903F090
:100BF00043FE404603F034FEE0B203F031FE0DE068
:100C0000012B00D1B2B203F037FE100A03F028FE28
:100C1000D0B203F025FEA88903F02EFE404603F073
:100C20001FFEE0B203F01CFE07E0B2B2114603F073
:100C300039FEA889214603F035FE4FF0D8402989B6
:100C400020F87E1FA0F80290BDE8F083B4000020D9
:100C50002DE9F04FA1B0002401217A201F9403F068
:100C600085FE0121084603F08DFE4FF40040009000
:100C700001208DF804008DF8064002208DF8050053
:100C800001208DF807006946FE48FFF739FE4CF257
:100C90003370009002208DF804008DF80640032088
:100CA0008DF8050001208DF807006946F648FFF72A
:100CB00027FE4FF68070009002208DF804008DF81A
:100CC000064003208DF805000120F04D8DF8070047
:100CD00069462846FFF714FEA814009002208DF8FC
:100CE00004008DF8064003208DF805000120E84E31
:100CF0008DF8070069463046FFF702FEA814009001
:100D000002208DF804008DF8064003208DF80500C0
:100D10000120E04F8DF8070069463846FFF7F0FDE7
:100D20000C220021D848FFF727FE0C220121D648CB
:100D3000FFF722FE0C220421D348FFF71DFE0C22F0
:100D40000521D148FFF718FE0C220821CE48FFF7F5
:100D500013FE0C220921CC48FFF70EFE0C220A21BB
:100D6000C948FFF709FE0C220E21C748FFF704FE11
:100D70000C220F21C448FFF7FFFD0C220721284653
:100D8000FFF7FAFD0C2208212846FFF7F5FD0C229B
:100D900009212846FFF7F0FD0C220A212846FFF71B
:100DA000EBFD0C220B212846FFF7E6FD0C22114635
:100DB0002846FFF7E1FD0C220D212846FFF7DCFD58
:100DC0000C220E212846FFF7D7FD0C220F212846C2
:100DD000FFF7D2FD0C2211463046FFF7CDFD0C2265
:100DE00011463846FFF7C8FD0F20CDE911043C201D
:100DF000CDE91304159409201694CDE91740082075
:100E0000CDE919401B941C940620CDE902041D94E1
:100E10001E941020CDE9044006940002CDE90A405A
:100E2000089407948000CDE90C40099411A8CDE9FD
:100E30000E4018A8109002A8FFF7FEFC0121062022
:100E4000FFF7EAFC322003F0D1FF0121002003F07C
:100E500029FD322003F0CAFF002003F095FA8E4AE4
:100E60004FF0204A4FF6FF7B908049F2413545F222
:100E7000103645F2105441F6631846F60407FF2871
:100E800004D3584502D0B0F5134F74D1D32003F0EA
:100E9000F3FC03F06FFA908003F06CFA908003F09B
:100EA00069FA0BEA0020D946908003F063FA918832
:100EB00008439080A8425ED0BF2003F0DDFC03F021
:100EC00059FA908003F056FA908003F053FA90801C
:100ED00003F050FA09EA0020908003F04BFA918861
:100EE00008439080B84246D0D42003F0C5FC03F0FC
:100EF00041FA908003F03EFA908003F03BFA09EA51
:100F00000020908003F036FA918808439080B04228
:100F100031D04FF45A4003F0AFFC03F02BFA90802D
:100F20004FF45B4003F0A8FC03F024FA09EA002028
:100F300090804FF45C4003F09FFC03F01BFA918813
:100F400008439080B0F5004F39D0A04213D0A120C3
:100F500003F092FC03F00EFA908003F00BFA09EA1A
:100F60000020908003F006FA91880843A0F5AE4176
:100F70009080613920D080B2A84205D0B04203D021
:100F8000A04201D040451CD1DAF81C11504621F096
:100F90000F01CAF81C11DAF81C1121F47061CAF8AB
:100FA0001C11DAF81C1141F00301CAF81C11DAF81F
:100FB0001C1141F4007121E0A2F80480E4E7948060
:100FC000E2E7B84203D0A0F54541053918D1DAF877
:100FD0001C11504621F00F01CAF81C11DAF81C113F
:100FE00021F47061CAF81C11DAF81C1141F00A01F1
:100FF000CAF81C11DAF81C1141F44061C0F81C1148
:101000009146918825A0FFF797F9B9F80400A84206
:101010007DD1CF2003F030FC002003F021FCC12063
:1010200003F01EFC302003F01BFCED2003F024FC39
:10103000642003F015FC032003F012FC122003F0DF
:101040000FFC812003F00CFCE82003F015FC852048
:1010500003F006FC102003F003FC7A2003F000FCF0
:10106000CB2003F009FC392003F0FAFB2C2003F01D
:10107000F7FB002003F0F4FB342003F0F1FB022027
:1010800014E0000000040240000C02400010024086
:101090000014024000180240B4000020204C4344D9
:1010A0002049443A25780D0A0000000003F0D8FBDF
:1010B000F72003F0E1FB202003F0D2FBEA2003F04D
:1010C000DBFB002003F0CCFB002003F0C9FBC020B9
:1010D00003F0D2FB1B2003F0C3FBC12003F0CCFBC9
:1010E000012003F0BDFBC52003F0C6FB302003F058
:1010F000B7FB302003F0B4FBC72003F0BDFBB720E3
:1011000003F0AEFB362003F0B7FB482000E0A7E079
:1011100003F0A6FB3A2003F0AFFB552003F0A0FB41
:10112000B12003F0A9FB002003F09AFB1A2003F082
:1011300097FBB62003F0A0FB0A2003F091FBA2204E
:1011400003F08EFBF22003F097FB002003F088FBF6
:10115000262003F091FB012003F082FBE02003F046
:101160008BFB0F2003F07CFB2A2003F079FB282067
:1011700003F076FB082003F073FB0E2003F070FBF6
:10118000082003F06DFB542003F06AFBA92003F054
:1011900067FB432003F064FB0A2003F061FB0F2090
:1011A00003F05EFB002003F05BFB002003F058FB24
:1011B000002003F055FB002003F052FBE12003F078
:1011C0005BFB002003F04CFB152003F049FB1720CC
:1011D00003F046FB072003F043FB112003F040FB24
:1011E000062003F03DFB2B2003F03AFB562003F0D2
:1011F00037FB3C2003F034FB052003F031FB1020CB
:1012000003F02EFB0F2003F02BFB3F2003F028FB05
:101210003F2003F025FB0F2003F022FB2B2003F0DF
:101220002BFB002003F01CFB002003F019FB012026
:1012300003F016FB3F2003F013FB2A2003F01CFBF6
:10124000002003F00DFB002003F00AFB002003F058
:1012500007FBEF2003F004FB112003F00DFBA5E0DA
:10126000B8427CD1112003F007FB142003F0BEFD2F
:10127000D02003F001FB072003F0F2FA422003F034
:10128000EFFA1D2003F0ECFAD12003F0F5FA00206C
:1012900003F0E6FA1A2003F0E3FA092003F0E0FA7B
:1012A000D22003F0E9FA012003F0DAFA222003F059
:1012B000D7FAC02003F0E0FA102003F0D1FA3B2067
:1012C00003F0CEFA002003F0CBFA022003F0C8FAB4
:1012D000112003F0C5FAC52003F0CEFA032003F075
:1012E000BFFAC82003F0C8FA002003F0B9FA25209D
:1012F00003F0B6FA212003F0B3FA052003F0B0FAA8
:10130000002003F0ADFA0A2003F0AAFA652003F0EA
:10131000A7FA252003F0A4FA772003F0A1FA5020C1
:1013200003F09EFA0F2003F09BFA002003F098FAD6
:10133000F82003F0A1FA012003F092FAFE2003F056
:101340009BFA002003F08CFA022003F089FA202097
:1013500003F092FA362003F08FFA082000E02BE029
:1013600003F07EFA3A2003F087FA552003F078FA6A
:101370002B2003F081FA002003F072FA002003F022
:101380006FFA012003F06CFA3F2003F069FA2A207B
:1013900003F072FA002003F063FA002003F060FA11
:1013A000012003F05DFADF2003F05AFA782003F001
:1013B0001DFD292001F0FBBEB0427CD1ED2003F0E1
:1013C0005BFA012003F04CFAFE2003F049FAEE200C
:1013D00003F052FADE2003F043FA212003F040FA32
:1013E000F12003F049FA012003F03AFADF2003F07C
:1013F00043FA102003F034FAC42003F03DFA8F20A2
:1014000003F02EFAC62003F037FA002003F028FA82
:10141000E22003F025FAE22003F022FAE22003F0B2
:101420001FFABF2003F028FAAA2003F019FAB0200F
:1014300003F022FA0D2003F013FA002003F010FA53
:101440000D2003F00DFA002003F00AFA112003F03A
:1014500007FA002003F004FA192003F001FA002033
:1014600003F0FEF9212003F0FBF9002003F0F8F966
:101470002D2003F0F5F9002003F0F2F93D2003F0F0
:10148000EFF9002003F0ECF95D2003F0E9F900200A
:1014900003F0E6F95D2003F0E3F9002003F0E0F942
:1014A000B12003F0E9F9802003F0DAF9002003F01D
:1014B000D7F98B2000E0FCE303F0D2F9002003F021
:1014C000CFF9962003F0CCF9002003F0C9F9B2203F
:1014D00003F0D2F9002003F0C3F9002003F0C0F9B3
:1014E000022003F0BDF9002003F0BAF9032003F055
:1014F000B7F9002003F0B4F9B32003F0BDF90020E0
:1015000003F0AEF9002003F0ABF9002003F0A8F9D6
:10151000002003F0A5F9002003F0A2F9002003F059
:101520009FF9002003F09CF9002003F099F90020B6
:1015300003F096F9002003F093F9002003F090F9EE
:10154000002003F08DF9002003F08AF9002003F059
:1015500087F9002003F084F9002003F081F90020CE
:1015600003F07EF9002003F07BF9002003F078F906
:10157000002003F075F9002003F072F9002003F059
:101580006FF9002003F06CF9002003F069F9B42032
:1015900003F072F98B2003F063F9002003F060F987
:1015A000962003F05DF9002003F05AF9A12003F022
:1015B00057F9002003F054F9B52003F05DF902203B
:1015C00003F04EF9002003F04BF9032003F048F933
:1015D000002003F045F9042003F042F9002003F055
:1015E0003FF9B62003F048F9002003F039F9002054
:1015F00003F036F9B72003F03FF9002003F030F98B
:10160000002003F02DF93F2003F02AF9002003F019
:1016100027F95E2003F024F9002003F021F964206B
:1016200003F01EF9002003F01BF98C2003F018F9D9
:10163000002003F015F9AC2003F012F9002003F0AC
:101640000FF9DC2003F00CF9002003F009F97020F9
:1016500003F006F9002003F003F9902003F000F9ED
:10166000002003F0FDF8EB2003F0FAF8002003F06F
:10167000F7F8DC2003F0F4F8002003F0F1F8B820CC
:1016800003F0FAF8002003F0EBF8002003F0E8F88C
:10169000002003F0E5F8002003F0E2F8002003F05A
:1016A000DFF8002003F0DCF8002003F0D9F8002078
:1016B00003F0D6F8BA2003F0DFF8242003F0D0F8C6
:1016C000002003F0CDF8002003F0CAF8002003F05A
:1016D000C7F8C12003F0D0F8202003F0C1F80020A3
:1016E00003F0BEF8542003F0BBF8002003F0B8F874
:1016F000FF2003F0B5F8002003F0B2F8C22003F099
:10170000BBF80A2003F0ACF8002003F0A9F804208D
:1017100003F0A6F8002003F0A3F8C32003F0ACF810
:101720003C2003F09DF8002003F09AF83A2003F0E3
:1017300097F8002003F094F8392003F091F8002086
:1017400003F08EF8372003F08BF8002003F088F8C0
:101750003C2003F085F8002003F082F8362003F0E7
:101760007FF8002003F07CF8322003F079F80020A5
:1017700003F076F82F2003F073F8002003F070F8E0
:101780002C2003F06DF8002003F06AF8292003F004
:1017900067F8002003F064F8262003F061F80020C9
:1017A00003F05EF8242003F05BF8002003F058F803
:1017B000242003F055F8002003F052F8232003F012
:1017C0004FF8002003F04CF83C2003F049F80020CB
:1017D00003F046F8362003F043F8002003F040F809
:1017E000322003F03DF8002003F03AF82F2003F0F8
:1017F00037F8002003F034F82C2003F031F80020F3
:1018000003F02EF8292003F02BF8002003F028F82D
:10181000262003F025F8002003F022F8242003F00E
:101820001FF8002003F01CF8242003F019F8002012
:1018300003F016F8232003F013F8002003F010F84B
:10184000C42003F019F8622003F00AF8002003F026
:1018500007F8052003F004F8002003F001F88420C5
:1018600002F0FEFF002002F0FBFFF02002F0F8FF84
:10187000002002F0F5FF182002F0F2FF002002F035
:10188000EFFFA42002F0ECFF002002F0E9FF182097
:1018900002F0E6FF002002F0E3FF502002F0E0FF3C
:1018A000002002F0DDFF0C2002F0DAFF002002F041
:1018B000D7FF172002F0D4FF002002F0D1FF9520BF
:1018C00002F0CEFF002002F0CBFFF32002F0C8FFB1
:1018D000002002F0C5FFE62002F0C2FF002002F067
:1018E000BFFFC52002F0C8FF322002F0B9FF002080
:1018F00002F0B6FF442002F0B3FF002002F0B0FF78
:10190000652002F0ADFF002002F0AAFF762002F071
:10191000A7FF002002F0A4FF882002F0A1FF002012
:1019200002F09EFFC62002F0A7FF202002F098FFE1
:10193000002002F095FF172002F092FF002002F035
:101940008FFF012002F08CFF002002F089FFC720EA
:1019500002F092FF002002F083FF002002F080FFDF
:10196000002002F07DFF002002F07AFFC82002F084
:1019700083FF002002F074FF002002F071FF0020BE
:1019800002F06EFF002002F06BFFC92002F074FF2E
:10199000002002F065FF002002F062FF002002F04C
:1019A0005FFF002002F05CFF002002F059FF0020E2
:1019B00002F056FF002002F053FF002002F050FF1B
:1019C000002002F04DFF002002F04AFF002002F04C
:1019D00047FF002002F044FF002002F041FF0020FA
:1019E00002F03EFF002002F03BFF002002F038FF33
:1019F000E02002F041FF162002F032FF002002F04A
:101A00002FFF1C2002F02CFF002002F029FF2120D4
:101A100002F026FF002002F023FF362002F020FF14
:101A2000002002F01DFF462002F01AFF002002F005
:101A300017FF522002F014FF002002F011FF642073
:101A400002F00EFF002002F00BFF7A2002F008FFE8
:101A5000002002F005FF8B2002F002FF002002F0C0
:101A6000FFFE992002F0FCFE002002F0F9FEA82003
:101A700002F0F6FE002002F0F3FEB92002F0F0FEC4
:101A8000002002F0EDFEC42002F0EAFE002002F089
:101A9000E7FECA2002F0E4FE002002F0E1FED220C0
:101AA00002F0DEFE002002F0DBFED92002F0D8FEBC
:101AB000002002F0D5FEE02002F0D2FE002002F06D
:101AC000CFFEF32002F0CCFE002002F0C9FEE120A0
:101AD00002F0D2FE162002F0C3FE002002F0C0FE8B
:101AE0001C2002F0BDFE002002F0BAFE222002F00F
:101AF000B7FE002002F0B4FE362002F0B1FE002056
:101B000002F0AEFE452002F0ABFE002002F0A8FE7F
:101B1000522002F0A5FE002002F0A2FE642002F096
:101B20009FFE002002F09CFE7A2002F099FE002029
:101B300002F096FE8B2002F093FE002002F090FE51
:101B4000992002F08DFE002002F08AFEA82002F00B
:101B500087FE002002F084FEB92002F081FE002002
:101B600002F07EFEC42002F07BFE002002F078FE30
:101B7000CA2002F075FE002002F072FED22002F0B0
:101B80006FFE002002F06CFED82002F069FE0020FB
:101B900002F066FEE02002F063FE002002F060FE2C
:101BA000F32002F05DFE002002F05AFEE22002F077
:101BB00063FE052002F054FE002002F051FE0B20CF
:101BC00002F04EFE002002F04BFE1B2002F048FE09
:101BD000002002F045FE342002F042FE002002F018
:101BE0003FFE442002F03CFE002002F039FE4F2070
:101BF00002F036FE002002F033FE612002F030FEDB
:101C0000002002F02DFE792002F02AFE002002F0D2
:101C100027FE882002F024FE002002F021FE9720FB
:101C200002F01EFE002002F01BFEA62002F018FEAD
:101C3000002002F015FEB72002F012FE002002F094
:101C40000FFEC22002F00CFE002002F009FEC720A9
:101C500002F006FE002002F003FED12002F000FE9A
:101C6000002002F0FDFDD62002F0FAFD002002F077
:101C7000F7FDDD2002F0F4FD002002F0F1FDF3207D
:101C800002F0EEFD002002F0EBFDE32002F0F4FD97
:101C9000052002F0E5FD002002F0E2FD0A2002F03E
:101CA000DFFD002002F0DCFD1C2002F0D9FD002049
:101CB00000E0FDE202F0D4FD332002F0D1FD00206F
:101CC00002F0CEFD442002F0CBFD002002F0C8FD62
:101CD000502002F0C5FD002002F0C2FD622002F09B
:101CE000BFFD002002F0BCFD782002F0B9FD00200D
:101CF00002F0B6FD882002F0B3FD002002F0B0FD36
:101D0000972002F0ADFD002002F0AAFDA62002F00F
:101D1000A7FD002002F0A4FDB72002F0A1FD0020E5
:101D200002F09EFDC22002F09BFD002002F098FD13
:101D3000C72002F095FD002002F092FDD12002F0B4
:101D40008FFD002002F08CFDD52002F089FD0020DF
:101D500002F086FDDD2002F083FD002002F080FD10
:101D6000F32002F07DFD002002F07AFDE42002F075
:101D700083FD012002F074FD002002F071FD0120BE
:101D800002F06EFD002002F06BFD022002F068FD03
:101D9000002002F065FD2A2002F062FD002002F022
:101DA0005FFD3C2002F05CFD002002F059FD4B205D
:101DB00002F056FD002002F053FD5D2002F050FDC0
:101DC000002002F04DFD742002F04AFD002002F0D8
:101DD00047FD842002F044FD002002F041FD9320E5
:101DE00002F03EFD002002F03BFDA22002F038FD93
:101DF000002002F035FDB32002F032FD002002F099
:101E00002FFDBE2002F02CFD002002F029FDC42091
:101E100002F026FD002002F023FDCD2002F020FD7F
:101E2000002002F01DFDD32002F01AFD002002F078
:101E300017FDDD2002F014FD002002F011FDF3205B
:101E400002F00EFD002002F00BFDE52002F014FD73
:101E5000002002F005FD002002F002FD002002F04B
:101E6000FFFC002002F0FCFC022002F0F9FC002044
:101E700002F0F6FC292002F0F3FC002002F0F0FC56
:101E80003C2002F0EDFC002002F0EAFC4B2002F0C6
:101E9000E7FC002002F0E4FC5D2002F0E1FC002001
:101EA00002F0DEFC742002F0DBFC002002F0D8FC23
:101EB000842002F0D5FC002002F0D2FC932002F036
:101EC000CFFC002002F0CCFCA22002F0C9FC0020D4
:101ED00002F0C6FCB32002F0C3FC002002F0C0FCFC
:101EE000BE2002F0BDFC002002F0BAFCC42002F0CB
:101EF000B7FC002002F0B4FCCD2002F0B1FC0020C1
:101F000002F0AEFCD32002F0ABFC002002F0A8FCF3
:101F1000DC2002F0A5FC002002F0A2FCF32002F07D
:101F20009FFC002002F09CFCE62002F0A5FC1120A2
:101F300002F096FC002002F093FC342002F090FCAA
:101F4000002002F08DFC562002F08AFC002002F0F6
:101F500087FC762002F084FC002002F081FC7720D0
:101F600002F07EFC002002F07BFC662002F078FC90
:101F7000002002F075FC882002F072FC002002F0C4
:101F80006FFC992002F06CFC002002F069FCBB2081
:101F900002F066FC002002F063FC992002F060FC75
:101FA000002002F05DFC662002F05AFC002002F0E6
:101FB00057FC552002F054FC002002F051FC552043
:101FC00002F04EFC002002F04BFC452002F048FCE1
:101FD000002002F045FC432002F042FC002002F009
:101FE0003FFC442002F03CFC002002F039FCE720DA
:101FF00002F042FC322002F033FC002002F030FC00
:10200000552002F02DFC002002F02AFC762002F080
:1020100027FC002002F024FC662002F021FC0020B6
:1020200002F01EFC672002F01BFC002002F018FCEE
:10203000672002F015FC002002F012FC872002F05D
:102040000FFC002002F00CFC992002F009FC00209B
:1020500002F006FCBB2002F003FC002002F000FCB2
:10206000992002F0FDFB002002F0FAFB772002F03D
:10207000F7FB002002F0F4FB442002F0F1FB00200B
:1020800002F0EEFB562002F0EBFB002002F0E8FB32
:10209000232002F0E5FB002002F0E2FB332002F0F7
:1020A000DFFB002002F0DCFB452002F0D9FB002022
:1020B00002F0D6FBE82002F0DFFB002002F0D0FBAC
:1020C000002002F0CDFB992002F0CAFB002002F0B4
:1020D000C7FB872002F0C4FB002002F0C1FB882070
:1020E00002F0BEFB002002F0BBFB772002F0B8FB41
:1020F000002002F0B5FB662002F0B2FB002002F0E7
:10210000AFFB882002F0ACFB002002F0A9FBAA2064
:1021100002F0A6FB002002F0A3FBBB2002F0A0FB14
:10212000002002F09DFB992002F09AFB002002F0B3
:1021300097FB662002F094FB002002F091FB5520F3
:1021400002F08EFB002002F08BFB552002F088FB92
:10215000002002F085FB442002F082FB002002F008
:102160007FFB442002F07CFB002002F079FB55202D
:1021700002F076FB002002F073FBE92002F07CFB0A
:10218000AA2002F06DFB002002F06AFB002002F0A2
:1021900067FB002002F064FB002002F06DFBAA2028
:1021A00002F05EFBCF2002F067FB002002F058FB3C
:1021B000002002F055FB002002F052FB002002F04C
:1021C0004FFB002002F04CFB002002F049FB0020F6
:1021D00002F046FB002002F043FB002002F040FB2F
:1021E000002002F03DFB002002F03AFB002002F04C
:1021F00037FB002002F034FB002002F031FB00200E
:1022000002F02EFB002002F02BFB002002F028FB46
:10221000F02002F031FB002002F022FB502002F0FF
:102220001FFB002002F01CFB002002F019FB002025
:1022300002F016FBF32002F01FFB002002F010FB5F
:10224000F92002F019FB062002F00AFB102002F030
:1022500007FB292002F004FB002002F001FB3A20DA
:1022600002F00AFB552002F0FBFA112002F004FBF9
:10227000642002F0BBFD292002F0FEFA352002F0B6
:10228000FBFA002002F0ECFA512002F0F5FAFF20F0
:1022900002F0E6FA532002F0EFFA2C2002F0E0FA06
:1022A000552002F0E9FA822002F0DAFA2C20FCE351
:1022B000A0427DD14FF470435521184602F0F2FA46
:1022C0004FF20104AA21204602F0ECFA651C5221CB
:1022D000284602F0E7FAA61C0821304602F0E2FA8E
:1022E000E71C0121384602F0DDFA0D214FF43040A1
:1022F00002F0D8FA0D214BF2010002F0D3FA0D21C1
:102300004BF2020002F0CEFA4FF436483421404638
:1023100002F0C8FA34214BF2016002F0C3FA342112
:102320004BF2026002F0BEFA4FF431490D214846EB
:1023300002F0B8FA4BF2011A0D21504602F0B2FA3F
:102340000D214BF2021002F0ADFA34214FF4374068
:1023500002F0A8FA34214BF2017002F0A3FA342102
:102360004BF2027002F09EFA00214FF4324002F06C
:1023700099FA00214BF2012002F094FA00214BF26D
:10238000022002F08FFA24214FF4384002F08AFA3A
:1023900024214BF6010002F085FA24214BF60200BD
:1023A00002F080FA01214FF43F4002F07BFA00E096
:1023B000FEE30F214FF4334002F074FA0F214BF289
:1023C000013002F06FFA0F214BF2023002F06AFA8C
:1023D00034214FF4394002F065FA34214BF60110F4
:1023E00002F060FA34214BF6021002F05BFA082189
:1023F0004FF4354002F056FA08214BF2015002F03A
:1024000051FA08214BF2025002F04CFA03214FF42A
:10241000424002F047FA24214FF43A4002F042FAD7
:1024200024214BF6012002F03DFA24214BF6022034
:1024300002F038FA00214FF43C4002F033FA7821E0
:102440004BF6014002F02EFA00214BF6024002F05A
:1024500029FA00214FF43D4002F024FA78214BF68E
:10246000015002F01FFA00214BF6025002F01AFA56
:1024700000214FF43E4002F015FA64214BF6016052
:1024800002F010FA00214FF4514002F00BFA332110
:102490004DF2011002F006FA00214DF2021002F096
:1024A00001FA34214DF2031002F0FCF900214DF243
:1024B000041002F0F7F93A214DF2051002F0F2F99A
:1024C00000214DF2061002F0EDF94A214DF20710FD
:1024D00002F0E8F900214DF2081002F0E3F95C2166
:1024E0004DF2091002F0DEF900214DF20A1002F05F
:1024F000D9F981214DF20B1002F0D4F900214DF2EF
:102500000C1002F0CFF9A6214DF20D1002F0CAF91D
:1025100000214DF20E1002F0C5F9E5214DF20F1029
:1025200002F0C0F901214DF2101002F0BBF91321A5
:102530004DF2111002F0B6F901214DF2121002F025
:10254000B1F954214DF2131002F0ACF901214DF212
:10255000141002F0A7F982214DF2151002F0A2F931
:1025600001214DF2161002F09DF9CA214DF217100B
:1025700002F098F902214DF2181002F093F90021AF
:102580004DF2191002F08EF902214DF21A1002F0EC
:1025900089F901214DF21B1002F084F902214DF25C
:1025A0001C1002F07FF934214DF21D1002F07AF96F
:1025B00002214DF21E1002F075F967214DF21F1035
:1025C00002F070F902214DF2201002F06BF9842123
:1025D0004DF2211002F066F902214DF2221002F0B4
:1025E00061F9A4214DF2231002F05CF902214DF2B1
:1025F000241002F057F9B7214DF2251002F052F9DC
:1026000002214DF2261002F04DF9CF214DF2271094
:1026100002F048F902214DF2281002F043F9DE21C0
:102620004DF2291002F03EF902214DF22A1002F07B
:1026300039F9F2214DF22B1002F034F902214DF25A
:102640002C1002F02FF9FE214DF22D1002F02AF984
:1026500003214DF22E1002F025F910214DF22F101A
:1026600002F020F903214DF2301002F01BF9332162
:102670004DF2311002F016F903214DF2321002F042
:1026800011F96D214DF2331002F00CF900214FF4D5
:10269000524002F007F933214DF2012002F002F915
:1026A00000214DF2022002F0FDF834214DF203200A
:1026B00002F0F8F800214DF2042002F0F3F83A217C
:1026C0004DF2052002F0EEF800214DF2062002F056
:1026D000E9F84A214DF2072002F0E4F800214DF21A
:1026E000082002F0DFF85C214DF2092002F0DAF850
:1026F00000214DF20A2002F0D5F881214DF20B2085
:1027000002F0D0F800214DF20C2002F0CBF8A62107
:102710004DF20D2002F0C6F800214DF20E2002F01D
:10272000C1F8E5214DF20F2002F0BCF801214DF275
:10273000102002F0B7F813214DF2112002F0B2F888
:1027400001214DF2122002F0ADF854214DF2132078
:1027500002F0A8F801214DF2142002F0A3F8822122
:102760004DF2152002F09EF801214DF2162002F0E4
:1027700099F8CA214DF2172002F094F802214DF287
:10278000182002F08FF800214DF2192002F08AF88B
:1027900002214DF21A2002F085F801214DF21B2092
:1027A00002F080F802214DF21C2002F07BF8342167
:1027B0004DF21D2002F076F802214DF21E2002F0AB
:1027C00071F867214DF21F2002F06CF802214DF2E2
:1027D000202002F067F884214DF2212002F062F8F7
:1027E00002214DF2222002F05DF8A4214DF22320B7
:1027F00002F058F802214DF2242002F053F8B721DC
:102800004DF2252002F04EF802214DF2262002F072
:1028100049F8CF214DF2272002F044F802214DF271
:10282000282002F03FF8DE214DF2292002F03AF88C
:1028300002214DF22A2002F035F8F2214DF22B2030
:1028400002F030F802214DF22C2002F02BF8FE218C
:102850004DF22D2002F026F803214DF22E2002F039
:1028600021F810214DF22F2002F01CF803214DF227
:10287000302002F017F833214DF2312002F012F827
:1028800003214DF2322002F00DF86D214DF233207C
:1028900002F008F800214FF4534002F003F833210E
:1028A0004DF2013001F0FEFF00214DF2023001F047
:1028B000F9FF34214DF2033001F0F4FF00214DF215
:1028C000043001F0EFFF3A214DF2053001F0EAFF4C
:1028D00000214DF2063001F0E5FF4A214DF20730AC
:1028E00001F0E0FF00214DF2083001F0DBFF5C2138
:1028F0004DF2093001F0D6FF00214DF20A3001F00F
:10290000D1FF81214DF20B3001F0CCFF00214DF2BF
:102910000C3001F0C7FFA6214DF20D3001F0C2FFCF
:1029200000214DF20E3001F0BDFFE5214DF20F30D8
:1029300001F0B8FF01214DF2103001F0B3FF132177
:102940004DF2113001F0AEFF01214DF2123001F0D5
:10295000A9FF54214DF2133001F0A4FF01214DF2E3
:10296000143001F09FFF82214DF2153001F09AFFE3
:1029700001214DF2163001F095FFCA214DF21730BA
:1029800001F090FF02214DF2183001F08BFF002181
:102990004DF2193001F086FF02214DF21A3001F09C
:1029A00081FF01214DF21B3001F07CFF02214DF22D
:1029B0001C3001F077FF34214DF21D3001F072FF21
:1029C00002214DF21E3001F06DFF67214DF21F30E4
:1029D00001F068FF02214DF2203001F063FF8421F5
:1029E0004DF2213001F05EFF02214DF2223001F064
:1029F00059FFA4214DF2233001F054FF02214DF282
:102A0000243001F04FFFB7214DF2253001F04AFF8D
:102A100002214DF2263001F045FFCF214DF2273043
:102A200001F040FF02214DF2283001F03BFFDE2192
:102A30004DF2293001F036FF02214DF22A3001F02B
:102A400031FFF2214DF22B3001F02CFF02214DF22B
:102A50002C3001F027FFFE214DF22D3001F022FF36
:102A600003214DF22E3001F01DFF10214DF22F30C9
:102A700001F018FF03214DF2303001F013FF332134
:102A80004DF2313001F00EFF03214DF2323001F0F2
:102A900009FF6D214DF2333001F004FF00214FF4A6
:102AA000544001F0FFFE332100E080E34DF201408D
:102AB00001F0F8FE00214DF2024001F0F3FE342156
:102AC0004DF2034001F0EEFE00214DF2044001F012
:102AD000E9FE3A214DF2054001F0E4FE00214DF2FD
:102AE000064001F0DFFE4A214DF2074001F0DAFE18
:102AF00000214DF2084001F0D5FE5C214DF2094065
:102B000001F0D0FE00214DF20A4001F0CBFE812100
:102B10004DF20B4001F0C6FE00214DF20C4001F0D9
:102B2000C1FEA6214DF20D4001F0BCFE00214DF288
:102B30000E4001F0B7FEE5214DF20F4001F0B2FE6C
:102B400001214DF2104001F0ADFE13214DF2114074
:102B500001F0A8FE01214DF2124001F0A3FE542124
:102B60004DF2134001F09EFE01214DF2144001F0A0
:102B700099FE82214DF2154001F094FE01214DF2A3
:102B8000164001F08FFECA214DF2174001F08AFE77
:102B900002214DF2184001F085FE00214DF219404E
:102BA00001F080FE02214DF21A4001F07BFE00E0B0
:102BB00000E301214DF21B4001F074FE02214DF2B1
:102BC0001C4001F06FFE34214DF21D4001F06AFE01
:102BD00002214DF21E4001F065FE67214DF21F40BB
:102BE00001F060FE02214DF2204001F05BFE8421E5
:102BF0004DF2214001F056FE02214DF2224001F03B
:102C000051FEA4214DF2234001F04CFE02214DF271
:102C1000244001F047FEB7214DF2254001F042FE6D
:102C200002214DF2264001F03DFECF214DF227401A
:102C300001F038FE02214DF2284001F033FEDE2182
:102C40004DF2294001F02EFE02214DF22A4001F002
:102C500029FEF2214DF22B4001F024FE02214DF21B
:102C60002C4001F01FFEFE214DF22D4001F01AFE16
:102C700003214DF22E4001F015FE10214DF22F40A0
:102C800001F010FE03214DF2304001F00BFE332124
:102C90004DF2314001F006FE03214DF2324001F0C9
:102CA00001FE6D214DF2334001F0FCFD00214FF497
:102CB000554001F0F7FD33214DF2015001F0F2FDD6
:102CC00000214DF2025001F0EDFD34214DF2035090
:102CD00001F0E8FD00214DF2045001F0E3FD3A213E
:102CE0004DF2055001F0DEFD00214DF2065001F0DD
:102CF000D9FD4A214DF2075001F0D4FD00214DF2DB
:102D0000085001F0CFFD5C214DF2095001F0CAFDE1
:102D100000214DF20A5001F0C5FD81214DF20B500A
:102D200001F0C0FD00214DF20C5001F0BBFDA621C9
:102D30004DF20D5001F0B6FD00214DF20E5001F0A4
:102D4000B1FDE5214DF20F5001F0ACFD01214DF236
:102D5000105001F0A7FD13214DF2115001F0A2FD1A
:102D600001214DF2125001F09DFD54214DF21350FE
:102D700001F098FD01214DF2145001F093FD8221E4
:102D80004DF2155001F08EFD01214DF2165001F06B
:102D900089FDCA214DF2175001F084FD02214DF248
:102DA000185001F07FFD00214DF2195001F07AFD1D
:102DB00002214DF21A5001F075FD01214DF21B5018
:102DC00001F070FD02214DF21C5001F06BFD342129
:102DD0004DF21D5001F066FD02214DF21E5001F032
:102DE00061FD67214DF21F5001F05CFD02214DF2A3
:102DF000205001F057FD84214DF2215001F052FD89
:102E000002214DF2225001F04DFDA4214DF223503C
:102E100001F048FD02214DF2245001F043FDB7219D
:102E20004DF2255001F03EFD02214DF2265001F0F9
:102E300039FDCF214DF2275001F034FD02214DF232
:102E4000285001F02FFDDE214DF2295001F02AFD1E
:102E500002214DF22A5001F025FDF2214DF22B50B6
:102E600001F020FD02214DF22C5001F01BFDFE214E
:102E70004DF22D5001F016FD03214DF22E5001F0C0
:102E800011FD10214DF22F5001F00CFD03214DF2E8
:102E9000305001F007FD33214DF2315001F002FDB9
:102EA00003214DF2325001F0FDFC6D214DF2335003
:102EB00001F0F8FC00214FF4564001F0F3FC3321FF
:102EC0004DF2016001F0EEFC00214DF2026001F0D4
:102ED000E9FC34214DF2036001F0E4FC00214DF2E5
:102EE000046001F0DFFC3A214DF2056001F0DAFCEC
:102EF00000214DF2066001F0D5FC4A214DF2076039
:102F000001F0D0FC00214DF2086001F0CBFC5C2107
:102F10004DF2096001F0C6FC00214DF20A6001F09B
:102F2000C1FC81214DF20B6001F0BCFC00214DF28F
:102F30000C6001F0B7FCA6214DF20D6001F0B2FC6F
:102F400000214DF20E6001F0ADFCE5214DF20F6065
:102F500001F0A8FC01214DF2106001F0A3FC132147
:102F60004DF2116001F09EFC01214DF2126001F062
:102F700099FC54214DF2136001F094FC01214DF2B3
:102F8000146001F08FFC82214DF2156001F08AFC83
:102F900001214DF2166001F085FCCA214DF2176047
:102FA00001F080FC02214DF2186001F07BFC002151
:102FB0004DF2196001F076FC02214DF21A6001F029
:102FC00071FC01214DF21B6001F06CFC02214DF2FD
:102FD0001C6001F067FC34214DF21D6001F062FCC1
:102FE00002214DF21E6001F05DFC67214DF21F6071
:102FF00001F058FC02214DF2206001F053FC8421C5
:103000004DF2216001F04EFC02214DF2226001F0F0
:1030100049FCA4214DF2236001F044FC02214DF251
:10302000246001F03FFCB7214DF2256001F03AFC2D
:1030300002214DF2266001F035FCCF214DF22760D0
:1030400001F030FC02214DF2286001F02BFCDE2162
:103050004DF2296001F026FC02214DF22A6001F0B8
:1030600021FCF2214DF22B6001F01CFC02214DF2FB
:103070002C6001F017FCFE214DF22D6001F012FCD6
:1030800003214DF22E6001F00DFC10214DF22F6056
:1030900001F008FC03214DF2306001F003FC332104
:1030A0004DF2316001F0FEFB03214DF2326001F080
:1030B000F9FB6D214DF2336001F0F4FB5521184608
:1030C00001F0F0FBAA21204601F0ECFB522128463A
:1030D00001F0E8FB0821304601F0E4FB002138460E
:1030E00001F0E0FBCC21484601F0DCFB002150461A
:1030F00001F0D8FB0521404601F0D4FB70214FF4CC
:10310000374001F0CFFB70214BF2017001F0CAFB98
:1031100001214FF4384001F0C5FB03214BF60100BB
:1031200001F0C0FB03214BF6020001F0BBFB0321C1
:103130004BF6030001F0B6FB02214FF43C4001F0D6
:10314000B1FB00214BF6014001F0ACFB00214BF636
:10315000024001F0A7FBD0214FF4494001F0A2FB4F
:1031600002214CF6011001F09DFB50214CF602109B
:1031700001F098FB50214CF6031001F093FB502115
:103180004CF6041001F08EFB00214FF4545001F076
:1031900089FB55214FF4685001F084FB4FF48850AF
:1031A00001F06AFB782001F03DFE4FF4245001F05D
:1031B00063FBFDE0A0F513414FF480744FF4E06928
:1031C00040F2022A4FF4274625397CD0A0F513415E
:1031D00040F20775283977D0A0F513414FF488776E
:1031E0004FF41C56203970D0A0F5134131396DD001
:1031F000A0F5A84108396AD0A0F5A8514FF440774E
:10320000053965D0A0F5354105397CD0A0F545419B
:10321000053979D0A0F58A41313976D0A0F58A41B7
:10322000353973D04045C4D1E22001F025FB1D2083
:1032300001F016FB022001F013FB042001F010FB4B
:10324000642001F0EFFDE02001F016FB012001F009
:1032500007FB0A2001F0CAFDE02001F00DFB03206E
:1032600001F0FEFA0C2001F0C1FD012001F004FB89
:103270000A2001F0BBFDE62001F0FEFA2F2001F04C
:10328000EFFAFF2001F0ECFAFF2001F0E9FAB0209C
:1032900001F0F2FA202001F0E3FA002001F0E0FA58
:1032A000032001F0DDFA40F21F3001F0D9FA0120CD
:1032B00001F0D6FA40F2DF1001F0D2FA002001F05E
:1032C000CFFAB42005E080E04BE103E2AAE27FE31D
:1032D000FEE301F0D1FA042001F0C2FA40F21F40EF
:1032E00001F0BEFA002001F0BBFA2E2001F0B8FA7E
:1032F000002001F0B5FA002001F0B2FA002001F040
:10330000AFFA002003E0FDE3FDE3FDE3FDE301F0A0
:10331000A7FAB62001F0B0FA022001F0A1FA4FF4AA
:10332000037001F09DFA002001F09AFA172001F0D5
:1033300097FA152001F094FA002001F091FA00208C
:1033400001F08EFAF02001F097FA032001F088FADC
:10335000292001F091FAD02001F08EFA002001F02E
:103360007FFABE2001F088FA052001F079FAFE20EC
:1033700001F076FA012001F073FA002001F070FAF2
:10338000002001F06DFA002001F06AFAB82001F087
:1033900073FA032001F064FA012001F061FABA2007
:1033A00001F06AFA012001F05BFA642000F0F6FFF8
:1033B0000020FDF72BFBFF490120C1F8BC02584655
:1033C000FDF7EEFA21B0BDE8F08F47F6F001E520F9
:1033D00001F068FA2146012001F064FA4946022012
:1033E00001F060FA41F23001032001F05BFA0021A4
:1033F000042001F057FA5146082001F053FA002149
:10340000092001F04FFA00210A2001F04BFA0021B7
:103410000C2001F047FA00210D2001F043FA0021B1
:103420000F2001F03FFA0021102001F03BFA0721A4
:10343000112001F037FA0021122001F033FA0021A7
:10344000132001F02FFA0021072001F02BFA41F29E
:103450009061102001F026FA40F22721112001F09E
:1034600021FA9D21122001F01DFA4FF4C8511320BA
:1034700001F018FA2521292001F014FA0D212B2042
:1034800001F010FA0721302001F00CFA40F203316C
:10349000312001F007FA0321322001F003FA40F253
:1034A0000621352001F0FEF90821362001F0FAF955
:1034B00040F20641372001F0F5F94FF44171382010
:1034C00001F0F0F90721392001F0ECF940F2026136
:1034D0003C2001F0E7F908213D2001F0E3F900214B
:1034E000502001F0DFF9EF21512001F0DBF900213C
:1034F000522001F0D7F940F23F11532001F0D2F9E8
:103500003146602001F0CEF90121612001F0CAF9B5
:1035100000216A2001F0C6F90021802001F0C2F9E3
:103520000021812001F0BEF90021822001F0BAF9CA
:103530000021832001F0B6F90021842001F0B2F9C6
:103540000021852001F0AEF91021902001F0AAF9A8
:103550004FF4C061922001F0A5F940F23311072029
:10356000FEE341F28F01EC2001F09CF941F234219D
:10357000EF2001F097F92146012001F093F9494627
:10358000022001F08FF941F23001032001F08AF9A5
:103590000021042001F086F95146082001F082F94B
:1035A0000021092001F07EF900210A2001F07AF9BA
:1035B00001210C2001F076F900210D2001F072F9B3
:1035C00000210F2001F06EF90021102001F06AF9AE
:1035D0000721112001F066F90021122001F062F9A3
:1035E0000021132001F05EF90121072001F05AF9B2
:1035F000322001F0FBFB41F29041102001F052F922
:1036000040F22721112001F04DF9322001F0EEFBAC
:103610008A21122001F046F9322001F0E7FB4FF435
:10362000D051132001F03EF90621292001F03AF98A
:103630000D212B2001F036F9322001F0D7FB0021BB
:10364000202001F02FF90021212001F02BF9322058
:1036500001F0CCFB0021302001F024F940F204619C
:10366000312001F01FF940F20531322001F01AF942
:103670000021352001F016F940F60941362001F00D
:1036800011F94FF40171372001F00CF940F20131CA
:10369000382001F007F92946392001F003F900210B
:1036A0003C2001F0FFF840F60A213D2001F0FAF835
:1036B000322001F09BFB0021502001F0F3F8EF21B4
:1036C000512001F0EFF80021522001F0EBF840F218
:1036D0003F114EE10021084601F0E4F821460120A7
:1036E00001F0E0F84946022001F0DCF841F2300137
:1036F000032001F0D7F80021042001F0D3F851464F
:10370000082001F0CFF80021092001F0CBF80021BA
:103710000A2001F0C7F801210C2001F0C3F80021B4
:103720000D2001F0BFF800210F2001F0BBF832207E
:1037300001F05CFB40F20111072001F0B3F83220E8
:1037400001F054FB4FF48651102001F0ABF8072133
:10375000112001F0A7F83946122001F0A3F84FF428
:103760003061132001F09EF80021292001F09AF821
:1037700044F210012B2001F095F80021502001F0B7
:1037800091F8EF21512001F08DF80021522001F035
:1037900089F840F23F11532001F084F8314660204F
:1037A00001F080F80121612001F07CF800216A20FD
:1037B00002E000000080404201F074F80021802007
:1037C00001F070F80021812001F06CF800218220C6
:1037D00001F068F80021832001F064F800218420C2
:1037E00001F060F80021852001F05CF810219020A4
:1037F00001F058F80021922001F054F801219320A3
:1038000001F050F83946952001F04CF8002197203E
:1038100001F048F80021982001F044F840F27311BB
:10382000072081E341F21401E72001F03BF8214633
:10383000012001F037F84FF40071022001F032F856
:1038400041F23801032001F02DF85146082001F023
:1038500029F80021092001F025F800210A2001F0B3
:1038600021F800210C2001F01DF800210D2001F0AD
:1038700019F800210F2001F015F80021102001F0A7
:1038800011F80721112001F00DF80021122001F09C
:1038900009F80021132001F005F8C82001F0A6FA6C
:1038A00041F29061102000F0FDFF40F2272111202D
:1038B00000F0F8FF322001F099FA0C21122000F0FC
:1038C000F1FF322001F092FA4FF40061132000F072
:1038D000E9FF1121292000F0E5FF0B212B2000F04A
:1038E000E1FF322001F082FA0021202000F0DAFF0F
:1038F00040F23F131946212000F0D4FF0021302070
:1039000000F0D0FF4FF483742146312000F0CAFF4D
:103910000021322000F0C6FF4FF40171352000F085
:10392000C1FF41F20A61362000F0BCFF2946372072
:1039300000F0B8FF2146382000F0B4FF29463920B6
:1039400000F0B0FF40F202413C2000F0ABFF40F637
:103950000F413D2000F0A6FF0021502000F0A2FF03
:10396000EF21512000F09EFF0021522000F09AFF2D
:103970001946532000F096FF3146602000F092FF78
:103980000121612000F08EFF00216A2000F08AFFF3
:103990000021802000F086FF0021812000F082FFBE
:1039A0000021822000F07EFF0021832000F07AFFBA
:1039B0000021842000F076FF0021852000F072FFB6
:1039C0001021902000F06EFF4FF4C0619220FDE3C3
:1039D0002146012000F066FF4946022000F062FF08
:1039E00041F23001032000F05DFF0021042000F0CF
:1039F00059FF40F20721082000F054FF0021092060
:103A000000F050FF00210A2000F04CFF00210C20A4
:103A100000F048FF00210D2000F044FF00210F209E
:103A200000F040FF142001F0E1F941F2B0611020F4
:103A300000F038FF0121112000F034FF0121172090
:103A400000F030FF4FF49C71122000F02BFF4FF478
:103A50000061132000F026FF0921292000F022FF39
:103A600009212A2000F01EFF0021A42000F01AFFE7
:103A70000021502000F016FFEF21512000F012FF2E
:103A80000021522000F00EFF40F23F11532000F0C1
:103A900009FF3146602000F005FF0121612000F0A0
:103AA00001FF00216A2000F0FDFE0021802000F0CF
:103AB000F9FE0021812000F0F5FE0021822000F0B7
:103AC000F1FE0021832000F0EDFE0021842000E0C3
:103AD00021E000F0E7FE0021852000F0E3FE132145
:103AE000902000F0DFFE0021922000F0DBFE032199
:103AF000932000F0D7FE3946952000F0D3FE40F227
:103B0000731103E014E110E2D7E28CE3072000F028
:103B1000C9FE322008E10021072000F0C3FE322058
:103B200001F064F94FF48E71122000F0BBFE012108
:103B3000A42000F0B7FE0F21082000F0B3FE0821FA
:103B40000A2000F0AFFE08210D2000F0ABFE2B464E
:103B50002946302000F0A6FE0721312000F0A2FE09
:103B600040F20361322000F09DFE4D46494633206D
:103B700000F098FE5146342000F094FE02213520DA
:103B800000F090FE41F60F71362000F08BFE1946D2
:103B9000372000F087FE0021382000F083FE00214E
:103BA000392000F07FFE19463A2000F07BFE00210C
:103BB0003B2000F077FE07213C2000F073FE00213F
:103BC0003D2000F06FFE322001F010F901210720A6
:103BD00000F068FE0121172000F064FE322001F0A1
:103BE00005F94FF4BD51102000F05CFE40F21721A2
:103BF000112000F057FE4FF48F71122000F052FE9A
:103C00004FF47061132000F04DFE00212A2000F0D7
:103C100049FE0A21292000F045FE4FF49F71122031
:103C200000F040FE0021502000F03CFEEF2151202A
:103C300000F038FE0021522000F034FE40F23F1127
:103C4000532000F02FFE3146602000F02BFE0121B2
:103C5000612000F027FE00216A2000F023FE0021F1
:103C6000802000F01FFE0021812000F01BFE0021BB
:103C7000822000F017FE0021832000F013FE0021B7
:103C8000842000F00FFE0021852000F00BFE1321A0
:103C9000902000F007FE3946922000F003FE052137
:103CA000932000F0FFFD0021952000F0FBFD002196
:103CB000972000F0F7FD0021982000F0F3FD214649
:103CC000012000F0EFFD2946022000F0EBFD41F25B
:103CD0003801032000F0E6FD0021042000F0E2FDA1
:103CE00000210C2000F0DEFD00210F2000F0DAFDA5
:103CF0000021202000F0D6FD0021212000F0D2FD7F
:103D00002121072000F0CEFD142001F06FF8612181
:103D1000072000F0C7FD142001F068F840F273118D
:103D2000072000F0BFFD142001F060F8FFF740BB52
:103D30000021084600F0B6FD0021084600F0B2FD63
:103D40000021084600F0AEFD0021084600F0AAFD63
:103D50000121A42000F0A6FD142001F047F800E0A6
:103D6000DEE03146602000F09DFD554651460820BA
:103D700000F098FD4FF40571302000F093FD43F200
:103D80001571312000F08EFD40F20461322000F008
:103D900089FD40F61661332000F084FD42F21121C6
:103DA000342000F07FFD4FF4A851352000F07AFD5B
:103DB00048F20751362000F075FD41F207413720E7
:103DC00000F070FD41F20341382000F06BFD20212E
:103DD000392000F067FD1A21902000F063FD0021DA
:103DE000102000F05FFD0721112000F05BFD002195
:103DF000122000F057FD0021132000F053FD142085
:103E000000F0F4FF4FF4E661102000F04BFD40F2AB
:103E10003711112000F046FD142000F0E7FF4FF4A9
:103E2000DC71122000F03EFD142000F0DFFF4FF4A3
:103E30007061132000F036FD80212A2000F032FD51
:103E40004821292000F02EFD142000F0CFFF21464C
:103E5000012000F027FD4946022000F023FD41F239
:103E60003801032000F01EFD2946082000F01AFD4D
:103E700000210A2000F016FD00210C2000F012FDA8
:103E800000210D2000F00EFD30210E2000F00AFD73
:103E90000021502000F006FDEF21512000F002FD2E
:103EA0000021522000F0FEFC40F23F11532000F0B0
:103EB000F9FC3146602000F0F5FC0121612000F0A2
:103EC000F1FC00216A2000F0EDFC1121902000F0AF
:103ED000E9FC4FF4C061922000F0E4FC40F20241A2
:103EE000932000F0DFFC0221942000F0DBFC142082
:103EF00000F07CFF0121072000F0D4FC142000F02A
:103F000075FF6121072000F0CDFC40F273110720FE
:103F100000F0C8FC0021202000F0C4FC002121207A
:103F200000F0C0FC222100207AE10021084600F0C8
:103F3000B9FC0021084600F0B5FC142000F056FF43
:103F40000021084600F0AEFC0021084600F0AAFC63
:103F50000021084600F0A6FC0021084600F0A2FC63
:103F60000121A42000F09EFC142000F03FFF314608
:103F7000602000F097FC40F60601082000F092FC5B
:103F800040F203731946302000F08CFC01213120EF
:103F900000F088FC0421322000F084FC4FF4817191
:103FA000332000F07FFC3946342000F07BFC40F2E7
:103FB0000311352000F076FC1F21362000F072FC42
:103FC0001946372000F06EFC0121382000F06AFC11
:103FD0000421392000F066FC1521902000F062FCDD
:103FE0004FF48261102000F05DFC40F24721112067
:103FF00000F058FC4FF4DE71122000F053FC4FF437
:104000006061132000F04EFC782000F0EFFE2146A6
:10401000012000F047FC4FF40071022000F042FC48
:1040200041F23001032000F03DFC08210A2000F09D
:1040300039FC00210C2000F035FC20210E2000F07E
:1040400031FC00210F2000F02DFC0021202000F089
:1040500029FC0021212000F025FC3D212A2000F030
:1040600021FC142000F0C2FE2D21292000F01AFCB2
:104070000021502000F016FC4DF2EF01512000F01D
:1040800011FC0021522000F00DFC40F23F115320A2
:1040900000F008FC0021612000F004FC00216A20EF
:1040A00000F000FC3946922000F0FCFB0521932033
:1040B00000F0F8FB2146FFF7B3BB0121002000F020
:1040C000F1FB0A2000F092FE41F22861102000F07E
:1040D000E9FB0E21122000F0E5FB40F63921132008
:1040E00000F0E0FB0A2000F081FE4021112000F0EA
:1040F000D9FB5021152000F0D5FB0A2000F076FEF8
:104100001E21122000F0CEFB0A2000F06FFE4FF4BB
:10411000B151102000F0C6FB42F63921132000F007
:10412000C1FB0A2000F062FE2146012000F0BAFB2C
:104130003946022000F0B6FB41F23801032000F0BE
:10414000B1FB5146082000F0ADFB08210A2000F029
:10415000A9FB0021302000F0A5FB40F202413120F4
:1041600000F0A0FB4FF48371322000F09BFB40F283
:104170000351332000F096FB4FF48271342000F09D
:1041800091FB40F20131352000F08CFB29463620AE
:1041900000F088FB40F20531372000F083FB4FF43C
:1041A0000271382000F07EFB40F60B71392000F0E0
:1041B00079FB0221412000F075FB3146602000F0C0
:1041C00071FB0121612000F06DFB00E0CDE04FF4B8
:1041D0000471902000F066FB4FF48571922000F08E
:1041E00061FB0421932000F05DFB2146A02000F03C
:1041F00059FB0121072000F055FB2121072000F089
:1042000051FB2321072000F04DFB3321072000F054
:1042100049FB40F23311072000F044FB0021A020AD
:1042200000F040FB82E53021152000F03BFB10211F
:104230009A2000F037FB2021112000F033FB43F2DD
:104240002841102000F02EFB0221122000F02AFB52
:1042500041F23801132000F025FB282000F0C6FDB4
:104260001221084600F01EFB282000F0BFFD43F29B
:104270002041102000F016FB43F23801132000F01B
:1042800011FB462000F0B2FD0021302000F00AFBB7
:1042900040F20241312000F005FB40F207313220AC
:1042A00000F000FB4FF44171332000F0FBFA0421D1
:1042B000342000F0F7FA40F20141352000F0F2FA24
:1042C0002946362000F0EEFA40F20531372000F0A2
:1042D000E9FA4FF4C2631946382000F0E3FA1946B0
:1042E000392000F0DFFA2146012000F0DBFA3946E0
:1042F000022000F0D7FA41F23001032000F0D2FA98
:1043000040F60801082000F0CDFA08210A2000F04C
:10431000C9FA3146602000F0C5FA0121612000F0A1
:10432000C1FA4FF49F71902000F0BCFA2146922010
:1043300000F0B8FA2146932000F0B4FA4FF440514F
:10434000A02000F0AFFA1021A32000F0ABFA012169
:10435000072000F0A7FA2121072000F0A3FA23216B
:10436000072000F09FFA3321072000F09BFA40F26B
:104370003311A0E608B54FF0D840B0F88000ADF892
:104380000000BDF8000008BD10B500F075FA05206A
:1043900000F048FDBDE81040FFF7ECBF10B5024645
:1043A000BE2000F069FA052000F05AFA104602F02B
:1043B0003EFD9FED0C1B53EC112B02F04BFD02F068
:1043C00009FD80B200F04CFA012000F049FAFF200C
:1043D00000F046FA002000F043FABDE8104000204B
:1043E00000F03EBA6666666666660440F0B57F4DCC
:1043F00000232946AA79898846F6040741F6631402
:10440000012A01D02AB11DE0B9421BD0A14202D13C
:1044100018E0A14216D1082814D2DFE800F0040603
:10442000080A0C0E101206200CE007200AE00420F7
:1044300008E0052006E0012004E0002002E003205F
:1044400000E00220A1F5134C45F2103245F210565F
:10445000BCF1410C07D0B94205D0914203D0B14222
:1044600001D0A1427BD1082812D2DFE800F011046C
:1044700006080A0C0E1080230AE0402308E0C0233F
:1044800006E0202304E0602302E0A02300E0E02314
:10449000B14202D14FF4585000E03620914205D08D
:1044A000B14203D0A14201D043F00803B94201D187
:1044B00043F00203194600F0F5F9AA88A2420AD097
:1044C00098062888698802D5884202D303E088428A
:1044D00001D9298068806889B24241D100F0CCF9C5
:1044E000002000F0BDF96889401C80B200F0C4F9DA
:1044F000002000F0B5F96889801C80B200F0BCF99A
:104500002888401EC0F30F2000F0AAF96889C01C5B
:1045100080B200F0B1F92878401EC0B200F0A0F9D6
:10452000A88900F0A9F9002000F09AF9A889401C98
:1045300080B200F0A1F9002000F092F9A889801C57
:1045400080B200F099F96888401EC0F30F2000F097
:1045500087F9A889C01C80B200F08EF922E028E01B
:1045600000F08AF9002000F07BF9002000F078F9D3
:104570002888401EC0F30F2000F072F92878401EF2
:10458000C0B200F06DF9A88900F076F9002000F0C3
:1045900067F9002000F064F96888401EC0F30F201E
:1045A00000F05EF9A878BDE8F040401EC0B200F00F
:1045B00057B9082812D2DFE800F0040608110A0CE7
:1045C0000E1030230AE0102308E0202306E03823F1
:1045D00004E0282302E0182300E00823BDE8F040AF
:1045E000032043F4805100F05DB90000B4000020C6
:1045F0002DE9F043DFF844810C460246050AB8F87D
:1046000004104046A1F5134340894FEA1429413B69
:1046100017D0A1F5A643103B13D04646A1F5D047CD
:10462000B3793688B61A761E043F0ED0A1F5C85766
:10463000633F1ED0A1F5AA47103F57D0012B72D07F
:1046400072E000F019F9284605E0012B00D1B2B262
:1046500000F012F9100A00F003F9D0B200F000F9EE
:10466000B8F80C0000F008F9484600F0F9F8E0B29C
:104670002AE06BB300F000F9284600F0F1F8D0B260
:1046800000F0EEF8B8F80000401EC0F30F2000F074
:10469000E7F898F80000401EC0B200F0E1F8B8F862
:1046A0000C0000F0E9F8484600F0DAF8E0B200F05B
:1046B000D7F8B8F80200401EC0F30F2000F0D0F881
:1046C00098F80200401EC0B2BDE8F04300F0C8B840
:1046D000B2B200F0D1F8002000F0C2F8002000F0E3
:1046E000BFF8100A00F0BCF8D0B2D6E700F0C4F86A
:1046F000284600F0B5F8B8F80A00401C80B200F077
:10470000BBF8D0B200F0ACF8B8F80C0000F0B4F888
:10471000484600F0A5F8B8F80C00401C80B200F044
:10472000ABF8A4E7FFE7B2B2114600F0BBF8B8F867
:104730000C002146BDE8F04300F0B4B8B4000020FE
:104740002DE9F84F82461F460C468B46580700D08D
:10475000012000EBD700790810FB01F0203AC0B22D
:1047600002F0FF090026009041E00C2F10D0102F1E
:1047700012D0182F3ED1204909EBC90001EB80006F
:104780004FF00008855D28060AD51C4802880BE01A
:1047900009EB49001A49F1E71A4901EB0910EFE763
:1047A0000A9828B91548428821465046FCF7C8F9AE
:1047B0006806050E1448641CA4B24088A04219D9AA
:1047C000A4EB0B00B84209D10AF101001FFA80FAEC
:1047D0000D485C46018851450CD906E008F10100FE
:1047E00000F0FF08B8F1080FCDD3761CF6B20098A0
:1047F0008642BAD3BDE8F88FBE7A000820000020B8
:104800005A700008CE740008B40000202DE9F84F5B
:10481000044600F0FF0810190D46DDE90A761FFA7C
:1048200080FA58191FFA80F94FF0000B11E0544537
:1048300002D3E819444685B24D450FD23B4629467E
:104840002046CDF800B0FFF77BFF04EB570084B2A1
:10485000761C3278A2F120005E28E8D9BDE8F88FF6
:1048600001B5BDF80000ADF80000BDF800004FF044
:10487000D841A1F8800008BD01B5BDF80000ADF831
:104880000000BDF800004FF0D841A1F87E0008BD3F
:1048900003484FF0D8410089A1F87E00704700001E
:1048A000B40000204FF0D84222F87E0F51807047AC
:1048B0007CB50121202000F059F801208DF804007A
:1048C00000228DF8062003218DF80510074D4FF4C6
:1048D000C0648DF80700009469462846FCF710F87C
:1048E00021462846FCF758F87CBD00000014024021
:1048F000FEE7704730B50F23C27801780125FAB181
:10490000144A126801F1E02102F4E062C2F5E062AB
:10491000C2F30722C2F10404D3404278A240847853
:104920001C401443220181F80024007800F01F018C
:104930008D404009800000F1E020C0F8005130BDFA
:1049400001F01F0085404809800000F1E020C0F818
:10495000805130BD0CED00E0024908430249086077
:10496000704700000000FA050CED00E0044A002941
:10497000116801D0014300E08143116070470000DD
:1049800030380240044A0029116801D0014300E098
:10499000814311607047000038380240044A002902
:1049A000116801D0014300E08143116070470000AD
:1049B0004438024070B5204B1968204C11F00C01AE
:1049C00004D06610042903D0082903D004601BE03A
:1049D000066019E0184A121F1168C1F3805511686A
:1049E00001F03F0115B1B6FBF1F101E0B4FBF1F1CB
:1049F00014681268C4F388146143C2F30142521C64
:104A00005200B1FBF2F1016019680F2202EA1111A4
:104A10000B4A545C0168E14041601C68072505EAC7
:104A20009424145D21FA04F484601B6805EA53336E
:104A3000D25CD140C16070BD083802400024F4004F
:104A4000300000200CB5002227490092019208682E
:104A500040F4803008604FF4A043086800F4003050
:104A600001900098401C0090019810B9009898425D
:104A7000F3D10868800334D5012001901A484030F2
:104A8000026842F0805202601848026842F44042D4
:104A900002601548083002680260026842F4004271
:104AA0000260026842F4A0520260031F104A1A60BA
:104AB0000A6842F080720A600A689201FCD50D49CA
:104AC00040F205720A60016821F00301016001688B
:104AD00041F0020101600168C1F381010229FAD1AC
:104AE0000CBD01920CBD0000003802400070004077
:104AF00008544007003C02404FF0E02104280869B8
:104B000003D020F004000861704740F00400FAE789
:104B100010B501F003FF012803D0BDE8104001F0FB
:104B2000F1BB10BD124810B5016841F4700101607D
:104B30001048016841F0010101600E4A002108326D
:104B4000116002680C4B1A400260031D0B4A1A6088
:104B5000026822F48022026006480C300160FFF7F0
:104B600071FF03494FF000608039086010BD0000FC
:104B700088ED00E000380240FFFFF6FE1030002410
:104B800010B5084C0121204600F039F8012802D167
:104B900005A0FBF7D1FB2046BDE81040012100F045
:104BA0002BB800000004004054494D33CAE4B3F66A
:104BB0002E2E2E2E2E2E2E0D0A00000010B5084C83
:104BC0000121204600F01BF8012802D105A0FBF7C7
:104BD000B3FB2046BDE81040012100F00DB80000F5
:104BE000000C004054494D35CAE4B3F62E2E2E2E4B
:104BF0002E2E2E0D0A000000C94301827047024686
:104C00000020138A92890B4202EA010202D0002A94
:104C100000D001207047000070B5154C40F22551BE
:104C2000204600F035F800280ED0204600F0BEF8EF
:104C3000104AC1B21088030406D444044FF00003A4
:104C400006D50A2901D0138070BD40F400400DE064
:104C50000D2909D0C0F30D04074D401C80B2295521
:104C60001080C728EFD870BD40F48040108070BD20
:104C70000010014028000020C20000200029818986
:104C800002D041F4005101E021F4005181817047CC
:104C900070B501F01F0501260024C1F3421306FA86
:104CA00005F2012B0FD0022B0FD0838A4FEA11217E
:104CB0000088134206FA01F600EA060001D000B1AE
:104CC0000124204670BD8389F0E7038AEEE710B522
:104CD000C1F3421301F01F040121A140012B07D0B1
:104CE000022B07D01430002A026805D00A4304E0E2
:104CF0000C30F8E71030F6E78A43026010BD000080
:104D00007FB50446008A0D46C98820F4405001430F
:104D10002182A08941F20C618843A9882A89114324
:104D20006A8902431143A181A08A20F44071A889B5
:104D30000843A0826846FFF73DFE1A48844202D02D
:104D40001948844201D1039800E00298A18909041E
:104D500000EBC00101EB0010296801D5490000E01B
:104D60008900B0FBF1F06422B0FBF2F109010B09FC
:104D70006FF018056B4300EB8300A3891D044FF00F
:104D8000320306D503EBC000B0FBF2F000F00700E1
:104D900005E003EB0010B0FBF2F000F00F00084359
:104DA00020817FBD00100140001401408088C0F3C5
:104DB00008007047FEE7704710B504460420FFF76F
:104DC0009BFE09484CF2503104704C433221418023
:104DD0004FF0E021086940F0020008614C61086969
:104DE00040F00100086110BD2400002070B50446A9
:104DF00001F094FD01280CD0094D6888844203D34A
:104E0000B4FBF0F001F004F86888B4FBF0F100FBAB
:104E100011444FF47A706043BDE8704000F002B86E
:104E20002400002070B54FF0E02500216C69094A8C
:104E3000AB6912785043AA699A42FCD002D2A3EB24
:104E4000020302E0A4EB02063344194413468142F4
:104E5000F1D370BD2400002070B5054600244FF446
:104E60007A7603E03046FFF7DDFF641CAC42F9D3ED
:104E700070BD000003490A885206FCD5C2B28A8080
:104E800070470000001001401CB54FF44070FFF760
:104E900063FDA820FFF790FF4FF4E13000F0DAFD4A
:104EA000FFF706FDFBF7D4FE1F494FF478401024AE
:104EB00008801EA0CDE900402346C8220A211E20FA
:104EC000FFF7A4FC1EA0CDE900401E211023C8223C
:104ED0000846FFF79BFC1FA0CDE900401023C82225
:104EE00032211E20FFF792FC20A0CDE900401023C4
:104EF000C82246211E20FFF789FC20A0CDE90040F2
:104F00001023C8225A211E20FFF780FC1E490120D1
:104F1000CDE90001002380221CA11F4801F0D2FC32
:104F200001F0D6F800201CBD2000002041544B2089
:104F300053544D3332463130332F34303700000074
:104F40004672656552544F53204578616D70203923
:104F50002D3100004672656552544F5320526F75D3
:104F60006E6420526F62696E0000000041544F4D24
:104F700040414C49454E54454B00000032303136DB
:104F80002F31312F32350000000000207374617220
:104F9000745F7461736B0000595900082DE9F0418A
:104FA000184E0F460446F5683068001D00F0A8FD55
:104FB00038B9306890F82C1001208840316981435D
:104FC0003161601C07D137B13168BDE8F0410E484E
:104FD000091D00F0CDBD30682C44AC4244603168FE
:104FE00005D2B06BBDE8F041091D00F0A9BD706BA2
:104FF000091D00F0A5FDB06A844200D2B462BDE88C
:10500000F0810000400000209C0400202DE9F041C8
:10501000054600F0B9FD2D4EB068401CB060306808
:105020002B4F10B1706930B32BE03560B0680128A8
:1050300027D1002404EB840007EB800000F072FD10
:10504000641C202CF6D3234800F06CFD214814305A
:1050500000F068FD1F48283000F064FD1D483C301A
:1050600000F060FD1B48503000F05CFD1948706393
:105070001430B06305E03068E96AC06A884200D83D
:105080003560706A0121401C70626864E86A3269A8
:1050900081401143316100EB800007EB8000291D46
:1050A00000F066FD00F0ACFD706900280CD030689F
:1050B000E96AC06A884207D207494FF08050086009
:1050C000BFF34F8FBFF36F8FBDE8F081400000202A
:1050D000CC0100204C04002004ED00E010B500F0ED
:1050E00053FD0E4C2068A0B90D4800F01BFD0C4884
:1050F000143000F017FD0A48E060143020610022EF
:105100001021052001F014F9206010B105A100F074
:105110004BFEBDE8104000F073BD00007C00002095
:10512000B0040020546D72510000000070B5124EA2
:10513000124D1CE001F016F8306820B1002401F097
:105140001BFDA4B901E00124F9E700F01DFDF068A2
:10515000C468201D00F0D4FCA868401EA8606868E0
:10516000401E686000F04CFD204600F052F8686870
:105170000028DFD170BD000088040020400000201E
:1051800030B4026C0B46002A0BD0C1681144C160D8
:105190004468A14201D30168C16030BC1846FBF7E6
:1051A0009DB930BC70472DE9F041856B1746044628
:1051B0000026026C82B1C7B1E068FBF78FF9E168A5
:1051C000206C091AE1602268914202D26168081AD3
:1051D000E060022F16D017E02068A8B9606801F0DF
:1051E00025FC0646002060600EE0A068FBF776F91B
:1051F000216CA0680844A0606168884204D32068DC
:10520000A06001E005B16D1E6D1CA5633046BDE8D0
:10521000F08110B50446006B00F024FD2046BDE887
:10522000104000F01FBD000010484FF4A04142079D
:1052300006D0C01D0D4920F00700411AC1F5A0415C
:105240000B4A00230144C2E900030839103A21F057
:10525000070111604B600B600B1AC0E900139360EB
:105260004FF000405360D06070470000D804002029
:10527000AC000020074E4FF08054074DFFF756FF5B
:1052800030680128FAD92C60BFF34F8FBFF36F8FBE
:10529000F4E70000CC01002004ED00E02DE9F04728
:1052A000DDE909840E461746824691009946089D1D
:1052B000A522206BFBF757F96FF00301206B01EB80
:1052C0008701084420F00707780705D040F22B3209
:1052D00019A11EA0FBF730F800202218315C82F8DB
:1052E0003410315C11B1401C1028F6D3002684F82C
:1052F0004360202D00D31F25E562C4E91356201D0D
:1053000000F01BFC04F1180000F017FC2461C5F14B
:1053100020006462A061666584F858604A46514680
:10532000384600F003FB2060B8F1000F01D0C8F848
:105330000040BDE8F08700002E2E5C467265655285
:10534000544F535C7461736B732E63004572726FBC
:10535000723A25732C25640D0A00000030B51149FE
:1053600000E011460A688242FBD34B685C18844215
:1053700003D1406818444860084643681C189442AA
:1053800009D1084C103C2468A24209D052681A4442
:1053900042600A6812680260814200D0086030BD35
:1053A0000460F9E7AC00002070B5002441600B4DAB
:1053B0000061914206D8D11A8269914206D2011D3C
:1053C000286907E09A4203D2994201D3012403E0FD
:1053D000011DE86800F0B4FB204670BD7C00002091
:1053E00010B5044600F0D0FBA06B20B1002400F003
:1053F00007FC204610BD0124F9E700002DE9F34128
:1054000000980F460026846C2CB940F6CE1216A1E7
:105410001AA0FAF791FFA06BE16B884205D340F622
:10542000CF1211A115A0FAF787FFA06BE16B88429C
:105430000CD294F945503A4669462046FFF7B3FE30
:105440000646681C05D06D1C84F845503046BDE802
:10545000FC81606A0028F9D004F1240001F040FBCF
:105460000028F3D00126F1E72E2E5C4672656552C6
:10547000544F535C71756575652E63004572726F8C
:10548000723A25732C25640D0A000000F8B5054614
:1054900014480E46C068C068C468201D00F030FB88
:1054A000E069012817D1A0692B46411932462046F0
:1054B000FFF77AFF78B100200346014600902A46A4
:1054C000204601F03FFC30B907494FF4027201F168
:1054D0001800FAF731FF616A01B02046BDE8F040DC
:1054E000084700007C000020A86C000870B586B05A
:1054F0002F4E53E00198002806DADDE90301029AF5
:1055000090470198002849DB039C606910B1201D79
:1055100000F0F6FA05A800F0A7F8054601980A2859
:105520003CD2DFE800F00505053B273805053B27A1
:105530000298A169034601442A462046FFF734FF3A
:1055400000282BD0616A20468847E069012825D1D0
:10555000002000900298A1690023421819462046B5
:1055600001F0F0FBD0B940F2213212A117A0FAF7F6
:10557000E3FE13E00298A06128B94FF44E720DA12A
:1055800012A0FAF7D9FEA0692B4641191A46204607
:10559000FFF70AFF02E0204600F064FB00231A46F2
:1055A00001A9306800F000FF0028A3D106B070BD4B
:1055B0007C0000202E2E5C4672656552544F535C71
:1055C00074696D6572732E63000000004572726F1E
:1055D000723A25732C25640D0A000000F8B50D46BB
:1055E000064600F0BFFD684600F03EF8044600980D
:1055F00010B101F0C1FAF8BD1148ADB101690968F7
:10560000D9B10025311B2A46006800F0DFFB01F00C
:10561000B3FA0028EFD10B494FF080500860BFF378
:105620004F8FBFF36F8FF8BDA642EBD801F0A4FAFD
:1056300021463046FFF72AFFF8BD0125E2E70000CA
:105640007C00002004ED00E00648416B096829B1A8
:10565000416BC968C9684968816270474FF0FF3182
:10566000FAE700004000002070B5054601F064F93B
:10567000064E0446B068844203D200F009F80120C7
:1056800000E0002028602046B46070BD7C0000204F
:10569000F8B5184E26E0C068C4680568201D00F003
:1056A0002FFA616A20468847E06901281AD1A0696B
:1056B0002844A84206D924616060211DF06800F0EA
:1056C0003FFA0FE000200346014600902A4620469C
:1056D00001F038FB30B9084940F2923201F118006C
:1056E000FAF72AFEF06801680029D4D13169C6E9C9
:1056F0000310F8BD7C000020A86C00080848406832
:10570000401C05D040F20F1206A111A0FAF714FEBA
:10571000502080F31188BFF34F8FBFF36F8FFEE7E8
:10572000900000202E2E5C4672656552544F535CEB
:10573000706F727461626C655C525644535C415286
:105740004D5F434D34465C706F72742E63000000F1
:105750004572726F723A25732C25640D0A000000A1
:10576000084CE068016839B1002139B10020FFF729
:1057700035FFFFF7BBFEF4E70121F6E7C0680068DC
:10578000F5E700007C0000202DE9F041044600F020
:10579000FBF994F9455004F1240610E0A06C20B107
:1057A00000212046FFF72AFE04E0606A48B1304637
:1057B00001F096F908B100F0C7FB6D1E6DB2002D27
:1057C000ECDC4FF0FF3684F8456000F019FA00F089
:1057D000DBF994F9445004F1100709E0206948B15D
:1057E000384601F07DF908B100F0AEFB6D1E6DB2D8
:1057F000002DF3DC84F84460BDE8F04100F000BA0D
:105800002DE9F0410546002600F0ACFC324F386827
:1058100008B9FFF709FDF86805424FD1002D4DD0BA
:10582000083568070BD005F00700C0F108000544F3
:10583000680704D0BF2229A132A0FAF77DFD002D10
:105840003CD07868854239D823491031084604682D
:1058500001E0214604466068A84202D22068002880
:10586000F7D13868B846844228D00E6820680860AE
:1058700060680836401B10280ED96719780704D0D5
:10588000EC2216A11FA0FAF757FD6068401B786054
:1058900038466560FFF762FD6168D8F8040042464B
:1058A000401AC8F80400D8F80830984200D2906036
:1058B000D8F80C0001430020C4E9000101F05CF9B4
:1058C000700705D04FF4967204A10EA0FAF734FDCC
:1058D0003046BDE8F08100009C0000202E2E5C4682
:1058E00072656552544F535C706F727461626C657F
:1058F0005C4D656D4D616E675C686561705F342EEF
:10590000630000004572726F723A25732C25640D96
:105910000A0000000449086818B10868026D521CAA
:1059200002650868704700004000002010B5031FA2
:105930004FF080741C601B1F21F001011960191FBA
:10594000044B0B6014390A60091F6FF002024438DF
:105950000A6010BDFD5600081CB500F015F90E4890
:105960000224CDE90040002380220CA10E4800F063
:10597000A9FF09480023001DCDE9004080220BA1AA
:105980000D4800F09FFF0448001F006800F076FA01
:10599000BDE81C4000F034B9040000207461736B52
:1059A000315F7461736B0000BD5900087461736BE3
:1059B000325F7461736B0000095A000800240B4DBC
:1059C000641CE4B2D5F8A40270B10020C5F8A402AA
:1059D00000F0DAF8214606A0FAF7AEFC00F010F964
:1059E0000A20FFF739FAEBE70120EFE70080424297
:1059F000C8CECEF131D2D1BEADD6B4D0D0A3BA2567
:105A000064B4CE0D0A00000000240B4D641CE4B207
:105A1000D5F8A80270B10020C5F8A80200F0B4F8CB
:105A2000214606A0FAF788FC00F0EAF80A20FFF702
:105A300013FAEBE70120EFE700804242C8CECEF137
:105A400032D2D1BEADD6B4D0D0A3BA2564B4CE0D77
:105A50000A000000F0B50646012187B00846FEF7AF
:105A600085FF01211020FEF799FF234D0722092110
:105A70002846FAF781FF07220A212846FAF77CFF19
:105A800002218DF814108DF815104FF4C060002419
:105A900004908DF8164001278DF8177004A9284648
:105AA000FAF72EFFADF80440ADF80640ADF8084017
:105AB000ADF80C400C20114CADF80A000096694678
:105AC0002046FFF71DF901212046FFF7D7F80122F4
:105AD00040F225512046FFF7FAF825208DF81800EE
:105AE00003208DF819008DF81A008DF81B7006A898
:105AF000FEF700FF07B0F0BD0000024000100140BB
:105B0000D0E9013201699A60D0E901235A604A68FC
:105B1000824201D182684A60002202610868401E08
:105B20000860704700F108014FF0FF32C0E9011230
:105B3000C16001610021016070470021016170476F
:105B400030B50C68621C02D000F1080202E0026964
:105B500004E01A4653681D68A542FAD953684B60A1
:105B600099608A60516008610168491C016030BD1C
:105B700042684A6093688B609368596091600861DD
:105B80000168491C01607047502080F31188BFF301
:105B90004F8FBFF36F8F09494868401C4860012848
:105BA0000AD10748006810F0FF0F05D040F2B91283
:105BB00004A10FA0FAF7C0BB7047000090000020BE
:105BC00004ED00E02E2E5C4672656552544F535C26
:105BD000706F727461626C655C525644535C4152E2
:105BE0004D5F434D34465C706F72742E630000004D
:105BF0004572726F723A25732C25640D0A000000FD
:105C000010B5084C606828B94FF4E07206A111A0E5
:105C1000FAF792FB6068401E606001D180F3118842
:105C200010BD0000900000202E2E5C46726565526B
:105C3000544F535C706F727461626C655C52564471
:105C4000535C41524D5F434D34465C706F72742E0D
:105C5000630000004572726F723A25732C25640D43
:105C60000A00000070B500282AD0164DA0F10804E3
:105C70006068E968084205D14FF4A07212A11CA027
:105C8000FAF75AFB206828B140F241120EA118A081
:105C9000FAF752FB6068E968084211D02268002ACE
:105CA0000ED18843606000F05DFA6068696808445E
:105CB00068602046FFF752FBBDE8704000F05CBF13
:105CC00070BD00009C0000202E2E5C46726565525F
:105CD000544F535C706F727461626C655C4D656D9E
:105CE0004D616E675C686561705F342E6300000013
:105CF0004572726F723A25732C25640D0A000000FC
:105D0000054814210068B0FBF1F14FF0E020491E76
:105D100041610721016170470C00002010B5FAF7BE
:105D2000E5FA104C10280CD300F1E02090F8F003B5
:105D30002178884205D24FF440720BA115A0FAF7E2
:105D4000FBFA18480068A16800F4E060884207D9AF
:105D5000BDE810404FF4447203A10EA0FAF7ECBA6C
:105D600010BD0000900000202E2E5C46726565522A
:105D7000544F535C706F727461626C655C52564430
:105D8000535C41524D5F434D34465C706F72742ECC
:105D9000630000004572726F723A25732C25640D02
:105DA0000A0000000CED00E010B5074B002253F88C
:105DB00032401CB1521C082AF9D310BD43F83210EE
:105DC00003EBC201486010BD8C01002070B5154680
:105DD0000E460446FFF7D8FE94F944100020491CF3
:105DE00001D184F8440094F94510491C01D184F88C
:105DF0004500FFF705FFA06B28B92A46314604F19C
:105E0000240000F0D1F82046BDE87040FFF7BCBC8C
:105E100010B5040012D00E49096B29B140F2CF42EF
:105E20000CA111A0FAF788FA00F09CF90021204695
:105E3000FFF7B4F800F0A0FE002807D10E494FF09C
:105E400080500860BFF34F8FBFF36F8F10BD00000D
:105E5000400000202E2E5C4672656552544F535C04
:105E60007461736B732E63004572726F723A25739F
:105E70002C25640D0A00000004ED00E070B5044616
:105E8000FFF782FE234D04B92C68201DFFF738FE72
:105E900058B9E06A204A00EB800152F8211021B97C
:105EA00001218140286988432861A06A18B104F162
:105EB0001800FFF725FE686A401C68622868844263
:105EC00007D1211D1548FFF753FE6868401C686024
:105ED00007E0A868401EA8602046FFF79AF9FFF780
:105EE000B3FBFFF78DFE6869002812D02868844252
:105EF0000FD1286B28B140F2654209A10DA0FAF735
:105F00001BFA10494FF080500860BFF34F8FBFF36A
:105F10006F8F70BD40000020CC010020880400205D
:105F20002E2E5C4672656552544F535C7461736BE0
:105F3000732E63004572726F723A25732C25640DBF
:105F40000A00000004ED00E001490120C86170472B
:105F50004000002070B50D46040005D140F6063221
:105F600007A10CA0FAF7E8F90E480168204618319D
:105F7000FFF7E6FD2846BDE870400121FFF70EB8A7
:105F80002E2E5C4672656552544F535C7461736B80
:105F9000732E63004572726F723A25732C25640D5F
:105FA0000A0000004000002070B514460E460500AF
:105FB00005D140F6313209A10DA0FAF7BDF910481C
:105FC000016828461831FFF7D3FD0CB14FF0FF36BA
:105FD00021463046BDE87040FEF7E0BF2E2E5C46FD
:105FE00072656552544F535C7461736B732E63001A
:105FF0004572726F723A25732C25640D0A000000F9
:106000004000002070B5040039D01D4DE06A2968B9
:10601000C96A884233D2A069002804DB2868C06AB4
:10602000C0F12000A061E06A164E00EB80006169BB
:1060300006EB800081421FD1201DFFF761FD012189
:1060400050B9E06A00EB800256F8222022B92A6992
:1060500001FA00F082432A612868C06AE0622A6976
:1060600081401143296100EB800006EB8000211D77
:10607000BDE87040FFF77CBD2868C06AE06270BD73
:1060800040000020CC01002010B5040005D140F6EE
:10609000C13205A109A0FAF74FF90C48016A216045
:1060A000C068606010BD00002E2E5C4672656552AF
:1060B000544F535C7461736B732E63004572726F3F
:1060C000723A25732C25640D0A0000004000002060
:1060D0001CB517480024CDE900402346822215A1B3
:1060E000164800F0EFFB012803D100F0F1FD012874
:1060F0000AD0401C1BD102B040F28472BDE81040AF
:106100000FA114A0FAF718B9502080F31188BFF33B
:106110004F8FBFF36F8F06484FF0FF312C388162ED
:1061200001214161C460BDE81C4000F061B81CBDA4
:106130006C00002049444C450000000075520008E6
:106140002E2E5C4672656552544F535C7461736BBE
:10615000732E63004572726F723A25732C25640D9D
:106160000A0000000248016B491C016370470000EF
:106170004000002070B5134D286B10B10120E8617C
:1061800070BD0020E86128690F4EB0FA80F0C0F1C0
:106190001F0000EB800456F8240028B940F6F622D0
:1061A0000AA10FA0FAF7C8F806EB840000F1080274
:1061B000416849684160914201D149684160C868BD
:1061C000286070BD40000020CC0100202E2E5C46CF
:1061D00072656552544F535C7461736B732E630028
:1061E0004572726F723A25732C25640D0A00000007
:1061F0001CB5304C20683049884205D140F2591214
:106200002EA139A0FAF798F820682B49491E884238
:1062100005D14FF4AD7229A133A0FAF78DF8364CB1
:1062200020780190FF20207020788DF800009DF8E4
:1062300000009DF8001000F0F000884205D040F208
:1062400073121EA128A0FAF777F89DF800002B4AD8
:1062500000F0500010700720906007E09068401E2A
:1062600090609DF8000040008DF800009DF800004F
:106270000006F3D4107A000200F4E0609060019808
:1062800020700C482030016841F470010160016801
:1062900041F070410160FFF733FD00205060F9F7D5
:1062A000EDFF1748016841F040410160F9F7D6FF62
:1062B00000201CBD00ED00E071C20F412E2E5C4697
:1062C00072656552544F535C706F727461626C6595
:1062D0005C525644535C41524D5F434D34465C70B2
:1062E0006F72742E630000004572726F723A2573EC
:1062F0002C25640D0A00000000E400E0900000205E
:1063000034EF00E010B5502080F31188BFF34F8FB9
:10631000BFF36F8F00F016FB18B104494FF08050A7
:106320000860002080F3118810BD000004ED00E03B
:106330002DE9F04117460E46050005D14FF4C47211
:1063400010A115A0F9F7F8FFBEB105FB06F0543017
:10635000FFF756FA04000ED004F154007EB120601D
:10636000C4E90F562046012100F0E0F884F850708F
:1063700000212046A164BDE8F0810020E7E7246009
:10638000EEE700002E2E5C4672656552544F535C5A
:1063900071756575652E63004572726F723A25736B
:1063A0002C25640D0A0000002DE9FF4F83B09B46A9
:1063B0008A4604004FF0000605D140F2DC4251A1AC
:1063C00055A0F9F7B9FFBAF1000F07D1206C28B139
:1063D00040F2DD424BA150A0F9F7AEFF00F09EFA6B
:1063E00038B9059828B14FF49C6246A14AA0F9F744
:1063F000A3FF4FF000094FF08057DFF82C81FFF723
:10640000C3FBA56B45B351462046E668FEF7B8FED0
:10641000BBF1000F13D0E660606A50B104F12400B4
:1064200000F05EFB28B1C8F80070BFF34F8FBFF3D8
:106430006F8FFFF7E5FB012007B0BDE8F08F6D1E01
:10644000A563206810B9FFF765FA6060206900282D
:10645000EFD004F11000E3E7059808B11EB106E0A3
:10646000FFF7CEFB27E06846FFF70EFE0126FFF799
:10647000C7FBFFF777FEFFF787FB94F94400401C4A
:1064800001D184F8449094F94500401C01D184F86E
:106490004590FFF7B5FB05A9684600F0CFF9002845
:1064A00020460AD0FFF770F900F066FB2046FEF7A1
:1064B00097FF0028A3D00020BEE7FEF791FFD8B1D8
:1064C000206830B9FFF760FB6068FFF79BFDFFF7BE
:1064D00097FB04F124000599FFF73CFD2046FFF7E8
:1064E00053F900F049FB002889D1C8F80070BFF3C8
:1064F0004F8FBFF36F8F82E72046FFF745F900F01B
:106500003BFB7CE72E2E5C4672656552544F535C14
:1065100071756575652E63004572726F723A2573E9
:106520002C25640D0A00000004ED00E070B50D4656
:10653000040005D140F21B121CA121A0F9F7FCFEBA
:10654000FFF722FBD4E90F20216802FB00116160F4
:106550000021A1632168A1600A46D4E90F01401E11
:1065600000FB0121E16021464FF0FF3001F8440FAC
:10657000487004F110004DB1FFF7D4FA04F1240083
:10658000FFF7D0FAFFF73CFB012070BD216900291D
:10659000F8D000F0A5FA0028F4D00D494FF0805053
:1065A0000860BFF34F8FBFF36F8FEBE72E2E5C4673
:1065B00072656552544F535C71756575652E630045
:1065C0004572726F723A25732C25640D0A00000023
:1065D00004ED00E02DE9FF4F83B099468B4604009F
:1065E0004FF0000605D140F2D92252A156A0F9F78A
:1065F000A3FEBBF1000F07D1206C28B140F2DA22D4
:106600004CA151A0F9F798FEB9F1020F08D1E06B47
:10661000012805D040F2DB2246A14BA0F9F78CFE01
:1066200000F07CF938B9059828B140F2DE2241A18A
:1066300045A0F9F781FE4FF0000A4FF08057DFF8D0
:106640001881FFF7A1FAA06BE16B884206D3B9F17C
:10665000020F03D0059800B316B325E04A46594609
:106660002046FEF7A0FDA16C21B149462046FEF769
:10667000C5FE05E0616A19B104F1240000F030FAAA
:1066800028B1C8F80070BFF34F8FBFF36F8FFFF7CB
:10669000B7FA012007B0BDE8F08FFFF7B1FA21E0AB
:1066A0006846FFF7F1FC0126FFF7AAFAFFF75AFD4B
:1066B000FFF76AFA94F94400401C01D184F844A021
:1066C00094F94500401C01D184F845A0FFF798FAE1
:1066D00005A9684600F0B2F830B12046FFF754F83B
:1066E00000F04AFA0020D5E7FFF74EFAA06BE16B05
:1066F000884201D1012500E00025FFF781FA95B11C
:1067000004F110000599FFF725FC2046FFF73CF83F
:1067100000F032FA002894D1C8F80070BFF34F8F10
:10672000BFF36F8F8DE72046FFF72EF800F024FAB5
:1067300087E700002E2E5C4672656552544F535C0D
:1067400071756575652E63004572726F723A2573B7
:106750002C25640D0A00000004ED00E02DE9F0474F
:10676000984615468946040005D140F29F322AA179
:106770002EA0F9F7E1FDB9F1000F07D1206C28B187
:106780004FF4687224A129A0F9F7D6FDB8F1020FE1
:1067900008D1E06B012805D040F2A1321EA123A050
:1067A000F9F7CAFDFFF7BAFA5020EFF3118780F32B
:1067B0001188BFF34F8FBFF36F8FA06BE16B8842DF
:1067C00007D3B8F1020F04D0002087F31188BDE889
:1067D000F08794F94560424649462046FEF7E3FCBF
:1067E000701C04D0761C84F845600120EDE7A06C95
:1067F000012620B141462046FEF700FE06E0606A11
:106800000028F2D004F1240000F06AF90028ECD04E
:10681000002DEAD02E60E8E72E2E5C4672656552A8
:10682000544F535C71756575652E63004572726FC8
:10683000723A25732C25640D0A00000070B50D46D0
:10684000040005D140F6CB3214A119A0F9F774FD6C
:106850002DB940F6CC3211A115A0F9F76DFDFFF767
:1068600093F9174AD06829684B1C0FD02368126A25
:10687000934202D0626882420AD96268801A8842D2
:1068800006D2081A28602046FFF7FEFB002400E02D
:106890000124FFF7B5F9204670BD00002E2E5C469E
:1068A00072656552544F535C7461736B732E630051
:1068B0004572726F723A25732C25640D0A00000030
:1068C000400000202DE9FF5F8346DDE90E879946F1
:1068D00016468A469000FEF793FF05001AD05C200A
:1068E000FEF78EFF040012D025630021CDE902419E
:1068F000CDE900874B46324651465846FEF7CEFC5E
:106900002046FEF783FB012004B0BDE8F09F284637
:10691000FFF7A8F94FF0FF30F6E70000054841699E
:1069200019B1006B18B10020704701207047022098
:1069300070470000400000200148C0687047000018
:10694000400000202DE9F0412D4F0026386B40B16A
:10695000B869401CB861F86900B101263046BDE84D
:10696000F081FD686D1CFD6011D1786B006828B165
:1069700040F6D91223A128A0F9F7DEFC786BB96B99
:106980007963B863386A401C3862FEF75DFEB86A06
:10699000DFF89480854209D3786B006880B1786B0A
:1069A000C068C468606885420DD2B8623868C06A41
:1069B00000EB800158F821000128CCD90126CAE754
:1069C0004FF0FF30F1E7201DFFF79AF8A06A18B1E9
:1069D00004F11800FFF794F8E06A01213A69814058
:1069E0001143396100EB800108EB8100211DFFF7A5
:1069F000BFF8E06A3968C96A8842CDD30126CBE77F
:106A0000400000202E2E5C4672656552544F535C48
:106A10007461736B732E63004572726F723A2573E3
:106A20002C25640D0A000000CC01002070B5040084
:106A30004FF000063CD01F4D2868844205D040F638
:106A4000C7621DA121A0F9F777FC206D28B940F697
:106A5000C96219A11DA0F9F76FFC206D401E2065C9
:106A6000E26CE16A914223D010BB201DFFF748F889
:106A70001A49012250B9E06A00EB800351F8233033
:106A800023B92B6902FA00F083432B61E06CE062CA
:106A9000C0F12000A061E06A2B6982401A432A619C
:106AA00000EB800001EB8000211DFFF761F801265B
:106AB000304670BD400000202E2E5C467265655247
:106AC000544F535C7461736B732E63004572726F25
:106AD000723A25732C25640D0A000000CC010020B9
:106AE0002DE9F041C068C4682CB940F6613216A1A6
:106AF0001AA0F9F721FC04F118000746FFF700F887
:106B00001A4D286B012660B139461948FFF730F855
:106B1000E06A2968C96A884213D90120EE61BDE89C
:106B2000F081201DFEF7ECFFE06A2A6906FA00F109
:106B3000114329610F4900EB800001EB8000211D0A
:106B4000E4E70020EBE700002E2E5C4672656552FC
:106B5000544F535C7461736B732E63004572726F94
:106B6000723A25732C25640D0A00000040000020B5
:106B700074040020CC0100202DE9F0472B4D0024A7
:106B80002746286B28B94FF4FD6229A12DA0F9F7FB
:106B9000D3FBFEF7F9FF286B401E2863286BE8BB88
:106BA000A8682C490126C8B3A1F52A798846D8F8E7
:106BB0000010E9B1D8F80C00C46804F11800FEF721
:106BC0009FFF201DFEF79CFFE06A2A6906FA00F18C
:106BD0001143296100EB800109EB8100211DFEF7C3
:106BE000C7FFE06A2968C96A8842E0D3EE61DEE740
:106BF0000CB1FEF729FDAC693CB1FFF7A3FE00B173
:106C0000EE61641EF9D10020A861E86930B1124933
:106C1000012738070860BFF34F8F00E001E0BFF3A2
:106C20006F8FFEF7EDFF3846BDE8F087400000208B
:106C30002E2E5C4672656552544F535C7461736BC3
:106C4000732E63004572726F723A25732C25640DA2
:106C50000A0000007404002004ED00E02DE9F04774
:106C60000746994616460D462C20DDF820A0FEF773
:106C7000C7FD040014D0B8464F46D1462DB94FF495
:106C8000C67209A10EA0F9F757FBFEF727FA04F127
:106C90001801C4F8008081E8E002201DFEF74DFFD6
:106CA0002046BDE8F08700002E2E5C4672656552D6
:106CB000544F535C74696D6572732E63000000005D
:106CC0004572726F723A25732C25640D0A0000001C
:106CD0001CB50024FEF702FA0C48006868B10B49A5
:106CE0001F20091DCDE9000100234FF4827208A185
:106CF0000948FFF7E7FD040005D140F2331207A170
:106D00000CA0F9F719FB20461CBD00007C000020F8
:106D1000546D722053766300615700082E2E5C4636
:106D200072656552544F535C74696D6572732E635E
:106D3000000000004572726F723A25732C25640DB5
:106D40000A0000002DE9FF47DDF830A09946904683
:106D50000D4606004FF0000705D14FF4D37212A183
:106D600017A0F9F7E9FA1A4C206880B1CDE900586C
:106D70000296062D11DAFFF7D1FD02284FF000032D
:106D800009D0002269462068FFF724FC074604B0BA
:106D90003846BDE8F0875246F4E700234A46694684
:106DA000FFF7DCFCF2E700002E2E5C4672656552B0
:106DB000544F535C74696D6572732E63000000005C
:106DC0004572726F723A25732C25640D0A0000001B
:106DD0007C0000204FEA1153A3F58063D3F11E031A
:106DE000A8BFD3F1200C08DB4FF0004242EAC122D9
:106DF00052EA505232FA03F0704709420BD4102B7A
:106E0000C4BF0020704703F5787CBCF1FF3F05D07C
:106E10004FF0FF3070474FF00000704770B500F042
:106E2000C3F800BF4992248000207047F0E7B0FA11
:106E300080F310FA03F10AD0C3F11D0303F5806358
:106E40004FEA41504FEA035202EBD12170474FF015
:106E500000007047DFF848C170B51CEA111E1EBF64
:106E60001CEA13159EEA0C0F95EA0C0F00F06F80D8
:106E700081EA030423EA4C134EEAD47E21EA4C1142
:106E800041F4801143F48013AE44A1FB024CA0FBFB
:106E90000365AEF17F7E361955EB0C05A1FB034C63
:106EA0004CF10003A0FB021C16EB0C06654153F1EC
:106EB0000003094218BF46F0010613F4007F0BD10E
:106EC0004FEA03314FEA0530340341EA155140EAF5
:106ED00016506FF003020AE04FEAC3214FEAC520C3
:106EE000F40241EA555140EA56506FF0020202EBBB
:106EF0002E4201EB025585EACE710AD05FEA440CBE
:106F000018BF24F0004450F1000041F1000120EAD4
:106F1000D47040F2FE7C624500D270BDA84214BF1E
:106F20004FF080444FF04044002E08BF0024BEF1D3
:106F3000806FA8BFA1F1C041BDE8704080F282809F
:106F40004FF0000001F1C04101F0004170479EEA9E
:106F50000C0F0CEA131518BF95EA0C0F06D04FF072
:106F6000000081EA030E0EF0004170BD00F01CF835
:106F70008900013E00F007B800F009B84FEA430C61
:106F80005FEA5C5C08D081EA030100F05BB84FEA7D
:106F9000410C5FEA5C5CF6D14FF00000014970479C
:106FA0000000FF070000F87F0EF1020E2EF0030E26
:106FB0005EF8046B364205D4012A43EB030515F550
:106FC000001F12D8012841EB010C1CF5001F0CD842
:106FD0000ED14FEAD17C15F5001F0CEB4C0C0CF1D7
:106FE000020C08BF4CEBD37C04E04FF0080C01E02E
:106FF0004FEAD37C0CEB4C0526FA05F606F00706A3
:10700000B6F1040C06D20EEB860CBDE870404CF0D5
:10701000010C6047DFE80CF0090B02024FF0004161
:107020004FF00000A1F5002170BD1946104601285F
:1070300051EB010418BFD4F5001484BF002001F007
:10704000004170BD0808A0F500114FEA31017047FA
:107050004FF04070E1EE100A7047000000000000A1
:10706000000000000000000000003F4000000000A1
:107070000000000030004000300040000000090027
:107080000BC03D000BC03D00090018C024407FE04C
:10709000224031800000180024C01B000D803240C7
:1070A000018003801C4027401C80074000401000E6
:1070B0006000000000000000000000000000000070
:1070C0001F80204040200000402020401F80000002
:1070D0000000090006001F800600090000000400EF
:1070E00004003F8004000400000000100060000065
:1070F000000000000000040004000400040004007C
:10710000000000000040000000000000000000201F
:1071100001C006003800400000001F8020402040D1
:1071200020401F800000000010403FC000400000D1
:10713000000018C021402240244018400000108068
:107140002040244024401B80000002000D0011005C
:107150003FC0014000003C80244024402440238064
:1071600000001F8024402440344003800000300091
:10717000200027C03800200000001B80244024404D
:1071800024401B8000001C0022C0224022401F809F
:1071900000000000000008400000000000000000A7
:1071A00000000460000000000000000004000A006D
:1071B0001100208040400900090009000900090071
:1071C000000000004040208011000A000400180068
:1071D000200023402400180000001F80204027408A
:1071E00029401F400000004007C039000F0001C0C7
:1071F000004020403FC0244024401B8000001F80EE
:107200002040204020403080000020403FC02040EF
:1072100020401F80000020403FC024402E4030C04E
:10722000000020403FC024402E00300000000F002E
:107230001080204022403380020020403FC00400E4
:1072400004003FC02040204020403FC0204020405C
:1072500000000060202020203FC0200020002040AF
:107260003FC024400B0030C0204020403FC02040A1
:107270000040004000C03FC03C0003C03C003FC095
:10728000000020403FC00C4023003FC020001F8072
:107290002040204020401F80000020403FC024406C
:1072A0002400180000001F802140214020E01FA082
:1072B000000020403FC02440260019C0004018C0F4
:1072C00024402440224031800000300020403FC054
:1072D00020403000000020003F80004000403F8000
:1072E000200020003E0001C00700380020003800C8
:1072F00007C03C0007C038000000204039C006002D
:1073000039C0204000002000384007C0384020002D
:107310000000304021C02640384020C0000000005E
:1073200000007FE0402040200000000070000C00C2
:107330000380004000000000402040207FE000006B
:1073400000000000200040002000000000000010AD
:10735000001000100010001000100000000040009D
:10736000000000000000000002800540054003C04E
:10737000004020003FC004400440038000000000A3
:1073800003800440044006400000000003800440E5
:1073900024403FC0004000000380054005400340FA
:1073A0000000000004401FC02440244020000000D2
:1073B00002E0055005500650042020403FC0044024
:1073C000040003C000400000044027C0004000004B
:1073D000000000100010041027E000000000204012
:1073E0003FC00140070004C00440204020403FC08F
:1073F00000400040000007C0040007C0040003C0B4
:107400000000044007C00440040003C00040000026
:1074100003800440044003800000041007F004507F
:10742000044003800000000003800440045007F083
:107430000010044007C002400400040000000000E7
:1074400006400540054004C00000000004001F8005
:10745000044000400000040007800040044007C0D2
:1074600000400400070004C001800600040006007C
:1074700001C0070001C006000000044006C0010072
:1074800006C0044000000410071004E0018006005C
:1074900004000000044005C0064004400000000055
:1074A000000004007BE0402000000000000000001D
:1074B000FFF000000000000040207BE0040000001E
:1074C000000040008000400020002000400000003C
:1074D00000000000000000000000000000000000AC
:1074E000000000001FCC000C0000000000000000A5
:1074F000080030006000080030006000000002203A
:1075000003FC1E20022003FC1E20022000000000BD
:107510000E1811043FFF10840C78000000000F00CB
:1075200010840F3800C007781884007800000078B5
:107530000F8410C411240E9800E400840008080091
:107540006800700000000000000000000000000063
:107550000000000007E018182004400200000000AE
:1075600040022004181807E000000000000002405C
:10757000024001800FF001800240024000000080C4
:10758000008000800FF80080008000800000000173
:10759000000D000E000000000000000000000000D0
:1075A000008000800080008000800080008000005B
:1075B000000C000C000000000000000000000000B3
:1075C000000600180060018006001800200000007E
:1075D00007F0080810041004080807F00000000075
:1075E000080408041FFC0004000400000000000060
:1075F0000E0C10141024104411840E0C0000000016
:107600000C1810041104110412880C700000000002
:1076100000E00320042408241FFC002400000000D4
:107620001F981084110411041088107000000000CD
:1076300007F0088811041104188800700000000089
:107640001C00100010FC13001C00100000000000C3
:107650000E3811441084108411440E3800000000CC
:107660000700088C10441044088807F00000000050
:1076700000000000030C030C0000000000000000EC
:1076800000000001010600000000000000000000F2
:1076900000800140022004100808100400000220AD
:1076A000022002200220022002200220000000000E
:1076B00010040808041002200140008000000000AF
:1076C0000E001200100C106C10800F00000003E080
:1076D0000C1813E4142417C4082807D00000000471
:1076E000003C03C41C40074000E4001C00041004DC
:1076F0001FFC1104110411040E880070000003E047
:107700000C1810041004100410081C1000001004C1
:107710001FFC100410041004080807F000001004F7
:107720001FFC1104110417C41004081800001004F1
:107730001FFC1104110017C010000800000003E036
:107740000C181004100410441C78004000001004B1
:107750001FFC10840080008010841FFC10040000B7
:10776000100410041FFC10041004000000000003AB
:107770000001100110011FFE100010000000100495
:107780001FFC110403801464181C10040000100472
:107790001FFC1004000400040004000C000010048E
:1077A0001FFC1F0000FC1F001FFC10040000100441
:1077B0001FFC0C04030000E010181FFC100007F071
:1077C0000808100410041004080807F00000100452
:1077D0001FFC10841080108010800F00000007F044
:1077E000081810241024101C080A07F200001004C6
:1077F0001FFC1104110011C011300E0C0004000018
:107800000E1C11041084108410441C380000180051
:10781000100010041FFC10041000180000001000DD
:107820001FF810040004000410041FF810001000DA
:107830001E0011E0001C007013801C0010001FC00F
:10784000103C00E01F0000E0103C1FC000001004CE
:10785000180C163401C001C01634180C10041000A6
:107860001C00130400FC13041C001000000008049A
:10787000101C1064108413041C0410180000000075
:10788000000000007FFE40024002400200000000B5
:1078900030000C0003800060001C000300000000AA
:1078A0004002400240027FFE000000000000000095
:1078B00000002000400040004000200000000001C7
:1078C00000010001000100010001000100010000B1
:1078D0004000400020000000000000000000000008
:1078E0000098012401440144014400FC00041000FC
:1078F0001FFC0088010401040088007000000000E3
:1079000000700088010401040104008800000000E8
:10791000007000880104010411081FFC000400002D
:1079200000F8014401440144014400C80000000083
:10793000010401040FFC11041104110018000000DF
:1079400000D601290129012901C9010600001004FE
:107950001FFC008401000100010400FC0004000081
:107960000104190419FC00040004000000000000D8
:10797000000300010101190119FE000000001004BC
:107980001FFC0024004001B4010C010400000000B1
:10799000100410041FFC0004000400000000010497
:1079A00001FC0104010001FC0104010000FC0104D0
:1079B00001FC008401000100010400FC000400003F
:1079C00000F8010401040104010400F800000101B1
:1079D00001FF008501040104008800700000000020
:1079E0000070008801040104010501FF0001010489
:1079F000010401FC0084010401000180000000007A
:107A000000CC01240124012401240198000000007D
:107A10000100010007F8010401040000000001005A
:107A200001F8000400040004010801FC0004010046
:107A300001800170000C001001600180010001F064
:107A4000010C003001C00030010C01F00100000009
:107A50000104018C00740170018C0104000001011B
:107A600001810171000E0018016001800100000019
:107A70000184010C013401440184010C0000000068
:107A800000000000000001003EFC40024002000037
:107A9000000000000000FFFF0000000000000000E8
:107AA000400240023EFC0100000000000000000017
:107AB00060008000800040004000200020000000A6
:107AC00000000000000000000000000000000000B6
:107AD00000000000000000000000000000000000A6
:107AE0000000000000000000000000000000000096
:107AF000000F80380FFE380F8038000000000000B3
:107B0000000000000000000000000000010000066E
:107B100000000C00003800003100000600000C00DE
:107B2000003800003000000000000000000061800C
:107B30000067F807F98000618000618000618000C3
:107B400061800067F807F980006180000000000094
:107B50000000000001C0E003E0F00630080418084F
:107B60001FFFFE040E080787F00381E000000000FD
:107B7000000001F000060C00040408060C7001F976
:107B8000C0000E00003BE000EC18070808040C18C9
:107B90000003E00000000001E00007F003F8180413
:107BA0001C0804170807E1D003C0E00023B0003C24
:107BB0000800200800001000000000000001000084
:107BC0003100003200001C00000000000000000036
:107BD00000000000000000000000000000000000A5
:107BE00000000000000000000000000000007F0016
:107BF00001FFC00780F00C001810000420000200F4
:107C000000000000002000021000040C0018078093
:107C1000F001FFC0007F0000000000000000000035
:107C200000000000000000000000420000660000AC
:107C30006600003C0000180003FFC0001800003C74
:107C4000000066000066000042000000000008001E
:107C500000080000080000080000080001FFC00044
:107C600008000008000008000008000008000000EC
:107C70000000000100003100003200001C00000084
:107C800000000000000000000000000000000000F4
:107C900000000000000008000008000008000008C4
:107CA00000000800000800000800000800000800AC
:107CB0000008000000000000000000000000380084
:107CC0000038000038000000000000000000000044
:107CD000000000000000000000000000000000069E
:107CE00000001C000070000180000E000038000041
:107CF000C0000700001C0000300000000000000071
:107D000000007F8001FFE003807006001804000877
:107D100004000806001803807001FFE0007F800067
:107D20000000000000000000010008010008010040
:107D30000803FFF807FFF80000080000080000082B
:107D400000000000000000000001C03802C058041C
:107D50000098040118040218040418061C1803F8FB
:107D60001801E0F800000000000000000001C0E081
:107D700003C0F004000804080804080806180803F3
:107D8000F41801E7F00001E000000000000000002E
:107D900000000300000D00001100006100008108D8
:107DA00003010807FFF80FFFF800010800010800B1
:107DB00000000000000000E007FCD00608080610E4
:107DC00008061008061008061838060FF00607C047
:107DD000000000000000000000003F8001FFE00301
:107DE000843002081804100804100804100807184A
:107DF00010030FF00007C0000000000000000000AA
:107E000003C0000700000600000600F80607F80699
:107E1000180006E000070000060000000000000057
:107E20000001E1E003F7F006341004180804180814
:107E3000040C08040C0806161803F3F001C1E00056
:107E4000000000000000F80003FC300306380402C4
:107E5000080402080402080404100308F001FFC02B
:107E6000007F000000000000000000000000000093
:107E7000000000000000703800703800703800000A
:107E800000000000000000000000000000000000F2
:107E900000000000000000000000301A00301C004C
:107EA00000000000000000000000000000000000D2
:107EB0000000000000080000140000220000410043
:107EC000008080010040020020040010080008002B
:107ED000000000000000210000210000210000211E
:107EE00000002100002100002100002100002100ED
:107EF000002100000000000000000000080008044D
:107F0000001002002001004000808000410000229B
:107F10000000140000080000000000000003C00082
:107F200004C000040000080038080F3808083808AA
:107F300010000C300007E00003C00000000000004B
:107F400000003F8000FFE0038070020F1006708881
:107F500004C088048308047F8802C09003012000C5
:107F6000FE400000080000180001F8003E0801C2B1
:107F70000007020007E20000FE00001FC80001F831
:107F800000003800000804000807FFF807FFF804A5
:107F9000080804080804080804080806180803F478
:107FA0001801E7F00001E0000000000000003F8041
:107FB00001FFE003807002001804000804000804B8
:107FC00000080400100600200780C0000000040024
:107FD0000807FFF807FFF804000804000804000879
:107FE00004001802001003807001FFE0007F800091
:107FF000000004000807FFF807FFF8040808040859
:1080000008040808040808043E08040008060018CC
:1080100001006000000004000807FFF807FFF804F3
:108020000808040800040800040800043E000600D4
:1080300000060000018000000000000000003F80FA
:1080400001FFE00380700600180400080402080421
:1080500002080203F00783F000020000020004009F
:108060000807FFF807FFF8040808000800000800E8
:1080700000080000080004080807FFF807FFF804DC
:1080800000080000000000000400080400080400CC
:108090000807FFF807FFF8040008040008040008B8
:1080A00000000000000000000000000600000700C3
:1080B000000104000104000104000307FFFE07FFA4
:1080C000FC04000004000004000004000807FFF89E
:1080D00007FFF8040C08001800003E0004C78005E4
:1080E00003C80600F8040038040018000008040063
:1080F0000807FFF807FFF804000800000800000860
:1081000000000800000800000800001800006000DF
:10811000000004000807FFF807800807FC00007F44
:10812000C00003F80007C000780007800807FFF8C8
:1081300007FFF804000804000807FFF80700080319
:10814000C00000E000003800001E00000700000131
:10815000C00400F007FFF8040000000000007F806A
:1081600001FFE00380700600180400080400080600
:10817000001803003001FFE0007F800000000400D1
:108180000807FFF807FFF8040408040400040400CB
:10819000040400040400060C0003F80001F00000D1
:1081A0000000000000007F8001FFE00380700600F7
:1081B000880400880400C806003C03003E01FFE676
:1081C000007F8400000004000807FFF807FFF804A0
:1081D0000808040800040C00040F00040BC006107B
:1081E000F003F03801E00800000800000001E0F8AA
:1081F00003F030063010041808041808040C0804B2
:108200000C080206180207F00781E0000000018058
:108210000006000004000004000004000807FFF846
:1082200007FFF80400080400000400000600000135
:10823000800004000007FFE007FFF00400180000C2
:1082400008000008000008000008000008040010F2
:1082500007FFE004000004000006000007E000073C
:10826000FE00041FE00001F80000380001E0043EB9
:108270000007C00006000004000004000007E00042
:1082800007FFC0041FF80007C007F80007FF8004BD
:108290003FF80007C004F8000700000400000000D9
:1082A0000004000806001807C07805F1C8003E0069
:1082B000001F800463E80780F80600180400080027
:1082C000000004000006000007800007E008047CAE
:1082D00008001FF80007F800180804E0080700006D
:1082E0000600000400000000000100080600380439
:1082F00000F80403E8040F08047C0805F00807C030
:1083000008070018040060000000000000000000E2
:108310000000000000000000003FFFFE20000220DF
:1083200000022000022000022000020000000000E5
:108330000000000008000007000000C00000380036
:108340000006000001C000003000000E0000010027
:1083500000000000000000002000022000022000B9
:10836000022000022000023FFFFE0000000000008B
:1083700000000000000000000000000000000008F5
:10838000000010000030000020000030000010004D
:1083900000080000000000000000000001000001D3
:1083A00000000100000100000100000100000100C8
:1083B00000010000010000010000010000010000B8
:1083C000000000000000002000002000001000005D
:1083D000100000000000000000000000000000008D
:1083E00000000000000000F00019F8001B18002237
:1083F00008002608002408002410003FF8001FF899
:1084000000000800001800000004000007FFF80F3B
:10841000FFF00018180010080020080020080030A5
:1084200018001FF0000FC00000000000000007C08F
:10843000001FF0001830002008002008002008006D
:108440003C08001C1000006000000000000000005C
:10845000000007C0001FF0003818002008002008A6
:1084600000200804101007FFF80FFFF000001000B4
:1084700000000000000000000007C0001FF0001214
:1084800030002218002208002208003208001E10C6
:10849000000E200000000000000020000020080066
:1084A000200801FFF803FFF8062008042008042034
:1084B0000807200003000000000000000000000E7C
:1084C000000E6E001FF30031B10020B10020B1009A
:1084D0003191001F13002E1E00200E0030000000FE
:1084E0000004000807FFF80FFFF800100800200044
:1084F000002000002008003FF8001FF800000800DE
:1085000000000000000000000020080020080020FB
:1085100008063FF8063FF8000008000008000008C1
:108520000000000000000000000000000000030048
:108530000003002001002001002003063FFE063F4B
:10854000FC00000000000000000000000004000823
:1085500007FFF80FFFF8000188000300002FC0009C
:1085600038F8002038002008000008000000000053
:108570000000000004000804000804000807FFF8D9
:108580000FFFF800000800000800000800000000CD
:108590000000002008003FF8003FF800100800200D
:1085A00000003FF8003FF8001008002000003FF8EE
:1085B000003FF8000008000000002008003FF8001D
:1085C0003FF8001008001000002000002008003FC5
:1085D000F8001FF80000080000000000000007C0BD
:1085E000000FF000183000300800200800200800BC
:1085F0003008001830000FF00007C0000000000035
:1086000000002001003FFF003FFF00101100200983
:10861000002008002008003038001FF0000FC000C4
:1086200000000000000007C0001FF0003818002004
:1086300008002008002009001011001FFF003FFF64
:1086400000000100000000200800200800200800B1
:108650003FF8003FF800080800100800200800203C
:1086600000003000003000000000000000000000AA
:10867000000C78001E1800330800230800210800B1
:1086800021880021980030F00038600000000000D0
:108690000000200000200000200000FFF003FFF891
:1086A0000020080020080020080000300000000022
:1086B0000000000000002000003FF0007FF80000F4
:1086C00018000008000008002010003FF8007FF0AC
:1086D000000010000000000000002000003000003A
:1086E0003C00003F800023F0000078000070002371
:1086F00080003C00003000002000002000003C0012
:10870000003FE00023F80000E0002700003E0000EA
:108710003FE00021F80001E0003E000020000000E2
:1087200000002008002008003838003E680027803C
:108730000003C8002CF8003838002018002008007A
:108740000000000000002000003003003C01003F5A
:10875000830023EC000070002380003C0000200018
:1087600000200000000000000000000000380800A9
:1087700020380020F80023E8002F88003E08003849
:108780000800201800007000000000000000000039
:108790000000000000000000000008000014001F9E
:1087A000F7FC30000620000200000000000000007E
:1087B00000000000000000000000000000000000B9
:1087C000FFFFFF00000000000000000000000000AC
:1087D00000000000000000002000023000061FF72B
:1087E000FC00140000080000000000000000000071
:1087F00000000000000000000018000060000040C1
:1088000000004000002000001000000800000400EC
:10881000000400000C000010000030313233343509
:1088200036373839414243444546403058003031AC
:1088300032333435363738396162636465664030C7
:10884000780000006488000800000020B4000000E8
:10885000C401000818890008B4000020845A0000F0
:10886000E00100080000000000000000000000001F
:10887000007A030A00000000000000000102030467
:10888000060708090000FFFF0000000000000000CC
:1088900000000000000000000102030401020304C4
:1088A00006070809000000000000000000000000AA
:1088B00000000000000000000000000000000000B8
:1088C00000000000000000000000000000000000A8
:1088D0000000000000000000000000000000000098
:1088E0000000000000000000000000000000000088
:1088F0000000000000000000AAAAAAAA00000000D0
:108900000000000000000000000000000000000067
:0889100000000000000000005F
:040000050800018965
:00000001FF
