:020000040800F2
:10000000305B00200503000857170008131700088D
:100010005517000873160008691B0008000000004F
:100020000000000000000000000000004D02000879
:100030007516000800000000A10200085D19000804
:100040001F0300081F0300081F0300081F03000808
:100050001F0300081F0300081F0300081F030008F8
:100060001F0300081F0300081F0300081F030008E8
:100070001F0300081F0300081F0300081F030008D8
:100080001F0300081F0300081F0300081F030008C8
:100090001F0300081F0300081F0300081F030008B8
:1000A0001F0300081F0300081F0300081F030008A8
:1000B0001F0300081F0300081F0300081F03000898
:1000C0001F0300081F0300081F0300081F03000888
:1000D0001F030008CD1900081F0300081F030008B4
:1000E0001F0300081F0300081F0300081F03000868
:1000F0001F0300081F0300081F0300081F03000858
:100100001F0300081F0300081F0300081F03000847
:100110001F0300081F0300081F0300081F03000837
:100120001F0300081F0300081F0300081F03000827
:100130001F0300081F0300081F0300081F03000817
:100140001F0300081F0300081F0300081F03000807
:100150001F0300081F0300081F0300081F030008F7
:100160001F0300081F0300081F0300081F030008E7
:100170001F0300081F0300081F0300081F030008D7
:100180001F0300081F03000800F002F800F04FF8FA
:100190000AA090E8000C82448344AAF10107DA45E2
:1001A00001D100F044F8AFF2090EBAE80F0013F0E5
:1001B000010F18BFFB1A43F001031847A83A0000CB
:1001C000C83A0000103A24BF78C878C1FAD852075C
:1001D00024BF30C830C144BF04680C6070470000C1
:1001E0000023002400250026103A28BF78C1FBD840
:1001F000520728BF30C148BF0B607047662903F023
:10020000E584642900F0D680732900F0778400200B
:1002100070471FB503F0D5FC00F0DAFC04000020A5
:10022000002103F041FCE0601FBD10B510BD00F0DF
:10023000F7FD1146FFF7EDFF01F02AFD00F015FE76
:1002400003B4FFF7F2FF03BC01F0AEFC2A4B1968C0
:100250000868B0E8F04F80F30988BFF36F8F4FF064
:10026000000080F311887047000000000648006815
:10027000006880F3088862B661B6BFF34F8FBFF3A2
:100280006F8F00DF00BF00BF08ED00E0DFF80C005B
:10029000016841F470010160704700BF88ED00E023
:1002A000EFF30980BFF36F8F134B1A681EF0100F26
:1002B00008BF20ED108A20E9F04F106008B44FF01D
:1002C000500080F31188BFF34F8FBFF36F8F02F0A0
:1002D000BBFD4FF0000080F3118808BC1968086866
:1002E000B0E8F04F1EF0100F08BFB0EC108A80F39A
:1002F0000988BFF36F8F704744000020EFF305803B
:10030000704700000948804709480047FEE7FEE7BC
:10031000FEE7FEE7FEE7FEE7FEE7FEE7FEE7FEE7B5
:1003200004480549054A064B70470000711900084A
:100330008901000830550020305B00203057002034
:1003400030570020704700000FB4044910B503AACD
:10035000029800F0D7FB10BC5DF814FB30000020C1
:1003600070B50C460546012A05D02878800600D5D0
:10037000EA69002302E0012305E05B1C934202D2FC
:10038000E05C0028F9D1A869E618C01AA861286ABB
:10039000184428622846AFF3008004E0D5E9012123
:1003A00014F8010B9047B442F8D32846AFF300800D
:1003B00070BD00002DE9F041064600241068752943
:1003C000314616A510D0AFF30080002802DA404273
:1003D00013A507E031688A0701D512A502E0490795
:1003E00004D511A5012401E0AFF3008000210A2209
:1003F00006F1240709E0B0FBF2FCB0FBF2F302FBCC
:100400001C00303078541846491C0028F3D123468C
:100410002A463046BDE8F04100F0E0B80000000098
:100420002D0000002B000000200000002DE9F04707
:100430004FF0000A89460446C0F820A02046E16833
:100440008847002876D0252806D0D4E90121904796
:10045000206A401C2062F1E7E168204600258847B9
:10046000C4F81CA006460027C4F818A02A2E09D0FC
:10047000304601F092FB38B304EB8708303EC8F8F1
:10048000186019E059F8041B204604EB87029161BB
:10049000E1688847012F064618D1E069002820DA74
:1004A00025F020051DE0D8F8180000EB800006EBD1
:1004B00040003038C8F818002046E16888470646F2
:1004C00001F06BFB0028EED1012F0AD02E2E08D1AF
:1004D0002046E16888477F1C0646022F45F020052C
:1004E000C4DBA069002803DA404245F00105A061A1
:1004F000E80701D025F01005B6B1A6F14100192892
:1005000002D8203645F400654A463146204625602B
:100510004D46FFF773FE58B1012806D0ED1D25F0BA
:10052000070000F1080989E704E005F1040985E7FF
:1005300030468AE7206ABDE8F087032A40F230801F
:1005400010F0030C00F0158011F8013BBCF1020F14
:10055000624498BF11F801CB00F8013B38BF11F895
:10056000013BA2F1040298BF00F801CB38BF00F8AC
:10057000013B11F0030300F0D782083AC0F0088075
:1005800051F8043B083A51F804CBA0E80810F5E70D
:10059000121D5CBF51F8043B40F8043BAFF30080F0
:1005A000D20724BF11F8013B11F801CB48BF11F865
:1005B000012B24BF00F8013B00F801CB48BF00F835
:1005C000012B704702F0FF0343EA032242EA024292
:1005D00000F0DEBA70477047704770472DE9F0476A
:1005E0000D4699469246044600F1240801688806A3
:1005F00004D5E06921F01001216000E00120A8424B
:1006000001DD471B00E00027A1697A1902EB090010
:10061000081AA0612078C00602D42046AFF30080FB
:10062000002608E0D4E901211AF806009047206A64
:10063000401C761C20624E45F4DB2078C0060AD5AB
:100640002046AFF3008006E0D4E901213020904736
:10065000206A401C2062381EA7F10107F4DC07E085
:10066000D4E9012118F805009047206A401C206257
:10067000281EA5F10105F3DC2046AFF300802078A9
:10068000000602D50220BDE8F0870120FBE7704795
:100690002DE9FF4F0C461E464FF0FF378BB0D2E9D5
:1006A0000001DDF860800A908A46C1F30A5505B959
:1006B0003D46002108464FF00000BAF1000F00F45B
:1006C000400005DA00EB80004FF4400101EA5000E1
:1006D0004FEA9059B9F1010F00DDB9460A9850EA86
:1006E0004A000ED044F61050A5F2FF3545432F14B2
:1006F000B8F1000F1ED07542291E1EDDC9F100029F
:100700001CE0B8F1010F4FF0000001D0302103E0F0
:10071000F24305E02154401CB042FBDB304600228E
:10072000002121540B99C1F80880C1E900200FB0C5
:10073000BDE8F08FBD1B6D1CDEE74A4600DA69425A
:1007400006A800F0CFFA06AB93E8070003AB83E8F6
:10075000070050460A9900F0D1FB8DE80700A0F58C
:1007600000501F3800900398002D09DD42F21F0150
:100770004A46084403A90390684600F030FE08E0AA
:10078000A0F500504A461F3803A90390684600F0C0
:100790003AFE8DE807000004000C03D04FF0FF3054
:1007A000410800E01046B8F1000F03D0002200928B
:1007B00015461EE0751E05D400F00EFA3032625563
:1007C0006D1EF9D5B3460122084302D000227F1CDA
:1007D00004E02078302801D100227F1E002A0997EA
:1007E00086D01DE0112D07DA00F0F6F9303262559F
:1007F0006D1C50EA0102F5D1084302D00098C8B13F
:100800000EE00021681E05E0235C625C6354225404
:10081000401E491C8142F7DBAB46A81B401E0990D5
:10082000002004F80B000B98099AC0F80880C0E972
:10083000002B7CE711264FF0000859E72DE9F04F17
:1008400088460446D21D22F0070191B0D1E900018B
:10085000CDE90A0101F089F902460B98C00F01D0D9
:100860002D2007E02068810701D52B2002E0202100
:1008700001EAC000032A099001D0072A05DB0346DC
:100880004146204600F0EEF90BE12078800601D5C4
:10089000E06900E00620B8F1650F814606D0B8F1A6
:1008A000660F18D0B8F1670F70D131E00020B9F1B0
:1008B000110F009001DB112301E009F101030AAAE5
:1008C00001A90CA8FFF7E4FEDDE90C70002609F190
:1008D0000105834647E001204B4600904FF000475A
:1008E0000AAA01A90CA8FFF7D3FEDDE90DB00C9907
:1008F0005D46002610B909F101000D18B9EB05009D
:1009000003D4C0F1FF3609F10105A5EB09002BE086
:10091000B9F1010F01DA4FF001090020B9F1110F0F
:100920000090484601DD112300E003460AAA01A910
:100930000CA8FFF7ADFEDDE90C704D46002683469E
:10094000207800070AD4AB4500DA5D4601A8012DE6
:1009500004DD411911F8011C302907D04F4502DA96
:1009600017F1040F04DA012082460FE06D1EEEE756
:10097000002F02DCED1B3E4403E0781CA84200DDA2
:100980007D1CB81B00F1010A4FF0004720780007DA
:1009900003D4AA4501DB4FF0FF3A0021B7F1004F25
:1009A0000DF143088DF8431024D002202B23002F93
:1009B00001DA7F422D230A21021EA0F1010000DC92
:1009C0005FB197FBF1FC97FBF1F201FB1C7C174632
:1009D0000CF1300C08F801CDEEE7A8F1010003702E
:1009E0002188090501D5452100E06521A0F1010814
:1009F00000F8011C09980FA9A1EB0807FF1D00B121
:100A00000120411901EBEA70A1693844081A401E1F
:100A1000A0612078C00602D42046AFF30080099878
:100A200028B1D4E901219047206A401C2062207837
:100A3000C00622D52046AFF300801EE0002E04DB66
:100A4000B34502DD01A8805D00E03020D4E901213A
:100A50009047206A401C2062761CAAF101005FEAE0
:100A6000000A0AD100F0B4F8C0680168405CD4E91B
:100A700001219047206A401C2062281EA5F1010533
:100A8000DCDC07E0D4E9012118F8010B9047206A6B
:100A9000401C2062381EA7F10107F3DC2046AFF3AB
:100AA0000080032011B043E601694A1C0261087806
:100AB000704700B58FB0CDE901310021059105499E
:100AC0007944CDE9031011466846FFF7AFFC0FB03B
:100AD00000BD0000E5FFFFFF10B5436913B1AFF3A0
:100AE000008001E0FFF73CFC012010BD127800F10E
:100AF00024010A7000224A700122EDE711684FF0CC
:100B0000FF32E9E7074B70B50D467B44FFF7D1FF95
:100B10000446284600F054F910B14FF0FF3070BD84
:100B2000204670BD2F11000010B5203AC0F00B8098
:100B3000B1E81850203AA0E81850B1E81850A0E8E1
:100B40001850BFF4F5AF5FEA027C24BFB1E818503B
:100B5000A0E8185044BF18C918C0BDE810405FEAAB
:100B6000827C24BF51F8043B40F8043B08BF704727
:100B7000D20728BF31F8023B48BF11F8012B28BF2C
:100B800020F8023B48BF00F8012B70474FF00002ED
:100B90000429C0F0128010F0030C00F01781CCF192
:100BA000040CBCF1020F18BF00F8012BA8BF20F8FD
:100BB000022BA1EB0C0100F009B95FEAC17C24BF54
:100BC00000F8012B00F8012B48BF00F8012B7047FB
:100BD00000487047EC54002030B5B0F10A024FEAEB
:100BE000900E71F100034EEA817EB0EB0E0061EBD6
:100BF00091014FEA101E4EEA017E10EB0E0041EB10
:100C000011114FEA102E4EEA016E10EB0E0041EB6F
:100C100011214FEA104E4EEA014E10EB0E0041EB4F
:100C20001141401841F100014FEAD00040EA417003
:100C30004FEAD10110EB80054FEA810444EA907439
:100C400044EB01046D1944EB0404521BA3414FF023
:100C5000000348BF0A3200D530BD401C41F10001FD
:100C600030BD00002DE9F0411F460446032601680F
:100C7000072A01F4006004DB08B116A505E016A5FB
:100C800003E008B115A500E015A521F010002060D3
:100C9000A069C01EA0610FB1401EA0612046AFF345
:100CA00000804FB1D4E9012138469047206A401CAA
:100CB0002062C01C206206E0206AFAE7D4E9012124
:100CC00015F8010B9047761EF8D22046AFF300804E
:100CD000BDE8F0814E414E006E616E00494E460007
:100CE000696E66002DE9F047814616468AB03348A2
:100CF00078440DC88DE80D0030487844801C03AC62
:100D00000DC884E80D0041F69B300844372190FB64
:100D1000F1F290FBF1F5A5F1800501FB12041B3CFB
:100D200002D56442012000E00020DFF890A0804658
:100D30000027FA44AAF1BE0A0DE0E00709D03246C6
:100D4000684607EB47010AEB810100F05CFB8DE888
:100D5000070064107F1C002CEFD1184F7F44AC3F7C
:100D600018E0E80714D007EB04100DF1180A90E81A
:100D70000E008AE80E00C068F04201D19819089070
:100D8000324606A903A800F03EFB03AB83E8070048
:100D90006D10641C002DE4D132466946B8F1000F95
:100DA00003A802D000F01BFB01E000F02CFBC9E916
:100DB0000001C9F808200AB0BDE8F087582F0000EC
:100DC000007B00F0800070474FF0000200B5134632
:100DD00094469646203922BFA0E80C50A0E80C505B
:100DE000B1F12001BFF4F7AF090728BFA0E80C500C
:100DF00048BF0CC05DF804EB890028BF40F8042B05
:100E000008BF704748BF20F8022B11F0804F18BF71
:100E100000F8012B7047000000487047CC540020B8
:100E20007546FFF7F9FFAE4605006946534620F0C8
:100E30000700854618B020B5FFF772FABDE82040DC
:100E40004FF000064FF000074FF000084FF0000B86
:100E500021F00701AC46ACE8C009ACE8C009ACE839
:100E6000C009ACE8C0098D46704710B50446AFF321
:100E700000802046BDE81040FFF7E2B94FF0013C8A
:100E800050F8042B51F8043B9A4221D1A2EB0C03F9
:100E9000934313EACC1317D150F8042B51F8043BB9
:100EA0009A4215D1A2EB0C03934313EACC130BD156
:100EB00050F8042B51F8043B9A4209D1A2EB0C03E1
:100EC000934313EACC13DBD04FF00000704700BF10
:100ED000D01A01BAB1FA81F101F0180122FA01F039
:100EE000CB40C1F12001DBB2C0B2C01A2CFA01F331
:100EF000D11A914311EAC311E6D170475FEA400C61
:100F000008BF91F0000F4FEA8C234FEAC12243EA59
:100F100051514FEA1C5018BF00F5F0404FEA300025
:100F200018BF41F000415FEA6C5C00F02980BCF121
:100F3000FF3F08BF40F080407047130C06BF12040B
:100F40004FF0100C4FF0000C130E04BF12020CF106
:100F5000080C130F04BF12010CF1040C930F04BF13
:100F600092000CF1020CD30F04BF52000CF1010CE3
:100F700011464FF00002A0F11F00A0EB0C007047DB
:100F800011F0004F08BF704731F000413FF4D5AF7A
:100F90000B0C06BF09044FF0100C4FF0000C0B0EA9
:100FA00004BF09020CF1080C0B0F04BF09010CF17E
:100FB000040C8B0F04BF89000CF1020CCB0F04BF93
:100FC00049000CF1010CCCF12003A0EB0C0022FA3B
:100FD00003F302FA0CF241EA030100F10100704749
:100FE00020F07F4C80EA030023F07F47ACEB07033F
:100FF00003F57C5300F0004003F1FF032DE9804925
:101000004FEA154B09B44FEA144325EA0B4E24EA84
:1010100003480FF2042606EB132749083E785FEADF
:10102000320203FB0667C7F5000707FB06F64FEA27
:1010300054374FEAD64606F1020607FB066CCCF1A0
:10104000005C4FEA1C472CEA074C07FB06F40CFB3C
:1010500006F504EB15464FEA961634BF00204FF014
:1010600000404FEAD13706FB07FC4FEA1C4C0CFB53
:101070000BF7D21B03FB0CF761EB07010CFB0EF720
:10108000B0EB074072EB17420CFB08F734BFA2EB42
:101090000742B2EB074261EB17414FEA0C444FEABB
:1010A000910706FB07FC4FEA1C4C0CFB0BF7B0EB5F
:1010B000C74072EB573203FB0CF734BFA2EBC742B9
:1010C000B2EBC74261EB57310CFB0EF7B0EBC70038
:1010D00072EB57720CFB08F734BFA2EBC702B2EBFE
:1010E000C70261EB5771039F4FEA816141EA921198
:1010F00004EBCC044FEAD1374FEA826206FB07FCCF
:1011000042EA90124FEA80604FEA1C4C0CFB0BF74E
:10111000D21B03FB0CF761EB07010CFB0EF7B0EBE6
:10112000074072EB17420CFB08F734BFA2EB0742F3
:10113000B2EB074261EB17414FEA8C554FEA91073A
:1011400004EB9C2406FB07FC4FEA1C4C0CFB0BF742
:10115000B0EBC74072EB573203FB0CF734BFA2EB86
:10116000C742B2EBC74261EB57310CFB0EF7B0EB55
:10117000C70072EB57720CFB08F734BFA2EBC70233
:10118000B2EBC70261EB577115EB4C254FEA816159
:1011900041EA92114FEA82624FEAD13742EA901255
:1011A00006FB07FC44F100044FEA80604FEA1C4C48
:1011B0000CFB0BF7D21B03FB0CF761EB07010CFBDD
:1011C0000EF7B0EB074072EB17420CFB08F734BF89
:1011D000A2EB0742B2EB074261EB174115EB1C157E
:1011E0004FEA813141EA92414FEA823242EA90422B
:1011F0004FEA80304FEA0C7644F1000448EA03439A
:101200004EEA0B484FF0000EB2EB080C71EB0307EF
:1012100024BF624639464EEB0E0E4FF0000B00180D
:10122000524149414BEB0B0BB2EB080C71EB03073E
:101230007BF1000B24BF624639464EEB0E0E4FF099
:10124000000B0018524149414BEB0B0BB2EB080C61
:1012500071EB03077BF1000B24BF624639464EEB6E
:101260000E0E51EA020718BF46F0010616EB0E7685
:1012700055F1000254F1000103D5BDE88901BDE834
:101280000088BDE88901BDE80048B619524141EB2C
:101290000101A3F10103704780807F7E7D7C7B7A12
:1012A0007978777676757473727171706F6E6E6D12
:1012B0006C6C6B6A6A6968686766666564646363B8
:1012C00062616160605F5F5E5E5D5D5C5C5B5B5A3E
:1012D0005A595958585757565655555554545353AB
:1012E00052525251515050504F4F4F4E4E4D4D4D06
:1012F0004C4C4C4B4B4B4A4A4A4949494848484751
:10130000474747464646454545444444444343438E
:101310004342424242414141002B26D4770021D032
:101320001CB54FEA370703B44FF010004FF010011F
:101330004FF000000FBCBDE810400BF1010BBBF1FA
:10134000010F08BF5FEA170722BF12F1010211F176
:1013500001014FF0004143F1000300F0004043EA77
:1013600000007047F9D35708DAE746EA064613F15A
:10137000400F4FEA16461FDD13F1200FDFBF164363
:101380000A46002120335B42C8D0C3F1200746EA59
:10139000064602FA07F74FEA164646EA0706C3F181
:1013A000200722FA03F201FA07F721FA03F14FF0BE
:1013B000000342EA0702B1E746EA020646EA0646A9
:1013C0004FEA164646EA0106BCBF46EA0646360C18
:1013D0004FF000034FF000024FF000019EE72DE9AF
:1013E000C048934630B491E8380007C831EA400C51
:1013F00048BF34EA430C03D5FFF7F2FDFFF78CFF3B
:10140000F0BCBDE800882DE9C048934630B491E8AF
:10141000380007C810F0804F08BF13F0804F03D189
:1014200000F005F8FFF778FFF0BCBDE8008820F079
:101430007F4780EA030023F07F4C07EB0C03A3F502
:101440007C5300F00040A3F1FE0392F0000F00F087
:10145000B38095F0000F00F077802DE901494FEA45
:1014600011404FEA144621EA004800FB06FC24EA3A
:10147000064708FB06F607FB08F800FB07F718EB22
:1014800006484CEB164C4FEA124B18EB07484FEA54
:1014900015464CEB174022EA0B4E0BFB06FC25EAE7
:1014A00006470EFB06F607FB0EFE0BFB07F71EEBCF
:1014B000064E4CEB164C4FF000061EEB074E4CEB65
:1014C000174B18EB0B0840F1000018EB0E0B58EB14
:1014D000000840F100008F1A4FF000013CBFC943E3
:1014E000661B14BFB5EB040C00213CBFC943F61BBF
:1014F0004FEA17444EEA8E0E27EA04454FEA1C478E
:1015000004FB07622CEA074C05FB07F70CFB05F60A
:1015100004FB0CFC16EB074642EB174216EB0C469D
:1015200042EB1C421BEB060658EB0202414146EA25
:101530009E0601D5BDE80189B619524141EB010172
:10154000A3F10103BDE801894FEA14454FEA1147B1
:1015500024EA054621EA074C05FB07F406FB07F7DA
:101560000CFB06F105FB0CFC11EB074144EB1744A7
:101570004FEA124711EB0C4144EB1C4422EA074CA2
:1015800005FB07F206FB07F70CFB06F605FB0CFC58
:1015900016EB074642EB174216EB0C4642EB1C4596
:1015A0006A1854F1000148BF7047B619524141EB27
:1015B0000101A3F10103704795F0000F37D04FEA06
:1015C00011424FEA144721EA024624EA074C02FB83
:1015D00007F106FB07F70CFB06F402FB0CFC14EB0F
:1015E000074441EB17414FEA154714EB0C4441EB1C
:1015F0001C4125EA074C02FB07F506FB07F70CFB2D
:1016000006F602FB0CFC16EB074645EB174516EBFE
:101610000C4645EB1C42121951F1000148BF7047BE
:10162000B619524141EB0101A3F1010370474FEAA2
:1016300014454FEA114724EA054621EA074C05FB09
:1016400007F106FB07F70CFB06F24FF0000605FB5F
:101650000CFC12EB074241EB174112EB0C4251EB31
:101660001C4148BF7047921841EB0101A3F10103EF
:101670007047FEE77047F0B5002201274FF0030CDA
:101680000B6807FA02F52B40AB422CD106685300D9
:101690000CFA03F4A64306600E79D0F800E09E40F1
:1016A00046EA0E0606600E79012E01D0022E12D1F6
:1016B0008668A64386604E79D0F808E09E4046EAE8
:1016C0000E0686604668AE43466045688E79964051
:1016D000B6B235434560C568A543C560CC799C402A
:1016E000C3681C43C460521C102AC9D3F0BD4B0709
:1016F000DB0E9A40C90810B500EB8100016A0F2487
:101700009C40A1430162016A1143016210BD018343
:101710007047FEE77CB50121202000F059F8012038
:101720008DF8040000228DF8062003218DF80510A5
:10173000074D4FF4C0648DF80700009469462846B1
:10174000FFF799FF21462846FFF7E1FF7CBD000027
:1017500000140240FEE7704730B50F23C2780178CD
:101760000125FAB1144A126801F1E02102F4E062A5
:10177000C2F5E062C2F30722C2F10404D34042780A
:10178000A24084781C401443220181F80024007890
:1017900000F01F018D404009800000F1E020C0F8FA
:1017A000005130BD01F01F0085404809800000F164
:1017B000E020C0F8805130BD0CED00E00249084344
:1017C00002490860704700000000FA050CED00E0D7
:1017D000044A0029116801D0014300E081431160EF
:1017E0007047000030380240044A0029116801D0D7
:1017F000014300E08143116070470000443802401B
:1018000070B5204B1968204C11F00C0104D0661003
:10181000042903D0082903D004601BE0066019E006
:10182000184A121F1168C1F38055116801F03F0179
:1018300015B1B6FBF1F101E0B4FBF1F114681268E7
:10184000C4F388146143C2F30142521C5200B1FB3D
:10185000F2F1016019680F2202EA11110B4A545C7F
:101860000168E14041601C68072505EA9424145D85
:1018700021FA04F484601B6805EA5333D25CD1403A
:10188000C16070BD083802400024F400340000201C
:101890000CB50022274900920192086840F480307C
:1018A00008604FF4A043086800F4003001900098ED
:1018B000401C0090019810B900989842F3D1086834
:1018C000800334D5012001901A484030026842F06C
:1018D000805202601848026842F440420260154893
:1018E000083002680260026842F400420260026846
:1018F00042F4A0520260031F104A1A600A6842F0C4
:1019000080720A600A689201FCD50D4940F20572A6
:101910000A60016821F003010160016841F00201E1
:1019200001600168C1F381010229FAD10CBD019265
:101930000CBD000000380240007000400854400711
:10194000003C02404FF0E0210428086903D020F059
:1019500004000861704740F00400FAE710B501F098
:1019600047FE012803D0BDE8104001F035BB10BD93
:10197000124810B5016841F4700101601048016817
:1019800041F0010101600E4A002108321160026835
:101990000C4B1A400260031D0B4A1A60026822F4C5
:1019A0008022026006480C300160FFF771FF034996
:1019B0004FF000608039086010BD000088ED00E045
:1019C00000380240FFFFF6FE1030002470B5154CC1
:1019D00040F22551204600F035F800280ED0204670
:1019E00000F0BEF8104AC1B21088030406D44404C3
:1019F0004FF0000306D50A2901D0138070BD40F4D2
:101A000000400DE00D2909D0C0F30D04074D401C26
:101A100080B229551080C728EFD870BD40F48040AF
:101A2000108070BD001001402C000020B800002084
:101A30000029818902D041F4005101E021F40051D4
:101A40008181704770B501F01F0501260024C1F3A4
:101A5000421306FA05F2012B0FD0022B0FD0838A16
:101A60004FEA11210088134206FA01F600EA060047
:101A700001D000B10124204670BD8389F0E7038ABC
:101A8000EEE710B5C1F3421301F01F040121A1409C
:101A9000012B07D0022B07D01430002A026805D092
:101AA0000A4304E00C30F8E71030F6E78A4302609E
:101AB00010BD00007FB50446008A0D46C98820F499
:101AC000405001432182A08941F20C618843A988DA
:101AD0002A8911436A8902431143A181A08A20F413
:101AE0004071A8890843A0826846FFF789FE1A481A
:101AF000844202D01948844201D1039800E0029840
:101B0000A189090400EBC00101EB0010296801D58F
:101B1000490000E08900B0FBF1F06422B0FBF2F173
:101B200009010B096FF018056B4300EB8300A389D3
:101B30001D044FF0320306D503EBC000B0FBF2F0FA
:101B400000F0070005E003EB0010B0FBF2F000F03E
:101B50000F00084320817FBD0010014000140140A8
:101B60008088C0F308007047FEE703B40198410085
:101B7000009850EAC12018BF04204A0D18BF40F059
:101B8000010040F2FF72B2EB515F08BF40F002006B
:101B9000012808BF052002B0704730380A2801D25A
:101BA00001207047002070477047000010B50446C0
:101BB0000420FFF7C7FE0A484FF47A71047014FB43
:101BC00001F1012242804FF0E020026942F002025E
:101BD00002614161016941F00101016110BD000034
:101BE000280000202DED028B0C4C9FED0D8A4FF448
:101BF0007A7594ED000A30EE080A84ED000A10EEC2
:101C0000100A01F06DFF41EC100B06A053EC102BF5
:101C1000FEF79AFB284600F065FFEAE70000002087
:101C20000AD7233C666C6F61745F6E756DB5C4D660
:101C3000B5CEAA3A20252E34660D0A0003490A883B
:101C40005206FCD5C2B28A807047000000100140E5
:101C5000054C4FF4FA75D4F8A402C143C4F8A41299
:101C6000284600F03FFFF6E7008042420025074C7F
:101C700001264FF44877C4F8A852C82000F032FF7C
:101C8000C4F8A862384600F02DFFF4E70080424215
:101C90001CB54FF44070FFF791FDA820FFF786FFB9
:101CA0004FF4E13000F03EFDFFF734FD064901201E
:101CB000CDE900010023802204A1074801F06CFC5B
:101CC00001F070F800201CBD0400002073746172E4
:101CD000745F7461736B0000992600082DE9F04170
:101CE000184E0F460446F5683068001D00F070FD80
:101CF00038B9306890F82C10012088403169814350
:101D00003161601C07D137B13168BDE8F0410E4840
:101D1000091D00F095BD30682C44AC424460316828
:101D200005D2B06BBDE8F041091D00F071BD706BCC
:101D3000091D00F06DFDB06A844200D2B462BDE8B6
:101D4000F081000044000020900400202DE9F041C3
:101D5000054600F081FD2D4EB068401CB060306833
:101D60002B4F10B1706930B32BE03560B06801289B
:101D700027D1002404EB840007EB800000F03AFD3B
:101D8000641C202CF6D3234800F034FD2148143085
:101D900000F030FD1F48283000F02CFD1D483C307D
:101DA00000F028FD1B48503000F024FD19487063F6
:101DB0001430B06305E03068E96AC06A884200D830
:101DC0003560706A0121401C70626864E86A32699B
:101DD00081401143316100EB800007EB8000291D39
:101DE00000F02EFD00F074FD706900280CD0306802
:101DF000E96AC06A884207D207494FF080500860FC
:101E0000BFF34F8FBFF36F8FBDE8F0814400002018
:101E1000C00100204004002004ED00E010B500F0F7
:101E20001BFD0E4C2068A0B90D4800F0E3FC0C48E7
:101E3000143000F0DFFC0A48E0601430206100221A
:101E40001021052001F0DEF8206010B105A100F09E
:101E500015FEBDE8104000F03BBD000080000020F2
:101E6000A4040020546D72510000000070B5124EA1
:101E7000124D1CE000F0E0FF306820B1002401F0BA
:101E8000E5FCA4B901E00124F9E700F0E5FCF06805
:101E9000C468201D00F09CFCA868401EA86068680B
:101EA000401E686000F014FD204600F052F868689B
:101EB0000028DFD170BD00007C0400204400002019
:101EC00030B4026C0B46002A0BD0C1681144C160CB
:101ED0004468A14201D30168C16030BC1846FEF7D6
:101EE0002CBB30BC70472DE9F041856B174604468A
:101EF0000026026C82B1C7B1E068FEF71EFBE16804
:101F0000206C091AE1602268914202D26168081AC5
:101F1000E060022F16D017E02068A8B9606801F0D1
:101F2000EFFB0646002060600EE0A068FEF705FBB0
:101F3000216CA0680844A0606168884204D32068CE
:101F4000A06001E005B16D1E6D1CA5633046BDE8C3
:101F5000F08110B50446006B00F0ECFC2046BDE8B3
:101F6000104000F0E7BC000010484FF4A0414207C9
:101F700006D0C01D0D4920F00700411AC1F5A0414F
:101F80000B4A00230144C2E900030839103A21F04A
:101F9000070111604B600B600B1AC0E900139360DE
:101FA0004FF000405360D06070470000CC04002028
:101FB000B0000020074E4FF08054074DFFF756FF4A
:101FC00030680128FAD92C60BFF34F8FBFF36F8FB1
:101FD000F4E70000C001002004ED00E02DE9F04727
:101FE000DDE909840E461746824691009946089D10
:101FF000A522206BFEF7E6FA6FF00301206B01EBE0
:102000008701084420F00707780705D040F22B32FB
:1020100019A11EA0FEF798F900202218315C82F861
:102020003410315C11B1401C1028F6D3002684F81E
:102030004360202D00D31F25E562C4E91356201DFF
:1020400000F0E3FB04F1180000F0DFFB2461C5F1B0
:1020500020006462A061666584F858604A46514673
:10206000384600F003FB2060B8F1000F01D0C8F83B
:102070000040BDE8F08700002E2E5C467265655278
:10208000544F535C7461736B732E63004572726FAF
:10209000723A25732C25640D0A00000030B51149F1
:1020A00000E011460A688242FBD34B685C18844208
:1020B00003D1406818444860084643681C1894429D
:1020C00009D1084C103C2468A24209D052681A4435
:1020D00042600A6812680260814200D0086030BD28
:1020E0000460F9E7B000002070B5002441600B4D9A
:1020F0000061914206D8D11A8269914206D2011D2F
:10210000286907E09A4203D2994201D3012403E0EF
:10211000011DE86800F07CFB204670BD80000020B7
:1021200010B5044600F098FBA06B20B1002400F02D
:10213000CFFB204610BD0124F9E700002DE9F34153
:1021400000980F460026846C2CB940F6CE1216A1DA
:102150001AA0FEF7F9F8A06BE16B884205D340F6B0
:10216000CF1211A115A0FEF7EFF8A06BE16B88422A
:102170000CD294F945503A4669462046FFF7B3FE23
:102180000646681C05D06D1C84F845503046BDE8F5
:10219000FC81606A0028F9D004F1240001F00AFBF8
:1021A0000028F3D00126F1E72E2E5C4672656552B9
:1021B000544F535C71756575652E63004572726F7F
:1021C000723A25732C25640D0A000000F8B5054607
:1021D00014480E46C068C068C468201D00F0F8FAB4
:1021E000E069012817D1A0692B46411932462046E3
:1021F000FFF77AFF78B100200346014600902A4697
:10220000204601F009FC30B907494FF4027201F190
:102210001800FEF799F8616A01B02046BDE8F04069
:1022200008470000800000207C39000870B586B0A7
:102230002F4E53E00198002806DADDE90301029AE7
:1022400090470198002849DB039C606910B1201D6C
:1022500000F0BEFA05A800F0A7F8054601980A2884
:102260003CD2DFE800F00505053B273805053B2794
:102270000298A169034601442A462046FFF734FF2D
:1022800000282BD0616A20468847E069012825D1C3
:10229000002000900298A1690023421819462046A8
:1022A00001F0BAFBD0B940F2213212A117A0FEF71B
:1022B0004BF813E00298A06128B94FF44E720DA1BB
:1022C00012A0FEF741F8A0692B4641191A46204694
:1022D000FFF70AFF02E0204600F02CFB00231A461D
:1022E00001A9306800F0CAFE0028A3D106B070BD75
:1022F000800000202E2E5C4672656552544F535C60
:1023000074696D6572732E63000000004572726F10
:10231000723A25732C25640D0A000000F8B50D46AD
:10232000064600F089FD684600F03EF80446009835
:1023300010B101F08BFAF8BD1148ADB1016909681F
:10234000D9B10025311B2A46006800F0A9FB01F035
:102350007DFA0028EFD10B494FF080500860BFF3A1
:102360004F8FBFF36F8FF8BDA642EBD801F06EFA26
:1023700021463046FFF72AFFF8BD0125E2E70000BD
:102380008000002004ED00E00648416B096829B197
:10239000416BC968C9684968816270474FF0FF3175
:1023A000FAE700004400002070B5054601F02EF960
:1023B000064E0446B068844203D200F009F80120BA
:1023C00000E0002028602046B46070BD800000203E
:1023D000F8B5184E26E0C068C4680568201D00F0F6
:1023E000F7F9616A20468847E06901281AD1A06997
:1023F0002844A84206D924616060211DF06800F0DD
:1024000007FA0FE000200346014600902A462046C6
:1024100001F002FB30B9084940F2923201F1180094
:10242000FDF792FFF06801680029D4D13169C6E94F
:102430000310F8BD800000207C390008084840687F
:10244000401C05D040F20F1206A111A0FDF77CFF41
:10245000502080F31188BFF34F8FBFF36F8FFEE7DB
:10246000940000202E2E5C4672656552544F535CDA
:10247000706F727461626C655C525644535C415279
:102480004D5F434D34465C706F72742E63000000E4
:102490004572726F723A25732C25640D0A00000094
:1024A000084CE068016839B1002139B10020FFF71C
:1024B00035FFFFF7BBFEF4E70121F6E7C0680068CF
:1024C000F5E70000800000202DE9F041044600F00F
:1024D000C3F994F9455004F1240610E0A06C20B132
:1024E00000212046FFF72AFE04E0606A48B130462A
:1024F00001F060F908B100F091FB6D1E6DB2002D86
:10250000ECDC4FF0FF3684F8456000F0E1F900F0B4
:10251000A3F994F9445004F1100709E0206948B187
:10252000384601F047F908B100F078FB6D1E6DB236
:10253000002DF3DC84F84460BDE8F04100F0C8B938
:102540002DE9F0410546002600F076FC324F386850
:1025500008B9FFF709FDF86805424FD1002D4DD0AD
:10256000083568070BD005F00700C0F108000544E6
:10257000680704D0BF2229A132A0FDF7E5FE002D97
:102580003CD07868854239D8234910310846046820
:1025900001E0214604466068A84202D22068002873
:1025A000F7D13868B846844228D00E6820680860A1
:1025B00060680836401B10280ED96719780704D0C8
:1025C000EC2216A11FA0FDF7BFFE6068401B7860DB
:1025D00038466560FFF762FD6168D8F8040042463E
:1025E000401AC8F80400D8F80830984200D2906029
:1025F000D8F80C0001430020C4E9000101F026F9DD
:10260000700705D04FF4967204A10EA0FDF79CFE52
:102610003046BDE8F0810000A00000202E2E5C4670
:1026200072656552544F535C706F727461626C6571
:102630005C4D656D4D616E675C686561705F342EE1
:10264000630000004572726F723A25732C25640D89
:102650000A0000000449086818B10868026D521C9D
:1026600002650868704700004400002010B5031F91
:102670004FF080741C601B1F21F001011960191FAD
:10268000044B0B6014390A60091F6FF002024438D2
:102690000A6010BD3D2400081CB500F0DDF81449A7
:1026A0000220CDE900010023322212A1144800F0DB
:1026B00073FF0F490320091DCDE9000100233222D9
:1026C00010A1134800F068FF094904200831CDE942
:1026D0000001002380220FA1114800F05DFF044893
:1026E0000838406800F034FABDE81C4000F0F0B84B
:1026F000080000206C6564305F7461736B0000003B
:10270000511C00086C6564315F7461736B000000DC
:102710006D1C0008666C6F61745F7461736B000000
:10272000E51B0008F0B50646012187B00846FFF713
:102730004FF801211020FFF757F8234D07220921F8
:102740002846FEF7D4FF07220A212846FEF7CFFFCE
:1027500002218DF814108DF815104FF4C06000247C
:1027600004908DF8164001278DF8177004A92846AB
:10277000FEF781FFADF80440ADF80640ADF8084023
:10278000ADF80C400C20114CADF80A0000966946DB
:102790002046FFF78FF901212046FFF749F9012272
:1027A00040F225512046FFF76CF925208DF81800DE
:1027B00003208DF819008DF81A008DF81B7006A8FB
:1027C000FEF7CAFF07B0F0BD000002400010014054
:1027D000D0E9013201699A60D0E901235A604A6860
:1027E000824201D182684A60002202610868401E6C
:1027F0000860704700F108014FF0FF32C0E9011294
:10280000C1600161002101607047002101617047D2
:1028100030B50C68621C02D000F1080202E00269C7
:1028200004E01A4653681D68A542FAD953684B6004
:1028300099608A60516008610168491C016030BD7F
:1028400042684A6093688B60936859609160086140
:102850000168491C01607047502080F31188BFF364
:102860004F8FBFF36F8F09494868401C48600128AB
:102870000AD10748006810F0FF0F05D040F2B912E6
:1028800004A10FA0FDF760BD704700009400002078
:1028900004ED00E02E2E5C4672656552544F535C89
:1028A000706F727461626C655C525644535C415245
:1028B0004D5F434D34465C706F72742E63000000B0
:1028C0004572726F723A25732C25640D0A00000060
:1028D00010B5084C606828B94FF4E07206A111A049
:1028E000FDF732FD6068401E606001D180F3118801
:1028F00010BD0000940000202E2E5C4672656552CB
:10290000544F535C706F727461626C655C525644D4
:10291000535C41524D5F434D34465C706F72742E70
:10292000630000004572726F723A25732C25640DA6
:102930000A00000070B500282AD0164DA0F1080446
:102940006068E968084205D14FF4A07212A11CA08A
:10295000FDF7FAFC206828B140F241120EA118A040
:10296000FDF7F2FC6068E968084211D02268002A8D
:102970000ED18843606000F05FFA606869680844BF
:1029800068602046FFF78AFBBDE8704000F05EBF3C
:1029900070BD0000A00000202E2E5C4672656552BE
:1029A000544F535C706F727461626C655C4D656D01
:1029B0004D616E675C686561705F342E6300000076
:1029C0004572726F723A25732C25640D0A0000005F
:1029D00006484FF47A710068B0FBF1F14FF0E02047
:1029E000491E416107210161704700001400002069
:1029F00010B5FDF783FC104C10280CD300F1E0203B
:102A000090F8F0032178884205D24FF440720BA170
:102A100015A0FDF799FC18480068A16800F4E06073
:102A2000884207D9BDE810404FF4447203A10EA0BC
:102A3000FDF78ABC10BD0000940000202E2E5C46DD
:102A400072656552544F535C706F727461626C654D
:102A50005C525644535C41524D5F434D34465C706A
:102A60006F72742E630000004572726F723A2573A4
:102A70002C25640D0A0000000CED00E010B5074B9A
:102A8000002253F832401CB1521C082AF9D310BD61
:102A900043F8321003EBC201486010BD80010020F2
:102AA00070B515460E460446FFF7D6FE94F944105D
:102AB0000020491C01D184F8440094F94510491CB8
:102AC00001D184F84500FFF703FFA06B28B92A461F
:102AD000314604F1240000F0D1F82046BDE87040F2
:102AE000FFF7F2BC10B5040012D00E49096B29B1F2
:102AF00040F2CF420CA111A0FDF726FC00F09CF99A
:102B000000212046FFF7EAF800F0A0FE002807D1D8
:102B10000E494FF080500860BFF34F8FBFF36F8FA7
:102B200010BD0000440000202E2E5C4672656552E8
:102B3000544F535C7461736B732E63004572726FF4
:102B4000723A25732C25640D0A00000004ED00E0A4
:102B500070B50446FFF780FE234D04B92C68201D94
:102B6000FFF736FE58B9E06A204A00EB800152F8C0
:102B7000211021B901218140286988432861A06A78
:102B800018B104F11800FFF723FE686A401C686260
:102B90002868844207D1211D1548FFF751FE686857
:102BA000401C686007E0A868401EA8602046FFF748
:102BB000D0F9FFF7E9FBFFF78BFE6869002812D018
:102BC000286884420FD1286B28B140F2654209A1E0
:102BD0000DA0FDF7B9FB10494FF080500860BFF31E
:102BE0004F8FBFF36F8F70BD44000020C0010020E5
:102BF0007C0400202E2E5C4672656552544F535C57
:102C00007461736B732E63004572726F723A257331
:102C10002C25640D0A00000004ED00E001490120AC
:102C2000C86170474400002070B50D46040005D10E
:102C300040F6063207A10CA0FDF786FB0E4801689E
:102C400020461831FFF7E4FD2846BDE87040012119
:102C5000FFF744B82E2E5C4672656552544F535CA4
:102C60007461736B732E63004572726F723A2573D1
:102C70002C25640D0A0000004400002070B51446A5
:102C80000E46050005D140F6313209A10DA0FDF731
:102C90005BFB1048016828461831FFF7D1FD0CB1E5
:102CA0004FF0FF3621463046BDE87040FFF716B8BA
:102CB0002E2E5C4672656552544F535C7461736B83
:102CC000732E63004572726F723A25732C25640D62
:102CD0000A0000004400002070B5040039D01D4DEA
:102CE000E06A2968C96A884233D2A069002804DBF7
:102CF0002868C06AC0F12000A061E06A164E00EBAF
:102D00008000616906EB800081421FD1201DFFF722
:102D10005FFD012150B9E06A00EB800256F82220E5
:102D200022B92A6901FA00F082432A612868C06A40
:102D3000E0622A6981401143296100EB800006EBC3
:102D40008000211DBDE87040FFF77ABD2868C06A89
:102D5000E06270BD44000020C001002010B50400F6
:102D600005D140F6C13205A109A0FDF7EDFA0C48E6
:102D7000016A2160C068606010BD00002E2E5C46B4
:102D800072656552544F535C7461736B732E6300AC
:102D90004572726F723A25732C25640D0A0000008B
:102DA000440000201CB517480024CDE9004023460C
:102DB000822215A1164800F0EFFB012803D100F094
:102DC000F1FD01280AD0401C1BD102B040F28472F0
:102DD000BDE810400FA114A0FDF7B6BA502080F353
:102DE0001188BFF34F8FBFF36F8F06484FF0FF314D
:102DF0002C38816201214161C460BDE81C4000F0B3
:102E000061B81CBD7000002049444C450000000022
:102E1000B51F00082E2E5C4672656552544F535CF8
:102E20007461736B732E63004572726F723A25730F
:102E30002C25640D0A0000000248016B491C016347
:102E4000704700004400002070B5134D286B10B18E
:102E50000120E86170BD0020E86128690F4EB0FADA
:102E600080F0C0F11F0000EB800456F8240028B960
:102E700040F6F6220AA10FA0FDF766FA06EB8400E1
:102E800000F10802416849684160914201D14968F6
:102E90004160C868286070BD44000020C001002067
:102EA0002E2E5C4672656552544F535C7461736B91
:102EB000732E63004572726F723A25732C25640D70
:102EC0000A0000001CB5304C20683049884205D10A
:102ED00040F259122EA139A0FDF736FA20682B498D
:102EE000491E884205D14FF4AD7229A133A0FDF7E8
:102EF0002BFA364C20780190FF20207020788DF836
:102F000000009DF800009DF8001000F0F0008842DD
:102F100005D040F273121EA128A0FDF715FA9DF806
:102F200000002B4A00F0500010700720906007E06E
:102F30009068401E90609DF8000040008DF80000F1
:102F40009DF800000006F3D4107A000200F4E0605F
:102F50009060019820700C482030016841F47001A5
:102F60000160016841F070410160FFF731FD002010
:102F70005060FDF78BF91748016841F0404101604E
:102F8000FDF774F900201CBD00ED00E071C20F4197
:102F90002E2E5C4672656552544F535C706F72748E
:102FA00061626C655C525644535C41524D5F434DC7
:102FB00034465C706F72742E630000004572726F4D
:102FC000723A25732C25640D0A00000000E400E02D
:102FD0009400002034EF00E010B5502080F31188F9
:102FE000BFF34F8FBFF36F8F00F016FB18B104498A
:102FF0004FF080500860002080F3118810BD000061
:1030000004ED00E02DE9F04117460E46050005D11C
:103010004FF4C47210A115A0FDF796F9BEB105FBDF
:1030200006F05430FFF78CFA04000ED004F154007F
:103030007EB12060C4E90F562046012100F0E0F87F
:1030400084F8507000212046A164BDE8F081002082
:10305000E7E72460EEE700002E2E5C4672656552BD
:10306000544F535C71756575652E63004572726FC0
:10307000723A25732C25640D0A0000002DE9FF4FDC
:1030800083B09B468A4604004FF0000605D140F20B
:10309000DC4251A155A0FDF757F9BAF1000F07D155
:1030A000206C28B140F2DD424BA150A0FDF74CF955
:1030B00000F09EFA38B9059828B14FF49C6246A1F9
:1030C0004AA0FDF741F94FF000094FF08057DFF8B3
:1030D0002C81FFF7C1FBA56B45B351462046E6683E
:1030E000FEF7EEFEBBF1000F13D0E660606A50B150
:1030F00004F1240000F05EFB28B1C8F80070BFF3B3
:103100004F8FBFF36F8FFFF7E3FB012007B0BDE8E0
:10311000F08F6D1EA563206810B9FFF79BFA606001
:1031200020690028EFD004F11000E3E7059808B10A
:103130001EB106E0FFF7CCFB27E06846FFF70EFE66
:103140000126FFF7C5FBFFF777FEFFF785FB94F934
:103150004400401C01D184F8449094F94500401C7F
:1031600001D184F84590FFF7B3FB05A9684600F04C
:10317000CFF9002820460AD0FFF7A6F900F066FB39
:103180002046FEF7CDFF0028A3D00020BEE7FEF7C3
:10319000C7FFD8B1206830B9FFF75EFB6068FFF762
:1031A0009BFDFFF795FB04F124000599FFF73CFD1B
:1031B0002046FFF789F900F049FB002889D1C8F8BB
:1031C0000070BFF34F8FBFF36F8F82E72046FFF78A
:1031D0007BF900F03BFB7CE72E2E5C467265655266
:1031E000544F535C71756575652E63004572726F3F
:1031F000723A25732C25640D0A00000004ED00E0EE
:1032000070B50D46040005D140F21B121CA121A08F
:10321000FDF79AF8FFF720FBD4E90F20216802FBA5
:10322000001161600021A1632168A1600A46D4E910
:103230000F01401E00FB0121E16021464FF0FF30ED
:1032400001F8440F487004F110004DB1FFF7D2FAB5
:1032500004F12400FFF7CEFAFFF73AFB012070BD1E
:1032600021690029F8D000F0A5FA0028F4D00D4912
:103270004FF080500860BFF34F8FBFF36F8FEBE7C5
:103280002E2E5C4672656552544F535C71756575A0
:10329000652E63004572726F723A25732C25640D9A
:1032A0000A00000004ED00E02DE9FF4F83B09946CD
:1032B0008B4604004FF0000605D140F2D92252A1FE
:1032C00056A0FDF741F8BBF1000F07D1206C28B1E3
:1032D00040F2DA224CA151A0FDF736F8B9F1020F05
:1032E00008D1E06B012805D040F2DB2246A14BA0BB
:1032F000FDF72AF800F07CF938B9059828B140F2BA
:10330000DE2241A145A0FDF71FF84FF0000A4FF063
:103310008057DFF81881FFF79FFAA06BE16B8842B6
:1033200006D3B9F1020F03D0059800B316B325E018
:103330004A4659462046FEF7D6FDA16C21B14946C2
:103340002046FEF7FBFE05E0616A19B104F1240096
:1033500000F030FA28B1C8F80070BFF34F8FBFF308
:103360006F8FFFF7B5FA012007B0BDE8F08FFFF7C8
:10337000AFFA21E06846FFF7F1FC0126FFF7A8FA53
:10338000FFF75AFDFFF768FA94F94400401C01D199
:1033900084F844A094F94500401C01D184F845A06C
:1033A000FFF796FA05A9684600F0B2F830B120465A
:1033B000FFF78AF800F04AFA0020D5E7FFF74CFA49
:1033C000A06BE16B884201D1012500E00025FFF7E9
:1033D0007FFA95B104F110000599FFF725FC20460E
:1033E000FFF772F800F032FA002894D1C8F80070A4
:1033F000BFF34F8FBFF36F8F8DE72046FFF764F861
:1034000000F024FA87E700002E2E5C4672656552B4
:10341000544F535C71756575652E63004572726F0C
:10342000723A25732C25640D0A00000004ED00E0BB
:103430002DE9F047984615468946040005D140F22B
:103440009F322AA12EA0FCF77FFFB9F1000F07D110
:10345000206C28B14FF4687224A129A0FCF774FFF6
:10346000B8F1020F08D1E06B012805D040F2A1327B
:103470001EA123A0FCF768FFFFF7BAFA5020EFF374
:10348000118780F31188BFF34F8FBFF36F8FA06B4D
:10349000E16B884207D3B8F1020F04D0002087F314
:1034A0001188BDE8F08794F94560424649462046B8
:1034B000FEF719FD701C04D0761C84F845600120CD
:1034C000EDE7A06C012620B141462046FEF736FE0E
:1034D00006E0606A0028F2D004F1240000F06AF9E6
:1034E0000028ECD0002DEAD02E60E8E72E2E5C46B6
:1034F00072656552544F535C71756575652E630036
:103500004572726F723A25732C25640D0A00000013
:1035100070B50D46040005D140F6CB3214A119A0B8
:10352000FCF712FF2DB940F6CC3211A115A0FCF723
:103530000BFFFFF791F9174AD06829684B1C0FD091
:103540002368126A934202D0626882420AD9626892
:10355000801A884206D2081A28602046FFF7FEFB30
:10356000002400E00124FFF7B3F9204670BD0000FD
:103570002E2E5C4672656552544F535C7461736BBA
:10358000732E63004572726F723A25732C25640D99
:103590000A000000440000202DE9FF5F8346DDE9BA
:1035A0000E87994616468A469000FEF7C9FF050029
:1035B0001AD05C20FEF7C4FF040012D0256300215E
:1035C000CDE90241CDE900874B4632465146584687
:1035D000FEF704FD2046FEF7B9FB012004B0BDE86C
:1035E000F09F2846FFF7A6F94FF0FF30F6E70000FE
:1035F0000548416919B1006B18B1002070470120DE
:103600007047022070470000440000200148C06855
:1036100070470000440000202DE9F0412D4F0026A6
:10362000386B40B1B869401CB861F86900B1012637
:103630003046BDE8F081FD686D1CFD6011D1786BEE
:10364000006828B140F6D91223A128A0FCF77CFE1F
:10365000786BB96B7963B863386A401C3862FEF7DF
:1036600093FEB86ADFF89480854209D3786B0068CE
:1036700080B1786BC068C468606885420DD2B8625A
:103680003868C06A00EB800158F821000128CCD9C5
:103690000126CAE74FF0FF30F1E7201DFFF798F849
:1036A000A06A18B104F11800FFF792F8E06A01214E
:1036B0003A6981401143396100EB800108EB8100D8
:1036C000211DFFF7BDF8E06A3968C96A8842CDD389
:1036D0000126CBE7440000202E2E5C467265655221
:1036E000544F535C7461736B732E63004572726F39
:1036F000723A25732C25640D0A000000C0010020D9
:1037000070B504004FF000063CD01F4D286884427D
:1037100005D040F6C7621DA121A0FCF715FE206D63
:1037200028B940F6C96219A11DA0FCF70DFE206D55
:10373000401E2065E26CE16A914223D010BB201D3F
:10374000FFF746F81A49012250B9E06A00EB8003FE
:1037500051F8233023B92B6902FA00F083432B611F
:10376000E06CE062C0F12000A061E06A2B69824059
:103770001A432A6100EB800001EB8000211DFFF756
:103780005FF80126304670BD440000202E2E5C46B6
:1037900072656552544F535C7461736B732E630092
:1037A0004572726F723A25732C25640D0A00000071
:1037B000C00100202DE9F041C068C4682CB940F672
:1037C000613216A11AA0FCF7BFFD04F118000746EC
:1037D000FEF7FEFF1A4D286B012660B139461948E5
:1037E000FFF72EF8E06A2968C96A884213D90120D8
:1037F000EE61BDE8F081201DFEF7EAFFE06A2A696C
:1038000006FA00F1114329610F4900EB800001EB3A
:103810008000211DE4E70020EBE700002E2E5C462F
:1038200072656552544F535C7461736B732E630001
:103830004572726F723A25732C25640D0A000000E0
:103840004400002068040020C00100202DE9F0475A
:103850002B4D00242746286B28B94FF4FD6229A17F
:103860002DA0FCF771FDFEF7F7FF286B401E2863C3
:10387000286BE8BBA8682C490126C8B3A1F52A79B2
:103880008846D8F80010E9B1D8F80C00C46804F1F3
:103890001800FEF79DFF201DFEF79AFFE06A2A69D7
:1038A00006FA00F11143296100EB800109EB810068
:1038B000211DFEF7C5FFE06A2968C96A8842E0D386
:1038C000EE61DEE70CB1FEF75FFDAC693CB1FFF7DE
:1038D000A3FE00B1EE61641EF9D10020A861E86981
:1038E00030B11249012738070860BFF34F8F00E05D
:1038F00001E0BFF36F8FFEF7EBFF3846BDE8F087BE
:10390000440000202E2E5C4672656552544F535C75
:103910007461736B732E63004572726F723A257314
:103920002C25640D0A0000006804002004ED00E06E
:103930002DE9F0470746994616460D462C20DDF83E
:1039400020A0FEF7FDFD040014D0B8464F46D14636
:103950002DB94FF4C67209A10EA0FCF7F5FCFEF7D5
:103960005DFA04F11801C4F8008081E8E002201D2E
:10397000FEF74BFF2046BDE8F08700002E2E5C4688
:1039800072656552544F535C74696D6572732E6332
:10399000000000004572726F723A25732C25640D89
:1039A0000A0000001CB50024FEF738FA0C48006835
:1039B00068B10B491F20091DCDE9000100234FF418
:1039C000827208A10948FFF7E7FD040005D140F223
:1039D000331207A10CA0FCF7B7FC20461CBD000069
:1039E00080000020546D722053766300A1240008EB
:1039F0002E2E5C4672656552544F535C74696D653A
:103A000072732E63000000004572726F723A257364
:103A10002C25640D0A0000002DE9FF47DDF830A0D9
:103A2000994690460D4606004FF0000705D14FF429
:103A3000D37212A117A0FCF787FC1A4C206880B142
:103A4000CDE900580296062D11DAFFF7D1FD0228C4
:103A50004FF0000309D0002269462068FFF724FCDC
:103A6000074604B03846BDE8F0875246F4E7002325
:103A70004A466946FFF7DCFCF2E700002E2E5C4662
:103A800072656552544F535C74696D6572732E6331
:103A9000000000004572726F723A25732C25640D88
:103AA0000A0000008000002010B500290AD0087824
:103AB000002807D005487844FDF7E0F9002801D038
:103AC000002010BD0248784410BD0000CE01000067
:103AD000C60100000808A0F500114FEA3101704747
:103AE00043004FEAD30C4FEA3C0C43401FBF400752
:103AF0000CF1605113F0FE4F70471CF0006F03D1C2
:103B000000200CF0004170470CF0004343EA507075
:103B100010B540EACC0000F00EF800BF00000092A3
:103B20004FEA0001FFF7D6BF4FF000414FF0000011
:103B3000A1F5002170470EF1020E2EF0030E5EF883
:103B4000044B244204D44FEA4102B2F17F4F11D812
:103B50004FEA4003B3F17F4F0CD80ED14FEAD07C2F
:103B6000B2F17F4F0CEB4C0C0CF1020C08BF4CEB8C
:103B7000D17C04E04FF0080C01E04FEAD17C0CEB63
:103B80004C0324FA03F404F00704B4F1040C06D245
:103B90000EEB840CBDE810404CF0010C6047DFE8F0
:103BA0000CF0070802024FF00040A0F5800010BDA5
:103BB0000846420018BFD2F1807288BF00F0004072
:103BC00010BD4FF04070E1EE100A7047FCF736BEB2
:103BD00002400000000000A00000000005400000BE
:103BE000000000C8000000000C4000000000409CE5
:103BF00000000000194000000020BCBE00000000D2
:103C000034400000BFC91B8E00000004B540000016
:103C1000504BCFD06607E2CF010000006C4100009E
:103C20003E8251AADFEEA73401000000D942000015
:103C3000DCB5A0E23A301F97FFFFFFFFB44500005C
:103C4000FD25A0C8E9A3C14FFFFFFFFFFF3F000014
:103C50000000008000000000FF3F00000000008026
:103C600000000000A03C000800000020B800000098
:103C7000C4010008583D0008B8000020785A000030
:103C8000E00100081C00000043000000F8FFFFFFF7
:103C90000C0000000E0000000F0000002E000000CD
:103CA0000000000000000000000000000000000014
:103CB00000000000007A030A00000000000000007D
:103CC00001020304060708090000000000000000CC
:103CD00000000000000000000102030401020304D0
:103CE00006070809000000000000000000000000B6
:103CF00000000000000000000000000000000000C4
:103D000000000000000000000000000000000000B3
:103D100000000000000000000000000000000000A3
:103D20000000000000000000000000000000000093
:103D30000000000000000000AAAAAAAA00000000DB
:103D40000000000000000000000000000000000073
:083D500000000000000000006B
:040000050800018965
:00000001FF
